{
  "_format": "hh-sol-artifact-1",
  "contractName": "ProfileRegistry",
  "sourceName": "contracts/ProfileRegistry.sol",
  "abi": [
    {
      "anonymous": false,
      "inputs": [
        {
          "indexed": false,
          "internalType": "address",
          "name": "previousAdmin",
          "type": "address"
        },
        {
          "indexed": false,
          "internalType": "address",
          "name": "newAdmin",
          "type": "address"
        }
      ],
      "name": "AdminChanged",
      "type": "event"
    },
    {
      "anonymous": false,
      "inputs": [
        {
          "indexed": true,
          "internalType": "address",
          "name": "owner",
          "type": "address"
        },
        {
          "indexed": true,
          "internalType": "address",
          "name": "approved",
          "type": "address"
        },
        {
          "indexed": true,
          "internalType": "uint256",
          "name": "tokenId",
          "type": "uint256"
        }
      ],
      "name": "Approval",
      "type": "event"
    },
    {
      "anonymous": false,
      "inputs": [
        {
          "indexed": true,
          "internalType": "address",
          "name": "owner",
          "type": "address"
        },
        {
          "indexed": true,
          "internalType": "address",
          "name": "operator",
          "type": "address"
        },
        {
          "indexed": false,
          "internalType": "bool",
          "name": "approved",
          "type": "bool"
        }
      ],
      "name": "ApprovalForAll",
      "type": "event"
    },
    {
      "anonymous": false,
      "inputs": [
        {
          "indexed": false,
          "internalType": "uint256",
          "name": "_fromTokenId",
          "type": "uint256"
        },
        {
          "indexed": false,
          "internalType": "uint256",
          "name": "_toTokenId",
          "type": "uint256"
        }
      ],
      "name": "BatchMetadataUpdate",
      "type": "event"
    },
    {
      "anonymous": false,
      "inputs": [
        {
          "indexed": true,
          "internalType": "address",
          "name": "beacon",
          "type": "address"
        }
      ],
      "name": "BeaconUpgraded",
      "type": "event"
    },
    {
      "anonymous": false,
      "inputs": [
        {
          "indexed": false,
          "internalType": "uint256",
          "name": "profileID",
          "type": "uint256"
        },
        {
          "indexed": false,
          "internalType": "address",
          "name": "collection",
          "type": "address"
        }
      ],
      "name": "CompositionAdded",
      "type": "event"
    },
    {
      "anonymous": false,
      "inputs": [
        {
          "indexed": false,
          "internalType": "uint256",
          "name": "profileID",
          "type": "uint256"
        },
        {
          "indexed": false,
          "internalType": "uint256",
          "name": "index",
          "type": "uint256"
        }
      ],
      "name": "CompositionRemoved",
      "type": "event"
    },
    {
      "anonymous": false,
      "inputs": [
        {
          "indexed": false,
          "internalType": "uint8",
          "name": "version",
          "type": "uint8"
        }
      ],
      "name": "Initialized",
      "type": "event"
    },
    {
      "anonymous": false,
      "inputs": [
        {
          "indexed": false,
          "internalType": "uint256",
          "name": "_tokenId",
          "type": "uint256"
        }
      ],
      "name": "MetadataUpdate",
      "type": "event"
    },
    {
      "anonymous": false,
      "inputs": [
        {
          "indexed": false,
          "internalType": "address",
          "name": "account",
          "type": "address"
        },
        {
          "indexed": false,
          "internalType": "string",
          "name": "handle",
          "type": "string"
        }
      ],
      "name": "NewProfileCreated",
      "type": "event"
    },
    {
      "anonymous": false,
      "inputs": [
        {
          "indexed": true,
          "internalType": "address",
          "name": "previousOwner",
          "type": "address"
        },
        {
          "indexed": true,
          "internalType": "address",
          "name": "newOwner",
          "type": "address"
        }
      ],
      "name": "OwnershipTransferred",
      "type": "event"
    },
    {
      "anonymous": false,
      "inputs": [
        {
          "indexed": true,
          "internalType": "address",
          "name": "from",
          "type": "address"
        },
        {
          "indexed": true,
          "internalType": "address",
          "name": "to",
          "type": "address"
        },
        {
          "indexed": true,
          "internalType": "uint256",
          "name": "tokenId",
          "type": "uint256"
        }
      ],
      "name": "Transfer",
      "type": "event"
    },
    {
      "anonymous": false,
      "inputs": [
        {
          "indexed": true,
          "internalType": "address",
          "name": "implementation",
          "type": "address"
        }
      ],
      "name": "Upgraded",
      "type": "event"
    },
    {
      "inputs": [
        {
          "internalType": "uint256",
          "name": "_profileId",
          "type": "uint256"
        },
        {
          "internalType": "address",
          "name": "_collectionAddress",
          "type": "address"
        }
      ],
      "name": "addCollection",
      "outputs": [],
      "stateMutability": "nonpayable",
      "type": "function"
    },
    {
      "inputs": [
        {
          "internalType": "address",
          "name": "",
          "type": "address"
        }
      ],
      "name": "addressToProfileID",
      "outputs": [
        {
          "internalType": "uint256",
          "name": "",
          "type": "uint256"
        }
      ],
      "stateMutability": "view",
      "type": "function"
    },
    {
      "inputs": [
        {
          "internalType": "address",
          "name": "to",
          "type": "address"
        },
        {
          "internalType": "uint256",
          "name": "tokenId",
          "type": "uint256"
        }
      ],
      "name": "approve",
      "outputs": [],
      "stateMutability": "nonpayable",
      "type": "function"
    },
    {
      "inputs": [
        {
          "internalType": "address",
          "name": "owner",
          "type": "address"
        }
      ],
      "name": "balanceOf",
      "outputs": [
        {
          "internalType": "uint256",
          "name": "",
          "type": "uint256"
        }
      ],
      "stateMutability": "view",
      "type": "function"
    },
    {
      "inputs": [
        {
          "internalType": "address",
          "name": "user",
          "type": "address"
        },
        {
          "internalType": "address",
          "name": "_collectionAddress",
          "type": "address"
        }
      ],
      "name": "delegateAddCollection",
      "outputs": [],
      "stateMutability": "nonpayable",
      "type": "function"
    },
    {
      "inputs": [
        {
          "internalType": "uint256",
          "name": "tokenId",
          "type": "uint256"
        }
      ],
      "name": "getApproved",
      "outputs": [
        {
          "internalType": "address",
          "name": "",
          "type": "address"
        }
      ],
      "stateMutability": "view",
      "type": "function"
    },
    {
      "inputs": [
        {
          "internalType": "string",
          "name": "_handle",
          "type": "string"
        }
      ],
      "name": "getIdFromHandle",
      "outputs": [
        {
          "internalType": "uint256",
          "name": "",
          "type": "uint256"
        }
      ],
      "stateMutability": "view",
      "type": "function"
    },
    {
      "inputs": [
        {
          "internalType": "uint256",
          "name": "_id",
          "type": "uint256"
        }
      ],
      "name": "getProfileByID",
      "outputs": [
        {
          "components": [
            {
              "internalType": "string",
              "name": "handle",
              "type": "string"
            },
            {
              "internalType": "string",
              "name": "metadataURI",
              "type": "string"
            },
            {
              "internalType": "address[]",
              "name": "collections",
              "type": "address[]"
            }
          ],
          "internalType": "struct ProfileRegistry.Profile",
          "name": "",
          "type": "tuple"
        }
      ],
      "stateMutability": "view",
      "type": "function"
    },
    {
      "inputs": [],
      "name": "initialize",
      "outputs": [],
      "stateMutability": "nonpayable",
      "type": "function"
    },
    {
      "inputs": [
        {
          "internalType": "address",
          "name": "owner",
          "type": "address"
        },
        {
          "internalType": "address",
          "name": "operator",
          "type": "address"
        }
      ],
      "name": "isApprovedForAll",
      "outputs": [
        {
          "internalType": "bool",
          "name": "",
          "type": "bool"
        }
      ],
      "stateMutability": "view",
      "type": "function"
    },
    {
      "inputs": [],
      "name": "name",
      "outputs": [
        {
          "internalType": "string",
          "name": "",
          "type": "string"
        }
      ],
      "stateMutability": "view",
      "type": "function"
    },
    {
      "inputs": [],
      "name": "owner",
      "outputs": [
        {
          "internalType": "address",
          "name": "",
          "type": "address"
        }
      ],
      "stateMutability": "view",
      "type": "function"
    },
    {
      "inputs": [
        {
          "internalType": "uint256",
          "name": "tokenId",
          "type": "uint256"
        }
      ],
      "name": "ownerOf",
      "outputs": [
        {
          "internalType": "address",
          "name": "",
          "type": "address"
        }
      ],
      "stateMutability": "view",
      "type": "function"
    },
    {
      "inputs": [],
      "name": "proxiableUUID",
      "outputs": [
        {
          "internalType": "bytes32",
          "name": "",
          "type": "bytes32"
        }
      ],
      "stateMutability": "view",
      "type": "function"
    },
    {
      "inputs": [
        {
          "internalType": "string",
          "name": "_handle",
          "type": "string"
        },
        {
          "internalType": "string",
          "name": "_metadataURI",
          "type": "string"
        }
      ],
      "name": "registerProfile",
      "outputs": [],
      "stateMutability": "payable",
      "type": "function"
    },
    {
      "inputs": [
        {
          "internalType": "uint256",
          "name": "_profileId",
          "type": "uint256"
        },
        {
          "internalType": "uint256",
          "name": "_index",
          "type": "uint256"
        }
      ],
      "name": "removeCollection",
      "outputs": [],
      "stateMutability": "nonpayable",
      "type": "function"
    },
    {
      "inputs": [],
      "name": "renounceOwnership",
      "outputs": [],
      "stateMutability": "nonpayable",
      "type": "function"
    },
    {
      "inputs": [
        {
          "internalType": "address",
          "name": "from",
          "type": "address"
        },
        {
          "internalType": "address",
          "name": "to",
          "type": "address"
        },
        {
          "internalType": "uint256",
          "name": "tokenId",
          "type": "uint256"
        }
      ],
      "name": "safeTransferFrom",
      "outputs": [],
      "stateMutability": "nonpayable",
      "type": "function"
    },
    {
      "inputs": [
        {
          "internalType": "address",
          "name": "from",
          "type": "address"
        },
        {
          "internalType": "address",
          "name": "to",
          "type": "address"
        },
        {
          "internalType": "uint256",
          "name": "tokenId",
          "type": "uint256"
        },
        {
          "internalType": "bytes",
          "name": "data",
          "type": "bytes"
        }
      ],
      "name": "safeTransferFrom",
      "outputs": [],
      "stateMutability": "nonpayable",
      "type": "function"
    },
    {
      "inputs": [
        {
          "internalType": "address",
          "name": "allowList",
          "type": "address"
        }
      ],
      "name": "setAllowListAddress",
      "outputs": [],
      "stateMutability": "nonpayable",
      "type": "function"
    },
    {
      "inputs": [
        {
          "internalType": "address",
          "name": "operator",
          "type": "address"
        },
        {
          "internalType": "bool",
          "name": "approved",
          "type": "bool"
        }
      ],
      "name": "setApprovalForAll",
      "outputs": [],
      "stateMutability": "nonpayable",
      "type": "function"
    },
    {
      "inputs": [
        {
          "internalType": "address",
          "name": "factoryAddress",
          "type": "address"
        }
      ],
      "name": "setFactoryAddress",
      "outputs": [],
      "stateMutability": "nonpayable",
      "type": "function"
    },
    {
      "inputs": [
        {
          "internalType": "bytes4",
          "name": "interfaceId",
          "type": "bytes4"
        }
      ],
      "name": "supportsInterface",
      "outputs": [
        {
          "internalType": "bool",
          "name": "",
          "type": "bool"
        }
      ],
      "stateMutability": "view",
      "type": "function"
    },
    {
      "inputs": [],
      "name": "symbol",
      "outputs": [
        {
          "internalType": "string",
          "name": "",
          "type": "string"
        }
      ],
      "stateMutability": "view",
      "type": "function"
    },
    {
      "inputs": [
        {
          "internalType": "uint256",
          "name": "tokenId",
          "type": "uint256"
        }
      ],
      "name": "tokenURI",
      "outputs": [
        {
          "internalType": "string",
          "name": "",
          "type": "string"
        }
      ],
      "stateMutability": "view",
      "type": "function"
    },
    {
      "inputs": [
        {
          "internalType": "address",
          "name": "from",
          "type": "address"
        },
        {
          "internalType": "address",
          "name": "to",
          "type": "address"
        },
        {
          "internalType": "uint256",
          "name": "tokenId",
          "type": "uint256"
        }
      ],
      "name": "transferFrom",
      "outputs": [],
      "stateMutability": "nonpayable",
      "type": "function"
    },
    {
      "inputs": [
        {
          "internalType": "address",
          "name": "newOwner",
          "type": "address"
        }
      ],
      "name": "transferOwnership",
      "outputs": [],
      "stateMutability": "nonpayable",
      "type": "function"
    },
    {
      "inputs": [
        {
          "internalType": "uint256",
          "name": "_profileId",
          "type": "uint256"
        },
        {
          "internalType": "string",
          "name": "_metadataURI",
          "type": "string"
        }
      ],
      "name": "updateProfileMetadata",
      "outputs": [],
      "stateMutability": "nonpayable",
      "type": "function"
    },
    {
      "inputs": [
        {
          "internalType": "address",
          "name": "newImplementation",
          "type": "address"
        }
      ],
      "name": "upgradeTo",
      "outputs": [],
      "stateMutability": "nonpayable",
      "type": "function"
    },
    {
      "inputs": [
        {
          "internalType": "address",
          "name": "newImplementation",
          "type": "address"
        },
        {
          "internalType": "bytes",
          "name": "data",
          "type": "bytes"
        }
      ],
      "name": "upgradeToAndCall",
      "outputs": [],
      "stateMutability": "payable",
      "type": "function"
    },
    {
      "inputs": [
        {
          "internalType": "address payable",
          "name": "_to",
          "type": "address"
        }
      ],
      "name": "withdraw",
      "outputs": [],
      "stateMutability": "nonpayable",
      "type": "function"
    }
  ],
  "bytecode": "0x60a06040523060805234801561001457600080fd5b5060805161342161004c60003960008181610be101528181610c2101528181610cdc01528181610d1c0152610e8d01526134216000f3fe6080604052600436106101d85760003560e01c8063715018a611610102578063a22cb46511610095578063c87b56dd11610064578063c87b56dd1461054f578063d7e362e51461056f578063e985e9c51461058f578063f2fde38b146105d857600080fd5b8063a22cb465146104c1578063aa0e046f146104e1578063b88d4fde14610501578063c009c1111461052157600080fd5b8063841e2fb7116100d1578063841e2fb71461044157806387ef6898146104615780638da5cb5b1461048e57806395d89b41146104ac57600080fd5b8063715018a6146103d75780637a8aa040146103ec5780638129fc1c1461040c57806383c17c551461042157600080fd5b80633659cfe61161017a57806351cff8d91161014957806351cff8d91461036257806352d1902d146103825780636352211e1461039757806370a08231146103b757600080fd5b80633659cfe6146102e157806342842e0e146103015780634f1ef2861461032157806351c75f241461033457600080fd5b8063095ea7b3116101b6578063095ea7b31461026c5780631b4886a31461028e57806323b872dd146102a157806333171b93146102c157600080fd5b806301ffc9a7146101dd57806306fdde0314610212578063081812fc14610234575b600080fd5b3480156101e957600080fd5b506101fd6101f8366004612a1d565b6105f8565b60405190151581526020015b60405180910390f35b34801561021e57600080fd5b50610227610623565b6040516102099190612a92565b34801561024057600080fd5b5061025461024f366004612aa5565b6106b5565b6040516001600160a01b039091168152602001610209565b34801561027857600080fd5b5061028c610287366004612ad3565b6106dc565b005b61028c61029c366004612b48565b6107f7565b3480156102ad57600080fd5b5061028c6102bc366004612bb4565b610b7a565b3480156102cd57600080fd5b5061028c6102dc366004612bf5565b610bab565b3480156102ed57600080fd5b5061028c6102fc366004612bf5565b610bd6565b34801561030d57600080fd5b5061028c61031c366004612bb4565b610cb6565b61028c61032f366004612cd7565b610cd1565b34801561034057600080fd5b5061035461034f366004612d27565b610da2565b604051908152602001610209565b34801561036e57600080fd5b5061028c61037d366004612bf5565b610e43565b34801561038e57600080fd5b50610354610e80565b3480156103a357600080fd5b506102546103b2366004612aa5565b610f33565b3480156103c357600080fd5b506103546103d2366004612bf5565b610f93565b3480156103e357600080fd5b5061028c611019565b3480156103f857600080fd5b5061028c610407366004612d69565b61102d565b34801561041857600080fd5b5061028c611111565b34801561042d57600080fd5b5061028c61043c366004612bf5565b611240565b34801561044d57600080fd5b5061028c61045c366004612da2565b61126b565b34801561046d57600080fd5b5061048161047c366004612aa5565b611345565b6040516102099190612dee565b34801561049a57600080fd5b5060c9546001600160a01b0316610254565b3480156104b857600080fd5b5061022761150f565b3480156104cd57600080fd5b5061028c6104dc366004612e8b565b61151e565b3480156104ed57600080fd5b5061028c6104fc366004612eb9565b611529565b34801561050d57600080fd5b5061028c61051c366004612edb565b6116fb565b34801561052d57600080fd5b5061035461053c366004612bf5565b6101626020526000908152604090205481565b34801561055b57600080fd5b5061022761056a366004612aa5565b61172d565b34801561057b57600080fd5b5061028c61058a366004612f47565b61183e565b34801561059b57600080fd5b506101fd6105aa366004612d69565b6001600160a01b039182166000908152606a6020908152604080832093909416825291909152205460ff1690565b3480156105e457600080fd5b5061028c6105f3366004612bf5565b6119ff565b60006001600160e01b03198216632483248360e11b148061061d575061061d82611a75565b92915050565b60606065805461063290612f6c565b80601f016020809104026020016040519081016040528092919081815260200182805461065e90612f6c565b80156106ab5780601f10610680576101008083540402835291602001916106ab565b820191906000526020600020905b81548152906001019060200180831161068e57829003601f168201915b5050505050905090565b60006106c082611ac5565b506000908152606960205260409020546001600160a01b031690565b60006106e782610f33565b9050806001600160a01b0316836001600160a01b0316141561075a5760405162461bcd60e51b815260206004820152602160248201527f4552433732313a20617070726f76616c20746f2063757272656e74206f776e656044820152603960f91b60648201526084015b60405180910390fd5b336001600160a01b0382161480610776575061077681336105aa565b6107e85760405162461bcd60e51b815260206004820152603d60248201527f4552433732313a20617070726f76652063616c6c6572206973206e6f7420746f60448201527f6b656e206f776e6572206f7220617070726f76656420666f7220616c6c0000006064820152608401610751565b6107f28383611b15565b505050565b61016154604051637bca031760e11b81523360048201526001600160a01b039091169063f794062e90602401602060405180830381865afa158015610840573d6000803e3d6000fd5b505050506040513d601f19601f820116820180604052508101906108649190612fa7565b61086d57600080fd5b60405163447d7a1d60e01b815260009073__$2785bbb6cee085d94dd77d5b826fa91450$__9063447d7a1d906108a99088908890600401612fed565b600060405180830381865af41580156108c6573d6000803e3d6000fd5b505050506040513d6000823e601f3d908101601f191682016040526108ee9190810190613001565b8051602091820120336000908152610162909252604090912054909150156109645760405162461bcd60e51b815260206004820152602360248201527f54686973206164647265737320616c72656164792068617320612070726f666960448201526236329760e91b6064820152608401610751565b60008181526101636020526040902054156109b85760405162461bcd60e51b81526020600482015260146024820152732430b73236329030b63932b0b23c903a30b5b2b760611b6044820152606401610751565b60405163524f388960e01b815273__$c9f59c28d4da4dbdd1cf6443f17bbbffba$__9063524f3889906109f19088908890600401612fed565b602060405180830381865af4158015610a0e573d6000803e3d6000fd5b505050506040513d601f19601f82011682018060405250810190610a329190613078565b341015610a765760405162461bcd60e51b8152602060048201526012602482015271496e73756669636369656e742066756e647360701b6044820152606401610751565b6000610a8261015f5490565b3360009081526101626020908152604080832084905585835261016382528083208490558383526101649091529020909150610abf9087876128fa565b50600081815261016460205260409020610add9060010185856128fa565b50610ae83382611b83565b610b288185858080601f016020809104026020016040519081016040528093929190818152602001838380828437600092019190915250611b9d92505050565b610b3761015f80546001019055565b7f7d0acb19c93f18695c284dd2bcea8e269defa04a36439b2bd24651b6de0b28a9338787604051610b6a93929190613091565b60405180910390a1505050505050565b610b843382611c60565b610ba05760405162461bcd60e51b8152600401610751906130b6565b6107f2838383611cde565b610bb3611d12565b61016180546001600160a01b0319166001600160a01b0392909216919091179055565b306001600160a01b037f0000000000000000000000000000000000000000000000000000000000000000161415610c1f5760405162461bcd60e51b815260040161075190613103565b7f00000000000000000000000000000000000000000000000000000000000000006001600160a01b0316610c686000805160206133a5833981519152546001600160a01b031690565b6001600160a01b031614610c8e5760405162461bcd60e51b81526004016107519061314f565b610c9781611d6c565b60408051600080825260208201909252610cb391839190611d74565b50565b6107f2838383604051806020016040528060008152506116fb565b306001600160a01b037f0000000000000000000000000000000000000000000000000000000000000000161415610d1a5760405162461bcd60e51b815260040161075190613103565b7f00000000000000000000000000000000000000000000000000000000000000006001600160a01b0316610d636000805160206133a5833981519152546001600160a01b031690565b6001600160a01b031614610d895760405162461bcd60e51b81526004016107519061314f565b610d9282611d6c565b610d9e82826001611d74565b5050565b60008073__$2785bbb6cee085d94dd77d5b826fa91450$__63447d7a1d85856040518363ffffffff1660e01b8152600401610dde929190612fed565b600060405180830381865af4158015610dfb573d6000803e3d6000fd5b505050506040513d6000823e601f3d908101601f19168201604052610e239190810190613001565b805160209182012060009081526101639091526040902054949350505050565b610e4b611d12565b6040516001600160a01b038216904780156108fc02916000818181858888f19350505050158015610d9e573d6000803e3d6000fd5b6000306001600160a01b037f00000000000000000000000000000000000000000000000000000000000000001614610f205760405162461bcd60e51b815260206004820152603860248201527f555550535570677261646561626c653a206d757374206e6f742062652063616c60448201527f6c6564207468726f7567682064656c656761746563616c6c00000000000000006064820152608401610751565b506000805160206133a583398151915290565b6000818152606760205260408120546001600160a01b03168061061d5760405162461bcd60e51b8152602060048201526018602482015277115490cdcc8c4e881a5b9d985b1a59081d1bdad95b88125160421b6044820152606401610751565b60006001600160a01b038216610ffd5760405162461bcd60e51b815260206004820152602960248201527f4552433732313a2061646472657373207a65726f206973206e6f7420612076616044820152683634b21037bbb732b960b91b6064820152608401610751565b506001600160a01b031660009081526068602052604090205490565b611021611d12565b61102b6000611edf565b565b610160546001600160a01b031633146110805760405162461bcd60e51b815260206004820152601560248201527427b7363c903330b1ba37b93c9030b63637bbb2b21760591b6044820152606401610751565b6001600160a01b0382811660009081526101626020908152604080832054808452610164835281842060020180546001810182559085529383902090930180546001600160a01b031916948616948517905580518381529182019390935290917f26a1d6e7cc4a361eecc0401b902a581e91b441351d61d2240c7661116db271c391015b60405180910390a1505050565b600054610100900460ff16158080156111315750600054600160ff909116105b8061114b5750303b15801561114b575060005460ff166001145b6111ae5760405162461bcd60e51b815260206004820152602e60248201527f496e697469616c697a61626c653a20636f6e747261637420697320616c72656160448201526d191e481a5b9a5d1a585b1a5e995960921b6064820152608401610751565b6000805460ff1916600117905580156111d1576000805461ff0019166101001790555b6111e061015f80546001019055565b6111e8611f31565b6111f0611f60565b6111f8611f60565b8015610cb3576000805461ff0019169055604051600181527f7f26b83ff96e1f2b6a682f133852f6798a09c465da95921460cefb38474024989060200160405180910390a150565b611248611d12565b61016080546001600160a01b0319166001600160a01b0392909216919091179055565b61127483611f87565b6112b75760405162461bcd60e51b81526020600482015260146024820152734e6f6e2d6578697374696e672070726f66696c6560601b6044820152606401610751565b336000908152610162602052604090205483146113225760405162461bcd60e51b8152602060048201526024808201527f43616e2774206368616e676520736f6d656f6e6520656c73652773206d6574616044820152636461746160e01b6064820152608401610751565b60008381526101646020526040902061133f9060010183836128fa565b50505050565b61136960405180606001604052806060815260200160608152602001606081525090565b600082815261016460205260409081902081516060810190925280548290829061139290612f6c565b80601f01602080910402602001604051908101604052809291908181526020018280546113be90612f6c565b801561140b5780601f106113e05761010080835404028352916020019161140b565b820191906000526020600020905b8154815290600101906020018083116113ee57829003601f168201915b5050505050815260200160018201805461142490612f6c565b80601f016020809104026020016040519081016040528092919081815260200182805461145090612f6c565b801561149d5780601f106114725761010080835404028352916020019161149d565b820191906000526020600020905b81548152906001019060200180831161148057829003601f168201915b50505050508152602001600282018054806020026020016040519081016040528092919081815260200182805480156114ff57602002820191906000526020600020905b81546001600160a01b031681526001909101906020018083116114e1575b5050505050815250509050919050565b60606066805461063290612f6c565b610d9e338383611fa4565b600082815261016460205260409020600201805482106115805760405162461bcd60e51b81526020600482015260126024820152711a5b99195e081bdd5d081bd988189bdd5b9960721b6044820152606401610751565b336000908152610162602052604090205483146115ef5760405162461bcd60e51b815260206004820152602760248201527f43616e27742072656d6f766520736f6d656f6e6520656c7365277320636f6c6c604482015266656374696f6e7360c81b6064820152608401610751565b815b81546115ff906001906131b1565b81101561168d57816116128260016131c8565b81548110611622576116226131e0565b9060005260206000200160009054906101000a90046001600160a01b0316828281548110611652576116526131e0565b600091825260209091200180546001600160a01b0319166001600160a01b039290921691909117905580611685816131f6565b9150506115f1565b508080548061169e5761169e613211565b600082815260209020810160001990810180546001600160a01b03191690550190556040517fcb905a621d29b9aeccf9690fc31be1e7d4dd90d38cf0ab445b2b9c1b7783bcd9906111049085908590918252602082015260400190565b6117053383611c60565b6117215760405162461bcd60e51b8152600401610751906130b6565b61133f84848484612073565b606061173882611ac5565b6000828152609760205260408120805461175190612f6c565b80601f016020809104026020016040519081016040528092919081815260200182805461177d90612f6c565b80156117ca5780601f1061179f576101008083540402835291602001916117ca565b820191906000526020600020905b8154815290600101906020018083116117ad57829003601f168201915b5050505050905060006117e860408051602081019091526000815290565b90508051600014156117fb575092915050565b81511561182d578082604051602001611815929190613227565b60405160208183030381529060405292505050919050565b611836846120a6565b949350505050565b61184782611f87565b61185057600080fd5b336000908152610162602052604090205482146118bf5760405162461bcd60e51b815260206004820152602760248201527f43616e2774206368616e676520736f6d656f6e6520656c7365277320636f6c6c604482015266656374696f6e7360c81b6064820152608401610751565b604051632474521560e21b81527f44a854cabd360644e908fcd642b33fedfb60c399d7b1e7e2051275f0b09b0be5600482015233602482015281906001600160a01b038216906391d1485490604401602060405180830381865afa15801561192b573d6000803e3d6000fd5b505050506040513d601f19601f8201168201806040525081019061194f9190612fa7565b61198b5760405162461bcd60e51b815260206004820152600d60248201526c2737903832b936b4b9b9b4b7b760991b6044820152606401610751565b60008381526101646020908152604080832060020180546001810182559084529282902090920180546001600160a01b0319166001600160a01b0386169081179091558251868152918201527f26a1d6e7cc4a361eecc0401b902a581e91b441351d61d2240c7661116db271c39101611104565b611a07611d12565b6001600160a01b038116611a6c5760405162461bcd60e51b815260206004820152602660248201527f4f776e61626c653a206e6577206f776e657220697320746865207a65726f206160448201526564647265737360d01b6064820152608401610751565b610cb381611edf565b60006001600160e01b031982166380ac58cd60e01b1480611aa657506001600160e01b03198216635b5e139f60e01b145b8061061d57506301ffc9a760e01b6001600160e01b031983161461061d565b611ace81611f87565b610cb35760405162461bcd60e51b8152602060048201526018602482015277115490cdcc8c4e881a5b9d985b1a59081d1bdad95b88125160421b6044820152606401610751565b600081815260696020526040902080546001600160a01b0319166001600160a01b0384169081179091558190611b4a82610f33565b6001600160a01b03167f8c5be1e5ebec7d5bd14f71427d1e84f3dd0314c0f7b2291e5b200ac8c7c3b92560405160405180910390a45050565b610d9e82826040518060200160405280600081525061211a565b611ba682611f87565b611c095760405162461bcd60e51b815260206004820152602e60248201527f45524337323155524953746f726167653a2055524920736574206f66206e6f6e60448201526d32bc34b9ba32b73a103a37b5b2b760911b6064820152608401610751565b60008281526097602090815260409091208251611c289284019061297e565b506040518281527ff8e1a15aba9398e019f0b49df1a4fde98ee17ae345cb5f6b5e2c27f5033e8ce79060200160405180910390a15050565b600080611c6c83610f33565b9050806001600160a01b0316846001600160a01b03161480611cb357506001600160a01b038082166000908152606a602090815260408083209388168352929052205460ff165b806118365750836001600160a01b0316611ccc846106b5565b6001600160a01b031614949350505050565b611ce983838361214d565b6001600160a01b0392831660009081526101626020526040808220829055929093168352912055565b60c9546001600160a01b0316331461102b5760405162461bcd60e51b815260206004820181905260248201527f4f776e61626c653a2063616c6c6572206973206e6f7420746865206f776e65726044820152606401610751565b610cb3611d12565b7f4910fdfa16fed3260ed0e7147f7cc6da11a60208b5b9406d12a635614ffd91435460ff1615611da7576107f2836122b1565b826001600160a01b03166352d1902d6040518163ffffffff1660e01b8152600401602060405180830381865afa925050508015611e01575060408051601f3d908101601f19168201909252611dfe91810190613078565b60015b611e645760405162461bcd60e51b815260206004820152602e60248201527f45524331393637557067726164653a206e657720696d706c656d656e7461746960448201526d6f6e206973206e6f74205555505360901b6064820152608401610751565b6000805160206133a58339815191528114611ed35760405162461bcd60e51b815260206004820152602960248201527f45524331393637557067726164653a20756e737570706f727465642070726f786044820152681a58589b195555525160ba1b6064820152608401610751565b506107f283838361234d565b60c980546001600160a01b038381166001600160a01b0319831681179093556040519116919082907f8be0079c531659141344cd1fd0a4f28419497f9722a3daafe3b4186f6b6457e090600090a35050565b600054610100900460ff16611f585760405162461bcd60e51b815260040161075190613256565b61102b612372565b600054610100900460ff1661102b5760405162461bcd60e51b815260040161075190613256565b6000908152606760205260409020546001600160a01b0316151590565b816001600160a01b0316836001600160a01b031614156120065760405162461bcd60e51b815260206004820152601960248201527f4552433732313a20617070726f766520746f2063616c6c6572000000000000006044820152606401610751565b6001600160a01b038381166000818152606a6020908152604080832094871680845294825291829020805460ff191686151590811790915591519182527f17307eab39ab6107e8899845ad3d59bd9653f200f220920489ca2b5937696c31910160405180910390a3505050565b61207e848484611cde565b61208a848484846123a2565b61133f5760405162461bcd60e51b8152600401610751906132a1565b60606120b182611ac5565b60006120c860408051602081019091526000815290565b905060008151116120e85760405180602001604052806000815250612113565b806120f2846124a0565b604051602001612103929190613227565b6040516020818303038152906040525b9392505050565b612124838361253d565b61213160008484846123a2565b6107f25760405162461bcd60e51b8152600401610751906132a1565b826001600160a01b031661216082610f33565b6001600160a01b0316146121865760405162461bcd60e51b8152600401610751906132f3565b6001600160a01b0382166121e85760405162461bcd60e51b8152602060048201526024808201527f4552433732313a207472616e7366657220746f20746865207a65726f206164646044820152637265737360e01b6064820152608401610751565b826001600160a01b03166121fb82610f33565b6001600160a01b0316146122215760405162461bcd60e51b8152600401610751906132f3565b600081815260696020908152604080832080546001600160a01b03199081169091556001600160a01b0387811680865260688552838620805460001901905590871680865283862080546001019055868652606790945282852080549092168417909155905184937fddf252ad1be2c89b69c2b068fc378daa952ba7f163c4a11628f55a4df523b3ef91a4505050565b6001600160a01b0381163b61231e5760405162461bcd60e51b815260206004820152602d60248201527f455243313936373a206e657720696d706c656d656e746174696f6e206973206e60448201526c1bdd08184818dbdb9d1c9858dd609a1b6064820152608401610751565b6000805160206133a583398151915280546001600160a01b0319166001600160a01b0392909216919091179055565b612356836126aa565b6000825111806123635750805b156107f25761133f83836126ea565b600054610100900460ff166123995760405162461bcd60e51b815260040161075190613256565b61102b33611edf565b60006001600160a01b0384163b1561249557604051630a85bd0160e11b81526001600160a01b0385169063150b7a02906123e6903390899088908890600401613338565b6020604051808303816000875af1925050508015612421575060408051601f3d908101601f1916820190925261241e9181019061336b565b60015b61247b573d80801561244f576040519150601f19603f3d011682016040523d82523d6000602084013e612454565b606091505b5080516124735760405162461bcd60e51b8152600401610751906132a1565b805181602001fd5b6001600160e01b031916630a85bd0160e11b149050611836565b506001949350505050565b606060006124ad8361270f565b600101905060008167ffffffffffffffff8111156124cd576124cd612c12565b6040519080825280601f01601f1916602001820160405280156124f7576020820181803683370190505b5090508181016020015b600019016f181899199a1a9b1b9c1cb0b131b232b360811b600a86061a8153600a850494508461253057612535565b612501565b509392505050565b6001600160a01b0382166125935760405162461bcd60e51b815260206004820181905260248201527f4552433732313a206d696e7420746f20746865207a65726f20616464726573736044820152606401610751565b61259c81611f87565b156125e95760405162461bcd60e51b815260206004820152601c60248201527f4552433732313a20746f6b656e20616c7265616479206d696e746564000000006044820152606401610751565b6125f281611f87565b1561263f5760405162461bcd60e51b815260206004820152601c60248201527f4552433732313a20746f6b656e20616c7265616479206d696e746564000000006044820152606401610751565b6001600160a01b038216600081815260686020908152604080832080546001019055848352606790915280822080546001600160a01b0319168417905551839291907fddf252ad1be2c89b69c2b068fc378daa952ba7f163c4a11628f55a4df523b3ef908290a45050565b6126b3816122b1565b6040516001600160a01b038216907fbc7cd75a20ee27fd9adebab32041f755214dbc6bffa90cc0225b39da2e5c2d3b90600090a250565b606061211383836040518060600160405280602781526020016133c5602791396127e7565b60008072184f03e93ff9f4daa797ed6e38ed64bf6a1f0160401b831061274e5772184f03e93ff9f4daa797ed6e38ed64bf6a1f0160401b830492506040015b6d04ee2d6d415b85acef8100000000831061277a576d04ee2d6d415b85acef8100000000830492506020015b662386f26fc10000831061279857662386f26fc10000830492506010015b6305f5e10083106127b0576305f5e100830492506008015b61271083106127c457612710830492506004015b606483106127d6576064830492506002015b600a831061061d5760010192915050565b6060600080856001600160a01b0316856040516128049190613388565b600060405180830381855af49150503d806000811461283f576040519150601f19603f3d011682016040523d82523d6000602084013e612844565b606091505b50915091506128558683838761285f565b9695505050505050565b606083156128cb5782516128c4576001600160a01b0385163b6128c45760405162461bcd60e51b815260206004820152601d60248201527f416464726573733a2063616c6c20746f206e6f6e2d636f6e74726163740000006044820152606401610751565b5081611836565b61183683838151156128e05781518083602001fd5b8060405162461bcd60e51b81526004016107519190612a92565b82805461290690612f6c565b90600052602060002090601f016020900481019282612928576000855561296e565b82601f106129415782800160ff1982351617855561296e565b8280016001018555821561296e579182015b8281111561296e578235825591602001919060010190612953565b5061297a9291506129f2565b5090565b82805461298a90612f6c565b90600052602060002090601f0160209004810192826129ac576000855561296e565b82601f106129c557805160ff191683800117855561296e565b8280016001018555821561296e579182015b8281111561296e5782518255916020019190600101906129d7565b5b8082111561297a57600081556001016129f3565b6001600160e01b031981168114610cb357600080fd5b600060208284031215612a2f57600080fd5b813561211381612a07565b60005b83811015612a55578181015183820152602001612a3d565b8381111561133f5750506000910152565b60008151808452612a7e816020860160208601612a3a565b601f01601f19169290920160200192915050565b6020815260006121136020830184612a66565b600060208284031215612ab757600080fd5b5035919050565b6001600160a01b0381168114610cb357600080fd5b60008060408385031215612ae657600080fd5b8235612af181612abe565b946020939093013593505050565b60008083601f840112612b1157600080fd5b50813567ffffffffffffffff811115612b2957600080fd5b602083019150836020828501011115612b4157600080fd5b9250929050565b60008060008060408587031215612b5e57600080fd5b843567ffffffffffffffff80821115612b7657600080fd5b612b8288838901612aff565b90965094506020870135915080821115612b9b57600080fd5b50612ba887828801612aff565b95989497509550505050565b600080600060608486031215612bc957600080fd5b8335612bd481612abe565b92506020840135612be481612abe565b929592945050506040919091013590565b600060208284031215612c0757600080fd5b813561211381612abe565b634e487b7160e01b600052604160045260246000fd5b604051601f8201601f1916810167ffffffffffffffff81118282101715612c5157612c51612c12565b604052919050565b600067ffffffffffffffff821115612c7357612c73612c12565b50601f01601f191660200190565b600082601f830112612c9257600080fd5b8135612ca5612ca082612c59565b612c28565b818152846020838601011115612cba57600080fd5b816020850160208301376000918101602001919091529392505050565b60008060408385031215612cea57600080fd5b8235612cf581612abe565b9150602083013567ffffffffffffffff811115612d1157600080fd5b612d1d85828601612c81565b9150509250929050565b60008060208385031215612d3a57600080fd5b823567ffffffffffffffff811115612d5157600080fd5b612d5d85828601612aff565b90969095509350505050565b60008060408385031215612d7c57600080fd5b8235612d8781612abe565b91506020830135612d9781612abe565b809150509250929050565b600080600060408486031215612db757600080fd5b83359250602084013567ffffffffffffffff811115612dd557600080fd5b612de186828701612aff565b9497909650939450505050565b600060208083528351606082850152612e0a6080850182612a66565b905081850151601f1980868403016040870152612e278383612a66565b6040880151878203909201606088015281518082529185019350600092508401905b80831015612e725783516001600160a01b03168252928401926001929092019190840190612e49565b509695505050505050565b8015158114610cb357600080fd5b60008060408385031215612e9e57600080fd5b8235612ea981612abe565b91506020830135612d9781612e7d565b60008060408385031215612ecc57600080fd5b50508035926020909101359150565b60008060008060808587031215612ef157600080fd5b8435612efc81612abe565b93506020850135612f0c81612abe565b925060408501359150606085013567ffffffffffffffff811115612f2f57600080fd5b612f3b87828801612c81565b91505092959194509250565b60008060408385031215612f5a57600080fd5b823591506020830135612d9781612abe565b600181811c90821680612f8057607f821691505b60208210811415612fa157634e487b7160e01b600052602260045260246000fd5b50919050565b600060208284031215612fb957600080fd5b815161211381612e7d565b81835281816020850137506000828201602090810191909152601f909101601f19169091010190565b602081526000611836602083018486612fc4565b60006020828403121561301357600080fd5b815167ffffffffffffffff81111561302a57600080fd5b8201601f8101841361303b57600080fd5b8051613049612ca082612c59565b81815285602083850101111561305e57600080fd5b61306f826020830160208601612a3a565b95945050505050565b60006020828403121561308a57600080fd5b5051919050565b6001600160a01b038416815260406020820181905260009061306f9083018486612fc4565b6020808252602d908201527f4552433732313a2063616c6c6572206973206e6f7420746f6b656e206f776e6560408201526c1c881bdc88185c1c1c9bdd9959609a1b606082015260800190565b6020808252602c908201527f46756e6374696f6e206d7573742062652063616c6c6564207468726f7567682060408201526b19195b1959d85d1958d85b1b60a21b606082015260800190565b6020808252602c908201527f46756e6374696f6e206d7573742062652063616c6c6564207468726f7567682060408201526b6163746976652070726f787960a01b606082015260800190565b634e487b7160e01b600052601160045260246000fd5b6000828210156131c3576131c361319b565b500390565b600082198211156131db576131db61319b565b500190565b634e487b7160e01b600052603260045260246000fd5b600060001982141561320a5761320a61319b565b5060010190565b634e487b7160e01b600052603160045260246000fd5b60008351613239818460208801612a3a565b83519083019061324d818360208801612a3a565b01949350505050565b6020808252602b908201527f496e697469616c697a61626c653a20636f6e7472616374206973206e6f74206960408201526a6e697469616c697a696e6760a81b606082015260800190565b60208082526032908201527f4552433732313a207472616e7366657220746f206e6f6e20455243373231526560408201527131b2b4bb32b91034b6b83632b6b2b73a32b960711b606082015260800190565b60208082526025908201527f4552433732313a207472616e736665722066726f6d20696e636f72726563742060408201526437bbb732b960d91b606082015260800190565b6001600160a01b038581168252841660208201526040810183905260806060820181905260009061285590830184612a66565b60006020828403121561337d57600080fd5b815161211381612a07565b6000825161339a818460208701612a3a565b919091019291505056fe360894a13ba1a3210667c828492db98dca3e2076cc3735a920a3ca505d382bbc416464726573733a206c6f772d6c6576656c2064656c65676174652063616c6c206661696c6564a26469706673582212209a0eba33889eaa951877e2c4d2f5d086273e4f43972072c1f0c103115780964764736f6c634300080c0033",
  "linkReferences": {
    "contracts/libraries/Prices.sol": {
      "Prices": [
        {
          "length": 20,
          "start": 2579
        }
      ]
    },
    "contracts/libraries/Strings.sol": {
      "Strings": [
        {
          "length": 20,
          "start": 2251
        },
        {
          "length": 20,
          "start": 3571
        }
      ]
    }
  },
  "deployedLinkReferences": {
    "contracts/libraries/Prices.sol": {
      "Prices": [
        {
          "length": 20,
          "start": 2503
        }
      ]
    },
    "contracts/libraries/Strings.sol": {
      "Strings": [
        {
          "length": 20,
          "start": 2175
        },
        {
          "length": 20,
          "start": 3495
        }
      ]
    }
  }
}