{
  "_format": "hh-sol-artifact-1",
  "contractName": "ProfileRegistry",
  "sourceName": "contracts/NewProfileRegistry.sol",
  "abi": [
    {
      "inputs": [
        {
          "internalType": "address",
          "name": "target",
          "type": "address"
        }
      ],
      "name": "AddressEmptyCode",
      "type": "error"
    },
    {
      "inputs": [
        {
          "internalType": "address",
          "name": "implementation",
          "type": "address"
        }
      ],
      "name": "ERC1967InvalidImplementation",
      "type": "error"
    },
    {
      "inputs": [],
      "name": "ERC1967NonPayable",
      "type": "error"
    },
    {
      "inputs": [
        {
          "internalType": "address",
          "name": "sender",
          "type": "address"
        },
        {
          "internalType": "uint256",
          "name": "tokenId",
          "type": "uint256"
        },
        {
          "internalType": "address",
          "name": "owner",
          "type": "address"
        }
      ],
      "name": "ERC721IncorrectOwner",
      "type": "error"
    },
    {
      "inputs": [
        {
          "internalType": "address",
          "name": "operator",
          "type": "address"
        },
        {
          "internalType": "uint256",
          "name": "tokenId",
          "type": "uint256"
        }
      ],
      "name": "ERC721InsufficientApproval",
      "type": "error"
    },
    {
      "inputs": [
        {
          "internalType": "address",
          "name": "approver",
          "type": "address"
        }
      ],
      "name": "ERC721InvalidApprover",
      "type": "error"
    },
    {
      "inputs": [
        {
          "internalType": "address",
          "name": "operator",
          "type": "address"
        }
      ],
      "name": "ERC721InvalidOperator",
      "type": "error"
    },
    {
      "inputs": [
        {
          "internalType": "address",
          "name": "owner",
          "type": "address"
        }
      ],
      "name": "ERC721InvalidOwner",
      "type": "error"
    },
    {
      "inputs": [
        {
          "internalType": "address",
          "name": "receiver",
          "type": "address"
        }
      ],
      "name": "ERC721InvalidReceiver",
      "type": "error"
    },
    {
      "inputs": [
        {
          "internalType": "address",
          "name": "sender",
          "type": "address"
        }
      ],
      "name": "ERC721InvalidSender",
      "type": "error"
    },
    {
      "inputs": [
        {
          "internalType": "uint256",
          "name": "tokenId",
          "type": "uint256"
        }
      ],
      "name": "ERC721NonexistentToken",
      "type": "error"
    },
    {
      "inputs": [],
      "name": "EnforcedPause",
      "type": "error"
    },
    {
      "inputs": [],
      "name": "ExpectedPause",
      "type": "error"
    },
    {
      "inputs": [],
      "name": "FailedInnerCall",
      "type": "error"
    },
    {
      "inputs": [],
      "name": "InvalidInitialization",
      "type": "error"
    },
    {
      "inputs": [],
      "name": "NotInitializing",
      "type": "error"
    },
    {
      "inputs": [
        {
          "internalType": "address",
          "name": "owner",
          "type": "address"
        }
      ],
      "name": "OwnableInvalidOwner",
      "type": "error"
    },
    {
      "inputs": [
        {
          "internalType": "address",
          "name": "account",
          "type": "address"
        }
      ],
      "name": "OwnableUnauthorizedAccount",
      "type": "error"
    },
    {
      "inputs": [],
      "name": "UUPSUnauthorizedCallContext",
      "type": "error"
    },
    {
      "inputs": [
        {
          "internalType": "bytes32",
          "name": "slot",
          "type": "bytes32"
        }
      ],
      "name": "UUPSUnsupportedProxiableUUID",
      "type": "error"
    },
    {
      "anonymous": false,
      "inputs": [
        {
          "indexed": true,
          "internalType": "address",
          "name": "owner",
          "type": "address"
        },
        {
          "indexed": true,
          "internalType": "address",
          "name": "approved",
          "type": "address"
        },
        {
          "indexed": true,
          "internalType": "uint256",
          "name": "tokenId",
          "type": "uint256"
        }
      ],
      "name": "Approval",
      "type": "event"
    },
    {
      "anonymous": false,
      "inputs": [
        {
          "indexed": true,
          "internalType": "address",
          "name": "owner",
          "type": "address"
        },
        {
          "indexed": true,
          "internalType": "address",
          "name": "operator",
          "type": "address"
        },
        {
          "indexed": false,
          "internalType": "bool",
          "name": "approved",
          "type": "bool"
        }
      ],
      "name": "ApprovalForAll",
      "type": "event"
    },
    {
      "anonymous": false,
      "inputs": [
        {
          "indexed": false,
          "internalType": "uint256",
          "name": "_fromTokenId",
          "type": "uint256"
        },
        {
          "indexed": false,
          "internalType": "uint256",
          "name": "_toTokenId",
          "type": "uint256"
        }
      ],
      "name": "BatchMetadataUpdate",
      "type": "event"
    },
    {
      "anonymous": false,
      "inputs": [
        {
          "indexed": false,
          "internalType": "uint64",
          "name": "version",
          "type": "uint64"
        }
      ],
      "name": "Initialized",
      "type": "event"
    },
    {
      "anonymous": false,
      "inputs": [
        {
          "indexed": false,
          "internalType": "uint256",
          "name": "_tokenId",
          "type": "uint256"
        }
      ],
      "name": "MetadataUpdate",
      "type": "event"
    },
    {
      "anonymous": false,
      "inputs": [
        {
          "indexed": false,
          "internalType": "address",
          "name": "account",
          "type": "address"
        },
        {
          "indexed": false,
          "internalType": "string",
          "name": "handle",
          "type": "string"
        },
        {
          "indexed": false,
          "internalType": "string",
          "name": "metadataURI",
          "type": "string"
        }
      ],
      "name": "NewProfileCreated",
      "type": "event"
    },
    {
      "anonymous": false,
      "inputs": [
        {
          "indexed": true,
          "internalType": "address",
          "name": "previousOwner",
          "type": "address"
        },
        {
          "indexed": true,
          "internalType": "address",
          "name": "newOwner",
          "type": "address"
        }
      ],
      "name": "OwnershipTransferred",
      "type": "event"
    },
    {
      "anonymous": false,
      "inputs": [
        {
          "indexed": false,
          "internalType": "address",
          "name": "account",
          "type": "address"
        }
      ],
      "name": "Paused",
      "type": "event"
    },
    {
      "anonymous": false,
      "inputs": [
        {
          "indexed": true,
          "internalType": "address",
          "name": "from",
          "type": "address"
        },
        {
          "indexed": true,
          "internalType": "address",
          "name": "to",
          "type": "address"
        },
        {
          "indexed": true,
          "internalType": "uint256",
          "name": "tokenId",
          "type": "uint256"
        }
      ],
      "name": "Transfer",
      "type": "event"
    },
    {
      "anonymous": false,
      "inputs": [
        {
          "indexed": false,
          "internalType": "address",
          "name": "account",
          "type": "address"
        }
      ],
      "name": "Unpaused",
      "type": "event"
    },
    {
      "anonymous": false,
      "inputs": [
        {
          "indexed": true,
          "internalType": "address",
          "name": "implementation",
          "type": "address"
        }
      ],
      "name": "Upgraded",
      "type": "event"
    },
    {
      "inputs": [],
      "name": "UPGRADE_INTERFACE_VERSION",
      "outputs": [
        {
          "internalType": "string",
          "name": "",
          "type": "string"
        }
      ],
      "stateMutability": "view",
      "type": "function"
    },
    {
      "inputs": [
        {
          "internalType": "address",
          "name": "",
          "type": "address"
        }
      ],
      "name": "addressToProfileID",
      "outputs": [
        {
          "internalType": "uint256",
          "name": "",
          "type": "uint256"
        }
      ],
      "stateMutability": "view",
      "type": "function"
    },
    {
      "inputs": [
        {
          "internalType": "address",
          "name": "to",
          "type": "address"
        },
        {
          "internalType": "uint256",
          "name": "tokenId",
          "type": "uint256"
        }
      ],
      "name": "approve",
      "outputs": [],
      "stateMutability": "nonpayable",
      "type": "function"
    },
    {
      "inputs": [
        {
          "internalType": "address",
          "name": "owner",
          "type": "address"
        }
      ],
      "name": "balanceOf",
      "outputs": [
        {
          "internalType": "uint256",
          "name": "",
          "type": "uint256"
        }
      ],
      "stateMutability": "view",
      "type": "function"
    },
    {
      "inputs": [],
      "name": "followRegistryAddress",
      "outputs": [
        {
          "internalType": "address",
          "name": "",
          "type": "address"
        }
      ],
      "stateMutability": "view",
      "type": "function"
    },
    {
      "inputs": [
        {
          "internalType": "uint256",
          "name": "tokenId",
          "type": "uint256"
        }
      ],
      "name": "getApproved",
      "outputs": [
        {
          "internalType": "address",
          "name": "",
          "type": "address"
        }
      ],
      "stateMutability": "view",
      "type": "function"
    },
    {
      "inputs": [
        {
          "internalType": "string",
          "name": "_handle",
          "type": "string"
        }
      ],
      "name": "getIdFromHandle",
      "outputs": [
        {
          "internalType": "uint256",
          "name": "",
          "type": "uint256"
        }
      ],
      "stateMutability": "view",
      "type": "function"
    },
    {
      "inputs": [
        {
          "internalType": "uint256",
          "name": "_id",
          "type": "uint256"
        }
      ],
      "name": "getProfileByID",
      "outputs": [
        {
          "components": [
            {
              "internalType": "string",
              "name": "handle",
              "type": "string"
            },
            {
              "internalType": "string",
              "name": "metadataURI",
              "type": "string"
            },
            {
              "internalType": "address",
              "name": "subscribeModule",
              "type": "address"
            }
          ],
          "internalType": "struct ProfileRegistry.Profile",
          "name": "",
          "type": "tuple"
        }
      ],
      "stateMutability": "view",
      "type": "function"
    },
    {
      "inputs": [],
      "name": "getTokenId",
      "outputs": [
        {
          "internalType": "uint256",
          "name": "",
          "type": "uint256"
        }
      ],
      "stateMutability": "view",
      "type": "function"
    },
    {
      "inputs": [
        {
          "internalType": "address",
          "name": "_owner",
          "type": "address"
        }
      ],
      "name": "initialize",
      "outputs": [],
      "stateMutability": "nonpayable",
      "type": "function"
    },
    {
      "inputs": [
        {
          "internalType": "address",
          "name": "owner",
          "type": "address"
        },
        {
          "internalType": "address",
          "name": "operator",
          "type": "address"
        }
      ],
      "name": "isApprovedForAll",
      "outputs": [
        {
          "internalType": "bool",
          "name": "",
          "type": "bool"
        }
      ],
      "stateMutability": "view",
      "type": "function"
    },
    {
      "inputs": [],
      "name": "name",
      "outputs": [
        {
          "internalType": "string",
          "name": "",
          "type": "string"
        }
      ],
      "stateMutability": "view",
      "type": "function"
    },
    {
      "inputs": [],
      "name": "owner",
      "outputs": [
        {
          "internalType": "address",
          "name": "",
          "type": "address"
        }
      ],
      "stateMutability": "view",
      "type": "function"
    },
    {
      "inputs": [
        {
          "internalType": "uint256",
          "name": "tokenId",
          "type": "uint256"
        }
      ],
      "name": "ownerOf",
      "outputs": [
        {
          "internalType": "address",
          "name": "",
          "type": "address"
        }
      ],
      "stateMutability": "view",
      "type": "function"
    },
    {
      "inputs": [],
      "name": "pause",
      "outputs": [],
      "stateMutability": "nonpayable",
      "type": "function"
    },
    {
      "inputs": [],
      "name": "paused",
      "outputs": [
        {
          "internalType": "bool",
          "name": "",
          "type": "bool"
        }
      ],
      "stateMutability": "view",
      "type": "function"
    },
    {
      "inputs": [],
      "name": "proxiableUUID",
      "outputs": [
        {
          "internalType": "bytes32",
          "name": "",
          "type": "bytes32"
        }
      ],
      "stateMutability": "view",
      "type": "function"
    },
    {
      "inputs": [
        {
          "internalType": "address",
          "name": "recipient",
          "type": "address"
        },
        {
          "internalType": "string",
          "name": "_handle",
          "type": "string"
        },
        {
          "internalType": "string",
          "name": "_metadataURI",
          "type": "string"
        }
      ],
      "name": "registerProfile",
      "outputs": [],
      "stateMutability": "nonpayable",
      "type": "function"
    },
    {
      "inputs": [],
      "name": "renounceOwnership",
      "outputs": [],
      "stateMutability": "nonpayable",
      "type": "function"
    },
    {
      "inputs": [
        {
          "internalType": "address",
          "name": "from",
          "type": "address"
        },
        {
          "internalType": "address",
          "name": "to",
          "type": "address"
        },
        {
          "internalType": "uint256",
          "name": "tokenId",
          "type": "uint256"
        }
      ],
      "name": "safeTransferFrom",
      "outputs": [],
      "stateMutability": "nonpayable",
      "type": "function"
    },
    {
      "inputs": [
        {
          "internalType": "address",
          "name": "from",
          "type": "address"
        },
        {
          "internalType": "address",
          "name": "to",
          "type": "address"
        },
        {
          "internalType": "uint256",
          "name": "tokenId",
          "type": "uint256"
        },
        {
          "internalType": "bytes",
          "name": "data",
          "type": "bytes"
        }
      ],
      "name": "safeTransferFrom",
      "outputs": [],
      "stateMutability": "nonpayable",
      "type": "function"
    },
    {
      "inputs": [
        {
          "internalType": "address",
          "name": "operator",
          "type": "address"
        },
        {
          "internalType": "bool",
          "name": "approved",
          "type": "bool"
        }
      ],
      "name": "setApprovalForAll",
      "outputs": [],
      "stateMutability": "nonpayable",
      "type": "function"
    },
    {
      "inputs": [
        {
          "internalType": "address",
          "name": "_address",
          "type": "address"
        }
      ],
      "name": "setFollowRegistryAddress",
      "outputs": [],
      "stateMutability": "nonpayable",
      "type": "function"
    },
    {
      "inputs": [
        {
          "internalType": "bytes4",
          "name": "interfaceId",
          "type": "bytes4"
        }
      ],
      "name": "supportsInterface",
      "outputs": [
        {
          "internalType": "bool",
          "name": "",
          "type": "bool"
        }
      ],
      "stateMutability": "view",
      "type": "function"
    },
    {
      "inputs": [],
      "name": "symbol",
      "outputs": [
        {
          "internalType": "string",
          "name": "",
          "type": "string"
        }
      ],
      "stateMutability": "view",
      "type": "function"
    },
    {
      "inputs": [
        {
          "internalType": "uint256",
          "name": "tokenId",
          "type": "uint256"
        }
      ],
      "name": "tokenURI",
      "outputs": [
        {
          "internalType": "string",
          "name": "",
          "type": "string"
        }
      ],
      "stateMutability": "view",
      "type": "function"
    },
    {
      "inputs": [
        {
          "internalType": "address",
          "name": "from",
          "type": "address"
        },
        {
          "internalType": "address",
          "name": "to",
          "type": "address"
        },
        {
          "internalType": "uint256",
          "name": "tokenId",
          "type": "uint256"
        }
      ],
      "name": "transferFrom",
      "outputs": [],
      "stateMutability": "nonpayable",
      "type": "function"
    },
    {
      "inputs": [
        {
          "internalType": "address",
          "name": "newOwner",
          "type": "address"
        }
      ],
      "name": "transferOwnership",
      "outputs": [],
      "stateMutability": "nonpayable",
      "type": "function"
    },
    {
      "inputs": [],
      "name": "unpause",
      "outputs": [],
      "stateMutability": "nonpayable",
      "type": "function"
    },
    {
      "inputs": [
        {
          "internalType": "uint256",
          "name": "_profileId",
          "type": "uint256"
        },
        {
          "internalType": "string",
          "name": "_metadataURI",
          "type": "string"
        }
      ],
      "name": "updateProfileMetadata",
      "outputs": [],
      "stateMutability": "nonpayable",
      "type": "function"
    },
    {
      "inputs": [
        {
          "internalType": "uint256",
          "name": "_profileId",
          "type": "uint256"
        },
        {
          "internalType": "address",
          "name": "_subscribeModule",
          "type": "address"
        }
      ],
      "name": "updateSubscribeModule",
      "outputs": [],
      "stateMutability": "nonpayable",
      "type": "function"
    },
    {
      "inputs": [
        {
          "internalType": "address",
          "name": "newImplementation",
          "type": "address"
        },
        {
          "internalType": "bytes",
          "name": "data",
          "type": "bytes"
        }
      ],
      "name": "upgradeToAndCall",
      "outputs": [],
      "stateMutability": "payable",
      "type": "function"
    }
  ],
  "bytecode": "0x60a06040523073ffffffffffffffffffffffffffffffffffffffff1660809073ffffffffffffffffffffffffffffffffffffffff1681525034801561004357600080fd5b506080516148bd61006d600039600081816120d20152818161212701526122e201526148bd6000f3fe6080604052600436106101e35760003560e01c8063715018a611610102578063a22cb46511610095578063c4d66de811610064578063c4d66de8146106bd578063c87b56dd146106e6578063e985e9c514610723578063f2fde38b14610760576101e3565b8063a22cb46514610603578063ad3cb1cc1461062c578063b88d4fde14610657578063c009c11114610680576101e3565b806386e5b636116100d157806386e5b6361461054757806387ef6898146105705780638da5cb5b146105ad57806395d89b41146105d8576101e3565b8063715018a6146104c757806375a073fa146104de578063841e2fb7146105075780638456cb5914610530576101e3565b80633f4ba83a1161017a57806352d1902d1161014957806352d1902d146103f75780635c975abb146104225780636352211e1461044d57806370a082311461048a576101e3565b80633f4ba83a1461035e57806342842e0e146103755780634f1ef2861461039e57806351c75f24146103ba576101e3565b8063095ea7b3116101b6578063095ea7b3146102b857806323b872dd146102e1578063270877c11461030a5780632802610e14610333576101e3565b8063010a38f5146101e857806301ffc9a71461021357806306fdde0314610250578063081812fc1461027b575b600080fd5b3480156101f457600080fd5b506101fd610789565b60405161020a91906135a4565b60405180910390f35b34801561021f57600080fd5b5061023a6004803603810190610235919061362b565b610792565b6040516102479190613673565b60405180910390f35b34801561025c57600080fd5b506102656107f3565b604051610272919061371e565b60405180910390f35b34801561028757600080fd5b506102a2600480360381019061029d919061376c565b610894565b6040516102af91906137da565b60405180910390f35b3480156102c457600080fd5b506102df60048036038101906102da9190613821565b6108b0565b005b3480156102ed57600080fd5b5061030860048036038101906103039190613861565b6108c6565b005b34801561031657600080fd5b50610331600480360381019061032c9190613919565b6109c8565b005b34801561033f57600080fd5b50610348610cf7565b60405161035591906137da565b60405180910390f35b34801561036a57600080fd5b50610373610d1d565b005b34801561038157600080fd5b5061039c60048036038101906103979190613861565b610d2f565b005b6103b860048036038101906103b39190613ade565b610d4f565b005b3480156103c657600080fd5b506103e160048036038101906103dc9190613b3a565b610d6e565b6040516103ee91906135a4565b60405180910390f35b34801561040357600080fd5b5061040c610de4565b6040516104199190613ba0565b60405180910390f35b34801561042e57600080fd5b50610437610e17565b6040516104449190613673565b60405180910390f35b34801561045957600080fd5b50610474600480360381019061046f919061376c565b610e3c565b60405161048191906137da565b60405180910390f35b34801561049657600080fd5b506104b160048036038101906104ac9190613bbb565b610e4e565b6040516104be91906135a4565b60405180910390f35b3480156104d357600080fd5b506104dc610f17565b005b3480156104ea57600080fd5b5061050560048036038101906105009190613bbb565b610f2b565b005b34801561051357600080fd5b5061052e60048036038101906105299190613be8565b610f77565b005b34801561053c57600080fd5b50610545611073565b005b34801561055357600080fd5b5061056e60048036038101906105699190613c48565b611085565b005b34801561057c57600080fd5b506105976004803603810190610592919061376c565b6111af565b6040516105a49190613d38565b60405180910390f35b3480156105b957600080fd5b506105c2611356565b6040516105cf91906137da565b60405180910390f35b3480156105e457600080fd5b506105ed61138e565b6040516105fa919061371e565b60405180910390f35b34801561060f57600080fd5b5061062a60048036038101906106259190613d86565b61142f565b005b34801561063857600080fd5b50610641611445565b60405161064e919061371e565b60405180910390f35b34801561066357600080fd5b5061067e60048036038101906106799190613dc6565b61147e565b005b34801561068c57600080fd5b506106a760048036038101906106a29190613bbb565b61149b565b6040516106b491906135a4565b60405180910390f35b3480156106c957600080fd5b506106e460048036038101906106df9190613bbb565b6114b3565b005b3480156106f257600080fd5b5061070d6004803603810190610708919061376c565b6116e5565b60405161071a919061371e565b60405180910390f35b34801561072f57600080fd5b5061074a60048036038101906107459190613e49565b611809565b6040516107579190613673565b60405180910390f35b34801561076c57600080fd5b5061078760048036038101906107829190613bbb565b6118ab565b005b60008054905090565b6000634906490660e01b7bffffffffffffffffffffffffffffffffffffffffffffffffffffffff1916827bffffffffffffffffffffffffffffffffffffffffffffffffffffffff191614806107ec57506107eb82611931565b5b9050919050565b606060006107ff611a13565b905080600001805461081090613eb8565b80601f016020809104026020016040519081016040528092919081815260200182805461083c90613eb8565b80156108895780601f1061085e57610100808354040283529160200191610889565b820191906000526020600020905b81548152906001019060200180831161086c57829003601f168201915b505050505091505090565b600061089f82611a3b565b506108a982611ac3565b9050919050565b6108c282826108bd611b0e565b611b16565b5050565b600073ffffffffffffffffffffffffffffffffffffffff168273ffffffffffffffffffffffffffffffffffffffff16036109385760006040517f64a0ae9200000000000000000000000000000000000000000000000000000000815260040161092f91906137da565b60405180910390fd5b600061094c8383610947611b0e565b611b28565b90508373ffffffffffffffffffffffffffffffffffffffff168173ffffffffffffffffffffffffffffffffffffffff16146109c2578382826040517f64283d7b0000000000000000000000000000000000000000000000000000000081526004016109b993929190613ee9565b60405180910390fd5b50505050565b6109d0611d55565b6000610a1f85858080601f016020809104026020016040519081016040528093929190818152602001838380828437600081840152601f19601f82011690508083019250505050505050611d96565b8051906020012090506000600260008873ffffffffffffffffffffffffffffffffffffffff1673ffffffffffffffffffffffffffffffffffffffff1681526020019081526020016000205414610aaa576040517f08c379a0000000000000000000000000000000000000000000000000000000008152600401610aa190613f6c565b60405180910390fd5b6000600360008381526020019081526020016000205414610b00576040517f08c379a0000000000000000000000000000000000000000000000000000000008152600401610af790613fd8565b60405180910390fd5b6000806000815480929190610b1490614027565b91905055905080600260008973ffffffffffffffffffffffffffffffffffffffff1673ffffffffffffffffffffffffffffffffffffffff168152602001908152602001600020819055508060036000848152602001908152602001600020819055508585600460008481526020019081526020016000206000019182610b9b929190614226565b508383600460008481526020019081526020016000206001019182610bc1929190614226565b50610bcc8782611f4e565b610c1a8185858080601f016020809104026020016040519081016040528093929190818152602001838380828437600081840152601f19601f82011690508083019250505050505050611f6c565b6000600160009054906101000a900473ffffffffffffffffffffffffffffffffffffffff1690508073ffffffffffffffffffffffffffffffffffffffff1663dbbdf083838a6040518363ffffffff1660e01b8152600401610c7c9291906142f6565b600060405180830381600087803b158015610c9657600080fd5b505af1158015610caa573d6000803e3d6000fd5b505050507fa5953cf461a826b66be27560f73237fb99f5cf27aad3a35e8250610b817260208888888888604051610ce595949392919061434c565b60405180910390a15050505050505050565b600160009054906101000a900473ffffffffffffffffffffffffffffffffffffffff1681565b610d25611fd7565b610d2d61205e565b565b610d4a8383836040518060200160405280600081525061147e565b505050565b610d576120d0565b610d60826121b6565b610d6a82826121c1565b5050565b600080610dbe84848080601f016020809104026020016040519081016040528093929190818152602001838380828437600081840152601f19601f82011690508083019250505050505050611d96565b805190602001209050600360008281526020019081526020016000205491505092915050565b6000610dee6122e0565b7f360894a13ba1a3210667c828492db98dca3e2076cc3735a920a3ca505d382bbc60001b905090565b600080610e22612367565b90508060000160009054906101000a900460ff1691505090565b6000610e4782611a3b565b9050919050565b600080610e59611a13565b9050600073ffffffffffffffffffffffffffffffffffffffff168373ffffffffffffffffffffffffffffffffffffffff1603610ecd5760006040517f89c62b64000000000000000000000000000000000000000000000000000000008152600401610ec491906137da565b60405180910390fd5b8060030160008473ffffffffffffffffffffffffffffffffffffffff1673ffffffffffffffffffffffffffffffffffffffff16815260200190815260200160002054915050919050565b610f1f611fd7565b610f29600061238f565b565b610f33611fd7565b80600160006101000a81548173ffffffffffffffffffffffffffffffffffffffff021916908373ffffffffffffffffffffffffffffffffffffffff16021790555050565b610f7f611d55565b826000548110610fc4576040517f08c379a0000000000000000000000000000000000000000000000000000000008152600401610fbb906143e1565b60405180910390fd5b8380600260003373ffffffffffffffffffffffffffffffffffffffff1673ffffffffffffffffffffffffffffffffffffffff1681526020019081526020016000205414611046576040517f08c379a000000000000000000000000000000000000000000000000000000000815260040161103d90614473565b60405180910390fd5b838360046000888152602001908152602001600020600101918261106b929190614226565b505050505050565b61107b611fd7565b611083612466565b565b61108d611d55565b8160005481106110d2576040517f08c379a00000000000000000000000000000000000000000000000000000000081526004016110c9906143e1565b60405180910390fd5b8280600260003373ffffffffffffffffffffffffffffffffffffffff1673ffffffffffffffffffffffffffffffffffffffff1681526020019081526020016000205414611154576040517f08c379a000000000000000000000000000000000000000000000000000000000815260040161114b90614473565b60405180910390fd5b826004600086815260200190815260200160002060020160006101000a81548173ffffffffffffffffffffffffffffffffffffffff021916908373ffffffffffffffffffffffffffffffffffffffff16021790555050505050565b6111b7613554565b600460008381526020019081526020016000206040518060600160405290816000820180546111e590613eb8565b80601f016020809104026020016040519081016040528092919081815260200182805461121190613eb8565b801561125e5780601f106112335761010080835404028352916020019161125e565b820191906000526020600020905b81548152906001019060200180831161124157829003601f168201915b5050505050815260200160018201805461127790613eb8565b80601f01602080910402602001604051908101604052809291908181526020018280546112a390613eb8565b80156112f05780601f106112c5576101008083540402835291602001916112f0565b820191906000526020600020905b8154815290600101906020018083116112d357829003601f168201915b505050505081526020016002820160009054906101000a900473ffffffffffffffffffffffffffffffffffffffff1673ffffffffffffffffffffffffffffffffffffffff1673ffffffffffffffffffffffffffffffffffffffff16815250509050919050565b6000806113616124d8565b90508060000160009054906101000a900473ffffffffffffffffffffffffffffffffffffffff1691505090565b6060600061139a611a13565b90508060010180546113ab90613eb8565b80601f01602080910402602001604051908101604052809291908181526020018280546113d790613eb8565b80156114245780601f106113f957610100808354040283529160200191611424565b820191906000526020600020905b81548152906001019060200180831161140757829003601f168201915b505050505091505090565b61144161143a611b0e565b8383612500565b5050565b6040518060400160405280600581526020017f352e302e3000000000000000000000000000000000000000000000000000000081525081565b6114898484846108c6565b6114958484848461267e565b50505050565b60026020528060005260406000206000915090505481565b60006114bd612835565b905060008160000160089054906101000a900460ff1615905060008260000160009054906101000a900467ffffffffffffffff1690506000808267ffffffffffffffff1614801561150b5750825b9050600060018367ffffffffffffffff16148015611540575060003073ffffffffffffffffffffffffffffffffffffffff163b145b90508115801561154e575080155b15611585576040517ff92ee8a900000000000000000000000000000000000000000000000000000000815260040160405180910390fd5b60018560000160006101000a81548167ffffffffffffffff021916908367ffffffffffffffff16021790555083156115d55760018560000160086101000a81548160ff0219169083151502179055505b6000808154809291906115e790614027565b91905055506115f58661285d565b6115fd612871565b61160561287b565b6116796040518060400160405280601681526020017f566572736f2050726f66696c65205265676973747279000000000000000000008152506040518060400160405280600381526020017f56505200000000000000000000000000000000000000000000000000000000008152506128af565b6116816128c5565b83156116dd5760008560000160086101000a81548160ff0219169083151502179055507fc7f505b2f371ae2175ee4913f4499e1f2633a7b5936321eed1cdaeb6115181d260016040516116d491906144e2565b60405180910390a15b505050505050565b606060006116f16128cf565b90506116fc83611a3b565b506000816000016000858152602001908152602001600020805461171f90613eb8565b80601f016020809104026020016040519081016040528092919081815260200182805461174b90613eb8565b80156117985780601f1061176d57610100808354040283529160200191611798565b820191906000526020600020905b81548152906001019060200180831161177b57829003601f168201915b5050505050905060006117a96128f7565b905060008151036117bf57819350505050611804565b6000825111156117f55780826040516020016117dc929190614539565b6040516020818303038152906040529350505050611804565b6117fe8561290e565b93505050505b919050565b600080611814611a13565b90508060050160008573ffffffffffffffffffffffffffffffffffffffff1673ffffffffffffffffffffffffffffffffffffffff16815260200190815260200160002060008473ffffffffffffffffffffffffffffffffffffffff1673ffffffffffffffffffffffffffffffffffffffff16815260200190815260200160002060009054906101000a900460ff1691505092915050565b6118b3611fd7565b600073ffffffffffffffffffffffffffffffffffffffff168173ffffffffffffffffffffffffffffffffffffffff16036119255760006040517f1e4fbdf700000000000000000000000000000000000000000000000000000000815260040161191c91906137da565b60405180910390fd5b61192e8161238f565b50565b60007f80ac58cd000000000000000000000000000000000000000000000000000000007bffffffffffffffffffffffffffffffffffffffffffffffffffffffff1916827bffffffffffffffffffffffffffffffffffffffffffffffffffffffff191614806119fc57507f5b5e139f000000000000000000000000000000000000000000000000000000007bffffffffffffffffffffffffffffffffffffffffffffffffffffffff1916827bffffffffffffffffffffffffffffffffffffffffffffffffffffffff1916145b80611a0c5750611a0b82612977565b5b9050919050565b60007f80bb2b638cc20bc4d0a60d66940f3ab4a00c1d7b313497ca82fb0b4ab0079300905090565b600080611a47836129e1565b9050600073ffffffffffffffffffffffffffffffffffffffff168173ffffffffffffffffffffffffffffffffffffffff1603611aba57826040517f7e273289000000000000000000000000000000000000000000000000000000008152600401611ab191906135a4565b60405180910390fd5b80915050919050565b600080611ace611a13565b905080600401600084815260200190815260200160002060009054906101000a900473ffffffffffffffffffffffffffffffffffffffff16915050919050565b600033905090565b611b238383836001612a2c565b505050565b600080611b33611a13565b90506000611b40856129e1565b9050600073ffffffffffffffffffffffffffffffffffffffff168473ffffffffffffffffffffffffffffffffffffffff1614611b8257611b81818587612c00565b5b600073ffffffffffffffffffffffffffffffffffffffff168173ffffffffffffffffffffffffffffffffffffffff1614611c1557611bc4600086600080612a2c565b60018260030160008373ffffffffffffffffffffffffffffffffffffffff1673ffffffffffffffffffffffffffffffffffffffff168152602001908152602001600020600082825403925050819055505b600073ffffffffffffffffffffffffffffffffffffffff168673ffffffffffffffffffffffffffffffffffffffff1614611c9a5760018260030160008873ffffffffffffffffffffffffffffffffffffffff1673ffffffffffffffffffffffffffffffffffffffff168152602001908152602001600020600082825401925050819055505b8582600201600087815260200190815260200160002060006101000a81548173ffffffffffffffffffffffffffffffffffffffff021916908373ffffffffffffffffffffffffffffffffffffffff160217905550848673ffffffffffffffffffffffffffffffffffffffff168273ffffffffffffffffffffffffffffffffffffffff167fddf252ad1be2c89b69c2b068fc378daa952ba7f163c4a11628f55a4df523b3ef60405160405180910390a480925050509392505050565b611d5d610e17565b15611d94576040517fd93c066500000000000000000000000000000000000000000000000000000000815260040160405180910390fd5b565b606060008290506000815167ffffffffffffffff811115611dba57611db96139b3565b5b6040519080825280601f01601f191660200182016040528015611dec5781602001600182028036833780820191505090505b50905060005b8251811015611f43576041838281518110611e1057611e0f61455d565b5b602001015160f81c60f81b60f81c60ff1610158015611e535750605a838281518110611e3f57611e3e61455d565b5b602001015160f81c60f81b60f81c60ff1611155b15611ecf576020838281518110611e6d57611e6c61455d565b5b602001015160f81c60f81b60f81c611e859190614599565b60f81b828281518110611e9b57611e9a61455d565b5b60200101907effffffffffffffffffffffffffffffffffffffffffffffffffffffffffffff1916908160001a905350611f30565b828181518110611ee257611ee161455d565b5b602001015160f81c60f81b828281518110611f0057611eff61455d565b5b60200101907effffffffffffffffffffffffffffffffffffffffffffffffffffffffffffff1916908160001a9053505b8080611f3b90614027565b915050611df2565b508092505050919050565b611f68828260405180602001604052806000815250612cc4565b5050565b6000611f766128cf565b9050818160000160008581526020019081526020016000209081611f9a91906145ce565b507ff8e1a15aba9398e019f0b49df1a4fde98ee17ae345cb5f6b5e2c27f5033e8ce783604051611fca91906135a4565b60405180910390a1505050565b611fdf611b0e565b73ffffffffffffffffffffffffffffffffffffffff16611ffd611356565b73ffffffffffffffffffffffffffffffffffffffff161461205c57612020611b0e565b6040517f118cdaa700000000000000000000000000000000000000000000000000000000815260040161205391906137da565b60405180910390fd5b565b612066612ce0565b6000612070612367565b905060008160000160006101000a81548160ff0219169083151502179055507f5db9ee0a495bf2e6ff9c91a7834c1ba4fdd244a5e8aa4e537bd38aeae4b073aa6120b8611b0e565b6040516120c591906137da565b60405180910390a150565b7f000000000000000000000000000000000000000000000000000000000000000073ffffffffffffffffffffffffffffffffffffffff163073ffffffffffffffffffffffffffffffffffffffff16148061217d57507f000000000000000000000000000000000000000000000000000000000000000073ffffffffffffffffffffffffffffffffffffffff16612164612d20565b73ffffffffffffffffffffffffffffffffffffffff1614155b156121b4576040517fe07c8dba00000000000000000000000000000000000000000000000000000000815260040160405180910390fd5b565b6121be611fd7565b50565b8173ffffffffffffffffffffffffffffffffffffffff166352d1902d6040518163ffffffff1660e01b8152600401602060405180830381865afa92505050801561222957506040513d601f19601f8201168201806040525081019061222691906146cc565b60015b61226a57816040517f4c9c8ce300000000000000000000000000000000000000000000000000000000815260040161226191906137da565b60405180910390fd5b7f360894a13ba1a3210667c828492db98dca3e2076cc3735a920a3ca505d382bbc60001b81146122d157806040517faa1d49a40000000000000000000000000000000000000000000000000000000081526004016122c89190613ba0565b60405180910390fd5b6122db8383612d77565b505050565b7f000000000000000000000000000000000000000000000000000000000000000073ffffffffffffffffffffffffffffffffffffffff163073ffffffffffffffffffffffffffffffffffffffff1614612365576040517fe07c8dba00000000000000000000000000000000000000000000000000000000815260040160405180910390fd5b565b60007fcd5ed15c6e187e77e9aee88184c21f4f2182ab5827cb3b7e07fbedcd63f03300905090565b60006123996124d8565b905060008160000160009054906101000a900473ffffffffffffffffffffffffffffffffffffffff169050828260000160006101000a81548173ffffffffffffffffffffffffffffffffffffffff021916908373ffffffffffffffffffffffffffffffffffffffff1602179055508273ffffffffffffffffffffffffffffffffffffffff168173ffffffffffffffffffffffffffffffffffffffff167f8be0079c531659141344cd1fd0a4f28419497f9722a3daafe3b4186f6b6457e060405160405180910390a3505050565b61246e611d55565b6000612478612367565b905060018160000160006101000a81548160ff0219169083151502179055507f62e78cea01bee320cd4e420270b5ea74000d11b0c9f74754ebdbfc544b05a2586124c0611b0e565b6040516124cd91906137da565b60405180910390a150565b60007f9016d09d72d40fdae2fd8ceac6b6234c7706214fd39c1cd1e609a0528c199300905090565b600061250a611a13565b9050600073ffffffffffffffffffffffffffffffffffffffff168373ffffffffffffffffffffffffffffffffffffffff160361257d57826040517f5b08ba1800000000000000000000000000000000000000000000000000000000815260040161257491906137da565b60405180910390fd5b818160050160008673ffffffffffffffffffffffffffffffffffffffff1673ffffffffffffffffffffffffffffffffffffffff16815260200190815260200160002060008573ffffffffffffffffffffffffffffffffffffffff1673ffffffffffffffffffffffffffffffffffffffff16815260200190815260200160002060006101000a81548160ff0219169083151502179055508273ffffffffffffffffffffffffffffffffffffffff168473ffffffffffffffffffffffffffffffffffffffff167f17307eab39ab6107e8899845ad3d59bd9653f200f220920489ca2b5937696c31846040516126709190613673565b60405180910390a350505050565b60008373ffffffffffffffffffffffffffffffffffffffff163b111561282f578273ffffffffffffffffffffffffffffffffffffffff1663150b7a026126c2611b0e565b8685856040518563ffffffff1660e01b81526004016126e4949392919061474e565b6020604051808303816000875af192505050801561272057506040513d601f19601f8201168201806040525081019061271d91906147af565b60015b6127a4573d8060008114612750576040519150601f19603f3d011682016040523d82523d6000602084013e612755565b606091505b50600081510361279c57836040517f64a0ae9200000000000000000000000000000000000000000000000000000000815260040161279391906137da565b60405180910390fd5b805181602001fd5b63150b7a0260e01b7bffffffffffffffffffffffffffffffffffffffffffffffffffffffff1916817bffffffffffffffffffffffffffffffffffffffffffffffffffffffff19161461282d57836040517f64a0ae9200000000000000000000000000000000000000000000000000000000815260040161282491906137da565b60405180910390fd5b505b50505050565b60007ff0c57e16840df040f15088dc2f81fe391c3923bec73e23a9662efc9c229c6a00905090565b612865612dea565b61286e81612e2a565b50565b612879612dea565b565b612883612dea565b600061288d612367565b905060008160000160006101000a81548160ff02191690831515021790555050565b6128b7612dea565b6128c18282612eb0565b5050565b6128cd612dea565b565b60007f0542a41881ee128a365a727b282c86fa859579490b9bb45aab8503648c8e7900905090565b606060405180602001604052806000815250905090565b606061291982611a3b565b5060006129246128f7565b90506000815111612944576040518060200160405280600081525061296f565b8061294e84612eed565b60405160200161295f929190614539565b6040516020818303038152906040525b915050919050565b60007f01ffc9a7000000000000000000000000000000000000000000000000000000007bffffffffffffffffffffffffffffffffffffffffffffffffffffffff1916827bffffffffffffffffffffffffffffffffffffffffffffffffffffffff1916149050919050565b6000806129ec611a13565b905080600201600084815260200190815260200160002060009054906101000a900473ffffffffffffffffffffffffffffffffffffffff16915050919050565b6000612a36611a13565b90508180612a715750600073ffffffffffffffffffffffffffffffffffffffff168373ffffffffffffffffffffffffffffffffffffffff1614155b15612ba5576000612a8185611a3b565b9050600073ffffffffffffffffffffffffffffffffffffffff168473ffffffffffffffffffffffffffffffffffffffff1614158015612aec57508373ffffffffffffffffffffffffffffffffffffffff168173ffffffffffffffffffffffffffffffffffffffff1614155b8015612aff5750612afd8185611809565b155b15612b4157836040517fa9fbf51f000000000000000000000000000000000000000000000000000000008152600401612b3891906137da565b60405180910390fd5b8215612ba357848673ffffffffffffffffffffffffffffffffffffffff168273ffffffffffffffffffffffffffffffffffffffff167f8c5be1e5ebec7d5bd14f71427d1e84f3dd0314c0f7b2291e5b200ac8c7c3b92560405160405180910390a45b505b8481600401600086815260200190815260200160002060006101000a81548173ffffffffffffffffffffffffffffffffffffffff021916908373ffffffffffffffffffffffffffffffffffffffff1602179055505050505050565b612c0b838383612fbb565b612cbf57600073ffffffffffffffffffffffffffffffffffffffff168373ffffffffffffffffffffffffffffffffffffffff1603612c8057806040517f7e273289000000000000000000000000000000000000000000000000000000008152600401612c7791906135a4565b60405180910390fd5b81816040517f177e802f000000000000000000000000000000000000000000000000000000008152600401612cb69291906147dc565b60405180910390fd5b505050565b612cce838361307c565b612cdb600084848461267e565b505050565b612ce8610e17565b612d1e576040517f8dfc202b00000000000000000000000000000000000000000000000000000000815260040160405180910390fd5b565b6000612d4e7f360894a13ba1a3210667c828492db98dca3e2076cc3735a920a3ca505d382bbc60001b613175565b60000160009054906101000a900473ffffffffffffffffffffffffffffffffffffffff16905090565b612d808261317f565b8173ffffffffffffffffffffffffffffffffffffffff167fbc7cd75a20ee27fd9adebab32041f755214dbc6bffa90cc0225b39da2e5c2d3b60405160405180910390a2600081511115612ddd57612dd7828261324c565b50612de6565b612de56132d0565b5b5050565b612df261330d565b612e28576040517fd7e6bcf800000000000000000000000000000000000000000000000000000000815260040160405180910390fd5b565b612e32612dea565b600073ffffffffffffffffffffffffffffffffffffffff168173ffffffffffffffffffffffffffffffffffffffff1603612ea45760006040517f1e4fbdf7000000000000000000000000000000000000000000000000000000008152600401612e9b91906137da565b60405180910390fd5b612ead8161238f565b50565b612eb8612dea565b6000612ec2611a13565b905082816000019081612ed591906145ce565b5081816001019081612ee791906145ce565b50505050565b606060006001612efc8461332d565b01905060008167ffffffffffffffff811115612f1b57612f1a6139b3565b5b6040519080825280601f01601f191660200182016040528015612f4d5781602001600182028036833780820191505090505b509050600082602001820190505b600115612fb0578080600190039150507f3031323334353637383961626364656600000000000000000000000000000000600a86061a8153600a8581612fa457612fa3614805565b5b04945060008503612f5b575b819350505050919050565b60008073ffffffffffffffffffffffffffffffffffffffff168373ffffffffffffffffffffffffffffffffffffffff161415801561307357508273ffffffffffffffffffffffffffffffffffffffff168473ffffffffffffffffffffffffffffffffffffffff16148061303457506130338484611809565b5b8061307257508273ffffffffffffffffffffffffffffffffffffffff1661305a83611ac3565b73ffffffffffffffffffffffffffffffffffffffff16145b5b90509392505050565b600073ffffffffffffffffffffffffffffffffffffffff168273ffffffffffffffffffffffffffffffffffffffff16036130ee5760006040517f64a0ae920000000000000000000000000000000000000000000000000000000081526004016130e591906137da565b60405180910390fd5b60006130fc83836000611b28565b9050600073ffffffffffffffffffffffffffffffffffffffff168173ffffffffffffffffffffffffffffffffffffffff16146131705760006040517f73c6ac6e00000000000000000000000000000000000000000000000000000000815260040161316791906137da565b60405180910390fd5b505050565b6000819050919050565b60008173ffffffffffffffffffffffffffffffffffffffff163b036131db57806040517f4c9c8ce30000000000000000000000000000000000000000000000000000000081526004016131d291906137da565b60405180910390fd5b806132087f360894a13ba1a3210667c828492db98dca3e2076cc3735a920a3ca505d382bbc60001b613175565b60000160006101000a81548173ffffffffffffffffffffffffffffffffffffffff021916908373ffffffffffffffffffffffffffffffffffffffff16021790555050565b60606000808473ffffffffffffffffffffffffffffffffffffffff16846040516132769190614870565b600060405180830381855af49150503d80600081146132b1576040519150601f19603f3d011682016040523d82523d6000602084013e6132b6565b606091505b50915091506132c6858383613480565b9250505092915050565b600034111561330b576040517fb398979f00000000000000000000000000000000000000000000000000000000815260040160405180910390fd5b565b6000613317612835565b60000160089054906101000a900460ff16905090565b600080600090507a184f03e93ff9f4daa797ed6e38ed64bf6a1f010000000000000000831061338b577a184f03e93ff9f4daa797ed6e38ed64bf6a1f010000000000000000838161338157613380614805565b5b0492506040810190505b6d04ee2d6d415b85acef810000000083106133c8576d04ee2d6d415b85acef810000000083816133be576133bd614805565b5b0492506020810190505b662386f26fc1000083106133f757662386f26fc1000083816133ed576133ec614805565b5b0492506010810190505b6305f5e1008310613420576305f5e100838161341657613415614805565b5b0492506008810190505b612710831061344557612710838161343b5761343a614805565b5b0492506004810190505b60648310613468576064838161345e5761345d614805565b5b0492506002810190505b600a8310613477576001810190505b80915050919050565b606082613495576134908261350f565b613507565b600082511480156134bd575060008473ffffffffffffffffffffffffffffffffffffffff163b145b156134ff57836040517f9996b3150000000000000000000000000000000000000000000000000000000081526004016134f691906137da565b60405180910390fd5b819050613508565b5b9392505050565b6000815111156135225780518082602001fd5b6040517f1425ea4200000000000000000000000000000000000000000000000000000000815260040160405180910390fd5b60405180606001604052806060815260200160608152602001600073ffffffffffffffffffffffffffffffffffffffff1681525090565b6000819050919050565b61359e8161358b565b82525050565b60006020820190506135b96000830184613595565b92915050565b6000604051905090565b600080fd5b600080fd5b60007fffffffff0000000000000000000000000000000000000000000000000000000082169050919050565b613608816135d3565b811461361357600080fd5b50565b600081359050613625816135ff565b92915050565b600060208284031215613641576136406135c9565b5b600061364f84828501613616565b91505092915050565b60008115159050919050565b61366d81613658565b82525050565b60006020820190506136886000830184613664565b92915050565b600081519050919050565b600082825260208201905092915050565b60005b838110156136c85780820151818401526020810190506136ad565b60008484015250505050565b6000601f19601f8301169050919050565b60006136f08261368e565b6136fa8185613699565b935061370a8185602086016136aa565b613713816136d4565b840191505092915050565b6000602082019050818103600083015261373881846136e5565b905092915050565b6137498161358b565b811461375457600080fd5b50565b60008135905061376681613740565b92915050565b600060208284031215613782576137816135c9565b5b600061379084828501613757565b91505092915050565b600073ffffffffffffffffffffffffffffffffffffffff82169050919050565b60006137c482613799565b9050919050565b6137d4816137b9565b82525050565b60006020820190506137ef60008301846137cb565b92915050565b6137fe816137b9565b811461380957600080fd5b50565b60008135905061381b816137f5565b92915050565b60008060408385031215613838576138376135c9565b5b60006138468582860161380c565b925050602061385785828601613757565b9150509250929050565b60008060006060848603121561387a576138796135c9565b5b60006138888682870161380c565b93505060206138998682870161380c565b92505060406138aa86828701613757565b9150509250925092565b600080fd5b600080fd5b600080fd5b60008083601f8401126138d9576138d86138b4565b5b8235905067ffffffffffffffff8111156138f6576138f56138b9565b5b602083019150836001820283011115613912576139116138be565b5b9250929050565b600080600080600060608688031215613935576139346135c9565b5b60006139438882890161380c565b955050602086013567ffffffffffffffff811115613964576139636135ce565b5b613970888289016138c3565b9450945050604086013567ffffffffffffffff811115613993576139926135ce565b5b61399f888289016138c3565b92509250509295509295909350565b600080fd5b7f4e487b7100000000000000000000000000000000000000000000000000000000600052604160045260246000fd5b6139eb826136d4565b810181811067ffffffffffffffff82111715613a0a57613a096139b3565b5b80604052505050565b6000613a1d6135bf565b9050613a2982826139e2565b919050565b600067ffffffffffffffff821115613a4957613a486139b3565b5b613a52826136d4565b9050602081019050919050565b82818337600083830152505050565b6000613a81613a7c84613a2e565b613a13565b905082815260208101848484011115613a9d57613a9c6139ae565b5b613aa8848285613a5f565b509392505050565b600082601f830112613ac557613ac46138b4565b5b8135613ad5848260208601613a6e565b91505092915050565b60008060408385031215613af557613af46135c9565b5b6000613b038582860161380c565b925050602083013567ffffffffffffffff811115613b2457613b236135ce565b5b613b3085828601613ab0565b9150509250929050565b60008060208385031215613b5157613b506135c9565b5b600083013567ffffffffffffffff811115613b6f57613b6e6135ce565b5b613b7b858286016138c3565b92509250509250929050565b6000819050919050565b613b9a81613b87565b82525050565b6000602082019050613bb56000830184613b91565b92915050565b600060208284031215613bd157613bd06135c9565b5b6000613bdf8482850161380c565b91505092915050565b600080600060408486031215613c0157613c006135c9565b5b6000613c0f86828701613757565b935050602084013567ffffffffffffffff811115613c3057613c2f6135ce565b5b613c3c868287016138c3565b92509250509250925092565b60008060408385031215613c5f57613c5e6135c9565b5b6000613c6d85828601613757565b9250506020613c7e8582860161380c565b9150509250929050565b600082825260208201905092915050565b6000613ca48261368e565b613cae8185613c88565b9350613cbe8185602086016136aa565b613cc7816136d4565b840191505092915050565b613cdb816137b9565b82525050565b60006060830160008301518482036000860152613cfe8282613c99565b91505060208301518482036020860152613d188282613c99565b9150506040830151613d2d6040860182613cd2565b508091505092915050565b60006020820190508181036000830152613d528184613ce1565b905092915050565b613d6381613658565b8114613d6e57600080fd5b50565b600081359050613d8081613d5a565b92915050565b60008060408385031215613d9d57613d9c6135c9565b5b6000613dab8582860161380c565b9250506020613dbc85828601613d71565b9150509250929050565b60008060008060808587031215613de057613ddf6135c9565b5b6000613dee8782880161380c565b9450506020613dff8782880161380c565b9350506040613e1087828801613757565b925050606085013567ffffffffffffffff811115613e3157613e306135ce565b5b613e3d87828801613ab0565b91505092959194509250565b60008060408385031215613e6057613e5f6135c9565b5b6000613e6e8582860161380c565b9250506020613e7f8582860161380c565b9150509250929050565b7f4e487b7100000000000000000000000000000000000000000000000000000000600052602260045260246000fd5b60006002820490506001821680613ed057607f821691505b602082108103613ee357613ee2613e89565b5b50919050565b6000606082019050613efe60008301866137cb565b613f0b6020830185613595565b613f1860408301846137cb565b949350505050565b7f416c7265616479206861732070726f66696c6500000000000000000000000000600082015250565b6000613f56601383613699565b9150613f6182613f20565b602082019050919050565b60006020820190508181036000830152613f8581613f49565b9050919050565b7f48616e646c6520616c72656164792074616b656e000000000000000000000000600082015250565b6000613fc2601483613699565b9150613fcd82613f8c565b602082019050919050565b60006020820190508181036000830152613ff181613fb5565b9050919050565b7f4e487b7100000000000000000000000000000000000000000000000000000000600052601160045260246000fd5b60006140328261358b565b91507fffffffffffffffffffffffffffffffffffffffffffffffffffffffffffffffff820361406457614063613ff8565b5b600182019050919050565b600082905092915050565b60008190508160005260206000209050919050565b60006020601f8301049050919050565b600082821b905092915050565b6000600883026140dc7fffffffffffffffffffffffffffffffffffffffffffffffffffffffffffffffff8261409f565b6140e6868361409f565b95508019841693508086168417925050509392505050565b6000819050919050565b600061412361411e6141198461358b565b6140fe565b61358b565b9050919050565b6000819050919050565b61413d83614108565b6141516141498261412a565b8484546140ac565b825550505050565b600090565b614166614159565b614171818484614134565b505050565b5b818110156141955761418a60008261415e565b600181019050614177565b5050565b601f8211156141da576141ab8161407a565b6141b48461408f565b810160208510156141c3578190505b6141d76141cf8561408f565b830182614176565b50505b505050565b600082821c905092915050565b60006141fd600019846008026141df565b1980831691505092915050565b600061421683836141ec565b9150826002028217905092915050565b614230838361406f565b67ffffffffffffffff811115614249576142486139b3565b5b6142538254613eb8565b61425e828285614199565b6000601f83116001811461428d576000841561427b578287013590505b614285858261420a565b8655506142ed565b601f19841661429b8661407a565b60005b828110156142c35784890135825560018201915060208501945060208101905061429e565b868310156142e057848901356142dc601f8916826141ec565b8355505b6001600288020188555050505b50505050505050565b600060408201905061430b6000830185613595565b61431860208301846137cb565b9392505050565b600061432b8385613699565b9350614338838584613a5f565b614341836136d4565b840190509392505050565b600060608201905061436160008301886137cb565b818103602083015261437481868861431f565b9050818103604083015261438981848661431f565b90509695505050505050565b7f546f6b656e20646f65736e277420657869737473000000000000000000000000600082015250565b60006143cb601483613699565b91506143d682614395565b602082019050919050565b600060208201905081810360008301526143fa816143be565b9050919050565b7f43616e2774206368616e676520736f6d656f6e6520656c73652773206d65746160008201527f6461746100000000000000000000000000000000000000000000000000000000602082015250565b600061445d602483613699565b915061446882614401565b604082019050919050565b6000602082019050818103600083015261448c81614450565b9050919050565b6000819050919050565b600067ffffffffffffffff82169050919050565b60006144cc6144c76144c284614493565b6140fe565b61449d565b9050919050565b6144dc816144b1565b82525050565b60006020820190506144f760008301846144d3565b92915050565b600081905092915050565b60006145138261368e565b61451d81856144fd565b935061452d8185602086016136aa565b80840191505092915050565b60006145458285614508565b91506145518284614508565b91508190509392505050565b7f4e487b7100000000000000000000000000000000000000000000000000000000600052603260045260246000fd5b600060ff82169050919050565b60006145a48261458c565b91506145af8361458c565b9250828201905060ff8111156145c8576145c7613ff8565b5b92915050565b6145d78261368e565b67ffffffffffffffff8111156145f0576145ef6139b3565b5b6145fa8254613eb8565b614605828285614199565b600060209050601f8311600181146146385760008415614626578287015190505b614630858261420a565b865550614698565b601f1984166146468661407a565b60005b8281101561466e57848901518255600182019150602085019450602081019050614649565b8683101561468b5784890151614687601f8916826141ec565b8355505b6001600288020188555050505b505050505050565b6146a981613b87565b81146146b457600080fd5b50565b6000815190506146c6816146a0565b92915050565b6000602082840312156146e2576146e16135c9565b5b60006146f0848285016146b7565b91505092915050565b600081519050919050565b600082825260208201905092915050565b6000614720826146f9565b61472a8185614704565b935061473a8185602086016136aa565b614743816136d4565b840191505092915050565b600060808201905061476360008301876137cb565b61477060208301866137cb565b61477d6040830185613595565b818103606083015261478f8184614715565b905095945050505050565b6000815190506147a9816135ff565b92915050565b6000602082840312156147c5576147c46135c9565b5b60006147d38482850161479a565b91505092915050565b60006040820190506147f160008301856137cb565b6147fe6020830184613595565b9392505050565b7f4e487b7100000000000000000000000000000000000000000000000000000000600052601260045260246000fd5b600081905092915050565b600061484a826146f9565b6148548185614834565b93506148648185602086016136aa565b80840191505092915050565b600061487c828461483f565b91508190509291505056fea2646970667358221220c8c78540a38064a8fb618a58f9ee4bfa18415b33c1c57066bd8df1a7f854ac8564736f6c63430008140033",
  "linkReferences": {},
  "deployedLinkReferences": {}
}