{
  "_format": "hh-sol-artifact-1",
  "contractName": "RegularBalanceOf",
  "sourceName": "contracts/helpers/RegularBalanceOf.sol",
  "abi": [
    {
      "inputs": [
        {
          "internalType": "address",
          "name": "account",
          "type": "address"
        }
      ],
      "name": "balanceOf",
      "outputs": [
        {
          "internalType": "uint256",
          "name": "",
          "type": "uint256"
        }
      ],
      "stateMutability": "view",
      "type": "function"
    },
    {
      "inputs": [
        {
          "internalType": "bytes32",
          "name": "role",
          "type": "bytes32"
        },
        {
          "internalType": "address",
          "name": "account",
          "type": "address"
        }
      ],
      "name": "hasRole",
      "outputs": [
        {
          "internalType": "bool",
          "name": "",
          "type": "bool"
        }
      ],
      "stateMutability": "view",
      "type": "function"
    }
  ],
  "bytecode": "0x608060405234801561001057600080fd5b50610250806100206000396000f3fe608060405234801561001057600080fd5b50600436106100365760003560e01c806370a082311461003b57806391d148541461006b575b600080fd5b6100556004803603810190610050919061010d565b61009b565b6040516100629190610153565b60405180910390f35b610085600480360381019061008091906101a4565b6100a2565b60405161009291906101ff565b60405180910390f35b6000919050565b600092915050565b600080fd5b600073ffffffffffffffffffffffffffffffffffffffff82169050919050565b60006100da826100af565b9050919050565b6100ea816100cf565b81146100f557600080fd5b50565b600081359050610107816100e1565b92915050565b600060208284031215610123576101226100aa565b5b6000610131848285016100f8565b91505092915050565b6000819050919050565b61014d8161013a565b82525050565b60006020820190506101686000830184610144565b92915050565b6000819050919050565b6101818161016e565b811461018c57600080fd5b50565b60008135905061019e81610178565b92915050565b600080604083850312156101bb576101ba6100aa565b5b60006101c98582860161018f565b92505060206101da858286016100f8565b9150509250929050565b60008115159050919050565b6101f9816101e4565b82525050565b600060208201905061021460008301846101f0565b9291505056fea2646970667358221220f20774afe60076c98021d31c790d3b5c0a85bfe3559bac09aa9d0b8a9929035064736f6c63430008140033",
  "linkReferences": {},
  "deployedLinkReferences": {}
}