{
  "_format": "hh-sol-artifact-1",
  "contractName": "MarketMaster",
  "sourceName": "contracts/MarketMaster.sol",
  "abi": [
    {
      "inputs": [
        {
          "internalType": "address",
          "name": "target",
          "type": "address"
        }
      ],
      "name": "AddressEmptyCode",
      "type": "error"
    },
    {
      "inputs": [
        {
          "internalType": "address",
          "name": "implementation",
          "type": "address"
        }
      ],
      "name": "ERC1967InvalidImplementation",
      "type": "error"
    },
    {
      "inputs": [],
      "name": "ERC1967NonPayable",
      "type": "error"
    },
    {
      "inputs": [],
      "name": "EnforcedPause",
      "type": "error"
    },
    {
      "inputs": [],
      "name": "ExpectedPause",
      "type": "error"
    },
    {
      "inputs": [],
      "name": "FailedInnerCall",
      "type": "error"
    },
    {
      "inputs": [],
      "name": "InvalidInitialization",
      "type": "error"
    },
    {
      "inputs": [],
      "name": "NotInitializing",
      "type": "error"
    },
    {
      "inputs": [
        {
          "internalType": "address",
          "name": "owner",
          "type": "address"
        }
      ],
      "name": "OwnableInvalidOwner",
      "type": "error"
    },
    {
      "inputs": [
        {
          "internalType": "address",
          "name": "account",
          "type": "address"
        }
      ],
      "name": "OwnableUnauthorizedAccount",
      "type": "error"
    },
    {
      "inputs": [],
      "name": "UUPSUnauthorizedCallContext",
      "type": "error"
    },
    {
      "inputs": [
        {
          "internalType": "bytes32",
          "name": "slot",
          "type": "bytes32"
        }
      ],
      "name": "UUPSUnsupportedProxiableUUID",
      "type": "error"
    },
    {
      "anonymous": false,
      "inputs": [
        {
          "indexed": false,
          "internalType": "uint64",
          "name": "version",
          "type": "uint64"
        }
      ],
      "name": "Initialized",
      "type": "event"
    },
    {
      "anonymous": false,
      "inputs": [
        {
          "indexed": true,
          "internalType": "address",
          "name": "previousOwner",
          "type": "address"
        },
        {
          "indexed": true,
          "internalType": "address",
          "name": "newOwner",
          "type": "address"
        }
      ],
      "name": "OwnershipTransferred",
      "type": "event"
    },
    {
      "anonymous": false,
      "inputs": [
        {
          "indexed": false,
          "internalType": "address",
          "name": "account",
          "type": "address"
        }
      ],
      "name": "Paused",
      "type": "event"
    },
    {
      "anonymous": false,
      "inputs": [
        {
          "indexed": false,
          "internalType": "address",
          "name": "account",
          "type": "address"
        }
      ],
      "name": "Unpaused",
      "type": "event"
    },
    {
      "anonymous": false,
      "inputs": [
        {
          "indexed": true,
          "internalType": "address",
          "name": "implementation",
          "type": "address"
        }
      ],
      "name": "Upgraded",
      "type": "event"
    },
    {
      "inputs": [],
      "name": "UPGRADE_INTERFACE_VERSION",
      "outputs": [
        {
          "internalType": "string",
          "name": "",
          "type": "string"
        }
      ],
      "stateMutability": "view",
      "type": "function"
    },
    {
      "inputs": [],
      "name": "VERSION",
      "outputs": [
        {
          "internalType": "uint256",
          "name": "",
          "type": "uint256"
        }
      ],
      "stateMutability": "view",
      "type": "function"
    },
    {
      "inputs": [
        {
          "internalType": "address",
          "name": "",
          "type": "address"
        },
        {
          "internalType": "uint256",
          "name": "",
          "type": "uint256"
        }
      ],
      "name": "creator",
      "outputs": [
        {
          "internalType": "address",
          "name": "",
          "type": "address"
        }
      ],
      "stateMutability": "view",
      "type": "function"
    },
    {
      "inputs": [
        {
          "internalType": "uint256",
          "name": "_tokenId",
          "type": "uint256"
        },
        {
          "internalType": "uint256",
          "name": "_amount",
          "type": "uint256"
        },
        {
          "internalType": "address",
          "name": "_referer",
          "type": "address"
        }
      ],
      "name": "executeBuy",
      "outputs": [],
      "stateMutability": "payable",
      "type": "function"
    },
    {
      "inputs": [
        {
          "internalType": "uint256",
          "name": "_tokenId",
          "type": "uint256"
        },
        {
          "internalType": "uint256",
          "name": "_amount",
          "type": "uint256"
        }
      ],
      "name": "executeSell",
      "outputs": [],
      "stateMutability": "payable",
      "type": "function"
    },
    {
      "inputs": [
        {
          "internalType": "address",
          "name": "_collection",
          "type": "address"
        },
        {
          "internalType": "uint256",
          "name": "_tokenId",
          "type": "uint256"
        },
        {
          "internalType": "uint256",
          "name": "_amount",
          "type": "uint256"
        }
      ],
      "name": "getBuyPrice",
      "outputs": [
        {
          "internalType": "uint256",
          "name": "price",
          "type": "uint256"
        }
      ],
      "stateMutability": "view",
      "type": "function"
    },
    {
      "inputs": [
        {
          "internalType": "address",
          "name": "_collection",
          "type": "address"
        },
        {
          "internalType": "uint256",
          "name": "_tokenId",
          "type": "uint256"
        },
        {
          "internalType": "uint256",
          "name": "_amount",
          "type": "uint256"
        }
      ],
      "name": "getBuyPriceAfterFee",
      "outputs": [
        {
          "internalType": "uint256",
          "name": "",
          "type": "uint256"
        }
      ],
      "stateMutability": "view",
      "type": "function"
    },
    {
      "inputs": [
        {
          "internalType": "address",
          "name": "_collection",
          "type": "address"
        },
        {
          "internalType": "uint256",
          "name": "_tokenId",
          "type": "uint256"
        },
        {
          "internalType": "uint256",
          "name": "_amount",
          "type": "uint256"
        }
      ],
      "name": "getSellPrice",
      "outputs": [
        {
          "internalType": "uint256",
          "name": "price",
          "type": "uint256"
        }
      ],
      "stateMutability": "view",
      "type": "function"
    },
    {
      "inputs": [
        {
          "internalType": "address",
          "name": "_collection",
          "type": "address"
        },
        {
          "internalType": "uint256",
          "name": "_tokenId",
          "type": "uint256"
        },
        {
          "internalType": "uint256",
          "name": "_amount",
          "type": "uint256"
        }
      ],
      "name": "getSellPriceAfterFee",
      "outputs": [
        {
          "internalType": "uint256",
          "name": "",
          "type": "uint256"
        }
      ],
      "stateMutability": "view",
      "type": "function"
    },
    {
      "inputs": [
        {
          "internalType": "address",
          "name": "_collection",
          "type": "address"
        },
        {
          "internalType": "uint256",
          "name": "_tokenId",
          "type": "uint256"
        }
      ],
      "name": "getTokenSupply",
      "outputs": [
        {
          "internalType": "uint256",
          "name": "",
          "type": "uint256"
        }
      ],
      "stateMutability": "view",
      "type": "function"
    },
    {
      "inputs": [
        {
          "internalType": "address",
          "name": "_owner",
          "type": "address"
        },
        {
          "internalType": "address",
          "name": "_feeDestination",
          "type": "address"
        },
        {
          "internalType": "uint256",
          "name": "_feePercent",
          "type": "uint256"
        },
        {
          "internalType": "uint256",
          "name": "_creatorPercent",
          "type": "uint256"
        },
        {
          "internalType": "uint256",
          "name": "_basePrice",
          "type": "uint256"
        }
      ],
      "name": "initialize",
      "outputs": [],
      "stateMutability": "nonpayable",
      "type": "function"
    },
    {
      "inputs": [
        {
          "internalType": "address",
          "name": "",
          "type": "address"
        },
        {
          "internalType": "uint256",
          "name": "",
          "type": "uint256"
        }
      ],
      "name": "isBonded",
      "outputs": [
        {
          "internalType": "bool",
          "name": "",
          "type": "bool"
        }
      ],
      "stateMutability": "view",
      "type": "function"
    },
    {
      "inputs": [
        {
          "internalType": "uint256",
          "name": "_tokenId",
          "type": "uint256"
        },
        {
          "internalType": "address",
          "name": "_creator",
          "type": "address"
        },
        {
          "internalType": "bool",
          "name": "_isBonded",
          "type": "bool"
        },
        {
          "internalType": "uint256",
          "name": "_supplyLimit",
          "type": "uint256"
        },
        {
          "internalType": "uint256",
          "name": "_tokenPrice",
          "type": "uint256"
        }
      ],
      "name": "listToken",
      "outputs": [],
      "stateMutability": "nonpayable",
      "type": "function"
    },
    {
      "inputs": [],
      "name": "owner",
      "outputs": [
        {
          "internalType": "address",
          "name": "",
          "type": "address"
        }
      ],
      "stateMutability": "view",
      "type": "function"
    },
    {
      "inputs": [],
      "name": "pause",
      "outputs": [],
      "stateMutability": "nonpayable",
      "type": "function"
    },
    {
      "inputs": [],
      "name": "paused",
      "outputs": [
        {
          "internalType": "bool",
          "name": "",
          "type": "bool"
        }
      ],
      "stateMutability": "view",
      "type": "function"
    },
    {
      "inputs": [],
      "name": "proxiableUUID",
      "outputs": [
        {
          "internalType": "bytes32",
          "name": "",
          "type": "bytes32"
        }
      ],
      "stateMutability": "view",
      "type": "function"
    },
    {
      "inputs": [],
      "name": "renounceOwnership",
      "outputs": [],
      "stateMutability": "nonpayable",
      "type": "function"
    },
    {
      "inputs": [
        {
          "internalType": "uint256",
          "name": "_feePercent",
          "type": "uint256"
        }
      ],
      "name": "setCreatorFeePercent",
      "outputs": [],
      "stateMutability": "nonpayable",
      "type": "function"
    },
    {
      "inputs": [
        {
          "internalType": "address",
          "name": "_feeDestination",
          "type": "address"
        }
      ],
      "name": "setFeeDestination",
      "outputs": [],
      "stateMutability": "nonpayable",
      "type": "function"
    },
    {
      "inputs": [
        {
          "internalType": "uint256",
          "name": "_feePercent",
          "type": "uint256"
        }
      ],
      "name": "setProtocolFeePercent",
      "outputs": [],
      "stateMutability": "nonpayable",
      "type": "function"
    },
    {
      "inputs": [
        {
          "internalType": "address",
          "name": "",
          "type": "address"
        },
        {
          "internalType": "uint256",
          "name": "",
          "type": "uint256"
        }
      ],
      "name": "supplyLimit",
      "outputs": [
        {
          "internalType": "uint256",
          "name": "",
          "type": "uint256"
        }
      ],
      "stateMutability": "view",
      "type": "function"
    },
    {
      "inputs": [
        {
          "internalType": "address",
          "name": "",
          "type": "address"
        },
        {
          "internalType": "uint256",
          "name": "",
          "type": "uint256"
        }
      ],
      "name": "tokenPrice",
      "outputs": [
        {
          "internalType": "uint256",
          "name": "",
          "type": "uint256"
        }
      ],
      "stateMutability": "view",
      "type": "function"
    },
    {
      "inputs": [
        {
          "internalType": "address",
          "name": "",
          "type": "address"
        },
        {
          "internalType": "uint256",
          "name": "",
          "type": "uint256"
        }
      ],
      "name": "tokenSupply",
      "outputs": [
        {
          "internalType": "uint256",
          "name": "",
          "type": "uint256"
        }
      ],
      "stateMutability": "view",
      "type": "function"
    },
    {
      "inputs": [
        {
          "internalType": "address",
          "name": "newOwner",
          "type": "address"
        }
      ],
      "name": "transferOwnership",
      "outputs": [],
      "stateMutability": "nonpayable",
      "type": "function"
    },
    {
      "inputs": [],
      "name": "unpause",
      "outputs": [],
      "stateMutability": "nonpayable",
      "type": "function"
    },
    {
      "inputs": [
        {
          "internalType": "address",
          "name": "newImplementation",
          "type": "address"
        },
        {
          "internalType": "bytes",
          "name": "data",
          "type": "bytes"
        }
      ],
      "name": "upgradeToAndCall",
      "outputs": [],
      "stateMutability": "payable",
      "type": "function"
    }
  ],
  "bytecode": "0x60a06040523073ffffffffffffffffffffffffffffffffffffffff1660809073ffffffffffffffffffffffffffffffffffffffff1681525034801561004357600080fd5b506080516130fd61006d600039600081816112b10152818161130601526114c101526130fd6000f3fe60806040526004361061019c5760003560e01c80638da5cb5b116100ec578063e8e2d37c1161008a578063f2fde38b11610064578063f2fde38b146105af578063f8b5f2a8146105d8578063fbe5323414610615578063ffa1ad741461063e5761019c565b8063e8e2d37c1461053a578063eb111ce314610556578063f1220bbf146105725761019c565b8063ad3cb1cc116100c6578063ad3cb1cc1461046c578063c37b63bc14610497578063c996bf00146104d4578063d13f90b4146105115761019c565b80638da5cb5b146103db578063916c03ba14610406578063a4983421146104435761019c565b806352d1902d116101595780636d99cefe116101335780636d99cefe146103475780636ff6c4b814610384578063715018a6146103ad5780638456cb59146103c45761019c565b806352d1902d146102b45780635c975abb146102df57806367e2cafd1461030a5761019c565b8063092b12f7146101a15780630bc917c0146101de5780631683538414610207578063378c47d7146102445780633f4ba83a146102815780634f1ef28614610298575b600080fd5b3480156101ad57600080fd5b506101c860048036038101906101c391906126d5565b610669565b6040516101d59190612724565b60405180910390f35b3480156101ea57600080fd5b5061020560048036038101906102009190612777565b61068e565b005b34801561021357600080fd5b5061022e600480360381019061022991906126d5565b6108d5565b60405161023b9190612724565b60405180910390f35b34801561025057600080fd5b5061026b600480360381019061026691906126d5565b610930565b6040516102789190612801565b60405180910390f35b34801561028d57600080fd5b5061029661095f565b005b6102b260048036038101906102ad9190612962565b610971565b005b3480156102c057600080fd5b506102c9610990565b6040516102d691906129d7565b60405180910390f35b3480156102eb57600080fd5b506102f46109c3565b6040516103019190612801565b60405180910390f35b34801561031657600080fd5b50610331600480360381019061032c91906126d5565b6109e8565b60405161033e9190612724565b60405180910390f35b34801561035357600080fd5b5061036e600480360381019061036991906129f2565b610a0d565b60405161037b9190612724565b60405180910390f35b34801561039057600080fd5b506103ab60048036038101906103a69190612a45565b610a7d565b005b3480156103b957600080fd5b506103c2610a8f565b005b3480156103d057600080fd5b506103d9610aa3565b005b3480156103e757600080fd5b506103f0610ab5565b6040516103fd9190612a81565b60405180910390f35b34801561041257600080fd5b5061042d600480360381019061042891906126d5565b610aed565b60405161043a9190612724565b60405180910390f35b34801561044f57600080fd5b5061046a60048036038101906104659190612a45565b610b12565b005b34801561047857600080fd5b50610481610b24565b60405161048e9190612b1b565b60405180910390f35b3480156104a357600080fd5b506104be60048036038101906104b991906129f2565b610b5d565b6040516104cb9190612724565b60405180910390f35b3480156104e057600080fd5b506104fb60048036038101906104f691906129f2565b610c96565b6040516105089190612724565b60405180910390f35b34801561051d57600080fd5b5061053860048036038101906105339190612b3d565b610d13565b005b610554600480360381019061054f9190612bb8565b610f0b565b005b610570600480360381019061056b9190612c0b565b610f99565b005b34801561057e57600080fd5b50610599600480360381019061059491906129f2565b611014565b6040516105a69190612724565b60405180910390f35b3480156105bb57600080fd5b506105d660048036038101906105d19190612c4b565b61109e565b005b3480156105e457600080fd5b506105ff60048036038101906105fa91906126d5565b611124565b60405161060c9190612a81565b60405180910390f35b34801561062157600080fd5b5061063c60048036038101906106379190612c4b565b611166565b005b34801561064a57600080fd5b506106536111b1565b6040516106609190612724565b60405180910390f35b6004602052816000526040600020602052806000526040600020600091509150505481565b82600860003373ffffffffffffffffffffffffffffffffffffffff1673ffffffffffffffffffffffffffffffffffffffff168152602001908152602001600020600087815260200190815260200160002060006101000a81548160ff02191690831515021790555083600560003373ffffffffffffffffffffffffffffffffffffffff1673ffffffffffffffffffffffffffffffffffffffff168152602001908152602001600020600087815260200190815260200160002060006101000a81548173ffffffffffffffffffffffffffffffffffffffff021916908373ffffffffffffffffffffffffffffffffffffffff16021790555082610791576001610794565b60005b60ff16600460003373ffffffffffffffffffffffffffffffffffffffff1673ffffffffffffffffffffffffffffffffffffffff168152602001908152602001600020600087815260200190815260200160002081905550826107f65781610818565b7fffffffffffffffffffffffffffffffffffffffffffffffffffffffffffffffff5b600660003373ffffffffffffffffffffffffffffffffffffffff1673ffffffffffffffffffffffffffffffffffffffff16815260200190815260200160002060008781526020019081526020016000208190555082610877578061087a565b60005b600760003373ffffffffffffffffffffffffffffffffffffffff1673ffffffffffffffffffffffffffffffffffffffff1681526020019081526020016000206000878152602001908152602001600020819055505050505050565b6000600460008473ffffffffffffffffffffffffffffffffffffffff1673ffffffffffffffffffffffffffffffffffffffff168152602001908152602001600020600083815260200190815260200160002054905092915050565b60086020528160005260406000206020528060005260406000206000915091509054906101000a900460ff1681565b6109676111b6565b61096f61123d565b565b6109796112af565b61098282611395565b61098c82826113a0565b5050565b600061099a6114bf565b7f360894a13ba1a3210667c828492db98dca3e2076cc3735a920a3ca505d382bbc60001b905090565b6000806109ce611546565b90508060000160009054906101000a900460ff1691505090565b6006602052816000526040600020602052806000526040600020600091509150505481565b6000610a7482600460008773ffffffffffffffffffffffffffffffffffffffff1673ffffffffffffffffffffffffffffffffffffffff168152602001908152602001600020600086815260200190815260200160002054610a6e9190612ca7565b8361156e565b90509392505050565b610a856111b6565b8060028190555050565b610a976111b6565b610aa160006116a4565b565b610aab6111b6565b610ab361177b565b565b600080610ac06117ed565b90508060000160009054906101000a900473ffffffffffffffffffffffffffffffffffffffff1691505090565b6007602052816000526040600020602052806000526040600020600091509150505481565b610b1a6111b6565b8060018190555050565b6040518060400160405280600581526020017f352e302e3000000000000000000000000000000000000000000000000000000081525081565b6000600860008573ffffffffffffffffffffffffffffffffffffffff1673ffffffffffffffffffffffffffffffffffffffff168152602001908152602001600020600084815260200190815260200160002060009054906101000a900460ff1615610c2357610c1c600460008673ffffffffffffffffffffffffffffffffffffffff1673ffffffffffffffffffffffffffffffffffffffff1681526020019081526020016000206000858152602001908152602001600020548361156e565b9050610c8f565b60035482600760008773ffffffffffffffffffffffffffffffffffffffff1673ffffffffffffffffffffffffffffffffffffffff168152602001908152602001600020600086815260200190815260200160002054610c829190612cdb565b610c8c9190612d1d565b90505b9392505050565b600080610ca4858585610a0d565b90506000670de0b6b3a764000060015483610cbf9190612cdb565b610cc99190612d80565b90506000670de0b6b3a764000060025484610ce49190612cdb565b610cee9190612d80565b9050808284610cfd9190612ca7565b610d079190612ca7565b93505050509392505050565b6000610d1d611815565b905060008160000160089054906101000a900460ff1615905060008260000160009054906101000a900467ffffffffffffffff1690506000808267ffffffffffffffff16148015610d6b5750825b9050600060018367ffffffffffffffff16148015610da0575060003073ffffffffffffffffffffffffffffffffffffffff163b145b905081158015610dae575080155b15610de5576040517ff92ee8a900000000000000000000000000000000000000000000000000000000815260040160405180910390fd5b60018560000160006101000a81548167ffffffffffffffff021916908367ffffffffffffffff1602179055508315610e355760018560000160086101000a81548160ff0219169083151502179055505b610e3e8a61183d565b610e46611851565b610e4e61185b565b886000806101000a81548173ffffffffffffffffffffffffffffffffffffffff021916908373ffffffffffffffffffffffffffffffffffffffff1602179055508760018190555086600281905550856003819055508315610eff5760008560000160086101000a81548160ff0219169083151502179055507fc7f505b2f371ae2175ee4913f4499e1f2633a7b5936321eed1cdaeb6115181d26001604051610ef69190612e0a565b60405180910390a15b50505050505050505050565b610f1361188f565b600860003373ffffffffffffffffffffffffffffffffffffffff1673ffffffffffffffffffffffffffffffffffffffff168152602001908152602001600020600084815260200190815260200160002060009054906101000a900460ff1615610f8757610f82338285856118d0565b610f94565b610f9333828585611c0a565b5b505050565b610fa161188f565b600860003373ffffffffffffffffffffffffffffffffffffffff1673ffffffffffffffffffffffffffffffffffffffff168152602001908152602001600020600083815260200190815260200160002060009054906101000a900460ff16156110105761100f338383611ef4565b5b5050565b600080611022858585610b5d565b90506000670de0b6b3a76400006001548361103d9190612cdb565b6110479190612d80565b90506000670de0b6b3a7640000600254846110629190612cdb565b61106c9190612d80565b905060035481838561107e9190612d1d565b6110889190612d1d565b6110929190612d1d565b93505050509392505050565b6110a66111b6565b600073ffffffffffffffffffffffffffffffffffffffff168173ffffffffffffffffffffffffffffffffffffffff16036111185760006040517f1e4fbdf700000000000000000000000000000000000000000000000000000000815260040161110f9190612a81565b60405180910390fd5b611121816116a4565b50565b60056020528160005260406000206020528060005260406000206000915091509054906101000a900473ffffffffffffffffffffffffffffffffffffffff1681565b61116e6111b6565b806000806101000a81548173ffffffffffffffffffffffffffffffffffffffff021916908373ffffffffffffffffffffffffffffffffffffffff16021790555050565b600181565b6111be6121c9565b73ffffffffffffffffffffffffffffffffffffffff166111dc610ab5565b73ffffffffffffffffffffffffffffffffffffffff161461123b576111ff6121c9565b6040517f118cdaa70000000000000000000000000000000000000000000000000000000081526004016112329190612a81565b60405180910390fd5b565b6112456121d1565b600061124f611546565b905060008160000160006101000a81548160ff0219169083151502179055507f5db9ee0a495bf2e6ff9c91a7834c1ba4fdd244a5e8aa4e537bd38aeae4b073aa6112976121c9565b6040516112a49190612a81565b60405180910390a150565b7f000000000000000000000000000000000000000000000000000000000000000073ffffffffffffffffffffffffffffffffffffffff163073ffffffffffffffffffffffffffffffffffffffff16148061135c57507f000000000000000000000000000000000000000000000000000000000000000073ffffffffffffffffffffffffffffffffffffffff16611343612211565b73ffffffffffffffffffffffffffffffffffffffff1614155b15611393576040517fe07c8dba00000000000000000000000000000000000000000000000000000000815260040160405180910390fd5b565b61139d6111b6565b50565b8173ffffffffffffffffffffffffffffffffffffffff166352d1902d6040518163ffffffff1660e01b8152600401602060405180830381865afa92505050801561140857506040513d601f19601f820116820180604052508101906114059190612e51565b60015b61144957816040517f4c9c8ce30000000000000000000000000000000000000000000000000000000081526004016114409190612a81565b60405180910390fd5b7f360894a13ba1a3210667c828492db98dca3e2076cc3735a920a3ca505d382bbc60001b81146114b057806040517faa1d49a40000000000000000000000000000000000000000000000000000000081526004016114a791906129d7565b60405180910390fd5b6114ba8383612268565b505050565b7f000000000000000000000000000000000000000000000000000000000000000073ffffffffffffffffffffffffffffffffffffffff163073ffffffffffffffffffffffffffffffffffffffff1614611544576040517fe07c8dba00000000000000000000000000000000000000000000000000000000815260040160405180910390fd5b565b60007fcd5ed15c6e187e77e9aee88184c21f4f2182ab5827cb3b7e07fbedcd63f03300905090565b600080600084146115d0576006600180866115899190612ca7565b60026115959190612cdb565b61159f9190612d1d565b856001876115ad9190612ca7565b6115b79190612cdb565b6115c19190612cdb565b6115cb9190612d80565b6115d3565b60005b9050600080851480156115e65750600184145b6116635760066001856001886115fc9190612ca7565b6116069190612d1d565b60026116129190612cdb565b61161c9190612d1d565b85876116289190612d1d565b866001896116369190612ca7565b6116409190612d1d565b61164a9190612cdb565b6116549190612cdb565b61165e9190612d80565b611666565b60005b9050600082826116769190612ca7565b9050618ca0670de0b6b3a76400008261168f9190612cdb565b6116999190612d80565b935050505092915050565b60006116ae6117ed565b905060008160000160009054906101000a900473ffffffffffffffffffffffffffffffffffffffff169050828260000160006101000a81548173ffffffffffffffffffffffffffffffffffffffff021916908373ffffffffffffffffffffffffffffffffffffffff1602179055508273ffffffffffffffffffffffffffffffffffffffff168173ffffffffffffffffffffffffffffffffffffffff167f8be0079c531659141344cd1fd0a4f28419497f9722a3daafe3b4186f6b6457e060405160405180910390a3505050565b61178361188f565b600061178d611546565b905060018160000160006101000a81548160ff0219169083151502179055507f62e78cea01bee320cd4e420270b5ea74000d11b0c9f74754ebdbfc544b05a2586117d56121c9565b6040516117e29190612a81565b60405180910390a150565b60007f9016d09d72d40fdae2fd8ceac6b6234c7706214fd39c1cd1e609a0528c199300905090565b60007ff0c57e16840df040f15088dc2f81fe391c3923bec73e23a9662efc9c229c6a00905090565b6118456122db565b61184e8161231b565b50565b6118596122db565b565b6118636122db565b600061186d611546565b905060008160000160006101000a81548160ff02191690831515021790555050565b6118976109c3565b156118ce576040517fd93c066500000000000000000000000000000000000000000000000000000000815260040160405180910390fd5b565b6000600460008673ffffffffffffffffffffffffffffffffffffffff1673ffffffffffffffffffffffffffffffffffffffff16815260200190815260200160002060008481526020019081526020016000205490506000611931828461156e565b90506000670de0b6b3a76400006001548361194c9190612cdb565b6119569190612d80565b90506000670de0b6b3a7640000600254846119719190612cdb565b61197b9190612d80565b905080828461198a9190612d1d565b6119949190612d1d565b3410156119d6576040517f08c379a00000000000000000000000000000000000000000000000000000000081526004016119cd90612eca565b60405180910390fd5b60008411156119ec576119eb88888888611c0a565b5b84846119f89190612d1d565b600460008a73ffffffffffffffffffffffffffffffffffffffff1673ffffffffffffffffffffffffffffffffffffffff16815260200190815260200160002060008881526020019081526020016000208190555060008060009054906101000a900473ffffffffffffffffffffffffffffffffffffffff1673ffffffffffffffffffffffffffffffffffffffff1683604051611a9390612f1b565b60006040518083038185875af1925050503d8060008114611ad0576040519150601f19603f3d011682016040523d82523d6000602084013e611ad5565b606091505b505090506000600560008b73ffffffffffffffffffffffffffffffffffffffff1673ffffffffffffffffffffffffffffffffffffffff168152602001908152602001600020600089815260200190815260200160002060009054906101000a900473ffffffffffffffffffffffffffffffffffffffff1673ffffffffffffffffffffffffffffffffffffffff1683604051611b6f90612f1b565b60006040518083038185875af1925050503d8060008114611bac576040519150601f19603f3d011682016040523d82523d6000602084013e611bb1565b606091505b50509050818015611bbf5750805b611bfe576040517f08c379a0000000000000000000000000000000000000000000000000000000008152600401611bf590612f7c565b60405180910390fd5b50505050505050505050565b600081600354600760008873ffffffffffffffffffffffffffffffffffffffff1673ffffffffffffffffffffffffffffffffffffffff168152602001908152602001600020600086815260200190815260200160002054611c6b9190612d1d565b611c759190612cdb565b9050803411611c8357600080fd5b6000600a82611c929190612d80565b90506000600a83611ca39190612d80565b90506000818385611cb49190612ca7565b611cbe9190612ca7565b905060008060009054906101000a900473ffffffffffffffffffffffffffffffffffffffff1673ffffffffffffffffffffffffffffffffffffffff1684604051611d0790612f1b565b60006040518083038185875af1925050503d8060008114611d44576040519150601f19603f3d011682016040523d82523d6000602084013e611d49565b606091505b505090506000600560008b73ffffffffffffffffffffffffffffffffffffffff1673ffffffffffffffffffffffffffffffffffffffff168152602001908152602001600020600089815260200190815260200160002060009054906101000a900473ffffffffffffffffffffffffffffffffffffffff1673ffffffffffffffffffffffffffffffffffffffff1683604051611de390612f1b565b60006040518083038185875af1925050503d8060008114611e20576040519150601f19603f3d011682016040523d82523d6000602084013e611e25565b606091505b5050905060008973ffffffffffffffffffffffffffffffffffffffff1685604051611e4f90612f1b565b60006040518083038185875af1925050503d8060008114611e8c576040519150601f19603f3d011682016040523d82523d6000602084013e611e91565b606091505b50509050828015611e9f5750815b8015611ea85750805b611ee7576040517f08c379a0000000000000000000000000000000000000000000000000000000008152600401611ede90612fe8565b60405180910390fd5b5050505050505050505050565b6000600460008573ffffffffffffffffffffffffffffffffffffffff1673ffffffffffffffffffffffffffffffffffffffff16815260200190815260200160002060008481526020019081526020016000205490506000611f608383611f5a9190612ca7565b8461156e565b90506000670de0b6b3a764000060015483611f7b9190612cdb565b611f859190612d80565b90506000670de0b6b3a764000060025484611fa09190612cdb565b611faa9190612d80565b90508484611fb89190612ca7565b600460008973ffffffffffffffffffffffffffffffffffffffff1673ffffffffffffffffffffffffffffffffffffffff16815260200190815260200160002060008881526020019081526020016000208190555060008060009054906101000a900473ffffffffffffffffffffffffffffffffffffffff1673ffffffffffffffffffffffffffffffffffffffff168360405161205390612f1b565b60006040518083038185875af1925050503d8060008114612090576040519150601f19603f3d011682016040523d82523d6000602084013e612095565b606091505b505090506000600560008a73ffffffffffffffffffffffffffffffffffffffff1673ffffffffffffffffffffffffffffffffffffffff168152602001908152602001600020600089815260200190815260200160002060009054906101000a900473ffffffffffffffffffffffffffffffffffffffff1673ffffffffffffffffffffffffffffffffffffffff168360405161212f90612f1b565b60006040518083038185875af1925050503d806000811461216c576040519150601f19603f3d011682016040523d82523d6000602084013e612171565b606091505b5050905081801561217f5750805b6121be576040517f08c379a00000000000000000000000000000000000000000000000000000000081526004016121b590613054565b60405180910390fd5b505050505050505050565b600033905090565b6121d96109c3565b61220f576040517f8dfc202b00000000000000000000000000000000000000000000000000000000815260040160405180910390fd5b565b600061223f7f360894a13ba1a3210667c828492db98dca3e2076cc3735a920a3ca505d382bbc60001b6123a1565b60000160009054906101000a900473ffffffffffffffffffffffffffffffffffffffff16905090565b612271826123ab565b8173ffffffffffffffffffffffffffffffffffffffff167fbc7cd75a20ee27fd9adebab32041f755214dbc6bffa90cc0225b39da2e5c2d3b60405160405180910390a26000815111156122ce576122c88282612478565b506122d7565b6122d66124fc565b5b5050565b6122e3612539565b612319576040517fd7e6bcf800000000000000000000000000000000000000000000000000000000815260040160405180910390fd5b565b6123236122db565b600073ffffffffffffffffffffffffffffffffffffffff168173ffffffffffffffffffffffffffffffffffffffff16036123955760006040517f1e4fbdf700000000000000000000000000000000000000000000000000000000815260040161238c9190612a81565b60405180910390fd5b61239e816116a4565b50565b6000819050919050565b60008173ffffffffffffffffffffffffffffffffffffffff163b0361240757806040517f4c9c8ce30000000000000000000000000000000000000000000000000000000081526004016123fe9190612a81565b60405180910390fd5b806124347f360894a13ba1a3210667c828492db98dca3e2076cc3735a920a3ca505d382bbc60001b6123a1565b60000160006101000a81548173ffffffffffffffffffffffffffffffffffffffff021916908373ffffffffffffffffffffffffffffffffffffffff16021790555050565b60606000808473ffffffffffffffffffffffffffffffffffffffff16846040516124a291906130b0565b600060405180830381855af49150503d80600081146124dd576040519150601f19603f3d011682016040523d82523d6000602084013e6124e2565b606091505b50915091506124f2858383612559565b9250505092915050565b6000341115612537576040517fb398979f00000000000000000000000000000000000000000000000000000000815260040160405180910390fd5b565b6000612543611815565b60000160089054906101000a900460ff16905090565b60608261256e57612569826125e8565b6125e0565b60008251148015612596575060008473ffffffffffffffffffffffffffffffffffffffff163b145b156125d857836040517f9996b3150000000000000000000000000000000000000000000000000000000081526004016125cf9190612a81565b60405180910390fd5b8190506125e1565b5b9392505050565b6000815111156125fb5780518082602001fd5b6040517f1425ea4200000000000000000000000000000000000000000000000000000000815260040160405180910390fd5b6000604051905090565b600080fd5b600080fd5b600073ffffffffffffffffffffffffffffffffffffffff82169050919050565b600061266c82612641565b9050919050565b61267c81612661565b811461268757600080fd5b50565b60008135905061269981612673565b92915050565b6000819050919050565b6126b28161269f565b81146126bd57600080fd5b50565b6000813590506126cf816126a9565b92915050565b600080604083850312156126ec576126eb612637565b5b60006126fa8582860161268a565b925050602061270b858286016126c0565b9150509250929050565b61271e8161269f565b82525050565b60006020820190506127396000830184612715565b92915050565b60008115159050919050565b6127548161273f565b811461275f57600080fd5b50565b6000813590506127718161274b565b92915050565b600080600080600060a0868803121561279357612792612637565b5b60006127a1888289016126c0565b95505060206127b28882890161268a565b94505060406127c388828901612762565b93505060606127d4888289016126c0565b92505060806127e5888289016126c0565b9150509295509295909350565b6127fb8161273f565b82525050565b600060208201905061281660008301846127f2565b92915050565b600080fd5b600080fd5b6000601f19601f8301169050919050565b7f4e487b7100000000000000000000000000000000000000000000000000000000600052604160045260246000fd5b61286f82612826565b810181811067ffffffffffffffff8211171561288e5761288d612837565b5b80604052505050565b60006128a161262d565b90506128ad8282612866565b919050565b600067ffffffffffffffff8211156128cd576128cc612837565b5b6128d682612826565b9050602081019050919050565b82818337600083830152505050565b6000612905612900846128b2565b612897565b90508281526020810184848401111561292157612920612821565b5b61292c8482856128e3565b509392505050565b600082601f8301126129495761294861281c565b5b81356129598482602086016128f2565b91505092915050565b6000806040838503121561297957612978612637565b5b60006129878582860161268a565b925050602083013567ffffffffffffffff8111156129a8576129a761263c565b5b6129b485828601612934565b9150509250929050565b6000819050919050565b6129d1816129be565b82525050565b60006020820190506129ec60008301846129c8565b92915050565b600080600060608486031215612a0b57612a0a612637565b5b6000612a198682870161268a565b9350506020612a2a868287016126c0565b9250506040612a3b868287016126c0565b9150509250925092565b600060208284031215612a5b57612a5a612637565b5b6000612a69848285016126c0565b91505092915050565b612a7b81612661565b82525050565b6000602082019050612a966000830184612a72565b92915050565b600081519050919050565b600082825260208201905092915050565b60005b83811015612ad6578082015181840152602081019050612abb565b60008484015250505050565b6000612aed82612a9c565b612af78185612aa7565b9350612b07818560208601612ab8565b612b1081612826565b840191505092915050565b60006020820190508181036000830152612b358184612ae2565b905092915050565b600080600080600060a08688031215612b5957612b58612637565b5b6000612b678882890161268a565b9550506020612b788882890161268a565b9450506040612b89888289016126c0565b9350506060612b9a888289016126c0565b9250506080612bab888289016126c0565b9150509295509295909350565b600080600060608486031215612bd157612bd0612637565b5b6000612bdf868287016126c0565b9350506020612bf0868287016126c0565b9250506040612c018682870161268a565b9150509250925092565b60008060408385031215612c2257612c21612637565b5b6000612c30858286016126c0565b9250506020612c41858286016126c0565b9150509250929050565b600060208284031215612c6157612c60612637565b5b6000612c6f8482850161268a565b91505092915050565b7f4e487b7100000000000000000000000000000000000000000000000000000000600052601160045260246000fd5b6000612cb28261269f565b9150612cbd8361269f565b9250828203905081811115612cd557612cd4612c78565b5b92915050565b6000612ce68261269f565b9150612cf18361269f565b9250828202612cff8161269f565b91508282048414831517612d1657612d15612c78565b5b5092915050565b6000612d288261269f565b9150612d338361269f565b9250828201905080821115612d4b57612d4a612c78565b5b92915050565b7f4e487b7100000000000000000000000000000000000000000000000000000000600052601260045260246000fd5b6000612d8b8261269f565b9150612d968361269f565b925082612da657612da5612d51565b5b828204905092915050565b6000819050919050565b600067ffffffffffffffff82169050919050565b6000819050919050565b6000612df4612def612dea84612db1565b612dcf565b612dbb565b9050919050565b612e0481612dd9565b82525050565b6000602082019050612e1f6000830184612dfb565b92915050565b612e2e816129be565b8114612e3957600080fd5b50565b600081519050612e4b81612e25565b92915050565b600060208284031215612e6757612e66612637565b5b6000612e7584828501612e3c565b91505092915050565b7f696e73756666696369656e74207061796d656e74000000000000000000000000600082015250565b6000612eb4601483612aa7565b9150612ebf82612e7e565b602082019050919050565b60006020820190508181036000830152612ee381612ea7565b9050919050565b600081905092915050565b50565b6000612f05600083612eea565b9150612f1082612ef5565b600082019050919050565b6000612f2682612ef8565b9150819050919050565b7f4572726f7220657865637574696e672062757900000000000000000000000000600082015250565b6000612f66601383612aa7565b9150612f7182612f30565b602082019050919050565b60006020820190508181036000830152612f9581612f59565b9050919050565b7f4572726f7220657865637574696e6720726567756c6172206275790000000000600082015250565b6000612fd2601b83612aa7565b9150612fdd82612f9c565b602082019050919050565b6000602082019050818103600083015261300181612fc5565b9050919050565b7f4572726f7220657865637574696e672073656c6c000000000000000000000000600082015250565b600061303e601483612aa7565b915061304982613008565b602082019050919050565b6000602082019050818103600083015261306d81613031565b9050919050565b600081519050919050565b600061308a82613074565b6130948185612eea565b93506130a4818560208601612ab8565b80840191505092915050565b60006130bc828461307f565b91508190509291505056fea2646970667358221220f102390c183e2d47105e8e0031151346a1f7c6507cf997d769e5ad6f2dc6466664736f6c63430008140033",
  "linkReferences": {},
  "deployedLinkReferences": {}
}