{
  "_format": "hh-sol-artifact-1",
  "contractName": "MarketMaster",
  "sourceName": "contracts/MarketMaster.sol",
  "abi": [
    {
      "inputs": [
        {
          "internalType": "address",
          "name": "target",
          "type": "address"
        }
      ],
      "name": "AddressEmptyCode",
      "type": "error"
    },
    {
      "inputs": [
        {
          "internalType": "address",
          "name": "implementation",
          "type": "address"
        }
      ],
      "name": "ERC1967InvalidImplementation",
      "type": "error"
    },
    {
      "inputs": [],
      "name": "ERC1967NonPayable",
      "type": "error"
    },
    {
      "inputs": [],
      "name": "EnforcedPause",
      "type": "error"
    },
    {
      "inputs": [],
      "name": "ExpectedPause",
      "type": "error"
    },
    {
      "inputs": [],
      "name": "FailedInnerCall",
      "type": "error"
    },
    {
      "inputs": [],
      "name": "InvalidInitialization",
      "type": "error"
    },
    {
      "inputs": [],
      "name": "NotInitializing",
      "type": "error"
    },
    {
      "inputs": [
        {
          "internalType": "address",
          "name": "owner",
          "type": "address"
        }
      ],
      "name": "OwnableInvalidOwner",
      "type": "error"
    },
    {
      "inputs": [
        {
          "internalType": "address",
          "name": "account",
          "type": "address"
        }
      ],
      "name": "OwnableUnauthorizedAccount",
      "type": "error"
    },
    {
      "inputs": [],
      "name": "UUPSUnauthorizedCallContext",
      "type": "error"
    },
    {
      "inputs": [
        {
          "internalType": "bytes32",
          "name": "slot",
          "type": "bytes32"
        }
      ],
      "name": "UUPSUnsupportedProxiableUUID",
      "type": "error"
    },
    {
      "anonymous": false,
      "inputs": [
        {
          "indexed": false,
          "internalType": "uint64",
          "name": "version",
          "type": "uint64"
        }
      ],
      "name": "Initialized",
      "type": "event"
    },
    {
      "anonymous": false,
      "inputs": [
        {
          "indexed": true,
          "internalType": "address",
          "name": "previousOwner",
          "type": "address"
        },
        {
          "indexed": true,
          "internalType": "address",
          "name": "newOwner",
          "type": "address"
        }
      ],
      "name": "OwnershipTransferred",
      "type": "event"
    },
    {
      "anonymous": false,
      "inputs": [
        {
          "indexed": false,
          "internalType": "address",
          "name": "account",
          "type": "address"
        }
      ],
      "name": "Paused",
      "type": "event"
    },
    {
      "anonymous": false,
      "inputs": [
        {
          "indexed": false,
          "internalType": "address",
          "name": "account",
          "type": "address"
        }
      ],
      "name": "Unpaused",
      "type": "event"
    },
    {
      "anonymous": false,
      "inputs": [
        {
          "indexed": true,
          "internalType": "address",
          "name": "implementation",
          "type": "address"
        }
      ],
      "name": "Upgraded",
      "type": "event"
    },
    {
      "inputs": [],
      "name": "UPGRADE_INTERFACE_VERSION",
      "outputs": [
        {
          "internalType": "string",
          "name": "",
          "type": "string"
        }
      ],
      "stateMutability": "view",
      "type": "function"
    },
    {
      "inputs": [],
      "name": "VERSION",
      "outputs": [
        {
          "internalType": "uint256",
          "name": "",
          "type": "uint256"
        }
      ],
      "stateMutability": "view",
      "type": "function"
    },
    {
      "inputs": [
        {
          "internalType": "address",
          "name": "",
          "type": "address"
        },
        {
          "internalType": "uint256",
          "name": "",
          "type": "uint256"
        }
      ],
      "name": "creator",
      "outputs": [
        {
          "internalType": "address",
          "name": "",
          "type": "address"
        }
      ],
      "stateMutability": "view",
      "type": "function"
    },
    {
      "inputs": [
        {
          "internalType": "uint256",
          "name": "_tokenId",
          "type": "uint256"
        },
        {
          "internalType": "uint256",
          "name": "_amount",
          "type": "uint256"
        }
      ],
      "name": "executeBuy",
      "outputs": [],
      "stateMutability": "payable",
      "type": "function"
    },
    {
      "inputs": [
        {
          "internalType": "uint256",
          "name": "_tokenId",
          "type": "uint256"
        },
        {
          "internalType": "uint256",
          "name": "_amount",
          "type": "uint256"
        }
      ],
      "name": "executeSell",
      "outputs": [],
      "stateMutability": "payable",
      "type": "function"
    },
    {
      "inputs": [
        {
          "internalType": "address",
          "name": "_collection",
          "type": "address"
        },
        {
          "internalType": "uint256",
          "name": "_tokenId",
          "type": "uint256"
        },
        {
          "internalType": "uint256",
          "name": "_amount",
          "type": "uint256"
        }
      ],
      "name": "getBuyPrice",
      "outputs": [
        {
          "internalType": "uint256",
          "name": "price",
          "type": "uint256"
        }
      ],
      "stateMutability": "view",
      "type": "function"
    },
    {
      "inputs": [
        {
          "internalType": "address",
          "name": "_collection",
          "type": "address"
        },
        {
          "internalType": "uint256",
          "name": "_tokenId",
          "type": "uint256"
        },
        {
          "internalType": "uint256",
          "name": "_amount",
          "type": "uint256"
        }
      ],
      "name": "getBuyPriceAfterFee",
      "outputs": [
        {
          "internalType": "uint256",
          "name": "",
          "type": "uint256"
        }
      ],
      "stateMutability": "view",
      "type": "function"
    },
    {
      "inputs": [
        {
          "internalType": "address",
          "name": "_collection",
          "type": "address"
        },
        {
          "internalType": "uint256",
          "name": "_tokenId",
          "type": "uint256"
        },
        {
          "internalType": "uint256",
          "name": "_amount",
          "type": "uint256"
        }
      ],
      "name": "getSellPrice",
      "outputs": [
        {
          "internalType": "uint256",
          "name": "price",
          "type": "uint256"
        }
      ],
      "stateMutability": "view",
      "type": "function"
    },
    {
      "inputs": [
        {
          "internalType": "address",
          "name": "_collection",
          "type": "address"
        },
        {
          "internalType": "uint256",
          "name": "_tokenId",
          "type": "uint256"
        },
        {
          "internalType": "uint256",
          "name": "_amount",
          "type": "uint256"
        }
      ],
      "name": "getSellPriceAfterFee",
      "outputs": [
        {
          "internalType": "uint256",
          "name": "",
          "type": "uint256"
        }
      ],
      "stateMutability": "view",
      "type": "function"
    },
    {
      "inputs": [
        {
          "internalType": "address",
          "name": "_collection",
          "type": "address"
        },
        {
          "internalType": "uint256",
          "name": "_tokenId",
          "type": "uint256"
        }
      ],
      "name": "getTokenSupply",
      "outputs": [
        {
          "internalType": "uint256",
          "name": "",
          "type": "uint256"
        }
      ],
      "stateMutability": "view",
      "type": "function"
    },
    {
      "inputs": [
        {
          "internalType": "address",
          "name": "_owner",
          "type": "address"
        },
        {
          "internalType": "address",
          "name": "_feeDestination",
          "type": "address"
        },
        {
          "internalType": "uint256",
          "name": "_feePercent",
          "type": "uint256"
        },
        {
          "internalType": "uint256",
          "name": "_creatorPercent",
          "type": "uint256"
        },
        {
          "internalType": "uint256",
          "name": "_basicPrice",
          "type": "uint256"
        }
      ],
      "name": "initialize",
      "outputs": [],
      "stateMutability": "nonpayable",
      "type": "function"
    },
    {
      "inputs": [
        {
          "internalType": "address",
          "name": "",
          "type": "address"
        },
        {
          "internalType": "uint256",
          "name": "",
          "type": "uint256"
        }
      ],
      "name": "isBonded",
      "outputs": [
        {
          "internalType": "bool",
          "name": "",
          "type": "bool"
        }
      ],
      "stateMutability": "view",
      "type": "function"
    },
    {
      "inputs": [
        {
          "internalType": "uint256",
          "name": "_tokenId",
          "type": "uint256"
        },
        {
          "internalType": "address",
          "name": "_creator",
          "type": "address"
        },
        {
          "internalType": "bool",
          "name": "_isBonded",
          "type": "bool"
        },
        {
          "internalType": "uint256",
          "name": "_supplyLimit",
          "type": "uint256"
        },
        {
          "internalType": "uint256",
          "name": "_tokenPrice",
          "type": "uint256"
        }
      ],
      "name": "listToken",
      "outputs": [],
      "stateMutability": "nonpayable",
      "type": "function"
    },
    {
      "inputs": [],
      "name": "owner",
      "outputs": [
        {
          "internalType": "address",
          "name": "",
          "type": "address"
        }
      ],
      "stateMutability": "view",
      "type": "function"
    },
    {
      "inputs": [],
      "name": "pause",
      "outputs": [],
      "stateMutability": "nonpayable",
      "type": "function"
    },
    {
      "inputs": [],
      "name": "paused",
      "outputs": [
        {
          "internalType": "bool",
          "name": "",
          "type": "bool"
        }
      ],
      "stateMutability": "view",
      "type": "function"
    },
    {
      "inputs": [],
      "name": "proxiableUUID",
      "outputs": [
        {
          "internalType": "bytes32",
          "name": "",
          "type": "bytes32"
        }
      ],
      "stateMutability": "view",
      "type": "function"
    },
    {
      "inputs": [],
      "name": "renounceOwnership",
      "outputs": [],
      "stateMutability": "nonpayable",
      "type": "function"
    },
    {
      "inputs": [
        {
          "internalType": "uint256",
          "name": "_feePercent",
          "type": "uint256"
        }
      ],
      "name": "setCreatorFeePercent",
      "outputs": [],
      "stateMutability": "nonpayable",
      "type": "function"
    },
    {
      "inputs": [
        {
          "internalType": "address",
          "name": "_feeDestination",
          "type": "address"
        }
      ],
      "name": "setFeeDestination",
      "outputs": [],
      "stateMutability": "nonpayable",
      "type": "function"
    },
    {
      "inputs": [
        {
          "internalType": "uint256",
          "name": "_feePercent",
          "type": "uint256"
        }
      ],
      "name": "setProtocolFeePercent",
      "outputs": [],
      "stateMutability": "nonpayable",
      "type": "function"
    },
    {
      "inputs": [
        {
          "internalType": "address",
          "name": "",
          "type": "address"
        },
        {
          "internalType": "uint256",
          "name": "",
          "type": "uint256"
        }
      ],
      "name": "supplyLimit",
      "outputs": [
        {
          "internalType": "uint256",
          "name": "",
          "type": "uint256"
        }
      ],
      "stateMutability": "view",
      "type": "function"
    },
    {
      "inputs": [
        {
          "internalType": "address",
          "name": "",
          "type": "address"
        },
        {
          "internalType": "uint256",
          "name": "",
          "type": "uint256"
        }
      ],
      "name": "tokenPrice",
      "outputs": [
        {
          "internalType": "uint256",
          "name": "",
          "type": "uint256"
        }
      ],
      "stateMutability": "view",
      "type": "function"
    },
    {
      "inputs": [
        {
          "internalType": "address",
          "name": "",
          "type": "address"
        },
        {
          "internalType": "uint256",
          "name": "",
          "type": "uint256"
        }
      ],
      "name": "tokenSupply",
      "outputs": [
        {
          "internalType": "uint256",
          "name": "",
          "type": "uint256"
        }
      ],
      "stateMutability": "view",
      "type": "function"
    },
    {
      "inputs": [
        {
          "internalType": "address",
          "name": "newOwner",
          "type": "address"
        }
      ],
      "name": "transferOwnership",
      "outputs": [],
      "stateMutability": "nonpayable",
      "type": "function"
    },
    {
      "inputs": [],
      "name": "unpause",
      "outputs": [],
      "stateMutability": "nonpayable",
      "type": "function"
    },
    {
      "inputs": [
        {
          "internalType": "address",
          "name": "newImplementation",
          "type": "address"
        },
        {
          "internalType": "bytes",
          "name": "data",
          "type": "bytes"
        }
      ],
      "name": "upgradeToAndCall",
      "outputs": [],
      "stateMutability": "payable",
      "type": "function"
    }
  ],
  "bytecode": "0x60a06040523073ffffffffffffffffffffffffffffffffffffffff1660809073ffffffffffffffffffffffffffffffffffffffff1681525034801561004357600080fd5b50608051612fc561006d60003960008181611284015281816112d901526114940152612fc56000f3fe60806040526004361061019c5760003560e01c80638da5cb5b116100ec578063d13f90b41161008a578063f2fde38b11610064578063f2fde38b146105af578063f8b5f2a8146105d8578063fbe5323414610615578063ffa1ad741461063e5761019c565b8063d13f90b41461052d578063eb111ce314610556578063f1220bbf146105725761019c565b8063a5cc5cd8116100c6578063a5cc5cd81461046c578063ad3cb1cc14610488578063c37b63bc146104b3578063c996bf00146104f05761019c565b80638da5cb5b146103db578063916c03ba14610406578063a4983421146104435761019c565b806352d1902d116101595780636d99cefe116101335780636d99cefe146103475780636ff6c4b814610384578063715018a6146103ad5780638456cb59146103c45761019c565b806352d1902d146102b45780635c975abb146102df57806367e2cafd1461030a5761019c565b8063092b12f7146101a15780630bc917c0146101de5780631683538414610207578063378c47d7146102445780633f4ba83a146102815780634f1ef28614610298575b600080fd5b3480156101ad57600080fd5b506101c860048036038101906101c391906125f0565b610669565b6040516101d5919061263f565b60405180910390f35b3480156101ea57600080fd5b5061020560048036038101906102009190612692565b61068e565b005b34801561021357600080fd5b5061022e600480360381019061022991906125f0565b6108c5565b60405161023b919061263f565b60405180910390f35b34801561025057600080fd5b5061026b600480360381019061026691906125f0565b610920565b604051610278919061271c565b60405180910390f35b34801561028d57600080fd5b5061029661094f565b005b6102b260048036038101906102ad919061287d565b610961565b005b3480156102c057600080fd5b506102c9610980565b6040516102d691906128f2565b60405180910390f35b3480156102eb57600080fd5b506102f46109b3565b604051610301919061271c565b60405180910390f35b34801561031657600080fd5b50610331600480360381019061032c91906125f0565b6109d8565b60405161033e919061263f565b60405180910390f35b34801561035357600080fd5b5061036e6004803603810190610369919061290d565b6109fd565b60405161037b919061263f565b60405180910390f35b34801561039057600080fd5b506103ab60048036038101906103a69190612960565b610a6d565b005b3480156103b957600080fd5b506103c2610a7f565b005b3480156103d057600080fd5b506103d9610a93565b005b3480156103e757600080fd5b506103f0610aa5565b6040516103fd919061299c565b60405180910390f35b34801561041257600080fd5b5061042d600480360381019061042891906125f0565b610add565b60405161043a919061263f565b60405180910390f35b34801561044f57600080fd5b5061046a60048036038101906104659190612960565b610b02565b005b610486600480360381019061048191906129b7565b610b14565b005b34801561049457600080fd5b5061049d610b9f565b6040516104aa9190612a76565b60405180910390f35b3480156104bf57600080fd5b506104da60048036038101906104d5919061290d565b610bd8565b6040516104e7919061263f565b60405180910390f35b3480156104fc57600080fd5b506105176004803603810190610512919061290d565b610d04565b604051610524919061263f565b60405180910390f35b34801561053957600080fd5b50610554600480360381019061054f9190612a98565b610d81565b005b610570600480360381019061056b91906129b7565b610f79565b005b34801561057e57600080fd5b506105996004803603810190610594919061290d565b610ff4565b6040516105a6919061263f565b60405180910390f35b3480156105bb57600080fd5b506105d660048036038101906105d19190612b13565b611071565b005b3480156105e457600080fd5b506105ff60048036038101906105fa91906125f0565b6110f7565b60405161060c919061299c565b60405180910390f35b34801561062157600080fd5b5061063c60048036038101906106379190612b13565b611139565b005b34801561064a57600080fd5b50610653611184565b604051610660919061263f565b60405180910390f35b6004602052816000526040600020602052806000526040600020600091509150505481565b82600860003373ffffffffffffffffffffffffffffffffffffffff1673ffffffffffffffffffffffffffffffffffffffff168152602001908152602001600020600087815260200190815260200160002060006101000a81548160ff02191690831515021790555083600560003373ffffffffffffffffffffffffffffffffffffffff1673ffffffffffffffffffffffffffffffffffffffff168152602001908152602001600020600087815260200190815260200160002060006101000a81548173ffffffffffffffffffffffffffffffffffffffff021916908373ffffffffffffffffffffffffffffffffffffffff1602179055506000600460003373ffffffffffffffffffffffffffffffffffffffff1673ffffffffffffffffffffffffffffffffffffffff168152602001908152602001600020600087815260200190815260200160002081905550826107e65781610808565b7fffffffffffffffffffffffffffffffffffffffffffffffffffffffffffffffff5b600660003373ffffffffffffffffffffffffffffffffffffffff1673ffffffffffffffffffffffffffffffffffffffff16815260200190815260200160002060008781526020019081526020016000208190555082610867578061086a565b60005b600760003373ffffffffffffffffffffffffffffffffffffffff1673ffffffffffffffffffffffffffffffffffffffff1681526020019081526020016000206000878152602001908152602001600020819055505050505050565b6000600460008473ffffffffffffffffffffffffffffffffffffffff1673ffffffffffffffffffffffffffffffffffffffff168152602001908152602001600020600083815260200190815260200160002054905092915050565b60086020528160005260406000206020528060005260406000206000915091509054906101000a900460ff1681565b610957611189565b61095f611210565b565b610969611282565b61097282611368565b61097c8282611373565b5050565b600061098a611492565b7f360894a13ba1a3210667c828492db98dca3e2076cc3735a920a3ca505d382bbc60001b905090565b6000806109be611519565b90508060000160009054906101000a900460ff1691505090565b6006602052816000526040600020602052806000526040600020600091509150505481565b6000610a6482600460008773ffffffffffffffffffffffffffffffffffffffff1673ffffffffffffffffffffffffffffffffffffffff168152602001908152602001600020600086815260200190815260200160002054610a5e9190612b6f565b83611541565b90509392505050565b610a75611189565b8060028190555050565b610a87611189565b610a916000611677565b565b610a9b611189565b610aa361174e565b565b600080610ab06117c0565b90508060000160009054906101000a900473ffffffffffffffffffffffffffffffffffffffff1691505090565b6007602052816000526040600020602052806000526040600020600091509150505481565b610b0a611189565b8060018190555050565b610b1c6117e8565b600860003373ffffffffffffffffffffffffffffffffffffffff1673ffffffffffffffffffffffffffffffffffffffff168152602001908152602001600020600083815260200190815260200160002060009054906101000a900460ff1615610b8f57610b8a338383611829565b610b9b565b610b9a338383611b4c565b5b5050565b6040518060400160405280600581526020017f352e302e3000000000000000000000000000000000000000000000000000000081525081565b6000600860008573ffffffffffffffffffffffffffffffffffffffff1673ffffffffffffffffffffffffffffffffffffffff168152602001908152602001600020600084815260200190815260200160002060009054906101000a900460ff1615610c9e57610c97600460008673ffffffffffffffffffffffffffffffffffffffff1673ffffffffffffffffffffffffffffffffffffffff16815260200190815260200160002060008581526020019081526020016000205483611541565b9050610cfd565b81600760008673ffffffffffffffffffffffffffffffffffffffff1673ffffffffffffffffffffffffffffffffffffffff168152602001908152602001600020600085815260200190815260200160002054610cfa9190612ba3565b90505b9392505050565b600080610d128585856109fd565b90506000670de0b6b3a764000060015483610d2d9190612ba3565b610d379190612c14565b90506000670de0b6b3a764000060025484610d529190612ba3565b610d5c9190612c14565b9050808284610d6b9190612b6f565b610d759190612b6f565b93505050509392505050565b6000610d8b611d95565b905060008160000160089054906101000a900460ff1615905060008260000160009054906101000a900467ffffffffffffffff1690506000808267ffffffffffffffff16148015610dd95750825b9050600060018367ffffffffffffffff16148015610e0e575060003073ffffffffffffffffffffffffffffffffffffffff163b145b905081158015610e1c575080155b15610e53576040517ff92ee8a900000000000000000000000000000000000000000000000000000000815260040160405180910390fd5b60018560000160006101000a81548167ffffffffffffffff021916908367ffffffffffffffff1602179055508315610ea35760018560000160086101000a81548160ff0219169083151502179055505b610eac8a611dbd565b610eb4611dd1565b610ebc611ddb565b886000806101000a81548173ffffffffffffffffffffffffffffffffffffffff021916908373ffffffffffffffffffffffffffffffffffffffff1602179055508760018190555086600281905550856003819055508315610f6d5760008560000160086101000a81548160ff0219169083151502179055507fc7f505b2f371ae2175ee4913f4499e1f2633a7b5936321eed1cdaeb6115181d26001604051610f649190612c9e565b60405180910390a15b50505050505050505050565b610f816117e8565b600860003373ffffffffffffffffffffffffffffffffffffffff1673ffffffffffffffffffffffffffffffffffffffff168152602001908152602001600020600083815260200190815260200160002060009054906101000a900460ff1615610ff057610fef338383611e0f565b5b5050565b600080611002858585610bd8565b90506000670de0b6b3a76400006001548361101d9190612ba3565b6110279190612c14565b90506000670de0b6b3a7640000600254846110429190612ba3565b61104c9190612c14565b905080828461105b9190612cb9565b6110659190612cb9565b93505050509392505050565b611079611189565b600073ffffffffffffffffffffffffffffffffffffffff168173ffffffffffffffffffffffffffffffffffffffff16036110eb5760006040517f1e4fbdf70000000000000000000000000000000000000000000000000000000081526004016110e2919061299c565b60405180910390fd5b6110f481611677565b50565b60056020528160005260406000206020528060005260406000206000915091509054906101000a900473ffffffffffffffffffffffffffffffffffffffff1681565b611141611189565b806000806101000a81548173ffffffffffffffffffffffffffffffffffffffff021916908373ffffffffffffffffffffffffffffffffffffffff16021790555050565b600181565b6111916120e4565b73ffffffffffffffffffffffffffffffffffffffff166111af610aa5565b73ffffffffffffffffffffffffffffffffffffffff161461120e576111d26120e4565b6040517f118cdaa7000000000000000000000000000000000000000000000000000000008152600401611205919061299c565b60405180910390fd5b565b6112186120ec565b6000611222611519565b905060008160000160006101000a81548160ff0219169083151502179055507f5db9ee0a495bf2e6ff9c91a7834c1ba4fdd244a5e8aa4e537bd38aeae4b073aa61126a6120e4565b604051611277919061299c565b60405180910390a150565b7f000000000000000000000000000000000000000000000000000000000000000073ffffffffffffffffffffffffffffffffffffffff163073ffffffffffffffffffffffffffffffffffffffff16148061132f57507f000000000000000000000000000000000000000000000000000000000000000073ffffffffffffffffffffffffffffffffffffffff1661131661212c565b73ffffffffffffffffffffffffffffffffffffffff1614155b15611366576040517fe07c8dba00000000000000000000000000000000000000000000000000000000815260040160405180910390fd5b565b611370611189565b50565b8173ffffffffffffffffffffffffffffffffffffffff166352d1902d6040518163ffffffff1660e01b8152600401602060405180830381865afa9250505080156113db57506040513d601f19601f820116820180604052508101906113d89190612d19565b60015b61141c57816040517f4c9c8ce3000000000000000000000000000000000000000000000000000000008152600401611413919061299c565b60405180910390fd5b7f360894a13ba1a3210667c828492db98dca3e2076cc3735a920a3ca505d382bbc60001b811461148357806040517faa1d49a400000000000000000000000000000000000000000000000000000000815260040161147a91906128f2565b60405180910390fd5b61148d8383612183565b505050565b7f000000000000000000000000000000000000000000000000000000000000000073ffffffffffffffffffffffffffffffffffffffff163073ffffffffffffffffffffffffffffffffffffffff1614611517576040517fe07c8dba00000000000000000000000000000000000000000000000000000000815260040160405180910390fd5b565b60007fcd5ed15c6e187e77e9aee88184c21f4f2182ab5827cb3b7e07fbedcd63f03300905090565b600080600084146115a35760066001808661155c9190612b6f565b60026115689190612ba3565b6115729190612cb9565b856001876115809190612b6f565b61158a9190612ba3565b6115949190612ba3565b61159e9190612c14565b6115a6565b60005b9050600080851480156115b95750600184145b6116365760066001856001886115cf9190612b6f565b6115d99190612cb9565b60026115e59190612ba3565b6115ef9190612cb9565b85876115fb9190612cb9565b866001896116099190612b6f565b6116139190612cb9565b61161d9190612ba3565b6116279190612ba3565b6116319190612c14565b611639565b60005b9050600082826116499190612b6f565b9050618ca0670de0b6b3a7640000826116629190612ba3565b61166c9190612c14565b935050505092915050565b60006116816117c0565b905060008160000160009054906101000a900473ffffffffffffffffffffffffffffffffffffffff169050828260000160006101000a81548173ffffffffffffffffffffffffffffffffffffffff021916908373ffffffffffffffffffffffffffffffffffffffff1602179055508273ffffffffffffffffffffffffffffffffffffffff168173ffffffffffffffffffffffffffffffffffffffff167f8be0079c531659141344cd1fd0a4f28419497f9722a3daafe3b4186f6b6457e060405160405180910390a3505050565b6117566117e8565b6000611760611519565b905060018160000160006101000a81548160ff0219169083151502179055507f62e78cea01bee320cd4e420270b5ea74000d11b0c9f74754ebdbfc544b05a2586117a86120e4565b6040516117b5919061299c565b60405180910390a150565b60007f9016d09d72d40fdae2fd8ceac6b6234c7706214fd39c1cd1e609a0528c199300905090565b6117f06109b3565b15611827576040517fd93c066500000000000000000000000000000000000000000000000000000000815260040160405180910390fd5b565b6000600460008573ffffffffffffffffffffffffffffffffffffffff1673ffffffffffffffffffffffffffffffffffffffff1681526020019081526020016000206000848152602001908152602001600020549050600061188a8284611541565b90506000670de0b6b3a7640000600154836118a59190612ba3565b6118af9190612c14565b90506000670de0b6b3a7640000600254846118ca9190612ba3565b6118d49190612c14565b90508082846118e39190612cb9565b6118ed9190612cb9565b34101561192f576040517f08c379a000000000000000000000000000000000000000000000000000000000815260040161192690612d92565b60405180910390fd5b848461193b9190612cb9565b600460008973ffffffffffffffffffffffffffffffffffffffff1673ffffffffffffffffffffffffffffffffffffffff16815260200190815260200160002060008881526020019081526020016000208190555060008060009054906101000a900473ffffffffffffffffffffffffffffffffffffffff1673ffffffffffffffffffffffffffffffffffffffff16836040516119d690612de3565b60006040518083038185875af1925050503d8060008114611a13576040519150601f19603f3d011682016040523d82523d6000602084013e611a18565b606091505b505090506000600560008a73ffffffffffffffffffffffffffffffffffffffff1673ffffffffffffffffffffffffffffffffffffffff168152602001908152602001600020600089815260200190815260200160002060009054906101000a900473ffffffffffffffffffffffffffffffffffffffff1673ffffffffffffffffffffffffffffffffffffffff1683604051611ab290612de3565b60006040518083038185875af1925050503d8060008114611aef576040519150601f19603f3d011682016040523d82523d6000602084013e611af4565b606091505b50509050818015611b025750805b611b41576040517f08c379a0000000000000000000000000000000000000000000000000000000008152600401611b3890612e44565b60405180910390fd5b505050505050505050565b600081600760008673ffffffffffffffffffffffffffffffffffffffff1673ffffffffffffffffffffffffffffffffffffffff168152602001908152602001600020600085815260200190815260200160002054611baa9190612ba3565b9050803411611bb857600080fd5b6000601482611bc79190612c14565b905060008183611bd79190612b6f565b905060008060009054906101000a900473ffffffffffffffffffffffffffffffffffffffff1673ffffffffffffffffffffffffffffffffffffffff1683604051611c2090612de3565b60006040518083038185875af1925050503d8060008114611c5d576040519150601f19603f3d011682016040523d82523d6000602084013e611c62565b606091505b505090506000600560008973ffffffffffffffffffffffffffffffffffffffff1673ffffffffffffffffffffffffffffffffffffffff168152602001908152602001600020600088815260200190815260200160002060009054906101000a900473ffffffffffffffffffffffffffffffffffffffff1673ffffffffffffffffffffffffffffffffffffffff1683604051611cfc90612de3565b60006040518083038185875af1925050503d8060008114611d39576040519150601f19603f3d011682016040523d82523d6000602084013e611d3e565b606091505b50509050818015611d4c5750805b611d8b576040517f08c379a0000000000000000000000000000000000000000000000000000000008152600401611d8290612eb0565b60405180910390fd5b5050505050505050565b60007ff0c57e16840df040f15088dc2f81fe391c3923bec73e23a9662efc9c229c6a00905090565b611dc56121f6565b611dce81612236565b50565b611dd96121f6565b565b611de36121f6565b6000611ded611519565b905060008160000160006101000a81548160ff02191690831515021790555050565b6000600460008573ffffffffffffffffffffffffffffffffffffffff1673ffffffffffffffffffffffffffffffffffffffff16815260200190815260200160002060008481526020019081526020016000205490506000611e7b8383611e759190612b6f565b84611541565b90506000670de0b6b3a764000060015483611e969190612ba3565b611ea09190612c14565b90506000670de0b6b3a764000060025484611ebb9190612ba3565b611ec59190612c14565b90508484611ed39190612b6f565b600460008973ffffffffffffffffffffffffffffffffffffffff1673ffffffffffffffffffffffffffffffffffffffff16815260200190815260200160002060008881526020019081526020016000208190555060008060009054906101000a900473ffffffffffffffffffffffffffffffffffffffff1673ffffffffffffffffffffffffffffffffffffffff1683604051611f6e90612de3565b60006040518083038185875af1925050503d8060008114611fab576040519150601f19603f3d011682016040523d82523d6000602084013e611fb0565b606091505b505090506000600560008a73ffffffffffffffffffffffffffffffffffffffff1673ffffffffffffffffffffffffffffffffffffffff168152602001908152602001600020600089815260200190815260200160002060009054906101000a900473ffffffffffffffffffffffffffffffffffffffff1673ffffffffffffffffffffffffffffffffffffffff168360405161204a90612de3565b60006040518083038185875af1925050503d8060008114612087576040519150601f19603f3d011682016040523d82523d6000602084013e61208c565b606091505b5050905081801561209a5750805b6120d9576040517f08c379a00000000000000000000000000000000000000000000000000000000081526004016120d090612f1c565b60405180910390fd5b505050505050505050565b600033905090565b6120f46109b3565b61212a576040517f8dfc202b00000000000000000000000000000000000000000000000000000000815260040160405180910390fd5b565b600061215a7f360894a13ba1a3210667c828492db98dca3e2076cc3735a920a3ca505d382bbc60001b6122bc565b60000160009054906101000a900473ffffffffffffffffffffffffffffffffffffffff16905090565b61218c826122c6565b8173ffffffffffffffffffffffffffffffffffffffff167fbc7cd75a20ee27fd9adebab32041f755214dbc6bffa90cc0225b39da2e5c2d3b60405160405180910390a26000815111156121e9576121e38282612393565b506121f2565b6121f1612417565b5b5050565b6121fe612454565b612234576040517fd7e6bcf800000000000000000000000000000000000000000000000000000000815260040160405180910390fd5b565b61223e6121f6565b600073ffffffffffffffffffffffffffffffffffffffff168173ffffffffffffffffffffffffffffffffffffffff16036122b05760006040517f1e4fbdf70000000000000000000000000000000000000000000000000000000081526004016122a7919061299c565b60405180910390fd5b6122b981611677565b50565b6000819050919050565b60008173ffffffffffffffffffffffffffffffffffffffff163b0361232257806040517f4c9c8ce3000000000000000000000000000000000000000000000000000000008152600401612319919061299c565b60405180910390fd5b8061234f7f360894a13ba1a3210667c828492db98dca3e2076cc3735a920a3ca505d382bbc60001b6122bc565b60000160006101000a81548173ffffffffffffffffffffffffffffffffffffffff021916908373ffffffffffffffffffffffffffffffffffffffff16021790555050565b60606000808473ffffffffffffffffffffffffffffffffffffffff16846040516123bd9190612f78565b600060405180830381855af49150503d80600081146123f8576040519150601f19603f3d011682016040523d82523d6000602084013e6123fd565b606091505b509150915061240d858383612474565b9250505092915050565b6000341115612452576040517fb398979f00000000000000000000000000000000000000000000000000000000815260040160405180910390fd5b565b600061245e611d95565b60000160089054906101000a900460ff16905090565b6060826124895761248482612503565b6124fb565b600082511480156124b1575060008473ffffffffffffffffffffffffffffffffffffffff163b145b156124f357836040517f9996b3150000000000000000000000000000000000000000000000000000000081526004016124ea919061299c565b60405180910390fd5b8190506124fc565b5b9392505050565b6000815111156125165780518082602001fd5b6040517f1425ea4200000000000000000000000000000000000000000000000000000000815260040160405180910390fd5b6000604051905090565b600080fd5b600080fd5b600073ffffffffffffffffffffffffffffffffffffffff82169050919050565b60006125878261255c565b9050919050565b6125978161257c565b81146125a257600080fd5b50565b6000813590506125b48161258e565b92915050565b6000819050919050565b6125cd816125ba565b81146125d857600080fd5b50565b6000813590506125ea816125c4565b92915050565b6000806040838503121561260757612606612552565b5b6000612615858286016125a5565b9250506020612626858286016125db565b9150509250929050565b612639816125ba565b82525050565b60006020820190506126546000830184612630565b92915050565b60008115159050919050565b61266f8161265a565b811461267a57600080fd5b50565b60008135905061268c81612666565b92915050565b600080600080600060a086880312156126ae576126ad612552565b5b60006126bc888289016125db565b95505060206126cd888289016125a5565b94505060406126de8882890161267d565b93505060606126ef888289016125db565b9250506080612700888289016125db565b9150509295509295909350565b6127168161265a565b82525050565b6000602082019050612731600083018461270d565b92915050565b600080fd5b600080fd5b6000601f19601f8301169050919050565b7f4e487b7100000000000000000000000000000000000000000000000000000000600052604160045260246000fd5b61278a82612741565b810181811067ffffffffffffffff821117156127a9576127a8612752565b5b80604052505050565b60006127bc612548565b90506127c88282612781565b919050565b600067ffffffffffffffff8211156127e8576127e7612752565b5b6127f182612741565b9050602081019050919050565b82818337600083830152505050565b600061282061281b846127cd565b6127b2565b90508281526020810184848401111561283c5761283b61273c565b5b6128478482856127fe565b509392505050565b600082601f83011261286457612863612737565b5b813561287484826020860161280d565b91505092915050565b6000806040838503121561289457612893612552565b5b60006128a2858286016125a5565b925050602083013567ffffffffffffffff8111156128c3576128c2612557565b5b6128cf8582860161284f565b9150509250929050565b6000819050919050565b6128ec816128d9565b82525050565b600060208201905061290760008301846128e3565b92915050565b60008060006060848603121561292657612925612552565b5b6000612934868287016125a5565b9350506020612945868287016125db565b9250506040612956868287016125db565b9150509250925092565b60006020828403121561297657612975612552565b5b6000612984848285016125db565b91505092915050565b6129968161257c565b82525050565b60006020820190506129b1600083018461298d565b92915050565b600080604083850312156129ce576129cd612552565b5b60006129dc858286016125db565b92505060206129ed858286016125db565b9150509250929050565b600081519050919050565b600082825260208201905092915050565b60005b83811015612a31578082015181840152602081019050612a16565b60008484015250505050565b6000612a48826129f7565b612a528185612a02565b9350612a62818560208601612a13565b612a6b81612741565b840191505092915050565b60006020820190508181036000830152612a908184612a3d565b905092915050565b600080600080600060a08688031215612ab457612ab3612552565b5b6000612ac2888289016125a5565b9550506020612ad3888289016125a5565b9450506040612ae4888289016125db565b9350506060612af5888289016125db565b9250506080612b06888289016125db565b9150509295509295909350565b600060208284031215612b2957612b28612552565b5b6000612b37848285016125a5565b91505092915050565b7f4e487b7100000000000000000000000000000000000000000000000000000000600052601160045260246000fd5b6000612b7a826125ba565b9150612b85836125ba565b9250828203905081811115612b9d57612b9c612b40565b5b92915050565b6000612bae826125ba565b9150612bb9836125ba565b9250828202612bc7816125ba565b91508282048414831517612bde57612bdd612b40565b5b5092915050565b7f4e487b7100000000000000000000000000000000000000000000000000000000600052601260045260246000fd5b6000612c1f826125ba565b9150612c2a836125ba565b925082612c3a57612c39612be5565b5b828204905092915050565b6000819050919050565b600067ffffffffffffffff82169050919050565b6000819050919050565b6000612c88612c83612c7e84612c45565b612c63565b612c4f565b9050919050565b612c9881612c6d565b82525050565b6000602082019050612cb36000830184612c8f565b92915050565b6000612cc4826125ba565b9150612ccf836125ba565b9250828201905080821115612ce757612ce6612b40565b5b92915050565b612cf6816128d9565b8114612d0157600080fd5b50565b600081519050612d1381612ced565b92915050565b600060208284031215612d2f57612d2e612552565b5b6000612d3d84828501612d04565b91505092915050565b7f696e73756666696369656e74207061796d656e74000000000000000000000000600082015250565b6000612d7c601483612a02565b9150612d8782612d46565b602082019050919050565b60006020820190508181036000830152612dab81612d6f565b9050919050565b600081905092915050565b50565b6000612dcd600083612db2565b9150612dd882612dbd565b600082019050919050565b6000612dee82612dc0565b9150819050919050565b7f4572726f7220657865637574696e672062757900000000000000000000000000600082015250565b6000612e2e601383612a02565b9150612e3982612df8565b602082019050919050565b60006020820190508181036000830152612e5d81612e21565b9050919050565b7f4572726f7220657865637574696e6720726567756c6172206275790000000000600082015250565b6000612e9a601b83612a02565b9150612ea582612e64565b602082019050919050565b60006020820190508181036000830152612ec981612e8d565b9050919050565b7f4572726f7220657865637574696e672073656c6c000000000000000000000000600082015250565b6000612f06601483612a02565b9150612f1182612ed0565b602082019050919050565b60006020820190508181036000830152612f3581612ef9565b9050919050565b600081519050919050565b6000612f5282612f3c565b612f5c8185612db2565b9350612f6c818560208601612a13565b80840191505092915050565b6000612f848284612f47565b91508190509291505056fea264697066735822122041198526167363a19192f6462209bc7ae87b04ccb9507590f1807d8fc0e2285064736f6c63430008140033",
  "linkReferences": {},
  "deployedLinkReferences": {}
}