{
  "_format": "hh-sol-artifact-1",
  "contractName": "SimpleMarketMaster",
  "sourceName": "contracts/SimpleMarketMaster.sol",
  "abi": [
    {
      "inputs": [
        {
          "internalType": "address",
          "name": "target",
          "type": "address"
        }
      ],
      "name": "AddressEmptyCode",
      "type": "error"
    },
    {
      "inputs": [
        {
          "internalType": "address",
          "name": "implementation",
          "type": "address"
        }
      ],
      "name": "ERC1967InvalidImplementation",
      "type": "error"
    },
    {
      "inputs": [],
      "name": "ERC1967NonPayable",
      "type": "error"
    },
    {
      "inputs": [],
      "name": "EnforcedPause",
      "type": "error"
    },
    {
      "inputs": [],
      "name": "ExpectedPause",
      "type": "error"
    },
    {
      "inputs": [],
      "name": "FailedInnerCall",
      "type": "error"
    },
    {
      "inputs": [],
      "name": "InvalidInitialization",
      "type": "error"
    },
    {
      "inputs": [],
      "name": "NotInitializing",
      "type": "error"
    },
    {
      "inputs": [
        {
          "internalType": "address",
          "name": "owner",
          "type": "address"
        }
      ],
      "name": "OwnableInvalidOwner",
      "type": "error"
    },
    {
      "inputs": [
        {
          "internalType": "address",
          "name": "account",
          "type": "address"
        }
      ],
      "name": "OwnableUnauthorizedAccount",
      "type": "error"
    },
    {
      "inputs": [],
      "name": "UUPSUnauthorizedCallContext",
      "type": "error"
    },
    {
      "inputs": [
        {
          "internalType": "bytes32",
          "name": "slot",
          "type": "bytes32"
        }
      ],
      "name": "UUPSUnsupportedProxiableUUID",
      "type": "error"
    },
    {
      "anonymous": false,
      "inputs": [
        {
          "indexed": false,
          "internalType": "uint64",
          "name": "version",
          "type": "uint64"
        }
      ],
      "name": "Initialized",
      "type": "event"
    },
    {
      "anonymous": false,
      "inputs": [
        {
          "indexed": true,
          "internalType": "address",
          "name": "previousOwner",
          "type": "address"
        },
        {
          "indexed": true,
          "internalType": "address",
          "name": "newOwner",
          "type": "address"
        }
      ],
      "name": "OwnershipTransferred",
      "type": "event"
    },
    {
      "anonymous": false,
      "inputs": [
        {
          "indexed": false,
          "internalType": "address",
          "name": "account",
          "type": "address"
        }
      ],
      "name": "Paused",
      "type": "event"
    },
    {
      "anonymous": false,
      "inputs": [
        {
          "indexed": false,
          "internalType": "address",
          "name": "account",
          "type": "address"
        }
      ],
      "name": "Unpaused",
      "type": "event"
    },
    {
      "anonymous": false,
      "inputs": [
        {
          "indexed": true,
          "internalType": "address",
          "name": "implementation",
          "type": "address"
        }
      ],
      "name": "Upgraded",
      "type": "event"
    },
    {
      "inputs": [],
      "name": "UPGRADE_INTERFACE_VERSION",
      "outputs": [
        {
          "internalType": "string",
          "name": "",
          "type": "string"
        }
      ],
      "stateMutability": "view",
      "type": "function"
    },
    {
      "inputs": [],
      "name": "VERSION",
      "outputs": [
        {
          "internalType": "uint256",
          "name": "",
          "type": "uint256"
        }
      ],
      "stateMutability": "view",
      "type": "function"
    },
    {
      "inputs": [
        {
          "internalType": "address",
          "name": "",
          "type": "address"
        },
        {
          "internalType": "uint256",
          "name": "",
          "type": "uint256"
        }
      ],
      "name": "creator",
      "outputs": [
        {
          "internalType": "address",
          "name": "",
          "type": "address"
        }
      ],
      "stateMutability": "view",
      "type": "function"
    },
    {
      "inputs": [
        {
          "internalType": "uint256",
          "name": "_tokenId",
          "type": "uint256"
        },
        {
          "internalType": "uint256",
          "name": "_amount",
          "type": "uint256"
        },
        {
          "internalType": "address",
          "name": "_referer",
          "type": "address"
        }
      ],
      "name": "executeBuy",
      "outputs": [],
      "stateMutability": "payable",
      "type": "function"
    },
    {
      "inputs": [],
      "name": "getBasePrice",
      "outputs": [
        {
          "internalType": "uint256",
          "name": "",
          "type": "uint256"
        }
      ],
      "stateMutability": "view",
      "type": "function"
    },
    {
      "inputs": [
        {
          "internalType": "address",
          "name": "_collection",
          "type": "address"
        },
        {
          "internalType": "uint256",
          "name": "_tokenId",
          "type": "uint256"
        },
        {
          "internalType": "uint256",
          "name": "_amount",
          "type": "uint256"
        }
      ],
      "name": "getBuyPrice",
      "outputs": [
        {
          "internalType": "uint256",
          "name": "price",
          "type": "uint256"
        }
      ],
      "stateMutability": "view",
      "type": "function"
    },
    {
      "inputs": [
        {
          "internalType": "address",
          "name": "_collection",
          "type": "address"
        },
        {
          "internalType": "uint256",
          "name": "_tokenId",
          "type": "uint256"
        },
        {
          "internalType": "uint256",
          "name": "_amount",
          "type": "uint256"
        }
      ],
      "name": "getBuyPriceAfterFee",
      "outputs": [
        {
          "internalType": "uint256",
          "name": "price",
          "type": "uint256"
        }
      ],
      "stateMutability": "view",
      "type": "function"
    },
    {
      "inputs": [
        {
          "internalType": "address",
          "name": "_collection",
          "type": "address"
        },
        {
          "internalType": "uint256",
          "name": "_tokenId",
          "type": "uint256"
        }
      ],
      "name": "getTokenSupply",
      "outputs": [
        {
          "internalType": "uint256",
          "name": "",
          "type": "uint256"
        }
      ],
      "stateMutability": "view",
      "type": "function"
    },
    {
      "inputs": [
        {
          "internalType": "address",
          "name": "_owner",
          "type": "address"
        },
        {
          "internalType": "address",
          "name": "_feeDestination",
          "type": "address"
        },
        {
          "internalType": "uint256",
          "name": "_basePrice",
          "type": "uint256"
        }
      ],
      "name": "initialize",
      "outputs": [],
      "stateMutability": "nonpayable",
      "type": "function"
    },
    {
      "inputs": [
        {
          "internalType": "address",
          "name": "",
          "type": "address"
        },
        {
          "internalType": "uint256",
          "name": "",
          "type": "uint256"
        }
      ],
      "name": "isBonded",
      "outputs": [
        {
          "internalType": "bool",
          "name": "",
          "type": "bool"
        }
      ],
      "stateMutability": "view",
      "type": "function"
    },
    {
      "inputs": [
        {
          "internalType": "uint256",
          "name": "_tokenId",
          "type": "uint256"
        },
        {
          "internalType": "address",
          "name": "_creator",
          "type": "address"
        },
        {
          "internalType": "bool",
          "name": "_isBonded",
          "type": "bool"
        },
        {
          "internalType": "uint256",
          "name": "_supplyLimit",
          "type": "uint256"
        },
        {
          "internalType": "uint256",
          "name": "_tokenPrice",
          "type": "uint256"
        }
      ],
      "name": "listToken",
      "outputs": [],
      "stateMutability": "nonpayable",
      "type": "function"
    },
    {
      "inputs": [],
      "name": "owner",
      "outputs": [
        {
          "internalType": "address",
          "name": "",
          "type": "address"
        }
      ],
      "stateMutability": "view",
      "type": "function"
    },
    {
      "inputs": [],
      "name": "pause",
      "outputs": [],
      "stateMutability": "nonpayable",
      "type": "function"
    },
    {
      "inputs": [],
      "name": "paused",
      "outputs": [
        {
          "internalType": "bool",
          "name": "",
          "type": "bool"
        }
      ],
      "stateMutability": "view",
      "type": "function"
    },
    {
      "inputs": [],
      "name": "proxiableUUID",
      "outputs": [
        {
          "internalType": "bytes32",
          "name": "",
          "type": "bytes32"
        }
      ],
      "stateMutability": "view",
      "type": "function"
    },
    {
      "inputs": [],
      "name": "renounceOwnership",
      "outputs": [],
      "stateMutability": "nonpayable",
      "type": "function"
    },
    {
      "inputs": [
        {
          "internalType": "uint256",
          "name": "newPrice",
          "type": "uint256"
        }
      ],
      "name": "setBasePrice",
      "outputs": [],
      "stateMutability": "nonpayable",
      "type": "function"
    },
    {
      "inputs": [
        {
          "internalType": "address",
          "name": "_feeDestination",
          "type": "address"
        }
      ],
      "name": "setFeeDestination",
      "outputs": [],
      "stateMutability": "nonpayable",
      "type": "function"
    },
    {
      "inputs": [
        {
          "internalType": "uint256",
          "name": "newFeePercent",
          "type": "uint256"
        }
      ],
      "name": "setSimpleFeePercent",
      "outputs": [],
      "stateMutability": "nonpayable",
      "type": "function"
    },
    {
      "inputs": [
        {
          "internalType": "address",
          "name": "",
          "type": "address"
        },
        {
          "internalType": "uint256",
          "name": "",
          "type": "uint256"
        }
      ],
      "name": "supplyLimit",
      "outputs": [
        {
          "internalType": "uint256",
          "name": "",
          "type": "uint256"
        }
      ],
      "stateMutability": "view",
      "type": "function"
    },
    {
      "inputs": [
        {
          "internalType": "address",
          "name": "",
          "type": "address"
        },
        {
          "internalType": "uint256",
          "name": "",
          "type": "uint256"
        }
      ],
      "name": "tokenPrice",
      "outputs": [
        {
          "internalType": "uint256",
          "name": "",
          "type": "uint256"
        }
      ],
      "stateMutability": "view",
      "type": "function"
    },
    {
      "inputs": [
        {
          "internalType": "address",
          "name": "",
          "type": "address"
        },
        {
          "internalType": "uint256",
          "name": "",
          "type": "uint256"
        }
      ],
      "name": "tokenSupply",
      "outputs": [
        {
          "internalType": "uint256",
          "name": "",
          "type": "uint256"
        }
      ],
      "stateMutability": "view",
      "type": "function"
    },
    {
      "inputs": [
        {
          "internalType": "address",
          "name": "newOwner",
          "type": "address"
        }
      ],
      "name": "transferOwnership",
      "outputs": [],
      "stateMutability": "nonpayable",
      "type": "function"
    },
    {
      "inputs": [],
      "name": "unpause",
      "outputs": [],
      "stateMutability": "nonpayable",
      "type": "function"
    },
    {
      "inputs": [
        {
          "internalType": "address",
          "name": "newImplementation",
          "type": "address"
        },
        {
          "internalType": "bytes",
          "name": "data",
          "type": "bytes"
        }
      ],
      "name": "upgradeToAndCall",
      "outputs": [],
      "stateMutability": "payable",
      "type": "function"
    }
  ],
  "bytecode": "0x60a06040523073ffffffffffffffffffffffffffffffffffffffff1660809073ffffffffffffffffffffffffffffffffffffffff1681525034801561004357600080fd5b506080516126fa61006d60003960008181610f7601528181610fcb015261118601526126fa6000f3fe6080604052600436106101665760003560e01c80638456cb59116100d1578063de4b32621161008a578063f2fde38b11610064578063f2fde38b1461050e578063f8b5f2a814610537578063fbe5323414610574578063ffa1ad741461059d57610166565b8063de4b32621461048c578063e8e2d37c146104b5578063f1220bbf146104d157610166565b80638456cb591461037a5780638da5cb5b14610391578063916c03ba146103bc578063ad3cb1cc146103f9578063b49f4afd14610424578063c37b63bc1461044f57610166565b80633f4ba83a116101235780633f4ba83a1461029d5780634f1ef286146102b457806352d1902d146102d05780635c975abb146102fb57806367e2cafd14610326578063715018a61461036357610166565b8063032cd7641461016b578063092b12f7146101945780630bc917c0146101d157806316835384146101fa5780631794bb3c14610237578063378c47d714610260575b600080fd5b34801561017757600080fd5b50610192600480360381019061018d9190611d48565b6105c8565b005b3480156101a057600080fd5b506101bb60048036038101906101b69190611dd3565b6105da565b6040516101c89190611e22565b60405180910390f35b3480156101dd57600080fd5b506101f860048036038101906101f39190611e75565b6105ff565b005b34801561020657600080fd5b50610221600480360381019061021c9190611dd3565b610846565b60405161022e9190611e22565b60405180910390f35b34801561024357600080fd5b5061025e60048036038101906102599190611ef0565b6108a1565b005b34801561026c57600080fd5b5061028760048036038101906102829190611dd3565b610a91565b6040516102949190611f52565b60405180910390f35b3480156102a957600080fd5b506102b2610ac0565b005b6102ce60048036038101906102c991906120b3565b610ad2565b005b3480156102dc57600080fd5b506102e5610af1565b6040516102f29190612128565b60405180910390f35b34801561030757600080fd5b50610310610b24565b60405161031d9190611f52565b60405180910390f35b34801561033257600080fd5b5061034d60048036038101906103489190611dd3565b610b49565b60405161035a9190611e22565b60405180910390f35b34801561036f57600080fd5b50610378610b6e565b005b34801561038657600080fd5b5061038f610b82565b005b34801561039d57600080fd5b506103a6610b94565b6040516103b39190612152565b60405180910390f35b3480156103c857600080fd5b506103e360048036038101906103de9190611dd3565b610bcc565b6040516103f09190611e22565b60405180910390f35b34801561040557600080fd5b5061040e610bf1565b60405161041b91906121ec565b60405180910390f35b34801561043057600080fd5b50610439610c2a565b6040516104469190611e22565b60405180910390f35b34801561045b57600080fd5b506104766004803603810190610471919061220e565b610c34565b6040516104839190611e22565b60405180910390f35b34801561049857600080fd5b506104b360048036038101906104ae9190611d48565b610ca8565b005b6104cf60048036038101906104ca9190612261565b610cba565b005b3480156104dd57600080fd5b506104f860048036038101906104f3919061220e565b610cd3565b6040516105059190611e22565b60405180910390f35b34801561051a57600080fd5b50610535600480360381019061053091906122b4565b610ce9565b005b34801561054357600080fd5b5061055e60048036038101906105599190611dd3565b610d6f565b60405161056b9190612152565b60405180910390f35b34801561058057600080fd5b5061059b600480360381019061059691906122b4565b610db1565b005b3480156105a957600080fd5b506105b2610dfc565b6040516105bf9190611e22565b60405180910390f35b6105d0610e01565b8060018190555050565b6003602052816000526040600020602052806000526040600020600091509150505481565b82600760003373ffffffffffffffffffffffffffffffffffffffff1673ffffffffffffffffffffffffffffffffffffffff168152602001908152602001600020600087815260200190815260200160002060006101000a81548160ff02191690831515021790555083600460003373ffffffffffffffffffffffffffffffffffffffff1673ffffffffffffffffffffffffffffffffffffffff168152602001908152602001600020600087815260200190815260200160002060006101000a81548173ffffffffffffffffffffffffffffffffffffffff021916908373ffffffffffffffffffffffffffffffffffffffff16021790555082610702576001610705565b60005b60ff16600360003373ffffffffffffffffffffffffffffffffffffffff1673ffffffffffffffffffffffffffffffffffffffff168152602001908152602001600020600087815260200190815260200160002081905550826107675781610789565b7fffffffffffffffffffffffffffffffffffffffffffffffffffffffffffffffff5b600560003373ffffffffffffffffffffffffffffffffffffffff1673ffffffffffffffffffffffffffffffffffffffff168152602001908152602001600020600087815260200190815260200160002081905550826107e857806107eb565b60005b600660003373ffffffffffffffffffffffffffffffffffffffff1673ffffffffffffffffffffffffffffffffffffffff1681526020019081526020016000206000878152602001908152602001600020819055505050505050565b6000600360008473ffffffffffffffffffffffffffffffffffffffff1673ffffffffffffffffffffffffffffffffffffffff168152602001908152602001600020600083815260200190815260200160002054905092915050565b60006108ab610e88565b905060008160000160089054906101000a900460ff1615905060008260000160009054906101000a900467ffffffffffffffff1690506000808267ffffffffffffffff161480156108f95750825b9050600060018367ffffffffffffffff1614801561092e575060003073ffffffffffffffffffffffffffffffffffffffff163b145b90508115801561093c575080155b15610973576040517ff92ee8a900000000000000000000000000000000000000000000000000000000815260040160405180910390fd5b60018560000160006101000a81548167ffffffffffffffff021916908367ffffffffffffffff16021790555083156109c35760018560000160086101000a81548160ff0219169083151502179055505b6109cc88610eb0565b6109d4610ec4565b6109dc610ece565b866000806101000a81548173ffffffffffffffffffffffffffffffffffffffff021916908373ffffffffffffffffffffffffffffffffffffffff160217905550600a600181905550856002819055508315610a875760008560000160086101000a81548160ff0219169083151502179055507fc7f505b2f371ae2175ee4913f4499e1f2633a7b5936321eed1cdaeb6115181d26001604051610a7e919061233a565b60405180910390a15b5050505050505050565b60076020528160005260406000206020528060005260406000206000915091509054906101000a900460ff1681565b610ac8610e01565b610ad0610f02565b565b610ada610f74565b610ae38261105a565b610aed8282611065565b5050565b6000610afb611184565b7f360894a13ba1a3210667c828492db98dca3e2076cc3735a920a3ca505d382bbc60001b905090565b600080610b2f61120b565b90508060000160009054906101000a900460ff1691505090565b6005602052816000526040600020602052806000526040600020600091509150505481565b610b76610e01565b610b806000611233565b565b610b8a610e01565b610b9261130a565b565b600080610b9f61137c565b90508060000160009054906101000a900473ffffffffffffffffffffffffffffffffffffffff1691505090565b6006602052816000526040600020602052806000526040600020600091509150505481565b6040518060400160405280600581526020017f352e302e3000000000000000000000000000000000000000000000000000000081525081565b6000600254905090565b600081600254600660008773ffffffffffffffffffffffffffffffffffffffff1673ffffffffffffffffffffffffffffffffffffffff168152602001908152602001600020600086815260200190815260200160002054610c959190612384565b610c9f91906123b8565b90509392505050565b610cb0610e01565b8060028190555050565b610cc26113a4565b610cce338285856113e5565b505050565b6000610ce0848484610c34565b90509392505050565b610cf1610e01565b600073ffffffffffffffffffffffffffffffffffffffff168173ffffffffffffffffffffffffffffffffffffffff1603610d635760006040517f1e4fbdf7000000000000000000000000000000000000000000000000000000008152600401610d5a9190612152565b60405180910390fd5b610d6c81611233565b50565b60046020528160005260406000206020528060005260406000206000915091509054906101000a900473ffffffffffffffffffffffffffffffffffffffff1681565b610db9610e01565b806000806101000a81548173ffffffffffffffffffffffffffffffffffffffff021916908373ffffffffffffffffffffffffffffffffffffffff16021790555050565b600181565b610e0961189a565b73ffffffffffffffffffffffffffffffffffffffff16610e27610b94565b73ffffffffffffffffffffffffffffffffffffffff1614610e8657610e4a61189a565b6040517f118cdaa7000000000000000000000000000000000000000000000000000000008152600401610e7d9190612152565b60405180910390fd5b565b60007ff0c57e16840df040f15088dc2f81fe391c3923bec73e23a9662efc9c229c6a00905090565b610eb86118a2565b610ec1816118e2565b50565b610ecc6118a2565b565b610ed66118a2565b6000610ee061120b565b905060008160000160006101000a81548160ff02191690831515021790555050565b610f0a611968565b6000610f1461120b565b905060008160000160006101000a81548160ff0219169083151502179055507f5db9ee0a495bf2e6ff9c91a7834c1ba4fdd244a5e8aa4e537bd38aeae4b073aa610f5c61189a565b604051610f699190612152565b60405180910390a150565b7f000000000000000000000000000000000000000000000000000000000000000073ffffffffffffffffffffffffffffffffffffffff163073ffffffffffffffffffffffffffffffffffffffff16148061102157507f000000000000000000000000000000000000000000000000000000000000000073ffffffffffffffffffffffffffffffffffffffff166110086119a8565b73ffffffffffffffffffffffffffffffffffffffff1614155b15611058576040517fe07c8dba00000000000000000000000000000000000000000000000000000000815260040160405180910390fd5b565b611062610e01565b50565b8173ffffffffffffffffffffffffffffffffffffffff166352d1902d6040518163ffffffff1660e01b8152600401602060405180830381865afa9250505080156110cd57506040513d601f19601f820116820180604052508101906110ca9190612426565b60015b61110e57816040517f4c9c8ce30000000000000000000000000000000000000000000000000000000081526004016111059190612152565b60405180910390fd5b7f360894a13ba1a3210667c828492db98dca3e2076cc3735a920a3ca505d382bbc60001b811461117557806040517faa1d49a400000000000000000000000000000000000000000000000000000000815260040161116c9190612128565b60405180910390fd5b61117f83836119ff565b505050565b7f000000000000000000000000000000000000000000000000000000000000000073ffffffffffffffffffffffffffffffffffffffff163073ffffffffffffffffffffffffffffffffffffffff1614611209576040517fe07c8dba00000000000000000000000000000000000000000000000000000000815260040160405180910390fd5b565b60007fcd5ed15c6e187e77e9aee88184c21f4f2182ab5827cb3b7e07fbedcd63f03300905090565b600061123d61137c565b905060008160000160009054906101000a900473ffffffffffffffffffffffffffffffffffffffff169050828260000160006101000a81548173ffffffffffffffffffffffffffffffffffffffff021916908373ffffffffffffffffffffffffffffffffffffffff1602179055508273ffffffffffffffffffffffffffffffffffffffff168173ffffffffffffffffffffffffffffffffffffffff167f8be0079c531659141344cd1fd0a4f28419497f9722a3daafe3b4186f6b6457e060405160405180910390a3505050565b6113126113a4565b600061131c61120b565b905060018160000160006101000a81548160ff0219169083151502179055507f62e78cea01bee320cd4e420270b5ea74000d11b0c9f74754ebdbfc544b05a25861136461189a565b6040516113719190612152565b60405180910390a150565b60007f9016d09d72d40fdae2fd8ceac6b6234c7706214fd39c1cd1e609a0528c199300905090565b6113ac610b24565b156113e3576040517fd93c066500000000000000000000000000000000000000000000000000000000815260040160405180910390fd5b565b6000600360008673ffffffffffffffffffffffffffffffffffffffff1673ffffffffffffffffffffffffffffffffffffffff16815260200190815260200160002060008481526020019081526020016000205490506000600560008773ffffffffffffffffffffffffffffffffffffffff1673ffffffffffffffffffffffffffffffffffffffff1681526020019081526020016000206000858152602001908152602001600020549050600083600254600660008a73ffffffffffffffffffffffffffffffffffffffff1673ffffffffffffffffffffffffffffffffffffffff1681526020019081526020016000206000888152602001908152602001600020546114f09190612384565b6114fa91906123b8565b90508184846115099190612384565b111561154a576040517f08c379a00000000000000000000000000000000000000000000000000000000081526004016115419061249f565b60405180910390fd5b80341161158c576040517f08c379a00000000000000000000000000000000000000000000000000000000081526004016115839061250b565b60405180910390fd5b6000600a8261159b919061255a565b905060008073ffffffffffffffffffffffffffffffffffffffff168873ffffffffffffffffffffffffffffffffffffffff16146115e457600a836115df919061255a565b6115e7565b60005b905060008183856115f8919061258b565b611602919061258b565b905086866116109190612384565b600360008c73ffffffffffffffffffffffffffffffffffffffff1673ffffffffffffffffffffffffffffffffffffffff16815260200190815260200160002060008a81526020019081526020016000208190555060008060009054906101000a900473ffffffffffffffffffffffffffffffffffffffff1673ffffffffffffffffffffffffffffffffffffffff16846040516116ab906125f0565b60006040518083038185875af1925050503d80600081146116e8576040519150601f19603f3d011682016040523d82523d6000602084013e6116ed565b606091505b505090506000600460008d73ffffffffffffffffffffffffffffffffffffffff1673ffffffffffffffffffffffffffffffffffffffff16815260200190815260200160002060008b815260200190815260200160002060009054906101000a900473ffffffffffffffffffffffffffffffffffffffff1673ffffffffffffffffffffffffffffffffffffffff1683604051611787906125f0565b60006040518083038185875af1925050503d80600081146117c4576040519150601f19603f3d011682016040523d82523d6000602084013e6117c9565b606091505b5050905060008b73ffffffffffffffffffffffffffffffffffffffff16856040516117f3906125f0565b60006040518083038185875af1925050503d8060008114611830576040519150601f19603f3d011682016040523d82523d6000602084013e611835565b606091505b505090508280156118435750815b801561184c5750805b61188b576040517f08c379a000000000000000000000000000000000000000000000000000000000815260040161188290612651565b60405180910390fd5b50505050505050505050505050565b600033905090565b6118aa611a72565b6118e0576040517fd7e6bcf800000000000000000000000000000000000000000000000000000000815260040160405180910390fd5b565b6118ea6118a2565b600073ffffffffffffffffffffffffffffffffffffffff168173ffffffffffffffffffffffffffffffffffffffff160361195c5760006040517f1e4fbdf70000000000000000000000000000000000000000000000000000000081526004016119539190612152565b60405180910390fd5b61196581611233565b50565b611970610b24565b6119a6576040517f8dfc202b00000000000000000000000000000000000000000000000000000000815260040160405180910390fd5b565b60006119d67f360894a13ba1a3210667c828492db98dca3e2076cc3735a920a3ca505d382bbc60001b611a92565b60000160009054906101000a900473ffffffffffffffffffffffffffffffffffffffff16905090565b611a0882611a9c565b8173ffffffffffffffffffffffffffffffffffffffff167fbc7cd75a20ee27fd9adebab32041f755214dbc6bffa90cc0225b39da2e5c2d3b60405160405180910390a2600081511115611a6557611a5f8282611b69565b50611a6e565b611a6d611bed565b5b5050565b6000611a7c610e88565b60000160089054906101000a900460ff16905090565b6000819050919050565b60008173ffffffffffffffffffffffffffffffffffffffff163b03611af857806040517f4c9c8ce3000000000000000000000000000000000000000000000000000000008152600401611aef9190612152565b60405180910390fd5b80611b257f360894a13ba1a3210667c828492db98dca3e2076cc3735a920a3ca505d382bbc60001b611a92565b60000160006101000a81548173ffffffffffffffffffffffffffffffffffffffff021916908373ffffffffffffffffffffffffffffffffffffffff16021790555050565b60606000808473ffffffffffffffffffffffffffffffffffffffff1684604051611b9391906126ad565b600060405180830381855af49150503d8060008114611bce576040519150601f19603f3d011682016040523d82523d6000602084013e611bd3565b606091505b5091509150611be3858383611c2a565b9250505092915050565b6000341115611c28576040517fb398979f00000000000000000000000000000000000000000000000000000000815260040160405180910390fd5b565b606082611c3f57611c3a82611cb9565b611cb1565b60008251148015611c67575060008473ffffffffffffffffffffffffffffffffffffffff163b145b15611ca957836040517f9996b315000000000000000000000000000000000000000000000000000000008152600401611ca09190612152565b60405180910390fd5b819050611cb2565b5b9392505050565b600081511115611ccc5780518082602001fd5b6040517f1425ea4200000000000000000000000000000000000000000000000000000000815260040160405180910390fd5b6000604051905090565b600080fd5b600080fd5b6000819050919050565b611d2581611d12565b8114611d3057600080fd5b50565b600081359050611d4281611d1c565b92915050565b600060208284031215611d5e57611d5d611d08565b5b6000611d6c84828501611d33565b91505092915050565b600073ffffffffffffffffffffffffffffffffffffffff82169050919050565b6000611da082611d75565b9050919050565b611db081611d95565b8114611dbb57600080fd5b50565b600081359050611dcd81611da7565b92915050565b60008060408385031215611dea57611de9611d08565b5b6000611df885828601611dbe565b9250506020611e0985828601611d33565b9150509250929050565b611e1c81611d12565b82525050565b6000602082019050611e376000830184611e13565b92915050565b60008115159050919050565b611e5281611e3d565b8114611e5d57600080fd5b50565b600081359050611e6f81611e49565b92915050565b600080600080600060a08688031215611e9157611e90611d08565b5b6000611e9f88828901611d33565b9550506020611eb088828901611dbe565b9450506040611ec188828901611e60565b9350506060611ed288828901611d33565b9250506080611ee388828901611d33565b9150509295509295909350565b600080600060608486031215611f0957611f08611d08565b5b6000611f1786828701611dbe565b9350506020611f2886828701611dbe565b9250506040611f3986828701611d33565b9150509250925092565b611f4c81611e3d565b82525050565b6000602082019050611f676000830184611f43565b92915050565b600080fd5b600080fd5b6000601f19601f8301169050919050565b7f4e487b7100000000000000000000000000000000000000000000000000000000600052604160045260246000fd5b611fc082611f77565b810181811067ffffffffffffffff82111715611fdf57611fde611f88565b5b80604052505050565b6000611ff2611cfe565b9050611ffe8282611fb7565b919050565b600067ffffffffffffffff82111561201e5761201d611f88565b5b61202782611f77565b9050602081019050919050565b82818337600083830152505050565b600061205661205184612003565b611fe8565b90508281526020810184848401111561207257612071611f72565b5b61207d848285612034565b509392505050565b600082601f83011261209a57612099611f6d565b5b81356120aa848260208601612043565b91505092915050565b600080604083850312156120ca576120c9611d08565b5b60006120d885828601611dbe565b925050602083013567ffffffffffffffff8111156120f9576120f8611d0d565b5b61210585828601612085565b9150509250929050565b6000819050919050565b6121228161210f565b82525050565b600060208201905061213d6000830184612119565b92915050565b61214c81611d95565b82525050565b60006020820190506121676000830184612143565b92915050565b600081519050919050565b600082825260208201905092915050565b60005b838110156121a757808201518184015260208101905061218c565b60008484015250505050565b60006121be8261216d565b6121c88185612178565b93506121d8818560208601612189565b6121e181611f77565b840191505092915050565b6000602082019050818103600083015261220681846121b3565b905092915050565b60008060006060848603121561222757612226611d08565b5b600061223586828701611dbe565b935050602061224686828701611d33565b925050604061225786828701611d33565b9150509250925092565b60008060006060848603121561227a57612279611d08565b5b600061228886828701611d33565b935050602061229986828701611d33565b92505060406122aa86828701611dbe565b9150509250925092565b6000602082840312156122ca576122c9611d08565b5b60006122d884828501611dbe565b91505092915050565b6000819050919050565b600067ffffffffffffffff82169050919050565b6000819050919050565b600061232461231f61231a846122e1565b6122ff565b6122eb565b9050919050565b61233481612309565b82525050565b600060208201905061234f600083018461232b565b92915050565b7f4e487b7100000000000000000000000000000000000000000000000000000000600052601160045260246000fd5b600061238f82611d12565b915061239a83611d12565b92508282019050808211156123b2576123b1612355565b5b92915050565b60006123c382611d12565b91506123ce83611d12565b92508282026123dc81611d12565b915082820484148315176123f3576123f2612355565b5b5092915050565b6124038161210f565b811461240e57600080fd5b50565b600081519050612420816123fa565b92915050565b60006020828403121561243c5761243b611d08565b5b600061244a84828501612411565b91505092915050565b7f4d617820737570706c7920726561636865640000000000000000000000000000600082015250565b6000612489601283612178565b915061249482612453565b602082019050919050565b600060208201905081810360008301526124b88161247c565b9050919050565b7f496e73756666696369656e742066756e64730000000000000000000000000000600082015250565b60006124f5601283612178565b9150612500826124bf565b602082019050919050565b60006020820190508181036000830152612524816124e8565b9050919050565b7f4e487b7100000000000000000000000000000000000000000000000000000000600052601260045260246000fd5b600061256582611d12565b915061257083611d12565b9250826125805761257f61252b565b5b828204905092915050565b600061259682611d12565b91506125a183611d12565b92508282039050818111156125b9576125b8612355565b5b92915050565b600081905092915050565b50565b60006125da6000836125bf565b91506125e5826125ca565b600082019050919050565b60006125fb826125cd565b9150819050919050565b7f4572726f7220657865637574696e6720726567756c6172206275790000000000600082015250565b600061263b601b83612178565b915061264682612605565b602082019050919050565b6000602082019050818103600083015261266a8161262e565b9050919050565b600081519050919050565b600061268782612671565b61269181856125bf565b93506126a1818560208601612189565b80840191505092915050565b60006126b9828461267c565b91508190509291505056fea2646970667358221220fefebe9e304d562f305c70b62d75894ce3033bfef868e89f0ef84d0de58b578364736f6c63430008140033",
  "linkReferences": {},
  "deployedLinkReferences": {}
}