{
  "_format": "hh-sol-artifact-1",
  "contractName": "CollectionRegistry",
  "sourceName": "contracts/collections/CollectionRegistry.sol",
  "abi": [
    {
      "inputs": [
        {
          "internalType": "address",
          "name": "target",
          "type": "address"
        }
      ],
      "name": "AddressEmptyCode",
      "type": "error"
    },
    {
      "inputs": [
        {
          "internalType": "address",
          "name": "sender",
          "type": "address"
        },
        {
          "internalType": "uint256",
          "name": "balance",
          "type": "uint256"
        },
        {
          "internalType": "uint256",
          "name": "needed",
          "type": "uint256"
        },
        {
          "internalType": "uint256",
          "name": "tokenId",
          "type": "uint256"
        }
      ],
      "name": "ERC1155InsufficientBalance",
      "type": "error"
    },
    {
      "inputs": [
        {
          "internalType": "address",
          "name": "approver",
          "type": "address"
        }
      ],
      "name": "ERC1155InvalidApprover",
      "type": "error"
    },
    {
      "inputs": [
        {
          "internalType": "uint256",
          "name": "idsLength",
          "type": "uint256"
        },
        {
          "internalType": "uint256",
          "name": "valuesLength",
          "type": "uint256"
        }
      ],
      "name": "ERC1155InvalidArrayLength",
      "type": "error"
    },
    {
      "inputs": [
        {
          "internalType": "address",
          "name": "operator",
          "type": "address"
        }
      ],
      "name": "ERC1155InvalidOperator",
      "type": "error"
    },
    {
      "inputs": [
        {
          "internalType": "address",
          "name": "receiver",
          "type": "address"
        }
      ],
      "name": "ERC1155InvalidReceiver",
      "type": "error"
    },
    {
      "inputs": [
        {
          "internalType": "address",
          "name": "sender",
          "type": "address"
        }
      ],
      "name": "ERC1155InvalidSender",
      "type": "error"
    },
    {
      "inputs": [
        {
          "internalType": "address",
          "name": "operator",
          "type": "address"
        },
        {
          "internalType": "address",
          "name": "owner",
          "type": "address"
        }
      ],
      "name": "ERC1155MissingApprovalForAll",
      "type": "error"
    },
    {
      "inputs": [
        {
          "internalType": "address",
          "name": "implementation",
          "type": "address"
        }
      ],
      "name": "ERC1967InvalidImplementation",
      "type": "error"
    },
    {
      "inputs": [],
      "name": "ERC1967NonPayable",
      "type": "error"
    },
    {
      "inputs": [],
      "name": "EnforcedPause",
      "type": "error"
    },
    {
      "inputs": [],
      "name": "ExpectedPause",
      "type": "error"
    },
    {
      "inputs": [],
      "name": "FailedInnerCall",
      "type": "error"
    },
    {
      "inputs": [],
      "name": "InvalidInitialization",
      "type": "error"
    },
    {
      "inputs": [],
      "name": "NotInitializing",
      "type": "error"
    },
    {
      "inputs": [
        {
          "internalType": "address",
          "name": "owner",
          "type": "address"
        }
      ],
      "name": "OwnableInvalidOwner",
      "type": "error"
    },
    {
      "inputs": [
        {
          "internalType": "address",
          "name": "account",
          "type": "address"
        }
      ],
      "name": "OwnableUnauthorizedAccount",
      "type": "error"
    },
    {
      "inputs": [],
      "name": "UUPSUnauthorizedCallContext",
      "type": "error"
    },
    {
      "inputs": [
        {
          "internalType": "bytes32",
          "name": "slot",
          "type": "bytes32"
        }
      ],
      "name": "UUPSUnsupportedProxiableUUID",
      "type": "error"
    },
    {
      "anonymous": false,
      "inputs": [
        {
          "indexed": true,
          "internalType": "address",
          "name": "account",
          "type": "address"
        },
        {
          "indexed": true,
          "internalType": "address",
          "name": "operator",
          "type": "address"
        },
        {
          "indexed": false,
          "internalType": "bool",
          "name": "approved",
          "type": "bool"
        }
      ],
      "name": "ApprovalForAll",
      "type": "event"
    },
    {
      "anonymous": false,
      "inputs": [
        {
          "indexed": false,
          "internalType": "uint64",
          "name": "version",
          "type": "uint64"
        }
      ],
      "name": "Initialized",
      "type": "event"
    },
    {
      "anonymous": false,
      "inputs": [
        {
          "indexed": false,
          "internalType": "address",
          "name": "account",
          "type": "address"
        },
        {
          "indexed": false,
          "internalType": "uint256",
          "name": "id",
          "type": "uint256"
        },
        {
          "indexed": false,
          "internalType": "address",
          "name": "contractAddress",
          "type": "address"
        }
      ],
      "name": "NewVersoCollected",
      "type": "event"
    },
    {
      "anonymous": false,
      "inputs": [
        {
          "indexed": false,
          "internalType": "address",
          "name": "account",
          "type": "address"
        },
        {
          "indexed": false,
          "internalType": "uint256",
          "name": "id",
          "type": "uint256"
        },
        {
          "indexed": false,
          "internalType": "string",
          "name": "metadataURI",
          "type": "string"
        }
      ],
      "name": "NewVersoCreated",
      "type": "event"
    },
    {
      "anonymous": false,
      "inputs": [
        {
          "indexed": true,
          "internalType": "address",
          "name": "previousOwner",
          "type": "address"
        },
        {
          "indexed": true,
          "internalType": "address",
          "name": "newOwner",
          "type": "address"
        }
      ],
      "name": "OwnershipTransferred",
      "type": "event"
    },
    {
      "anonymous": false,
      "inputs": [
        {
          "indexed": false,
          "internalType": "address",
          "name": "account",
          "type": "address"
        }
      ],
      "name": "Paused",
      "type": "event"
    },
    {
      "anonymous": false,
      "inputs": [
        {
          "indexed": true,
          "internalType": "address",
          "name": "operator",
          "type": "address"
        },
        {
          "indexed": true,
          "internalType": "address",
          "name": "from",
          "type": "address"
        },
        {
          "indexed": true,
          "internalType": "address",
          "name": "to",
          "type": "address"
        },
        {
          "indexed": false,
          "internalType": "uint256[]",
          "name": "ids",
          "type": "uint256[]"
        },
        {
          "indexed": false,
          "internalType": "uint256[]",
          "name": "values",
          "type": "uint256[]"
        }
      ],
      "name": "TransferBatch",
      "type": "event"
    },
    {
      "anonymous": false,
      "inputs": [
        {
          "indexed": true,
          "internalType": "address",
          "name": "operator",
          "type": "address"
        },
        {
          "indexed": true,
          "internalType": "address",
          "name": "from",
          "type": "address"
        },
        {
          "indexed": true,
          "internalType": "address",
          "name": "to",
          "type": "address"
        },
        {
          "indexed": false,
          "internalType": "uint256",
          "name": "id",
          "type": "uint256"
        },
        {
          "indexed": false,
          "internalType": "uint256",
          "name": "value",
          "type": "uint256"
        }
      ],
      "name": "TransferSingle",
      "type": "event"
    },
    {
      "anonymous": false,
      "inputs": [
        {
          "indexed": false,
          "internalType": "string",
          "name": "value",
          "type": "string"
        },
        {
          "indexed": true,
          "internalType": "uint256",
          "name": "id",
          "type": "uint256"
        }
      ],
      "name": "URI",
      "type": "event"
    },
    {
      "anonymous": false,
      "inputs": [
        {
          "indexed": false,
          "internalType": "address",
          "name": "account",
          "type": "address"
        }
      ],
      "name": "Unpaused",
      "type": "event"
    },
    {
      "anonymous": false,
      "inputs": [
        {
          "indexed": true,
          "internalType": "address",
          "name": "implementation",
          "type": "address"
        }
      ],
      "name": "Upgraded",
      "type": "event"
    },
    {
      "anonymous": false,
      "inputs": [
        {
          "indexed": false,
          "internalType": "address",
          "name": "moderator",
          "type": "address"
        },
        {
          "indexed": false,
          "internalType": "address",
          "name": "collection",
          "type": "address"
        },
        {
          "indexed": false,
          "internalType": "uint256",
          "name": "tokenId",
          "type": "uint256"
        }
      ],
      "name": "VersoDeleted",
      "type": "event"
    },
    {
      "inputs": [],
      "name": "UPGRADE_INTERFACE_VERSION",
      "outputs": [
        {
          "internalType": "string",
          "name": "",
          "type": "string"
        }
      ],
      "stateMutability": "view",
      "type": "function"
    },
    {
      "inputs": [
        {
          "internalType": "address",
          "name": "",
          "type": "address"
        }
      ],
      "name": "addressToTokenID",
      "outputs": [
        {
          "internalType": "uint256",
          "name": "",
          "type": "uint256"
        }
      ],
      "stateMutability": "view",
      "type": "function"
    },
    {
      "inputs": [
        {
          "internalType": "address",
          "name": "account",
          "type": "address"
        },
        {
          "internalType": "uint256",
          "name": "id",
          "type": "uint256"
        }
      ],
      "name": "balanceOf",
      "outputs": [
        {
          "internalType": "uint256",
          "name": "",
          "type": "uint256"
        }
      ],
      "stateMutability": "view",
      "type": "function"
    },
    {
      "inputs": [
        {
          "internalType": "address[]",
          "name": "accounts",
          "type": "address[]"
        },
        {
          "internalType": "uint256[]",
          "name": "ids",
          "type": "uint256[]"
        }
      ],
      "name": "balanceOfBatch",
      "outputs": [
        {
          "internalType": "uint256[]",
          "name": "",
          "type": "uint256[]"
        }
      ],
      "stateMutability": "view",
      "type": "function"
    },
    {
      "inputs": [
        {
          "internalType": "address",
          "name": "collectionAddress",
          "type": "address"
        },
        {
          "internalType": "uint256",
          "name": "amount",
          "type": "uint256"
        }
      ],
      "name": "burn",
      "outputs": [],
      "stateMutability": "nonpayable",
      "type": "function"
    },
    {
      "inputs": [
        {
          "internalType": "address",
          "name": "collectionAddress",
          "type": "address"
        },
        {
          "internalType": "address",
          "name": "receipient",
          "type": "address"
        }
      ],
      "name": "collect",
      "outputs": [
        {
          "internalType": "string",
          "name": "",
          "type": "string"
        }
      ],
      "stateMutability": "payable",
      "type": "function"
    },
    {
      "inputs": [
        {
          "internalType": "uint256",
          "name": "",
          "type": "uint256"
        }
      ],
      "name": "collectionAddresses",
      "outputs": [
        {
          "internalType": "address",
          "name": "",
          "type": "address"
        }
      ],
      "stateMutability": "view",
      "type": "function"
    },
    {
      "inputs": [
        {
          "internalType": "address",
          "name": "_owner",
          "type": "address"
        },
        {
          "internalType": "address",
          "name": "_factoryAddress",
          "type": "address"
        }
      ],
      "name": "initialize",
      "outputs": [],
      "stateMutability": "nonpayable",
      "type": "function"
    },
    {
      "inputs": [
        {
          "internalType": "address",
          "name": "account",
          "type": "address"
        },
        {
          "internalType": "address",
          "name": "operator",
          "type": "address"
        }
      ],
      "name": "isApprovedForAll",
      "outputs": [
        {
          "internalType": "bool",
          "name": "",
          "type": "bool"
        }
      ],
      "stateMutability": "view",
      "type": "function"
    },
    {
      "inputs": [
        {
          "internalType": "address",
          "name": "collectionAddress",
          "type": "address"
        },
        {
          "internalType": "address",
          "name": "marketAddress",
          "type": "address"
        },
        {
          "internalType": "address",
          "name": "feeReceiver",
          "type": "address"
        },
        {
          "internalType": "uint256",
          "name": "_supplyLimit",
          "type": "uint256"
        },
        {
          "internalType": "uint256",
          "name": "_tokenPrice",
          "type": "uint256"
        },
        {
          "internalType": "bool",
          "name": "_isBonded",
          "type": "bool"
        }
      ],
      "name": "listCollection",
      "outputs": [],
      "stateMutability": "nonpayable",
      "type": "function"
    },
    {
      "inputs": [
        {
          "internalType": "uint256",
          "name": "",
          "type": "uint256"
        }
      ],
      "name": "marketAddresses",
      "outputs": [
        {
          "internalType": "address",
          "name": "",
          "type": "address"
        }
      ],
      "stateMutability": "view",
      "type": "function"
    },
    {
      "inputs": [],
      "name": "name",
      "outputs": [
        {
          "internalType": "string",
          "name": "",
          "type": "string"
        }
      ],
      "stateMutability": "pure",
      "type": "function"
    },
    {
      "inputs": [],
      "name": "owner",
      "outputs": [
        {
          "internalType": "address",
          "name": "",
          "type": "address"
        }
      ],
      "stateMutability": "view",
      "type": "function"
    },
    {
      "inputs": [],
      "name": "pause",
      "outputs": [],
      "stateMutability": "nonpayable",
      "type": "function"
    },
    {
      "inputs": [],
      "name": "paused",
      "outputs": [
        {
          "internalType": "bool",
          "name": "",
          "type": "bool"
        }
      ],
      "stateMutability": "view",
      "type": "function"
    },
    {
      "inputs": [],
      "name": "proxiableUUID",
      "outputs": [
        {
          "internalType": "bytes32",
          "name": "",
          "type": "bytes32"
        }
      ],
      "stateMutability": "view",
      "type": "function"
    },
    {
      "inputs": [
        {
          "internalType": "address",
          "name": "_creator",
          "type": "address"
        },
        {
          "internalType": "address",
          "name": "_collectionAddress",
          "type": "address"
        },
        {
          "internalType": "string",
          "name": "_collectionMetadataUri",
          "type": "string"
        },
        {
          "internalType": "address",
          "name": "_permissions",
          "type": "address"
        }
      ],
      "name": "registerCollection",
      "outputs": [],
      "stateMutability": "nonpayable",
      "type": "function"
    },
    {
      "inputs": [],
      "name": "renounceOwnership",
      "outputs": [],
      "stateMutability": "nonpayable",
      "type": "function"
    },
    {
      "inputs": [
        {
          "internalType": "address",
          "name": "from",
          "type": "address"
        },
        {
          "internalType": "address",
          "name": "to",
          "type": "address"
        },
        {
          "internalType": "uint256[]",
          "name": "ids",
          "type": "uint256[]"
        },
        {
          "internalType": "uint256[]",
          "name": "values",
          "type": "uint256[]"
        },
        {
          "internalType": "bytes",
          "name": "data",
          "type": "bytes"
        }
      ],
      "name": "safeBatchTransferFrom",
      "outputs": [],
      "stateMutability": "nonpayable",
      "type": "function"
    },
    {
      "inputs": [
        {
          "internalType": "address",
          "name": "from",
          "type": "address"
        },
        {
          "internalType": "address",
          "name": "to",
          "type": "address"
        },
        {
          "internalType": "uint256",
          "name": "id",
          "type": "uint256"
        },
        {
          "internalType": "uint256",
          "name": "value",
          "type": "uint256"
        },
        {
          "internalType": "bytes",
          "name": "data",
          "type": "bytes"
        }
      ],
      "name": "safeTransferFrom",
      "outputs": [],
      "stateMutability": "nonpayable",
      "type": "function"
    },
    {
      "inputs": [
        {
          "internalType": "address",
          "name": "operator",
          "type": "address"
        },
        {
          "internalType": "bool",
          "name": "approved",
          "type": "bool"
        }
      ],
      "name": "setApprovalForAll",
      "outputs": [],
      "stateMutability": "nonpayable",
      "type": "function"
    },
    {
      "inputs": [
        {
          "internalType": "address",
          "name": "_newFactoryAddress",
          "type": "address"
        }
      ],
      "name": "setFactoryAddress",
      "outputs": [],
      "stateMutability": "nonpayable",
      "type": "function"
    },
    {
      "inputs": [
        {
          "internalType": "bytes4",
          "name": "interfaceId",
          "type": "bytes4"
        }
      ],
      "name": "supportsInterface",
      "outputs": [
        {
          "internalType": "bool",
          "name": "",
          "type": "bool"
        }
      ],
      "stateMutability": "view",
      "type": "function"
    },
    {
      "inputs": [],
      "name": "symbol",
      "outputs": [
        {
          "internalType": "string",
          "name": "",
          "type": "string"
        }
      ],
      "stateMutability": "pure",
      "type": "function"
    },
    {
      "inputs": [
        {
          "internalType": "uint256",
          "name": "",
          "type": "uint256"
        }
      ],
      "name": "tokenPermissions",
      "outputs": [
        {
          "internalType": "address",
          "name": "",
          "type": "address"
        }
      ],
      "stateMutability": "view",
      "type": "function"
    },
    {
      "inputs": [
        {
          "internalType": "uint256",
          "name": "",
          "type": "uint256"
        }
      ],
      "name": "tokenSupply",
      "outputs": [
        {
          "internalType": "uint256",
          "name": "",
          "type": "uint256"
        }
      ],
      "stateMutability": "view",
      "type": "function"
    },
    {
      "inputs": [
        {
          "internalType": "address",
          "name": "newOwner",
          "type": "address"
        }
      ],
      "name": "transferOwnership",
      "outputs": [],
      "stateMutability": "nonpayable",
      "type": "function"
    },
    {
      "inputs": [],
      "name": "unpause",
      "outputs": [],
      "stateMutability": "nonpayable",
      "type": "function"
    },
    {
      "inputs": [
        {
          "internalType": "address",
          "name": "collectionAddress",
          "type": "address"
        },
        {
          "internalType": "string",
          "name": "collectionMetadataUri",
          "type": "string"
        }
      ],
      "name": "updateCollectionMetadata",
      "outputs": [],
      "stateMutability": "nonpayable",
      "type": "function"
    },
    {
      "inputs": [
        {
          "internalType": "address",
          "name": "newImplementation",
          "type": "address"
        },
        {
          "internalType": "bytes",
          "name": "data",
          "type": "bytes"
        }
      ],
      "name": "upgradeToAndCall",
      "outputs": [],
      "stateMutability": "payable",
      "type": "function"
    },
    {
      "inputs": [
        {
          "internalType": "uint256",
          "name": "tokenID",
          "type": "uint256"
        }
      ],
      "name": "uri",
      "outputs": [
        {
          "internalType": "string",
          "name": "",
          "type": "string"
        }
      ],
      "stateMutability": "view",
      "type": "function"
    }
  ],
  "bytecode": "0x60a06040523073ffffffffffffffffffffffffffffffffffffffff1660809073ffffffffffffffffffffffffffffffffffffffff1681525034801561004357600080fd5b5060805161512161006d6000396000818161232c01528181612381015261253c01526151216000f3fe6080604052600436106101d75760003560e01c80637d8ef53011610102578063abae977f11610095578063c345a5ac11610064578063c345a5ac146106b3578063e985e9c5146106dc578063f242432a14610719578063f2fde38b14610742576101d7565b8063abae977f146105d1578063ad3cb1cc1461060e578063adde18b014610639578063b31985c214610676576101d7565b806395d89b41116100d157806395d89b41146105245780639dc29fac1461054f578063a12ef25e14610578578063a22cb465146105a8576101d7565b80637d8ef5301461049057806383c17c55146104b95780638456cb59146104e25780638da5cb5b146104f9576101d7565b80633f4ba83a1161017a57806352d1902d1161014957806352d1902d146103fa5780635c975abb14610425578063715018a614610450578063727ccbf314610467576101d7565b80633f4ba83a14610361578063485cc955146103785780634e1273f4146103a15780634f1ef286146103de576101d7565b80630e89341c116101b65780630e89341c146102815780632693ebf2146102be5780632eb2c2d6146102fb578063350293a114610324576101d7565b8062fdd58e146101dc57806301ffc9a71461021957806306fdde0314610256575b600080fd5b3480156101e857600080fd5b5061020360048036038101906101fe9190613a66565b61076b565b6040516102109190613ab5565b60405180910390f35b34801561022557600080fd5b50610240600480360381019061023b9190613b28565b6107d4565b60405161024d9190613b70565b60405180910390f35b34801561026257600080fd5b5061026b6107e6565b6040516102789190613c1b565b60405180910390f35b34801561028d57600080fd5b506102a860048036038101906102a39190613c3d565b610823565b6040516102b59190613c1b565b60405180910390f35b3480156102ca57600080fd5b506102e560048036038101906102e09190613c3d565b6108c8565b6040516102f29190613ab5565b60405180910390f35b34801561030757600080fd5b50610322600480360381019061031d9190613e67565b6108e0565b005b34801561033057600080fd5b5061034b60048036038101906103469190613c3d565b610988565b6040516103589190613f45565b60405180910390f35b34801561036d57600080fd5b506103766109bb565b005b34801561038457600080fd5b5061039f600480360381019061039a9190613f60565b6109cd565b005b3480156103ad57600080fd5b506103c860048036038101906103c39190614063565b610bbe565b6040516103d59190614199565b60405180910390f35b6103f860048036038101906103f391906141bb565b610ccd565b005b34801561040657600080fd5b5061040f610cec565b60405161041c9190614230565b60405180910390f35b34801561043157600080fd5b5061043a610d1f565b6040516104479190613b70565b60405180910390f35b34801561045c57600080fd5b50610465610d44565b005b34801561047357600080fd5b5061048e600480360381019061048991906142a6565b610d58565b005b34801561049c57600080fd5b506104b760048036038101906104b2919061435a565b61102a565b005b3480156104c557600080fd5b506104e060048036038101906104db91906143e7565b611348565b005b3480156104ee57600080fd5b506104f7611394565b005b34801561050557600080fd5b5061050e6113a6565b60405161051b9190613f45565b60405180910390f35b34801561053057600080fd5b506105396113de565b6040516105469190613c1b565b60405180910390f35b34801561055b57600080fd5b5061057660048036038101906105719190613a66565b61141b565b005b610592600480360381019061058d9190613f60565b61164d565b60405161059f9190613c1b565b60405180910390f35b3480156105b457600080fd5b506105cf60048036038101906105ca9190614414565b611a41565b005b3480156105dd57600080fd5b506105f860048036038101906105f39190613c3d565b611a57565b6040516106059190613f45565b60405180910390f35b34801561061a57600080fd5b50610623611a8a565b6040516106309190613c1b565b60405180910390f35b34801561064557600080fd5b50610660600480360381019061065b91906143e7565b611ac3565b60405161066d9190613ab5565b60405180910390f35b34801561068257600080fd5b5061069d60048036038101906106989190613c3d565b611adb565b6040516106aa9190613f45565b60405180910390f35b3480156106bf57600080fd5b506106da60048036038101906106d59190614454565b611b0e565b005b3480156106e857600080fd5b5061070360048036038101906106fe9190613f60565b611dab565b6040516107109190613b70565b60405180910390f35b34801561072557600080fd5b50610740600480360381019061073b91906144b4565b611e4d565b005b34801561074e57600080fd5b50610769600480360381019061076491906143e7565b611ef5565b005b600080610776611f7b565b905080600001600084815260200190815260200160002060008573ffffffffffffffffffffffffffffffffffffffff1673ffffffffffffffffffffffffffffffffffffffff1681526020019081526020016000205491505092915050565b60006107df82611fa3565b9050919050565b60606040518060400160405280601a81526020017f566572736f20436f6c6c656374696f6e73205265676973747279000000000000815250905090565b60606004600083815260200190815260200160002080546108439061457a565b80601f016020809104026020016040519081016040528092919081815260200182805461086f9061457a565b80156108bc5780601f10610891576101008083540402835291602001916108bc565b820191906000526020600020905b81548152906001019060200180831161089f57829003601f168201915b50505050509050919050565b60056020528060005260406000206000915090505481565b60006108ea612085565b90508073ffffffffffffffffffffffffffffffffffffffff168673ffffffffffffffffffffffffffffffffffffffff161415801561092f575061092d8682611dab565b155b156109735780866040517fe237d92200000000000000000000000000000000000000000000000000000000815260040161096a9291906145ab565b60405180910390fd5b610980868686868661208d565b505050505050565b60076020528060005260406000206000915054906101000a900473ffffffffffffffffffffffffffffffffffffffff1681565b6109c3612185565b6109cb61220c565b565b60006109d761227e565b905060008160000160089054906101000a900460ff1615905060008260000160009054906101000a900467ffffffffffffffff1690506000808267ffffffffffffffff16148015610a255750825b9050600060018367ffffffffffffffff16148015610a5a575060003073ffffffffffffffffffffffffffffffffffffffff163b145b905081158015610a68575080155b15610a9f576040517ff92ee8a900000000000000000000000000000000000000000000000000000000815260040160405180910390fd5b60018560000160006101000a81548167ffffffffffffffff021916908367ffffffffffffffff1602179055508315610aef5760018560000160086101000a81548160ff0219169083151502179055505b610af8876122a6565b610b10604051806020016040528060008152506122ba565b610b186122ce565b85600160006101000a81548173ffffffffffffffffffffffffffffffffffffffff021916908373ffffffffffffffffffffffffffffffffffffffff1602179055508315610bb55760008560000160086101000a81548160ff0219169083151502179055507fc7f505b2f371ae2175ee4913f4499e1f2633a7b5936321eed1cdaeb6115181d26001604051610bac919061462d565b60405180910390a15b50505050505050565b60608151835114610c0a57815183516040517f5b059991000000000000000000000000000000000000000000000000000000008152600401610c01929190614648565b60405180910390fd5b6000835167ffffffffffffffff811115610c2757610c26613c6f565b5b604051908082528060200260200182016040528015610c555781602001602082028036833780820191505090505b50905060005b8451811015610cc257610c92610c7a828761230290919063ffffffff16565b610c8d838761231690919063ffffffff16565b61076b565b828281518110610ca557610ca4614671565b5b60200260200101818152505080610cbb906146cf565b9050610c5b565b508091505092915050565b610cd561232a565b610cde82612410565b610ce8828261241b565b5050565b6000610cf661253a565b7f360894a13ba1a3210667c828492db98dca3e2076cc3735a920a3ca505d382bbc60001b905090565b600080610d2a6125c1565b90508060000160009054906101000a900460ff1691505090565b610d4c612185565b610d5660006125e9565b565b610d606126c0565b600160009054906101000a900473ffffffffffffffffffffffffffffffffffffffff1673ffffffffffffffffffffffffffffffffffffffff163373ffffffffffffffffffffffffffffffffffffffff161480610dee5750610dbf6113a6565b73ffffffffffffffffffffffffffffffffffffffff163373ffffffffffffffffffffffffffffffffffffffff16145b610e2d576040517f08c379a0000000000000000000000000000000000000000000000000000000008152600401610e2490614763565b60405180910390fd5b600080815480929190610e3f906146cf565b9190505550600080549050816006600083815260200190815260200160002060006101000a81548173ffffffffffffffffffffffffffffffffffffffff021916908373ffffffffffffffffffffffffffffffffffffffff160217905550846003600083815260200190815260200160002060006101000a81548173ffffffffffffffffffffffffffffffffffffffff021916908373ffffffffffffffffffffffffffffffffffffffff16021790555080600260008773ffffffffffffffffffffffffffffffffffffffff1673ffffffffffffffffffffffffffffffffffffffff16815260200190815260200160002081905550610f4e8682600160405180602001604052806000815250612701565b610f9c8185858080601f016020809104026020016040519081016040528093929190818152602001838380828437600081840152601f19601f8201169050808301925050505050505061279a565b610fea8185858080601f016020809104026020016040519081016040528093929190818152602001838380828437600081840152601f19601f820116905080830192505050505050506127bf565b506001600560008381526020019081526020016000205461100b9190614783565b6005600083815260200190815260200160002081905550505050505050565b6110326126c0565b600160009054906101000a900473ffffffffffffffffffffffffffffffffffffffff1673ffffffffffffffffffffffffffffffffffffffff163373ffffffffffffffffffffffffffffffffffffffff1614806110c057506110916113a6565b73ffffffffffffffffffffffffffffffffffffffff163373ffffffffffffffffffffffffffffffffffffffff16145b6110ff576040517f08c379a00000000000000000000000000000000000000000000000000000000081526004016110f690614763565b60405180910390fd5b60008690508073ffffffffffffffffffffffffffffffffffffffff166391d148547f44a854cabd360644e908fcd642b33fedfb60c399d7b1e7e2051275f0b09b0be5336040518363ffffffff1660e01b815260040161115f9291906147b7565b602060405180830381865afa15801561117c573d6000803e3d6000fd5b505050506040513d601f19601f820116820180604052508101906111a091906147f5565b6111df576040517f08c379a00000000000000000000000000000000000000000000000000000000081526004016111d69061486e565b60405180910390fd5b6000600260008973ffffffffffffffffffffffffffffffffffffffff1673ffffffffffffffffffffffffffffffffffffffff168152602001908152602001600020549050600073ffffffffffffffffffffffffffffffffffffffff166007600083815260200190815260200160002060009054906101000a900473ffffffffffffffffffffffffffffffffffffffff1673ffffffffffffffffffffffffffffffffffffffff16146112c5576040517f08c379a00000000000000000000000000000000000000000000000000000000081526004016112bc906148da565b60405180910390fd5b60008790508073ffffffffffffffffffffffffffffffffffffffff16630bc917c08389878a8a6040518663ffffffff1660e01b815260040161130b9594939291906148fa565b600060405180830381600087803b15801561132557600080fd5b505af1158015611339573d6000803e3d6000fd5b50505050505050505050505050565b611350612185565b80600160006101000a81548173ffffffffffffffffffffffffffffffffffffffff021916908373ffffffffffffffffffffffffffffffffffffffff16021790555050565b61139c612185565b6113a46128e9565b565b6000806113b161295b565b90508060000160009054906101000a900473ffffffffffffffffffffffffffffffffffffffff1691505090565b60606040518060400160405280600381526020017f5643520000000000000000000000000000000000000000000000000000000000815250905090565b6114236126c0565b6000600260008473ffffffffffffffffffffffffffffffffffffffff1673ffffffffffffffffffffffffffffffffffffffff1681526020019081526020016000205490506000548111156114ac576040517f08c379a00000000000000000000000000000000000000000000000000000000081526004016114a390614999565b60405180910390fd5b816114b7338361076b565b10156114f8576040517f08c379a00000000000000000000000000000000000000000000000000000000081526004016114ef90614a05565b60405180910390fd5b600073ffffffffffffffffffffffffffffffffffffffff166007600083815260200190815260200160002060009054906101000a900473ffffffffffffffffffffffffffffffffffffffff1673ffffffffffffffffffffffffffffffffffffffff16146116065760006007600083815260200190815260200160002060009054906101000a900473ffffffffffffffffffffffffffffffffffffffff1690508073ffffffffffffffffffffffffffffffffffffffff1663eb111ce383856040518363ffffffff1660e01b81526004016115d2929190614648565b600060405180830381600087803b1580156115ec57600080fd5b505af1158015611600573d6000803e3d6000fd5b50505050505b600160056000838152602001908152602001600020546116269190614a25565b6005600083815260200190815260200160002081905550611648338284612983565b505050565b60606116576126c0565b6000600260008573ffffffffffffffffffffffffffffffffffffffff1673ffffffffffffffffffffffffffffffffffffffff1681526020019081526020016000205490506000548111156116e0576040517f08c379a00000000000000000000000000000000000000000000000000000000081526004016116d790614999565b60405180910390fd5b60008490508073ffffffffffffffffffffffffffffffffffffffff1663c47cb4b2856040518263ffffffff1660e01b815260040161171e9190613f45565b602060405180830381865afa15801561173b573d6000803e3d6000fd5b505050506040513d601f19601f8201168201806040525081019061175f91906147f5565b61179e576040517f08c379a000000000000000000000000000000000000000000000000000000000815260040161179590614aa5565b60405180910390fd5b600073ffffffffffffffffffffffffffffffffffffffff166007600084815260200190815260200160002060009054906101000a900473ffffffffffffffffffffffffffffffffffffffff1673ffffffffffffffffffffffffffffffffffffffff16146119485760006007600084815260200190815260200160002060009054906101000a900473ffffffffffffffffffffffffffffffffffffffff1690508073ffffffffffffffffffffffffffffffffffffffff166367e2cafd30856040518363ffffffff1660e01b8152600401611878929190614ac5565b602060405180830381865afa158015611895573d6000803e3d6000fd5b505050506040513d601f19601f820116820180604052508101906118b99190614b03565b6005600085815260200190815260200160002054106118d757600080fd5b8073ffffffffffffffffffffffffffffffffffffffff1663a5cc5cd8348560016040518463ffffffff1660e01b8152600401611914929190614b61565b6000604051808303818588803b15801561192d57600080fd5b505af1158015611941573d6000803e3d6000fd5b5050505050505b6119648483600160405180602001604052806000815250612701565b600160056000848152602001908152602001600020546119849190614783565b60056000848152602001908152602001600020819055506004600083815260200190815260200160002080546119b99061457a565b80601f01602080910402602001604051908101604052809291908181526020018280546119e59061457a565b8015611a325780601f10611a0757610100808354040283529160200191611a32565b820191906000526020600020905b815481529060010190602001808311611a1557829003601f168201915b50505050509250505092915050565b611a53611a4c612085565b8383612a2a565b5050565b60036020528060005260406000206000915054906101000a900473ffffffffffffffffffffffffffffffffffffffff1681565b6040518060400160405280600581526020017f352e302e3000000000000000000000000000000000000000000000000000000081525081565b60026020528060005260406000206000915090505481565b60066020528060005260406000206000915054906101000a900473ffffffffffffffffffffffffffffffffffffffff1681565b611b166126c0565b600160009054906101000a900473ffffffffffffffffffffffffffffffffffffffff1673ffffffffffffffffffffffffffffffffffffffff163373ffffffffffffffffffffffffffffffffffffffff161480611ba45750611b756113a6565b73ffffffffffffffffffffffffffffffffffffffff163373ffffffffffffffffffffffffffffffffffffffff16145b611be3576040517f08c379a0000000000000000000000000000000000000000000000000000000008152600401611bda90614763565b60405180910390fd5b60008390508073ffffffffffffffffffffffffffffffffffffffff166391d148547f44a854cabd360644e908fcd642b33fedfb60c399d7b1e7e2051275f0b09b0be5336040518363ffffffff1660e01b8152600401611c439291906147b7565b602060405180830381865afa158015611c60573d6000803e3d6000fd5b505050506040513d601f19601f82011682018060405250810190611c8491906147f5565b611cc3576040517f08c379a0000000000000000000000000000000000000000000000000000000008152600401611cba9061486e565b60405180910390fd5b6000600260008673ffffffffffffffffffffffffffffffffffffffff1673ffffffffffffffffffffffffffffffffffffffff168152602001908152602001600020549050611d558185858080601f016020809104026020016040519081016040528093929190818152602001838380828437600081840152601f19601f8201169050808301925050505050505061279a565b611da38185858080601f016020809104026020016040519081016040528093929190818152602001838380828437600081840152601f19601f820116905080830192505050505050506127bf565b505050505050565b600080611db6611f7b565b90508060010160008573ffffffffffffffffffffffffffffffffffffffff1673ffffffffffffffffffffffffffffffffffffffff16815260200190815260200160002060008473ffffffffffffffffffffffffffffffffffffffff1673ffffffffffffffffffffffffffffffffffffffff16815260200190815260200160002060009054906101000a900460ff1691505092915050565b6000611e57612085565b90508073ffffffffffffffffffffffffffffffffffffffff168673ffffffffffffffffffffffffffffffffffffffff1614158015611e9c5750611e9a8682611dab565b155b15611ee05780866040517fe237d922000000000000000000000000000000000000000000000000000000008152600401611ed79291906145ab565b60405180910390fd5b611eed8686868686612ba9565b505050505050565b611efd612185565b600073ffffffffffffffffffffffffffffffffffffffff168173ffffffffffffffffffffffffffffffffffffffff1603611f6f5760006040517f1e4fbdf7000000000000000000000000000000000000000000000000000000008152600401611f669190613f45565b60405180910390fd5b611f78816125e9565b50565b60007f88be536d5240c274a3b1d3a1be54482fd9caa294f08c62a7cde569f49a3c4500905090565b60007fd9b67a26000000000000000000000000000000000000000000000000000000007bffffffffffffffffffffffffffffffffffffffffffffffffffffffff1916827bffffffffffffffffffffffffffffffffffffffffffffffffffffffff1916148061206e57507f0e89341c000000000000000000000000000000000000000000000000000000007bffffffffffffffffffffffffffffffffffffffffffffffffffffffff1916827bffffffffffffffffffffffffffffffffffffffffffffffffffffffff1916145b8061207e575061207d82612cb4565b5b9050919050565b600033905090565b600073ffffffffffffffffffffffffffffffffffffffff168473ffffffffffffffffffffffffffffffffffffffff16036120ff5760006040517f57f447ce0000000000000000000000000000000000000000000000000000000081526004016120f69190613f45565b60405180910390fd5b600073ffffffffffffffffffffffffffffffffffffffff168573ffffffffffffffffffffffffffffffffffffffff16036121715760006040517f01a835140000000000000000000000000000000000000000000000000000000081526004016121689190613f45565b60405180910390fd5b61217e8585858585612d1e565b5050505050565b61218d612085565b73ffffffffffffffffffffffffffffffffffffffff166121ab6113a6565b73ffffffffffffffffffffffffffffffffffffffff161461220a576121ce612085565b6040517f118cdaa70000000000000000000000000000000000000000000000000000000081526004016122019190613f45565b60405180910390fd5b565b612214612dd0565b600061221e6125c1565b905060008160000160006101000a81548160ff0219169083151502179055507f5db9ee0a495bf2e6ff9c91a7834c1ba4fdd244a5e8aa4e537bd38aeae4b073aa612266612085565b6040516122739190613f45565b60405180910390a150565b60007ff0c57e16840df040f15088dc2f81fe391c3923bec73e23a9662efc9c229c6a00905090565b6122ae612e10565b6122b781612e50565b50565b6122c2612e10565b6122cb81612ed6565b50565b6122d6612e10565b60006122e06125c1565b905060008160000160006101000a81548160ff02191690831515021790555050565b600060208202602084010151905092915050565b600060208202602084010151905092915050565b7f000000000000000000000000000000000000000000000000000000000000000073ffffffffffffffffffffffffffffffffffffffff163073ffffffffffffffffffffffffffffffffffffffff1614806123d757507f000000000000000000000000000000000000000000000000000000000000000073ffffffffffffffffffffffffffffffffffffffff166123be612eea565b73ffffffffffffffffffffffffffffffffffffffff1614155b1561240e576040517fe07c8dba00000000000000000000000000000000000000000000000000000000815260040160405180910390fd5b565b612418612185565b50565b8173ffffffffffffffffffffffffffffffffffffffff166352d1902d6040518163ffffffff1660e01b8152600401602060405180830381865afa92505050801561248357506040513d601f19601f820116820180604052508101906124809190614bb6565b60015b6124c457816040517f4c9c8ce30000000000000000000000000000000000000000000000000000000081526004016124bb9190613f45565b60405180910390fd5b7f360894a13ba1a3210667c828492db98dca3e2076cc3735a920a3ca505d382bbc60001b811461252b57806040517faa1d49a40000000000000000000000000000000000000000000000000000000081526004016125229190614230565b60405180910390fd5b6125358383612f41565b505050565b7f000000000000000000000000000000000000000000000000000000000000000073ffffffffffffffffffffffffffffffffffffffff163073ffffffffffffffffffffffffffffffffffffffff16146125bf576040517fe07c8dba00000000000000000000000000000000000000000000000000000000815260040160405180910390fd5b565b60007fcd5ed15c6e187e77e9aee88184c21f4f2182ab5827cb3b7e07fbedcd63f03300905090565b60006125f361295b565b905060008160000160009054906101000a900473ffffffffffffffffffffffffffffffffffffffff169050828260000160006101000a81548173ffffffffffffffffffffffffffffffffffffffff021916908373ffffffffffffffffffffffffffffffffffffffff1602179055508273ffffffffffffffffffffffffffffffffffffffff168173ffffffffffffffffffffffffffffffffffffffff167f8be0079c531659141344cd1fd0a4f28419497f9722a3daafe3b4186f6b6457e060405160405180910390a3505050565b6126c8610d1f565b156126ff576040517fd93c066500000000000000000000000000000000000000000000000000000000815260040160405180910390fd5b565b600073ffffffffffffffffffffffffffffffffffffffff168473ffffffffffffffffffffffffffffffffffffffff16036127735760006040517f57f447ce00000000000000000000000000000000000000000000000000000000815260040161276a9190613f45565b60405180910390fd5b6000806127808585612fb4565b91509150612792600087848487612d1e565b505050505050565b806004600084815260200190815260200160002090816127ba9190614d85565b505050565b606060146004600085815260200190815260200160002080546127e19061457a565b90501115612824576040517f08c379a000000000000000000000000000000000000000000000000000000000815260040161281b90614ea3565b60405180910390fd5b816004600085815260200190815260200160002090816128449190614d85565b506004600084815260200190815260200160002080546128639061457a565b80601f016020809104026020016040519081016040528092919081815260200182805461288f9061457a565b80156128dc5780601f106128b1576101008083540402835291602001916128dc565b820191906000526020600020905b8154815290600101906020018083116128bf57829003601f168201915b5050505050905092915050565b6128f16126c0565b60006128fb6125c1565b905060018160000160006101000a81548160ff0219169083151502179055507f62e78cea01bee320cd4e420270b5ea74000d11b0c9f74754ebdbfc544b05a258612943612085565b6040516129509190613f45565b60405180910390a150565b60007f9016d09d72d40fdae2fd8ceac6b6234c7706214fd39c1cd1e609a0528c199300905090565b600073ffffffffffffffffffffffffffffffffffffffff168373ffffffffffffffffffffffffffffffffffffffff16036129f55760006040517f01a835140000000000000000000000000000000000000000000000000000000081526004016129ec9190613f45565b60405180910390fd5b600080612a028484612fb4565b91509150612a23856000848460405180602001604052806000815250612d1e565b5050505050565b6000612a34611f7b565b9050600073ffffffffffffffffffffffffffffffffffffffff168373ffffffffffffffffffffffffffffffffffffffff1603612aa85760006040517fced3e100000000000000000000000000000000000000000000000000000000008152600401612a9f9190613f45565b60405180910390fd5b818160010160008673ffffffffffffffffffffffffffffffffffffffff1673ffffffffffffffffffffffffffffffffffffffff16815260200190815260200160002060008573ffffffffffffffffffffffffffffffffffffffff1673ffffffffffffffffffffffffffffffffffffffff16815260200190815260200160002060006101000a81548160ff0219169083151502179055508273ffffffffffffffffffffffffffffffffffffffff168473ffffffffffffffffffffffffffffffffffffffff167f17307eab39ab6107e8899845ad3d59bd9653f200f220920489ca2b5937696c3184604051612b9b9190613b70565b60405180910390a350505050565b600073ffffffffffffffffffffffffffffffffffffffff168473ffffffffffffffffffffffffffffffffffffffff1603612c1b5760006040517f57f447ce000000000000000000000000000000000000000000000000000000008152600401612c129190613f45565b60405180910390fd5b600073ffffffffffffffffffffffffffffffffffffffff168573ffffffffffffffffffffffffffffffffffffffff1603612c8d5760006040517f01a83514000000000000000000000000000000000000000000000000000000008152600401612c849190613f45565b60405180910390fd5b600080612c9a8585612fb4565b91509150612cab8787848487612d1e565b50505050505050565b60007f01ffc9a7000000000000000000000000000000000000000000000000000000007bffffffffffffffffffffffffffffffffffffffffffffffffffffffff1916827bffffffffffffffffffffffffffffffffffffffffffffffffffffffff1916149050919050565b612d2a85858585612fe4565b600073ffffffffffffffffffffffffffffffffffffffff168473ffffffffffffffffffffffffffffffffffffffff1614612dc9576000612d68612085565b90506001845103612db8576000612d8960008661231690919063ffffffff16565b90506000612da160008661231690919063ffffffff16565b9050612db18389898585896133a8565b5050612dc7565b612dc681878787878761355c565b5b505b5050505050565b612dd8610d1f565b612e0e576040517f8dfc202b00000000000000000000000000000000000000000000000000000000815260040160405180910390fd5b565b612e18613710565b612e4e576040517fd7e6bcf800000000000000000000000000000000000000000000000000000000815260040160405180910390fd5b565b612e58612e10565b600073ffffffffffffffffffffffffffffffffffffffff168173ffffffffffffffffffffffffffffffffffffffff1603612eca5760006040517f1e4fbdf7000000000000000000000000000000000000000000000000000000008152600401612ec19190613f45565b60405180910390fd5b612ed3816125e9565b50565b612ede612e10565b612ee781613730565b50565b6000612f187f360894a13ba1a3210667c828492db98dca3e2076cc3735a920a3ca505d382bbc60001b613752565b60000160009054906101000a900473ffffffffffffffffffffffffffffffffffffffff16905090565b612f4a8261375c565b8173ffffffffffffffffffffffffffffffffffffffff167fbc7cd75a20ee27fd9adebab32041f755214dbc6bffa90cc0225b39da2e5c2d3b60405160405180910390a2600081511115612fa757612fa18282613829565b50612fb0565b612faf6138ad565b5b5050565b60608060405191506001825283602083015260408201905060018152826020820152604081016040529250929050565b6000612fee611f7b565b9050815183511461303a57825182516040517f5b059991000000000000000000000000000000000000000000000000000000008152600401613031929190614648565b60405180910390fd5b6000613044612085565b905060005b8451811015613262576000613067828761231690919063ffffffff16565b9050600061307e838761231690919063ffffffff16565b9050600073ffffffffffffffffffffffffffffffffffffffff168973ffffffffffffffffffffffffffffffffffffffff16146131b157600085600001600084815260200190815260200160002060008b73ffffffffffffffffffffffffffffffffffffffff1673ffffffffffffffffffffffffffffffffffffffff1681526020019081526020016000205490508181101561315657898183856040517f03dee4c500000000000000000000000000000000000000000000000000000000815260040161314d9493929190614ec3565b60405180910390fd5b81810386600001600085815260200190815260200160002060008c73ffffffffffffffffffffffffffffffffffffffff1673ffffffffffffffffffffffffffffffffffffffff16815260200190815260200160002081905550505b600073ffffffffffffffffffffffffffffffffffffffff168873ffffffffffffffffffffffffffffffffffffffff161461324f578085600001600084815260200190815260200160002060008a73ffffffffffffffffffffffffffffffffffffffff1673ffffffffffffffffffffffffffffffffffffffff16815260200190815260200160002060008282546132479190614783565b925050819055505b50508061325b906146cf565b9050613049565b50600184510361332157600061328260008661231690919063ffffffff16565b9050600061329a60008661231690919063ffffffff16565b90508673ffffffffffffffffffffffffffffffffffffffff168873ffffffffffffffffffffffffffffffffffffffff168473ffffffffffffffffffffffffffffffffffffffff167fc3d58168c5ae7397731d063d5bbf3d657854427343f4c083240f7aacaa2d0f628585604051613312929190614648565b60405180910390a450506133a0565b8473ffffffffffffffffffffffffffffffffffffffff168673ffffffffffffffffffffffffffffffffffffffff168273ffffffffffffffffffffffffffffffffffffffff167f4a39dc06d4c0dbc64b70af90fd698a233a518aa5d07e595d983b8c0526c8f7fb8787604051613397929190614f08565b60405180910390a45b505050505050565b60008473ffffffffffffffffffffffffffffffffffffffff163b1115613554578373ffffffffffffffffffffffffffffffffffffffff1663f23a6e6187878686866040518663ffffffff1660e01b8152600401613409959493929190614f94565b6020604051808303816000875af192505050801561344557506040513d601f19601f820116820180604052508101906134429190615003565b60015b6134c9573d8060008114613475576040519150601f19603f3d011682016040523d82523d6000602084013e61347a565b606091505b5060008151036134c157846040517f57f447ce0000000000000000000000000000000000000000000000000000000081526004016134b89190613f45565b60405180910390fd5b805181602001fd5b63f23a6e6160e01b7bffffffffffffffffffffffffffffffffffffffffffffffffffffffff1916817bffffffffffffffffffffffffffffffffffffffffffffffffffffffff19161461355257846040517f57f447ce0000000000000000000000000000000000000000000000000000000081526004016135499190613f45565b60405180910390fd5b505b505050505050565b60008473ffffffffffffffffffffffffffffffffffffffff163b1115613708578373ffffffffffffffffffffffffffffffffffffffff1663bc197c8187878686866040518663ffffffff1660e01b81526004016135bd959493929190615030565b6020604051808303816000875af19250505080156135f957506040513d601f19601f820116820180604052508101906135f69190615003565b60015b61367d573d8060008114613629576040519150601f19603f3d011682016040523d82523d6000602084013e61362e565b606091505b50600081510361367557846040517f57f447ce00000000000000000000000000000000000000000000000000000000815260040161366c9190613f45565b60405180910390fd5b805181602001fd5b63bc197c8160e01b7bffffffffffffffffffffffffffffffffffffffffffffffffffffffff1916817bffffffffffffffffffffffffffffffffffffffffffffffffffffffff19161461370657846040517f57f447ce0000000000000000000000000000000000000000000000000000000081526004016136fd9190613f45565b60405180910390fd5b505b505050505050565b600061371a61227e565b60000160089054906101000a900460ff16905090565b600061373a611f7b565b90508181600201908161374d9190614d85565b505050565b6000819050919050565b60008173ffffffffffffffffffffffffffffffffffffffff163b036137b857806040517f4c9c8ce30000000000000000000000000000000000000000000000000000000081526004016137af9190613f45565b60405180910390fd5b806137e57f360894a13ba1a3210667c828492db98dca3e2076cc3735a920a3ca505d382bbc60001b613752565b60000160006101000a81548173ffffffffffffffffffffffffffffffffffffffff021916908373ffffffffffffffffffffffffffffffffffffffff16021790555050565b60606000808473ffffffffffffffffffffffffffffffffffffffff168460405161385391906150d4565b600060405180830381855af49150503d806000811461388e576040519150601f19603f3d011682016040523d82523d6000602084013e613893565b606091505b50915091506138a38583836138ea565b9250505092915050565b60003411156138e8576040517fb398979f00000000000000000000000000000000000000000000000000000000815260040160405180910390fd5b565b6060826138ff576138fa82613979565b613971565b60008251148015613927575060008473ffffffffffffffffffffffffffffffffffffffff163b145b1561396957836040517f9996b3150000000000000000000000000000000000000000000000000000000081526004016139609190613f45565b60405180910390fd5b819050613972565b5b9392505050565b60008151111561398c5780518082602001fd5b6040517f1425ea4200000000000000000000000000000000000000000000000000000000815260040160405180910390fd5b6000604051905090565b600080fd5b600080fd5b600073ffffffffffffffffffffffffffffffffffffffff82169050919050565b60006139fd826139d2565b9050919050565b613a0d816139f2565b8114613a1857600080fd5b50565b600081359050613a2a81613a04565b92915050565b6000819050919050565b613a4381613a30565b8114613a4e57600080fd5b50565b600081359050613a6081613a3a565b92915050565b60008060408385031215613a7d57613a7c6139c8565b5b6000613a8b85828601613a1b565b9250506020613a9c85828601613a51565b9150509250929050565b613aaf81613a30565b82525050565b6000602082019050613aca6000830184613aa6565b92915050565b60007fffffffff0000000000000000000000000000000000000000000000000000000082169050919050565b613b0581613ad0565b8114613b1057600080fd5b50565b600081359050613b2281613afc565b92915050565b600060208284031215613b3e57613b3d6139c8565b5b6000613b4c84828501613b13565b91505092915050565b60008115159050919050565b613b6a81613b55565b82525050565b6000602082019050613b856000830184613b61565b92915050565b600081519050919050565b600082825260208201905092915050565b60005b83811015613bc5578082015181840152602081019050613baa565b60008484015250505050565b6000601f19601f8301169050919050565b6000613bed82613b8b565b613bf78185613b96565b9350613c07818560208601613ba7565b613c1081613bd1565b840191505092915050565b60006020820190508181036000830152613c358184613be2565b905092915050565b600060208284031215613c5357613c526139c8565b5b6000613c6184828501613a51565b91505092915050565b600080fd5b7f4e487b7100000000000000000000000000000000000000000000000000000000600052604160045260246000fd5b613ca782613bd1565b810181811067ffffffffffffffff82111715613cc657613cc5613c6f565b5b80604052505050565b6000613cd96139be565b9050613ce58282613c9e565b919050565b600067ffffffffffffffff821115613d0557613d04613c6f565b5b602082029050602081019050919050565b600080fd5b6000613d2e613d2984613cea565b613ccf565b90508083825260208201905060208402830185811115613d5157613d50613d16565b5b835b81811015613d7a5780613d668882613a51565b845260208401935050602081019050613d53565b5050509392505050565b600082601f830112613d9957613d98613c6a565b5b8135613da9848260208601613d1b565b91505092915050565b600080fd5b600067ffffffffffffffff821115613dd257613dd1613c6f565b5b613ddb82613bd1565b9050602081019050919050565b82818337600083830152505050565b6000613e0a613e0584613db7565b613ccf565b905082815260208101848484011115613e2657613e25613db2565b5b613e31848285613de8565b509392505050565b600082601f830112613e4e57613e4d613c6a565b5b8135613e5e848260208601613df7565b91505092915050565b600080600080600060a08688031215613e8357613e826139c8565b5b6000613e9188828901613a1b565b9550506020613ea288828901613a1b565b945050604086013567ffffffffffffffff811115613ec357613ec26139cd565b5b613ecf88828901613d84565b935050606086013567ffffffffffffffff811115613ef057613eef6139cd565b5b613efc88828901613d84565b925050608086013567ffffffffffffffff811115613f1d57613f1c6139cd565b5b613f2988828901613e39565b9150509295509295909350565b613f3f816139f2565b82525050565b6000602082019050613f5a6000830184613f36565b92915050565b60008060408385031215613f7757613f766139c8565b5b6000613f8585828601613a1b565b9250506020613f9685828601613a1b565b9150509250929050565b600067ffffffffffffffff821115613fbb57613fba613c6f565b5b602082029050602081019050919050565b6000613fdf613fda84613fa0565b613ccf565b9050808382526020820190506020840283018581111561400257614001613d16565b5b835b8181101561402b57806140178882613a1b565b845260208401935050602081019050614004565b5050509392505050565b600082601f83011261404a57614049613c6a565b5b813561405a848260208601613fcc565b91505092915050565b6000806040838503121561407a576140796139c8565b5b600083013567ffffffffffffffff811115614098576140976139cd565b5b6140a485828601614035565b925050602083013567ffffffffffffffff8111156140c5576140c46139cd565b5b6140d185828601613d84565b9150509250929050565b600081519050919050565b600082825260208201905092915050565b6000819050602082019050919050565b61411081613a30565b82525050565b60006141228383614107565b60208301905092915050565b6000602082019050919050565b6000614146826140db565b61415081856140e6565b935061415b836140f7565b8060005b8381101561418c5781516141738882614116565b975061417e8361412e565b92505060018101905061415f565b5085935050505092915050565b600060208201905081810360008301526141b3818461413b565b905092915050565b600080604083850312156141d2576141d16139c8565b5b60006141e085828601613a1b565b925050602083013567ffffffffffffffff811115614201576142006139cd565b5b61420d85828601613e39565b9150509250929050565b6000819050919050565b61422a81614217565b82525050565b60006020820190506142456000830184614221565b92915050565b600080fd5b60008083601f84011261426657614265613c6a565b5b8235905067ffffffffffffffff8111156142835761428261424b565b5b60208301915083600182028301111561429f5761429e613d16565b5b9250929050565b6000806000806000608086880312156142c2576142c16139c8565b5b60006142d088828901613a1b565b95505060206142e188828901613a1b565b945050604086013567ffffffffffffffff811115614302576143016139cd565b5b61430e88828901614250565b9350935050606061432188828901613a1b565b9150509295509295909350565b61433781613b55565b811461434257600080fd5b50565b6000813590506143548161432e565b92915050565b60008060008060008060c08789031215614377576143766139c8565b5b600061438589828a01613a1b565b965050602061439689828a01613a1b565b95505060406143a789828a01613a1b565b94505060606143b889828a01613a51565b93505060806143c989828a01613a51565b92505060a06143da89828a01614345565b9150509295509295509295565b6000602082840312156143fd576143fc6139c8565b5b600061440b84828501613a1b565b91505092915050565b6000806040838503121561442b5761442a6139c8565b5b600061443985828601613a1b565b925050602061444a85828601614345565b9150509250929050565b60008060006040848603121561446d5761446c6139c8565b5b600061447b86828701613a1b565b935050602084013567ffffffffffffffff81111561449c5761449b6139cd565b5b6144a886828701614250565b92509250509250925092565b600080600080600060a086880312156144d0576144cf6139c8565b5b60006144de88828901613a1b565b95505060206144ef88828901613a1b565b945050604061450088828901613a51565b935050606061451188828901613a51565b925050608086013567ffffffffffffffff811115614532576145316139cd565b5b61453e88828901613e39565b9150509295509295909350565b7f4e487b7100000000000000000000000000000000000000000000000000000000600052602260045260246000fd5b6000600282049050600182168061459257607f821691505b6020821081036145a5576145a461454b565b5b50919050565b60006040820190506145c06000830185613f36565b6145cd6020830184613f36565b9392505050565b6000819050919050565b600067ffffffffffffffff82169050919050565b6000819050919050565b600061461761461261460d846145d4565b6145f2565b6145de565b9050919050565b614627816145fc565b82525050565b6000602082019050614642600083018461461e565b92915050565b600060408201905061465d6000830185613aa6565b61466a6020830184613aa6565b9392505050565b7f4e487b7100000000000000000000000000000000000000000000000000000000600052603260045260246000fd5b7f4e487b7100000000000000000000000000000000000000000000000000000000600052601160045260246000fd5b60006146da82613a30565b91507fffffffffffffffffffffffffffffffffffffffffffffffffffffffffffffffff820361470c5761470b6146a0565b5b600182019050919050565b7f6f6e6c7920666163746f7279206f72206f776e657220616c6c6f776564000000600082015250565b600061474d601d83613b96565b915061475882614717565b602082019050919050565b6000602082019050818103600083015261477c81614740565b9050919050565b600061478e82613a30565b915061479983613a30565b92508282019050808211156147b1576147b06146a0565b5b92915050565b60006040820190506147cc6000830185614221565b6147d96020830184613f36565b9392505050565b6000815190506147ef8161432e565b92915050565b60006020828403121561480b5761480a6139c8565b5b6000614819848285016147e0565b91505092915050565b7f6f6e6c79206d6f64657261746f727320616c6c6f776564000000000000000000600082015250565b6000614858601783613b96565b915061486382614822565b602082019050919050565b600060208201905081810360008301526148878161484b565b9050919050565b7f416c7265616479206c6973746564000000000000000000000000000000000000600082015250565b60006148c4600e83613b96565b91506148cf8261488e565b602082019050919050565b600060208201905081810360008301526148f3816148b7565b9050919050565b600060a08201905061490f6000830188613aa6565b61491c6020830187613f36565b6149296040830186613b61565b6149366060830185613aa6565b6149436080830184613aa6565b9695505050505050565b7f546f6b656e20646f6573206e6f74206578697374730000000000000000000000600082015250565b6000614983601583613b96565b915061498e8261494d565b602082019050919050565b600060208201905081810360008301526149b281614976565b9050919050565b7f496e736966696369656e742062616c616e636500000000000000000000000000600082015250565b60006149ef601383613b96565b91506149fa826149b9565b602082019050919050565b60006020820190508181036000830152614a1e816149e2565b9050919050565b6000614a3082613a30565b9150614a3b83613a30565b9250828203905081811115614a5357614a526146a0565b5b92915050565b7f6e6f7420616c6c6f776564000000000000000000000000000000000000000000600082015250565b6000614a8f600b83613b96565b9150614a9a82614a59565b602082019050919050565b60006020820190508181036000830152614abe81614a82565b9050919050565b6000604082019050614ada6000830185613f36565b614ae76020830184613aa6565b9392505050565b600081519050614afd81613a3a565b92915050565b600060208284031215614b1957614b186139c8565b5b6000614b2784828501614aee565b91505092915050565b6000614b4b614b46614b41846145d4565b6145f2565b613a30565b9050919050565b614b5b81614b30565b82525050565b6000604082019050614b766000830185613aa6565b614b836020830184614b52565b9392505050565b614b9381614217565b8114614b9e57600080fd5b50565b600081519050614bb081614b8a565b92915050565b600060208284031215614bcc57614bcb6139c8565b5b6000614bda84828501614ba1565b91505092915050565b60008190508160005260206000209050919050565b60006020601f8301049050919050565b600082821b905092915050565b600060088302614c457fffffffffffffffffffffffffffffffffffffffffffffffffffffffffffffffff82614c08565b614c4f8683614c08565b95508019841693508086168417925050509392505050565b6000614c82614c7d614c7884613a30565b6145f2565b613a30565b9050919050565b6000819050919050565b614c9c83614c67565b614cb0614ca882614c89565b848454614c15565b825550505050565b600090565b614cc5614cb8565b614cd0818484614c93565b505050565b5b81811015614cf457614ce9600082614cbd565b600181019050614cd6565b5050565b601f821115614d3957614d0a81614be3565b614d1384614bf8565b81016020851015614d22578190505b614d36614d2e85614bf8565b830182614cd5565b50505b505050565b600082821c905092915050565b6000614d5c60001984600802614d3e565b1980831691505092915050565b6000614d758383614d4b565b9150826002028217905092915050565b614d8e82613b8b565b67ffffffffffffffff811115614da757614da6613c6f565b5b614db1825461457a565b614dbc828285614cf8565b600060209050601f831160018114614def5760008415614ddd578287015190505b614de78582614d69565b865550614e4f565b601f198416614dfd86614be3565b60005b82811015614e2557848901518255600182019150602085019450602081019050614e00565b86831015614e425784890151614e3e601f891682614d4b565b8355505b6001600288020188555050505b505050505050565b7f55524920616c7265616479207365740000000000000000000000000000000000600082015250565b6000614e8d600f83613b96565b9150614e9882614e57565b602082019050919050565b60006020820190508181036000830152614ebc81614e80565b9050919050565b6000608082019050614ed86000830187613f36565b614ee56020830186613aa6565b614ef26040830185613aa6565b614eff6060830184613aa6565b95945050505050565b60006040820190508181036000830152614f22818561413b565b90508181036020830152614f36818461413b565b90509392505050565b600081519050919050565b600082825260208201905092915050565b6000614f6682614f3f565b614f708185614f4a565b9350614f80818560208601613ba7565b614f8981613bd1565b840191505092915050565b600060a082019050614fa96000830188613f36565b614fb66020830187613f36565b614fc36040830186613aa6565b614fd06060830185613aa6565b8181036080830152614fe28184614f5b565b90509695505050505050565b600081519050614ffd81613afc565b92915050565b600060208284031215615019576150186139c8565b5b600061502784828501614fee565b91505092915050565b600060a0820190506150456000830188613f36565b6150526020830187613f36565b8181036040830152615064818661413b565b90508181036060830152615078818561413b565b9050818103608083015261508c8184614f5b565b90509695505050505050565b600081905092915050565b60006150ae82614f3f565b6150b88185615098565b93506150c8818560208601613ba7565b80840191505092915050565b60006150e082846150a3565b91508190509291505056fea2646970667358221220e3cff5c931c498deb2e9ba69fac4aedf67bb3cf841906a7165237dbc2a8c0db664736f6c63430008140033",
  "linkReferences": {},
  "deployedLinkReferences": {}
}