{
  "_format": "hh-sol-artifact-1",
  "contractName": "CollectionRegistry",
  "sourceName": "contracts/collections/CollectionRegistry.sol",
  "abi": [
    {
      "inputs": [
        {
          "internalType": "address",
          "name": "target",
          "type": "address"
        }
      ],
      "name": "AddressEmptyCode",
      "type": "error"
    },
    {
      "inputs": [
        {
          "internalType": "address",
          "name": "sender",
          "type": "address"
        },
        {
          "internalType": "uint256",
          "name": "balance",
          "type": "uint256"
        },
        {
          "internalType": "uint256",
          "name": "needed",
          "type": "uint256"
        },
        {
          "internalType": "uint256",
          "name": "tokenId",
          "type": "uint256"
        }
      ],
      "name": "ERC1155InsufficientBalance",
      "type": "error"
    },
    {
      "inputs": [
        {
          "internalType": "address",
          "name": "approver",
          "type": "address"
        }
      ],
      "name": "ERC1155InvalidApprover",
      "type": "error"
    },
    {
      "inputs": [
        {
          "internalType": "uint256",
          "name": "idsLength",
          "type": "uint256"
        },
        {
          "internalType": "uint256",
          "name": "valuesLength",
          "type": "uint256"
        }
      ],
      "name": "ERC1155InvalidArrayLength",
      "type": "error"
    },
    {
      "inputs": [
        {
          "internalType": "address",
          "name": "operator",
          "type": "address"
        }
      ],
      "name": "ERC1155InvalidOperator",
      "type": "error"
    },
    {
      "inputs": [
        {
          "internalType": "address",
          "name": "receiver",
          "type": "address"
        }
      ],
      "name": "ERC1155InvalidReceiver",
      "type": "error"
    },
    {
      "inputs": [
        {
          "internalType": "address",
          "name": "sender",
          "type": "address"
        }
      ],
      "name": "ERC1155InvalidSender",
      "type": "error"
    },
    {
      "inputs": [
        {
          "internalType": "address",
          "name": "operator",
          "type": "address"
        },
        {
          "internalType": "address",
          "name": "owner",
          "type": "address"
        }
      ],
      "name": "ERC1155MissingApprovalForAll",
      "type": "error"
    },
    {
      "inputs": [
        {
          "internalType": "address",
          "name": "implementation",
          "type": "address"
        }
      ],
      "name": "ERC1967InvalidImplementation",
      "type": "error"
    },
    {
      "inputs": [],
      "name": "ERC1967NonPayable",
      "type": "error"
    },
    {
      "inputs": [],
      "name": "EnforcedPause",
      "type": "error"
    },
    {
      "inputs": [],
      "name": "ExpectedPause",
      "type": "error"
    },
    {
      "inputs": [],
      "name": "FailedInnerCall",
      "type": "error"
    },
    {
      "inputs": [],
      "name": "InvalidInitialization",
      "type": "error"
    },
    {
      "inputs": [],
      "name": "NotInitializing",
      "type": "error"
    },
    {
      "inputs": [
        {
          "internalType": "address",
          "name": "owner",
          "type": "address"
        }
      ],
      "name": "OwnableInvalidOwner",
      "type": "error"
    },
    {
      "inputs": [
        {
          "internalType": "address",
          "name": "account",
          "type": "address"
        }
      ],
      "name": "OwnableUnauthorizedAccount",
      "type": "error"
    },
    {
      "inputs": [],
      "name": "UUPSUnauthorizedCallContext",
      "type": "error"
    },
    {
      "inputs": [
        {
          "internalType": "bytes32",
          "name": "slot",
          "type": "bytes32"
        }
      ],
      "name": "UUPSUnsupportedProxiableUUID",
      "type": "error"
    },
    {
      "anonymous": false,
      "inputs": [
        {
          "indexed": true,
          "internalType": "address",
          "name": "account",
          "type": "address"
        },
        {
          "indexed": true,
          "internalType": "address",
          "name": "operator",
          "type": "address"
        },
        {
          "indexed": false,
          "internalType": "bool",
          "name": "approved",
          "type": "bool"
        }
      ],
      "name": "ApprovalForAll",
      "type": "event"
    },
    {
      "anonymous": false,
      "inputs": [
        {
          "indexed": false,
          "internalType": "uint64",
          "name": "version",
          "type": "uint64"
        }
      ],
      "name": "Initialized",
      "type": "event"
    },
    {
      "anonymous": false,
      "inputs": [
        {
          "indexed": false,
          "internalType": "address",
          "name": "account",
          "type": "address"
        },
        {
          "indexed": false,
          "internalType": "uint256",
          "name": "id",
          "type": "uint256"
        },
        {
          "indexed": false,
          "internalType": "address",
          "name": "contractAddress",
          "type": "address"
        }
      ],
      "name": "NewVersoCollected",
      "type": "event"
    },
    {
      "anonymous": false,
      "inputs": [
        {
          "indexed": false,
          "internalType": "address",
          "name": "account",
          "type": "address"
        },
        {
          "indexed": false,
          "internalType": "uint256",
          "name": "id",
          "type": "uint256"
        },
        {
          "indexed": false,
          "internalType": "string",
          "name": "metadataURI",
          "type": "string"
        }
      ],
      "name": "NewVersoCreated",
      "type": "event"
    },
    {
      "anonymous": false,
      "inputs": [
        {
          "indexed": true,
          "internalType": "address",
          "name": "previousOwner",
          "type": "address"
        },
        {
          "indexed": true,
          "internalType": "address",
          "name": "newOwner",
          "type": "address"
        }
      ],
      "name": "OwnershipTransferred",
      "type": "event"
    },
    {
      "anonymous": false,
      "inputs": [
        {
          "indexed": false,
          "internalType": "address",
          "name": "account",
          "type": "address"
        }
      ],
      "name": "Paused",
      "type": "event"
    },
    {
      "anonymous": false,
      "inputs": [
        {
          "indexed": true,
          "internalType": "address",
          "name": "operator",
          "type": "address"
        },
        {
          "indexed": true,
          "internalType": "address",
          "name": "from",
          "type": "address"
        },
        {
          "indexed": true,
          "internalType": "address",
          "name": "to",
          "type": "address"
        },
        {
          "indexed": false,
          "internalType": "uint256[]",
          "name": "ids",
          "type": "uint256[]"
        },
        {
          "indexed": false,
          "internalType": "uint256[]",
          "name": "values",
          "type": "uint256[]"
        }
      ],
      "name": "TransferBatch",
      "type": "event"
    },
    {
      "anonymous": false,
      "inputs": [
        {
          "indexed": true,
          "internalType": "address",
          "name": "operator",
          "type": "address"
        },
        {
          "indexed": true,
          "internalType": "address",
          "name": "from",
          "type": "address"
        },
        {
          "indexed": true,
          "internalType": "address",
          "name": "to",
          "type": "address"
        },
        {
          "indexed": false,
          "internalType": "uint256",
          "name": "id",
          "type": "uint256"
        },
        {
          "indexed": false,
          "internalType": "uint256",
          "name": "value",
          "type": "uint256"
        }
      ],
      "name": "TransferSingle",
      "type": "event"
    },
    {
      "anonymous": false,
      "inputs": [
        {
          "indexed": false,
          "internalType": "string",
          "name": "value",
          "type": "string"
        },
        {
          "indexed": true,
          "internalType": "uint256",
          "name": "id",
          "type": "uint256"
        }
      ],
      "name": "URI",
      "type": "event"
    },
    {
      "anonymous": false,
      "inputs": [
        {
          "indexed": false,
          "internalType": "address",
          "name": "account",
          "type": "address"
        }
      ],
      "name": "Unpaused",
      "type": "event"
    },
    {
      "anonymous": false,
      "inputs": [
        {
          "indexed": true,
          "internalType": "address",
          "name": "implementation",
          "type": "address"
        }
      ],
      "name": "Upgraded",
      "type": "event"
    },
    {
      "anonymous": false,
      "inputs": [
        {
          "indexed": false,
          "internalType": "address",
          "name": "moderator",
          "type": "address"
        },
        {
          "indexed": false,
          "internalType": "address",
          "name": "collection",
          "type": "address"
        },
        {
          "indexed": false,
          "internalType": "uint256",
          "name": "tokenId",
          "type": "uint256"
        }
      ],
      "name": "VersoDeleted",
      "type": "event"
    },
    {
      "inputs": [],
      "name": "UPGRADE_INTERFACE_VERSION",
      "outputs": [
        {
          "internalType": "string",
          "name": "",
          "type": "string"
        }
      ],
      "stateMutability": "view",
      "type": "function"
    },
    {
      "inputs": [
        {
          "internalType": "address",
          "name": "",
          "type": "address"
        }
      ],
      "name": "addressToTokenID",
      "outputs": [
        {
          "internalType": "uint256",
          "name": "",
          "type": "uint256"
        }
      ],
      "stateMutability": "view",
      "type": "function"
    },
    {
      "inputs": [
        {
          "internalType": "address",
          "name": "account",
          "type": "address"
        },
        {
          "internalType": "uint256",
          "name": "id",
          "type": "uint256"
        }
      ],
      "name": "balanceOf",
      "outputs": [
        {
          "internalType": "uint256",
          "name": "",
          "type": "uint256"
        }
      ],
      "stateMutability": "view",
      "type": "function"
    },
    {
      "inputs": [
        {
          "internalType": "address[]",
          "name": "accounts",
          "type": "address[]"
        },
        {
          "internalType": "uint256[]",
          "name": "ids",
          "type": "uint256[]"
        }
      ],
      "name": "balanceOfBatch",
      "outputs": [
        {
          "internalType": "uint256[]",
          "name": "",
          "type": "uint256[]"
        }
      ],
      "stateMutability": "view",
      "type": "function"
    },
    {
      "inputs": [
        {
          "internalType": "address",
          "name": "collectionAddress",
          "type": "address"
        },
        {
          "internalType": "uint256",
          "name": "amount",
          "type": "uint256"
        }
      ],
      "name": "burn",
      "outputs": [],
      "stateMutability": "nonpayable",
      "type": "function"
    },
    {
      "inputs": [
        {
          "internalType": "address",
          "name": "collectionAddress",
          "type": "address"
        },
        {
          "internalType": "address",
          "name": "receipient",
          "type": "address"
        }
      ],
      "name": "collect",
      "outputs": [
        {
          "internalType": "string",
          "name": "",
          "type": "string"
        }
      ],
      "stateMutability": "payable",
      "type": "function"
    },
    {
      "inputs": [
        {
          "internalType": "uint256",
          "name": "",
          "type": "uint256"
        }
      ],
      "name": "collectionAddresses",
      "outputs": [
        {
          "internalType": "address",
          "name": "",
          "type": "address"
        }
      ],
      "stateMutability": "view",
      "type": "function"
    },
    {
      "inputs": [
        {
          "internalType": "address",
          "name": "_owner",
          "type": "address"
        },
        {
          "internalType": "address",
          "name": "_factoryAddress",
          "type": "address"
        }
      ],
      "name": "initialize",
      "outputs": [],
      "stateMutability": "nonpayable",
      "type": "function"
    },
    {
      "inputs": [
        {
          "internalType": "address",
          "name": "account",
          "type": "address"
        },
        {
          "internalType": "address",
          "name": "operator",
          "type": "address"
        }
      ],
      "name": "isApprovedForAll",
      "outputs": [
        {
          "internalType": "bool",
          "name": "",
          "type": "bool"
        }
      ],
      "stateMutability": "view",
      "type": "function"
    },
    {
      "inputs": [
        {
          "internalType": "address",
          "name": "collectionAddress",
          "type": "address"
        },
        {
          "internalType": "address",
          "name": "marketAddress",
          "type": "address"
        },
        {
          "internalType": "address",
          "name": "feeReceiver",
          "type": "address"
        },
        {
          "internalType": "uint256",
          "name": "_supplyLimit",
          "type": "uint256"
        },
        {
          "internalType": "uint256",
          "name": "_tokenPrice",
          "type": "uint256"
        },
        {
          "internalType": "bool",
          "name": "_isBonded",
          "type": "bool"
        }
      ],
      "name": "listCollection",
      "outputs": [],
      "stateMutability": "nonpayable",
      "type": "function"
    },
    {
      "inputs": [
        {
          "internalType": "uint256",
          "name": "",
          "type": "uint256"
        }
      ],
      "name": "marketAddresses",
      "outputs": [
        {
          "internalType": "address",
          "name": "",
          "type": "address"
        }
      ],
      "stateMutability": "view",
      "type": "function"
    },
    {
      "inputs": [],
      "name": "name",
      "outputs": [
        {
          "internalType": "string",
          "name": "",
          "type": "string"
        }
      ],
      "stateMutability": "pure",
      "type": "function"
    },
    {
      "inputs": [],
      "name": "owner",
      "outputs": [
        {
          "internalType": "address",
          "name": "",
          "type": "address"
        }
      ],
      "stateMutability": "view",
      "type": "function"
    },
    {
      "inputs": [],
      "name": "pause",
      "outputs": [],
      "stateMutability": "nonpayable",
      "type": "function"
    },
    {
      "inputs": [],
      "name": "paused",
      "outputs": [
        {
          "internalType": "bool",
          "name": "",
          "type": "bool"
        }
      ],
      "stateMutability": "view",
      "type": "function"
    },
    {
      "inputs": [],
      "name": "proxiableUUID",
      "outputs": [
        {
          "internalType": "bytes32",
          "name": "",
          "type": "bytes32"
        }
      ],
      "stateMutability": "view",
      "type": "function"
    },
    {
      "inputs": [
        {
          "internalType": "address",
          "name": "_creator",
          "type": "address"
        },
        {
          "internalType": "address",
          "name": "_collectionAddress",
          "type": "address"
        },
        {
          "internalType": "string",
          "name": "_collectionMetadataUri",
          "type": "string"
        },
        {
          "internalType": "address",
          "name": "_permissions",
          "type": "address"
        }
      ],
      "name": "registerCollection",
      "outputs": [],
      "stateMutability": "nonpayable",
      "type": "function"
    },
    {
      "inputs": [],
      "name": "renounceOwnership",
      "outputs": [],
      "stateMutability": "nonpayable",
      "type": "function"
    },
    {
      "inputs": [
        {
          "internalType": "address",
          "name": "from",
          "type": "address"
        },
        {
          "internalType": "address",
          "name": "to",
          "type": "address"
        },
        {
          "internalType": "uint256[]",
          "name": "ids",
          "type": "uint256[]"
        },
        {
          "internalType": "uint256[]",
          "name": "values",
          "type": "uint256[]"
        },
        {
          "internalType": "bytes",
          "name": "data",
          "type": "bytes"
        }
      ],
      "name": "safeBatchTransferFrom",
      "outputs": [],
      "stateMutability": "nonpayable",
      "type": "function"
    },
    {
      "inputs": [
        {
          "internalType": "address",
          "name": "from",
          "type": "address"
        },
        {
          "internalType": "address",
          "name": "to",
          "type": "address"
        },
        {
          "internalType": "uint256",
          "name": "id",
          "type": "uint256"
        },
        {
          "internalType": "uint256",
          "name": "value",
          "type": "uint256"
        },
        {
          "internalType": "bytes",
          "name": "data",
          "type": "bytes"
        }
      ],
      "name": "safeTransferFrom",
      "outputs": [],
      "stateMutability": "nonpayable",
      "type": "function"
    },
    {
      "inputs": [
        {
          "internalType": "address",
          "name": "operator",
          "type": "address"
        },
        {
          "internalType": "bool",
          "name": "approved",
          "type": "bool"
        }
      ],
      "name": "setApprovalForAll",
      "outputs": [],
      "stateMutability": "nonpayable",
      "type": "function"
    },
    {
      "inputs": [
        {
          "internalType": "address",
          "name": "_newFactoryAddress",
          "type": "address"
        }
      ],
      "name": "setFactoryAddress",
      "outputs": [],
      "stateMutability": "nonpayable",
      "type": "function"
    },
    {
      "inputs": [
        {
          "internalType": "bytes4",
          "name": "interfaceId",
          "type": "bytes4"
        }
      ],
      "name": "supportsInterface",
      "outputs": [
        {
          "internalType": "bool",
          "name": "",
          "type": "bool"
        }
      ],
      "stateMutability": "view",
      "type": "function"
    },
    {
      "inputs": [],
      "name": "symbol",
      "outputs": [
        {
          "internalType": "string",
          "name": "",
          "type": "string"
        }
      ],
      "stateMutability": "pure",
      "type": "function"
    },
    {
      "inputs": [
        {
          "internalType": "uint256",
          "name": "",
          "type": "uint256"
        }
      ],
      "name": "tokenPermissions",
      "outputs": [
        {
          "internalType": "address",
          "name": "",
          "type": "address"
        }
      ],
      "stateMutability": "view",
      "type": "function"
    },
    {
      "inputs": [
        {
          "internalType": "uint256",
          "name": "",
          "type": "uint256"
        }
      ],
      "name": "tokenSupply",
      "outputs": [
        {
          "internalType": "uint256",
          "name": "",
          "type": "uint256"
        }
      ],
      "stateMutability": "view",
      "type": "function"
    },
    {
      "inputs": [
        {
          "internalType": "address",
          "name": "newOwner",
          "type": "address"
        }
      ],
      "name": "transferOwnership",
      "outputs": [],
      "stateMutability": "nonpayable",
      "type": "function"
    },
    {
      "inputs": [],
      "name": "unpause",
      "outputs": [],
      "stateMutability": "nonpayable",
      "type": "function"
    },
    {
      "inputs": [
        {
          "internalType": "address",
          "name": "collectionAddress",
          "type": "address"
        },
        {
          "internalType": "string",
          "name": "collectionMetadataUri",
          "type": "string"
        }
      ],
      "name": "updateCollectionMetadata",
      "outputs": [],
      "stateMutability": "nonpayable",
      "type": "function"
    },
    {
      "inputs": [
        {
          "internalType": "address",
          "name": "newImplementation",
          "type": "address"
        },
        {
          "internalType": "bytes",
          "name": "data",
          "type": "bytes"
        }
      ],
      "name": "upgradeToAndCall",
      "outputs": [],
      "stateMutability": "payable",
      "type": "function"
    },
    {
      "inputs": [
        {
          "internalType": "uint256",
          "name": "tokenID",
          "type": "uint256"
        }
      ],
      "name": "uri",
      "outputs": [
        {
          "internalType": "string",
          "name": "",
          "type": "string"
        }
      ],
      "stateMutability": "view",
      "type": "function"
    }
  ],
  "bytecode": "0x60a06040523073ffffffffffffffffffffffffffffffffffffffff1660809073ffffffffffffffffffffffffffffffffffffffff1681525034801561004357600080fd5b5060805161513161006d6000396000818161232e01528181612383015261253e01526151316000f3fe6080604052600436106101d75760003560e01c80637d8ef53011610102578063abae977f11610095578063c345a5ac11610064578063c345a5ac146106b3578063e985e9c5146106dc578063f242432a14610719578063f2fde38b14610742576101d7565b8063abae977f146105d1578063ad3cb1cc1461060e578063adde18b014610639578063b31985c214610676576101d7565b806395d89b41116100d157806395d89b41146105245780639dc29fac1461054f578063a12ef25e14610578578063a22cb465146105a8576101d7565b80637d8ef5301461049057806383c17c55146104b95780638456cb59146104e25780638da5cb5b146104f9576101d7565b80633f4ba83a1161017a57806352d1902d1161014957806352d1902d146103fa5780635c975abb14610425578063715018a614610450578063727ccbf314610467576101d7565b80633f4ba83a14610361578063485cc955146103785780634e1273f4146103a15780634f1ef286146103de576101d7565b80630e89341c116101b65780630e89341c146102815780632693ebf2146102be5780632eb2c2d6146102fb578063350293a114610324576101d7565b8062fdd58e146101dc57806301ffc9a71461021957806306fdde0314610256575b600080fd5b3480156101e857600080fd5b5061020360048036038101906101fe9190613a68565b61076b565b6040516102109190613ab7565b60405180910390f35b34801561022557600080fd5b50610240600480360381019061023b9190613b2a565b6107d4565b60405161024d9190613b72565b60405180910390f35b34801561026257600080fd5b5061026b6107e6565b6040516102789190613c1d565b60405180910390f35b34801561028d57600080fd5b506102a860048036038101906102a39190613c3f565b610823565b6040516102b59190613c1d565b60405180910390f35b3480156102ca57600080fd5b506102e560048036038101906102e09190613c3f565b6108c8565b6040516102f29190613ab7565b60405180910390f35b34801561030757600080fd5b50610322600480360381019061031d9190613e69565b6108e0565b005b34801561033057600080fd5b5061034b60048036038101906103469190613c3f565b610988565b6040516103589190613f47565b60405180910390f35b34801561036d57600080fd5b506103766109bb565b005b34801561038457600080fd5b5061039f600480360381019061039a9190613f62565b6109cd565b005b3480156103ad57600080fd5b506103c860048036038101906103c39190614065565b610bbe565b6040516103d5919061419b565b60405180910390f35b6103f860048036038101906103f391906141bd565b610ccd565b005b34801561040657600080fd5b5061040f610cec565b60405161041c9190614232565b60405180910390f35b34801561043157600080fd5b5061043a610d1f565b6040516104479190613b72565b60405180910390f35b34801561045c57600080fd5b50610465610d44565b005b34801561047357600080fd5b5061048e600480360381019061048991906142a8565b610d58565b005b34801561049c57600080fd5b506104b760048036038101906104b2919061435c565b61102a565b005b3480156104c557600080fd5b506104e060048036038101906104db91906143e9565b611348565b005b3480156104ee57600080fd5b506104f7611394565b005b34801561050557600080fd5b5061050e6113a6565b60405161051b9190613f47565b60405180910390f35b34801561053057600080fd5b506105396113de565b6040516105469190613c1d565b60405180910390f35b34801561055b57600080fd5b5061057660048036038101906105719190613a68565b61141b565b005b610592600480360381019061058d9190613f62565b61164d565b60405161059f9190613c1d565b60405180910390f35b3480156105b457600080fd5b506105cf60048036038101906105ca9190614416565b611a43565b005b3480156105dd57600080fd5b506105f860048036038101906105f39190613c3f565b611a59565b6040516106059190613f47565b60405180910390f35b34801561061a57600080fd5b50610623611a8c565b6040516106309190613c1d565b60405180910390f35b34801561064557600080fd5b50610660600480360381019061065b91906143e9565b611ac5565b60405161066d9190613ab7565b60405180910390f35b34801561068257600080fd5b5061069d60048036038101906106989190613c3f565b611add565b6040516106aa9190613f47565b60405180910390f35b3480156106bf57600080fd5b506106da60048036038101906106d59190614456565b611b10565b005b3480156106e857600080fd5b5061070360048036038101906106fe9190613f62565b611dad565b6040516107109190613b72565b60405180910390f35b34801561072557600080fd5b50610740600480360381019061073b91906144b6565b611e4f565b005b34801561074e57600080fd5b50610769600480360381019061076491906143e9565b611ef7565b005b600080610776611f7d565b905080600001600084815260200190815260200160002060008573ffffffffffffffffffffffffffffffffffffffff1673ffffffffffffffffffffffffffffffffffffffff1681526020019081526020016000205491505092915050565b60006107df82611fa5565b9050919050565b60606040518060400160405280601a81526020017f566572736f20436f6c6c656374696f6e73205265676973747279000000000000815250905090565b60606004600083815260200190815260200160002080546108439061457c565b80601f016020809104026020016040519081016040528092919081815260200182805461086f9061457c565b80156108bc5780601f10610891576101008083540402835291602001916108bc565b820191906000526020600020905b81548152906001019060200180831161089f57829003601f168201915b50505050509050919050565b60056020528060005260406000206000915090505481565b60006108ea612087565b90508073ffffffffffffffffffffffffffffffffffffffff168673ffffffffffffffffffffffffffffffffffffffff161415801561092f575061092d8682611dad565b155b156109735780866040517fe237d92200000000000000000000000000000000000000000000000000000000815260040161096a9291906145ad565b60405180910390fd5b610980868686868661208f565b505050505050565b60076020528060005260406000206000915054906101000a900473ffffffffffffffffffffffffffffffffffffffff1681565b6109c3612187565b6109cb61220e565b565b60006109d7612280565b905060008160000160089054906101000a900460ff1615905060008260000160009054906101000a900467ffffffffffffffff1690506000808267ffffffffffffffff16148015610a255750825b9050600060018367ffffffffffffffff16148015610a5a575060003073ffffffffffffffffffffffffffffffffffffffff163b145b905081158015610a68575080155b15610a9f576040517ff92ee8a900000000000000000000000000000000000000000000000000000000815260040160405180910390fd5b60018560000160006101000a81548167ffffffffffffffff021916908367ffffffffffffffff1602179055508315610aef5760018560000160086101000a81548160ff0219169083151502179055505b610af8876122a8565b610b10604051806020016040528060008152506122bc565b610b186122d0565b85600160006101000a81548173ffffffffffffffffffffffffffffffffffffffff021916908373ffffffffffffffffffffffffffffffffffffffff1602179055508315610bb55760008560000160086101000a81548160ff0219169083151502179055507fc7f505b2f371ae2175ee4913f4499e1f2633a7b5936321eed1cdaeb6115181d26001604051610bac919061462f565b60405180910390a15b50505050505050565b60608151835114610c0a57815183516040517f5b059991000000000000000000000000000000000000000000000000000000008152600401610c0192919061464a565b60405180910390fd5b6000835167ffffffffffffffff811115610c2757610c26613c71565b5b604051908082528060200260200182016040528015610c555781602001602082028036833780820191505090505b50905060005b8451811015610cc257610c92610c7a828761230490919063ffffffff16565b610c8d838761231890919063ffffffff16565b61076b565b828281518110610ca557610ca4614673565b5b60200260200101818152505080610cbb906146d1565b9050610c5b565b508091505092915050565b610cd561232c565b610cde82612412565b610ce8828261241d565b5050565b6000610cf661253c565b7f360894a13ba1a3210667c828492db98dca3e2076cc3735a920a3ca505d382bbc60001b905090565b600080610d2a6125c3565b90508060000160009054906101000a900460ff1691505090565b610d4c612187565b610d5660006125eb565b565b610d606126c2565b600160009054906101000a900473ffffffffffffffffffffffffffffffffffffffff1673ffffffffffffffffffffffffffffffffffffffff163373ffffffffffffffffffffffffffffffffffffffff161480610dee5750610dbf6113a6565b73ffffffffffffffffffffffffffffffffffffffff163373ffffffffffffffffffffffffffffffffffffffff16145b610e2d576040517f08c379a0000000000000000000000000000000000000000000000000000000008152600401610e2490614765565b60405180910390fd5b600080815480929190610e3f906146d1565b9190505550600080549050816006600083815260200190815260200160002060006101000a81548173ffffffffffffffffffffffffffffffffffffffff021916908373ffffffffffffffffffffffffffffffffffffffff160217905550846003600083815260200190815260200160002060006101000a81548173ffffffffffffffffffffffffffffffffffffffff021916908373ffffffffffffffffffffffffffffffffffffffff16021790555080600260008773ffffffffffffffffffffffffffffffffffffffff1673ffffffffffffffffffffffffffffffffffffffff16815260200190815260200160002081905550610f4e8682600160405180602001604052806000815250612703565b610f9c8185858080601f016020809104026020016040519081016040528093929190818152602001838380828437600081840152601f19601f8201169050808301925050505050505061279c565b610fea8185858080601f016020809104026020016040519081016040528093929190818152602001838380828437600081840152601f19601f820116905080830192505050505050506127c1565b506001600560008381526020019081526020016000205461100b9190614785565b6005600083815260200190815260200160002081905550505050505050565b6110326126c2565b600160009054906101000a900473ffffffffffffffffffffffffffffffffffffffff1673ffffffffffffffffffffffffffffffffffffffff163373ffffffffffffffffffffffffffffffffffffffff1614806110c057506110916113a6565b73ffffffffffffffffffffffffffffffffffffffff163373ffffffffffffffffffffffffffffffffffffffff16145b6110ff576040517f08c379a00000000000000000000000000000000000000000000000000000000081526004016110f690614765565b60405180910390fd5b60008690508073ffffffffffffffffffffffffffffffffffffffff166391d148547f44a854cabd360644e908fcd642b33fedfb60c399d7b1e7e2051275f0b09b0be5336040518363ffffffff1660e01b815260040161115f9291906147b9565b602060405180830381865afa15801561117c573d6000803e3d6000fd5b505050506040513d601f19601f820116820180604052508101906111a091906147f7565b6111df576040517f08c379a00000000000000000000000000000000000000000000000000000000081526004016111d690614870565b60405180910390fd5b6000600260008973ffffffffffffffffffffffffffffffffffffffff1673ffffffffffffffffffffffffffffffffffffffff168152602001908152602001600020549050600073ffffffffffffffffffffffffffffffffffffffff166007600083815260200190815260200160002060009054906101000a900473ffffffffffffffffffffffffffffffffffffffff1673ffffffffffffffffffffffffffffffffffffffff16146112c5576040517f08c379a00000000000000000000000000000000000000000000000000000000081526004016112bc906148dc565b60405180910390fd5b60008790508073ffffffffffffffffffffffffffffffffffffffff16630bc917c08389878a8a6040518663ffffffff1660e01b815260040161130b9594939291906148fc565b600060405180830381600087803b15801561132557600080fd5b505af1158015611339573d6000803e3d6000fd5b50505050505050505050505050565b611350612187565b80600160006101000a81548173ffffffffffffffffffffffffffffffffffffffff021916908373ffffffffffffffffffffffffffffffffffffffff16021790555050565b61139c612187565b6113a46128eb565b565b6000806113b161295d565b90508060000160009054906101000a900473ffffffffffffffffffffffffffffffffffffffff1691505090565b60606040518060400160405280600381526020017f5643520000000000000000000000000000000000000000000000000000000000815250905090565b6114236126c2565b6000600260008473ffffffffffffffffffffffffffffffffffffffff1673ffffffffffffffffffffffffffffffffffffffff1681526020019081526020016000205490506000548111156114ac576040517f08c379a00000000000000000000000000000000000000000000000000000000081526004016114a39061499b565b60405180910390fd5b816114b7338361076b565b10156114f8576040517f08c379a00000000000000000000000000000000000000000000000000000000081526004016114ef90614a07565b60405180910390fd5b600073ffffffffffffffffffffffffffffffffffffffff166007600083815260200190815260200160002060009054906101000a900473ffffffffffffffffffffffffffffffffffffffff1673ffffffffffffffffffffffffffffffffffffffff16146116065760006007600083815260200190815260200160002060009054906101000a900473ffffffffffffffffffffffffffffffffffffffff1690508073ffffffffffffffffffffffffffffffffffffffff1663eb111ce383856040518363ffffffff1660e01b81526004016115d292919061464a565b600060405180830381600087803b1580156115ec57600080fd5b505af1158015611600573d6000803e3d6000fd5b50505050505b600160056000838152602001908152602001600020546116269190614a27565b6005600083815260200190815260200160002081905550611648338284612985565b505050565b60606116576126c2565b6000600260008573ffffffffffffffffffffffffffffffffffffffff1673ffffffffffffffffffffffffffffffffffffffff1681526020019081526020016000205490506000548111156116e0576040517f08c379a00000000000000000000000000000000000000000000000000000000081526004016116d79061499b565b60405180910390fd5b60008490508073ffffffffffffffffffffffffffffffffffffffff1663c47cb4b2856040518263ffffffff1660e01b815260040161171e9190613f47565b602060405180830381865afa15801561173b573d6000803e3d6000fd5b505050506040513d601f19601f8201168201806040525081019061175f91906147f7565b61179e576040517f08c379a000000000000000000000000000000000000000000000000000000000815260040161179590614aa7565b60405180910390fd5b600073ffffffffffffffffffffffffffffffffffffffff166007600084815260200190815260200160002060009054906101000a900473ffffffffffffffffffffffffffffffffffffffff1673ffffffffffffffffffffffffffffffffffffffff161461194a5760006007600084815260200190815260200160002060009054906101000a900473ffffffffffffffffffffffffffffffffffffffff1690508073ffffffffffffffffffffffffffffffffffffffff166367e2cafd30856040518363ffffffff1660e01b8152600401611878929190614ac7565b602060405180830381865afa158015611895573d6000803e3d6000fd5b505050506040513d601f19601f820116820180604052508101906118b99190614b05565b6005600085815260200190815260200160002054106118d757600080fd5b8073ffffffffffffffffffffffffffffffffffffffff1663e8e2d37c34856001896040518563ffffffff1660e01b815260040161191693929190614b63565b6000604051808303818588803b15801561192f57600080fd5b505af1158015611943573d6000803e3d6000fd5b5050505050505b6119668483600160405180602001604052806000815250612703565b600160056000848152602001908152602001600020546119869190614785565b60056000848152602001908152602001600020819055506004600083815260200190815260200160002080546119bb9061457c565b80601f01602080910402602001604051908101604052809291908181526020018280546119e79061457c565b8015611a345780601f10611a0957610100808354040283529160200191611a34565b820191906000526020600020905b815481529060010190602001808311611a1757829003601f168201915b50505050509250505092915050565b611a55611a4e612087565b8383612a2c565b5050565b60036020528060005260406000206000915054906101000a900473ffffffffffffffffffffffffffffffffffffffff1681565b6040518060400160405280600581526020017f352e302e3000000000000000000000000000000000000000000000000000000081525081565b60026020528060005260406000206000915090505481565b60066020528060005260406000206000915054906101000a900473ffffffffffffffffffffffffffffffffffffffff1681565b611b186126c2565b600160009054906101000a900473ffffffffffffffffffffffffffffffffffffffff1673ffffffffffffffffffffffffffffffffffffffff163373ffffffffffffffffffffffffffffffffffffffff161480611ba65750611b776113a6565b73ffffffffffffffffffffffffffffffffffffffff163373ffffffffffffffffffffffffffffffffffffffff16145b611be5576040517f08c379a0000000000000000000000000000000000000000000000000000000008152600401611bdc90614765565b60405180910390fd5b60008390508073ffffffffffffffffffffffffffffffffffffffff166391d148547f44a854cabd360644e908fcd642b33fedfb60c399d7b1e7e2051275f0b09b0be5336040518363ffffffff1660e01b8152600401611c459291906147b9565b602060405180830381865afa158015611c62573d6000803e3d6000fd5b505050506040513d601f19601f82011682018060405250810190611c8691906147f7565b611cc5576040517f08c379a0000000000000000000000000000000000000000000000000000000008152600401611cbc90614870565b60405180910390fd5b6000600260008673ffffffffffffffffffffffffffffffffffffffff1673ffffffffffffffffffffffffffffffffffffffff168152602001908152602001600020549050611d578185858080601f016020809104026020016040519081016040528093929190818152602001838380828437600081840152601f19601f8201169050808301925050505050505061279c565b611da58185858080601f016020809104026020016040519081016040528093929190818152602001838380828437600081840152601f19601f820116905080830192505050505050506127c1565b505050505050565b600080611db8611f7d565b90508060010160008573ffffffffffffffffffffffffffffffffffffffff1673ffffffffffffffffffffffffffffffffffffffff16815260200190815260200160002060008473ffffffffffffffffffffffffffffffffffffffff1673ffffffffffffffffffffffffffffffffffffffff16815260200190815260200160002060009054906101000a900460ff1691505092915050565b6000611e59612087565b90508073ffffffffffffffffffffffffffffffffffffffff168673ffffffffffffffffffffffffffffffffffffffff1614158015611e9e5750611e9c8682611dad565b155b15611ee25780866040517fe237d922000000000000000000000000000000000000000000000000000000008152600401611ed99291906145ad565b60405180910390fd5b611eef8686868686612bab565b505050505050565b611eff612187565b600073ffffffffffffffffffffffffffffffffffffffff168173ffffffffffffffffffffffffffffffffffffffff1603611f715760006040517f1e4fbdf7000000000000000000000000000000000000000000000000000000008152600401611f689190613f47565b60405180910390fd5b611f7a816125eb565b50565b60007f88be536d5240c274a3b1d3a1be54482fd9caa294f08c62a7cde569f49a3c4500905090565b60007fd9b67a26000000000000000000000000000000000000000000000000000000007bffffffffffffffffffffffffffffffffffffffffffffffffffffffff1916827bffffffffffffffffffffffffffffffffffffffffffffffffffffffff1916148061207057507f0e89341c000000000000000000000000000000000000000000000000000000007bffffffffffffffffffffffffffffffffffffffffffffffffffffffff1916827bffffffffffffffffffffffffffffffffffffffffffffffffffffffff1916145b80612080575061207f82612cb6565b5b9050919050565b600033905090565b600073ffffffffffffffffffffffffffffffffffffffff168473ffffffffffffffffffffffffffffffffffffffff16036121015760006040517f57f447ce0000000000000000000000000000000000000000000000000000000081526004016120f89190613f47565b60405180910390fd5b600073ffffffffffffffffffffffffffffffffffffffff168573ffffffffffffffffffffffffffffffffffffffff16036121735760006040517f01a8351400000000000000000000000000000000000000000000000000000000815260040161216a9190613f47565b60405180910390fd5b6121808585858585612d20565b5050505050565b61218f612087565b73ffffffffffffffffffffffffffffffffffffffff166121ad6113a6565b73ffffffffffffffffffffffffffffffffffffffff161461220c576121d0612087565b6040517f118cdaa70000000000000000000000000000000000000000000000000000000081526004016122039190613f47565b60405180910390fd5b565b612216612dd2565b60006122206125c3565b905060008160000160006101000a81548160ff0219169083151502179055507f5db9ee0a495bf2e6ff9c91a7834c1ba4fdd244a5e8aa4e537bd38aeae4b073aa612268612087565b6040516122759190613f47565b60405180910390a150565b60007ff0c57e16840df040f15088dc2f81fe391c3923bec73e23a9662efc9c229c6a00905090565b6122b0612e12565b6122b981612e52565b50565b6122c4612e12565b6122cd81612ed8565b50565b6122d8612e12565b60006122e26125c3565b905060008160000160006101000a81548160ff02191690831515021790555050565b600060208202602084010151905092915050565b600060208202602084010151905092915050565b7f000000000000000000000000000000000000000000000000000000000000000073ffffffffffffffffffffffffffffffffffffffff163073ffffffffffffffffffffffffffffffffffffffff1614806123d957507f000000000000000000000000000000000000000000000000000000000000000073ffffffffffffffffffffffffffffffffffffffff166123c0612eec565b73ffffffffffffffffffffffffffffffffffffffff1614155b15612410576040517fe07c8dba00000000000000000000000000000000000000000000000000000000815260040160405180910390fd5b565b61241a612187565b50565b8173ffffffffffffffffffffffffffffffffffffffff166352d1902d6040518163ffffffff1660e01b8152600401602060405180830381865afa92505050801561248557506040513d601f19601f820116820180604052508101906124829190614bc6565b60015b6124c657816040517f4c9c8ce30000000000000000000000000000000000000000000000000000000081526004016124bd9190613f47565b60405180910390fd5b7f360894a13ba1a3210667c828492db98dca3e2076cc3735a920a3ca505d382bbc60001b811461252d57806040517faa1d49a40000000000000000000000000000000000000000000000000000000081526004016125249190614232565b60405180910390fd5b6125378383612f43565b505050565b7f000000000000000000000000000000000000000000000000000000000000000073ffffffffffffffffffffffffffffffffffffffff163073ffffffffffffffffffffffffffffffffffffffff16146125c1576040517fe07c8dba00000000000000000000000000000000000000000000000000000000815260040160405180910390fd5b565b60007fcd5ed15c6e187e77e9aee88184c21f4f2182ab5827cb3b7e07fbedcd63f03300905090565b60006125f561295d565b905060008160000160009054906101000a900473ffffffffffffffffffffffffffffffffffffffff169050828260000160006101000a81548173ffffffffffffffffffffffffffffffffffffffff021916908373ffffffffffffffffffffffffffffffffffffffff1602179055508273ffffffffffffffffffffffffffffffffffffffff168173ffffffffffffffffffffffffffffffffffffffff167f8be0079c531659141344cd1fd0a4f28419497f9722a3daafe3b4186f6b6457e060405160405180910390a3505050565b6126ca610d1f565b15612701576040517fd93c066500000000000000000000000000000000000000000000000000000000815260040160405180910390fd5b565b600073ffffffffffffffffffffffffffffffffffffffff168473ffffffffffffffffffffffffffffffffffffffff16036127755760006040517f57f447ce00000000000000000000000000000000000000000000000000000000815260040161276c9190613f47565b60405180910390fd5b6000806127828585612fb6565b91509150612794600087848487612d20565b505050505050565b806004600084815260200190815260200160002090816127bc9190614d95565b505050565b606060146004600085815260200190815260200160002080546127e39061457c565b90501115612826576040517f08c379a000000000000000000000000000000000000000000000000000000000815260040161281d90614eb3565b60405180910390fd5b816004600085815260200190815260200160002090816128469190614d95565b506004600084815260200190815260200160002080546128659061457c565b80601f01602080910402602001604051908101604052809291908181526020018280546128919061457c565b80156128de5780601f106128b3576101008083540402835291602001916128de565b820191906000526020600020905b8154815290600101906020018083116128c157829003601f168201915b5050505050905092915050565b6128f36126c2565b60006128fd6125c3565b905060018160000160006101000a81548160ff0219169083151502179055507f62e78cea01bee320cd4e420270b5ea74000d11b0c9f74754ebdbfc544b05a258612945612087565b6040516129529190613f47565b60405180910390a150565b60007f9016d09d72d40fdae2fd8ceac6b6234c7706214fd39c1cd1e609a0528c199300905090565b600073ffffffffffffffffffffffffffffffffffffffff168373ffffffffffffffffffffffffffffffffffffffff16036129f75760006040517f01a835140000000000000000000000000000000000000000000000000000000081526004016129ee9190613f47565b60405180910390fd5b600080612a048484612fb6565b91509150612a25856000848460405180602001604052806000815250612d20565b5050505050565b6000612a36611f7d565b9050600073ffffffffffffffffffffffffffffffffffffffff168373ffffffffffffffffffffffffffffffffffffffff1603612aaa5760006040517fced3e100000000000000000000000000000000000000000000000000000000008152600401612aa19190613f47565b60405180910390fd5b818160010160008673ffffffffffffffffffffffffffffffffffffffff1673ffffffffffffffffffffffffffffffffffffffff16815260200190815260200160002060008573ffffffffffffffffffffffffffffffffffffffff1673ffffffffffffffffffffffffffffffffffffffff16815260200190815260200160002060006101000a81548160ff0219169083151502179055508273ffffffffffffffffffffffffffffffffffffffff168473ffffffffffffffffffffffffffffffffffffffff167f17307eab39ab6107e8899845ad3d59bd9653f200f220920489ca2b5937696c3184604051612b9d9190613b72565b60405180910390a350505050565b600073ffffffffffffffffffffffffffffffffffffffff168473ffffffffffffffffffffffffffffffffffffffff1603612c1d5760006040517f57f447ce000000000000000000000000000000000000000000000000000000008152600401612c149190613f47565b60405180910390fd5b600073ffffffffffffffffffffffffffffffffffffffff168573ffffffffffffffffffffffffffffffffffffffff1603612c8f5760006040517f01a83514000000000000000000000000000000000000000000000000000000008152600401612c869190613f47565b60405180910390fd5b600080612c9c8585612fb6565b91509150612cad8787848487612d20565b50505050505050565b60007f01ffc9a7000000000000000000000000000000000000000000000000000000007bffffffffffffffffffffffffffffffffffffffffffffffffffffffff1916827bffffffffffffffffffffffffffffffffffffffffffffffffffffffff1916149050919050565b612d2c85858585612fe6565b600073ffffffffffffffffffffffffffffffffffffffff168473ffffffffffffffffffffffffffffffffffffffff1614612dcb576000612d6a612087565b90506001845103612dba576000612d8b60008661231890919063ffffffff16565b90506000612da360008661231890919063ffffffff16565b9050612db38389898585896133aa565b5050612dc9565b612dc881878787878761355e565b5b505b5050505050565b612dda610d1f565b612e10576040517f8dfc202b00000000000000000000000000000000000000000000000000000000815260040160405180910390fd5b565b612e1a613712565b612e50576040517fd7e6bcf800000000000000000000000000000000000000000000000000000000815260040160405180910390fd5b565b612e5a612e12565b600073ffffffffffffffffffffffffffffffffffffffff168173ffffffffffffffffffffffffffffffffffffffff1603612ecc5760006040517f1e4fbdf7000000000000000000000000000000000000000000000000000000008152600401612ec39190613f47565b60405180910390fd5b612ed5816125eb565b50565b612ee0612e12565b612ee981613732565b50565b6000612f1a7f360894a13ba1a3210667c828492db98dca3e2076cc3735a920a3ca505d382bbc60001b613754565b60000160009054906101000a900473ffffffffffffffffffffffffffffffffffffffff16905090565b612f4c8261375e565b8173ffffffffffffffffffffffffffffffffffffffff167fbc7cd75a20ee27fd9adebab32041f755214dbc6bffa90cc0225b39da2e5c2d3b60405160405180910390a2600081511115612fa957612fa3828261382b565b50612fb2565b612fb16138af565b5b5050565b60608060405191506001825283602083015260408201905060018152826020820152604081016040529250929050565b6000612ff0611f7d565b9050815183511461303c57825182516040517f5b05999100000000000000000000000000000000000000000000000000000000815260040161303392919061464a565b60405180910390fd5b6000613046612087565b905060005b8451811015613264576000613069828761231890919063ffffffff16565b90506000613080838761231890919063ffffffff16565b9050600073ffffffffffffffffffffffffffffffffffffffff168973ffffffffffffffffffffffffffffffffffffffff16146131b357600085600001600084815260200190815260200160002060008b73ffffffffffffffffffffffffffffffffffffffff1673ffffffffffffffffffffffffffffffffffffffff1681526020019081526020016000205490508181101561315857898183856040517f03dee4c500000000000000000000000000000000000000000000000000000000815260040161314f9493929190614ed3565b60405180910390fd5b81810386600001600085815260200190815260200160002060008c73ffffffffffffffffffffffffffffffffffffffff1673ffffffffffffffffffffffffffffffffffffffff16815260200190815260200160002081905550505b600073ffffffffffffffffffffffffffffffffffffffff168873ffffffffffffffffffffffffffffffffffffffff1614613251578085600001600084815260200190815260200160002060008a73ffffffffffffffffffffffffffffffffffffffff1673ffffffffffffffffffffffffffffffffffffffff16815260200190815260200160002060008282546132499190614785565b925050819055505b50508061325d906146d1565b905061304b565b50600184510361332357600061328460008661231890919063ffffffff16565b9050600061329c60008661231890919063ffffffff16565b90508673ffffffffffffffffffffffffffffffffffffffff168873ffffffffffffffffffffffffffffffffffffffff168473ffffffffffffffffffffffffffffffffffffffff167fc3d58168c5ae7397731d063d5bbf3d657854427343f4c083240f7aacaa2d0f62858560405161331492919061464a565b60405180910390a450506133a2565b8473ffffffffffffffffffffffffffffffffffffffff168673ffffffffffffffffffffffffffffffffffffffff168273ffffffffffffffffffffffffffffffffffffffff167f4a39dc06d4c0dbc64b70af90fd698a233a518aa5d07e595d983b8c0526c8f7fb8787604051613399929190614f18565b60405180910390a45b505050505050565b60008473ffffffffffffffffffffffffffffffffffffffff163b1115613556578373ffffffffffffffffffffffffffffffffffffffff1663f23a6e6187878686866040518663ffffffff1660e01b815260040161340b959493929190614fa4565b6020604051808303816000875af192505050801561344757506040513d601f19601f820116820180604052508101906134449190615013565b60015b6134cb573d8060008114613477576040519150601f19603f3d011682016040523d82523d6000602084013e61347c565b606091505b5060008151036134c357846040517f57f447ce0000000000000000000000000000000000000000000000000000000081526004016134ba9190613f47565b60405180910390fd5b805181602001fd5b63f23a6e6160e01b7bffffffffffffffffffffffffffffffffffffffffffffffffffffffff1916817bffffffffffffffffffffffffffffffffffffffffffffffffffffffff19161461355457846040517f57f447ce00000000000000000000000000000000000000000000000000000000815260040161354b9190613f47565b60405180910390fd5b505b505050505050565b60008473ffffffffffffffffffffffffffffffffffffffff163b111561370a578373ffffffffffffffffffffffffffffffffffffffff1663bc197c8187878686866040518663ffffffff1660e01b81526004016135bf959493929190615040565b6020604051808303816000875af19250505080156135fb57506040513d601f19601f820116820180604052508101906135f89190615013565b60015b61367f573d806000811461362b576040519150601f19603f3d011682016040523d82523d6000602084013e613630565b606091505b50600081510361367757846040517f57f447ce00000000000000000000000000000000000000000000000000000000815260040161366e9190613f47565b60405180910390fd5b805181602001fd5b63bc197c8160e01b7bffffffffffffffffffffffffffffffffffffffffffffffffffffffff1916817bffffffffffffffffffffffffffffffffffffffffffffffffffffffff19161461370857846040517f57f447ce0000000000000000000000000000000000000000000000000000000081526004016136ff9190613f47565b60405180910390fd5b505b505050505050565b600061371c612280565b60000160089054906101000a900460ff16905090565b600061373c611f7d565b90508181600201908161374f9190614d95565b505050565b6000819050919050565b60008173ffffffffffffffffffffffffffffffffffffffff163b036137ba57806040517f4c9c8ce30000000000000000000000000000000000000000000000000000000081526004016137b19190613f47565b60405180910390fd5b806137e77f360894a13ba1a3210667c828492db98dca3e2076cc3735a920a3ca505d382bbc60001b613754565b60000160006101000a81548173ffffffffffffffffffffffffffffffffffffffff021916908373ffffffffffffffffffffffffffffffffffffffff16021790555050565b60606000808473ffffffffffffffffffffffffffffffffffffffff168460405161385591906150e4565b600060405180830381855af49150503d8060008114613890576040519150601f19603f3d011682016040523d82523d6000602084013e613895565b606091505b50915091506138a58583836138ec565b9250505092915050565b60003411156138ea576040517fb398979f00000000000000000000000000000000000000000000000000000000815260040160405180910390fd5b565b606082613901576138fc8261397b565b613973565b60008251148015613929575060008473ffffffffffffffffffffffffffffffffffffffff163b145b1561396b57836040517f9996b3150000000000000000000000000000000000000000000000000000000081526004016139629190613f47565b60405180910390fd5b819050613974565b5b9392505050565b60008151111561398e5780518082602001fd5b6040517f1425ea4200000000000000000000000000000000000000000000000000000000815260040160405180910390fd5b6000604051905090565b600080fd5b600080fd5b600073ffffffffffffffffffffffffffffffffffffffff82169050919050565b60006139ff826139d4565b9050919050565b613a0f816139f4565b8114613a1a57600080fd5b50565b600081359050613a2c81613a06565b92915050565b6000819050919050565b613a4581613a32565b8114613a5057600080fd5b50565b600081359050613a6281613a3c565b92915050565b60008060408385031215613a7f57613a7e6139ca565b5b6000613a8d85828601613a1d565b9250506020613a9e85828601613a53565b9150509250929050565b613ab181613a32565b82525050565b6000602082019050613acc6000830184613aa8565b92915050565b60007fffffffff0000000000000000000000000000000000000000000000000000000082169050919050565b613b0781613ad2565b8114613b1257600080fd5b50565b600081359050613b2481613afe565b92915050565b600060208284031215613b4057613b3f6139ca565b5b6000613b4e84828501613b15565b91505092915050565b60008115159050919050565b613b6c81613b57565b82525050565b6000602082019050613b876000830184613b63565b92915050565b600081519050919050565b600082825260208201905092915050565b60005b83811015613bc7578082015181840152602081019050613bac565b60008484015250505050565b6000601f19601f8301169050919050565b6000613bef82613b8d565b613bf98185613b98565b9350613c09818560208601613ba9565b613c1281613bd3565b840191505092915050565b60006020820190508181036000830152613c378184613be4565b905092915050565b600060208284031215613c5557613c546139ca565b5b6000613c6384828501613a53565b91505092915050565b600080fd5b7f4e487b7100000000000000000000000000000000000000000000000000000000600052604160045260246000fd5b613ca982613bd3565b810181811067ffffffffffffffff82111715613cc857613cc7613c71565b5b80604052505050565b6000613cdb6139c0565b9050613ce78282613ca0565b919050565b600067ffffffffffffffff821115613d0757613d06613c71565b5b602082029050602081019050919050565b600080fd5b6000613d30613d2b84613cec565b613cd1565b90508083825260208201905060208402830185811115613d5357613d52613d18565b5b835b81811015613d7c5780613d688882613a53565b845260208401935050602081019050613d55565b5050509392505050565b600082601f830112613d9b57613d9a613c6c565b5b8135613dab848260208601613d1d565b91505092915050565b600080fd5b600067ffffffffffffffff821115613dd457613dd3613c71565b5b613ddd82613bd3565b9050602081019050919050565b82818337600083830152505050565b6000613e0c613e0784613db9565b613cd1565b905082815260208101848484011115613e2857613e27613db4565b5b613e33848285613dea565b509392505050565b600082601f830112613e5057613e4f613c6c565b5b8135613e60848260208601613df9565b91505092915050565b600080600080600060a08688031215613e8557613e846139ca565b5b6000613e9388828901613a1d565b9550506020613ea488828901613a1d565b945050604086013567ffffffffffffffff811115613ec557613ec46139cf565b5b613ed188828901613d86565b935050606086013567ffffffffffffffff811115613ef257613ef16139cf565b5b613efe88828901613d86565b925050608086013567ffffffffffffffff811115613f1f57613f1e6139cf565b5b613f2b88828901613e3b565b9150509295509295909350565b613f41816139f4565b82525050565b6000602082019050613f5c6000830184613f38565b92915050565b60008060408385031215613f7957613f786139ca565b5b6000613f8785828601613a1d565b9250506020613f9885828601613a1d565b9150509250929050565b600067ffffffffffffffff821115613fbd57613fbc613c71565b5b602082029050602081019050919050565b6000613fe1613fdc84613fa2565b613cd1565b9050808382526020820190506020840283018581111561400457614003613d18565b5b835b8181101561402d57806140198882613a1d565b845260208401935050602081019050614006565b5050509392505050565b600082601f83011261404c5761404b613c6c565b5b813561405c848260208601613fce565b91505092915050565b6000806040838503121561407c5761407b6139ca565b5b600083013567ffffffffffffffff81111561409a576140996139cf565b5b6140a685828601614037565b925050602083013567ffffffffffffffff8111156140c7576140c66139cf565b5b6140d385828601613d86565b9150509250929050565b600081519050919050565b600082825260208201905092915050565b6000819050602082019050919050565b61411281613a32565b82525050565b60006141248383614109565b60208301905092915050565b6000602082019050919050565b6000614148826140dd565b61415281856140e8565b935061415d836140f9565b8060005b8381101561418e5781516141758882614118565b975061418083614130565b925050600181019050614161565b5085935050505092915050565b600060208201905081810360008301526141b5818461413d565b905092915050565b600080604083850312156141d4576141d36139ca565b5b60006141e285828601613a1d565b925050602083013567ffffffffffffffff811115614203576142026139cf565b5b61420f85828601613e3b565b9150509250929050565b6000819050919050565b61422c81614219565b82525050565b60006020820190506142476000830184614223565b92915050565b600080fd5b60008083601f84011261426857614267613c6c565b5b8235905067ffffffffffffffff8111156142855761428461424d565b5b6020830191508360018202830111156142a1576142a0613d18565b5b9250929050565b6000806000806000608086880312156142c4576142c36139ca565b5b60006142d288828901613a1d565b95505060206142e388828901613a1d565b945050604086013567ffffffffffffffff811115614304576143036139cf565b5b61431088828901614252565b9350935050606061432388828901613a1d565b9150509295509295909350565b61433981613b57565b811461434457600080fd5b50565b60008135905061435681614330565b92915050565b60008060008060008060c08789031215614379576143786139ca565b5b600061438789828a01613a1d565b965050602061439889828a01613a1d565b95505060406143a989828a01613a1d565b94505060606143ba89828a01613a53565b93505060806143cb89828a01613a53565b92505060a06143dc89828a01614347565b9150509295509295509295565b6000602082840312156143ff576143fe6139ca565b5b600061440d84828501613a1d565b91505092915050565b6000806040838503121561442d5761442c6139ca565b5b600061443b85828601613a1d565b925050602061444c85828601614347565b9150509250929050565b60008060006040848603121561446f5761446e6139ca565b5b600061447d86828701613a1d565b935050602084013567ffffffffffffffff81111561449e5761449d6139cf565b5b6144aa86828701614252565b92509250509250925092565b600080600080600060a086880312156144d2576144d16139ca565b5b60006144e088828901613a1d565b95505060206144f188828901613a1d565b945050604061450288828901613a53565b935050606061451388828901613a53565b925050608086013567ffffffffffffffff811115614534576145336139cf565b5b61454088828901613e3b565b9150509295509295909350565b7f4e487b7100000000000000000000000000000000000000000000000000000000600052602260045260246000fd5b6000600282049050600182168061459457607f821691505b6020821081036145a7576145a661454d565b5b50919050565b60006040820190506145c26000830185613f38565b6145cf6020830184613f38565b9392505050565b6000819050919050565b600067ffffffffffffffff82169050919050565b6000819050919050565b600061461961461461460f846145d6565b6145f4565b6145e0565b9050919050565b614629816145fe565b82525050565b60006020820190506146446000830184614620565b92915050565b600060408201905061465f6000830185613aa8565b61466c6020830184613aa8565b9392505050565b7f4e487b7100000000000000000000000000000000000000000000000000000000600052603260045260246000fd5b7f4e487b7100000000000000000000000000000000000000000000000000000000600052601160045260246000fd5b60006146dc82613a32565b91507fffffffffffffffffffffffffffffffffffffffffffffffffffffffffffffffff820361470e5761470d6146a2565b5b600182019050919050565b7f6f6e6c7920666163746f7279206f72206f776e657220616c6c6f776564000000600082015250565b600061474f601d83613b98565b915061475a82614719565b602082019050919050565b6000602082019050818103600083015261477e81614742565b9050919050565b600061479082613a32565b915061479b83613a32565b92508282019050808211156147b3576147b26146a2565b5b92915050565b60006040820190506147ce6000830185614223565b6147db6020830184613f38565b9392505050565b6000815190506147f181614330565b92915050565b60006020828403121561480d5761480c6139ca565b5b600061481b848285016147e2565b91505092915050565b7f6f6e6c79206d6f64657261746f727320616c6c6f776564000000000000000000600082015250565b600061485a601783613b98565b915061486582614824565b602082019050919050565b600060208201905081810360008301526148898161484d565b9050919050565b7f416c7265616479206c6973746564000000000000000000000000000000000000600082015250565b60006148c6600e83613b98565b91506148d182614890565b602082019050919050565b600060208201905081810360008301526148f5816148b9565b9050919050565b600060a0820190506149116000830188613aa8565b61491e6020830187613f38565b61492b6040830186613b63565b6149386060830185613aa8565b6149456080830184613aa8565b9695505050505050565b7f546f6b656e20646f6573206e6f74206578697374730000000000000000000000600082015250565b6000614985601583613b98565b91506149908261494f565b602082019050919050565b600060208201905081810360008301526149b481614978565b9050919050565b7f496e736966696369656e742062616c616e636500000000000000000000000000600082015250565b60006149f1601383613b98565b91506149fc826149bb565b602082019050919050565b60006020820190508181036000830152614a20816149e4565b9050919050565b6000614a3282613a32565b9150614a3d83613a32565b9250828203905081811115614a5557614a546146a2565b5b92915050565b7f6e6f7420616c6c6f776564000000000000000000000000000000000000000000600082015250565b6000614a91600b83613b98565b9150614a9c82614a5b565b602082019050919050565b60006020820190508181036000830152614ac081614a84565b9050919050565b6000604082019050614adc6000830185613f38565b614ae96020830184613aa8565b9392505050565b600081519050614aff81613a3c565b92915050565b600060208284031215614b1b57614b1a6139ca565b5b6000614b2984828501614af0565b91505092915050565b6000614b4d614b48614b43846145d6565b6145f4565b613a32565b9050919050565b614b5d81614b32565b82525050565b6000606082019050614b786000830186613aa8565b614b856020830185614b54565b614b926040830184613f38565b949350505050565b614ba381614219565b8114614bae57600080fd5b50565b600081519050614bc081614b9a565b92915050565b600060208284031215614bdc57614bdb6139ca565b5b6000614bea84828501614bb1565b91505092915050565b60008190508160005260206000209050919050565b60006020601f8301049050919050565b600082821b905092915050565b600060088302614c557fffffffffffffffffffffffffffffffffffffffffffffffffffffffffffffffff82614c18565b614c5f8683614c18565b95508019841693508086168417925050509392505050565b6000614c92614c8d614c8884613a32565b6145f4565b613a32565b9050919050565b6000819050919050565b614cac83614c77565b614cc0614cb882614c99565b848454614c25565b825550505050565b600090565b614cd5614cc8565b614ce0818484614ca3565b505050565b5b81811015614d0457614cf9600082614ccd565b600181019050614ce6565b5050565b601f821115614d4957614d1a81614bf3565b614d2384614c08565b81016020851015614d32578190505b614d46614d3e85614c08565b830182614ce5565b50505b505050565b600082821c905092915050565b6000614d6c60001984600802614d4e565b1980831691505092915050565b6000614d858383614d5b565b9150826002028217905092915050565b614d9e82613b8d565b67ffffffffffffffff811115614db757614db6613c71565b5b614dc1825461457c565b614dcc828285614d08565b600060209050601f831160018114614dff5760008415614ded578287015190505b614df78582614d79565b865550614e5f565b601f198416614e0d86614bf3565b60005b82811015614e3557848901518255600182019150602085019450602081019050614e10565b86831015614e525784890151614e4e601f891682614d5b565b8355505b6001600288020188555050505b505050505050565b7f55524920616c7265616479207365740000000000000000000000000000000000600082015250565b6000614e9d600f83613b98565b9150614ea882614e67565b602082019050919050565b60006020820190508181036000830152614ecc81614e90565b9050919050565b6000608082019050614ee86000830187613f38565b614ef56020830186613aa8565b614f026040830185613aa8565b614f0f6060830184613aa8565b95945050505050565b60006040820190508181036000830152614f32818561413d565b90508181036020830152614f46818461413d565b90509392505050565b600081519050919050565b600082825260208201905092915050565b6000614f7682614f4f565b614f808185614f5a565b9350614f90818560208601613ba9565b614f9981613bd3565b840191505092915050565b600060a082019050614fb96000830188613f38565b614fc66020830187613f38565b614fd36040830186613aa8565b614fe06060830185613aa8565b8181036080830152614ff28184614f6b565b90509695505050505050565b60008151905061500d81613afe565b92915050565b600060208284031215615029576150286139ca565b5b600061503784828501614ffe565b91505092915050565b600060a0820190506150556000830188613f38565b6150626020830187613f38565b8181036040830152615074818661413d565b90508181036060830152615088818561413d565b9050818103608083015261509c8184614f6b565b90509695505050505050565b600081905092915050565b60006150be82614f4f565b6150c881856150a8565b93506150d8818560208601613ba9565b80840191505092915050565b60006150f082846150b3565b91508190509291505056fea264697066735822122023df2adc8ae7f1c6b92ea57a8d98bb6ac454c011145a9ef356ac0f0bc8e31afe64736f6c63430008140033",
  "linkReferences": {},
  "deployedLinkReferences": {}
}