{
  "_format": "hh-sol-artifact-1",
  "contractName": "CollectionFactory",
  "sourceName": "contracts/collections/factory/CollectionFactory.sol",
  "abi": [
    {
      "inputs": [
        {
          "internalType": "address",
          "name": "_initialImplementation",
          "type": "address"
        },
        {
          "internalType": "address",
          "name": "_owner",
          "type": "address"
        }
      ],
      "stateMutability": "nonpayable",
      "type": "constructor"
    },
    {
      "inputs": [],
      "name": "EnforcedPause",
      "type": "error"
    },
    {
      "inputs": [],
      "name": "ExpectedPause",
      "type": "error"
    },
    {
      "inputs": [
        {
          "internalType": "address",
          "name": "owner",
          "type": "address"
        }
      ],
      "name": "OwnableInvalidOwner",
      "type": "error"
    },
    {
      "inputs": [
        {
          "internalType": "address",
          "name": "account",
          "type": "address"
        }
      ],
      "name": "OwnableUnauthorizedAccount",
      "type": "error"
    },
    {
      "anonymous": false,
      "inputs": [
        {
          "indexed": false,
          "internalType": "address",
          "name": "newCollectionAddress",
          "type": "address"
        },
        {
          "indexed": false,
          "internalType": "address",
          "name": "creator",
          "type": "address"
        },
        {
          "indexed": false,
          "internalType": "string",
          "name": "metadataURI",
          "type": "string"
        }
      ],
      "name": "CollectionCreated",
      "type": "event"
    },
    {
      "anonymous": false,
      "inputs": [
        {
          "indexed": true,
          "internalType": "address",
          "name": "previousOwner",
          "type": "address"
        },
        {
          "indexed": true,
          "internalType": "address",
          "name": "newOwner",
          "type": "address"
        }
      ],
      "name": "OwnershipTransferred",
      "type": "event"
    },
    {
      "anonymous": false,
      "inputs": [
        {
          "indexed": false,
          "internalType": "address",
          "name": "account",
          "type": "address"
        }
      ],
      "name": "Paused",
      "type": "event"
    },
    {
      "anonymous": false,
      "inputs": [
        {
          "indexed": false,
          "internalType": "address",
          "name": "account",
          "type": "address"
        }
      ],
      "name": "Unpaused",
      "type": "event"
    },
    {
      "inputs": [
        {
          "components": [
            {
              "internalType": "string",
              "name": "_collectionName",
              "type": "string"
            },
            {
              "internalType": "string",
              "name": "_collectionMetadataURI",
              "type": "string"
            },
            {
              "internalType": "uint8",
              "name": "_readType",
              "type": "uint8"
            },
            {
              "internalType": "uint8",
              "name": "_writeType",
              "type": "uint8"
            },
            {
              "internalType": "address",
              "name": "_collectionPermissions",
              "type": "address"
            },
            {
              "internalType": "uint256",
              "name": "_minimumBalance",
              "type": "uint256"
            },
            {
              "internalType": "address",
              "name": "_marketAddress",
              "type": "address"
            },
            {
              "internalType": "uint256",
              "name": "_supplyLimit",
              "type": "uint256"
            },
            {
              "internalType": "uint256",
              "name": "_tokenPrice",
              "type": "uint256"
            },
            {
              "internalType": "bool",
              "name": "_isBonded",
              "type": "bool"
            }
          ],
          "internalType": "struct Params.CollectionInitParams",
          "name": "params",
          "type": "tuple"
        }
      ],
      "name": "createCollection",
      "outputs": [
        {
          "internalType": "address",
          "name": "",
          "type": "address"
        }
      ],
      "stateMutability": "nonpayable",
      "type": "function"
    },
    {
      "inputs": [],
      "name": "getBeacon",
      "outputs": [
        {
          "internalType": "address",
          "name": "",
          "type": "address"
        }
      ],
      "stateMutability": "view",
      "type": "function"
    },
    {
      "inputs": [],
      "name": "getImplementation",
      "outputs": [
        {
          "internalType": "address",
          "name": "",
          "type": "address"
        }
      ],
      "stateMutability": "view",
      "type": "function"
    },
    {
      "inputs": [],
      "name": "owner",
      "outputs": [
        {
          "internalType": "address",
          "name": "",
          "type": "address"
        }
      ],
      "stateMutability": "view",
      "type": "function"
    },
    {
      "inputs": [],
      "name": "pause",
      "outputs": [],
      "stateMutability": "nonpayable",
      "type": "function"
    },
    {
      "inputs": [],
      "name": "paused",
      "outputs": [
        {
          "internalType": "bool",
          "name": "",
          "type": "bool"
        }
      ],
      "stateMutability": "view",
      "type": "function"
    },
    {
      "inputs": [],
      "name": "renounceOwnership",
      "outputs": [],
      "stateMutability": "nonpayable",
      "type": "function"
    },
    {
      "inputs": [
        {
          "internalType": "address",
          "name": "_newAddress",
          "type": "address"
        }
      ],
      "name": "setCollectionRegistryAddress",
      "outputs": [],
      "stateMutability": "nonpayable",
      "type": "function"
    },
    {
      "inputs": [
        {
          "internalType": "address",
          "name": "newOwner",
          "type": "address"
        }
      ],
      "name": "transferOwnership",
      "outputs": [],
      "stateMutability": "nonpayable",
      "type": "function"
    },
    {
      "inputs": [],
      "name": "unpause",
      "outputs": [],
      "stateMutability": "nonpayable",
      "type": "function"
    }
  ],
  "bytecode": "0x60a06040523480156200001157600080fd5b5060405162002e9138038062002e91833981810160405281019062000037919062000289565b80600073ffffffffffffffffffffffffffffffffffffffff168173ffffffffffffffffffffffffffffffffffffffff1603620000ad5760006040517f1e4fbdf7000000000000000000000000000000000000000000000000000000008152600401620000a49190620002e1565b60405180910390fd5b620000be816200014d60201b60201c565b5060008060146101000a81548160ff02191690831515021790555081604051620000e89062000211565b620000f49190620002e1565b604051809103906000f08015801562000111573d6000803e3d6000fd5b5073ffffffffffffffffffffffffffffffffffffffff1660808173ffffffffffffffffffffffffffffffffffffffff16815250505050620002fe565b60008060009054906101000a900473ffffffffffffffffffffffffffffffffffffffff169050816000806101000a81548173ffffffffffffffffffffffffffffffffffffffff021916908373ffffffffffffffffffffffffffffffffffffffff1602179055508173ffffffffffffffffffffffffffffffffffffffff168173ffffffffffffffffffffffffffffffffffffffff167f8be0079c531659141344cd1fd0a4f28419497f9722a3daafe3b4186f6b6457e060405160405180910390a35050565b6111ce8062001cc383390190565b600080fd5b600073ffffffffffffffffffffffffffffffffffffffff82169050919050565b6000620002518262000224565b9050919050565b620002638162000244565b81146200026f57600080fd5b50565b600081519050620002838162000258565b92915050565b60008060408385031215620002a357620002a26200021f565b5b6000620002b38582860162000272565b9250506020620002c68582860162000272565b9150509250929050565b620002db8162000244565b82525050565b6000602082019050620002f86000830184620002d0565b92915050565b60805161199b62000328600039600081816101d7015281816102a701526104c9015261199b6000f3fe60806040523480156200001157600080fd5b5060043610620000ac5760003560e01c806376e8d074116200006f57806376e8d074146200012d5780638456cb5914620001635780638da5cb5b146200016f578063aaf10f421462000191578063f2fde38b14620001b357620000ac565b80632d6b3a6b14620000b15780633f4ba83a14620000d3578063501565c814620000df5780635c975abb14620000ff578063715018a61462000121575b600080fd5b620000bb620001d3565b604051620000ca9190620008f2565b60405180910390f35b620000dd620001fb565b005b620000fd6004803603810190620000f7919062000954565b62000211565b005b6200010962000269565b604051620001189190620009a3565b60405180910390f35b6200012b6200027f565b005b6200014b600480360381019062000145919062000d23565b62000297565b6040516200015a9190620008f2565b60405180910390f35b6200016d62000486565b005b620001796200049c565b604051620001889190620008f2565b60405180910390f35b6200019b620004c5565b604051620001aa9190620008f2565b60405180910390f35b620001d16004803603810190620001cb919062000954565b6200055e565b005b60007f0000000000000000000000000000000000000000000000000000000000000000905090565b62000205620005eb565b6200020f6200067b565b565b6200021b620005eb565b62000225620006e3565b80600160006101000a81548173ffffffffffffffffffffffffffffffffffffffff021916908373ffffffffffffffffffffffffffffffffffffffff16021790555050565b60008060149054906101000a900460ff16905090565b62000289620005eb565b62000295600062000727565b565b6000620002a3620006e3565b60007f00000000000000000000000000000000000000000000000000000000000000006387d0dc4060e01b8460000151338660400151876060015188608001518960a00151604051602401620002ff9695949392919062000e1f565b604051602081830303815290604052907bffffffffffffffffffffffffffffffffffffffffffffffffffffffff19166020820180517bffffffffffffffffffffffffffffffffffffffffffffffffffffffff83818316178352505050506040516200036a906200089f565b6200037792919062000ef0565b604051809103906000f08015801562000394573d6000803e3d6000fd5b5090506000600160009054906101000a900473ffffffffffffffffffffffffffffffffffffffff1690508073ffffffffffffffffffffffffffffffffffffffff1663727ccbf33384876020015188608001516040518563ffffffff1660e01b815260040162000407949392919062000f24565b600060405180830381600087803b1580156200042257600080fd5b505af115801562000437573d6000803e3d6000fd5b505050507fa9a63cb75fdf6f638d49c249df7d5b94dd8bb8ac664ca12da7339862b9dd87ae82338660200151604051620004749392919062000f78565b60405180910390a18192505050919050565b62000490620005eb565b6200049a620007eb565b565b60008060009054906101000a900473ffffffffffffffffffffffffffffffffffffffff16905090565b60007f000000000000000000000000000000000000000000000000000000000000000073ffffffffffffffffffffffffffffffffffffffff16635c60da1b6040518163ffffffff1660e01b8152600401602060405180830381865afa15801562000533573d6000803e3d6000fd5b505050506040513d601f19601f8201168201806040525081019062000559919062000fd3565b905090565b62000568620005eb565b600073ffffffffffffffffffffffffffffffffffffffff168173ffffffffffffffffffffffffffffffffffffffff1603620005dd5760006040517f1e4fbdf7000000000000000000000000000000000000000000000000000000008152600401620005d49190620008f2565b60405180910390fd5b620005e88162000727565b50565b620005f562000854565b73ffffffffffffffffffffffffffffffffffffffff16620006156200049c565b73ffffffffffffffffffffffffffffffffffffffff161462000679576200063b62000854565b6040517f118cdaa7000000000000000000000000000000000000000000000000000000008152600401620006709190620008f2565b60405180910390fd5b565b620006856200085c565b60008060146101000a81548160ff0219169083151502179055507f5db9ee0a495bf2e6ff9c91a7834c1ba4fdd244a5e8aa4e537bd38aeae4b073aa620006ca62000854565b604051620006d99190620008f2565b60405180910390a1565b620006ed62000269565b1562000725576040517fd93c066500000000000000000000000000000000000000000000000000000000815260040160405180910390fd5b565b60008060009054906101000a900473ffffffffffffffffffffffffffffffffffffffff169050816000806101000a81548173ffffffffffffffffffffffffffffffffffffffff021916908373ffffffffffffffffffffffffffffffffffffffff1602179055508173ffffffffffffffffffffffffffffffffffffffff168173ffffffffffffffffffffffffffffffffffffffff167f8be0079c531659141344cd1fd0a4f28419497f9722a3daafe3b4186f6b6457e060405160405180910390a35050565b620007f5620006e3565b6001600060146101000a81548160ff0219169083151502179055507f62e78cea01bee320cd4e420270b5ea74000d11b0c9f74754ebdbfc544b05a2586200083b62000854565b6040516200084a9190620008f2565b60405180910390a1565b600033905090565b6200086662000269565b6200089d576040517f8dfc202b00000000000000000000000000000000000000000000000000000000815260040160405180910390fd5b565b610960806200100683390190565b600073ffffffffffffffffffffffffffffffffffffffff82169050919050565b6000620008da82620008ad565b9050919050565b620008ec81620008cd565b82525050565b6000602082019050620009096000830184620008e1565b92915050565b6000604051905090565b600080fd5b600080fd5b6200092e81620008cd565b81146200093a57600080fd5b50565b6000813590506200094e8162000923565b92915050565b6000602082840312156200096d576200096c62000919565b5b60006200097d848285016200093d565b91505092915050565b60008115159050919050565b6200099d8162000986565b82525050565b6000602082019050620009ba600083018462000992565b92915050565b600080fd5b6000601f19601f8301169050919050565b7f4e487b7100000000000000000000000000000000000000000000000000000000600052604160045260246000fd5b62000a1082620009c5565b810181811067ffffffffffffffff8211171562000a325762000a31620009d6565b5b80604052505050565b600062000a476200090f565b905062000a55828262000a05565b919050565b600080fd5b600080fd5b600080fd5b600067ffffffffffffffff82111562000a875762000a86620009d6565b5b62000a9282620009c5565b9050602081019050919050565b82818337600083830152505050565b600062000ac562000abf8462000a69565b62000a3b565b90508281526020810184848401111562000ae45762000ae362000a64565b5b62000af184828562000a9f565b509392505050565b600082601f83011262000b115762000b1062000a5f565b5b813562000b2384826020860162000aae565b91505092915050565b600060ff82169050919050565b62000b448162000b2c565b811462000b5057600080fd5b50565b60008135905062000b648162000b39565b92915050565b6000819050919050565b62000b7f8162000b6a565b811462000b8b57600080fd5b50565b60008135905062000b9f8162000b74565b92915050565b62000bb08162000986565b811462000bbc57600080fd5b50565b60008135905062000bd08162000ba5565b92915050565b6000610140828403121562000bf05762000bef620009c0565b5b62000bfd61014062000a3b565b9050600082013567ffffffffffffffff81111562000c205762000c1f62000a5a565b5b62000c2e8482850162000af9565b600083015250602082013567ffffffffffffffff81111562000c555762000c5462000a5a565b5b62000c638482850162000af9565b602083015250604062000c798482850162000b53565b604083015250606062000c8f8482850162000b53565b606083015250608062000ca5848285016200093d565b60808301525060a062000cbb8482850162000b8e565b60a08301525060c062000cd1848285016200093d565b60c08301525060e062000ce78482850162000b8e565b60e08301525061010062000cfe8482850162000b8e565b6101008301525061012062000d168482850162000bbf565b6101208301525092915050565b60006020828403121562000d3c5762000d3b62000919565b5b600082013567ffffffffffffffff81111562000d5d5762000d5c6200091e565b5b62000d6b8482850162000bd6565b91505092915050565b600081519050919050565b600082825260208201905092915050565b60005b8381101562000db057808201518184015260208101905062000d93565b60008484015250505050565b600062000dc98262000d74565b62000dd5818562000d7f565b935062000de781856020860162000d90565b62000df281620009c5565b840191505092915050565b62000e088162000b2c565b82525050565b62000e198162000b6a565b82525050565b600060c082019050818103600083015262000e3b818962000dbc565b905062000e4c6020830188620008e1565b62000e5b604083018762000dfd565b62000e6a606083018662000dfd565b62000e796080830185620008e1565b62000e8860a083018462000e0e565b979650505050505050565b600081519050919050565b600082825260208201905092915050565b600062000ebc8262000e93565b62000ec8818562000e9e565b935062000eda81856020860162000d90565b62000ee581620009c5565b840191505092915050565b600060408201905062000f076000830185620008e1565b818103602083015262000f1b818462000eaf565b90509392505050565b600060808201905062000f3b6000830187620008e1565b62000f4a6020830186620008e1565b818103604083015262000f5e818562000dbc565b905062000f6f6060830184620008e1565b95945050505050565b600060608201905062000f8f6000830186620008e1565b62000f9e6020830185620008e1565b818103604083015262000fb2818462000dbc565b9050949350505050565b60008151905062000fcd8162000923565b92915050565b60006020828403121562000fec5762000feb62000919565b5b600062000ffc8482850162000fbc565b9150509291505056fe60a060405260405161096038038061096083398181016040528101906100259190610684565b610035828261007060201b60201c565b8173ffffffffffffffffffffffffffffffffffffffff1660808173ffffffffffffffffffffffffffffffffffffffff16815250505050610795565b61007f8261016360201b60201c565b8173ffffffffffffffffffffffffffffffffffffffff167f1cf3b03a6cf19fa2baba4df148e9dcabedea7f8a5c07840e207e5c089be95d3e60405160405180910390a26000815111156101505761014a8273ffffffffffffffffffffffffffffffffffffffff16635c60da1b6040518163ffffffff1660e01b8152600401602060405180830381865afa15801561011a573d6000803e3d6000fd5b505050506040513d601f19601f8201168201806040525081019061013e91906106e0565b8261030660201b60201c565b5061015f565b61015e61039060201b60201c565b5b5050565b60008173ffffffffffffffffffffffffffffffffffffffff163b036101bf57806040517f64ced0ec0000000000000000000000000000000000000000000000000000000081526004016101b6919061071c565b60405180910390fd5b806101f27fa3f0ad74e5423aebfd80d3ef4346578335a9a72aeaee59ff6cb3582b35133d5060001b6103cd60201b60201c565b60000160006101000a81548173ffffffffffffffffffffffffffffffffffffffff021916908373ffffffffffffffffffffffffffffffffffffffff16021790555060008173ffffffffffffffffffffffffffffffffffffffff16635c60da1b6040518163ffffffff1660e01b8152600401602060405180830381865afa158015610280573d6000803e3d6000fd5b505050506040513d601f19601f820116820180604052508101906102a491906106e0565b905060008173ffffffffffffffffffffffffffffffffffffffff163b0361030257806040517f4c9c8ce30000000000000000000000000000000000000000000000000000000081526004016102f9919061071c565b60405180910390fd5b5050565b60606000808473ffffffffffffffffffffffffffffffffffffffff1684604051610330919061077e565b600060405180830381855af49150503d806000811461036b576040519150601f19603f3d011682016040523d82523d6000602084013e610370565b606091505b50915091506103868583836103d760201b60201c565b9250505092915050565b60003411156103cb576040517fb398979f00000000000000000000000000000000000000000000000000000000815260040160405180910390fd5b565b6000819050919050565b6060826103f2576103ed8261046c60201b60201c565b610464565b6000825114801561041a575060008473ffffffffffffffffffffffffffffffffffffffff163b145b1561045c57836040517f9996b315000000000000000000000000000000000000000000000000000000008152600401610453919061071c565b60405180910390fd5b819050610465565b5b9392505050565b60008151111561047f5780518082602001fd5b6040517f1425ea4200000000000000000000000000000000000000000000000000000000815260040160405180910390fd5b6000604051905090565b600080fd5b600080fd5b600073ffffffffffffffffffffffffffffffffffffffff82169050919050565b60006104f0826104c5565b9050919050565b610500816104e5565b811461050b57600080fd5b50565b60008151905061051d816104f7565b92915050565b600080fd5b600080fd5b6000601f19601f8301169050919050565b7f4e487b7100000000000000000000000000000000000000000000000000000000600052604160045260246000fd5b6105768261052d565b810181811067ffffffffffffffff821117156105955761059461053e565b5b80604052505050565b60006105a86104b1565b90506105b4828261056d565b919050565b600067ffffffffffffffff8211156105d4576105d361053e565b5b6105dd8261052d565b9050602081019050919050565b60005b838110156106085780820151818401526020810190506105ed565b60008484015250505050565b6000610627610622846105b9565b61059e565b90508281526020810184848401111561064357610642610528565b5b61064e8482856105ea565b509392505050565b600082601f83011261066b5761066a610523565b5b815161067b848260208601610614565b91505092915050565b6000806040838503121561069b5761069a6104bb565b5b60006106a98582860161050e565b925050602083015167ffffffffffffffff8111156106ca576106c96104c0565b5b6106d685828601610656565b9150509250929050565b6000602082840312156106f6576106f56104bb565b5b60006107048482850161050e565b91505092915050565b610716816104e5565b82525050565b6000602082019050610731600083018461070d565b92915050565b600081519050919050565b600081905092915050565b600061075882610737565b6107628185610742565b93506107728185602086016105ea565b80840191505092915050565b600061078a828461074d565b915081905092915050565b6080516101b16107af600039600060c701526101b16000f3fe608060405261000c61000e565b005b61001e610019610020565b61009d565b565b600061002a6100c3565b73ffffffffffffffffffffffffffffffffffffffff16635c60da1b6040518163ffffffff1660e01b8152600401602060405180830381865afa158015610074573d6000803e3d6000fd5b505050506040513d601f19601f82011682018060405250810190610098919061014e565b905090565b3660008037600080366000845af43d6000803e80600081146100be573d6000f35b3d6000fd5b60007f0000000000000000000000000000000000000000000000000000000000000000905090565b600080fd5b600073ffffffffffffffffffffffffffffffffffffffff82169050919050565b600061011b826100f0565b9050919050565b61012b81610110565b811461013657600080fd5b50565b60008151905061014881610122565b92915050565b600060208284031215610164576101636100eb565b5b600061017284828501610139565b9150509291505056fea2646970667358221220d403e4a55514b9d20cbb15d1c14ce78fd4a2a737215249fda01aa185ea5c866064736f6c63430008140033a2646970667358221220c2776186f1e5b082989286658242fac9c9ca319bbc300f54ad1bf34f411c7ce164736f6c6343000814003360a060405234801561001057600080fd5b50604051620011ce380380620011ce83398181016040528101906100349190610407565b33600073ffffffffffffffffffffffffffffffffffffffff168173ffffffffffffffffffffffffffffffffffffffff16036100a75760006040517f1e4fbdf700000000000000000000000000000000000000000000000000000000815260040161009e9190610443565b60405180910390fd5b6100b68161017660201b60201c565b5080336040516100c590610396565b6100d092919061045e565b604051809103906000f0801580156100ec573d6000803e3d6000fd5b5073ffffffffffffffffffffffffffffffffffffffff1660808173ffffffffffffffffffffffffffffffffffffffff168152505080600160006101000a81548173ffffffffffffffffffffffffffffffffffffffff021916908373ffffffffffffffffffffffffffffffffffffffff1602179055506101703361023a60201b60201c565b50610487565b60008060009054906101000a900473ffffffffffffffffffffffffffffffffffffffff169050816000806101000a81548173ffffffffffffffffffffffffffffffffffffffff021916908373ffffffffffffffffffffffffffffffffffffffff1602179055508173ffffffffffffffffffffffffffffffffffffffff168173ffffffffffffffffffffffffffffffffffffffff167f8be0079c531659141344cd1fd0a4f28419497f9722a3daafe3b4186f6b6457e060405160405180910390a35050565b6102486102cc60201b60201c565b600073ffffffffffffffffffffffffffffffffffffffff168173ffffffffffffffffffffffffffffffffffffffff16036102ba5760006040517f1e4fbdf70000000000000000000000000000000000000000000000000000000081526004016102b19190610443565b60405180910390fd5b6102c98161017660201b60201c565b50565b6102da61036560201b60201c565b73ffffffffffffffffffffffffffffffffffffffff166102fe61036d60201b60201c565b73ffffffffffffffffffffffffffffffffffffffff16146103635761032761036560201b60201c565b6040517f118cdaa700000000000000000000000000000000000000000000000000000000815260040161035a9190610443565b60405180910390fd5b565b600033905090565b60008060009054906101000a900473ffffffffffffffffffffffffffffffffffffffff16905090565b61084f806200097f83390190565b600080fd5b600073ffffffffffffffffffffffffffffffffffffffff82169050919050565b60006103d4826103a9565b9050919050565b6103e4816103c9565b81146103ef57600080fd5b50565b600081519050610401816103db565b92915050565b60006020828403121561041d5761041c6103a4565b5b600061042b848285016103f2565b91505092915050565b61043d816103c9565b82525050565b60006020820190506104586000830184610434565b92915050565b60006040820190506104736000830185610434565b6104806020830184610434565b9392505050565b6080516104dd620004a2600039600060e401526104dd6000f3fe608060405234801561001057600080fd5b50600436106100575760003560e01c80631c1b87721461005c5780635c60da1b14610078578063715018a6146100965780638da5cb5b146100a0578063f2fde38b146100be575b600080fd5b61007660048036038101906100719190610450565b6100da565b005b6100806101b1565b60405161008d919061048c565b60405180910390f35b61009e6101d7565b005b6100a86101eb565b6040516100b5919061048c565b60405180910390f35b6100d860048036038101906100d39190610450565b610214565b005b6100e261029a565b7f000000000000000000000000000000000000000000000000000000000000000073ffffffffffffffffffffffffffffffffffffffff16633659cfe6826040518263ffffffff1660e01b815260040161013b919061048c565b600060405180830381600087803b15801561015557600080fd5b505af1158015610169573d6000803e3d6000fd5b5050505080600160006101000a81548173ffffffffffffffffffffffffffffffffffffffff021916908373ffffffffffffffffffffffffffffffffffffffff16021790555050565b600160009054906101000a900473ffffffffffffffffffffffffffffffffffffffff1681565b6101df61029a565b6101e96000610321565b565b60008060009054906101000a900473ffffffffffffffffffffffffffffffffffffffff16905090565b61021c61029a565b600073ffffffffffffffffffffffffffffffffffffffff168173ffffffffffffffffffffffffffffffffffffffff160361028e5760006040517f1e4fbdf7000000000000000000000000000000000000000000000000000000008152600401610285919061048c565b60405180910390fd5b61029781610321565b50565b6102a26103e5565b73ffffffffffffffffffffffffffffffffffffffff166102c06101eb565b73ffffffffffffffffffffffffffffffffffffffff161461031f576102e36103e5565b6040517f118cdaa7000000000000000000000000000000000000000000000000000000008152600401610316919061048c565b60405180910390fd5b565b60008060009054906101000a900473ffffffffffffffffffffffffffffffffffffffff169050816000806101000a81548173ffffffffffffffffffffffffffffffffffffffff021916908373ffffffffffffffffffffffffffffffffffffffff1602179055508173ffffffffffffffffffffffffffffffffffffffff168173ffffffffffffffffffffffffffffffffffffffff167f8be0079c531659141344cd1fd0a4f28419497f9722a3daafe3b4186f6b6457e060405160405180910390a35050565b600033905090565b600080fd5b600073ffffffffffffffffffffffffffffffffffffffff82169050919050565b600061041d826103f2565b9050919050565b61042d81610412565b811461043857600080fd5b50565b60008135905061044a81610424565b92915050565b600060208284031215610466576104656103ed565b5b60006104748482850161043b565b91505092915050565b61048681610412565b82525050565b60006020820190506104a1600083018461047d565b9291505056fea2646970667358221220d88061e3815cc2c11e2fc943b00ef4f731df1df7b347fe8d00b26d9bb8b5450164736f6c63430008140033608060405234801561001057600080fd5b5060405161084f38038061084f833981810160405281019061003291906102d5565b80600073ffffffffffffffffffffffffffffffffffffffff168173ffffffffffffffffffffffffffffffffffffffff16036100a55760006040517f1e4fbdf700000000000000000000000000000000000000000000000000000000815260040161009c9190610324565b60405180910390fd5b6100b4816100cb60201b60201c565b506100c48261018f60201b60201c565b505061033f565b60008060009054906101000a900473ffffffffffffffffffffffffffffffffffffffff169050816000806101000a81548173ffffffffffffffffffffffffffffffffffffffff021916908373ffffffffffffffffffffffffffffffffffffffff1602179055508173ffffffffffffffffffffffffffffffffffffffff168173ffffffffffffffffffffffffffffffffffffffff167f8be0079c531659141344cd1fd0a4f28419497f9722a3daafe3b4186f6b6457e060405160405180910390a35050565b60008173ffffffffffffffffffffffffffffffffffffffff163b036101eb57806040517f847ac5640000000000000000000000000000000000000000000000000000000081526004016101e29190610324565b60405180910390fd5b80600160006101000a81548173ffffffffffffffffffffffffffffffffffffffff021916908373ffffffffffffffffffffffffffffffffffffffff1602179055508073ffffffffffffffffffffffffffffffffffffffff167fbc7cd75a20ee27fd9adebab32041f755214dbc6bffa90cc0225b39da2e5c2d3b60405160405180910390a250565b600080fd5b600073ffffffffffffffffffffffffffffffffffffffff82169050919050565b60006102a282610277565b9050919050565b6102b281610297565b81146102bd57600080fd5b50565b6000815190506102cf816102a9565b92915050565b600080604083850312156102ec576102eb610272565b5b60006102fa858286016102c0565b925050602061030b858286016102c0565b9150509250929050565b61031e81610297565b82525050565b60006020820190506103396000830184610315565b92915050565b6105018061034e6000396000f3fe608060405234801561001057600080fd5b50600436106100575760003560e01c80633659cfe61461005c5780635c60da1b14610078578063715018a6146100965780638da5cb5b146100a0578063f2fde38b146100be575b600080fd5b61007660048036038101906100719190610474565b6100da565b005b6100806100ee565b60405161008d91906104b0565b60405180910390f35b61009e610118565b005b6100a861012c565b6040516100b591906104b0565b60405180910390f35b6100d860048036038101906100d39190610474565b610155565b005b6100e26101db565b6100eb81610262565b50565b6000600160009054906101000a900473ffffffffffffffffffffffffffffffffffffffff16905090565b6101206101db565b61012a6000610345565b565b60008060009054906101000a900473ffffffffffffffffffffffffffffffffffffffff16905090565b61015d6101db565b600073ffffffffffffffffffffffffffffffffffffffff168173ffffffffffffffffffffffffffffffffffffffff16036101cf5760006040517f1e4fbdf70000000000000000000000000000000000000000000000000000000081526004016101c691906104b0565b60405180910390fd5b6101d881610345565b50565b6101e3610409565b73ffffffffffffffffffffffffffffffffffffffff1661020161012c565b73ffffffffffffffffffffffffffffffffffffffff161461026057610224610409565b6040517f118cdaa700000000000000000000000000000000000000000000000000000000815260040161025791906104b0565b60405180910390fd5b565b60008173ffffffffffffffffffffffffffffffffffffffff163b036102be57806040517f847ac5640000000000000000000000000000000000000000000000000000000081526004016102b591906104b0565b60405180910390fd5b80600160006101000a81548173ffffffffffffffffffffffffffffffffffffffff021916908373ffffffffffffffffffffffffffffffffffffffff1602179055508073ffffffffffffffffffffffffffffffffffffffff167fbc7cd75a20ee27fd9adebab32041f755214dbc6bffa90cc0225b39da2e5c2d3b60405160405180910390a250565b60008060009054906101000a900473ffffffffffffffffffffffffffffffffffffffff169050816000806101000a81548173ffffffffffffffffffffffffffffffffffffffff021916908373ffffffffffffffffffffffffffffffffffffffff1602179055508173ffffffffffffffffffffffffffffffffffffffff168173ffffffffffffffffffffffffffffffffffffffff167f8be0079c531659141344cd1fd0a4f28419497f9722a3daafe3b4186f6b6457e060405160405180910390a35050565b600033905090565b600080fd5b600073ffffffffffffffffffffffffffffffffffffffff82169050919050565b600061044182610416565b9050919050565b61045181610436565b811461045c57600080fd5b50565b60008135905061046e81610448565b92915050565b60006020828403121561048a57610489610411565b5b60006104988482850161045f565b91505092915050565b6104aa81610436565b82525050565b60006020820190506104c560008301846104a1565b9291505056fea2646970667358221220d2479cbba52a0ca83442540f577eafae2dc5bab46dc894bb961f476ee8ee2c9964736f6c63430008140033",
  "linkReferences": {},
  "deployedLinkReferences": {}
}