{
  "_format": "hh-sol-artifact-1",
  "contractName": "CollectionFactory",
  "sourceName": "contracts/collections/factory/CollectionFactory.sol",
  "abi": [
    {
      "inputs": [
        {
          "internalType": "address",
          "name": "_initialImplementation",
          "type": "address"
        },
        {
          "internalType": "address",
          "name": "_owner",
          "type": "address"
        }
      ],
      "stateMutability": "nonpayable",
      "type": "constructor"
    },
    {
      "inputs": [],
      "name": "EnforcedPause",
      "type": "error"
    },
    {
      "inputs": [],
      "name": "ExpectedPause",
      "type": "error"
    },
    {
      "inputs": [
        {
          "internalType": "address",
          "name": "owner",
          "type": "address"
        }
      ],
      "name": "OwnableInvalidOwner",
      "type": "error"
    },
    {
      "inputs": [
        {
          "internalType": "address",
          "name": "account",
          "type": "address"
        }
      ],
      "name": "OwnableUnauthorizedAccount",
      "type": "error"
    },
    {
      "anonymous": false,
      "inputs": [
        {
          "indexed": false,
          "internalType": "address",
          "name": "newCollectionAddress",
          "type": "address"
        },
        {
          "indexed": false,
          "internalType": "address",
          "name": "creator",
          "type": "address"
        },
        {
          "indexed": false,
          "internalType": "string",
          "name": "metadataURI",
          "type": "string"
        }
      ],
      "name": "CollectionCreated",
      "type": "event"
    },
    {
      "anonymous": false,
      "inputs": [
        {
          "indexed": true,
          "internalType": "address",
          "name": "previousOwner",
          "type": "address"
        },
        {
          "indexed": true,
          "internalType": "address",
          "name": "newOwner",
          "type": "address"
        }
      ],
      "name": "OwnershipTransferred",
      "type": "event"
    },
    {
      "anonymous": false,
      "inputs": [
        {
          "indexed": false,
          "internalType": "address",
          "name": "account",
          "type": "address"
        }
      ],
      "name": "Paused",
      "type": "event"
    },
    {
      "anonymous": false,
      "inputs": [
        {
          "indexed": false,
          "internalType": "address",
          "name": "account",
          "type": "address"
        }
      ],
      "name": "Unpaused",
      "type": "event"
    },
    {
      "inputs": [
        {
          "components": [
            {
              "internalType": "string",
              "name": "_collectionName",
              "type": "string"
            },
            {
              "internalType": "string",
              "name": "_collectionMetadataURI",
              "type": "string"
            },
            {
              "internalType": "uint8",
              "name": "_readType",
              "type": "uint8"
            },
            {
              "internalType": "uint8",
              "name": "_writeType",
              "type": "uint8"
            },
            {
              "internalType": "address",
              "name": "_collectionPermissions",
              "type": "address"
            },
            {
              "internalType": "uint256",
              "name": "_minimumBalance",
              "type": "uint256"
            },
            {
              "internalType": "address",
              "name": "_marketAddress",
              "type": "address"
            },
            {
              "internalType": "uint256",
              "name": "_supplyLimit",
              "type": "uint256"
            },
            {
              "internalType": "uint256",
              "name": "_tokenPrice",
              "type": "uint256"
            },
            {
              "internalType": "bool",
              "name": "_isBonded",
              "type": "bool"
            }
          ],
          "internalType": "struct Params.CollectionInitParams",
          "name": "params",
          "type": "tuple"
        }
      ],
      "name": "createCollection",
      "outputs": [
        {
          "internalType": "address",
          "name": "",
          "type": "address"
        }
      ],
      "stateMutability": "nonpayable",
      "type": "function"
    },
    {
      "inputs": [],
      "name": "getBeacon",
      "outputs": [
        {
          "internalType": "address",
          "name": "",
          "type": "address"
        }
      ],
      "stateMutability": "view",
      "type": "function"
    },
    {
      "inputs": [],
      "name": "getImplementation",
      "outputs": [
        {
          "internalType": "address",
          "name": "",
          "type": "address"
        }
      ],
      "stateMutability": "view",
      "type": "function"
    },
    {
      "inputs": [],
      "name": "owner",
      "outputs": [
        {
          "internalType": "address",
          "name": "",
          "type": "address"
        }
      ],
      "stateMutability": "view",
      "type": "function"
    },
    {
      "inputs": [],
      "name": "pause",
      "outputs": [],
      "stateMutability": "nonpayable",
      "type": "function"
    },
    {
      "inputs": [],
      "name": "paused",
      "outputs": [
        {
          "internalType": "bool",
          "name": "",
          "type": "bool"
        }
      ],
      "stateMutability": "view",
      "type": "function"
    },
    {
      "inputs": [],
      "name": "renounceOwnership",
      "outputs": [],
      "stateMutability": "nonpayable",
      "type": "function"
    },
    {
      "inputs": [
        {
          "internalType": "address",
          "name": "_newAddress",
          "type": "address"
        }
      ],
      "name": "setCollectionRegistryAddress",
      "outputs": [],
      "stateMutability": "nonpayable",
      "type": "function"
    },
    {
      "inputs": [
        {
          "internalType": "address",
          "name": "newOwner",
          "type": "address"
        }
      ],
      "name": "transferOwnership",
      "outputs": [],
      "stateMutability": "nonpayable",
      "type": "function"
    },
    {
      "inputs": [],
      "name": "unpause",
      "outputs": [],
      "stateMutability": "nonpayable",
      "type": "function"
    }
  ],
  "bytecode": "0x60a06040523480156200001157600080fd5b5060405162002eec38038062002eec833981810160405281019062000037919062000289565b80600073ffffffffffffffffffffffffffffffffffffffff168173ffffffffffffffffffffffffffffffffffffffff1603620000ad5760006040517f1e4fbdf7000000000000000000000000000000000000000000000000000000008152600401620000a49190620002e1565b60405180910390fd5b620000be816200014d60201b60201c565b5060008060146101000a81548160ff02191690831515021790555081604051620000e89062000211565b620000f49190620002e1565b604051809103906000f08015801562000111573d6000803e3d6000fd5b5073ffffffffffffffffffffffffffffffffffffffff1660808173ffffffffffffffffffffffffffffffffffffffff16815250505050620002fe565b60008060009054906101000a900473ffffffffffffffffffffffffffffffffffffffff169050816000806101000a81548173ffffffffffffffffffffffffffffffffffffffff021916908373ffffffffffffffffffffffffffffffffffffffff1602179055508173ffffffffffffffffffffffffffffffffffffffff168173ffffffffffffffffffffffffffffffffffffffff167f8be0079c531659141344cd1fd0a4f28419497f9722a3daafe3b4186f6b6457e060405160405180910390a35050565b6111ce8062001d1e83390190565b600080fd5b600073ffffffffffffffffffffffffffffffffffffffff82169050919050565b6000620002518262000224565b9050919050565b620002638162000244565b81146200026f57600080fd5b50565b600081519050620002838162000258565b92915050565b60008060408385031215620002a357620002a26200021f565b5b6000620002b38582860162000272565b9250506020620002c68582860162000272565b9150509250929050565b620002db8162000244565b82525050565b6000602082019050620002f86000830184620002d0565b92915050565b6080516119f662000328600039600081816101d7015281816102a701526104e301526119f66000f3fe60806040523480156200001157600080fd5b5060043610620000ac5760003560e01c806376e8d074116200006f57806376e8d074146200012d5780638456cb5914620001635780638da5cb5b146200016f578063aaf10f421462000191578063f2fde38b14620001b357620000ac565b80632d6b3a6b14620000b15780633f4ba83a14620000d3578063501565c814620000df5780635c975abb14620000ff578063715018a61462000121575b600080fd5b620000bb620001d3565b604051620000ca91906200090c565b60405180910390f35b620000dd620001fb565b005b620000fd6004803603810190620000f791906200096e565b62000211565b005b6200010962000269565b604051620001189190620009bd565b60405180910390f35b6200012b6200027f565b005b6200014b600480360381019062000145919062000d3d565b62000297565b6040516200015a91906200090c565b60405180910390f35b6200016d620004a0565b005b62000179620004b6565b6040516200018891906200090c565b60405180910390f35b6200019b620004df565b604051620001aa91906200090c565b60405180910390f35b620001d16004803603810190620001cb91906200096e565b62000578565b005b60007f0000000000000000000000000000000000000000000000000000000000000000905090565b6200020562000605565b6200020f62000695565b565b6200021b62000605565b62000225620006fd565b80600160006101000a81548173ffffffffffffffffffffffffffffffffffffffff021916908373ffffffffffffffffffffffffffffffffffffffff16021790555050565b60008060149054906101000a900460ff16905090565b6200028962000605565b62000295600062000741565b565b6000620002a3620006fd565b60007f00000000000000000000000000000000000000000000000000000000000000006387d0dc4060e01b8460000151338660400151876060015188608001518960a00151604051602401620002ff9695949392919062000e39565b604051602081830303815290604052907bffffffffffffffffffffffffffffffffffffffffffffffffffffffff19166020820180517bffffffffffffffffffffffffffffffffffffffffffffffffffffffff83818316178352505050506040516200036a90620008b9565b6200037792919062000f0a565b604051809103906000f08015801562000394573d6000803e3d6000fd5b5090506000600160009054906101000a900473ffffffffffffffffffffffffffffffffffffffff1690508073ffffffffffffffffffffffffffffffffffffffff1663521a25053384876020015188608001518960c001518a60e001518b61010001518c61012001516040518963ffffffff1660e01b81526004016200042198979695949392919062000f3e565b600060405180830381600087803b1580156200043c57600080fd5b505af115801562000451573d6000803e3d6000fd5b505050507fa9a63cb75fdf6f638d49c249df7d5b94dd8bb8ac664ca12da7339862b9dd87ae823386602001516040516200048e9392919062000fd3565b60405180910390a18192505050919050565b620004aa62000605565b620004b462000805565b565b60008060009054906101000a900473ffffffffffffffffffffffffffffffffffffffff16905090565b60007f000000000000000000000000000000000000000000000000000000000000000073ffffffffffffffffffffffffffffffffffffffff16635c60da1b6040518163ffffffff1660e01b8152600401602060405180830381865afa1580156200054d573d6000803e3d6000fd5b505050506040513d601f19601f820116820180604052508101906200057391906200102e565b905090565b6200058262000605565b600073ffffffffffffffffffffffffffffffffffffffff168173ffffffffffffffffffffffffffffffffffffffff1603620005f75760006040517f1e4fbdf7000000000000000000000000000000000000000000000000000000008152600401620005ee91906200090c565b60405180910390fd5b620006028162000741565b50565b6200060f6200086e565b73ffffffffffffffffffffffffffffffffffffffff166200062f620004b6565b73ffffffffffffffffffffffffffffffffffffffff16146200069357620006556200086e565b6040517f118cdaa70000000000000000000000000000000000000000000000000000000081526004016200068a91906200090c565b60405180910390fd5b565b6200069f62000876565b60008060146101000a81548160ff0219169083151502179055507f5db9ee0a495bf2e6ff9c91a7834c1ba4fdd244a5e8aa4e537bd38aeae4b073aa620006e46200086e565b604051620006f391906200090c565b60405180910390a1565b6200070762000269565b156200073f576040517fd93c066500000000000000000000000000000000000000000000000000000000815260040160405180910390fd5b565b60008060009054906101000a900473ffffffffffffffffffffffffffffffffffffffff169050816000806101000a81548173ffffffffffffffffffffffffffffffffffffffff021916908373ffffffffffffffffffffffffffffffffffffffff1602179055508173ffffffffffffffffffffffffffffffffffffffff168173ffffffffffffffffffffffffffffffffffffffff167f8be0079c531659141344cd1fd0a4f28419497f9722a3daafe3b4186f6b6457e060405160405180910390a35050565b6200080f620006fd565b6001600060146101000a81548160ff0219169083151502179055507f62e78cea01bee320cd4e420270b5ea74000d11b0c9f74754ebdbfc544b05a258620008556200086e565b6040516200086491906200090c565b60405180910390a1565b600033905090565b6200088062000269565b620008b7576040517f8dfc202b00000000000000000000000000000000000000000000000000000000815260040160405180910390fd5b565b610960806200106183390190565b600073ffffffffffffffffffffffffffffffffffffffff82169050919050565b6000620008f482620008c7565b9050919050565b6200090681620008e7565b82525050565b6000602082019050620009236000830184620008fb565b92915050565b6000604051905090565b600080fd5b600080fd5b6200094881620008e7565b81146200095457600080fd5b50565b60008135905062000968816200093d565b92915050565b60006020828403121562000987576200098662000933565b5b6000620009978482850162000957565b91505092915050565b60008115159050919050565b620009b781620009a0565b82525050565b6000602082019050620009d46000830184620009ac565b92915050565b600080fd5b6000601f19601f8301169050919050565b7f4e487b7100000000000000000000000000000000000000000000000000000000600052604160045260246000fd5b62000a2a82620009df565b810181811067ffffffffffffffff8211171562000a4c5762000a4b620009f0565b5b80604052505050565b600062000a6162000929565b905062000a6f828262000a1f565b919050565b600080fd5b600080fd5b600080fd5b600067ffffffffffffffff82111562000aa15762000aa0620009f0565b5b62000aac82620009df565b9050602081019050919050565b82818337600083830152505050565b600062000adf62000ad98462000a83565b62000a55565b90508281526020810184848401111562000afe5762000afd62000a7e565b5b62000b0b84828562000ab9565b509392505050565b600082601f83011262000b2b5762000b2a62000a79565b5b813562000b3d84826020860162000ac8565b91505092915050565b600060ff82169050919050565b62000b5e8162000b46565b811462000b6a57600080fd5b50565b60008135905062000b7e8162000b53565b92915050565b6000819050919050565b62000b998162000b84565b811462000ba557600080fd5b50565b60008135905062000bb98162000b8e565b92915050565b62000bca81620009a0565b811462000bd657600080fd5b50565b60008135905062000bea8162000bbf565b92915050565b6000610140828403121562000c0a5762000c09620009da565b5b62000c1761014062000a55565b9050600082013567ffffffffffffffff81111562000c3a5762000c3962000a74565b5b62000c488482850162000b13565b600083015250602082013567ffffffffffffffff81111562000c6f5762000c6e62000a74565b5b62000c7d8482850162000b13565b602083015250604062000c938482850162000b6d565b604083015250606062000ca98482850162000b6d565b606083015250608062000cbf8482850162000957565b60808301525060a062000cd58482850162000ba8565b60a08301525060c062000ceb8482850162000957565b60c08301525060e062000d018482850162000ba8565b60e08301525061010062000d188482850162000ba8565b6101008301525061012062000d308482850162000bd9565b6101208301525092915050565b60006020828403121562000d565762000d5562000933565b5b600082013567ffffffffffffffff81111562000d775762000d7662000938565b5b62000d858482850162000bf0565b91505092915050565b600081519050919050565b600082825260208201905092915050565b60005b8381101562000dca57808201518184015260208101905062000dad565b60008484015250505050565b600062000de38262000d8e565b62000def818562000d99565b935062000e0181856020860162000daa565b62000e0c81620009df565b840191505092915050565b62000e228162000b46565b82525050565b62000e338162000b84565b82525050565b600060c082019050818103600083015262000e55818962000dd6565b905062000e666020830188620008fb565b62000e75604083018762000e17565b62000e84606083018662000e17565b62000e936080830185620008fb565b62000ea260a083018462000e28565b979650505050505050565b600081519050919050565b600082825260208201905092915050565b600062000ed68262000ead565b62000ee2818562000eb8565b935062000ef481856020860162000daa565b62000eff81620009df565b840191505092915050565b600060408201905062000f216000830185620008fb565b818103602083015262000f35818462000ec9565b90509392505050565b60006101008201905062000f56600083018b620008fb565b62000f65602083018a620008fb565b818103604083015262000f79818962000dd6565b905062000f8a6060830188620008fb565b62000f996080830187620008fb565b62000fa860a083018662000e28565b62000fb760c083018562000e28565b62000fc660e0830184620009ac565b9998505050505050505050565b600060608201905062000fea6000830186620008fb565b62000ff96020830185620008fb565b81810360408301526200100d818462000dd6565b9050949350505050565b60008151905062001028816200093d565b92915050565b60006020828403121562001047576200104662000933565b5b6000620010578482850162001017565b9150509291505056fe60a060405260405161096038038061096083398181016040528101906100259190610684565b610035828261007060201b60201c565b8173ffffffffffffffffffffffffffffffffffffffff1660808173ffffffffffffffffffffffffffffffffffffffff16815250505050610795565b61007f8261016360201b60201c565b8173ffffffffffffffffffffffffffffffffffffffff167f1cf3b03a6cf19fa2baba4df148e9dcabedea7f8a5c07840e207e5c089be95d3e60405160405180910390a26000815111156101505761014a8273ffffffffffffffffffffffffffffffffffffffff16635c60da1b6040518163ffffffff1660e01b8152600401602060405180830381865afa15801561011a573d6000803e3d6000fd5b505050506040513d601f19601f8201168201806040525081019061013e91906106e0565b8261030660201b60201c565b5061015f565b61015e61039060201b60201c565b5b5050565b60008173ffffffffffffffffffffffffffffffffffffffff163b036101bf57806040517f64ced0ec0000000000000000000000000000000000000000000000000000000081526004016101b6919061071c565b60405180910390fd5b806101f27fa3f0ad74e5423aebfd80d3ef4346578335a9a72aeaee59ff6cb3582b35133d5060001b6103cd60201b60201c565b60000160006101000a81548173ffffffffffffffffffffffffffffffffffffffff021916908373ffffffffffffffffffffffffffffffffffffffff16021790555060008173ffffffffffffffffffffffffffffffffffffffff16635c60da1b6040518163ffffffff1660e01b8152600401602060405180830381865afa158015610280573d6000803e3d6000fd5b505050506040513d601f19601f820116820180604052508101906102a491906106e0565b905060008173ffffffffffffffffffffffffffffffffffffffff163b0361030257806040517f4c9c8ce30000000000000000000000000000000000000000000000000000000081526004016102f9919061071c565b60405180910390fd5b5050565b60606000808473ffffffffffffffffffffffffffffffffffffffff1684604051610330919061077e565b600060405180830381855af49150503d806000811461036b576040519150601f19603f3d011682016040523d82523d6000602084013e610370565b606091505b50915091506103868583836103d760201b60201c565b9250505092915050565b60003411156103cb576040517fb398979f00000000000000000000000000000000000000000000000000000000815260040160405180910390fd5b565b6000819050919050565b6060826103f2576103ed8261046c60201b60201c565b610464565b6000825114801561041a575060008473ffffffffffffffffffffffffffffffffffffffff163b145b1561045c57836040517f9996b315000000000000000000000000000000000000000000000000000000008152600401610453919061071c565b60405180910390fd5b819050610465565b5b9392505050565b60008151111561047f5780518082602001fd5b6040517f1425ea4200000000000000000000000000000000000000000000000000000000815260040160405180910390fd5b6000604051905090565b600080fd5b600080fd5b600073ffffffffffffffffffffffffffffffffffffffff82169050919050565b60006104f0826104c5565b9050919050565b610500816104e5565b811461050b57600080fd5b50565b60008151905061051d816104f7565b92915050565b600080fd5b600080fd5b6000601f19601f8301169050919050565b7f4e487b7100000000000000000000000000000000000000000000000000000000600052604160045260246000fd5b6105768261052d565b810181811067ffffffffffffffff821117156105955761059461053e565b5b80604052505050565b60006105a86104b1565b90506105b4828261056d565b919050565b600067ffffffffffffffff8211156105d4576105d361053e565b5b6105dd8261052d565b9050602081019050919050565b60005b838110156106085780820151818401526020810190506105ed565b60008484015250505050565b6000610627610622846105b9565b61059e565b90508281526020810184848401111561064357610642610528565b5b61064e8482856105ea565b509392505050565b600082601f83011261066b5761066a610523565b5b815161067b848260208601610614565b91505092915050565b6000806040838503121561069b5761069a6104bb565b5b60006106a98582860161050e565b925050602083015167ffffffffffffffff8111156106ca576106c96104c0565b5b6106d685828601610656565b9150509250929050565b6000602082840312156106f6576106f56104bb565b5b60006107048482850161050e565b91505092915050565b610716816104e5565b82525050565b6000602082019050610731600083018461070d565b92915050565b600081519050919050565b600081905092915050565b600061075882610737565b6107628185610742565b93506107728185602086016105ea565b80840191505092915050565b600061078a828461074d565b915081905092915050565b6080516101b16107af600039600060c701526101b16000f3fe608060405261000c61000e565b005b61001e610019610020565b61009d565b565b600061002a6100c3565b73ffffffffffffffffffffffffffffffffffffffff16635c60da1b6040518163ffffffff1660e01b8152600401602060405180830381865afa158015610074573d6000803e3d6000fd5b505050506040513d601f19601f82011682018060405250810190610098919061014e565b905090565b3660008037600080366000845af43d6000803e80600081146100be573d6000f35b3d6000fd5b60007f0000000000000000000000000000000000000000000000000000000000000000905090565b600080fd5b600073ffffffffffffffffffffffffffffffffffffffff82169050919050565b600061011b826100f0565b9050919050565b61012b81610110565b811461013657600080fd5b50565b60008151905061014881610122565b92915050565b600060208284031215610164576101636100eb565b5b600061017284828501610139565b9150509291505056fea2646970667358221220d403e4a55514b9d20cbb15d1c14ce78fd4a2a737215249fda01aa185ea5c866064736f6c63430008140033a264697066735822122075cbe5de01566d0b382deda1539418c4329a4547c512f028e79d3dce5d9c029b64736f6c6343000814003360a060405234801561001057600080fd5b50604051620011ce380380620011ce83398181016040528101906100349190610407565b33600073ffffffffffffffffffffffffffffffffffffffff168173ffffffffffffffffffffffffffffffffffffffff16036100a75760006040517f1e4fbdf700000000000000000000000000000000000000000000000000000000815260040161009e9190610443565b60405180910390fd5b6100b68161017660201b60201c565b5080336040516100c590610396565b6100d092919061045e565b604051809103906000f0801580156100ec573d6000803e3d6000fd5b5073ffffffffffffffffffffffffffffffffffffffff1660808173ffffffffffffffffffffffffffffffffffffffff168152505080600160006101000a81548173ffffffffffffffffffffffffffffffffffffffff021916908373ffffffffffffffffffffffffffffffffffffffff1602179055506101703361023a60201b60201c565b50610487565b60008060009054906101000a900473ffffffffffffffffffffffffffffffffffffffff169050816000806101000a81548173ffffffffffffffffffffffffffffffffffffffff021916908373ffffffffffffffffffffffffffffffffffffffff1602179055508173ffffffffffffffffffffffffffffffffffffffff168173ffffffffffffffffffffffffffffffffffffffff167f8be0079c531659141344cd1fd0a4f28419497f9722a3daafe3b4186f6b6457e060405160405180910390a35050565b6102486102cc60201b60201c565b600073ffffffffffffffffffffffffffffffffffffffff168173ffffffffffffffffffffffffffffffffffffffff16036102ba5760006040517f1e4fbdf70000000000000000000000000000000000000000000000000000000081526004016102b19190610443565b60405180910390fd5b6102c98161017660201b60201c565b50565b6102da61036560201b60201c565b73ffffffffffffffffffffffffffffffffffffffff166102fe61036d60201b60201c565b73ffffffffffffffffffffffffffffffffffffffff16146103635761032761036560201b60201c565b6040517f118cdaa700000000000000000000000000000000000000000000000000000000815260040161035a9190610443565b60405180910390fd5b565b600033905090565b60008060009054906101000a900473ffffffffffffffffffffffffffffffffffffffff16905090565b61084f806200097f83390190565b600080fd5b600073ffffffffffffffffffffffffffffffffffffffff82169050919050565b60006103d4826103a9565b9050919050565b6103e4816103c9565b81146103ef57600080fd5b50565b600081519050610401816103db565b92915050565b60006020828403121561041d5761041c6103a4565b5b600061042b848285016103f2565b91505092915050565b61043d816103c9565b82525050565b60006020820190506104586000830184610434565b92915050565b60006040820190506104736000830185610434565b6104806020830184610434565b9392505050565b6080516104dd620004a2600039600060e401526104dd6000f3fe608060405234801561001057600080fd5b50600436106100575760003560e01c80631c1b87721461005c5780635c60da1b14610078578063715018a6146100965780638da5cb5b146100a0578063f2fde38b146100be575b600080fd5b61007660048036038101906100719190610450565b6100da565b005b6100806101b1565b60405161008d919061048c565b60405180910390f35b61009e6101d7565b005b6100a86101eb565b6040516100b5919061048c565b60405180910390f35b6100d860048036038101906100d39190610450565b610214565b005b6100e261029a565b7f000000000000000000000000000000000000000000000000000000000000000073ffffffffffffffffffffffffffffffffffffffff16633659cfe6826040518263ffffffff1660e01b815260040161013b919061048c565b600060405180830381600087803b15801561015557600080fd5b505af1158015610169573d6000803e3d6000fd5b5050505080600160006101000a81548173ffffffffffffffffffffffffffffffffffffffff021916908373ffffffffffffffffffffffffffffffffffffffff16021790555050565b600160009054906101000a900473ffffffffffffffffffffffffffffffffffffffff1681565b6101df61029a565b6101e96000610321565b565b60008060009054906101000a900473ffffffffffffffffffffffffffffffffffffffff16905090565b61021c61029a565b600073ffffffffffffffffffffffffffffffffffffffff168173ffffffffffffffffffffffffffffffffffffffff160361028e5760006040517f1e4fbdf7000000000000000000000000000000000000000000000000000000008152600401610285919061048c565b60405180910390fd5b61029781610321565b50565b6102a26103e5565b73ffffffffffffffffffffffffffffffffffffffff166102c06101eb565b73ffffffffffffffffffffffffffffffffffffffff161461031f576102e36103e5565b6040517f118cdaa7000000000000000000000000000000000000000000000000000000008152600401610316919061048c565b60405180910390fd5b565b60008060009054906101000a900473ffffffffffffffffffffffffffffffffffffffff169050816000806101000a81548173ffffffffffffffffffffffffffffffffffffffff021916908373ffffffffffffffffffffffffffffffffffffffff1602179055508173ffffffffffffffffffffffffffffffffffffffff168173ffffffffffffffffffffffffffffffffffffffff167f8be0079c531659141344cd1fd0a4f28419497f9722a3daafe3b4186f6b6457e060405160405180910390a35050565b600033905090565b600080fd5b600073ffffffffffffffffffffffffffffffffffffffff82169050919050565b600061041d826103f2565b9050919050565b61042d81610412565b811461043857600080fd5b50565b60008135905061044a81610424565b92915050565b600060208284031215610466576104656103ed565b5b60006104748482850161043b565b91505092915050565b61048681610412565b82525050565b60006020820190506104a1600083018461047d565b9291505056fea2646970667358221220d88061e3815cc2c11e2fc943b00ef4f731df1df7b347fe8d00b26d9bb8b5450164736f6c63430008140033608060405234801561001057600080fd5b5060405161084f38038061084f833981810160405281019061003291906102d5565b80600073ffffffffffffffffffffffffffffffffffffffff168173ffffffffffffffffffffffffffffffffffffffff16036100a55760006040517f1e4fbdf700000000000000000000000000000000000000000000000000000000815260040161009c9190610324565b60405180910390fd5b6100b4816100cb60201b60201c565b506100c48261018f60201b60201c565b505061033f565b60008060009054906101000a900473ffffffffffffffffffffffffffffffffffffffff169050816000806101000a81548173ffffffffffffffffffffffffffffffffffffffff021916908373ffffffffffffffffffffffffffffffffffffffff1602179055508173ffffffffffffffffffffffffffffffffffffffff168173ffffffffffffffffffffffffffffffffffffffff167f8be0079c531659141344cd1fd0a4f28419497f9722a3daafe3b4186f6b6457e060405160405180910390a35050565b60008173ffffffffffffffffffffffffffffffffffffffff163b036101eb57806040517f847ac5640000000000000000000000000000000000000000000000000000000081526004016101e29190610324565b60405180910390fd5b80600160006101000a81548173ffffffffffffffffffffffffffffffffffffffff021916908373ffffffffffffffffffffffffffffffffffffffff1602179055508073ffffffffffffffffffffffffffffffffffffffff167fbc7cd75a20ee27fd9adebab32041f755214dbc6bffa90cc0225b39da2e5c2d3b60405160405180910390a250565b600080fd5b600073ffffffffffffffffffffffffffffffffffffffff82169050919050565b60006102a282610277565b9050919050565b6102b281610297565b81146102bd57600080fd5b50565b6000815190506102cf816102a9565b92915050565b600080604083850312156102ec576102eb610272565b5b60006102fa858286016102c0565b925050602061030b858286016102c0565b9150509250929050565b61031e81610297565b82525050565b60006020820190506103396000830184610315565b92915050565b6105018061034e6000396000f3fe608060405234801561001057600080fd5b50600436106100575760003560e01c80633659cfe61461005c5780635c60da1b14610078578063715018a6146100965780638da5cb5b146100a0578063f2fde38b146100be575b600080fd5b61007660048036038101906100719190610474565b6100da565b005b6100806100ee565b60405161008d91906104b0565b60405180910390f35b61009e610118565b005b6100a861012c565b6040516100b591906104b0565b60405180910390f35b6100d860048036038101906100d39190610474565b610155565b005b6100e26101db565b6100eb81610262565b50565b6000600160009054906101000a900473ffffffffffffffffffffffffffffffffffffffff16905090565b6101206101db565b61012a6000610345565b565b60008060009054906101000a900473ffffffffffffffffffffffffffffffffffffffff16905090565b61015d6101db565b600073ffffffffffffffffffffffffffffffffffffffff168173ffffffffffffffffffffffffffffffffffffffff16036101cf5760006040517f1e4fbdf70000000000000000000000000000000000000000000000000000000081526004016101c691906104b0565b60405180910390fd5b6101d881610345565b50565b6101e3610409565b73ffffffffffffffffffffffffffffffffffffffff1661020161012c565b73ffffffffffffffffffffffffffffffffffffffff161461026057610224610409565b6040517f118cdaa700000000000000000000000000000000000000000000000000000000815260040161025791906104b0565b60405180910390fd5b565b60008173ffffffffffffffffffffffffffffffffffffffff163b036102be57806040517f847ac5640000000000000000000000000000000000000000000000000000000081526004016102b591906104b0565b60405180910390fd5b80600160006101000a81548173ffffffffffffffffffffffffffffffffffffffff021916908373ffffffffffffffffffffffffffffffffffffffff1602179055508073ffffffffffffffffffffffffffffffffffffffff167fbc7cd75a20ee27fd9adebab32041f755214dbc6bffa90cc0225b39da2e5c2d3b60405160405180910390a250565b60008060009054906101000a900473ffffffffffffffffffffffffffffffffffffffff169050816000806101000a81548173ffffffffffffffffffffffffffffffffffffffff021916908373ffffffffffffffffffffffffffffffffffffffff1602179055508173ffffffffffffffffffffffffffffffffffffffff168173ffffffffffffffffffffffffffffffffffffffff167f8be0079c531659141344cd1fd0a4f28419497f9722a3daafe3b4186f6b6457e060405160405180910390a35050565b600033905090565b600080fd5b600073ffffffffffffffffffffffffffffffffffffffff82169050919050565b600061044182610416565b9050919050565b61045181610436565b811461045c57600080fd5b50565b60008135905061046e81610448565b92915050565b60006020828403121561048a57610489610411565b5b60006104988482850161045f565b91505092915050565b6104aa81610436565b82525050565b60006020820190506104c560008301846104a1565b9291505056fea2646970667358221220d2479cbba52a0ca83442540f577eafae2dc5bab46dc894bb961f476ee8ee2c9964736f6c63430008140033",
  "linkReferences": {},
  "deployedLinkReferences": {}
}