{
	"_format": "hh-sol-artifact-1",
	"contractName": "CollectionFactory",
	"sourceName": "contracts/collections/factory/CollectionFactory.sol",
	"abi": [
		{
			"inputs": [
				{
					"internalType": "address",
					"name": "_initialImplementation",
					"type": "address"
				},
				{
					"internalType": "address",
					"name": "_owner",
					"type": "address"
				}
			],
			"stateMutability": "nonpayable",
			"type": "constructor"
		},
		{
			"inputs": [],
			"name": "EnforcedPause",
			"type": "error"
		},
		{
			"inputs": [],
			"name": "ExpectedPause",
			"type": "error"
		},
		{
			"inputs": [
				{
					"internalType": "address",
					"name": "owner",
					"type": "address"
				}
			],
			"name": "OwnableInvalidOwner",
			"type": "error"
		},
		{
			"inputs": [
				{
					"internalType": "address",
					"name": "account",
					"type": "address"
				}
			],
			"name": "OwnableUnauthorizedAccount",
			"type": "error"
		},
		{
			"anonymous": false,
			"inputs": [
				{
					"indexed": false,
					"internalType": "address",
					"name": "newCollectionAddress",
					"type": "address"
				},
				{
					"indexed": false,
					"internalType": "address",
					"name": "creator",
					"type": "address"
				},
				{
					"indexed": false,
					"internalType": "string",
					"name": "metadataURI",
					"type": "string"
				}
			],
			"name": "CollectionCreated",
			"type": "event"
		},
		{
			"anonymous": false,
			"inputs": [
				{
					"indexed": true,
					"internalType": "address",
					"name": "previousOwner",
					"type": "address"
				},
				{
					"indexed": true,
					"internalType": "address",
					"name": "newOwner",
					"type": "address"
				}
			],
			"name": "OwnershipTransferred",
			"type": "event"
		},
		{
			"anonymous": false,
			"inputs": [
				{
					"indexed": false,
					"internalType": "address",
					"name": "account",
					"type": "address"
				}
			],
			"name": "Paused",
			"type": "event"
		},
		{
			"anonymous": false,
			"inputs": [
				{
					"indexed": false,
					"internalType": "address",
					"name": "account",
					"type": "address"
				}
			],
			"name": "Unpaused",
			"type": "event"
		},
		{
			"inputs": [
				{
					"internalType": "string",
					"name": "_collectionName",
					"type": "string"
				},
				{
					"internalType": "uint256",
					"name": "_readType",
					"type": "uint256"
				},
				{
					"internalType": "uint256",
					"name": "_writeType",
					"type": "uint256"
				},
				{
					"internalType": "address",
					"name": "_collectionPermissions",
					"type": "address"
				},
				{
					"internalType": "uint256",
					"name": "_minimumBalance",
					"type": "uint256"
				},
				{
					"internalType": "string",
					"name": "_collectionMetadataURI",
					"type": "string"
				}
			],
			"name": "createCollection",
			"outputs": [
				{
					"internalType": "address",
					"name": "",
					"type": "address"
				}
			],
			"stateMutability": "nonpayable",
			"type": "function"
		},
		{
			"inputs": [],
			"name": "getBeacon",
			"outputs": [
				{
					"internalType": "address",
					"name": "",
					"type": "address"
				}
			],
			"stateMutability": "view",
			"type": "function"
		},
		{
			"inputs": [],
			"name": "getImplementation",
			"outputs": [
				{
					"internalType": "address",
					"name": "",
					"type": "address"
				}
			],
			"stateMutability": "view",
			"type": "function"
		},
		{
			"inputs": [],
			"name": "owner",
			"outputs": [
				{
					"internalType": "address",
					"name": "",
					"type": "address"
				}
			],
			"stateMutability": "view",
			"type": "function"
		},
		{
			"inputs": [],
			"name": "pause",
			"outputs": [],
			"stateMutability": "nonpayable",
			"type": "function"
		},
		{
			"inputs": [],
			"name": "paused",
			"outputs": [
				{
					"internalType": "bool",
					"name": "",
					"type": "bool"
				}
			],
			"stateMutability": "view",
			"type": "function"
		},
		{
			"inputs": [],
			"name": "renounceOwnership",
			"outputs": [],
			"stateMutability": "nonpayable",
			"type": "function"
		},
		{
			"inputs": [
				{
					"internalType": "address",
					"name": "_newAddress",
					"type": "address"
				}
			],
			"name": "setCollectionRegistryAddress",
			"outputs": [],
			"stateMutability": "nonpayable",
			"type": "function"
		},
		{
			"inputs": [
				{
					"internalType": "address",
					"name": "newOwner",
					"type": "address"
				}
			],
			"name": "transferOwnership",
			"outputs": [],
			"stateMutability": "nonpayable",
			"type": "function"
		},
		{
			"inputs": [],
			"name": "unpause",
			"outputs": [],
			"stateMutability": "nonpayable",
			"type": "function"
		}
	],
	"bytecode": "0x60a06040523480156200001157600080fd5b5060405162002c4938038062002c49833981810160405281019062000037919062000289565b80600073ffffffffffffffffffffffffffffffffffffffff168173ffffffffffffffffffffffffffffffffffffffff1603620000ad5760006040517f1e4fbdf7000000000000000000000000000000000000000000000000000000008152600401620000a49190620002e1565b60405180910390fd5b620000be816200014d60201b60201c565b5060008060146101000a81548160ff02191690831515021790555081604051620000e89062000211565b620000f49190620002e1565b604051809103906000f08015801562000111573d6000803e3d6000fd5b5073ffffffffffffffffffffffffffffffffffffffff1660808173ffffffffffffffffffffffffffffffffffffffff16815250505050620002fe565b60008060009054906101000a900473ffffffffffffffffffffffffffffffffffffffff169050816000806101000a81548173ffffffffffffffffffffffffffffffffffffffff021916908373ffffffffffffffffffffffffffffffffffffffff1602179055508173ffffffffffffffffffffffffffffffffffffffff168173ffffffffffffffffffffffffffffffffffffffff167f8be0079c531659141344cd1fd0a4f28419497f9722a3daafe3b4186f6b6457e060405160405180910390a35050565b6111ce8062001a7b83390190565b600080fd5b600073ffffffffffffffffffffffffffffffffffffffff82169050919050565b6000620002518262000224565b9050919050565b620002638162000244565b81146200026f57600080fd5b50565b600081519050620002838162000258565b92915050565b60008060408385031215620002a357620002a26200021f565b5b6000620002b38582860162000272565b9250506020620002c68582860162000272565b9150509250929050565b620002db8162000244565b82525050565b6000602082019050620002f86000830184620002d0565b92915050565b60805161175362000328600039600081816101d70152818161020b01526104b601526117536000f3fe60806040523480156200001157600080fd5b5060043610620000ac5760003560e01c8063715018a6116200006f578063715018a614620001575780638456cb5914620001635780638da5cb5b146200016f578063aaf10f421462000191578063f2fde38b14620001b357620000ac565b80632d6b3a6b14620000b1578063329cf18814620000d35780633f4ba83a1462000109578063501565c814620001155780635c975abb1462000135575b600080fd5b620000bb620001d3565b604051620000ca9190620008df565b60405180910390f35b620000f16004803603810190620000eb9190620009e0565b620001fb565b604051620001009190620008df565b60405180910390f35b62000113620003d7565b005b6200013360048036038101906200012d919062000ac4565b620003ed565b005b6200013f62000445565b6040516200014e919062000b13565b60405180910390f35b620001616200045b565b005b6200016d62000473565b005b6200017962000489565b604051620001889190620008df565b60405180910390f35b6200019b620004b2565b604051620001aa9190620008df565b60405180910390f35b620001d16004803603810190620001cb919062000ac4565b6200054b565b005b60007f0000000000000000000000000000000000000000000000000000000000000000905090565b600062000207620005d8565b60007f00000000000000000000000000000000000000000000000000000000000000006387d0dc4060e01b8b8b338c8c8c8c60405160240162000251979695949392919062000ba5565b604051602081830303815290604052907bffffffffffffffffffffffffffffffffffffffffffffffffffffffff19166020820180517bffffffffffffffffffffffffffffffffffffffffffffffffffffffff8381831617835250505050604051620002bc906200088c565b620002c992919062000ca4565b604051809103906000f080158015620002e6573d6000803e3d6000fd5b5090506000600160009054906101000a900473ffffffffffffffffffffffffffffffffffffffff1690508073ffffffffffffffffffffffffffffffffffffffff1663727ccbf3338488888c6040518663ffffffff1660e01b81526004016200035395949392919062000cd8565b600060405180830381600087803b1580156200036e57600080fd5b505af115801562000383573d6000803e3d6000fd5b505050507fa9a63cb75fdf6f638d49c249df7d5b94dd8bb8ac664ca12da7339862b9dd87ae82338787604051620003be949392919062000d2e565b60405180910390a1819250505098975050505050505050565b620003e16200061c565b620003eb620006ac565b565b620003f76200061c565b62000401620005d8565b80600160006101000a81548173ffffffffffffffffffffffffffffffffffffffff021916908373ffffffffffffffffffffffffffffffffffffffff16021790555050565b60008060149054906101000a900460ff16905090565b620004656200061c565b62000471600062000714565b565b6200047d6200061c565b62000487620007d8565b565b60008060009054906101000a900473ffffffffffffffffffffffffffffffffffffffff16905090565b60007f000000000000000000000000000000000000000000000000000000000000000073ffffffffffffffffffffffffffffffffffffffff16635c60da1b6040518163ffffffff1660e01b8152600401602060405180830381865afa15801562000520573d6000803e3d6000fd5b505050506040513d601f19601f8201168201806040525081019062000546919062000d8b565b905090565b620005556200061c565b600073ffffffffffffffffffffffffffffffffffffffff168173ffffffffffffffffffffffffffffffffffffffff1603620005ca5760006040517f1e4fbdf7000000000000000000000000000000000000000000000000000000008152600401620005c19190620008df565b60405180910390fd5b620005d58162000714565b50565b620005e262000445565b156200061a576040517fd93c066500000000000000000000000000000000000000000000000000000000815260040160405180910390fd5b565b6200062662000841565b73ffffffffffffffffffffffffffffffffffffffff166200064662000489565b73ffffffffffffffffffffffffffffffffffffffff1614620006aa576200066c62000841565b6040517f118cdaa7000000000000000000000000000000000000000000000000000000008152600401620006a19190620008df565b60405180910390fd5b565b620006b662000849565b60008060146101000a81548160ff0219169083151502179055507f5db9ee0a495bf2e6ff9c91a7834c1ba4fdd244a5e8aa4e537bd38aeae4b073aa620006fb62000841565b6040516200070a9190620008df565b60405180910390a1565b60008060009054906101000a900473ffffffffffffffffffffffffffffffffffffffff169050816000806101000a81548173ffffffffffffffffffffffffffffffffffffffff021916908373ffffffffffffffffffffffffffffffffffffffff1602179055508173ffffffffffffffffffffffffffffffffffffffff168173ffffffffffffffffffffffffffffffffffffffff167f8be0079c531659141344cd1fd0a4f28419497f9722a3daafe3b4186f6b6457e060405160405180910390a35050565b620007e2620005d8565b6001600060146101000a81548160ff0219169083151502179055507f62e78cea01bee320cd4e420270b5ea74000d11b0c9f74754ebdbfc544b05a2586200082862000841565b604051620008379190620008df565b60405180910390a1565b600033905090565b6200085362000445565b6200088a576040517f8dfc202b00000000000000000000000000000000000000000000000000000000815260040160405180910390fd5b565b6109608062000dbe83390190565b600073ffffffffffffffffffffffffffffffffffffffff82169050919050565b6000620008c7826200089a565b9050919050565b620008d981620008ba565b82525050565b6000602082019050620008f66000830184620008ce565b92915050565b600080fd5b600080fd5b600080fd5b600080fd5b600080fd5b60008083601f8401126200092e576200092d62000906565b5b8235905067ffffffffffffffff8111156200094e576200094d6200090b565b5b6020830191508360018202830111156200096d576200096c62000910565b5b9250929050565b6000819050919050565b620009898162000974565b81146200099557600080fd5b50565b600081359050620009a9816200097e565b92915050565b620009ba81620008ba565b8114620009c657600080fd5b50565b600081359050620009da81620009af565b92915050565b60008060008060008060008060c0898b03121562000a035762000a02620008fc565b5b600089013567ffffffffffffffff81111562000a245762000a2362000901565b5b62000a328b828c0162000915565b9850985050602062000a478b828c0162000998565b965050604062000a5a8b828c0162000998565b955050606062000a6d8b828c01620009c9565b945050608062000a808b828c0162000998565b93505060a089013567ffffffffffffffff81111562000aa45762000aa362000901565b5b62000ab28b828c0162000915565b92509250509295985092959890939650565b60006020828403121562000add5762000adc620008fc565b5b600062000aed84828501620009c9565b91505092915050565b60008115159050919050565b62000b0d8162000af6565b82525050565b600060208201905062000b2a600083018462000b02565b92915050565b600082825260208201905092915050565b82818337600083830152505050565b6000601f19601f8301169050919050565b600062000b6f838562000b30565b935062000b7e83858462000b41565b62000b898362000b50565b840190509392505050565b62000b9f8162000974565b82525050565b600060c082019050818103600083015262000bc281898b62000b61565b905062000bd36020830188620008ce565b62000be2604083018762000b94565b62000bf1606083018662000b94565b62000c006080830185620008ce565b62000c0f60a083018462000b94565b98975050505050505050565b600081519050919050565b600082825260208201905092915050565b60005b8381101562000c5757808201518184015260208101905062000c3a565b60008484015250505050565b600062000c708262000c1b565b62000c7c818562000c26565b935062000c8e81856020860162000c37565b62000c998162000b50565b840191505092915050565b600060408201905062000cbb6000830185620008ce565b818103602083015262000ccf818462000c63565b90509392505050565b600060808201905062000cef6000830188620008ce565b62000cfe6020830187620008ce565b818103604083015262000d1381858762000b61565b905062000d246060830184620008ce565b9695505050505050565b600060608201905062000d456000830187620008ce565b62000d546020830186620008ce565b818103604083015262000d6981848662000b61565b905095945050505050565b60008151905062000d8581620009af565b92915050565b60006020828403121562000da45762000da3620008fc565b5b600062000db48482850162000d74565b9150509291505056fe60a060405260405161096038038061096083398181016040528101906100259190610684565b610035828261007060201b60201c565b8173ffffffffffffffffffffffffffffffffffffffff1660808173ffffffffffffffffffffffffffffffffffffffff16815250505050610795565b61007f8261016360201b60201c565b8173ffffffffffffffffffffffffffffffffffffffff167f1cf3b03a6cf19fa2baba4df148e9dcabedea7f8a5c07840e207e5c089be95d3e60405160405180910390a26000815111156101505761014a8273ffffffffffffffffffffffffffffffffffffffff16635c60da1b6040518163ffffffff1660e01b8152600401602060405180830381865afa15801561011a573d6000803e3d6000fd5b505050506040513d601f19601f8201168201806040525081019061013e91906106e0565b8261030660201b60201c565b5061015f565b61015e61039060201b60201c565b5b5050565b60008173ffffffffffffffffffffffffffffffffffffffff163b036101bf57806040517f64ced0ec0000000000000000000000000000000000000000000000000000000081526004016101b6919061071c565b60405180910390fd5b806101f27fa3f0ad74e5423aebfd80d3ef4346578335a9a72aeaee59ff6cb3582b35133d5060001b6103cd60201b60201c565b60000160006101000a81548173ffffffffffffffffffffffffffffffffffffffff021916908373ffffffffffffffffffffffffffffffffffffffff16021790555060008173ffffffffffffffffffffffffffffffffffffffff16635c60da1b6040518163ffffffff1660e01b8152600401602060405180830381865afa158015610280573d6000803e3d6000fd5b505050506040513d601f19601f820116820180604052508101906102a491906106e0565b905060008173ffffffffffffffffffffffffffffffffffffffff163b0361030257806040517f4c9c8ce30000000000000000000000000000000000000000000000000000000081526004016102f9919061071c565b60405180910390fd5b5050565b60606000808473ffffffffffffffffffffffffffffffffffffffff1684604051610330919061077e565b600060405180830381855af49150503d806000811461036b576040519150601f19603f3d011682016040523d82523d6000602084013e610370565b606091505b50915091506103868583836103d760201b60201c565b9250505092915050565b60003411156103cb576040517fb398979f00000000000000000000000000000000000000000000000000000000815260040160405180910390fd5b565b6000819050919050565b6060826103f2576103ed8261046c60201b60201c565b610464565b6000825114801561041a575060008473ffffffffffffffffffffffffffffffffffffffff163b145b1561045c57836040517f9996b315000000000000000000000000000000000000000000000000000000008152600401610453919061071c565b60405180910390fd5b819050610465565b5b9392505050565b60008151111561047f5780518082602001fd5b6040517f1425ea4200000000000000000000000000000000000000000000000000000000815260040160405180910390fd5b6000604051905090565b600080fd5b600080fd5b600073ffffffffffffffffffffffffffffffffffffffff82169050919050565b60006104f0826104c5565b9050919050565b610500816104e5565b811461050b57600080fd5b50565b60008151905061051d816104f7565b92915050565b600080fd5b600080fd5b6000601f19601f8301169050919050565b7f4e487b7100000000000000000000000000000000000000000000000000000000600052604160045260246000fd5b6105768261052d565b810181811067ffffffffffffffff821117156105955761059461053e565b5b80604052505050565b60006105a86104b1565b90506105b4828261056d565b919050565b600067ffffffffffffffff8211156105d4576105d361053e565b5b6105dd8261052d565b9050602081019050919050565b60005b838110156106085780820151818401526020810190506105ed565b60008484015250505050565b6000610627610622846105b9565b61059e565b90508281526020810184848401111561064357610642610528565b5b61064e8482856105ea565b509392505050565b600082601f83011261066b5761066a610523565b5b815161067b848260208601610614565b91505092915050565b6000806040838503121561069b5761069a6104bb565b5b60006106a98582860161050e565b925050602083015167ffffffffffffffff8111156106ca576106c96104c0565b5b6106d685828601610656565b9150509250929050565b6000602082840312156106f6576106f56104bb565b5b60006107048482850161050e565b91505092915050565b610716816104e5565b82525050565b6000602082019050610731600083018461070d565b92915050565b600081519050919050565b600081905092915050565b600061075882610737565b6107628185610742565b93506107728185602086016105ea565b80840191505092915050565b600061078a828461074d565b915081905092915050565b6080516101b16107af600039600060c701526101b16000f3fe608060405261000c61000e565b005b61001e610019610020565b61009d565b565b600061002a6100c3565b73ffffffffffffffffffffffffffffffffffffffff16635c60da1b6040518163ffffffff1660e01b8152600401602060405180830381865afa158015610074573d6000803e3d6000fd5b505050506040513d601f19601f82011682018060405250810190610098919061014e565b905090565b3660008037600080366000845af43d6000803e80600081146100be573d6000f35b3d6000fd5b60007f0000000000000000000000000000000000000000000000000000000000000000905090565b600080fd5b600073ffffffffffffffffffffffffffffffffffffffff82169050919050565b600061011b826100f0565b9050919050565b61012b81610110565b811461013657600080fd5b50565b60008151905061014881610122565b92915050565b600060208284031215610164576101636100eb565b5b600061017284828501610139565b9150509291505056fea2646970667358221220d403e4a55514b9d20cbb15d1c14ce78fd4a2a737215249fda01aa185ea5c866064736f6c63430008140033a2646970667358221220a3c0df8f86d0562c3da45935f25b2f62b5131d069b6d8a1c29a06da77e0d696f64736f6c6343000814003360a060405234801561001057600080fd5b50604051620011ce380380620011ce83398181016040528101906100349190610407565b33600073ffffffffffffffffffffffffffffffffffffffff168173ffffffffffffffffffffffffffffffffffffffff16036100a75760006040517f1e4fbdf700000000000000000000000000000000000000000000000000000000815260040161009e9190610443565b60405180910390fd5b6100b68161017660201b60201c565b5080336040516100c590610396565b6100d092919061045e565b604051809103906000f0801580156100ec573d6000803e3d6000fd5b5073ffffffffffffffffffffffffffffffffffffffff1660808173ffffffffffffffffffffffffffffffffffffffff168152505080600160006101000a81548173ffffffffffffffffffffffffffffffffffffffff021916908373ffffffffffffffffffffffffffffffffffffffff1602179055506101703361023a60201b60201c565b50610487565b60008060009054906101000a900473ffffffffffffffffffffffffffffffffffffffff169050816000806101000a81548173ffffffffffffffffffffffffffffffffffffffff021916908373ffffffffffffffffffffffffffffffffffffffff1602179055508173ffffffffffffffffffffffffffffffffffffffff168173ffffffffffffffffffffffffffffffffffffffff167f8be0079c531659141344cd1fd0a4f28419497f9722a3daafe3b4186f6b6457e060405160405180910390a35050565b6102486102cc60201b60201c565b600073ffffffffffffffffffffffffffffffffffffffff168173ffffffffffffffffffffffffffffffffffffffff16036102ba5760006040517f1e4fbdf70000000000000000000000000000000000000000000000000000000081526004016102b19190610443565b60405180910390fd5b6102c98161017660201b60201c565b50565b6102da61036560201b60201c565b73ffffffffffffffffffffffffffffffffffffffff166102fe61036d60201b60201c565b73ffffffffffffffffffffffffffffffffffffffff16146103635761032761036560201b60201c565b6040517f118cdaa700000000000000000000000000000000000000000000000000000000815260040161035a9190610443565b60405180910390fd5b565b600033905090565b60008060009054906101000a900473ffffffffffffffffffffffffffffffffffffffff16905090565b61084f806200097f83390190565b600080fd5b600073ffffffffffffffffffffffffffffffffffffffff82169050919050565b60006103d4826103a9565b9050919050565b6103e4816103c9565b81146103ef57600080fd5b50565b600081519050610401816103db565b92915050565b60006020828403121561041d5761041c6103a4565b5b600061042b848285016103f2565b91505092915050565b61043d816103c9565b82525050565b60006020820190506104586000830184610434565b92915050565b60006040820190506104736000830185610434565b6104806020830184610434565b9392505050565b6080516104dd620004a2600039600060e401526104dd6000f3fe608060405234801561001057600080fd5b50600436106100575760003560e01c80631c1b87721461005c5780635c60da1b14610078578063715018a6146100965780638da5cb5b146100a0578063f2fde38b146100be575b600080fd5b61007660048036038101906100719190610450565b6100da565b005b6100806101b1565b60405161008d919061048c565b60405180910390f35b61009e6101d7565b005b6100a86101eb565b6040516100b5919061048c565b60405180910390f35b6100d860048036038101906100d39190610450565b610214565b005b6100e261029a565b7f000000000000000000000000000000000000000000000000000000000000000073ffffffffffffffffffffffffffffffffffffffff16633659cfe6826040518263ffffffff1660e01b815260040161013b919061048c565b600060405180830381600087803b15801561015557600080fd5b505af1158015610169573d6000803e3d6000fd5b5050505080600160006101000a81548173ffffffffffffffffffffffffffffffffffffffff021916908373ffffffffffffffffffffffffffffffffffffffff16021790555050565b600160009054906101000a900473ffffffffffffffffffffffffffffffffffffffff1681565b6101df61029a565b6101e96000610321565b565b60008060009054906101000a900473ffffffffffffffffffffffffffffffffffffffff16905090565b61021c61029a565b600073ffffffffffffffffffffffffffffffffffffffff168173ffffffffffffffffffffffffffffffffffffffff160361028e5760006040517f1e4fbdf7000000000000000000000000000000000000000000000000000000008152600401610285919061048c565b60405180910390fd5b61029781610321565b50565b6102a26103e5565b73ffffffffffffffffffffffffffffffffffffffff166102c06101eb565b73ffffffffffffffffffffffffffffffffffffffff161461031f576102e36103e5565b6040517f118cdaa7000000000000000000000000000000000000000000000000000000008152600401610316919061048c565b60405180910390fd5b565b60008060009054906101000a900473ffffffffffffffffffffffffffffffffffffffff169050816000806101000a81548173ffffffffffffffffffffffffffffffffffffffff021916908373ffffffffffffffffffffffffffffffffffffffff1602179055508173ffffffffffffffffffffffffffffffffffffffff168173ffffffffffffffffffffffffffffffffffffffff167f8be0079c531659141344cd1fd0a4f28419497f9722a3daafe3b4186f6b6457e060405160405180910390a35050565b600033905090565b600080fd5b600073ffffffffffffffffffffffffffffffffffffffff82169050919050565b600061041d826103f2565b9050919050565b61042d81610412565b811461043857600080fd5b50565b60008135905061044a81610424565b92915050565b600060208284031215610466576104656103ed565b5b60006104748482850161043b565b91505092915050565b61048681610412565b82525050565b60006020820190506104a1600083018461047d565b9291505056fea2646970667358221220d88061e3815cc2c11e2fc943b00ef4f731df1df7b347fe8d00b26d9bb8b5450164736f6c63430008140033608060405234801561001057600080fd5b5060405161084f38038061084f833981810160405281019061003291906102d5565b80600073ffffffffffffffffffffffffffffffffffffffff168173ffffffffffffffffffffffffffffffffffffffff16036100a55760006040517f1e4fbdf700000000000000000000000000000000000000000000000000000000815260040161009c9190610324565b60405180910390fd5b6100b4816100cb60201b60201c565b506100c48261018f60201b60201c565b505061033f565b60008060009054906101000a900473ffffffffffffffffffffffffffffffffffffffff169050816000806101000a81548173ffffffffffffffffffffffffffffffffffffffff021916908373ffffffffffffffffffffffffffffffffffffffff1602179055508173ffffffffffffffffffffffffffffffffffffffff168173ffffffffffffffffffffffffffffffffffffffff167f8be0079c531659141344cd1fd0a4f28419497f9722a3daafe3b4186f6b6457e060405160405180910390a35050565b60008173ffffffffffffffffffffffffffffffffffffffff163b036101eb57806040517f847ac5640000000000000000000000000000000000000000000000000000000081526004016101e29190610324565b60405180910390fd5b80600160006101000a81548173ffffffffffffffffffffffffffffffffffffffff021916908373ffffffffffffffffffffffffffffffffffffffff1602179055508073ffffffffffffffffffffffffffffffffffffffff167fbc7cd75a20ee27fd9adebab32041f755214dbc6bffa90cc0225b39da2e5c2d3b60405160405180910390a250565b600080fd5b600073ffffffffffffffffffffffffffffffffffffffff82169050919050565b60006102a282610277565b9050919050565b6102b281610297565b81146102bd57600080fd5b50565b6000815190506102cf816102a9565b92915050565b600080604083850312156102ec576102eb610272565b5b60006102fa858286016102c0565b925050602061030b858286016102c0565b9150509250929050565b61031e81610297565b82525050565b60006020820190506103396000830184610315565b92915050565b6105018061034e6000396000f3fe608060405234801561001057600080fd5b50600436106100575760003560e01c80633659cfe61461005c5780635c60da1b14610078578063715018a6146100965780638da5cb5b146100a0578063f2fde38b146100be575b600080fd5b61007660048036038101906100719190610474565b6100da565b005b6100806100ee565b60405161008d91906104b0565b60405180910390f35b61009e610118565b005b6100a861012c565b6040516100b591906104b0565b60405180910390f35b6100d860048036038101906100d39190610474565b610155565b005b6100e26101db565b6100eb81610262565b50565b6000600160009054906101000a900473ffffffffffffffffffffffffffffffffffffffff16905090565b6101206101db565b61012a6000610345565b565b60008060009054906101000a900473ffffffffffffffffffffffffffffffffffffffff16905090565b61015d6101db565b600073ffffffffffffffffffffffffffffffffffffffff168173ffffffffffffffffffffffffffffffffffffffff16036101cf5760006040517f1e4fbdf70000000000000000000000000000000000000000000000000000000081526004016101c691906104b0565b60405180910390fd5b6101d881610345565b50565b6101e3610409565b73ffffffffffffffffffffffffffffffffffffffff1661020161012c565b73ffffffffffffffffffffffffffffffffffffffff161461026057610224610409565b6040517f118cdaa700000000000000000000000000000000000000000000000000000000815260040161025791906104b0565b60405180910390fd5b565b60008173ffffffffffffffffffffffffffffffffffffffff163b036102be57806040517f847ac5640000000000000000000000000000000000000000000000000000000081526004016102b591906104b0565b60405180910390fd5b80600160006101000a81548173ffffffffffffffffffffffffffffffffffffffff021916908373ffffffffffffffffffffffffffffffffffffffff1602179055508073ffffffffffffffffffffffffffffffffffffffff167fbc7cd75a20ee27fd9adebab32041f755214dbc6bffa90cc0225b39da2e5c2d3b60405160405180910390a250565b60008060009054906101000a900473ffffffffffffffffffffffffffffffffffffffff169050816000806101000a81548173ffffffffffffffffffffffffffffffffffffffff021916908373ffffffffffffffffffffffffffffffffffffffff1602179055508173ffffffffffffffffffffffffffffffffffffffff168173ffffffffffffffffffffffffffffffffffffffff167f8be0079c531659141344cd1fd0a4f28419497f9722a3daafe3b4186f6b6457e060405160405180910390a35050565b600033905090565b600080fd5b600073ffffffffffffffffffffffffffffffffffffffff82169050919050565b600061044182610416565b9050919050565b61045181610436565b811461045c57600080fd5b50565b60008135905061046e81610448565b92915050565b60006020828403121561048a57610489610411565b5b60006104988482850161045f565b91505092915050565b6104aa81610436565b82525050565b60006020820190506104c560008301846104a1565b9291505056fea2646970667358221220d2479cbba52a0ca83442540f577eafae2dc5bab46dc894bb961f476ee8ee2c9964736f6c63430008140033",
	"linkReferences": {},
	"deployedLinkReferences": {}
}