{
  "_format": "hh-sol-artifact-1",
  "contractName": "ERC1155BalanceOf",
  "sourceName": "contracts/helpers/ERC1155BalanceOf.sol",
  "abi": [
    {
      "inputs": [
        {
          "internalType": "address",
          "name": "account",
          "type": "address"
        },
        {
          "internalType": "uint256",
          "name": "tokenId",
          "type": "uint256"
        }
      ],
      "name": "balanceOf",
      "outputs": [
        {
          "internalType": "uint256",
          "name": "",
          "type": "uint256"
        }
      ],
      "stateMutability": "view",
      "type": "function"
    }
  ],
  "bytecode": "0x608060405234801561001057600080fd5b506101a0806100206000396000f3fe608060405234801561001057600080fd5b506004361061002a5760003560e01c8062fdd58e1461002f575b600080fd5b61004960048036038101906100449190610100565b61005f565b604051610056919061014f565b60405180910390f35b600092915050565b600080fd5b600073ffffffffffffffffffffffffffffffffffffffff82169050919050565b60006100978261006c565b9050919050565b6100a78161008c565b81146100b257600080fd5b50565b6000813590506100c48161009e565b92915050565b6000819050919050565b6100dd816100ca565b81146100e857600080fd5b50565b6000813590506100fa816100d4565b92915050565b6000806040838503121561011757610116610067565b5b6000610125858286016100b5565b9250506020610136858286016100eb565b9150509250929050565b610149816100ca565b82525050565b60006020820190506101646000830184610140565b9291505056fea2646970667358221220784378597a4b5a08877ddfa8fe03b6697bd9692cc38ef5c569bf8c8d3a83801a64736f6c63430008140033",
  "linkReferences": {},
  "deployedLinkReferences": {}
}