{
  "_format": "hh-sol-artifact-1",
  "contractName": "Collection",
  "sourceName": "contracts/collections/Collection.sol",
  "abi": [
    {
      "inputs": [],
      "name": "AccessControlBadConfirmation",
      "type": "error"
    },
    {
      "inputs": [
        {
          "internalType": "address",
          "name": "account",
          "type": "address"
        },
        {
          "internalType": "bytes32",
          "name": "neededRole",
          "type": "bytes32"
        }
      ],
      "name": "AccessControlUnauthorizedAccount",
      "type": "error"
    },
    {
      "inputs": [
        {
          "internalType": "address",
          "name": "sender",
          "type": "address"
        },
        {
          "internalType": "uint256",
          "name": "balance",
          "type": "uint256"
        },
        {
          "internalType": "uint256",
          "name": "needed",
          "type": "uint256"
        },
        {
          "internalType": "uint256",
          "name": "tokenId",
          "type": "uint256"
        }
      ],
      "name": "ERC1155InsufficientBalance",
      "type": "error"
    },
    {
      "inputs": [
        {
          "internalType": "address",
          "name": "approver",
          "type": "address"
        }
      ],
      "name": "ERC1155InvalidApprover",
      "type": "error"
    },
    {
      "inputs": [
        {
          "internalType": "uint256",
          "name": "idsLength",
          "type": "uint256"
        },
        {
          "internalType": "uint256",
          "name": "valuesLength",
          "type": "uint256"
        }
      ],
      "name": "ERC1155InvalidArrayLength",
      "type": "error"
    },
    {
      "inputs": [
        {
          "internalType": "address",
          "name": "operator",
          "type": "address"
        }
      ],
      "name": "ERC1155InvalidOperator",
      "type": "error"
    },
    {
      "inputs": [
        {
          "internalType": "address",
          "name": "receiver",
          "type": "address"
        }
      ],
      "name": "ERC1155InvalidReceiver",
      "type": "error"
    },
    {
      "inputs": [
        {
          "internalType": "address",
          "name": "sender",
          "type": "address"
        }
      ],
      "name": "ERC1155InvalidSender",
      "type": "error"
    },
    {
      "inputs": [
        {
          "internalType": "address",
          "name": "operator",
          "type": "address"
        },
        {
          "internalType": "address",
          "name": "owner",
          "type": "address"
        }
      ],
      "name": "ERC1155MissingApprovalForAll",
      "type": "error"
    },
    {
      "inputs": [],
      "name": "EnforcedPause",
      "type": "error"
    },
    {
      "inputs": [],
      "name": "ExpectedPause",
      "type": "error"
    },
    {
      "inputs": [],
      "name": "InvalidInitialization",
      "type": "error"
    },
    {
      "inputs": [],
      "name": "NotInitializing",
      "type": "error"
    },
    {
      "anonymous": false,
      "inputs": [
        {
          "indexed": true,
          "internalType": "address",
          "name": "account",
          "type": "address"
        },
        {
          "indexed": true,
          "internalType": "address",
          "name": "operator",
          "type": "address"
        },
        {
          "indexed": false,
          "internalType": "bool",
          "name": "approved",
          "type": "bool"
        }
      ],
      "name": "ApprovalForAll",
      "type": "event"
    },
    {
      "anonymous": false,
      "inputs": [
        {
          "indexed": false,
          "internalType": "uint64",
          "name": "version",
          "type": "uint64"
        }
      ],
      "name": "Initialized",
      "type": "event"
    },
    {
      "anonymous": false,
      "inputs": [
        {
          "indexed": false,
          "internalType": "address",
          "name": "account",
          "type": "address"
        },
        {
          "indexed": false,
          "internalType": "uint256",
          "name": "id",
          "type": "uint256"
        },
        {
          "indexed": false,
          "internalType": "address",
          "name": "contractAddress",
          "type": "address"
        }
      ],
      "name": "NewVersoCollected",
      "type": "event"
    },
    {
      "anonymous": false,
      "inputs": [
        {
          "indexed": false,
          "internalType": "address",
          "name": "account",
          "type": "address"
        },
        {
          "indexed": false,
          "internalType": "uint256",
          "name": "id",
          "type": "uint256"
        },
        {
          "indexed": false,
          "internalType": "string",
          "name": "metadataURI",
          "type": "string"
        }
      ],
      "name": "NewVersoCreated",
      "type": "event"
    },
    {
      "anonymous": false,
      "inputs": [
        {
          "indexed": false,
          "internalType": "address",
          "name": "account",
          "type": "address"
        }
      ],
      "name": "Paused",
      "type": "event"
    },
    {
      "anonymous": false,
      "inputs": [
        {
          "indexed": true,
          "internalType": "bytes32",
          "name": "role",
          "type": "bytes32"
        },
        {
          "indexed": true,
          "internalType": "bytes32",
          "name": "previousAdminRole",
          "type": "bytes32"
        },
        {
          "indexed": true,
          "internalType": "bytes32",
          "name": "newAdminRole",
          "type": "bytes32"
        }
      ],
      "name": "RoleAdminChanged",
      "type": "event"
    },
    {
      "anonymous": false,
      "inputs": [
        {
          "indexed": true,
          "internalType": "bytes32",
          "name": "role",
          "type": "bytes32"
        },
        {
          "indexed": true,
          "internalType": "address",
          "name": "account",
          "type": "address"
        },
        {
          "indexed": true,
          "internalType": "address",
          "name": "sender",
          "type": "address"
        }
      ],
      "name": "RoleGranted",
      "type": "event"
    },
    {
      "anonymous": false,
      "inputs": [
        {
          "indexed": true,
          "internalType": "bytes32",
          "name": "role",
          "type": "bytes32"
        },
        {
          "indexed": true,
          "internalType": "address",
          "name": "account",
          "type": "address"
        },
        {
          "indexed": true,
          "internalType": "address",
          "name": "sender",
          "type": "address"
        }
      ],
      "name": "RoleRevoked",
      "type": "event"
    },
    {
      "anonymous": false,
      "inputs": [
        {
          "indexed": true,
          "internalType": "address",
          "name": "operator",
          "type": "address"
        },
        {
          "indexed": true,
          "internalType": "address",
          "name": "from",
          "type": "address"
        },
        {
          "indexed": true,
          "internalType": "address",
          "name": "to",
          "type": "address"
        },
        {
          "indexed": false,
          "internalType": "uint256[]",
          "name": "ids",
          "type": "uint256[]"
        },
        {
          "indexed": false,
          "internalType": "uint256[]",
          "name": "values",
          "type": "uint256[]"
        }
      ],
      "name": "TransferBatch",
      "type": "event"
    },
    {
      "anonymous": false,
      "inputs": [
        {
          "indexed": true,
          "internalType": "address",
          "name": "operator",
          "type": "address"
        },
        {
          "indexed": true,
          "internalType": "address",
          "name": "from",
          "type": "address"
        },
        {
          "indexed": true,
          "internalType": "address",
          "name": "to",
          "type": "address"
        },
        {
          "indexed": false,
          "internalType": "uint256",
          "name": "id",
          "type": "uint256"
        },
        {
          "indexed": false,
          "internalType": "uint256",
          "name": "value",
          "type": "uint256"
        }
      ],
      "name": "TransferSingle",
      "type": "event"
    },
    {
      "anonymous": false,
      "inputs": [
        {
          "indexed": false,
          "internalType": "string",
          "name": "value",
          "type": "string"
        },
        {
          "indexed": true,
          "internalType": "uint256",
          "name": "id",
          "type": "uint256"
        }
      ],
      "name": "URI",
      "type": "event"
    },
    {
      "anonymous": false,
      "inputs": [
        {
          "indexed": false,
          "internalType": "address",
          "name": "account",
          "type": "address"
        }
      ],
      "name": "Unpaused",
      "type": "event"
    },
    {
      "anonymous": false,
      "inputs": [
        {
          "indexed": false,
          "internalType": "address",
          "name": "moderator",
          "type": "address"
        },
        {
          "indexed": false,
          "internalType": "address",
          "name": "collection",
          "type": "address"
        },
        {
          "indexed": false,
          "internalType": "uint256",
          "name": "tokenId",
          "type": "uint256"
        }
      ],
      "name": "VersoDeleted",
      "type": "event"
    },
    {
      "inputs": [],
      "name": "DEFAULT_ADMIN_ROLE",
      "outputs": [
        {
          "internalType": "bytes32",
          "name": "",
          "type": "bytes32"
        }
      ],
      "stateMutability": "view",
      "type": "function"
    },
    {
      "inputs": [],
      "name": "VERSION",
      "outputs": [
        {
          "internalType": "uint256",
          "name": "",
          "type": "uint256"
        }
      ],
      "stateMutability": "view",
      "type": "function"
    },
    {
      "inputs": [
        {
          "internalType": "address",
          "name": "account",
          "type": "address"
        },
        {
          "internalType": "uint256",
          "name": "id",
          "type": "uint256"
        }
      ],
      "name": "balanceOf",
      "outputs": [
        {
          "internalType": "uint256",
          "name": "",
          "type": "uint256"
        }
      ],
      "stateMutability": "view",
      "type": "function"
    },
    {
      "inputs": [
        {
          "internalType": "address[]",
          "name": "accounts",
          "type": "address[]"
        },
        {
          "internalType": "uint256[]",
          "name": "ids",
          "type": "uint256[]"
        }
      ],
      "name": "balanceOfBatch",
      "outputs": [
        {
          "internalType": "uint256[]",
          "name": "",
          "type": "uint256[]"
        }
      ],
      "stateMutability": "view",
      "type": "function"
    },
    {
      "inputs": [
        {
          "internalType": "uint256",
          "name": "tokenId",
          "type": "uint256"
        },
        {
          "internalType": "uint256",
          "name": "amount",
          "type": "uint256"
        }
      ],
      "name": "burn",
      "outputs": [],
      "stateMutability": "payable",
      "type": "function"
    },
    {
      "inputs": [
        {
          "internalType": "uint256",
          "name": "id",
          "type": "uint256"
        },
        {
          "internalType": "address",
          "name": "receipient",
          "type": "address"
        },
        {
          "internalType": "uint256",
          "name": "amount",
          "type": "uint256"
        }
      ],
      "name": "collect",
      "outputs": [],
      "stateMutability": "payable",
      "type": "function"
    },
    {
      "inputs": [],
      "name": "collectionPermissions",
      "outputs": [
        {
          "internalType": "address",
          "name": "",
          "type": "address"
        }
      ],
      "stateMutability": "view",
      "type": "function"
    },
    {
      "inputs": [
        {
          "internalType": "string",
          "name": "url",
          "type": "string"
        },
        {
          "internalType": "address",
          "name": "_receipient",
          "type": "address"
        },
        {
          "internalType": "address",
          "name": "_permissions",
          "type": "address"
        },
        {
          "internalType": "address",
          "name": "_marketAddress",
          "type": "address"
        },
        {
          "internalType": "uint256",
          "name": "_supplyLimit",
          "type": "uint256"
        },
        {
          "internalType": "uint256",
          "name": "_tokenPrice",
          "type": "uint256"
        },
        {
          "internalType": "bool",
          "name": "_isListed",
          "type": "bool"
        },
        {
          "internalType": "bool",
          "name": "_isBonded",
          "type": "bool"
        }
      ],
      "name": "create",
      "outputs": [],
      "stateMutability": "payable",
      "type": "function"
    },
    {
      "inputs": [
        {
          "internalType": "uint256",
          "name": "",
          "type": "uint256"
        }
      ],
      "name": "creator",
      "outputs": [
        {
          "internalType": "address",
          "name": "",
          "type": "address"
        }
      ],
      "stateMutability": "view",
      "type": "function"
    },
    {
      "inputs": [
        {
          "internalType": "bytes32",
          "name": "role",
          "type": "bytes32"
        }
      ],
      "name": "getRoleAdmin",
      "outputs": [
        {
          "internalType": "bytes32",
          "name": "",
          "type": "bytes32"
        }
      ],
      "stateMutability": "view",
      "type": "function"
    },
    {
      "inputs": [
        {
          "internalType": "bytes32",
          "name": "role",
          "type": "bytes32"
        },
        {
          "internalType": "uint256",
          "name": "index",
          "type": "uint256"
        }
      ],
      "name": "getRoleMember",
      "outputs": [
        {
          "internalType": "address",
          "name": "",
          "type": "address"
        }
      ],
      "stateMutability": "view",
      "type": "function"
    },
    {
      "inputs": [
        {
          "internalType": "bytes32",
          "name": "role",
          "type": "bytes32"
        }
      ],
      "name": "getRoleMemberCount",
      "outputs": [
        {
          "internalType": "uint256",
          "name": "",
          "type": "uint256"
        }
      ],
      "stateMutability": "view",
      "type": "function"
    },
    {
      "inputs": [
        {
          "internalType": "bytes32",
          "name": "role",
          "type": "bytes32"
        },
        {
          "internalType": "address",
          "name": "account",
          "type": "address"
        }
      ],
      "name": "grantRole",
      "outputs": [],
      "stateMutability": "nonpayable",
      "type": "function"
    },
    {
      "inputs": [
        {
          "internalType": "address",
          "name": "user",
          "type": "address"
        }
      ],
      "name": "hasReadPermission",
      "outputs": [
        {
          "internalType": "bool",
          "name": "hasPermission",
          "type": "bool"
        }
      ],
      "stateMutability": "view",
      "type": "function"
    },
    {
      "inputs": [
        {
          "internalType": "bytes32",
          "name": "role",
          "type": "bytes32"
        },
        {
          "internalType": "address",
          "name": "account",
          "type": "address"
        }
      ],
      "name": "hasRole",
      "outputs": [
        {
          "internalType": "bool",
          "name": "",
          "type": "bool"
        }
      ],
      "stateMutability": "view",
      "type": "function"
    },
    {
      "inputs": [
        {
          "internalType": "address",
          "name": "user",
          "type": "address"
        }
      ],
      "name": "hasWritePermission",
      "outputs": [
        {
          "internalType": "bool",
          "name": "hasPermission",
          "type": "bool"
        }
      ],
      "stateMutability": "view",
      "type": "function"
    },
    {
      "inputs": [
        {
          "internalType": "string",
          "name": "_name",
          "type": "string"
        },
        {
          "internalType": "address",
          "name": "_owner",
          "type": "address"
        },
        {
          "internalType": "uint8",
          "name": "_readType",
          "type": "uint8"
        },
        {
          "internalType": "uint8",
          "name": "_writeType",
          "type": "uint8"
        },
        {
          "internalType": "address",
          "name": "_collectionPermissions",
          "type": "address"
        },
        {
          "internalType": "uint256",
          "name": "_minimumBalance",
          "type": "uint256"
        }
      ],
      "name": "initialize",
      "outputs": [],
      "stateMutability": "nonpayable",
      "type": "function"
    },
    {
      "inputs": [
        {
          "internalType": "address",
          "name": "account",
          "type": "address"
        },
        {
          "internalType": "address",
          "name": "operator",
          "type": "address"
        }
      ],
      "name": "isApprovedForAll",
      "outputs": [
        {
          "internalType": "bool",
          "name": "",
          "type": "bool"
        }
      ],
      "stateMutability": "view",
      "type": "function"
    },
    {
      "inputs": [
        {
          "internalType": "uint256",
          "name": "",
          "type": "uint256"
        }
      ],
      "name": "isListed",
      "outputs": [
        {
          "internalType": "bool",
          "name": "",
          "type": "bool"
        }
      ],
      "stateMutability": "view",
      "type": "function"
    },
    {
      "inputs": [
        {
          "internalType": "address",
          "name": "user",
          "type": "address"
        }
      ],
      "name": "isModerator",
      "outputs": [
        {
          "internalType": "bool",
          "name": "",
          "type": "bool"
        }
      ],
      "stateMutability": "view",
      "type": "function"
    },
    {
      "inputs": [
        {
          "internalType": "uint256",
          "name": "",
          "type": "uint256"
        }
      ],
      "name": "marketAddresses",
      "outputs": [
        {
          "internalType": "address",
          "name": "",
          "type": "address"
        }
      ],
      "stateMutability": "view",
      "type": "function"
    },
    {
      "inputs": [],
      "name": "minimumBalance",
      "outputs": [
        {
          "internalType": "uint256",
          "name": "",
          "type": "uint256"
        }
      ],
      "stateMutability": "view",
      "type": "function"
    },
    {
      "inputs": [],
      "name": "name",
      "outputs": [
        {
          "internalType": "string",
          "name": "",
          "type": "string"
        }
      ],
      "stateMutability": "view",
      "type": "function"
    },
    {
      "inputs": [
        {
          "internalType": "address",
          "name": "operator",
          "type": "address"
        },
        {
          "internalType": "address",
          "name": "",
          "type": "address"
        },
        {
          "internalType": "uint256[]",
          "name": "",
          "type": "uint256[]"
        },
        {
          "internalType": "uint256[]",
          "name": "",
          "type": "uint256[]"
        },
        {
          "internalType": "bytes",
          "name": "",
          "type": "bytes"
        }
      ],
      "name": "onERC1155BatchReceived",
      "outputs": [
        {
          "internalType": "bytes4",
          "name": "ret",
          "type": "bytes4"
        }
      ],
      "stateMutability": "nonpayable",
      "type": "function"
    },
    {
      "inputs": [
        {
          "internalType": "address",
          "name": "operator",
          "type": "address"
        },
        {
          "internalType": "address",
          "name": "",
          "type": "address"
        },
        {
          "internalType": "uint256",
          "name": "",
          "type": "uint256"
        },
        {
          "internalType": "uint256",
          "name": "",
          "type": "uint256"
        },
        {
          "internalType": "bytes",
          "name": "",
          "type": "bytes"
        }
      ],
      "name": "onERC1155Received",
      "outputs": [
        {
          "internalType": "bytes4",
          "name": "ret",
          "type": "bytes4"
        }
      ],
      "stateMutability": "nonpayable",
      "type": "function"
    },
    {
      "inputs": [],
      "name": "pause",
      "outputs": [],
      "stateMutability": "nonpayable",
      "type": "function"
    },
    {
      "inputs": [],
      "name": "paused",
      "outputs": [
        {
          "internalType": "bool",
          "name": "",
          "type": "bool"
        }
      ],
      "stateMutability": "view",
      "type": "function"
    },
    {
      "inputs": [],
      "name": "readType",
      "outputs": [
        {
          "internalType": "uint8",
          "name": "",
          "type": "uint8"
        }
      ],
      "stateMutability": "view",
      "type": "function"
    },
    {
      "inputs": [
        {
          "internalType": "bytes32",
          "name": "role",
          "type": "bytes32"
        },
        {
          "internalType": "address",
          "name": "callerConfirmation",
          "type": "address"
        }
      ],
      "name": "renounceRole",
      "outputs": [],
      "stateMutability": "nonpayable",
      "type": "function"
    },
    {
      "inputs": [
        {
          "internalType": "bytes32",
          "name": "role",
          "type": "bytes32"
        },
        {
          "internalType": "address",
          "name": "account",
          "type": "address"
        }
      ],
      "name": "revokeRole",
      "outputs": [],
      "stateMutability": "nonpayable",
      "type": "function"
    },
    {
      "inputs": [
        {
          "internalType": "address",
          "name": "from",
          "type": "address"
        },
        {
          "internalType": "address",
          "name": "to",
          "type": "address"
        },
        {
          "internalType": "uint256[]",
          "name": "ids",
          "type": "uint256[]"
        },
        {
          "internalType": "uint256[]",
          "name": "values",
          "type": "uint256[]"
        },
        {
          "internalType": "bytes",
          "name": "data",
          "type": "bytes"
        }
      ],
      "name": "safeBatchTransferFrom",
      "outputs": [],
      "stateMutability": "nonpayable",
      "type": "function"
    },
    {
      "inputs": [
        {
          "internalType": "address",
          "name": "from",
          "type": "address"
        },
        {
          "internalType": "address",
          "name": "to",
          "type": "address"
        },
        {
          "internalType": "uint256",
          "name": "id",
          "type": "uint256"
        },
        {
          "internalType": "uint256",
          "name": "value",
          "type": "uint256"
        },
        {
          "internalType": "bytes",
          "name": "data",
          "type": "bytes"
        }
      ],
      "name": "safeTransferFrom",
      "outputs": [],
      "stateMutability": "nonpayable",
      "type": "function"
    },
    {
      "inputs": [
        {
          "internalType": "address",
          "name": "operator",
          "type": "address"
        },
        {
          "internalType": "bool",
          "name": "approved",
          "type": "bool"
        }
      ],
      "name": "setApprovalForAll",
      "outputs": [],
      "stateMutability": "nonpayable",
      "type": "function"
    },
    {
      "inputs": [
        {
          "internalType": "bytes4",
          "name": "interfaceId",
          "type": "bytes4"
        }
      ],
      "name": "supportsInterface",
      "outputs": [
        {
          "internalType": "bool",
          "name": "",
          "type": "bool"
        }
      ],
      "stateMutability": "view",
      "type": "function"
    },
    {
      "inputs": [
        {
          "internalType": "uint256",
          "name": "",
          "type": "uint256"
        }
      ],
      "name": "tokenPermissions",
      "outputs": [
        {
          "internalType": "address",
          "name": "",
          "type": "address"
        }
      ],
      "stateMutability": "view",
      "type": "function"
    },
    {
      "inputs": [
        {
          "internalType": "uint256",
          "name": "",
          "type": "uint256"
        }
      ],
      "name": "tokenSupply",
      "outputs": [
        {
          "internalType": "uint256",
          "name": "",
          "type": "uint256"
        }
      ],
      "stateMutability": "view",
      "type": "function"
    },
    {
      "inputs": [],
      "name": "unpause",
      "outputs": [],
      "stateMutability": "nonpayable",
      "type": "function"
    },
    {
      "inputs": [
        {
          "internalType": "uint256",
          "name": "tokenID",
          "type": "uint256"
        }
      ],
      "name": "uri",
      "outputs": [
        {
          "internalType": "string",
          "name": "",
          "type": "string"
        }
      ],
      "stateMutability": "view",
      "type": "function"
    },
    {
      "inputs": [
        {
          "internalType": "address",
          "name": "collectionAddress",
          "type": "address"
        },
        {
          "internalType": "uint256",
          "name": "tokenId",
          "type": "uint256"
        },
        {
          "internalType": "uint256",
          "name": "amount",
          "type": "uint256"
        }
      ],
      "name": "withdraw",
      "outputs": [],
      "stateMutability": "payable",
      "type": "function"
    },
    {
      "inputs": [],
      "name": "writeType",
      "outputs": [
        {
          "internalType": "uint8",
          "name": "",
          "type": "uint8"
        }
      ],
      "stateMutability": "view",
      "type": "function"
    }
  ],
  "bytecode": "0x60806040526040518060400160405280601481526020017f68747470733a2f2f617277656176652e6e65742f000000000000000000000000815250600490816200004a9190620002d9565b503480156200005857600080fd5b50620003c0565b600081519050919050565b7f4e487b7100000000000000000000000000000000000000000000000000000000600052604160045260246000fd5b7f4e487b7100000000000000000000000000000000000000000000000000000000600052602260045260246000fd5b60006002820490506001821680620000e157607f821691505b602082108103620000f757620000f662000099565b5b50919050565b60008190508160005260206000209050919050565b60006020601f8301049050919050565b600082821b905092915050565b600060088302620001617fffffffffffffffffffffffffffffffffffffffffffffffffffffffffffffffff8262000122565b6200016d868362000122565b95508019841693508086168417925050509392505050565b6000819050919050565b6000819050919050565b6000620001ba620001b4620001ae8462000185565b6200018f565b62000185565b9050919050565b6000819050919050565b620001d68362000199565b620001ee620001e582620001c1565b8484546200012f565b825550505050565b600090565b62000205620001f6565b62000212818484620001cb565b505050565b5b818110156200023a576200022e600082620001fb565b60018101905062000218565b5050565b601f82111562000289576200025381620000fd565b6200025e8462000112565b810160208510156200026e578190505b620002866200027d8562000112565b83018262000217565b50505b505050565b600082821c905092915050565b6000620002ae600019846008026200028e565b1980831691505092915050565b6000620002c983836200029b565b9150826002028217905092915050565b620002e4826200005f565b67ffffffffffffffff8111156200030057620002ff6200006a565b5b6200030c8254620000c8565b620003198282856200023e565b600060209050601f8311600181146200035157600084156200033c578287015190505b620003488582620002bb565b865550620003b8565b601f1984166200036186620000fd565b60005b828110156200038b5784890151825560018201915060208501945060208101905062000364565b86831015620003ab5784890151620003a7601f8916826200029b565b8355505b6001600288020188555050505b505050505050565b6157a580620003d06000396000f3fe60806040526004361061023a5760003560e01c806393e275071161012e578063c47cb4b2116100ab578063f23a6e611161006f578063f23a6e61146108d0578063f242432a1461090d578063fa6f393614610936578063fcce488314610973578063ffa1ad74146109b05761023a565b8063c47cb4b2146107b3578063ca15c873146107f0578063d547741f1461082d578063e90b3d3d14610856578063e985e9c5146108935761023a565b8063b31985c2116100f2578063b31985c2146106d6578063b390c0ab14610713578063b5c5f6721461072f578063b9d1d49b1461074b578063bc197c81146107765761023a565b806393e275071461061f5780639bc623521461063b5780639e82124e14610666578063a217fddf14610682578063a22cb465146106ad5761023a565b80633f4ba83a116101bc5780636b1a3de3116101805780636b1a3de31461053a5780638456cb591461056557806387d0dc401461057c5780639010d07c146105a557806391d14854146105e25761023a565b80633f4ba83a146104535780634e1273f41461046a578063510b5158146104a75780635c975abb146104e45780635fee596c1461050f5761023a565b80632693ebf2116102035780632693ebf21461035e5780632eb2c2d61461039b5780632f2ff15d146103c4578063350293a1146103ed57806336568abe1461042a5761023a565b8062fdd58e1461023f57806301ffc9a71461027c57806306fdde03146102b95780630e89341c146102e4578063248a9ca314610321575b600080fd5b34801561024b57600080fd5b5061026660048036038101906102619190613db7565b6109db565b6040516102739190613e06565b60405180910390f35b34801561028857600080fd5b506102a3600480360381019061029e9190613e79565b610a44565b6040516102b09190613ec1565b60405180910390f35b3480156102c557600080fd5b506102ce610a56565b6040516102db9190613f6c565b60405180910390f35b3480156102f057600080fd5b5061030b60048036038101906103069190613f8e565b610ae4565b6040516103189190613f6c565b60405180910390f35b34801561032d57600080fd5b5061034860048036038101906103439190613ff1565b610b22565b604051610355919061402d565b60405180910390f35b34801561036a57600080fd5b5061038560048036038101906103809190613f8e565b610b50565b6040516103929190613e06565b60405180910390f35b3480156103a757600080fd5b506103c260048036038101906103bd9190614245565b610b68565b005b3480156103d057600080fd5b506103eb60048036038101906103e69190614314565b610c10565b005b3480156103f957600080fd5b50610414600480360381019061040f9190613f8e565b610c32565b6040516104219190614363565b60405180910390f35b34801561043657600080fd5b50610451600480360381019061044c9190614314565b610c65565b005b34801561045f57600080fd5b50610468610ce0565b005b34801561047657600080fd5b50610491600480360381019061048c9190614441565b610d53565b60405161049e9190614577565b60405180910390f35b3480156104b357600080fd5b506104ce60048036038101906104c99190613f8e565b610e62565b6040516104db9190614363565b60405180910390f35b3480156104f057600080fd5b506104f9610e95565b6040516105069190613ec1565b60405180910390f35b34801561051b57600080fd5b50610524610eba565b6040516105319190614363565b60405180910390f35b34801561054657600080fd5b5061054f610ede565b60405161055c91906145b5565b60405180910390f35b34801561057157600080fd5b5061057a610ef1565b005b34801561058857600080fd5b506105a3600480360381019061059e919061469d565b610f64565b005b3480156105b157600080fd5b506105cc60048036038101906105c79190614746565b611284565b6040516105d99190614363565b60405180910390f35b3480156105ee57600080fd5b5061060960048036038101906106049190614314565b6112c1565b6040516106169190613ec1565b60405180910390f35b6106396004803603810190610634919061480d565b61133a565b005b34801561064757600080fd5b506106506115fe565b60405161065d91906145b5565b60405180910390f35b610680600480360381019061067b91906148e3565b611611565b005b34801561068e57600080fd5b506106976118b4565b6040516106a4919061402d565b60405180910390f35b3480156106b957600080fd5b506106d460048036038101906106cf9190614936565b6118bb565b005b3480156106e257600080fd5b506106fd60048036038101906106f89190613f8e565b6118d1565b60405161070a9190614363565b60405180910390f35b61072d60048036038101906107289190614976565b611904565b005b610749600480360381019061074491906149b6565b611a6a565b005b34801561075757600080fd5b50610760611b53565b60405161076d9190613e06565b60405180910390f35b34801561078257600080fd5b5061079d60048036038101906107989190614245565b611b59565b6040516107aa9190614a18565b60405180910390f35b3480156107bf57600080fd5b506107da60048036038101906107d59190614a33565b611ba3565b6040516107e79190613ec1565b60405180910390f35b3480156107fc57600080fd5b5061081760048036038101906108129190613ff1565b611cc5565b6040516108249190613e06565b60405180910390f35b34801561083957600080fd5b50610854600480360381019061084f9190614314565b611cf7565b005b34801561086257600080fd5b5061087d60048036038101906108789190614a33565b611d19565b60405161088a9190613ec1565b60405180910390f35b34801561089f57600080fd5b506108ba60048036038101906108b59190614a60565b611e85565b6040516108c79190613ec1565b60405180910390f35b3480156108dc57600080fd5b506108f760048036038101906108f29190614aa0565b611f27565b6040516109049190614a18565b60405180910390f35b34801561091957600080fd5b50610934600480360381019061092f9190614aa0565b611f71565b005b34801561094257600080fd5b5061095d60048036038101906109589190614a33565b612019565b60405161096a9190613ec1565b60405180910390f35b34801561097f57600080fd5b5061099a60048036038101906109959190613f8e565b61204c565b6040516109a79190613ec1565b60405180910390f35b3480156109bc57600080fd5b506109c561206c565b6040516109d29190613e06565b60405180910390f35b6000806109e6612071565b905080600001600084815260200190815260200160002060008573ffffffffffffffffffffffffffffffffffffffff1673ffffffffffffffffffffffffffffffffffffffff1681526020019081526020016000205491505092915050565b6000610a4f82612099565b9050919050565b60008054610a6390614b66565b80601f0160208091040260200160405190810160405280929190818152602001828054610a8f90614b66565b8015610adc5780601f10610ab157610100808354040283529160200191610adc565b820191906000526020600020905b815481529060010190602001808311610abf57829003601f168201915b505050505081565b6060600460056000848152602001908152602001600020604051602001610b0c929190614c3a565b6040516020818303038152906040529050919050565b600080610b2d612113565b905080600001600084815260200190815260200160002060010154915050919050565b60066020528060005260406000206000915090505481565b6000610b7261213b565b90508073ffffffffffffffffffffffffffffffffffffffff168673ffffffffffffffffffffffffffffffffffffffff1614158015610bb75750610bb58682611e85565b155b15610bfb5780866040517fe237d922000000000000000000000000000000000000000000000000000000008152600401610bf2929190614c5e565b60405180910390fd5b610c088686868686612143565b505050505050565b610c1982610b22565b610c228161223b565b610c2c838361224f565b50505050565b60086020528060005260406000206000915054906101000a900473ffffffffffffffffffffffffffffffffffffffff1681565b610c6d61213b565b73ffffffffffffffffffffffffffffffffffffffff168173ffffffffffffffffffffffffffffffffffffffff1614610cd1576040517f6697b23200000000000000000000000000000000000000000000000000000000815260040160405180910390fd5b610cdb82826122a4565b505050565b610d0a7f44a854cabd360644e908fcd642b33fedfb60c399d7b1e7e2051275f0b09b0be5336112c1565b610d49576040517f08c379a0000000000000000000000000000000000000000000000000000000008152600401610d4090614cd3565b60405180910390fd5b610d516122f9565b565b60608151835114610d9f57815183516040517f5b059991000000000000000000000000000000000000000000000000000000008152600401610d96929190614cf3565b60405180910390fd5b6000835167ffffffffffffffff811115610dbc57610dbb61404d565b5b604051908082528060200260200182016040528015610dea5781602001602082028036833780820191505090505b50905060005b8451811015610e5757610e27610e0f828761236b90919063ffffffff16565b610e22838761237f90919063ffffffff16565b6109db565b828281518110610e3a57610e39614d1c565b5b60200260200101818152505080610e5090614d7a565b9050610df0565b508091505092915050565b60096020528060005260406000206000915054906101000a900473ffffffffffffffffffffffffffffffffffffffff1681565b600080610ea0612393565b90508060000160009054906101000a900460ff1691505090565b60028054906101000a900473ffffffffffffffffffffffffffffffffffffffff1681565b600260009054906101000a900460ff1681565b610f1b7f44a854cabd360644e908fcd642b33fedfb60c399d7b1e7e2051275f0b09b0be5336112c1565b610f5a576040517f08c379a0000000000000000000000000000000000000000000000000000000008152600401610f5190614cd3565b60405180910390fd5b610f626123bb565b565b6000610f6e61242d565b905060008160000160089054906101000a900460ff1615905060008260000160009054906101000a900467ffffffffffffffff1690506000808267ffffffffffffffff16148015610fbc5750825b9050600060018367ffffffffffffffff16148015610ff1575060003073ffffffffffffffffffffffffffffffffffffffff163b145b905081158015610fff575080155b15611036576040517ff92ee8a900000000000000000000000000000000000000000000000000000000815260040160405180910390fd5b60018560000160006101000a81548167ffffffffffffffff021916908367ffffffffffffffff16021790555083156110865760018560000160086101000a81548160ff0219169083151502179055505b8a600090816110959190614f59565b5061109e612455565b6110b66040518060200160405280600081525061245f565b6110be612473565b6110c661247d565b88600260006101000a81548160ff021916908360ff16021790555087600260016101000a81548160ff021916908360ff160217905550866002806101000a81548173ffffffffffffffffffffffffffffffffffffffff021916908373ffffffffffffffffffffffffffffffffffffffff160217905550856003819055506111506000801b8b61224f565b5061117b7f44a854cabd360644e908fcd642b33fedfb60c399d7b1e7e2051275f0b09b0be58b61224f565b506111a67f3238a3641700084b9e028fe65d2b3bf551f4498c926ce0b8e97aa2eaec0e4bf98b61224f565b506111d17f44a854cabd360644e908fcd642b33fedfb60c399d7b1e7e2051275f0b09b0be5806124b1565b61121b7f3238a3641700084b9e028fe65d2b3bf551f4498c926ce0b8e97aa2eaec0e4bf97f44a854cabd360644e908fcd642b33fedfb60c399d7b1e7e2051275f0b09b0be56124b1565b83156112775760008560000160086101000a81548160ff0219169083151502179055507fc7f505b2f371ae2175ee4913f4499e1f2633a7b5936321eed1cdaeb6115181d2600160405161126e919061507a565b60405180910390a15b5050505050505050505050565b60008061128f61251c565b90506112b88382600001600087815260200190815260200160002061254490919063ffffffff16565b91505092915050565b6000806112cc612113565b905080600001600085815260200190815260200160002060000160008473ffffffffffffffffffffffffffffffffffffffff1673ffffffffffffffffffffffffffffffffffffffff16815260200190815260200160002060009054906101000a900460ff1691505092915050565b61134261255e565b61134b33611d19565b61138a576040517f08c379a0000000000000000000000000000000000000000000000000000000008152600401611381906150e1565b60405180910390fd5b6001600081548092919061139d90614d7a565b919050555060006001549050866007600083815260200190815260200160002060006101000a81548173ffffffffffffffffffffffffffffffffffffffff021916908373ffffffffffffffffffffffffffffffffffffffff160217905550821561156e5782600a600083815260200190815260200160002060006101000a81548160ff021916908315150217905550856008600083815260200190815260200160002060006101000a81548173ffffffffffffffffffffffffffffffffffffffff021916908373ffffffffffffffffffffffffffffffffffffffff16021790555060008690508073ffffffffffffffffffffffffffffffffffffffff16630bc917c08333868a8a6040518663ffffffff1660e01b81526004016114c4959493929190615101565b600060405180830381600087803b1580156114de57600080fd5b505af11580156114f2573d6000803e3d6000fd5b50505050821561156c578073ffffffffffffffffffffffffffffffffffffffff1663a5cc5cd8348460016040518463ffffffff1660e01b8152600401611539929190615185565b6000604051808303818588803b15801561155257600080fd5b505af1158015611566573d6000803e3d6000fd5b50505050505b505b600160066000838152602001908152602001600020819055506115a3888260016040518060200160405280600081525061259f565b6115f1818b8b8080601f016020809104026020016040519081016040528093929190818152602001838380828437600081840152601f19601f82011690508083019250505050505050612638565b5050505050505050505050565b600260019054906101000a900460ff1681565b61161961255e565b61162233611ba3565b611661576040517f08c379a0000000000000000000000000000000000000000000000000000000008152600401611658906151fa565b60405180910390fd5b6001548311156116a6576040517f08c379a000000000000000000000000000000000000000000000000000000000815260040161169d90615266565b60405180910390fd5b600115156116b4843361276a565b1515146116f6576040517f08c379a00000000000000000000000000000000000000000000000000000000081526004016116ed906152d2565b60405180910390fd5b600a600084815260200190815260200160002060009054906101000a900460ff161561185e5760006008600085815260200190815260200160002060009054906101000a900473ffffffffffffffffffffffffffffffffffffffff1690508073ffffffffffffffffffffffffffffffffffffffff166367e2cafd30866040518363ffffffff1660e01b815260040161178f9291906152f2565b602060405180830381865afa1580156117ac573d6000803e3d6000fd5b505050506040513d601f19601f820116820180604052508101906117d09190615330565b6006600086815260200190815260200160002054106117ee57600080fd5b8073ffffffffffffffffffffffffffffffffffffffff1663a5cc5cd83486856040518463ffffffff1660e01b815260040161182a929190614cf3565b6000604051808303818588803b15801561184357600080fd5b505af1158015611857573d6000803e3d6000fd5b5050505050505b6118798284836040518060200160405280600081525061259f565b806006600085815260200190815260200160002054611898919061535d565b6006600085815260200190815260200160002081905550505050565b6000801b81565b6118cd6118c661213b565b8383612a0e565b5050565b60076020528060005260406000206000915054906101000a900473ffffffffffffffffffffffffffffffffffffffff1681565b61190c61255e565b8061191733846109db565b1015611958576040517f08c379a000000000000000000000000000000000000000000000000000000000815260040161194f906153dd565b60405180910390fd5b600a600083815260200190815260200160002060009054906101000a900460ff1615611a255760006008600084815260200190815260200160002060009054906101000a900473ffffffffffffffffffffffffffffffffffffffff1690508073ffffffffffffffffffffffffffffffffffffffff1663eb111ce384846040518363ffffffff1660e01b81526004016119f1929190614cf3565b600060405180830381600087803b158015611a0b57600080fd5b505af1158015611a1f573d6000803e3d6000fd5b50505050505b611a30338383612b8d565b806006600084815260200190815260200160002054611a4f91906153fd565b60066000848152602001908152602001600020819055505050565b611a7261255e565b611a9c7f44a854cabd360644e908fcd642b33fedfb60c399d7b1e7e2051275f0b09b0be5336112c1565b611adb576040517f08c379a0000000000000000000000000000000000000000000000000000000008152600401611ad290614cd3565b60405180910390fd5b60008390508073ffffffffffffffffffffffffffffffffffffffff1663b390c0ab84846040518363ffffffff1660e01b8152600401611b1b929190614cf3565b600060405180830381600087803b158015611b3557600080fd5b505af1158015611b49573d6000803e3d6000fd5b5050505050505050565b60035481565b6000611b857f44a854cabd360644e908fcd642b33fedfb60c399d7b1e7e2051275f0b09b0be5876112c1565b15611b995763bc197c8160e01b9050611b9a565b5b95945050505050565b600080600260009054906101000a900460ff1660ff1603611bc75760019050611cc0565b6001600260009054906101000a900460ff1660ff1603611cbf57611c0b7f3238a3641700084b9e028fe65d2b3bf551f4498c926ce0b8e97aa2eaec0e4bf9836112c1565b15611c195760019050611cc0565b60035460028054906101000a900473ffffffffffffffffffffffffffffffffffffffff1673ffffffffffffffffffffffffffffffffffffffff166370a08231846040518263ffffffff1660e01b8152600401611c759190614363565b602060405180830381865afa158015611c92573d6000803e3d6000fd5b505050506040513d601f19601f82011682018060405250810190611cb69190615330565b10159050611cc0565b5b919050565b600080611cd061251c565b9050611cef816000016000858152602001908152602001600020612c34565b915050919050565b611d0082610b22565b611d098161223b565b611d1383836122a4565b50505050565b600080600260019054906101000a900460ff1660ff1603611d3d5760019050611e80565b6001600260019054906101000a900460ff1660ff1603611d8857611d817f44a854cabd360644e908fcd642b33fedfb60c399d7b1e7e2051275f0b09b0be5836112c1565b9050611e80565b60028060019054906101000a900460ff1660ff1603611e7f57611dcb7f3238a3641700084b9e028fe65d2b3bf551f4498c926ce0b8e97aa2eaec0e4bf9836112c1565b15611dd95760019050611e80565b60035460028054906101000a900473ffffffffffffffffffffffffffffffffffffffff1673ffffffffffffffffffffffffffffffffffffffff166370a08231846040518263ffffffff1660e01b8152600401611e359190614363565b602060405180830381865afa158015611e52573d6000803e3d6000fd5b505050506040513d601f19601f82011682018060405250810190611e769190615330565b10159050611e80565b5b919050565b600080611e90612071565b90508060010160008573ffffffffffffffffffffffffffffffffffffffff1673ffffffffffffffffffffffffffffffffffffffff16815260200190815260200160002060008473ffffffffffffffffffffffffffffffffffffffff1673ffffffffffffffffffffffffffffffffffffffff16815260200190815260200160002060009054906101000a900460ff1691505092915050565b6000611f537f44a854cabd360644e908fcd642b33fedfb60c399d7b1e7e2051275f0b09b0be5876112c1565b15611f675763f23a6e6160e01b9050611f68565b5b95945050505050565b6000611f7b61213b565b90508073ffffffffffffffffffffffffffffffffffffffff168673ffffffffffffffffffffffffffffffffffffffff1614158015611fc05750611fbe8682611e85565b155b156120045780866040517fe237d922000000000000000000000000000000000000000000000000000000008152600401611ffb929190614c5e565b60405180910390fd5b6120118686868686612c49565b505050505050565b60006120457f44a854cabd360644e908fcd642b33fedfb60c399d7b1e7e2051275f0b09b0be5836112c1565b9050919050565b600a6020528060005260406000206000915054906101000a900460ff1681565b600181565b60007f88be536d5240c274a3b1d3a1be54482fd9caa294f08c62a7cde569f49a3c4500905090565b60007f4e2312e0000000000000000000000000000000000000000000000000000000007bffffffffffffffffffffffffffffffffffffffffffffffffffffffff1916827bffffffffffffffffffffffffffffffffffffffffffffffffffffffff1916148061210c575061210b82612d54565b5b9050919050565b60007f02dd7bc7dec4dceedda775e58dd541e08a116c6c53815c0bd028192f7b626800905090565b600033905090565b600073ffffffffffffffffffffffffffffffffffffffff168473ffffffffffffffffffffffffffffffffffffffff16036121b55760006040517f57f447ce0000000000000000000000000000000000000000000000000000000081526004016121ac9190614363565b60405180910390fd5b600073ffffffffffffffffffffffffffffffffffffffff168573ffffffffffffffffffffffffffffffffffffffff16036122275760006040517f01a8351400000000000000000000000000000000000000000000000000000000815260040161221e9190614363565b60405180910390fd5b6122348585858585612dce565b5050505050565b61224c8161224761213b565b612e80565b50565b60008061225a61251c565b905060006122688585612ed1565b905080156122995761229784836000016000888152602001908152602001600020612fd290919063ffffffff16565b505b809250505092915050565b6000806122af61251c565b905060006122bd8585613002565b905080156122ee576122ec8483600001600088815260200190815260200160002061310490919063ffffffff16565b505b809250505092915050565b612301613134565b600061230b612393565b905060008160000160006101000a81548160ff0219169083151502179055507f5db9ee0a495bf2e6ff9c91a7834c1ba4fdd244a5e8aa4e537bd38aeae4b073aa61235361213b565b6040516123609190614363565b60405180910390a150565b600060208202602084010151905092915050565b600060208202602084010151905092915050565b60007fcd5ed15c6e187e77e9aee88184c21f4f2182ab5827cb3b7e07fbedcd63f03300905090565b6123c361255e565b60006123cd612393565b905060018160000160006101000a81548160ff0219169083151502179055507f62e78cea01bee320cd4e420270b5ea74000d11b0c9f74754ebdbfc544b05a25861241561213b565b6040516124229190614363565b60405180910390a150565b60007ff0c57e16840df040f15088dc2f81fe391c3923bec73e23a9662efc9c229c6a00905090565b61245d613174565b565b612467613174565b612470816131b4565b50565b61247b613174565b565b612485613174565b600061248f612393565b905060008160000160006101000a81548160ff02191690831515021790555050565b60006124bb612113565b905060006124c884610b22565b905082826000016000868152602001908152602001600020600101819055508281857fbd79b86ffe0ab8e8776151514217cd7cacd52c909f66475c3af44e129f0b00ff60405160405180910390a450505050565b60007fc1f6fe24621ce81ec5827caf0253cadb74709b061630e6b55e82371705932000905090565b600061255383600001836131c8565b60001c905092915050565b612566610e95565b1561259d576040517fd93c066500000000000000000000000000000000000000000000000000000000815260040160405180910390fd5b565b600073ffffffffffffffffffffffffffffffffffffffff168473ffffffffffffffffffffffffffffffffffffffff16036126115760006040517f57f447ce0000000000000000000000000000000000000000000000000000000081526004016126089190614363565b60405180910390fd5b60008061261e85856131f3565b91509150612630600087848487612dce565b505050505050565b606061264261255e565b601460056000858152602001908152602001600020805461266290614b66565b905011156126a5576040517f08c379a000000000000000000000000000000000000000000000000000000000815260040161269c9061547d565b60405180910390fd5b816005600085815260200190815260200160002090816126c59190614f59565b506005600084815260200190815260200160002080546126e490614b66565b80601f016020809104026020016040519081016040528092919081815260200182805461271090614b66565b801561275d5780601f106127325761010080835404028352916020019161275d565b820191906000526020600020905b81548152906001019060200180831161274057829003601f168201915b5050505050905092915050565b60008073ffffffffffffffffffffffffffffffffffffffff166007600085815260200190815260200160002060009054906101000a900473ffffffffffffffffffffffffffffffffffffffff1673ffffffffffffffffffffffffffffffffffffffff1614612a03576007600084815260200190815260200160002060009054906101000a900473ffffffffffffffffffffffffffffffffffffffff1673ffffffffffffffffffffffffffffffffffffffff166301ffc9a763d9b67a266040518263ffffffff1660e01b815260040161284291906154e5565b602060405180830381865afa15801561285f573d6000803e3d6000fd5b505050506040513d601f19601f820116820180604052508101906128839190615515565b156129465760006007600085815260200190815260200160002060009054906101000a900473ffffffffffffffffffffffffffffffffffffffff16905060008173ffffffffffffffffffffffffffffffffffffffff1662fdd58e85876040518363ffffffff1660e01b81526004016128fc9291906152f2565b602060405180830381865afa158015612919573d6000803e3d6000fd5b505050506040513d601f19601f8201168201806040525081019061293d9190615330565b11915050612a08565b60006007600085815260200190815260200160002060009054906101000a900473ffffffffffffffffffffffffffffffffffffffff16905060008173ffffffffffffffffffffffffffffffffffffffff166370a08231856040518263ffffffff1660e01b81526004016129b99190614363565b602060405180830381865afa1580156129d6573d6000803e3d6000fd5b505050506040513d601f19601f820116820180604052508101906129fa9190615330565b11915050612a08565b600190505b92915050565b6000612a18612071565b9050600073ffffffffffffffffffffffffffffffffffffffff168373ffffffffffffffffffffffffffffffffffffffff1603612a8c5760006040517fced3e100000000000000000000000000000000000000000000000000000000008152600401612a839190614363565b60405180910390fd5b818160010160008673ffffffffffffffffffffffffffffffffffffffff1673ffffffffffffffffffffffffffffffffffffffff16815260200190815260200160002060008573ffffffffffffffffffffffffffffffffffffffff1673ffffffffffffffffffffffffffffffffffffffff16815260200190815260200160002060006101000a81548160ff0219169083151502179055508273ffffffffffffffffffffffffffffffffffffffff168473ffffffffffffffffffffffffffffffffffffffff167f17307eab39ab6107e8899845ad3d59bd9653f200f220920489ca2b5937696c3184604051612b7f9190613ec1565b60405180910390a350505050565b600073ffffffffffffffffffffffffffffffffffffffff168373ffffffffffffffffffffffffffffffffffffffff1603612bff5760006040517f01a83514000000000000000000000000000000000000000000000000000000008152600401612bf69190614363565b60405180910390fd5b600080612c0c84846131f3565b91509150612c2d856000848460405180602001604052806000815250612dce565b5050505050565b6000612c4282600001613223565b9050919050565b600073ffffffffffffffffffffffffffffffffffffffff168473ffffffffffffffffffffffffffffffffffffffff1603612cbb5760006040517f57f447ce000000000000000000000000000000000000000000000000000000008152600401612cb29190614363565b60405180910390fd5b600073ffffffffffffffffffffffffffffffffffffffff168573ffffffffffffffffffffffffffffffffffffffff1603612d2d5760006040517f01a83514000000000000000000000000000000000000000000000000000000008152600401612d249190614363565b60405180910390fd5b600080612d3a85856131f3565b91509150612d4b8787848487612dce565b50505050505050565b60007f5a05180f000000000000000000000000000000000000000000000000000000007bffffffffffffffffffffffffffffffffffffffffffffffffffffffff1916827bffffffffffffffffffffffffffffffffffffffffffffffffffffffff19161480612dc75750612dc682613234565b5b9050919050565b612dda858585856132ae565b600073ffffffffffffffffffffffffffffffffffffffff168473ffffffffffffffffffffffffffffffffffffffff1614612e79576000612e1861213b565b90506001845103612e68576000612e3960008661237f90919063ffffffff16565b90506000612e5160008661237f90919063ffffffff16565b9050612e61838989858589613672565b5050612e77565b612e76818787878787613826565b5b505b5050505050565b612e8a82826112c1565b612ecd5780826040517fe2517d3f000000000000000000000000000000000000000000000000000000008152600401612ec4929190615542565b60405180910390fd5b5050565b600080612edc612113565b9050612ee884846112c1565b612fc657600181600001600086815260200190815260200160002060000160008573ffffffffffffffffffffffffffffffffffffffff1673ffffffffffffffffffffffffffffffffffffffff16815260200190815260200160002060006101000a81548160ff021916908315150217905550612f6261213b565b73ffffffffffffffffffffffffffffffffffffffff168373ffffffffffffffffffffffffffffffffffffffff16857f2f8788117e7eff1d82e926ec794901d17c78024a50270940304540a733656f0d60405160405180910390a46001915050612fcc565b60009150505b92915050565b6000612ffa836000018373ffffffffffffffffffffffffffffffffffffffff1660001b6139da565b905092915050565b60008061300d612113565b905061301984846112c1565b156130f857600081600001600086815260200190815260200160002060000160008573ffffffffffffffffffffffffffffffffffffffff1673ffffffffffffffffffffffffffffffffffffffff16815260200190815260200160002060006101000a81548160ff02191690831515021790555061309461213b565b73ffffffffffffffffffffffffffffffffffffffff168373ffffffffffffffffffffffffffffffffffffffff16857ff6391f5c32d9c69d2a47ea670b442974b53935d1edc7fd64eb21e047a839171b60405160405180910390a460019150506130fe565b60009150505b92915050565b600061312c836000018373ffffffffffffffffffffffffffffffffffffffff1660001b613a4a565b905092915050565b61313c610e95565b613172576040517f8dfc202b00000000000000000000000000000000000000000000000000000000815260040160405180910390fd5b565b61317c613b5e565b6131b2576040517fd7e6bcf800000000000000000000000000000000000000000000000000000000815260040160405180910390fd5b565b6131bc613174565b6131c581613b7e565b50565b60008260000182815481106131e0576131df614d1c565b5b9060005260206000200154905092915050565b60608060405191506001825283602083015260408201905060018152826020820152604081016040529250929050565b600081600001805490509050919050565b60007f7965db0b000000000000000000000000000000000000000000000000000000007bffffffffffffffffffffffffffffffffffffffffffffffffffffffff1916827bffffffffffffffffffffffffffffffffffffffffffffffffffffffff191614806132a757506132a682613ba0565b5b9050919050565b60006132b8612071565b9050815183511461330457825182516040517f5b0599910000000000000000000000000000000000000000000000000000000081526004016132fb929190614cf3565b60405180910390fd5b600061330e61213b565b905060005b845181101561352c576000613331828761237f90919063ffffffff16565b90506000613348838761237f90919063ffffffff16565b9050600073ffffffffffffffffffffffffffffffffffffffff168973ffffffffffffffffffffffffffffffffffffffff161461347b57600085600001600084815260200190815260200160002060008b73ffffffffffffffffffffffffffffffffffffffff1673ffffffffffffffffffffffffffffffffffffffff1681526020019081526020016000205490508181101561342057898183856040517f03dee4c5000000000000000000000000000000000000000000000000000000008152600401613417949392919061556b565b60405180910390fd5b81810386600001600085815260200190815260200160002060008c73ffffffffffffffffffffffffffffffffffffffff1673ffffffffffffffffffffffffffffffffffffffff16815260200190815260200160002081905550505b600073ffffffffffffffffffffffffffffffffffffffff168873ffffffffffffffffffffffffffffffffffffffff1614613519578085600001600084815260200190815260200160002060008a73ffffffffffffffffffffffffffffffffffffffff1673ffffffffffffffffffffffffffffffffffffffff1681526020019081526020016000206000828254613511919061535d565b925050819055505b50508061352590614d7a565b9050613313565b5060018451036135eb57600061354c60008661237f90919063ffffffff16565b9050600061356460008661237f90919063ffffffff16565b90508673ffffffffffffffffffffffffffffffffffffffff168873ffffffffffffffffffffffffffffffffffffffff168473ffffffffffffffffffffffffffffffffffffffff167fc3d58168c5ae7397731d063d5bbf3d657854427343f4c083240f7aacaa2d0f6285856040516135dc929190614cf3565b60405180910390a4505061366a565b8473ffffffffffffffffffffffffffffffffffffffff168673ffffffffffffffffffffffffffffffffffffffff168273ffffffffffffffffffffffffffffffffffffffff167f4a39dc06d4c0dbc64b70af90fd698a233a518aa5d07e595d983b8c0526c8f7fb87876040516136619291906155b0565b60405180910390a45b505050505050565b60008473ffffffffffffffffffffffffffffffffffffffff163b111561381e578373ffffffffffffffffffffffffffffffffffffffff1663f23a6e6187878686866040518663ffffffff1660e01b81526004016136d395949392919061563c565b6020604051808303816000875af192505050801561370f57506040513d601f19601f8201168201806040525081019061370c91906156ab565b60015b613793573d806000811461373f576040519150601f19603f3d011682016040523d82523d6000602084013e613744565b606091505b50600081510361378b57846040517f57f447ce0000000000000000000000000000000000000000000000000000000081526004016137829190614363565b60405180910390fd5b805181602001fd5b63f23a6e6160e01b7bffffffffffffffffffffffffffffffffffffffffffffffffffffffff1916817bffffffffffffffffffffffffffffffffffffffffffffffffffffffff19161461381c57846040517f57f447ce0000000000000000000000000000000000000000000000000000000081526004016138139190614363565b60405180910390fd5b505b505050505050565b60008473ffffffffffffffffffffffffffffffffffffffff163b11156139d2578373ffffffffffffffffffffffffffffffffffffffff1663bc197c8187878686866040518663ffffffff1660e01b81526004016138879594939291906156d8565b6020604051808303816000875af19250505080156138c357506040513d601f19601f820116820180604052508101906138c091906156ab565b60015b613947573d80600081146138f3576040519150601f19603f3d011682016040523d82523d6000602084013e6138f8565b606091505b50600081510361393f57846040517f57f447ce0000000000000000000000000000000000000000000000000000000081526004016139369190614363565b60405180910390fd5b805181602001fd5b63bc197c8160e01b7bffffffffffffffffffffffffffffffffffffffffffffffffffffffff1916817bffffffffffffffffffffffffffffffffffffffffffffffffffffffff1916146139d057846040517f57f447ce0000000000000000000000000000000000000000000000000000000081526004016139c79190614363565b60405180910390fd5b505b505050505050565b60006139e68383613c82565b613a3f578260000182908060018154018082558091505060019003906000526020600020016000909190919091505582600001805490508360010160008481526020019081526020016000208190555060019050613a44565b600090505b92915050565b60008083600101600084815260200190815260200160002054905060008114613b52576000600182613a7c91906153fd565b9050600060018660000180549050613a9491906153fd565b9050808214613b03576000866000018281548110613ab557613ab4614d1c565b5b9060005260206000200154905080876000018481548110613ad957613ad8614d1c565b5b90600052602060002001819055508387600101600083815260200190815260200160002081905550505b85600001805480613b1757613b16615740565b5b600190038181906000526020600020016000905590558560010160008681526020019081526020016000206000905560019350505050613b58565b60009150505b92915050565b6000613b6861242d565b60000160089054906101000a900460ff16905090565b6000613b88612071565b905081816002019081613b9b9190614f59565b505050565b60007fd9b67a26000000000000000000000000000000000000000000000000000000007bffffffffffffffffffffffffffffffffffffffffffffffffffffffff1916827bffffffffffffffffffffffffffffffffffffffffffffffffffffffff19161480613c6b57507f0e89341c000000000000000000000000000000000000000000000000000000007bffffffffffffffffffffffffffffffffffffffffffffffffffffffff1916827bffffffffffffffffffffffffffffffffffffffffffffffffffffffff1916145b80613c7b5750613c7a82613ca5565b5b9050919050565b600080836001016000848152602001908152602001600020541415905092915050565b60007f01ffc9a7000000000000000000000000000000000000000000000000000000007bffffffffffffffffffffffffffffffffffffffffffffffffffffffff1916827bffffffffffffffffffffffffffffffffffffffffffffffffffffffff1916149050919050565b6000604051905090565b600080fd5b600080fd5b600073ffffffffffffffffffffffffffffffffffffffff82169050919050565b6000613d4e82613d23565b9050919050565b613d5e81613d43565b8114613d6957600080fd5b50565b600081359050613d7b81613d55565b92915050565b6000819050919050565b613d9481613d81565b8114613d9f57600080fd5b50565b600081359050613db181613d8b565b92915050565b60008060408385031215613dce57613dcd613d19565b5b6000613ddc85828601613d6c565b9250506020613ded85828601613da2565b9150509250929050565b613e0081613d81565b82525050565b6000602082019050613e1b6000830184613df7565b92915050565b60007fffffffff0000000000000000000000000000000000000000000000000000000082169050919050565b613e5681613e21565b8114613e6157600080fd5b50565b600081359050613e7381613e4d565b92915050565b600060208284031215613e8f57613e8e613d19565b5b6000613e9d84828501613e64565b91505092915050565b60008115159050919050565b613ebb81613ea6565b82525050565b6000602082019050613ed66000830184613eb2565b92915050565b600081519050919050565b600082825260208201905092915050565b60005b83811015613f16578082015181840152602081019050613efb565b60008484015250505050565b6000601f19601f8301169050919050565b6000613f3e82613edc565b613f488185613ee7565b9350613f58818560208601613ef8565b613f6181613f22565b840191505092915050565b60006020820190508181036000830152613f868184613f33565b905092915050565b600060208284031215613fa457613fa3613d19565b5b6000613fb284828501613da2565b91505092915050565b6000819050919050565b613fce81613fbb565b8114613fd957600080fd5b50565b600081359050613feb81613fc5565b92915050565b60006020828403121561400757614006613d19565b5b600061401584828501613fdc565b91505092915050565b61402781613fbb565b82525050565b6000602082019050614042600083018461401e565b92915050565b600080fd5b7f4e487b7100000000000000000000000000000000000000000000000000000000600052604160045260246000fd5b61408582613f22565b810181811067ffffffffffffffff821117156140a4576140a361404d565b5b80604052505050565b60006140b7613d0f565b90506140c3828261407c565b919050565b600067ffffffffffffffff8211156140e3576140e261404d565b5b602082029050602081019050919050565b600080fd5b600061410c614107846140c8565b6140ad565b9050808382526020820190506020840283018581111561412f5761412e6140f4565b5b835b8181101561415857806141448882613da2565b845260208401935050602081019050614131565b5050509392505050565b600082601f83011261417757614176614048565b5b81356141878482602086016140f9565b91505092915050565b600080fd5b600067ffffffffffffffff8211156141b0576141af61404d565b5b6141b982613f22565b9050602081019050919050565b82818337600083830152505050565b60006141e86141e384614195565b6140ad565b90508281526020810184848401111561420457614203614190565b5b61420f8482856141c6565b509392505050565b600082601f83011261422c5761422b614048565b5b813561423c8482602086016141d5565b91505092915050565b600080600080600060a0868803121561426157614260613d19565b5b600061426f88828901613d6c565b955050602061428088828901613d6c565b945050604086013567ffffffffffffffff8111156142a1576142a0613d1e565b5b6142ad88828901614162565b935050606086013567ffffffffffffffff8111156142ce576142cd613d1e565b5b6142da88828901614162565b925050608086013567ffffffffffffffff8111156142fb576142fa613d1e565b5b61430788828901614217565b9150509295509295909350565b6000806040838503121561432b5761432a613d19565b5b600061433985828601613fdc565b925050602061434a85828601613d6c565b9150509250929050565b61435d81613d43565b82525050565b60006020820190506143786000830184614354565b92915050565b600067ffffffffffffffff8211156143995761439861404d565b5b602082029050602081019050919050565b60006143bd6143b88461437e565b6140ad565b905080838252602082019050602084028301858111156143e0576143df6140f4565b5b835b8181101561440957806143f58882613d6c565b8452602084019350506020810190506143e2565b5050509392505050565b600082601f83011261442857614427614048565b5b81356144388482602086016143aa565b91505092915050565b6000806040838503121561445857614457613d19565b5b600083013567ffffffffffffffff81111561447657614475613d1e565b5b61448285828601614413565b925050602083013567ffffffffffffffff8111156144a3576144a2613d1e565b5b6144af85828601614162565b9150509250929050565b600081519050919050565b600082825260208201905092915050565b6000819050602082019050919050565b6144ee81613d81565b82525050565b600061450083836144e5565b60208301905092915050565b6000602082019050919050565b6000614524826144b9565b61452e81856144c4565b9350614539836144d5565b8060005b8381101561456a57815161455188826144f4565b975061455c8361450c565b92505060018101905061453d565b5085935050505092915050565b600060208201905081810360008301526145918184614519565b905092915050565b600060ff82169050919050565b6145af81614599565b82525050565b60006020820190506145ca60008301846145a6565b92915050565b600067ffffffffffffffff8211156145eb576145ea61404d565b5b6145f482613f22565b9050602081019050919050565b600061461461460f846145d0565b6140ad565b9050828152602081018484840111156146305761462f614190565b5b61463b8482856141c6565b509392505050565b600082601f83011261465857614657614048565b5b8135614668848260208601614601565b91505092915050565b61467a81614599565b811461468557600080fd5b50565b60008135905061469781614671565b92915050565b60008060008060008060c087890312156146ba576146b9613d19565b5b600087013567ffffffffffffffff8111156146d8576146d7613d1e565b5b6146e489828a01614643565b96505060206146f589828a01613d6c565b955050604061470689828a01614688565b945050606061471789828a01614688565b935050608061472889828a01613d6c565b92505060a061473989828a01613da2565b9150509295509295509295565b6000806040838503121561475d5761475c613d19565b5b600061476b85828601613fdc565b925050602061477c85828601613da2565b9150509250929050565b600080fd5b60008083601f8401126147a1576147a0614048565b5b8235905067ffffffffffffffff8111156147be576147bd614786565b5b6020830191508360018202830111156147da576147d96140f4565b5b9250929050565b6147ea81613ea6565b81146147f557600080fd5b50565b600081359050614807816147e1565b92915050565b60008060008060008060008060006101008a8c0312156148305761482f613d19565b5b60008a013567ffffffffffffffff81111561484e5761484d613d1e565b5b61485a8c828d0161478b565b9950995050602061486d8c828d01613d6c565b975050604061487e8c828d01613d6c565b965050606061488f8c828d01613d6c565b95505060806148a08c828d01613da2565b94505060a06148b18c828d01613da2565b93505060c06148c28c828d016147f8565b92505060e06148d38c828d016147f8565b9150509295985092959850929598565b6000806000606084860312156148fc576148fb613d19565b5b600061490a86828701613da2565b935050602061491b86828701613d6c565b925050604061492c86828701613da2565b9150509250925092565b6000806040838503121561494d5761494c613d19565b5b600061495b85828601613d6c565b925050602061496c858286016147f8565b9150509250929050565b6000806040838503121561498d5761498c613d19565b5b600061499b85828601613da2565b92505060206149ac85828601613da2565b9150509250929050565b6000806000606084860312156149cf576149ce613d19565b5b60006149dd86828701613d6c565b93505060206149ee86828701613da2565b92505060406149ff86828701613da2565b9150509250925092565b614a1281613e21565b82525050565b6000602082019050614a2d6000830184614a09565b92915050565b600060208284031215614a4957614a48613d19565b5b6000614a5784828501613d6c565b91505092915050565b60008060408385031215614a7757614a76613d19565b5b6000614a8585828601613d6c565b9250506020614a9685828601613d6c565b9150509250929050565b600080600080600060a08688031215614abc57614abb613d19565b5b6000614aca88828901613d6c565b9550506020614adb88828901613d6c565b9450506040614aec88828901613da2565b9350506060614afd88828901613da2565b925050608086013567ffffffffffffffff811115614b1e57614b1d613d1e565b5b614b2a88828901614217565b9150509295509295909350565b7f4e487b7100000000000000000000000000000000000000000000000000000000600052602260045260246000fd5b60006002820490506001821680614b7e57607f821691505b602082108103614b9157614b90614b37565b5b50919050565b600081905092915050565b60008190508160005260206000209050919050565b60008154614bc481614b66565b614bce8186614b97565b94506001821660008114614be95760018114614bfe57614c31565b60ff1983168652811515820286019350614c31565b614c0785614ba2565b60005b83811015614c2957815481890152600182019150602081019050614c0a565b838801955050505b50505092915050565b6000614c468285614bb7565b9150614c528284614bb7565b91508190509392505050565b6000604082019050614c736000830185614354565b614c806020830184614354565b9392505050565b7f6f6e6c79206d6f64657261746f727320616c6c6f776564000000000000000000600082015250565b6000614cbd601783613ee7565b9150614cc882614c87565b602082019050919050565b60006020820190508181036000830152614cec81614cb0565b9050919050565b6000604082019050614d086000830185613df7565b614d156020830184613df7565b9392505050565b7f4e487b7100000000000000000000000000000000000000000000000000000000600052603260045260246000fd5b7f4e487b7100000000000000000000000000000000000000000000000000000000600052601160045260246000fd5b6000614d8582613d81565b91507fffffffffffffffffffffffffffffffffffffffffffffffffffffffffffffffff8203614db757614db6614d4b565b5b600182019050919050565b60006020601f8301049050919050565b600082821b905092915050565b600060088302614e0f7fffffffffffffffffffffffffffffffffffffffffffffffffffffffffffffffff82614dd2565b614e198683614dd2565b95508019841693508086168417925050509392505050565b6000819050919050565b6000614e56614e51614e4c84613d81565b614e31565b613d81565b9050919050565b6000819050919050565b614e7083614e3b565b614e84614e7c82614e5d565b848454614ddf565b825550505050565b600090565b614e99614e8c565b614ea4818484614e67565b505050565b5b81811015614ec857614ebd600082614e91565b600181019050614eaa565b5050565b601f821115614f0d57614ede81614ba2565b614ee784614dc2565b81016020851015614ef6578190505b614f0a614f0285614dc2565b830182614ea9565b50505b505050565b600082821c905092915050565b6000614f3060001984600802614f12565b1980831691505092915050565b6000614f498383614f1f565b9150826002028217905092915050565b614f6282613edc565b67ffffffffffffffff811115614f7b57614f7a61404d565b5b614f858254614b66565b614f90828285614ecc565b600060209050601f831160018114614fc35760008415614fb1578287015190505b614fbb8582614f3d565b865550615023565b601f198416614fd186614ba2565b60005b82811015614ff957848901518255600182019150602085019450602081019050614fd4565b868310156150165784890151615012601f891682614f1f565b8355505b6001600288020188555050505b505050505050565b6000819050919050565b600067ffffffffffffffff82169050919050565b600061506461505f61505a8461502b565b614e31565b615035565b9050919050565b61507481615049565b82525050565b600060208201905061508f600083018461506b565b92915050565b7f6e6f207772697465207065726d697373696f6e00000000000000000000000000600082015250565b60006150cb601383613ee7565b91506150d682615095565b602082019050919050565b600060208201905081810360008301526150fa816150be565b9050919050565b600060a0820190506151166000830188613df7565b6151236020830187614354565b6151306040830186613eb2565b61513d6060830185613df7565b61514a6080830184613df7565b9695505050505050565b600061516f61516a6151658461502b565b614e31565b613d81565b9050919050565b61517f81615154565b82525050565b600060408201905061519a6000830185613df7565b6151a76020830184615176565b9392505050565b7f6e6f2072656164207065726d697373696f6e0000000000000000000000000000600082015250565b60006151e4601283613ee7565b91506151ef826151ae565b602082019050919050565b60006020820190508181036000830152615213816151d7565b9050919050565b7f546f6b656e20646f6573206e6f74206578697374730000000000000000000000600082015250565b6000615250601583613ee7565b915061525b8261521a565b602082019050919050565b6000602082019050818103600083015261527f81615243565b9050919050565b7f4e6f206d696e74207065726d697373696f6e0000000000000000000000000000600082015250565b60006152bc601283613ee7565b91506152c782615286565b602082019050919050565b600060208201905081810360008301526152eb816152af565b9050919050565b60006040820190506153076000830185614354565b6153146020830184613df7565b9392505050565b60008151905061532a81613d8b565b92915050565b60006020828403121561534657615345613d19565b5b60006153548482850161531b565b91505092915050565b600061536882613d81565b915061537383613d81565b925082820190508082111561538b5761538a614d4b565b5b92915050565b7f496e736966696369656e742062616c616e636500000000000000000000000000600082015250565b60006153c7601383613ee7565b91506153d282615391565b602082019050919050565b600060208201905081810360008301526153f6816153ba565b9050919050565b600061540882613d81565b915061541383613d81565b925082820390508181111561542b5761542a614d4b565b5b92915050565b7f55524920616c7265616479207365740000000000000000000000000000000000600082015250565b6000615467600f83613ee7565b915061547282615431565b602082019050919050565b600060208201905081810360008301526154968161545a565b9050919050565b6000819050919050565b60008160e01b9050919050565b60006154cf6154ca6154c58461549d565b6154a7565b613e21565b9050919050565b6154df816154b4565b82525050565b60006020820190506154fa60008301846154d6565b92915050565b60008151905061550f816147e1565b92915050565b60006020828403121561552b5761552a613d19565b5b600061553984828501615500565b91505092915050565b60006040820190506155576000830185614354565b615564602083018461401e565b9392505050565b60006080820190506155806000830187614354565b61558d6020830186613df7565b61559a6040830185613df7565b6155a76060830184613df7565b95945050505050565b600060408201905081810360008301526155ca8185614519565b905081810360208301526155de8184614519565b90509392505050565b600081519050919050565b600082825260208201905092915050565b600061560e826155e7565b61561881856155f2565b9350615628818560208601613ef8565b61563181613f22565b840191505092915050565b600060a0820190506156516000830188614354565b61565e6020830187614354565b61566b6040830186613df7565b6156786060830185613df7565b818103608083015261568a8184615603565b90509695505050505050565b6000815190506156a581613e4d565b92915050565b6000602082840312156156c1576156c0613d19565b5b60006156cf84828501615696565b91505092915050565b600060a0820190506156ed6000830188614354565b6156fa6020830187614354565b818103604083015261570c8186614519565b905081810360608301526157208185614519565b905081810360808301526157348184615603565b90509695505050505050565b7f4e487b7100000000000000000000000000000000000000000000000000000000600052603160045260246000fdfea26469706673582212204a857c8f73d956896eec4c00920e5223c3acf6755f8443d9305f3bf3e4c6d5c564736f6c63430008140033",
  "linkReferences": {},
  "deployedLinkReferences": {}
}