{
  "_format": "hh-sol-artifact-1",
  "contractName": "Collection",
  "sourceName": "contracts/collections/Collection.sol",
  "abi": [
    {
      "inputs": [],
      "name": "AccessControlBadConfirmation",
      "type": "error"
    },
    {
      "inputs": [
        {
          "internalType": "address",
          "name": "account",
          "type": "address"
        },
        {
          "internalType": "bytes32",
          "name": "neededRole",
          "type": "bytes32"
        }
      ],
      "name": "AccessControlUnauthorizedAccount",
      "type": "error"
    },
    {
      "inputs": [
        {
          "internalType": "address",
          "name": "sender",
          "type": "address"
        },
        {
          "internalType": "uint256",
          "name": "balance",
          "type": "uint256"
        },
        {
          "internalType": "uint256",
          "name": "needed",
          "type": "uint256"
        },
        {
          "internalType": "uint256",
          "name": "tokenId",
          "type": "uint256"
        }
      ],
      "name": "ERC1155InsufficientBalance",
      "type": "error"
    },
    {
      "inputs": [
        {
          "internalType": "address",
          "name": "approver",
          "type": "address"
        }
      ],
      "name": "ERC1155InvalidApprover",
      "type": "error"
    },
    {
      "inputs": [
        {
          "internalType": "uint256",
          "name": "idsLength",
          "type": "uint256"
        },
        {
          "internalType": "uint256",
          "name": "valuesLength",
          "type": "uint256"
        }
      ],
      "name": "ERC1155InvalidArrayLength",
      "type": "error"
    },
    {
      "inputs": [
        {
          "internalType": "address",
          "name": "operator",
          "type": "address"
        }
      ],
      "name": "ERC1155InvalidOperator",
      "type": "error"
    },
    {
      "inputs": [
        {
          "internalType": "address",
          "name": "receiver",
          "type": "address"
        }
      ],
      "name": "ERC1155InvalidReceiver",
      "type": "error"
    },
    {
      "inputs": [
        {
          "internalType": "address",
          "name": "sender",
          "type": "address"
        }
      ],
      "name": "ERC1155InvalidSender",
      "type": "error"
    },
    {
      "inputs": [
        {
          "internalType": "address",
          "name": "operator",
          "type": "address"
        },
        {
          "internalType": "address",
          "name": "owner",
          "type": "address"
        }
      ],
      "name": "ERC1155MissingApprovalForAll",
      "type": "error"
    },
    {
      "inputs": [],
      "name": "EnforcedPause",
      "type": "error"
    },
    {
      "inputs": [],
      "name": "ExpectedPause",
      "type": "error"
    },
    {
      "inputs": [],
      "name": "InvalidInitialization",
      "type": "error"
    },
    {
      "inputs": [],
      "name": "NotInitializing",
      "type": "error"
    },
    {
      "inputs": [],
      "name": "ReentrancyGuardReentrantCall",
      "type": "error"
    },
    {
      "anonymous": false,
      "inputs": [
        {
          "indexed": true,
          "internalType": "address",
          "name": "account",
          "type": "address"
        },
        {
          "indexed": true,
          "internalType": "address",
          "name": "operator",
          "type": "address"
        },
        {
          "indexed": false,
          "internalType": "bool",
          "name": "approved",
          "type": "bool"
        }
      ],
      "name": "ApprovalForAll",
      "type": "event"
    },
    {
      "anonymous": false,
      "inputs": [
        {
          "indexed": false,
          "internalType": "uint64",
          "name": "version",
          "type": "uint64"
        }
      ],
      "name": "Initialized",
      "type": "event"
    },
    {
      "anonymous": false,
      "inputs": [
        {
          "indexed": false,
          "internalType": "address",
          "name": "account",
          "type": "address"
        },
        {
          "indexed": false,
          "internalType": "uint256",
          "name": "id",
          "type": "uint256"
        },
        {
          "indexed": false,
          "internalType": "address",
          "name": "contractAddress",
          "type": "address"
        }
      ],
      "name": "NewVersoCollected",
      "type": "event"
    },
    {
      "anonymous": false,
      "inputs": [
        {
          "indexed": false,
          "internalType": "address",
          "name": "account",
          "type": "address"
        },
        {
          "indexed": false,
          "internalType": "uint256",
          "name": "id",
          "type": "uint256"
        },
        {
          "indexed": false,
          "internalType": "string",
          "name": "metadataURI",
          "type": "string"
        }
      ],
      "name": "NewVersoCreated",
      "type": "event"
    },
    {
      "anonymous": false,
      "inputs": [
        {
          "indexed": false,
          "internalType": "address",
          "name": "account",
          "type": "address"
        }
      ],
      "name": "Paused",
      "type": "event"
    },
    {
      "anonymous": false,
      "inputs": [
        {
          "indexed": true,
          "internalType": "bytes32",
          "name": "role",
          "type": "bytes32"
        },
        {
          "indexed": true,
          "internalType": "bytes32",
          "name": "previousAdminRole",
          "type": "bytes32"
        },
        {
          "indexed": true,
          "internalType": "bytes32",
          "name": "newAdminRole",
          "type": "bytes32"
        }
      ],
      "name": "RoleAdminChanged",
      "type": "event"
    },
    {
      "anonymous": false,
      "inputs": [
        {
          "indexed": true,
          "internalType": "bytes32",
          "name": "role",
          "type": "bytes32"
        },
        {
          "indexed": true,
          "internalType": "address",
          "name": "account",
          "type": "address"
        },
        {
          "indexed": true,
          "internalType": "address",
          "name": "sender",
          "type": "address"
        }
      ],
      "name": "RoleGranted",
      "type": "event"
    },
    {
      "anonymous": false,
      "inputs": [
        {
          "indexed": true,
          "internalType": "bytes32",
          "name": "role",
          "type": "bytes32"
        },
        {
          "indexed": true,
          "internalType": "address",
          "name": "account",
          "type": "address"
        },
        {
          "indexed": true,
          "internalType": "address",
          "name": "sender",
          "type": "address"
        }
      ],
      "name": "RoleRevoked",
      "type": "event"
    },
    {
      "anonymous": false,
      "inputs": [
        {
          "indexed": true,
          "internalType": "address",
          "name": "operator",
          "type": "address"
        },
        {
          "indexed": true,
          "internalType": "address",
          "name": "from",
          "type": "address"
        },
        {
          "indexed": true,
          "internalType": "address",
          "name": "to",
          "type": "address"
        },
        {
          "indexed": false,
          "internalType": "uint256[]",
          "name": "ids",
          "type": "uint256[]"
        },
        {
          "indexed": false,
          "internalType": "uint256[]",
          "name": "values",
          "type": "uint256[]"
        }
      ],
      "name": "TransferBatch",
      "type": "event"
    },
    {
      "anonymous": false,
      "inputs": [
        {
          "indexed": true,
          "internalType": "address",
          "name": "operator",
          "type": "address"
        },
        {
          "indexed": true,
          "internalType": "address",
          "name": "from",
          "type": "address"
        },
        {
          "indexed": true,
          "internalType": "address",
          "name": "to",
          "type": "address"
        },
        {
          "indexed": false,
          "internalType": "uint256",
          "name": "id",
          "type": "uint256"
        },
        {
          "indexed": false,
          "internalType": "uint256",
          "name": "value",
          "type": "uint256"
        }
      ],
      "name": "TransferSingle",
      "type": "event"
    },
    {
      "anonymous": false,
      "inputs": [
        {
          "indexed": false,
          "internalType": "string",
          "name": "value",
          "type": "string"
        },
        {
          "indexed": true,
          "internalType": "uint256",
          "name": "id",
          "type": "uint256"
        }
      ],
      "name": "URI",
      "type": "event"
    },
    {
      "anonymous": false,
      "inputs": [
        {
          "indexed": false,
          "internalType": "address",
          "name": "account",
          "type": "address"
        }
      ],
      "name": "Unpaused",
      "type": "event"
    },
    {
      "anonymous": false,
      "inputs": [
        {
          "indexed": false,
          "internalType": "address",
          "name": "moderator",
          "type": "address"
        },
        {
          "indexed": false,
          "internalType": "address",
          "name": "collection",
          "type": "address"
        },
        {
          "indexed": false,
          "internalType": "uint256",
          "name": "tokenId",
          "type": "uint256"
        }
      ],
      "name": "VersoDeleted",
      "type": "event"
    },
    {
      "inputs": [],
      "name": "DEFAULT_ADMIN_ROLE",
      "outputs": [
        {
          "internalType": "bytes32",
          "name": "",
          "type": "bytes32"
        }
      ],
      "stateMutability": "view",
      "type": "function"
    },
    {
      "inputs": [],
      "name": "VERSION",
      "outputs": [
        {
          "internalType": "uint256",
          "name": "",
          "type": "uint256"
        }
      ],
      "stateMutability": "view",
      "type": "function"
    },
    {
      "inputs": [
        {
          "internalType": "address",
          "name": "account",
          "type": "address"
        },
        {
          "internalType": "uint256",
          "name": "id",
          "type": "uint256"
        }
      ],
      "name": "balanceOf",
      "outputs": [
        {
          "internalType": "uint256",
          "name": "",
          "type": "uint256"
        }
      ],
      "stateMutability": "view",
      "type": "function"
    },
    {
      "inputs": [
        {
          "internalType": "address[]",
          "name": "accounts",
          "type": "address[]"
        },
        {
          "internalType": "uint256[]",
          "name": "ids",
          "type": "uint256[]"
        }
      ],
      "name": "balanceOfBatch",
      "outputs": [
        {
          "internalType": "uint256[]",
          "name": "",
          "type": "uint256[]"
        }
      ],
      "stateMutability": "view",
      "type": "function"
    },
    {
      "inputs": [
        {
          "internalType": "uint256",
          "name": "tokenId",
          "type": "uint256"
        },
        {
          "internalType": "uint256",
          "name": "amount",
          "type": "uint256"
        }
      ],
      "name": "burn",
      "outputs": [],
      "stateMutability": "payable",
      "type": "function"
    },
    {
      "inputs": [
        {
          "internalType": "uint256",
          "name": "id",
          "type": "uint256"
        },
        {
          "internalType": "address",
          "name": "receipient",
          "type": "address"
        },
        {
          "internalType": "uint256",
          "name": "amount",
          "type": "uint256"
        },
        {
          "internalType": "address",
          "name": "referer",
          "type": "address"
        }
      ],
      "name": "collect",
      "outputs": [],
      "stateMutability": "payable",
      "type": "function"
    },
    {
      "inputs": [],
      "name": "collectionPermissions",
      "outputs": [
        {
          "internalType": "address",
          "name": "",
          "type": "address"
        }
      ],
      "stateMutability": "view",
      "type": "function"
    },
    {
      "inputs": [
        {
          "internalType": "string",
          "name": "url",
          "type": "string"
        },
        {
          "internalType": "address",
          "name": "_receipient",
          "type": "address"
        },
        {
          "internalType": "address",
          "name": "_permissions",
          "type": "address"
        },
        {
          "internalType": "address",
          "name": "_marketAddress",
          "type": "address"
        },
        {
          "internalType": "uint256",
          "name": "_supplyLimit",
          "type": "uint256"
        },
        {
          "internalType": "uint256",
          "name": "_tokenPrice",
          "type": "uint256"
        },
        {
          "internalType": "bool",
          "name": "_isListed",
          "type": "bool"
        },
        {
          "internalType": "bool",
          "name": "_isBonded",
          "type": "bool"
        }
      ],
      "name": "create",
      "outputs": [],
      "stateMutability": "payable",
      "type": "function"
    },
    {
      "inputs": [
        {
          "internalType": "uint256",
          "name": "",
          "type": "uint256"
        }
      ],
      "name": "creator",
      "outputs": [
        {
          "internalType": "address",
          "name": "",
          "type": "address"
        }
      ],
      "stateMutability": "view",
      "type": "function"
    },
    {
      "inputs": [
        {
          "internalType": "bytes32",
          "name": "role",
          "type": "bytes32"
        }
      ],
      "name": "getRoleAdmin",
      "outputs": [
        {
          "internalType": "bytes32",
          "name": "",
          "type": "bytes32"
        }
      ],
      "stateMutability": "view",
      "type": "function"
    },
    {
      "inputs": [
        {
          "internalType": "bytes32",
          "name": "role",
          "type": "bytes32"
        },
        {
          "internalType": "uint256",
          "name": "index",
          "type": "uint256"
        }
      ],
      "name": "getRoleMember",
      "outputs": [
        {
          "internalType": "address",
          "name": "",
          "type": "address"
        }
      ],
      "stateMutability": "view",
      "type": "function"
    },
    {
      "inputs": [
        {
          "internalType": "bytes32",
          "name": "role",
          "type": "bytes32"
        }
      ],
      "name": "getRoleMemberCount",
      "outputs": [
        {
          "internalType": "uint256",
          "name": "",
          "type": "uint256"
        }
      ],
      "stateMutability": "view",
      "type": "function"
    },
    {
      "inputs": [
        {
          "internalType": "bytes32",
          "name": "role",
          "type": "bytes32"
        },
        {
          "internalType": "address",
          "name": "account",
          "type": "address"
        }
      ],
      "name": "grantRole",
      "outputs": [],
      "stateMutability": "nonpayable",
      "type": "function"
    },
    {
      "inputs": [
        {
          "internalType": "address",
          "name": "user",
          "type": "address"
        }
      ],
      "name": "hasReadPermission",
      "outputs": [
        {
          "internalType": "bool",
          "name": "hasPermission",
          "type": "bool"
        }
      ],
      "stateMutability": "view",
      "type": "function"
    },
    {
      "inputs": [
        {
          "internalType": "bytes32",
          "name": "role",
          "type": "bytes32"
        },
        {
          "internalType": "address",
          "name": "account",
          "type": "address"
        }
      ],
      "name": "hasRole",
      "outputs": [
        {
          "internalType": "bool",
          "name": "",
          "type": "bool"
        }
      ],
      "stateMutability": "view",
      "type": "function"
    },
    {
      "inputs": [
        {
          "internalType": "address",
          "name": "user",
          "type": "address"
        }
      ],
      "name": "hasWritePermission",
      "outputs": [
        {
          "internalType": "bool",
          "name": "hasPermission",
          "type": "bool"
        }
      ],
      "stateMutability": "view",
      "type": "function"
    },
    {
      "inputs": [
        {
          "internalType": "string",
          "name": "_name",
          "type": "string"
        },
        {
          "internalType": "address",
          "name": "_owner",
          "type": "address"
        },
        {
          "internalType": "uint8",
          "name": "_readType",
          "type": "uint8"
        },
        {
          "internalType": "uint8",
          "name": "_writeType",
          "type": "uint8"
        },
        {
          "internalType": "address",
          "name": "_collectionPermissions",
          "type": "address"
        },
        {
          "internalType": "uint256",
          "name": "_minimumBalance",
          "type": "uint256"
        }
      ],
      "name": "initialize",
      "outputs": [],
      "stateMutability": "nonpayable",
      "type": "function"
    },
    {
      "inputs": [
        {
          "internalType": "address",
          "name": "account",
          "type": "address"
        },
        {
          "internalType": "address",
          "name": "operator",
          "type": "address"
        }
      ],
      "name": "isApprovedForAll",
      "outputs": [
        {
          "internalType": "bool",
          "name": "",
          "type": "bool"
        }
      ],
      "stateMutability": "view",
      "type": "function"
    },
    {
      "inputs": [
        {
          "internalType": "uint256",
          "name": "",
          "type": "uint256"
        }
      ],
      "name": "isListed",
      "outputs": [
        {
          "internalType": "bool",
          "name": "",
          "type": "bool"
        }
      ],
      "stateMutability": "view",
      "type": "function"
    },
    {
      "inputs": [
        {
          "internalType": "address",
          "name": "user",
          "type": "address"
        }
      ],
      "name": "isModerator",
      "outputs": [
        {
          "internalType": "bool",
          "name": "",
          "type": "bool"
        }
      ],
      "stateMutability": "view",
      "type": "function"
    },
    {
      "inputs": [
        {
          "internalType": "uint256",
          "name": "",
          "type": "uint256"
        }
      ],
      "name": "marketAddresses",
      "outputs": [
        {
          "internalType": "address",
          "name": "",
          "type": "address"
        }
      ],
      "stateMutability": "view",
      "type": "function"
    },
    {
      "inputs": [],
      "name": "minimumBalance",
      "outputs": [
        {
          "internalType": "uint256",
          "name": "",
          "type": "uint256"
        }
      ],
      "stateMutability": "view",
      "type": "function"
    },
    {
      "inputs": [],
      "name": "name",
      "outputs": [
        {
          "internalType": "string",
          "name": "",
          "type": "string"
        }
      ],
      "stateMutability": "view",
      "type": "function"
    },
    {
      "inputs": [
        {
          "internalType": "address",
          "name": "operator",
          "type": "address"
        },
        {
          "internalType": "address",
          "name": "",
          "type": "address"
        },
        {
          "internalType": "uint256[]",
          "name": "",
          "type": "uint256[]"
        },
        {
          "internalType": "uint256[]",
          "name": "",
          "type": "uint256[]"
        },
        {
          "internalType": "bytes",
          "name": "",
          "type": "bytes"
        }
      ],
      "name": "onERC1155BatchReceived",
      "outputs": [
        {
          "internalType": "bytes4",
          "name": "ret",
          "type": "bytes4"
        }
      ],
      "stateMutability": "nonpayable",
      "type": "function"
    },
    {
      "inputs": [
        {
          "internalType": "address",
          "name": "operator",
          "type": "address"
        },
        {
          "internalType": "address",
          "name": "",
          "type": "address"
        },
        {
          "internalType": "uint256",
          "name": "",
          "type": "uint256"
        },
        {
          "internalType": "uint256",
          "name": "",
          "type": "uint256"
        },
        {
          "internalType": "bytes",
          "name": "",
          "type": "bytes"
        }
      ],
      "name": "onERC1155Received",
      "outputs": [
        {
          "internalType": "bytes4",
          "name": "ret",
          "type": "bytes4"
        }
      ],
      "stateMutability": "nonpayable",
      "type": "function"
    },
    {
      "inputs": [],
      "name": "pause",
      "outputs": [],
      "stateMutability": "nonpayable",
      "type": "function"
    },
    {
      "inputs": [],
      "name": "paused",
      "outputs": [
        {
          "internalType": "bool",
          "name": "",
          "type": "bool"
        }
      ],
      "stateMutability": "view",
      "type": "function"
    },
    {
      "inputs": [],
      "name": "readType",
      "outputs": [
        {
          "internalType": "uint8",
          "name": "",
          "type": "uint8"
        }
      ],
      "stateMutability": "view",
      "type": "function"
    },
    {
      "inputs": [
        {
          "internalType": "bytes32",
          "name": "role",
          "type": "bytes32"
        },
        {
          "internalType": "address",
          "name": "callerConfirmation",
          "type": "address"
        }
      ],
      "name": "renounceRole",
      "outputs": [],
      "stateMutability": "nonpayable",
      "type": "function"
    },
    {
      "inputs": [
        {
          "internalType": "bytes32",
          "name": "role",
          "type": "bytes32"
        },
        {
          "internalType": "address",
          "name": "account",
          "type": "address"
        }
      ],
      "name": "revokeRole",
      "outputs": [],
      "stateMutability": "nonpayable",
      "type": "function"
    },
    {
      "inputs": [
        {
          "internalType": "address",
          "name": "from",
          "type": "address"
        },
        {
          "internalType": "address",
          "name": "to",
          "type": "address"
        },
        {
          "internalType": "uint256[]",
          "name": "ids",
          "type": "uint256[]"
        },
        {
          "internalType": "uint256[]",
          "name": "values",
          "type": "uint256[]"
        },
        {
          "internalType": "bytes",
          "name": "data",
          "type": "bytes"
        }
      ],
      "name": "safeBatchTransferFrom",
      "outputs": [],
      "stateMutability": "nonpayable",
      "type": "function"
    },
    {
      "inputs": [
        {
          "internalType": "address",
          "name": "from",
          "type": "address"
        },
        {
          "internalType": "address",
          "name": "to",
          "type": "address"
        },
        {
          "internalType": "uint256",
          "name": "id",
          "type": "uint256"
        },
        {
          "internalType": "uint256",
          "name": "value",
          "type": "uint256"
        },
        {
          "internalType": "bytes",
          "name": "data",
          "type": "bytes"
        }
      ],
      "name": "safeTransferFrom",
      "outputs": [],
      "stateMutability": "nonpayable",
      "type": "function"
    },
    {
      "inputs": [
        {
          "internalType": "address",
          "name": "operator",
          "type": "address"
        },
        {
          "internalType": "bool",
          "name": "approved",
          "type": "bool"
        }
      ],
      "name": "setApprovalForAll",
      "outputs": [],
      "stateMutability": "nonpayable",
      "type": "function"
    },
    {
      "inputs": [
        {
          "internalType": "bytes4",
          "name": "interfaceId",
          "type": "bytes4"
        }
      ],
      "name": "supportsInterface",
      "outputs": [
        {
          "internalType": "bool",
          "name": "",
          "type": "bool"
        }
      ],
      "stateMutability": "view",
      "type": "function"
    },
    {
      "inputs": [
        {
          "internalType": "uint256",
          "name": "",
          "type": "uint256"
        }
      ],
      "name": "tokenPermissions",
      "outputs": [
        {
          "internalType": "address",
          "name": "",
          "type": "address"
        }
      ],
      "stateMutability": "view",
      "type": "function"
    },
    {
      "inputs": [
        {
          "internalType": "uint256",
          "name": "",
          "type": "uint256"
        }
      ],
      "name": "tokenSupply",
      "outputs": [
        {
          "internalType": "uint256",
          "name": "",
          "type": "uint256"
        }
      ],
      "stateMutability": "view",
      "type": "function"
    },
    {
      "inputs": [],
      "name": "unpause",
      "outputs": [],
      "stateMutability": "nonpayable",
      "type": "function"
    },
    {
      "inputs": [
        {
          "internalType": "uint256",
          "name": "tokenID",
          "type": "uint256"
        }
      ],
      "name": "uri",
      "outputs": [
        {
          "internalType": "string",
          "name": "",
          "type": "string"
        }
      ],
      "stateMutability": "view",
      "type": "function"
    },
    {
      "inputs": [
        {
          "internalType": "address",
          "name": "collectionAddress",
          "type": "address"
        },
        {
          "internalType": "uint256",
          "name": "tokenId",
          "type": "uint256"
        },
        {
          "internalType": "uint256",
          "name": "amount",
          "type": "uint256"
        }
      ],
      "name": "withdraw",
      "outputs": [],
      "stateMutability": "payable",
      "type": "function"
    },
    {
      "inputs": [],
      "name": "writeType",
      "outputs": [
        {
          "internalType": "uint8",
          "name": "",
          "type": "uint8"
        }
      ],
      "stateMutability": "view",
      "type": "function"
    }
  ],
  "bytecode": "0x60806040526040518060400160405280601481526020017f68747470733a2f2f617277656176652e6e65742f000000000000000000000000815250600590816200004a9190620002e1565b503480156200005857600080fd5b506001600081905550620003c8565b600081519050919050565b7f4e487b7100000000000000000000000000000000000000000000000000000000600052604160045260246000fd5b7f4e487b7100000000000000000000000000000000000000000000000000000000600052602260045260246000fd5b60006002820490506001821680620000e957607f821691505b602082108103620000ff57620000fe620000a1565b5b50919050565b60008190508160005260206000209050919050565b60006020601f8301049050919050565b600082821b905092915050565b600060088302620001697fffffffffffffffffffffffffffffffffffffffffffffffffffffffffffffffff826200012a565b6200017586836200012a565b95508019841693508086168417925050509392505050565b6000819050919050565b6000819050919050565b6000620001c2620001bc620001b6846200018d565b62000197565b6200018d565b9050919050565b6000819050919050565b620001de83620001a1565b620001f6620001ed82620001c9565b84845462000137565b825550505050565b600090565b6200020d620001fe565b6200021a818484620001d3565b505050565b5b8181101562000242576200023660008262000203565b60018101905062000220565b5050565b601f82111562000291576200025b8162000105565b62000266846200011a565b8101602085101562000276578190505b6200028e62000285856200011a565b8301826200021f565b50505b505050565b600082821c905092915050565b6000620002b66000198460080262000296565b1980831691505092915050565b6000620002d18383620002a3565b9150826002028217905092915050565b620002ec8262000067565b67ffffffffffffffff81111562000308576200030762000072565b5b620003148254620000d0565b6200032182828562000246565b600060209050601f83116001811462000359576000841562000344578287015190505b620003508582620002c3565b865550620003c0565b601f198416620003698662000105565b60005b8281101562000393578489015182556001820191506020850194506020810190506200036c565b86831015620003b35784890151620003af601f891682620002a3565b8355505b6001600288020188555050505b505050505050565b61586b80620003d86000396000f3fe60806040526004361061023a5760003560e01c806391d148541161012e578063c47cb4b2116100ab578063f23a6e611161006f578063f23a6e61146108d0578063f242432a1461090d578063fa6f393614610936578063fcce488314610973578063ffa1ad74146109b05761023a565b8063c47cb4b2146107b3578063ca15c873146107f0578063d547741f1461082d578063e90b3d3d14610856578063e985e9c5146108935761023a565b8063b31985c2116100f2578063b31985c2146106d6578063b390c0ab14610713578063b5c5f6721461072f578063b9d1d49b1461074b578063bc197c81146107765761023a565b806391d14854146105fe57806393e275071461063b5780639bc6235214610657578063a217fddf14610682578063a22cb465146106ad5761023a565b80633f4ba83a116101bc5780636b1a3de3116101805780636b1a3de31461053a5780637c3ab9f2146105655780638456cb591461058157806387d0dc40146105985780639010d07c146105c15761023a565b80633f4ba83a146104535780634e1273f41461046a578063510b5158146104a75780635c975abb146104e45780635fee596c1461050f5761023a565b80632693ebf2116102035780632693ebf21461035e5780632eb2c2d61461039b5780632f2ff15d146103c4578063350293a1146103ed57806336568abe1461042a5761023a565b8062fdd58e1461023f57806301ffc9a71461027c57806306fdde03146102b95780630e89341c146102e4578063248a9ca314610321575b600080fd5b34801561024b57600080fd5b5061026660048036038101906102619190613e24565b6109db565b6040516102739190613e73565b60405180910390f35b34801561028857600080fd5b506102a3600480360381019061029e9190613ee6565b610a44565b6040516102b09190613f2e565b60405180910390f35b3480156102c557600080fd5b506102ce610a56565b6040516102db9190613fd9565b60405180910390f35b3480156102f057600080fd5b5061030b60048036038101906103069190613ffb565b610ae4565b6040516103189190613fd9565b60405180910390f35b34801561032d57600080fd5b506103486004803603810190610343919061405e565b610b22565b604051610355919061409a565b60405180910390f35b34801561036a57600080fd5b5061038560048036038101906103809190613ffb565b610b50565b6040516103929190613e73565b60405180910390f35b3480156103a757600080fd5b506103c260048036038101906103bd91906142b2565b610b68565b005b3480156103d057600080fd5b506103eb60048036038101906103e69190614381565b610c10565b005b3480156103f957600080fd5b50610414600480360381019061040f9190613ffb565b610c32565b60405161042191906143d0565b60405180910390f35b34801561043657600080fd5b50610451600480360381019061044c9190614381565b610c65565b005b34801561045f57600080fd5b50610468610ce0565b005b34801561047657600080fd5b50610491600480360381019061048c91906144ae565b610d53565b60405161049e91906145e4565b60405180910390f35b3480156104b357600080fd5b506104ce60048036038101906104c99190613ffb565b610e62565b6040516104db91906143d0565b60405180910390f35b3480156104f057600080fd5b506104f9610e95565b6040516105069190613f2e565b60405180910390f35b34801561051b57600080fd5b50610524610eba565b60405161053191906143d0565b60405180910390f35b34801561054657600080fd5b5061054f610ee0565b60405161055c9190614622565b60405180910390f35b61057f600480360381019061057a919061463d565b610ef3565b005b34801561058d57600080fd5b50610596611199565b005b3480156105a457600080fd5b506105bf60048036038101906105ba9190614771565b61120c565b005b3480156105cd57600080fd5b506105e860048036038101906105e3919061481a565b61152d565b6040516105f591906143d0565b60405180910390f35b34801561060a57600080fd5b5061062560048036038101906106209190614381565b61156a565b6040516106329190613f2e565b60405180910390f35b610655600480360381019061065091906148e1565b6115e3565b005b34801561066357600080fd5b5061066c6118a9565b6040516106799190614622565b60405180910390f35b34801561068e57600080fd5b506106976118bc565b6040516106a4919061409a565b60405180910390f35b3480156106b957600080fd5b506106d460048036038101906106cf91906149b7565b6118c3565b005b3480156106e257600080fd5b506106fd60048036038101906106f89190613ffb565b6118d9565b60405161070a91906143d0565b60405180910390f35b61072d600480360381019061072891906149f7565b61190c565b005b61074960048036038101906107449190614a37565b611a82565b005b34801561075757600080fd5b50610760611b6b565b60405161076d9190613e73565b60405180910390f35b34801561078257600080fd5b5061079d600480360381019061079891906142b2565b611b71565b6040516107aa9190614a99565b60405180910390f35b3480156107bf57600080fd5b506107da60048036038101906107d59190614ab4565b611bbb565b6040516107e79190613f2e565b60405180910390f35b3480156107fc57600080fd5b506108176004803603810190610812919061405e565b611cdf565b6040516108249190613e73565b60405180910390f35b34801561083957600080fd5b50610854600480360381019061084f9190614381565b611d11565b005b34801561086257600080fd5b5061087d60048036038101906108789190614ab4565b611d33565b60405161088a9190613f2e565b60405180910390f35b34801561089f57600080fd5b506108ba60048036038101906108b59190614ae1565b611ea2565b6040516108c79190613f2e565b60405180910390f35b3480156108dc57600080fd5b506108f760048036038101906108f29190614b21565b611f44565b6040516109049190614a99565b60405180910390f35b34801561091957600080fd5b50610934600480360381019061092f9190614b21565b611f8e565b005b34801561094257600080fd5b5061095d60048036038101906109589190614ab4565b612036565b60405161096a9190613f2e565b60405180910390f35b34801561097f57600080fd5b5061099a60048036038101906109959190613ffb565b612069565b6040516109a79190613f2e565b60405180910390f35b3480156109bc57600080fd5b506109c5612089565b6040516109d29190613e73565b60405180910390f35b6000806109e661208e565b905080600001600084815260200190815260200160002060008573ffffffffffffffffffffffffffffffffffffffff1673ffffffffffffffffffffffffffffffffffffffff1681526020019081526020016000205491505092915050565b6000610a4f826120b6565b9050919050565b60018054610a6390614be7565b80601f0160208091040260200160405190810160405280929190818152602001828054610a8f90614be7565b8015610adc5780601f10610ab157610100808354040283529160200191610adc565b820191906000526020600020905b815481529060010190602001808311610abf57829003601f168201915b505050505081565b6060600560066000848152602001908152602001600020604051602001610b0c929190614cbb565b6040516020818303038152906040529050919050565b600080610b2d612130565b905080600001600084815260200190815260200160002060010154915050919050565b60076020528060005260406000206000915090505481565b6000610b72612158565b90508073ffffffffffffffffffffffffffffffffffffffff168673ffffffffffffffffffffffffffffffffffffffff1614158015610bb75750610bb58682611ea2565b155b15610bfb5780866040517fe237d922000000000000000000000000000000000000000000000000000000008152600401610bf2929190614cdf565b60405180910390fd5b610c088686868686612160565b505050505050565b610c1982610b22565b610c2281612258565b610c2c838361226c565b50505050565b60096020528060005260406000206000915054906101000a900473ffffffffffffffffffffffffffffffffffffffff1681565b610c6d612158565b73ffffffffffffffffffffffffffffffffffffffff168173ffffffffffffffffffffffffffffffffffffffff1614610cd1576040517f6697b23200000000000000000000000000000000000000000000000000000000815260040160405180910390fd5b610cdb82826122c1565b505050565b610d0a7f44a854cabd360644e908fcd642b33fedfb60c399d7b1e7e2051275f0b09b0be53361156a565b610d49576040517f08c379a0000000000000000000000000000000000000000000000000000000008152600401610d4090614d54565b60405180910390fd5b610d51612316565b565b60608151835114610d9f57815183516040517f5b059991000000000000000000000000000000000000000000000000000000008152600401610d96929190614d74565b60405180910390fd5b6000835167ffffffffffffffff811115610dbc57610dbb6140ba565b5b604051908082528060200260200182016040528015610dea5781602001602082028036833780820191505090505b50905060005b8451811015610e5757610e27610e0f828761238890919063ffffffff16565b610e22838761239c90919063ffffffff16565b6109db565b828281518110610e3a57610e39614d9d565b5b60200260200101818152505080610e5090614dfb565b9050610df0565b508091505092915050565b600a6020528060005260406000206000915054906101000a900473ffffffffffffffffffffffffffffffffffffffff1681565b600080610ea06123b0565b90508060000160009054906101000a900460ff1691505090565b600360029054906101000a900473ffffffffffffffffffffffffffffffffffffffff1681565b600360009054906101000a900460ff1681565b610efb6123d8565b610f0433611bbb565b610f43576040517f08c379a0000000000000000000000000000000000000000000000000000000008152600401610f3a90614e8f565b60405180910390fd5b600254841115610f88576040517f08c379a0000000000000000000000000000000000000000000000000000000008152600401610f7f90614efb565b60405180910390fd5b60011515610f968533612419565b151514610fd8576040517f08c379a0000000000000000000000000000000000000000000000000000000008152600401610fcf90614f67565b60405180910390fd5b600b600085815260200190815260200160002060009054906101000a900460ff16156111425760006009600086815260200190815260200160002060009054906101000a900473ffffffffffffffffffffffffffffffffffffffff1690508073ffffffffffffffffffffffffffffffffffffffff166367e2cafd30876040518363ffffffff1660e01b8152600401611071929190614f87565b602060405180830381865afa15801561108e573d6000803e3d6000fd5b505050506040513d601f19601f820116820180604052508101906110b29190614fc5565b6007600087815260200190815260200160002054106110d057600080fd5b8073ffffffffffffffffffffffffffffffffffffffff1663e8e2d37c348786866040518563ffffffff1660e01b815260040161110e93929190614ff2565b6000604051808303818588803b15801561112757600080fd5b505af115801561113b573d6000803e3d6000fd5b5050505050505b61115d838584604051806020016040528060008152506126bd565b81600760008681526020019081526020016000205461117c9190615029565b600760008681526020019081526020016000208190555050505050565b6111c37f44a854cabd360644e908fcd642b33fedfb60c399d7b1e7e2051275f0b09b0be53361156a565b611202576040517f08c379a00000000000000000000000000000000000000000000000000000000081526004016111f990614d54565b60405180910390fd5b61120a612756565b565b60006112166127c8565b905060008160000160089054906101000a900460ff1615905060008260000160009054906101000a900467ffffffffffffffff1690506000808267ffffffffffffffff161480156112645750825b9050600060018367ffffffffffffffff16148015611299575060003073ffffffffffffffffffffffffffffffffffffffff163b145b9050811580156112a7575080155b156112de576040517ff92ee8a900000000000000000000000000000000000000000000000000000000815260040160405180910390fd5b60018560000160006101000a81548167ffffffffffffffff021916908367ffffffffffffffff160217905550831561132e5760018560000160086101000a81548160ff0219169083151502179055505b8a6001908161133d91906151f4565b506113466127f0565b61135e604051806020016040528060008152506127fa565b61136661280e565b61136e612818565b88600360006101000a81548160ff021916908360ff16021790555087600360016101000a81548160ff021916908360ff16021790555086600360026101000a81548173ffffffffffffffffffffffffffffffffffffffff021916908373ffffffffffffffffffffffffffffffffffffffff160217905550856004819055506113f96000801b8b61226c565b506114247f44a854cabd360644e908fcd642b33fedfb60c399d7b1e7e2051275f0b09b0be58b61226c565b5061144f7f3238a3641700084b9e028fe65d2b3bf551f4498c926ce0b8e97aa2eaec0e4bf98b61226c565b5061147a7f44a854cabd360644e908fcd642b33fedfb60c399d7b1e7e2051275f0b09b0be58061284c565b6114c47f3238a3641700084b9e028fe65d2b3bf551f4498c926ce0b8e97aa2eaec0e4bf97f44a854cabd360644e908fcd642b33fedfb60c399d7b1e7e2051275f0b09b0be561284c565b83156115205760008560000160086101000a81548160ff0219169083151502179055507fc7f505b2f371ae2175ee4913f4499e1f2633a7b5936321eed1cdaeb6115181d260016040516115179190615315565b60405180910390a15b5050505050505050505050565b6000806115386128b7565b9050611561838260000160008781526020019081526020016000206128df90919063ffffffff16565b91505092915050565b600080611575612130565b905080600001600085815260200190815260200160002060000160008473ffffffffffffffffffffffffffffffffffffffff1673ffffffffffffffffffffffffffffffffffffffff16815260200190815260200160002060009054906101000a900460ff1691505092915050565b6115eb6123d8565b6115f433611d33565b611633576040517f08c379a000000000000000000000000000000000000000000000000000000000815260040161162a9061537c565b60405180910390fd5b6002600081548092919061164690614dfb565b919050555060006002549050866008600083815260200190815260200160002060006101000a81548173ffffffffffffffffffffffffffffffffffffffff021916908373ffffffffffffffffffffffffffffffffffffffff16021790555082156118195782600b600083815260200190815260200160002060006101000a81548160ff021916908315150217905550856009600083815260200190815260200160002060006101000a81548173ffffffffffffffffffffffffffffffffffffffff021916908373ffffffffffffffffffffffffffffffffffffffff16021790555060008690508073ffffffffffffffffffffffffffffffffffffffff16630bc917c08333868a8a6040518663ffffffff1660e01b815260040161176d95949392919061539c565b600060405180830381600087803b15801561178757600080fd5b505af115801561179b573d6000803e3d6000fd5b505050508215611817578073ffffffffffffffffffffffffffffffffffffffff1663e8e2d37c34846001336040518563ffffffff1660e01b81526004016117e493929190615420565b6000604051808303818588803b1580156117fd57600080fd5b505af1158015611811573d6000803e3d6000fd5b50505050505b505b6001600760008381526020019081526020016000208190555061184e88826001604051806020016040528060008152506126bd565b61189c818b8b8080601f016020809104026020016040519081016040528093929190818152602001838380828437600081840152601f19601f820116905080830192505050505050506128f9565b5050505050505050505050565b600360019054906101000a900460ff1681565b6000801b81565b6118d56118ce612158565b8383612a2b565b5050565b60086020528060005260406000206000915054906101000a900473ffffffffffffffffffffffffffffffffffffffff1681565b6119146123d8565b61191c612baa565b8061192733846109db565b1015611968576040517f08c379a000000000000000000000000000000000000000000000000000000000815260040161195f906154a3565b60405180910390fd5b600b600083815260200190815260200160002060009054906101000a900460ff1615611a355760006009600084815260200190815260200160002060009054906101000a900473ffffffffffffffffffffffffffffffffffffffff1690508073ffffffffffffffffffffffffffffffffffffffff1663eb111ce384846040518363ffffffff1660e01b8152600401611a01929190614d74565b600060405180830381600087803b158015611a1b57600080fd5b505af1158015611a2f573d6000803e3d6000fd5b50505050505b611a40338383612bf0565b806007600084815260200190815260200160002054611a5f91906154c3565b6007600084815260200190815260200160002081905550611a7e612c97565b5050565b611a8a6123d8565b611ab47f44a854cabd360644e908fcd642b33fedfb60c399d7b1e7e2051275f0b09b0be53361156a565b611af3576040517f08c379a0000000000000000000000000000000000000000000000000000000008152600401611aea90614d54565b60405180910390fd5b60008390508073ffffffffffffffffffffffffffffffffffffffff1663b390c0ab84846040518363ffffffff1660e01b8152600401611b33929190614d74565b600060405180830381600087803b158015611b4d57600080fd5b505af1158015611b61573d6000803e3d6000fd5b5050505050505050565b60045481565b6000611b9d7f44a854cabd360644e908fcd642b33fedfb60c399d7b1e7e2051275f0b09b0be58761156a565b15611bb15763bc197c8160e01b9050611bb2565b5b95945050505050565b600080600360009054906101000a900460ff1660ff1603611bdf5760019050611cda565b6001600360009054906101000a900460ff1660ff1603611cd957611c237f3238a3641700084b9e028fe65d2b3bf551f4498c926ce0b8e97aa2eaec0e4bf98361156a565b15611c315760019050611cda565b600454600360029054906101000a900473ffffffffffffffffffffffffffffffffffffffff1673ffffffffffffffffffffffffffffffffffffffff166370a08231846040518263ffffffff1660e01b8152600401611c8f91906143d0565b602060405180830381865afa158015611cac573d6000803e3d6000fd5b505050506040513d601f19601f82011682018060405250810190611cd09190614fc5565b10159050611cda565b5b919050565b600080611cea6128b7565b9050611d09816000016000858152602001908152602001600020612ca1565b915050919050565b611d1a82610b22565b611d2381612258565b611d2d83836122c1565b50505050565b600080600360019054906101000a900460ff1660ff1603611d575760019050611e9d565b6001600360019054906101000a900460ff1660ff1603611da257611d9b7f44a854cabd360644e908fcd642b33fedfb60c399d7b1e7e2051275f0b09b0be58361156a565b9050611e9d565b6002600360019054906101000a900460ff1660ff1603611e9c57611de67f3238a3641700084b9e028fe65d2b3bf551f4498c926ce0b8e97aa2eaec0e4bf98361156a565b15611df45760019050611e9d565b600454600360029054906101000a900473ffffffffffffffffffffffffffffffffffffffff1673ffffffffffffffffffffffffffffffffffffffff166370a08231846040518263ffffffff1660e01b8152600401611e5291906143d0565b602060405180830381865afa158015611e6f573d6000803e3d6000fd5b505050506040513d601f19601f82011682018060405250810190611e939190614fc5565b10159050611e9d565b5b919050565b600080611ead61208e565b90508060010160008573ffffffffffffffffffffffffffffffffffffffff1673ffffffffffffffffffffffffffffffffffffffff16815260200190815260200160002060008473ffffffffffffffffffffffffffffffffffffffff1673ffffffffffffffffffffffffffffffffffffffff16815260200190815260200160002060009054906101000a900460ff1691505092915050565b6000611f707f44a854cabd360644e908fcd642b33fedfb60c399d7b1e7e2051275f0b09b0be58761156a565b15611f845763f23a6e6160e01b9050611f85565b5b95945050505050565b6000611f98612158565b90508073ffffffffffffffffffffffffffffffffffffffff168673ffffffffffffffffffffffffffffffffffffffff1614158015611fdd5750611fdb8682611ea2565b155b156120215780866040517fe237d922000000000000000000000000000000000000000000000000000000008152600401612018929190614cdf565b60405180910390fd5b61202e8686868686612cb6565b505050505050565b60006120627f44a854cabd360644e908fcd642b33fedfb60c399d7b1e7e2051275f0b09b0be58361156a565b9050919050565b600b6020528060005260406000206000915054906101000a900460ff1681565b600181565b60007f88be536d5240c274a3b1d3a1be54482fd9caa294f08c62a7cde569f49a3c4500905090565b60007f4e2312e0000000000000000000000000000000000000000000000000000000007bffffffffffffffffffffffffffffffffffffffffffffffffffffffff1916827bffffffffffffffffffffffffffffffffffffffffffffffffffffffff19161480612129575061212882612dc1565b5b9050919050565b60007f02dd7bc7dec4dceedda775e58dd541e08a116c6c53815c0bd028192f7b626800905090565b600033905090565b600073ffffffffffffffffffffffffffffffffffffffff168473ffffffffffffffffffffffffffffffffffffffff16036121d25760006040517f57f447ce0000000000000000000000000000000000000000000000000000000081526004016121c991906143d0565b60405180910390fd5b600073ffffffffffffffffffffffffffffffffffffffff168573ffffffffffffffffffffffffffffffffffffffff16036122445760006040517f01a8351400000000000000000000000000000000000000000000000000000000815260040161223b91906143d0565b60405180910390fd5b6122518585858585612e3b565b5050505050565b61226981612264612158565b612eed565b50565b6000806122776128b7565b905060006122858585612f3e565b905080156122b6576122b48483600001600088815260200190815260200160002061303f90919063ffffffff16565b505b809250505092915050565b6000806122cc6128b7565b905060006122da858561306f565b9050801561230b576123098483600001600088815260200190815260200160002061317190919063ffffffff16565b505b809250505092915050565b61231e6131a1565b60006123286123b0565b905060008160000160006101000a81548160ff0219169083151502179055507f5db9ee0a495bf2e6ff9c91a7834c1ba4fdd244a5e8aa4e537bd38aeae4b073aa612370612158565b60405161237d91906143d0565b60405180910390a150565b600060208202602084010151905092915050565b600060208202602084010151905092915050565b60007fcd5ed15c6e187e77e9aee88184c21f4f2182ab5827cb3b7e07fbedcd63f03300905090565b6123e0610e95565b15612417576040517fd93c066500000000000000000000000000000000000000000000000000000000815260040160405180910390fd5b565b60008073ffffffffffffffffffffffffffffffffffffffff166008600085815260200190815260200160002060009054906101000a900473ffffffffffffffffffffffffffffffffffffffff1673ffffffffffffffffffffffffffffffffffffffff16146126b2576008600084815260200190815260200160002060009054906101000a900473ffffffffffffffffffffffffffffffffffffffff1673ffffffffffffffffffffffffffffffffffffffff166301ffc9a763d9b67a266040518263ffffffff1660e01b81526004016124f1919061553f565b602060405180830381865afa15801561250e573d6000803e3d6000fd5b505050506040513d601f19601f82011682018060405250810190612532919061556f565b156125f55760006008600085815260200190815260200160002060009054906101000a900473ffffffffffffffffffffffffffffffffffffffff16905060008173ffffffffffffffffffffffffffffffffffffffff1662fdd58e85876040518363ffffffff1660e01b81526004016125ab929190614f87565b602060405180830381865afa1580156125c8573d6000803e3d6000fd5b505050506040513d601f19601f820116820180604052508101906125ec9190614fc5565b119150506126b7565b60006008600085815260200190815260200160002060009054906101000a900473ffffffffffffffffffffffffffffffffffffffff16905060008173ffffffffffffffffffffffffffffffffffffffff166370a08231856040518263ffffffff1660e01b815260040161266891906143d0565b602060405180830381865afa158015612685573d6000803e3d6000fd5b505050506040513d601f19601f820116820180604052508101906126a99190614fc5565b119150506126b7565b600190505b92915050565b600073ffffffffffffffffffffffffffffffffffffffff168473ffffffffffffffffffffffffffffffffffffffff160361272f5760006040517f57f447ce00000000000000000000000000000000000000000000000000000000815260040161272691906143d0565b60405180910390fd5b60008061273c85856131e1565b9150915061274e600087848487612e3b565b505050505050565b61275e6123d8565b60006127686123b0565b905060018160000160006101000a81548160ff0219169083151502179055507f62e78cea01bee320cd4e420270b5ea74000d11b0c9f74754ebdbfc544b05a2586127b0612158565b6040516127bd91906143d0565b60405180910390a150565b60007ff0c57e16840df040f15088dc2f81fe391c3923bec73e23a9662efc9c229c6a00905090565b6127f8613211565b565b612802613211565b61280b81613251565b50565b612816613211565b565b612820613211565b600061282a6123b0565b905060008160000160006101000a81548160ff02191690831515021790555050565b6000612856612130565b9050600061286384610b22565b905082826000016000868152602001908152602001600020600101819055508281857fbd79b86ffe0ab8e8776151514217cd7cacd52c909f66475c3af44e129f0b00ff60405160405180910390a450505050565b60007fc1f6fe24621ce81ec5827caf0253cadb74709b061630e6b55e82371705932000905090565b60006128ee8360000183613265565b60001c905092915050565b60606129036123d8565b601460066000858152602001908152602001600020805461292390614be7565b90501115612966576040517f08c379a000000000000000000000000000000000000000000000000000000000815260040161295d906155e8565b60405180910390fd5b8160066000858152602001908152602001600020908161298691906151f4565b506006600084815260200190815260200160002080546129a590614be7565b80601f01602080910402602001604051908101604052809291908181526020018280546129d190614be7565b8015612a1e5780601f106129f357610100808354040283529160200191612a1e565b820191906000526020600020905b815481529060010190602001808311612a0157829003601f168201915b5050505050905092915050565b6000612a3561208e565b9050600073ffffffffffffffffffffffffffffffffffffffff168373ffffffffffffffffffffffffffffffffffffffff1603612aa95760006040517fced3e100000000000000000000000000000000000000000000000000000000008152600401612aa091906143d0565b60405180910390fd5b818160010160008673ffffffffffffffffffffffffffffffffffffffff1673ffffffffffffffffffffffffffffffffffffffff16815260200190815260200160002060008573ffffffffffffffffffffffffffffffffffffffff1673ffffffffffffffffffffffffffffffffffffffff16815260200190815260200160002060006101000a81548160ff0219169083151502179055508273ffffffffffffffffffffffffffffffffffffffff168473ffffffffffffffffffffffffffffffffffffffff167f17307eab39ab6107e8899845ad3d59bd9653f200f220920489ca2b5937696c3184604051612b9c9190613f2e565b60405180910390a350505050565b600260005403612be6576040517f3ee5aeb500000000000000000000000000000000000000000000000000000000815260040160405180910390fd5b6002600081905550565b600073ffffffffffffffffffffffffffffffffffffffff168373ffffffffffffffffffffffffffffffffffffffff1603612c625760006040517f01a83514000000000000000000000000000000000000000000000000000000008152600401612c5991906143d0565b60405180910390fd5b600080612c6f84846131e1565b91509150612c90856000848460405180602001604052806000815250612e3b565b5050505050565b6001600081905550565b6000612caf82600001613290565b9050919050565b600073ffffffffffffffffffffffffffffffffffffffff168473ffffffffffffffffffffffffffffffffffffffff1603612d285760006040517f57f447ce000000000000000000000000000000000000000000000000000000008152600401612d1f91906143d0565b60405180910390fd5b600073ffffffffffffffffffffffffffffffffffffffff168573ffffffffffffffffffffffffffffffffffffffff1603612d9a5760006040517f01a83514000000000000000000000000000000000000000000000000000000008152600401612d9191906143d0565b60405180910390fd5b600080612da785856131e1565b91509150612db88787848487612e3b565b50505050505050565b60007f5a05180f000000000000000000000000000000000000000000000000000000007bffffffffffffffffffffffffffffffffffffffffffffffffffffffff1916827bffffffffffffffffffffffffffffffffffffffffffffffffffffffff19161480612e345750612e33826132a1565b5b9050919050565b612e478585858561331b565b600073ffffffffffffffffffffffffffffffffffffffff168473ffffffffffffffffffffffffffffffffffffffff1614612ee6576000612e85612158565b90506001845103612ed5576000612ea660008661239c90919063ffffffff16565b90506000612ebe60008661239c90919063ffffffff16565b9050612ece8389898585896136df565b5050612ee4565b612ee3818787878787613893565b5b505b5050505050565b612ef7828261156a565b612f3a5780826040517fe2517d3f000000000000000000000000000000000000000000000000000000008152600401612f31929190615608565b60405180910390fd5b5050565b600080612f49612130565b9050612f55848461156a565b61303357600181600001600086815260200190815260200160002060000160008573ffffffffffffffffffffffffffffffffffffffff1673ffffffffffffffffffffffffffffffffffffffff16815260200190815260200160002060006101000a81548160ff021916908315150217905550612fcf612158565b73ffffffffffffffffffffffffffffffffffffffff168373ffffffffffffffffffffffffffffffffffffffff16857f2f8788117e7eff1d82e926ec794901d17c78024a50270940304540a733656f0d60405160405180910390a46001915050613039565b60009150505b92915050565b6000613067836000018373ffffffffffffffffffffffffffffffffffffffff1660001b613a47565b905092915050565b60008061307a612130565b9050613086848461156a565b1561316557600081600001600086815260200190815260200160002060000160008573ffffffffffffffffffffffffffffffffffffffff1673ffffffffffffffffffffffffffffffffffffffff16815260200190815260200160002060006101000a81548160ff021916908315150217905550613101612158565b73ffffffffffffffffffffffffffffffffffffffff168373ffffffffffffffffffffffffffffffffffffffff16857ff6391f5c32d9c69d2a47ea670b442974b53935d1edc7fd64eb21e047a839171b60405160405180910390a4600191505061316b565b60009150505b92915050565b6000613199836000018373ffffffffffffffffffffffffffffffffffffffff1660001b613ab7565b905092915050565b6131a9610e95565b6131df576040517f8dfc202b00000000000000000000000000000000000000000000000000000000815260040160405180910390fd5b565b60608060405191506001825283602083015260408201905060018152826020820152604081016040529250929050565b613219613bcb565b61324f576040517fd7e6bcf800000000000000000000000000000000000000000000000000000000815260040160405180910390fd5b565b613259613211565b61326281613beb565b50565b600082600001828154811061327d5761327c614d9d565b5b9060005260206000200154905092915050565b600081600001805490509050919050565b60007f7965db0b000000000000000000000000000000000000000000000000000000007bffffffffffffffffffffffffffffffffffffffffffffffffffffffff1916827bffffffffffffffffffffffffffffffffffffffffffffffffffffffff19161480613314575061331382613c0d565b5b9050919050565b600061332561208e565b9050815183511461337157825182516040517f5b059991000000000000000000000000000000000000000000000000000000008152600401613368929190614d74565b60405180910390fd5b600061337b612158565b905060005b845181101561359957600061339e828761239c90919063ffffffff16565b905060006133b5838761239c90919063ffffffff16565b9050600073ffffffffffffffffffffffffffffffffffffffff168973ffffffffffffffffffffffffffffffffffffffff16146134e857600085600001600084815260200190815260200160002060008b73ffffffffffffffffffffffffffffffffffffffff1673ffffffffffffffffffffffffffffffffffffffff1681526020019081526020016000205490508181101561348d57898183856040517f03dee4c50000000000000000000000000000000000000000000000000000000081526004016134849493929190615631565b60405180910390fd5b81810386600001600085815260200190815260200160002060008c73ffffffffffffffffffffffffffffffffffffffff1673ffffffffffffffffffffffffffffffffffffffff16815260200190815260200160002081905550505b600073ffffffffffffffffffffffffffffffffffffffff168873ffffffffffffffffffffffffffffffffffffffff1614613586578085600001600084815260200190815260200160002060008a73ffffffffffffffffffffffffffffffffffffffff1673ffffffffffffffffffffffffffffffffffffffff168152602001908152602001600020600082825461357e9190615029565b925050819055505b50508061359290614dfb565b9050613380565b5060018451036136585760006135b960008661239c90919063ffffffff16565b905060006135d160008661239c90919063ffffffff16565b90508673ffffffffffffffffffffffffffffffffffffffff168873ffffffffffffffffffffffffffffffffffffffff168473ffffffffffffffffffffffffffffffffffffffff167fc3d58168c5ae7397731d063d5bbf3d657854427343f4c083240f7aacaa2d0f628585604051613649929190614d74565b60405180910390a450506136d7565b8473ffffffffffffffffffffffffffffffffffffffff168673ffffffffffffffffffffffffffffffffffffffff168273ffffffffffffffffffffffffffffffffffffffff167f4a39dc06d4c0dbc64b70af90fd698a233a518aa5d07e595d983b8c0526c8f7fb87876040516136ce929190615676565b60405180910390a45b505050505050565b60008473ffffffffffffffffffffffffffffffffffffffff163b111561388b578373ffffffffffffffffffffffffffffffffffffffff1663f23a6e6187878686866040518663ffffffff1660e01b8152600401613740959493929190615702565b6020604051808303816000875af192505050801561377c57506040513d601f19601f820116820180604052508101906137799190615771565b60015b613800573d80600081146137ac576040519150601f19603f3d011682016040523d82523d6000602084013e6137b1565b606091505b5060008151036137f857846040517f57f447ce0000000000000000000000000000000000000000000000000000000081526004016137ef91906143d0565b60405180910390fd5b805181602001fd5b63f23a6e6160e01b7bffffffffffffffffffffffffffffffffffffffffffffffffffffffff1916817bffffffffffffffffffffffffffffffffffffffffffffffffffffffff19161461388957846040517f57f447ce00000000000000000000000000000000000000000000000000000000815260040161388091906143d0565b60405180910390fd5b505b505050505050565b60008473ffffffffffffffffffffffffffffffffffffffff163b1115613a3f578373ffffffffffffffffffffffffffffffffffffffff1663bc197c8187878686866040518663ffffffff1660e01b81526004016138f495949392919061579e565b6020604051808303816000875af192505050801561393057506040513d601f19601f8201168201806040525081019061392d9190615771565b60015b6139b4573d8060008114613960576040519150601f19603f3d011682016040523d82523d6000602084013e613965565b606091505b5060008151036139ac57846040517f57f447ce0000000000000000000000000000000000000000000000000000000081526004016139a391906143d0565b60405180910390fd5b805181602001fd5b63bc197c8160e01b7bffffffffffffffffffffffffffffffffffffffffffffffffffffffff1916817bffffffffffffffffffffffffffffffffffffffffffffffffffffffff191614613a3d57846040517f57f447ce000000000000000000000000000000000000000000000000000000008152600401613a3491906143d0565b60405180910390fd5b505b505050505050565b6000613a538383613cef565b613aac578260000182908060018154018082558091505060019003906000526020600020016000909190919091505582600001805490508360010160008481526020019081526020016000208190555060019050613ab1565b600090505b92915050565b60008083600101600084815260200190815260200160002054905060008114613bbf576000600182613ae991906154c3565b9050600060018660000180549050613b0191906154c3565b9050808214613b70576000866000018281548110613b2257613b21614d9d565b5b9060005260206000200154905080876000018481548110613b4657613b45614d9d565b5b90600052602060002001819055508387600101600083815260200190815260200160002081905550505b85600001805480613b8457613b83615806565b5b600190038181906000526020600020016000905590558560010160008681526020019081526020016000206000905560019350505050613bc5565b60009150505b92915050565b6000613bd56127c8565b60000160089054906101000a900460ff16905090565b6000613bf561208e565b905081816002019081613c0891906151f4565b505050565b60007fd9b67a26000000000000000000000000000000000000000000000000000000007bffffffffffffffffffffffffffffffffffffffffffffffffffffffff1916827bffffffffffffffffffffffffffffffffffffffffffffffffffffffff19161480613cd857507f0e89341c000000000000000000000000000000000000000000000000000000007bffffffffffffffffffffffffffffffffffffffffffffffffffffffff1916827bffffffffffffffffffffffffffffffffffffffffffffffffffffffff1916145b80613ce85750613ce782613d12565b5b9050919050565b600080836001016000848152602001908152602001600020541415905092915050565b60007f01ffc9a7000000000000000000000000000000000000000000000000000000007bffffffffffffffffffffffffffffffffffffffffffffffffffffffff1916827bffffffffffffffffffffffffffffffffffffffffffffffffffffffff1916149050919050565b6000604051905090565b600080fd5b600080fd5b600073ffffffffffffffffffffffffffffffffffffffff82169050919050565b6000613dbb82613d90565b9050919050565b613dcb81613db0565b8114613dd657600080fd5b50565b600081359050613de881613dc2565b92915050565b6000819050919050565b613e0181613dee565b8114613e0c57600080fd5b50565b600081359050613e1e81613df8565b92915050565b60008060408385031215613e3b57613e3a613d86565b5b6000613e4985828601613dd9565b9250506020613e5a85828601613e0f565b9150509250929050565b613e6d81613dee565b82525050565b6000602082019050613e886000830184613e64565b92915050565b60007fffffffff0000000000000000000000000000000000000000000000000000000082169050919050565b613ec381613e8e565b8114613ece57600080fd5b50565b600081359050613ee081613eba565b92915050565b600060208284031215613efc57613efb613d86565b5b6000613f0a84828501613ed1565b91505092915050565b60008115159050919050565b613f2881613f13565b82525050565b6000602082019050613f436000830184613f1f565b92915050565b600081519050919050565b600082825260208201905092915050565b60005b83811015613f83578082015181840152602081019050613f68565b60008484015250505050565b6000601f19601f8301169050919050565b6000613fab82613f49565b613fb58185613f54565b9350613fc5818560208601613f65565b613fce81613f8f565b840191505092915050565b60006020820190508181036000830152613ff38184613fa0565b905092915050565b60006020828403121561401157614010613d86565b5b600061401f84828501613e0f565b91505092915050565b6000819050919050565b61403b81614028565b811461404657600080fd5b50565b60008135905061405881614032565b92915050565b60006020828403121561407457614073613d86565b5b600061408284828501614049565b91505092915050565b61409481614028565b82525050565b60006020820190506140af600083018461408b565b92915050565b600080fd5b7f4e487b7100000000000000000000000000000000000000000000000000000000600052604160045260246000fd5b6140f282613f8f565b810181811067ffffffffffffffff82111715614111576141106140ba565b5b80604052505050565b6000614124613d7c565b905061413082826140e9565b919050565b600067ffffffffffffffff8211156141505761414f6140ba565b5b602082029050602081019050919050565b600080fd5b600061417961417484614135565b61411a565b9050808382526020820190506020840283018581111561419c5761419b614161565b5b835b818110156141c557806141b18882613e0f565b84526020840193505060208101905061419e565b5050509392505050565b600082601f8301126141e4576141e36140b5565b5b81356141f4848260208601614166565b91505092915050565b600080fd5b600067ffffffffffffffff82111561421d5761421c6140ba565b5b61422682613f8f565b9050602081019050919050565b82818337600083830152505050565b600061425561425084614202565b61411a565b905082815260208101848484011115614271576142706141fd565b5b61427c848285614233565b509392505050565b600082601f830112614299576142986140b5565b5b81356142a9848260208601614242565b91505092915050565b600080600080600060a086880312156142ce576142cd613d86565b5b60006142dc88828901613dd9565b95505060206142ed88828901613dd9565b945050604086013567ffffffffffffffff81111561430e5761430d613d8b565b5b61431a888289016141cf565b935050606086013567ffffffffffffffff81111561433b5761433a613d8b565b5b614347888289016141cf565b925050608086013567ffffffffffffffff81111561436857614367613d8b565b5b61437488828901614284565b9150509295509295909350565b6000806040838503121561439857614397613d86565b5b60006143a685828601614049565b92505060206143b785828601613dd9565b9150509250929050565b6143ca81613db0565b82525050565b60006020820190506143e560008301846143c1565b92915050565b600067ffffffffffffffff821115614406576144056140ba565b5b602082029050602081019050919050565b600061442a614425846143eb565b61411a565b9050808382526020820190506020840283018581111561444d5761444c614161565b5b835b8181101561447657806144628882613dd9565b84526020840193505060208101905061444f565b5050509392505050565b600082601f830112614495576144946140b5565b5b81356144a5848260208601614417565b91505092915050565b600080604083850312156144c5576144c4613d86565b5b600083013567ffffffffffffffff8111156144e3576144e2613d8b565b5b6144ef85828601614480565b925050602083013567ffffffffffffffff8111156145105761450f613d8b565b5b61451c858286016141cf565b9150509250929050565b600081519050919050565b600082825260208201905092915050565b6000819050602082019050919050565b61455b81613dee565b82525050565b600061456d8383614552565b60208301905092915050565b6000602082019050919050565b600061459182614526565b61459b8185614531565b93506145a683614542565b8060005b838110156145d75781516145be8882614561565b97506145c983614579565b9250506001810190506145aa565b5085935050505092915050565b600060208201905081810360008301526145fe8184614586565b905092915050565b600060ff82169050919050565b61461c81614606565b82525050565b60006020820190506146376000830184614613565b92915050565b6000806000806080858703121561465757614656613d86565b5b600061466587828801613e0f565b945050602061467687828801613dd9565b935050604061468787828801613e0f565b925050606061469887828801613dd9565b91505092959194509250565b600067ffffffffffffffff8211156146bf576146be6140ba565b5b6146c882613f8f565b9050602081019050919050565b60006146e86146e3846146a4565b61411a565b905082815260208101848484011115614704576147036141fd565b5b61470f848285614233565b509392505050565b600082601f83011261472c5761472b6140b5565b5b813561473c8482602086016146d5565b91505092915050565b61474e81614606565b811461475957600080fd5b50565b60008135905061476b81614745565b92915050565b60008060008060008060c0878903121561478e5761478d613d86565b5b600087013567ffffffffffffffff8111156147ac576147ab613d8b565b5b6147b889828a01614717565b96505060206147c989828a01613dd9565b95505060406147da89828a0161475c565b94505060606147eb89828a0161475c565b93505060806147fc89828a01613dd9565b92505060a061480d89828a01613e0f565b9150509295509295509295565b6000806040838503121561483157614830613d86565b5b600061483f85828601614049565b925050602061485085828601613e0f565b9150509250929050565b600080fd5b60008083601f840112614875576148746140b5565b5b8235905067ffffffffffffffff8111156148925761489161485a565b5b6020830191508360018202830111156148ae576148ad614161565b5b9250929050565b6148be81613f13565b81146148c957600080fd5b50565b6000813590506148db816148b5565b92915050565b60008060008060008060008060006101008a8c03121561490457614903613d86565b5b60008a013567ffffffffffffffff81111561492257614921613d8b565b5b61492e8c828d0161485f565b995099505060206149418c828d01613dd9565b97505060406149528c828d01613dd9565b96505060606149638c828d01613dd9565b95505060806149748c828d01613e0f565b94505060a06149858c828d01613e0f565b93505060c06149968c828d016148cc565b92505060e06149a78c828d016148cc565b9150509295985092959850929598565b600080604083850312156149ce576149cd613d86565b5b60006149dc85828601613dd9565b92505060206149ed858286016148cc565b9150509250929050565b60008060408385031215614a0e57614a0d613d86565b5b6000614a1c85828601613e0f565b9250506020614a2d85828601613e0f565b9150509250929050565b600080600060608486031215614a5057614a4f613d86565b5b6000614a5e86828701613dd9565b9350506020614a6f86828701613e0f565b9250506040614a8086828701613e0f565b9150509250925092565b614a9381613e8e565b82525050565b6000602082019050614aae6000830184614a8a565b92915050565b600060208284031215614aca57614ac9613d86565b5b6000614ad884828501613dd9565b91505092915050565b60008060408385031215614af857614af7613d86565b5b6000614b0685828601613dd9565b9250506020614b1785828601613dd9565b9150509250929050565b600080600080600060a08688031215614b3d57614b3c613d86565b5b6000614b4b88828901613dd9565b9550506020614b5c88828901613dd9565b9450506040614b6d88828901613e0f565b9350506060614b7e88828901613e0f565b925050608086013567ffffffffffffffff811115614b9f57614b9e613d8b565b5b614bab88828901614284565b9150509295509295909350565b7f4e487b7100000000000000000000000000000000000000000000000000000000600052602260045260246000fd5b60006002820490506001821680614bff57607f821691505b602082108103614c1257614c11614bb8565b5b50919050565b600081905092915050565b60008190508160005260206000209050919050565b60008154614c4581614be7565b614c4f8186614c18565b94506001821660008114614c6a5760018114614c7f57614cb2565b60ff1983168652811515820286019350614cb2565b614c8885614c23565b60005b83811015614caa57815481890152600182019150602081019050614c8b565b838801955050505b50505092915050565b6000614cc78285614c38565b9150614cd38284614c38565b91508190509392505050565b6000604082019050614cf460008301856143c1565b614d0160208301846143c1565b9392505050565b7f6f6e6c79206d6f64657261746f727320616c6c6f776564000000000000000000600082015250565b6000614d3e601783613f54565b9150614d4982614d08565b602082019050919050565b60006020820190508181036000830152614d6d81614d31565b9050919050565b6000604082019050614d896000830185613e64565b614d966020830184613e64565b9392505050565b7f4e487b7100000000000000000000000000000000000000000000000000000000600052603260045260246000fd5b7f4e487b7100000000000000000000000000000000000000000000000000000000600052601160045260246000fd5b6000614e0682613dee565b91507fffffffffffffffffffffffffffffffffffffffffffffffffffffffffffffffff8203614e3857614e37614dcc565b5b600182019050919050565b7f6e6f2072656164207065726d697373696f6e0000000000000000000000000000600082015250565b6000614e79601283613f54565b9150614e8482614e43565b602082019050919050565b60006020820190508181036000830152614ea881614e6c565b9050919050565b7f546f6b656e20646f6573206e6f74206578697374730000000000000000000000600082015250565b6000614ee5601583613f54565b9150614ef082614eaf565b602082019050919050565b60006020820190508181036000830152614f1481614ed8565b9050919050565b7f4e6f206d696e74207065726d697373696f6e0000000000000000000000000000600082015250565b6000614f51601283613f54565b9150614f5c82614f1b565b602082019050919050565b60006020820190508181036000830152614f8081614f44565b9050919050565b6000604082019050614f9c60008301856143c1565b614fa96020830184613e64565b9392505050565b600081519050614fbf81613df8565b92915050565b600060208284031215614fdb57614fda613d86565b5b6000614fe984828501614fb0565b91505092915050565b60006060820190506150076000830186613e64565b6150146020830185613e64565b61502160408301846143c1565b949350505050565b600061503482613dee565b915061503f83613dee565b925082820190508082111561505757615056614dcc565b5b92915050565b60006020601f8301049050919050565b600082821b905092915050565b6000600883026150aa7fffffffffffffffffffffffffffffffffffffffffffffffffffffffffffffffff8261506d565b6150b4868361506d565b95508019841693508086168417925050509392505050565b6000819050919050565b60006150f16150ec6150e784613dee565b6150cc565b613dee565b9050919050565b6000819050919050565b61510b836150d6565b61511f615117826150f8565b84845461507a565b825550505050565b600090565b615134615127565b61513f818484615102565b505050565b5b818110156151635761515860008261512c565b600181019050615145565b5050565b601f8211156151a85761517981614c23565b6151828461505d565b81016020851015615191578190505b6151a561519d8561505d565b830182615144565b50505b505050565b600082821c905092915050565b60006151cb600019846008026151ad565b1980831691505092915050565b60006151e483836151ba565b9150826002028217905092915050565b6151fd82613f49565b67ffffffffffffffff811115615216576152156140ba565b5b6152208254614be7565b61522b828285615167565b600060209050601f83116001811461525e576000841561524c578287015190505b61525685826151d8565b8655506152be565b601f19841661526c86614c23565b60005b828110156152945784890151825560018201915060208501945060208101905061526f565b868310156152b157848901516152ad601f8916826151ba565b8355505b6001600288020188555050505b505050505050565b6000819050919050565b600067ffffffffffffffff82169050919050565b60006152ff6152fa6152f5846152c6565b6150cc565b6152d0565b9050919050565b61530f816152e4565b82525050565b600060208201905061532a6000830184615306565b92915050565b7f6e6f207772697465207065726d697373696f6e00000000000000000000000000600082015250565b6000615366601383613f54565b915061537182615330565b602082019050919050565b6000602082019050818103600083015261539581615359565b9050919050565b600060a0820190506153b16000830188613e64565b6153be60208301876143c1565b6153cb6040830186613f1f565b6153d86060830185613e64565b6153e56080830184613e64565b9695505050505050565b600061540a615405615400846152c6565b6150cc565b613dee565b9050919050565b61541a816153ef565b82525050565b60006060820190506154356000830186613e64565b6154426020830185615411565b61544f60408301846143c1565b949350505050565b7f496e736966696369656e742062616c616e636500000000000000000000000000600082015250565b600061548d601383613f54565b915061549882615457565b602082019050919050565b600060208201905081810360008301526154bc81615480565b9050919050565b60006154ce82613dee565b91506154d983613dee565b92508282039050818111156154f1576154f0614dcc565b5b92915050565b6000819050919050565b60008160e01b9050919050565b600061552961552461551f846154f7565b615501565b613e8e565b9050919050565b6155398161550e565b82525050565b60006020820190506155546000830184615530565b92915050565b600081519050615569816148b5565b92915050565b60006020828403121561558557615584613d86565b5b60006155938482850161555a565b91505092915050565b7f55524920616c7265616479207365740000000000000000000000000000000000600082015250565b60006155d2600f83613f54565b91506155dd8261559c565b602082019050919050565b60006020820190508181036000830152615601816155c5565b9050919050565b600060408201905061561d60008301856143c1565b61562a602083018461408b565b9392505050565b600060808201905061564660008301876143c1565b6156536020830186613e64565b6156606040830185613e64565b61566d6060830184613e64565b95945050505050565b600060408201905081810360008301526156908185614586565b905081810360208301526156a48184614586565b90509392505050565b600081519050919050565b600082825260208201905092915050565b60006156d4826156ad565b6156de81856156b8565b93506156ee818560208601613f65565b6156f781613f8f565b840191505092915050565b600060a08201905061571760008301886143c1565b61572460208301876143c1565b6157316040830186613e64565b61573e6060830185613e64565b818103608083015261575081846156c9565b90509695505050505050565b60008151905061576b81613eba565b92915050565b60006020828403121561578757615786613d86565b5b60006157958482850161575c565b91505092915050565b600060a0820190506157b360008301886143c1565b6157c060208301876143c1565b81810360408301526157d28186614586565b905081810360608301526157e68185614586565b905081810360808301526157fa81846156c9565b90509695505050505050565b7f4e487b7100000000000000000000000000000000000000000000000000000000600052603160045260246000fdfea264697066735822122042a26247e2afdc912ed1b938b31b0e55fec76cd1b5f563452962d5b8dd94bf6464736f6c63430008140033",
  "linkReferences": {},
  "deployedLinkReferences": {}
}