{
	"data": {
		"bytecode": {
			"linkReferences": {},
			"object": "60806040526040518060400160405280601481526020017f68747470733a2f2f617277656176652e6e65742f000000000000000000000000815250600590816200004a9190620002e1565b503480156200005857600080fd5b506001600081905550620003c8565b600081519050919050565b7f4e487b7100000000000000000000000000000000000000000000000000000000600052604160045260246000fd5b7f4e487b7100000000000000000000000000000000000000000000000000000000600052602260045260246000fd5b60006002820490506001821680620000e957607f821691505b602082108103620000ff57620000fe620000a1565b5b50919050565b60008190508160005260206000209050919050565b60006020601f8301049050919050565b600082821b905092915050565b600060088302620001697fffffffffffffffffffffffffffffffffffffffffffffffffffffffffffffffff826200012a565b6200017586836200012a565b95508019841693508086168417925050509392505050565b6000819050919050565b6000819050919050565b6000620001c2620001bc620001b6846200018d565b62000197565b6200018d565b9050919050565b6000819050919050565b620001de83620001a1565b620001f6620001ed82620001c9565b84845462000137565b825550505050565b600090565b6200020d620001fe565b6200021a818484620001d3565b505050565b5b8181101562000242576200023660008262000203565b60018101905062000220565b5050565b601f82111562000291576200025b8162000105565b62000266846200011a565b8101602085101562000276578190505b6200028e62000285856200011a565b8301826200021f565b50505b505050565b600082821c905092915050565b6000620002b66000198460080262000296565b1980831691505092915050565b6000620002d18383620002a3565b9150826002028217905092915050565b620002ec8262000067565b67ffffffffffffffff81111562000308576200030762000072565b5b620003148254620000d0565b6200032182828562000246565b600060209050601f83116001811462000359576000841562000344578287015190505b620003508582620002c3565b865550620003c0565b601f198416620003698662000105565b60005b8281101562000393578489015182556001820191506020850194506020810190506200036c565b86831015620003b35784890151620003af601f891682620002a3565b8355505b6001600288020188555050505b505050505050565b61586b80620003d86000396000f3fe60806040526004361061023a5760003560e01c806391d148541161012e578063c47cb4b2116100ab578063f23a6e611161006f578063f23a6e61146108d0578063f242432a1461090d578063fa6f393614610936578063fcce488314610973578063ffa1ad74146109b05761023a565b8063c47cb4b2146107b3578063ca15c873146107f0578063d547741f1461082d578063e90b3d3d14610856578063e985e9c5146108935761023a565b8063b31985c2116100f2578063b31985c2146106d6578063b390c0ab14610713578063b5c5f6721461072f578063b9d1d49b1461074b578063bc197c81146107765761023a565b806391d14854146105fe57806393e275071461063b5780639bc6235214610657578063a217fddf14610682578063a22cb465146106ad5761023a565b80633f4ba83a116101bc5780636b1a3de3116101805780636b1a3de31461053a5780637c3ab9f2146105655780638456cb591461058157806387d0dc40146105985780639010d07c146105c15761023a565b80633f4ba83a146104535780634e1273f41461046a578063510b5158146104a75780635c975abb146104e45780635fee596c1461050f5761023a565b80632693ebf2116102035780632693ebf21461035e5780632eb2c2d61461039b5780632f2ff15d146103c4578063350293a1146103ed57806336568abe1461042a5761023a565b8062fdd58e1461023f57806301ffc9a71461027c57806306fdde03146102b95780630e89341c146102e4578063248a9ca314610321575b600080fd5b34801561024b57600080fd5b5061026660048036038101906102619190613e24565b6109db565b6040516102739190613e73565b60405180910390f35b34801561028857600080fd5b506102a3600480360381019061029e9190613ee6565b610a44565b6040516102b09190613f2e565b60405180910390f35b3480156102c557600080fd5b506102ce610a56565b6040516102db9190613fd9565b60405180910390f35b3480156102f057600080fd5b5061030b60048036038101906103069190613ffb565b610ae4565b6040516103189190613fd9565b60405180910390f35b34801561032d57600080fd5b506103486004803603810190610343919061405e565b610b22565b604051610355919061409a565b60405180910390f35b34801561036a57600080fd5b5061038560048036038101906103809190613ffb565b610b50565b6040516103929190613e73565b60405180910390f35b3480156103a757600080fd5b506103c260048036038101906103bd91906142b2565b610b68565b005b3480156103d057600080fd5b506103eb60048036038101906103e69190614381565b610c10565b005b3480156103f957600080fd5b50610414600480360381019061040f9190613ffb565b610c32565b60405161042191906143d0565b60405180910390f35b34801561043657600080fd5b50610451600480360381019061044c9190614381565b610c65565b005b34801561045f57600080fd5b50610468610ce0565b005b34801561047657600080fd5b50610491600480360381019061048c91906144ae565b610d53565b60405161049e91906145e4565b60405180910390f35b3480156104b357600080fd5b506104ce60048036038101906104c99190613ffb565b610e62565b6040516104db91906143d0565b60405180910390f35b3480156104f057600080fd5b506104f9610e95565b6040516105069190613f2e565b60405180910390f35b34801561051b57600080fd5b50610524610eba565b60405161053191906143d0565b60405180910390f35b34801561054657600080fd5b5061054f610ee0565b60405161055c9190614622565b60405180910390f35b61057f600480360381019061057a919061463d565b610ef3565b005b34801561058d57600080fd5b50610596611199565b005b3480156105a457600080fd5b506105bf60048036038101906105ba9190614771565b61120c565b005b3480156105cd57600080fd5b506105e860048036038101906105e3919061481a565b61152d565b6040516105f591906143d0565b60405180910390f35b34801561060a57600080fd5b5061062560048036038101906106209190614381565b61156a565b6040516106329190613f2e565b60405180910390f35b610655600480360381019061065091906148e1565b6115e3565b005b34801561066357600080fd5b5061066c6118a9565b6040516106799190614622565b60405180910390f35b34801561068e57600080fd5b506106976118bc565b6040516106a4919061409a565b60405180910390f35b3480156106b957600080fd5b506106d460048036038101906106cf91906149b7565b6118c3565b005b3480156106e257600080fd5b506106fd60048036038101906106f89190613ffb565b6118d9565b60405161070a91906143d0565b60405180910390f35b61072d600480360381019061072891906149f7565b61190c565b005b61074960048036038101906107449190614a37565b611a82565b005b34801561075757600080fd5b50610760611b6b565b60405161076d9190613e73565b60405180910390f35b34801561078257600080fd5b5061079d600480360381019061079891906142b2565b611b71565b6040516107aa9190614a99565b60405180910390f35b3480156107bf57600080fd5b506107da60048036038101906107d59190614ab4565b611bbb565b6040516107e79190613f2e565b60405180910390f35b3480156107fc57600080fd5b506108176004803603810190610812919061405e565b611cdf565b6040516108249190613e73565b60405180910390f35b34801561083957600080fd5b50610854600480360381019061084f9190614381565b611d11565b005b34801561086257600080fd5b5061087d60048036038101906108789190614ab4565b611d33565b60405161088a9190613f2e565b60405180910390f35b34801561089f57600080fd5b506108ba60048036038101906108b59190614ae1565b611ea2565b6040516108c79190613f2e565b60405180910390f35b3480156108dc57600080fd5b506108f760048036038101906108f29190614b21565b611f44565b6040516109049190614a99565b60405180910390f35b34801561091957600080fd5b50610934600480360381019061092f9190614b21565b611f8e565b005b34801561094257600080fd5b5061095d60048036038101906109589190614ab4565b612036565b60405161096a9190613f2e565b60405180910390f35b34801561097f57600080fd5b5061099a60048036038101906109959190613ffb565b612069565b6040516109a79190613f2e565b60405180910390f35b3480156109bc57600080fd5b506109c5612089565b6040516109d29190613e73565b60405180910390f35b6000806109e661208e565b905080600001600084815260200190815260200160002060008573ffffffffffffffffffffffffffffffffffffffff1673ffffffffffffffffffffffffffffffffffffffff1681526020019081526020016000205491505092915050565b6000610a4f826120b6565b9050919050565b60018054610a6390614be7565b80601f0160208091040260200160405190810160405280929190818152602001828054610a8f90614be7565b8015610adc5780601f10610ab157610100808354040283529160200191610adc565b820191906000526020600020905b815481529060010190602001808311610abf57829003601f168201915b505050505081565b6060600560066000848152602001908152602001600020604051602001610b0c929190614cbb565b6040516020818303038152906040529050919050565b600080610b2d612130565b905080600001600084815260200190815260200160002060010154915050919050565b60076020528060005260406000206000915090505481565b6000610b72612158565b90508073ffffffffffffffffffffffffffffffffffffffff168673ffffffffffffffffffffffffffffffffffffffff1614158015610bb75750610bb58682611ea2565b155b15610bfb5780866040517fe237d922000000000000000000000000000000000000000000000000000000008152600401610bf2929190614cdf565b60405180910390fd5b610c088686868686612160565b505050505050565b610c1982610b22565b610c2281612258565b610c2c838361226c565b50505050565b60096020528060005260406000206000915054906101000a900473ffffffffffffffffffffffffffffffffffffffff1681565b610c6d612158565b73ffffffffffffffffffffffffffffffffffffffff168173ffffffffffffffffffffffffffffffffffffffff1614610cd1576040517f6697b23200000000000000000000000000000000000000000000000000000000815260040160405180910390fd5b610cdb82826122c1565b505050565b610d0a7f44a854cabd360644e908fcd642b33fedfb60c399d7b1e7e2051275f0b09b0be53361156a565b610d49576040517f08c379a0000000000000000000000000000000000000000000000000000000008152600401610d4090614d54565b60405180910390fd5b610d51612316565b565b60608151835114610d9f57815183516040517f5b059991000000000000000000000000000000000000000000000000000000008152600401610d96929190614d74565b60405180910390fd5b6000835167ffffffffffffffff811115610dbc57610dbb6140ba565b5b604051908082528060200260200182016040528015610dea5781602001602082028036833780820191505090505b50905060005b8451811015610e5757610e27610e0f828761238890919063ffffffff16565b610e22838761239c90919063ffffffff16565b6109db565b828281518110610e3a57610e39614d9d565b5b60200260200101818152505080610e5090614dfb565b9050610df0565b508091505092915050565b600a6020528060005260406000206000915054906101000a900473ffffffffffffffffffffffffffffffffffffffff1681565b600080610ea06123b0565b90508060000160009054906101000a900460ff1691505090565b600360029054906101000a900473ffffffffffffffffffffffffffffffffffffffff1681565b600360009054906101000a900460ff1681565b610efb6123d8565b610f0433611bbb565b610f43576040517f08c379a0000000000000000000000000000000000000000000000000000000008152600401610f3a90614e8f565b60405180910390fd5b600254841115610f88576040517f08c379a0000000000000000000000000000000000000000000000000000000008152600401610f7f90614efb565b60405180910390fd5b60011515610f968533612419565b151514610fd8576040517f08c379a0000000000000000000000000000000000000000000000000000000008152600401610fcf90614f67565b60405180910390fd5b600b600085815260200190815260200160002060009054906101000a900460ff16156111425760006009600086815260200190815260200160002060009054906101000a900473ffffffffffffffffffffffffffffffffffffffff1690508073ffffffffffffffffffffffffffffffffffffffff166367e2cafd30876040518363ffffffff1660e01b8152600401611071929190614f87565b602060405180830381865afa15801561108e573d6000803e3d6000fd5b505050506040513d601f19601f820116820180604052508101906110b29190614fc5565b6007600087815260200190815260200160002054106110d057600080fd5b8073ffffffffffffffffffffffffffffffffffffffff1663e8e2d37c348786866040518563ffffffff1660e01b815260040161110e93929190614ff2565b6000604051808303818588803b15801561112757600080fd5b505af115801561113b573d6000803e3d6000fd5b5050505050505b61115d838584604051806020016040528060008152506126bd565b81600760008681526020019081526020016000205461117c9190615029565b600760008681526020019081526020016000208190555050505050565b6111c37f44a854cabd360644e908fcd642b33fedfb60c399d7b1e7e2051275f0b09b0be53361156a565b611202576040517f08c379a00000000000000000000000000000000000000000000000000000000081526004016111f990614d54565b60405180910390fd5b61120a612756565b565b60006112166127c8565b905060008160000160089054906101000a900460ff1615905060008260000160009054906101000a900467ffffffffffffffff1690506000808267ffffffffffffffff161480156112645750825b9050600060018367ffffffffffffffff16148015611299575060003073ffffffffffffffffffffffffffffffffffffffff163b145b9050811580156112a7575080155b156112de576040517ff92ee8a900000000000000000000000000000000000000000000000000000000815260040160405180910390fd5b60018560000160006101000a81548167ffffffffffffffff021916908367ffffffffffffffff160217905550831561132e5760018560000160086101000a81548160ff0219169083151502179055505b8a6001908161133d91906151f4565b506113466127f0565b61135e604051806020016040528060008152506127fa565b61136661280e565b61136e612818565b88600360006101000a81548160ff021916908360ff16021790555087600360016101000a81548160ff021916908360ff16021790555086600360026101000a81548173ffffffffffffffffffffffffffffffffffffffff021916908373ffffffffffffffffffffffffffffffffffffffff160217905550856004819055506113f96000801b8b61226c565b506114247f44a854cabd360644e908fcd642b33fedfb60c399d7b1e7e2051275f0b09b0be58b61226c565b5061144f7f3238a3641700084b9e028fe65d2b3bf551f4498c926ce0b8e97aa2eaec0e4bf98b61226c565b5061147a7f44a854cabd360644e908fcd642b33fedfb60c399d7b1e7e2051275f0b09b0be58061284c565b6114c47f3238a3641700084b9e028fe65d2b3bf551f4498c926ce0b8e97aa2eaec0e4bf97f44a854cabd360644e908fcd642b33fedfb60c399d7b1e7e2051275f0b09b0be561284c565b83156115205760008560000160086101000a81548160ff0219169083151502179055507fc7f505b2f371ae2175ee4913f4499e1f2633a7b5936321eed1cdaeb6115181d260016040516115179190615315565b60405180910390a15b5050505050505050505050565b6000806115386128b7565b9050611561838260000160008781526020019081526020016000206128df90919063ffffffff16565b91505092915050565b600080611575612130565b905080600001600085815260200190815260200160002060000160008473ffffffffffffffffffffffffffffffffffffffff1673ffffffffffffffffffffffffffffffffffffffff16815260200190815260200160002060009054906101000a900460ff1691505092915050565b6115eb6123d8565b6115f433611d33565b611633576040517f08c379a000000000000000000000000000000000000000000000000000000000815260040161162a9061537c565b60405180910390fd5b6002600081548092919061164690614dfb565b919050555060006002549050866008600083815260200190815260200160002060006101000a81548173ffffffffffffffffffffffffffffffffffffffff021916908373ffffffffffffffffffffffffffffffffffffffff16021790555082156118195782600b600083815260200190815260200160002060006101000a81548160ff021916908315150217905550856009600083815260200190815260200160002060006101000a81548173ffffffffffffffffffffffffffffffffffffffff021916908373ffffffffffffffffffffffffffffffffffffffff16021790555060008690508073ffffffffffffffffffffffffffffffffffffffff16630bc917c08333868a8a6040518663ffffffff1660e01b815260040161176d95949392919061539c565b600060405180830381600087803b15801561178757600080fd5b505af115801561179b573d6000803e3d6000fd5b505050508215611817578073ffffffffffffffffffffffffffffffffffffffff1663e8e2d37c34846001336040518563ffffffff1660e01b81526004016117e493929190615420565b6000604051808303818588803b1580156117fd57600080fd5b505af1158015611811573d6000803e3d6000fd5b50505050505b505b6001600760008381526020019081526020016000208190555061184e88826001604051806020016040528060008152506126bd565b61189c818b8b8080601f016020809104026020016040519081016040528093929190818152602001838380828437600081840152601f19601f820116905080830192505050505050506128f9565b5050505050505050505050565b600360019054906101000a900460ff1681565b6000801b81565b6118d56118ce612158565b8383612a2b565b5050565b60086020528060005260406000206000915054906101000a900473ffffffffffffffffffffffffffffffffffffffff1681565b6119146123d8565b61191c612baa565b8061192733846109db565b1015611968576040517f08c379a000000000000000000000000000000000000000000000000000000000815260040161195f906154a3565b60405180910390fd5b600b600083815260200190815260200160002060009054906101000a900460ff1615611a355760006009600084815260200190815260200160002060009054906101000a900473ffffffffffffffffffffffffffffffffffffffff1690508073ffffffffffffffffffffffffffffffffffffffff1663eb111ce384846040518363ffffffff1660e01b8152600401611a01929190614d74565b600060405180830381600087803b158015611a1b57600080fd5b505af1158015611a2f573d6000803e3d6000fd5b50505050505b611a40338383612bf0565b806007600084815260200190815260200160002054611a5f91906154c3565b6007600084815260200190815260200160002081905550611a7e612c97565b5050565b611a8a6123d8565b611ab47f44a854cabd360644e908fcd642b33fedfb60c399d7b1e7e2051275f0b09b0be53361156a565b611af3576040517f08c379a0000000000000000000000000000000000000000000000000000000008152600401611aea90614d54565b60405180910390fd5b60008390508073ffffffffffffffffffffffffffffffffffffffff1663b390c0ab84846040518363ffffffff1660e01b8152600401611b33929190614d74565b600060405180830381600087803b158015611b4d57600080fd5b505af1158015611b61573d6000803e3d6000fd5b5050505050505050565b60045481565b6000611b9d7f44a854cabd360644e908fcd642b33fedfb60c399d7b1e7e2051275f0b09b0be58761156a565b15611bb15763bc197c8160e01b9050611bb2565b5b95945050505050565b600080600360009054906101000a900460ff1660ff1603611bdf5760019050611cda565b6001600360009054906101000a900460ff1660ff1603611cd957611c237f3238a3641700084b9e028fe65d2b3bf551f4498c926ce0b8e97aa2eaec0e4bf98361156a565b15611c315760019050611cda565b600454600360029054906101000a900473ffffffffffffffffffffffffffffffffffffffff1673ffffffffffffffffffffffffffffffffffffffff166370a08231846040518263ffffffff1660e01b8152600401611c8f91906143d0565b602060405180830381865afa158015611cac573d6000803e3d6000fd5b505050506040513d601f19601f82011682018060405250810190611cd09190614fc5565b10159050611cda565b5b919050565b600080611cea6128b7565b9050611d09816000016000858152602001908152602001600020612ca1565b915050919050565b611d1a82610b22565b611d2381612258565b611d2d83836122c1565b50505050565b600080600360019054906101000a900460ff1660ff1603611d575760019050611e9d565b6001600360019054906101000a900460ff1660ff1603611da257611d9b7f44a854cabd360644e908fcd642b33fedfb60c399d7b1e7e2051275f0b09b0be58361156a565b9050611e9d565b6002600360019054906101000a900460ff1660ff1603611e9c57611de67f3238a3641700084b9e028fe65d2b3bf551f4498c926ce0b8e97aa2eaec0e4bf98361156a565b15611df45760019050611e9d565b600454600360029054906101000a900473ffffffffffffffffffffffffffffffffffffffff1673ffffffffffffffffffffffffffffffffffffffff166370a08231846040518263ffffffff1660e01b8152600401611e5291906143d0565b602060405180830381865afa158015611e6f573d6000803e3d6000fd5b505050506040513d601f19601f82011682018060405250810190611e939190614fc5565b10159050611e9d565b5b919050565b600080611ead61208e565b90508060010160008573ffffffffffffffffffffffffffffffffffffffff1673ffffffffffffffffffffffffffffffffffffffff16815260200190815260200160002060008473ffffffffffffffffffffffffffffffffffffffff1673ffffffffffffffffffffffffffffffffffffffff16815260200190815260200160002060009054906101000a900460ff1691505092915050565b6000611f707f44a854cabd360644e908fcd642b33fedfb60c399d7b1e7e2051275f0b09b0be58761156a565b15611f845763f23a6e6160e01b9050611f85565b5b95945050505050565b6000611f98612158565b90508073ffffffffffffffffffffffffffffffffffffffff168673ffffffffffffffffffffffffffffffffffffffff1614158015611fdd5750611fdb8682611ea2565b155b156120215780866040517fe237d922000000000000000000000000000000000000000000000000000000008152600401612018929190614cdf565b60405180910390fd5b61202e8686868686612cb6565b505050505050565b60006120627f44a854cabd360644e908fcd642b33fedfb60c399d7b1e7e2051275f0b09b0be58361156a565b9050919050565b600b6020528060005260406000206000915054906101000a900460ff1681565b600181565b60007f88be536d5240c274a3b1d3a1be54482fd9caa294f08c62a7cde569f49a3c4500905090565b60007f4e2312e0000000000000000000000000000000000000000000000000000000007bffffffffffffffffffffffffffffffffffffffffffffffffffffffff1916827bffffffffffffffffffffffffffffffffffffffffffffffffffffffff19161480612129575061212882612dc1565b5b9050919050565b60007f02dd7bc7dec4dceedda775e58dd541e08a116c6c53815c0bd028192f7b626800905090565b600033905090565b600073ffffffffffffffffffffffffffffffffffffffff168473ffffffffffffffffffffffffffffffffffffffff16036121d25760006040517f57f447ce0000000000000000000000000000000000000000000000000000000081526004016121c991906143d0565b60405180910390fd5b600073ffffffffffffffffffffffffffffffffffffffff168573ffffffffffffffffffffffffffffffffffffffff16036122445760006040517f01a8351400000000000000000000000000000000000000000000000000000000815260040161223b91906143d0565b60405180910390fd5b6122518585858585612e3b565b5050505050565b61226981612264612158565b612eed565b50565b6000806122776128b7565b905060006122858585612f3e565b905080156122b6576122b48483600001600088815260200190815260200160002061303f90919063ffffffff16565b505b809250505092915050565b6000806122cc6128b7565b905060006122da858561306f565b9050801561230b576123098483600001600088815260200190815260200160002061317190919063ffffffff16565b505b809250505092915050565b61231e6131a1565b60006123286123b0565b905060008160000160006101000a81548160ff0219169083151502179055507f5db9ee0a495bf2e6ff9c91a7834c1ba4fdd244a5e8aa4e537bd38aeae4b073aa612370612158565b60405161237d91906143d0565b60405180910390a150565b600060208202602084010151905092915050565b600060208202602084010151905092915050565b60007fcd5ed15c6e187e77e9aee88184c21f4f2182ab5827cb3b7e07fbedcd63f03300905090565b6123e0610e95565b15612417576040517fd93c066500000000000000000000000000000000000000000000000000000000815260040160405180910390fd5b565b60008073ffffffffffffffffffffffffffffffffffffffff166008600085815260200190815260200160002060009054906101000a900473ffffffffffffffffffffffffffffffffffffffff1673ffffffffffffffffffffffffffffffffffffffff16146126b2576008600084815260200190815260200160002060009054906101000a900473ffffffffffffffffffffffffffffffffffffffff1673ffffffffffffffffffffffffffffffffffffffff166301ffc9a763d9b67a266040518263ffffffff1660e01b81526004016124f1919061553f565b602060405180830381865afa15801561250e573d6000803e3d6000fd5b505050506040513d601f19601f82011682018060405250810190612532919061556f565b156125f55760006008600085815260200190815260200160002060009054906101000a900473ffffffffffffffffffffffffffffffffffffffff16905060008173ffffffffffffffffffffffffffffffffffffffff1662fdd58e85876040518363ffffffff1660e01b81526004016125ab929190614f87565b602060405180830381865afa1580156125c8573d6000803e3d6000fd5b505050506040513d601f19601f820116820180604052508101906125ec9190614fc5565b119150506126b7565b60006008600085815260200190815260200160002060009054906101000a900473ffffffffffffffffffffffffffffffffffffffff16905060008173ffffffffffffffffffffffffffffffffffffffff166370a08231856040518263ffffffff1660e01b815260040161266891906143d0565b602060405180830381865afa158015612685573d6000803e3d6000fd5b505050506040513d601f19601f820116820180604052508101906126a99190614fc5565b119150506126b7565b600190505b92915050565b600073ffffffffffffffffffffffffffffffffffffffff168473ffffffffffffffffffffffffffffffffffffffff160361272f5760006040517f57f447ce00000000000000000000000000000000000000000000000000000000815260040161272691906143d0565b60405180910390fd5b60008061273c85856131e1565b9150915061274e600087848487612e3b565b505050505050565b61275e6123d8565b60006127686123b0565b905060018160000160006101000a81548160ff0219169083151502179055507f62e78cea01bee320cd4e420270b5ea74000d11b0c9f74754ebdbfc544b05a2586127b0612158565b6040516127bd91906143d0565b60405180910390a150565b60007ff0c57e16840df040f15088dc2f81fe391c3923bec73e23a9662efc9c229c6a00905090565b6127f8613211565b565b612802613211565b61280b81613251565b50565b612816613211565b565b612820613211565b600061282a6123b0565b905060008160000160006101000a81548160ff02191690831515021790555050565b6000612856612130565b9050600061286384610b22565b905082826000016000868152602001908152602001600020600101819055508281857fbd79b86ffe0ab8e8776151514217cd7cacd52c909f66475c3af44e129f0b00ff60405160405180910390a450505050565b60007fc1f6fe24621ce81ec5827caf0253cadb74709b061630e6b55e82371705932000905090565b60006128ee8360000183613265565b60001c905092915050565b60606129036123d8565b601460066000858152602001908152602001600020805461292390614be7565b90501115612966576040517f08c379a000000000000000000000000000000000000000000000000000000000815260040161295d906155e8565b60405180910390fd5b8160066000858152602001908152602001600020908161298691906151f4565b506006600084815260200190815260200160002080546129a590614be7565b80601f01602080910402602001604051908101604052809291908181526020018280546129d190614be7565b8015612a1e5780601f106129f357610100808354040283529160200191612a1e565b820191906000526020600020905b815481529060010190602001808311612a0157829003601f168201915b5050505050905092915050565b6000612a3561208e565b9050600073ffffffffffffffffffffffffffffffffffffffff168373ffffffffffffffffffffffffffffffffffffffff1603612aa95760006040517fced3e100000000000000000000000000000000000000000000000000000000008152600401612aa091906143d0565b60405180910390fd5b818160010160008673ffffffffffffffffffffffffffffffffffffffff1673ffffffffffffffffffffffffffffffffffffffff16815260200190815260200160002060008573ffffffffffffffffffffffffffffffffffffffff1673ffffffffffffffffffffffffffffffffffffffff16815260200190815260200160002060006101000a81548160ff0219169083151502179055508273ffffffffffffffffffffffffffffffffffffffff168473ffffffffffffffffffffffffffffffffffffffff167f17307eab39ab6107e8899845ad3d59bd9653f200f220920489ca2b5937696c3184604051612b9c9190613f2e565b60405180910390a350505050565b600260005403612be6576040517f3ee5aeb500000000000000000000000000000000000000000000000000000000815260040160405180910390fd5b6002600081905550565b600073ffffffffffffffffffffffffffffffffffffffff168373ffffffffffffffffffffffffffffffffffffffff1603612c625760006040517f01a83514000000000000000000000000000000000000000000000000000000008152600401612c5991906143d0565b60405180910390fd5b600080612c6f84846131e1565b91509150612c90856000848460405180602001604052806000815250612e3b565b5050505050565b6001600081905550565b6000612caf82600001613290565b9050919050565b600073ffffffffffffffffffffffffffffffffffffffff168473ffffffffffffffffffffffffffffffffffffffff1603612d285760006040517f57f447ce000000000000000000000000000000000000000000000000000000008152600401612d1f91906143d0565b60405180910390fd5b600073ffffffffffffffffffffffffffffffffffffffff168573ffffffffffffffffffffffffffffffffffffffff1603612d9a5760006040517f01a83514000000000000000000000000000000000000000000000000000000008152600401612d9191906143d0565b60405180910390fd5b600080612da785856131e1565b91509150612db88787848487612e3b565b50505050505050565b60007f5a05180f000000000000000000000000000000000000000000000000000000007bffffffffffffffffffffffffffffffffffffffffffffffffffffffff1916827bffffffffffffffffffffffffffffffffffffffffffffffffffffffff19161480612e345750612e33826132a1565b5b9050919050565b612e478585858561331b565b600073ffffffffffffffffffffffffffffffffffffffff168473ffffffffffffffffffffffffffffffffffffffff1614612ee6576000612e85612158565b90506001845103612ed5576000612ea660008661239c90919063ffffffff16565b90506000612ebe60008661239c90919063ffffffff16565b9050612ece8389898585896136df565b5050612ee4565b612ee3818787878787613893565b5b505b5050505050565b612ef7828261156a565b612f3a5780826040517fe2517d3f000000000000000000000000000000000000000000000000000000008152600401612f31929190615608565b60405180910390fd5b5050565b600080612f49612130565b9050612f55848461156a565b61303357600181600001600086815260200190815260200160002060000160008573ffffffffffffffffffffffffffffffffffffffff1673ffffffffffffffffffffffffffffffffffffffff16815260200190815260200160002060006101000a81548160ff021916908315150217905550612fcf612158565b73ffffffffffffffffffffffffffffffffffffffff168373ffffffffffffffffffffffffffffffffffffffff16857f2f8788117e7eff1d82e926ec794901d17c78024a50270940304540a733656f0d60405160405180910390a46001915050613039565b60009150505b92915050565b6000613067836000018373ffffffffffffffffffffffffffffffffffffffff1660001b613a47565b905092915050565b60008061307a612130565b9050613086848461156a565b1561316557600081600001600086815260200190815260200160002060000160008573ffffffffffffffffffffffffffffffffffffffff1673ffffffffffffffffffffffffffffffffffffffff16815260200190815260200160002060006101000a81548160ff021916908315150217905550613101612158565b73ffffffffffffffffffffffffffffffffffffffff168373ffffffffffffffffffffffffffffffffffffffff16857ff6391f5c32d9c69d2a47ea670b442974b53935d1edc7fd64eb21e047a839171b60405160405180910390a4600191505061316b565b60009150505b92915050565b6000613199836000018373ffffffffffffffffffffffffffffffffffffffff1660001b613ab7565b905092915050565b6131a9610e95565b6131df576040517f8dfc202b00000000000000000000000000000000000000000000000000000000815260040160405180910390fd5b565b60608060405191506001825283602083015260408201905060018152826020820152604081016040529250929050565b613219613bcb565b61324f576040517fd7e6bcf800000000000000000000000000000000000000000000000000000000815260040160405180910390fd5b565b613259613211565b61326281613beb565b50565b600082600001828154811061327d5761327c614d9d565b5b9060005260206000200154905092915050565b600081600001805490509050919050565b60007f7965db0b000000000000000000000000000000000000000000000000000000007bffffffffffffffffffffffffffffffffffffffffffffffffffffffff1916827bffffffffffffffffffffffffffffffffffffffffffffffffffffffff19161480613314575061331382613c0d565b5b9050919050565b600061332561208e565b9050815183511461337157825182516040517f5b059991000000000000000000000000000000000000000000000000000000008152600401613368929190614d74565b60405180910390fd5b600061337b612158565b905060005b845181101561359957600061339e828761239c90919063ffffffff16565b905060006133b5838761239c90919063ffffffff16565b9050600073ffffffffffffffffffffffffffffffffffffffff168973ffffffffffffffffffffffffffffffffffffffff16146134e857600085600001600084815260200190815260200160002060008b73ffffffffffffffffffffffffffffffffffffffff1673ffffffffffffffffffffffffffffffffffffffff1681526020019081526020016000205490508181101561348d57898183856040517f03dee4c50000000000000000000000000000000000000000000000000000000081526004016134849493929190615631565b60405180910390fd5b81810386600001600085815260200190815260200160002060008c73ffffffffffffffffffffffffffffffffffffffff1673ffffffffffffffffffffffffffffffffffffffff16815260200190815260200160002081905550505b600073ffffffffffffffffffffffffffffffffffffffff168873ffffffffffffffffffffffffffffffffffffffff1614613586578085600001600084815260200190815260200160002060008a73ffffffffffffffffffffffffffffffffffffffff1673ffffffffffffffffffffffffffffffffffffffff168152602001908152602001600020600082825461357e9190615029565b925050819055505b50508061359290614dfb565b9050613380565b5060018451036136585760006135b960008661239c90919063ffffffff16565b905060006135d160008661239c90919063ffffffff16565b90508673ffffffffffffffffffffffffffffffffffffffff168873ffffffffffffffffffffffffffffffffffffffff168473ffffffffffffffffffffffffffffffffffffffff167fc3d58168c5ae7397731d063d5bbf3d657854427343f4c083240f7aacaa2d0f628585604051613649929190614d74565b60405180910390a450506136d7565b8473ffffffffffffffffffffffffffffffffffffffff168673ffffffffffffffffffffffffffffffffffffffff168273ffffffffffffffffffffffffffffffffffffffff167f4a39dc06d4c0dbc64b70af90fd698a233a518aa5d07e595d983b8c0526c8f7fb87876040516136ce929190615676565b60405180910390a45b505050505050565b60008473ffffffffffffffffffffffffffffffffffffffff163b111561388b578373ffffffffffffffffffffffffffffffffffffffff1663f23a6e6187878686866040518663ffffffff1660e01b8152600401613740959493929190615702565b6020604051808303816000875af192505050801561377c57506040513d601f19601f820116820180604052508101906137799190615771565b60015b613800573d80600081146137ac576040519150601f19603f3d011682016040523d82523d6000602084013e6137b1565b606091505b5060008151036137f857846040517f57f447ce0000000000000000000000000000000000000000000000000000000081526004016137ef91906143d0565b60405180910390fd5b805181602001fd5b63f23a6e6160e01b7bffffffffffffffffffffffffffffffffffffffffffffffffffffffff1916817bffffffffffffffffffffffffffffffffffffffffffffffffffffffff19161461388957846040517f57f447ce00000000000000000000000000000000000000000000000000000000815260040161388091906143d0565b60405180910390fd5b505b505050505050565b60008473ffffffffffffffffffffffffffffffffffffffff163b1115613a3f578373ffffffffffffffffffffffffffffffffffffffff1663bc197c8187878686866040518663ffffffff1660e01b81526004016138f495949392919061579e565b6020604051808303816000875af192505050801561393057506040513d601f19601f8201168201806040525081019061392d9190615771565b60015b6139b4573d8060008114613960576040519150601f19603f3d011682016040523d82523d6000602084013e613965565b606091505b5060008151036139ac57846040517f57f447ce0000000000000000000000000000000000000000000000000000000081526004016139a391906143d0565b60405180910390fd5b805181602001fd5b63bc197c8160e01b7bffffffffffffffffffffffffffffffffffffffffffffffffffffffff1916817bffffffffffffffffffffffffffffffffffffffffffffffffffffffff191614613a3d57846040517f57f447ce000000000000000000000000000000000000000000000000000000008152600401613a3491906143d0565b60405180910390fd5b505b505050505050565b6000613a538383613cef565b613aac578260000182908060018154018082558091505060019003906000526020600020016000909190919091505582600001805490508360010160008481526020019081526020016000208190555060019050613ab1565b600090505b92915050565b60008083600101600084815260200190815260200160002054905060008114613bbf576000600182613ae991906154c3565b9050600060018660000180549050613b0191906154c3565b9050808214613b70576000866000018281548110613b2257613b21614d9d565b5b9060005260206000200154905080876000018481548110613b4657613b45614d9d565b5b90600052602060002001819055508387600101600083815260200190815260200160002081905550505b85600001805480613b8457613b83615806565b5b600190038181906000526020600020016000905590558560010160008681526020019081526020016000206000905560019350505050613bc5565b60009150505b92915050565b6000613bd56127c8565b60000160089054906101000a900460ff16905090565b6000613bf561208e565b905081816002019081613c0891906151f4565b505050565b60007fd9b67a26000000000000000000000000000000000000000000000000000000007bffffffffffffffffffffffffffffffffffffffffffffffffffffffff1916827bffffffffffffffffffffffffffffffffffffffffffffffffffffffff19161480613cd857507f0e89341c000000000000000000000000000000000000000000000000000000007bffffffffffffffffffffffffffffffffffffffffffffffffffffffff1916827bffffffffffffffffffffffffffffffffffffffffffffffffffffffff1916145b80613ce85750613ce782613d12565b5b9050919050565b600080836001016000848152602001908152602001600020541415905092915050565b60007f01ffc9a7000000000000000000000000000000000000000000000000000000007bffffffffffffffffffffffffffffffffffffffffffffffffffffffff1916827bffffffffffffffffffffffffffffffffffffffffffffffffffffffff1916149050919050565b6000604051905090565b600080fd5b600080fd5b600073ffffffffffffffffffffffffffffffffffffffff82169050919050565b6000613dbb82613d90565b9050919050565b613dcb81613db0565b8114613dd657600080fd5b50565b600081359050613de881613dc2565b92915050565b6000819050919050565b613e0181613dee565b8114613e0c57600080fd5b50565b600081359050613e1e81613df8565b92915050565b60008060408385031215613e3b57613e3a613d86565b5b6000613e4985828601613dd9565b9250506020613e5a85828601613e0f565b9150509250929050565b613e6d81613dee565b82525050565b6000602082019050613e886000830184613e64565b92915050565b60007fffffffff0000000000000000000000000000000000000000000000000000000082169050919050565b613ec381613e8e565b8114613ece57600080fd5b50565b600081359050613ee081613eba565b92915050565b600060208284031215613efc57613efb613d86565b5b6000613f0a84828501613ed1565b91505092915050565b60008115159050919050565b613f2881613f13565b82525050565b6000602082019050613f436000830184613f1f565b92915050565b600081519050919050565b600082825260208201905092915050565b60005b83811015613f83578082015181840152602081019050613f68565b60008484015250505050565b6000601f19601f8301169050919050565b6000613fab82613f49565b613fb58185613f54565b9350613fc5818560208601613f65565b613fce81613f8f565b840191505092915050565b60006020820190508181036000830152613ff38184613fa0565b905092915050565b60006020828403121561401157614010613d86565b5b600061401f84828501613e0f565b91505092915050565b6000819050919050565b61403b81614028565b811461404657600080fd5b50565b60008135905061405881614032565b92915050565b60006020828403121561407457614073613d86565b5b600061408284828501614049565b91505092915050565b61409481614028565b82525050565b60006020820190506140af600083018461408b565b92915050565b600080fd5b7f4e487b7100000000000000000000000000000000000000000000000000000000600052604160045260246000fd5b6140f282613f8f565b810181811067ffffffffffffffff82111715614111576141106140ba565b5b80604052505050565b6000614124613d7c565b905061413082826140e9565b919050565b600067ffffffffffffffff8211156141505761414f6140ba565b5b602082029050602081019050919050565b600080fd5b600061417961417484614135565b61411a565b9050808382526020820190506020840283018581111561419c5761419b614161565b5b835b818110156141c557806141b18882613e0f565b84526020840193505060208101905061419e565b5050509392505050565b600082601f8301126141e4576141e36140b5565b5b81356141f4848260208601614166565b91505092915050565b600080fd5b600067ffffffffffffffff82111561421d5761421c6140ba565b5b61422682613f8f565b9050602081019050919050565b82818337600083830152505050565b600061425561425084614202565b61411a565b905082815260208101848484011115614271576142706141fd565b5b61427c848285614233565b509392505050565b600082601f830112614299576142986140b5565b5b81356142a9848260208601614242565b91505092915050565b600080600080600060a086880312156142ce576142cd613d86565b5b60006142dc88828901613dd9565b95505060206142ed88828901613dd9565b945050604086013567ffffffffffffffff81111561430e5761430d613d8b565b5b61431a888289016141cf565b935050606086013567ffffffffffffffff81111561433b5761433a613d8b565b5b614347888289016141cf565b925050608086013567ffffffffffffffff81111561436857614367613d8b565b5b61437488828901614284565b9150509295509295909350565b6000806040838503121561439857614397613d86565b5b60006143a685828601614049565b92505060206143b785828601613dd9565b9150509250929050565b6143ca81613db0565b82525050565b60006020820190506143e560008301846143c1565b92915050565b600067ffffffffffffffff821115614406576144056140ba565b5b602082029050602081019050919050565b600061442a614425846143eb565b61411a565b9050808382526020820190506020840283018581111561444d5761444c614161565b5b835b8181101561447657806144628882613dd9565b84526020840193505060208101905061444f565b5050509392505050565b600082601f830112614495576144946140b5565b5b81356144a5848260208601614417565b91505092915050565b600080604083850312156144c5576144c4613d86565b5b600083013567ffffffffffffffff8111156144e3576144e2613d8b565b5b6144ef85828601614480565b925050602083013567ffffffffffffffff8111156145105761450f613d8b565b5b61451c858286016141cf565b9150509250929050565b600081519050919050565b600082825260208201905092915050565b6000819050602082019050919050565b61455b81613dee565b82525050565b600061456d8383614552565b60208301905092915050565b6000602082019050919050565b600061459182614526565b61459b8185614531565b93506145a683614542565b8060005b838110156145d75781516145be8882614561565b97506145c983614579565b9250506001810190506145aa565b5085935050505092915050565b600060208201905081810360008301526145fe8184614586565b905092915050565b600060ff82169050919050565b61461c81614606565b82525050565b60006020820190506146376000830184614613565b92915050565b6000806000806080858703121561465757614656613d86565b5b600061466587828801613e0f565b945050602061467687828801613dd9565b935050604061468787828801613e0f565b925050606061469887828801613dd9565b91505092959194509250565b600067ffffffffffffffff8211156146bf576146be6140ba565b5b6146c882613f8f565b9050602081019050919050565b60006146e86146e3846146a4565b61411a565b905082815260208101848484011115614704576147036141fd565b5b61470f848285614233565b509392505050565b600082601f83011261472c5761472b6140b5565b5b813561473c8482602086016146d5565b91505092915050565b61474e81614606565b811461475957600080fd5b50565b60008135905061476b81614745565b92915050565b60008060008060008060c0878903121561478e5761478d613d86565b5b600087013567ffffffffffffffff8111156147ac576147ab613d8b565b5b6147b889828a01614717565b96505060206147c989828a01613dd9565b95505060406147da89828a0161475c565b94505060606147eb89828a0161475c565b93505060806147fc89828a01613dd9565b92505060a061480d89828a01613e0f565b9150509295509295509295565b6000806040838503121561483157614830613d86565b5b600061483f85828601614049565b925050602061485085828601613e0f565b9150509250929050565b600080fd5b60008083601f840112614875576148746140b5565b5b8235905067ffffffffffffffff8111156148925761489161485a565b5b6020830191508360018202830111156148ae576148ad614161565b5b9250929050565b6148be81613f13565b81146148c957600080fd5b50565b6000813590506148db816148b5565b92915050565b60008060008060008060008060006101008a8c03121561490457614903613d86565b5b60008a013567ffffffffffffffff81111561492257614921613d8b565b5b61492e8c828d0161485f565b995099505060206149418c828d01613dd9565b97505060406149528c828d01613dd9565b96505060606149638c828d01613dd9565b95505060806149748c828d01613e0f565b94505060a06149858c828d01613e0f565b93505060c06149968c828d016148cc565b92505060e06149a78c828d016148cc565b9150509295985092959850929598565b600080604083850312156149ce576149cd613d86565b5b60006149dc85828601613dd9565b92505060206149ed858286016148cc565b9150509250929050565b60008060408385031215614a0e57614a0d613d86565b5b6000614a1c85828601613e0f565b9250506020614a2d85828601613e0f565b9150509250929050565b600080600060608486031215614a5057614a4f613d86565b5b6000614a5e86828701613dd9565b9350506020614a6f86828701613e0f565b9250506040614a8086828701613e0f565b9150509250925092565b614a9381613e8e565b82525050565b6000602082019050614aae6000830184614a8a565b92915050565b600060208284031215614aca57614ac9613d86565b5b6000614ad884828501613dd9565b91505092915050565b60008060408385031215614af857614af7613d86565b5b6000614b0685828601613dd9565b9250506020614b1785828601613dd9565b9150509250929050565b600080600080600060a08688031215614b3d57614b3c613d86565b5b6000614b4b88828901613dd9565b9550506020614b5c88828901613dd9565b9450506040614b6d88828901613e0f565b9350506060614b7e88828901613e0f565b925050608086013567ffffffffffffffff811115614b9f57614b9e613d8b565b5b614bab88828901614284565b9150509295509295909350565b7f4e487b7100000000000000000000000000000000000000000000000000000000600052602260045260246000fd5b60006002820490506001821680614bff57607f821691505b602082108103614c1257614c11614bb8565b5b50919050565b600081905092915050565b60008190508160005260206000209050919050565b60008154614c4581614be7565b614c4f8186614c18565b94506001821660008114614c6a5760018114614c7f57614cb2565b60ff1983168652811515820286019350614cb2565b614c8885614c23565b60005b83811015614caa57815481890152600182019150602081019050614c8b565b838801955050505b50505092915050565b6000614cc78285614c38565b9150614cd38284614c38565b91508190509392505050565b6000604082019050614cf460008301856143c1565b614d0160208301846143c1565b9392505050565b7f6f6e6c79206d6f64657261746f727320616c6c6f776564000000000000000000600082015250565b6000614d3e601783613f54565b9150614d4982614d08565b602082019050919050565b60006020820190508181036000830152614d6d81614d31565b9050919050565b6000604082019050614d896000830185613e64565b614d966020830184613e64565b9392505050565b7f4e487b7100000000000000000000000000000000000000000000000000000000600052603260045260246000fd5b7f4e487b7100000000000000000000000000000000000000000000000000000000600052601160045260246000fd5b6000614e0682613dee565b91507fffffffffffffffffffffffffffffffffffffffffffffffffffffffffffffffff8203614e3857614e37614dcc565b5b600182019050919050565b7f6e6f2072656164207065726d697373696f6e0000000000000000000000000000600082015250565b6000614e79601283613f54565b9150614e8482614e43565b602082019050919050565b60006020820190508181036000830152614ea881614e6c565b9050919050565b7f546f6b656e20646f6573206e6f74206578697374730000000000000000000000600082015250565b6000614ee5601583613f54565b9150614ef082614eaf565b602082019050919050565b60006020820190508181036000830152614f1481614ed8565b9050919050565b7f4e6f206d696e74207065726d697373696f6e0000000000000000000000000000600082015250565b6000614f51601283613f54565b9150614f5c82614f1b565b602082019050919050565b60006020820190508181036000830152614f8081614f44565b9050919050565b6000604082019050614f9c60008301856143c1565b614fa96020830184613e64565b9392505050565b600081519050614fbf81613df8565b92915050565b600060208284031215614fdb57614fda613d86565b5b6000614fe984828501614fb0565b91505092915050565b60006060820190506150076000830186613e64565b6150146020830185613e64565b61502160408301846143c1565b949350505050565b600061503482613dee565b915061503f83613dee565b925082820190508082111561505757615056614dcc565b5b92915050565b60006020601f8301049050919050565b600082821b905092915050565b6000600883026150aa7fffffffffffffffffffffffffffffffffffffffffffffffffffffffffffffffff8261506d565b6150b4868361506d565b95508019841693508086168417925050509392505050565b6000819050919050565b60006150f16150ec6150e784613dee565b6150cc565b613dee565b9050919050565b6000819050919050565b61510b836150d6565b61511f615117826150f8565b84845461507a565b825550505050565b600090565b615134615127565b61513f818484615102565b505050565b5b818110156151635761515860008261512c565b600181019050615145565b5050565b601f8211156151a85761517981614c23565b6151828461505d565b81016020851015615191578190505b6151a561519d8561505d565b830182615144565b50505b505050565b600082821c905092915050565b60006151cb600019846008026151ad565b1980831691505092915050565b60006151e483836151ba565b9150826002028217905092915050565b6151fd82613f49565b67ffffffffffffffff811115615216576152156140ba565b5b6152208254614be7565b61522b828285615167565b600060209050601f83116001811461525e576000841561524c578287015190505b61525685826151d8565b8655506152be565b601f19841661526c86614c23565b60005b828110156152945784890151825560018201915060208501945060208101905061526f565b868310156152b157848901516152ad601f8916826151ba565b8355505b6001600288020188555050505b505050505050565b6000819050919050565b600067ffffffffffffffff82169050919050565b60006152ff6152fa6152f5846152c6565b6150cc565b6152d0565b9050919050565b61530f816152e4565b82525050565b600060208201905061532a6000830184615306565b92915050565b7f6e6f207772697465207065726d697373696f6e00000000000000000000000000600082015250565b6000615366601383613f54565b915061537182615330565b602082019050919050565b6000602082019050818103600083015261539581615359565b9050919050565b600060a0820190506153b16000830188613e64565b6153be60208301876143c1565b6153cb6040830186613f1f565b6153d86060830185613e64565b6153e56080830184613e64565b9695505050505050565b600061540a615405615400846152c6565b6150cc565b613dee565b9050919050565b61541a816153ef565b82525050565b60006060820190506154356000830186613e64565b6154426020830185615411565b61544f60408301846143c1565b949350505050565b7f496e736966696369656e742062616c616e636500000000000000000000000000600082015250565b600061548d601383613f54565b915061549882615457565b602082019050919050565b600060208201905081810360008301526154bc81615480565b9050919050565b60006154ce82613dee565b91506154d983613dee565b92508282039050818111156154f1576154f0614dcc565b5b92915050565b6000819050919050565b60008160e01b9050919050565b600061552961552461551f846154f7565b615501565b613e8e565b9050919050565b6155398161550e565b82525050565b60006020820190506155546000830184615530565b92915050565b600081519050615569816148b5565b92915050565b60006020828403121561558557615584613d86565b5b60006155938482850161555a565b91505092915050565b7f55524920616c7265616479207365740000000000000000000000000000000000600082015250565b60006155d2600f83613f54565b91506155dd8261559c565b602082019050919050565b60006020820190508181036000830152615601816155c5565b9050919050565b600060408201905061561d60008301856143c1565b61562a602083018461408b565b9392505050565b600060808201905061564660008301876143c1565b6156536020830186613e64565b6156606040830185613e64565b61566d6060830184613e64565b95945050505050565b600060408201905081810360008301526156908185614586565b905081810360208301526156a48184614586565b90509392505050565b600081519050919050565b600082825260208201905092915050565b60006156d4826156ad565b6156de81856156b8565b93506156ee818560208601613f65565b6156f781613f8f565b840191505092915050565b600060a08201905061571760008301886143c1565b61572460208301876143c1565b6157316040830186613e64565b61573e6060830185613e64565b818103608083015261575081846156c9565b90509695505050505050565b60008151905061576b81613eba565b92915050565b60006020828403121561578757615786613d86565b5b60006157958482850161575c565b91505092915050565b600060a0820190506157b360008301886143c1565b6157c060208301876143c1565b81810360408301526157d28186614586565b905081810360608301526157e68185614586565b905081810360808301526157fa81846156c9565b90509695505050505050565b7f4e487b7100000000000000000000000000000000000000000000000000000000600052603160045260246000fdfea26469706673582212205d59797d042ad860220410bd01f1b3161e286564c0a91304d9a4c647b4cc0e1264736f6c63430008140033",
			"opcodes": "PUSH1 0x80 PUSH1 0x40 MSTORE PUSH1 0x40 MLOAD DUP1 PUSH1 0x40 ADD PUSH1 0x40 MSTORE DUP1 PUSH1 0x14 DUP2 MSTORE PUSH1 0x20 ADD PUSH32 0x68747470733A2F2F617277656176652E6E65742F000000000000000000000000 DUP2 MSTORE POP PUSH1 0x5 SWAP1 DUP2 PUSH3 0x4A SWAP2 SWAP1 PUSH3 0x2E1 JUMP JUMPDEST POP CALLVALUE DUP1 ISZERO PUSH3 0x58 JUMPI PUSH1 0x0 DUP1 REVERT JUMPDEST POP PUSH1 0x1 PUSH1 0x0 DUP2 SWAP1 SSTORE POP PUSH3 0x3C8 JUMP JUMPDEST PUSH1 0x0 DUP2 MLOAD SWAP1 POP SWAP2 SWAP1 POP JUMP JUMPDEST PUSH32 0x4E487B7100000000000000000000000000000000000000000000000000000000 PUSH1 0x0 MSTORE PUSH1 0x41 PUSH1 0x4 MSTORE PUSH1 0x24 PUSH1 0x0 REVERT JUMPDEST PUSH32 0x4E487B7100000000000000000000000000000000000000000000000000000000 PUSH1 0x0 MSTORE PUSH1 0x22 PUSH1 0x4 MSTORE PUSH1 0x24 PUSH1 0x0 REVERT JUMPDEST PUSH1 0x0 PUSH1 0x2 DUP3 DIV SWAP1 POP PUSH1 0x1 DUP3 AND DUP1 PUSH3 0xE9 JUMPI PUSH1 0x7F DUP3 AND SWAP2 POP JUMPDEST PUSH1 0x20 DUP3 LT DUP2 SUB PUSH3 0xFF JUMPI PUSH3 0xFE PUSH3 0xA1 JUMP JUMPDEST JUMPDEST POP SWAP2 SWAP1 POP JUMP JUMPDEST PUSH1 0x0 DUP2 SWAP1 POP DUP2 PUSH1 0x0 MSTORE PUSH1 0x20 PUSH1 0x0 KECCAK256 SWAP1 POP SWAP2 SWAP1 POP JUMP JUMPDEST PUSH1 0x0 PUSH1 0x20 PUSH1 0x1F DUP4 ADD DIV SWAP1 POP SWAP2 SWAP1 POP JUMP JUMPDEST PUSH1 0x0 DUP3 DUP3 SHL SWAP1 POP SWAP3 SWAP2 POP POP JUMP JUMPDEST PUSH1 0x0 PUSH1 0x8 DUP4 MUL PUSH3 0x169 PUSH32 0xFFFFFFFFFFFFFFFFFFFFFFFFFFFFFFFFFFFFFFFFFFFFFFFFFFFFFFFFFFFFFFFF DUP3 PUSH3 0x12A JUMP JUMPDEST PUSH3 0x175 DUP7 DUP4 PUSH3 0x12A JUMP JUMPDEST SWAP6 POP DUP1 NOT DUP5 AND SWAP4 POP DUP1 DUP7 AND DUP5 OR SWAP3 POP POP POP SWAP4 SWAP3 POP POP POP JUMP JUMPDEST PUSH1 0x0 DUP2 SWAP1 POP SWAP2 SWAP1 POP JUMP JUMPDEST PUSH1 0x0 DUP2 SWAP1 POP SWAP2 SWAP1 POP JUMP JUMPDEST PUSH1 0x0 PUSH3 0x1C2 PUSH3 0x1BC PUSH3 0x1B6 DUP5 PUSH3 0x18D JUMP JUMPDEST PUSH3 0x197 JUMP JUMPDEST PUSH3 0x18D JUMP JUMPDEST SWAP1 POP SWAP2 SWAP1 POP JUMP JUMPDEST PUSH1 0x0 DUP2 SWAP1 POP SWAP2 SWAP1 POP JUMP JUMPDEST PUSH3 0x1DE DUP4 PUSH3 0x1A1 JUMP JUMPDEST PUSH3 0x1F6 PUSH3 0x1ED DUP3 PUSH3 0x1C9 JUMP JUMPDEST DUP5 DUP5 SLOAD PUSH3 0x137 JUMP JUMPDEST DUP3 SSTORE POP POP POP POP JUMP JUMPDEST PUSH1 0x0 SWAP1 JUMP JUMPDEST PUSH3 0x20D PUSH3 0x1FE JUMP JUMPDEST PUSH3 0x21A DUP2 DUP5 DUP5 PUSH3 0x1D3 JUMP JUMPDEST POP POP POP JUMP JUMPDEST JUMPDEST DUP2 DUP2 LT ISZERO PUSH3 0x242 JUMPI PUSH3 0x236 PUSH1 0x0 DUP3 PUSH3 0x203 JUMP JUMPDEST PUSH1 0x1 DUP2 ADD SWAP1 POP PUSH3 0x220 JUMP JUMPDEST POP POP JUMP JUMPDEST PUSH1 0x1F DUP3 GT ISZERO PUSH3 0x291 JUMPI PUSH3 0x25B DUP2 PUSH3 0x105 JUMP JUMPDEST PUSH3 0x266 DUP5 PUSH3 0x11A JUMP JUMPDEST DUP2 ADD PUSH1 0x20 DUP6 LT ISZERO PUSH3 0x276 JUMPI DUP2 SWAP1 POP JUMPDEST PUSH3 0x28E PUSH3 0x285 DUP6 PUSH3 0x11A JUMP JUMPDEST DUP4 ADD DUP3 PUSH3 0x21F JUMP JUMPDEST POP POP JUMPDEST POP POP POP JUMP JUMPDEST PUSH1 0x0 DUP3 DUP3 SHR SWAP1 POP SWAP3 SWAP2 POP POP JUMP JUMPDEST PUSH1 0x0 PUSH3 0x2B6 PUSH1 0x0 NOT DUP5 PUSH1 0x8 MUL PUSH3 0x296 JUMP JUMPDEST NOT DUP1 DUP4 AND SWAP2 POP POP SWAP3 SWAP2 POP POP JUMP JUMPDEST PUSH1 0x0 PUSH3 0x2D1 DUP4 DUP4 PUSH3 0x2A3 JUMP JUMPDEST SWAP2 POP DUP3 PUSH1 0x2 MUL DUP3 OR SWAP1 POP SWAP3 SWAP2 POP POP JUMP JUMPDEST PUSH3 0x2EC DUP3 PUSH3 0x67 JUMP JUMPDEST PUSH8 0xFFFFFFFFFFFFFFFF DUP2 GT ISZERO PUSH3 0x308 JUMPI PUSH3 0x307 PUSH3 0x72 JUMP JUMPDEST JUMPDEST PUSH3 0x314 DUP3 SLOAD PUSH3 0xD0 JUMP JUMPDEST PUSH3 0x321 DUP3 DUP3 DUP6 PUSH3 0x246 JUMP JUMPDEST PUSH1 0x0 PUSH1 0x20 SWAP1 POP PUSH1 0x1F DUP4 GT PUSH1 0x1 DUP2 EQ PUSH3 0x359 JUMPI PUSH1 0x0 DUP5 ISZERO PUSH3 0x344 JUMPI DUP3 DUP8 ADD MLOAD SWAP1 POP JUMPDEST PUSH3 0x350 DUP6 DUP3 PUSH3 0x2C3 JUMP JUMPDEST DUP7 SSTORE POP PUSH3 0x3C0 JUMP JUMPDEST PUSH1 0x1F NOT DUP5 AND PUSH3 0x369 DUP7 PUSH3 0x105 JUMP JUMPDEST PUSH1 0x0 JUMPDEST DUP3 DUP2 LT ISZERO PUSH3 0x393 JUMPI DUP5 DUP10 ADD MLOAD DUP3 SSTORE PUSH1 0x1 DUP3 ADD SWAP2 POP PUSH1 0x20 DUP6 ADD SWAP5 POP PUSH1 0x20 DUP2 ADD SWAP1 POP PUSH3 0x36C JUMP JUMPDEST DUP7 DUP4 LT ISZERO PUSH3 0x3B3 JUMPI DUP5 DUP10 ADD MLOAD PUSH3 0x3AF PUSH1 0x1F DUP10 AND DUP3 PUSH3 0x2A3 JUMP JUMPDEST DUP4 SSTORE POP JUMPDEST PUSH1 0x1 PUSH1 0x2 DUP9 MUL ADD DUP9 SSTORE POP POP POP JUMPDEST POP POP POP POP POP POP JUMP JUMPDEST PUSH2 0x586B DUP1 PUSH3 0x3D8 PUSH1 0x0 CODECOPY PUSH1 0x0 RETURN INVALID PUSH1 0x80 PUSH1 0x40 MSTORE PUSH1 0x4 CALLDATASIZE LT PUSH2 0x23A JUMPI PUSH1 0x0 CALLDATALOAD PUSH1 0xE0 SHR DUP1 PUSH4 0x91D14854 GT PUSH2 0x12E JUMPI DUP1 PUSH4 0xC47CB4B2 GT PUSH2 0xAB JUMPI DUP1 PUSH4 0xF23A6E61 GT PUSH2 0x6F JUMPI DUP1 PUSH4 0xF23A6E61 EQ PUSH2 0x8D0 JUMPI DUP1 PUSH4 0xF242432A EQ PUSH2 0x90D JUMPI DUP1 PUSH4 0xFA6F3936 EQ PUSH2 0x936 JUMPI DUP1 PUSH4 0xFCCE4883 EQ PUSH2 0x973 JUMPI DUP1 PUSH4 0xFFA1AD74 EQ PUSH2 0x9B0 JUMPI PUSH2 0x23A JUMP JUMPDEST DUP1 PUSH4 0xC47CB4B2 EQ PUSH2 0x7B3 JUMPI DUP1 PUSH4 0xCA15C873 EQ PUSH2 0x7F0 JUMPI DUP1 PUSH4 0xD547741F EQ PUSH2 0x82D JUMPI DUP1 PUSH4 0xE90B3D3D EQ PUSH2 0x856 JUMPI DUP1 PUSH4 0xE985E9C5 EQ PUSH2 0x893 JUMPI PUSH2 0x23A JUMP JUMPDEST DUP1 PUSH4 0xB31985C2 GT PUSH2 0xF2 JUMPI DUP1 PUSH4 0xB31985C2 EQ PUSH2 0x6D6 JUMPI DUP1 PUSH4 0xB390C0AB EQ PUSH2 0x713 JUMPI DUP1 PUSH4 0xB5C5F672 EQ PUSH2 0x72F JUMPI DUP1 PUSH4 0xB9D1D49B EQ PUSH2 0x74B JUMPI DUP1 PUSH4 0xBC197C81 EQ PUSH2 0x776 JUMPI PUSH2 0x23A JUMP JUMPDEST DUP1 PUSH4 0x91D14854 EQ PUSH2 0x5FE JUMPI DUP1 PUSH4 0x93E27507 EQ PUSH2 0x63B JUMPI DUP1 PUSH4 0x9BC62352 EQ PUSH2 0x657 JUMPI DUP1 PUSH4 0xA217FDDF EQ PUSH2 0x682 JUMPI DUP1 PUSH4 0xA22CB465 EQ PUSH2 0x6AD JUMPI PUSH2 0x23A JUMP JUMPDEST DUP1 PUSH4 0x3F4BA83A GT PUSH2 0x1BC JUMPI DUP1 PUSH4 0x6B1A3DE3 GT PUSH2 0x180 JUMPI DUP1 PUSH4 0x6B1A3DE3 EQ PUSH2 0x53A JUMPI DUP1 PUSH4 0x7C3AB9F2 EQ PUSH2 0x565 JUMPI DUP1 PUSH4 0x8456CB59 EQ PUSH2 0x581 JUMPI DUP1 PUSH4 0x87D0DC40 EQ PUSH2 0x598 JUMPI DUP1 PUSH4 0x9010D07C EQ PUSH2 0x5C1 JUMPI PUSH2 0x23A JUMP JUMPDEST DUP1 PUSH4 0x3F4BA83A EQ PUSH2 0x453 JUMPI DUP1 PUSH4 0x4E1273F4 EQ PUSH2 0x46A JUMPI DUP1 PUSH4 0x510B5158 EQ PUSH2 0x4A7 JUMPI DUP1 PUSH4 0x5C975ABB EQ PUSH2 0x4E4 JUMPI DUP1 PUSH4 0x5FEE596C EQ PUSH2 0x50F JUMPI PUSH2 0x23A JUMP JUMPDEST DUP1 PUSH4 0x2693EBF2 GT PUSH2 0x203 JUMPI DUP1 PUSH4 0x2693EBF2 EQ PUSH2 0x35E JUMPI DUP1 PUSH4 0x2EB2C2D6 EQ PUSH2 0x39B JUMPI DUP1 PUSH4 0x2F2FF15D EQ PUSH2 0x3C4 JUMPI DUP1 PUSH4 0x350293A1 EQ PUSH2 0x3ED JUMPI DUP1 PUSH4 0x36568ABE EQ PUSH2 0x42A JUMPI PUSH2 0x23A JUMP JUMPDEST DUP1 PUSH3 0xFDD58E EQ PUSH2 0x23F JUMPI DUP1 PUSH4 0x1FFC9A7 EQ PUSH2 0x27C JUMPI DUP1 PUSH4 0x6FDDE03 EQ PUSH2 0x2B9 JUMPI DUP1 PUSH4 0xE89341C EQ PUSH2 0x2E4 JUMPI DUP1 PUSH4 0x248A9CA3 EQ PUSH2 0x321 JUMPI JUMPDEST PUSH1 0x0 DUP1 REVERT JUMPDEST CALLVALUE DUP1 ISZERO PUSH2 0x24B JUMPI PUSH1 0x0 DUP1 REVERT JUMPDEST POP PUSH2 0x266 PUSH1 0x4 DUP1 CALLDATASIZE SUB DUP2 ADD SWAP1 PUSH2 0x261 SWAP2 SWAP1 PUSH2 0x3E24 JUMP JUMPDEST PUSH2 0x9DB JUMP JUMPDEST PUSH1 0x40 MLOAD PUSH2 0x273 SWAP2 SWAP1 PUSH2 0x3E73 JUMP JUMPDEST PUSH1 0x40 MLOAD DUP1 SWAP2 SUB SWAP1 RETURN JUMPDEST CALLVALUE DUP1 ISZERO PUSH2 0x288 JUMPI PUSH1 0x0 DUP1 REVERT JUMPDEST POP PUSH2 0x2A3 PUSH1 0x4 DUP1 CALLDATASIZE SUB DUP2 ADD SWAP1 PUSH2 0x29E SWAP2 SWAP1 PUSH2 0x3EE6 JUMP JUMPDEST PUSH2 0xA44 JUMP JUMPDEST PUSH1 0x40 MLOAD PUSH2 0x2B0 SWAP2 SWAP1 PUSH2 0x3F2E JUMP JUMPDEST PUSH1 0x40 MLOAD DUP1 SWAP2 SUB SWAP1 RETURN JUMPDEST CALLVALUE DUP1 ISZERO PUSH2 0x2C5 JUMPI PUSH1 0x0 DUP1 REVERT JUMPDEST POP PUSH2 0x2CE PUSH2 0xA56 JUMP JUMPDEST PUSH1 0x40 MLOAD PUSH2 0x2DB SWAP2 SWAP1 PUSH2 0x3FD9 JUMP JUMPDEST PUSH1 0x40 MLOAD DUP1 SWAP2 SUB SWAP1 RETURN JUMPDEST CALLVALUE DUP1 ISZERO PUSH2 0x2F0 JUMPI PUSH1 0x0 DUP1 REVERT JUMPDEST POP PUSH2 0x30B PUSH1 0x4 DUP1 CALLDATASIZE SUB DUP2 ADD SWAP1 PUSH2 0x306 SWAP2 SWAP1 PUSH2 0x3FFB JUMP JUMPDEST PUSH2 0xAE4 JUMP JUMPDEST PUSH1 0x40 MLOAD PUSH2 0x318 SWAP2 SWAP1 PUSH2 0x3FD9 JUMP JUMPDEST PUSH1 0x40 MLOAD DUP1 SWAP2 SUB SWAP1 RETURN JUMPDEST CALLVALUE DUP1 ISZERO PUSH2 0x32D JUMPI PUSH1 0x0 DUP1 REVERT JUMPDEST POP PUSH2 0x348 PUSH1 0x4 DUP1 CALLDATASIZE SUB DUP2 ADD SWAP1 PUSH2 0x343 SWAP2 SWAP1 PUSH2 0x405E JUMP JUMPDEST PUSH2 0xB22 JUMP JUMPDEST PUSH1 0x40 MLOAD PUSH2 0x355 SWAP2 SWAP1 PUSH2 0x409A JUMP JUMPDEST PUSH1 0x40 MLOAD DUP1 SWAP2 SUB SWAP1 RETURN JUMPDEST CALLVALUE DUP1 ISZERO PUSH2 0x36A JUMPI PUSH1 0x0 DUP1 REVERT JUMPDEST POP PUSH2 0x385 PUSH1 0x4 DUP1 CALLDATASIZE SUB DUP2 ADD SWAP1 PUSH2 0x380 SWAP2 SWAP1 PUSH2 0x3FFB JUMP JUMPDEST PUSH2 0xB50 JUMP JUMPDEST PUSH1 0x40 MLOAD PUSH2 0x392 SWAP2 SWAP1 PUSH2 0x3E73 JUMP JUMPDEST PUSH1 0x40 MLOAD DUP1 SWAP2 SUB SWAP1 RETURN JUMPDEST CALLVALUE DUP1 ISZERO PUSH2 0x3A7 JUMPI PUSH1 0x0 DUP1 REVERT JUMPDEST POP PUSH2 0x3C2 PUSH1 0x4 DUP1 CALLDATASIZE SUB DUP2 ADD SWAP1 PUSH2 0x3BD SWAP2 SWAP1 PUSH2 0x42B2 JUMP JUMPDEST PUSH2 0xB68 JUMP JUMPDEST STOP JUMPDEST CALLVALUE DUP1 ISZERO PUSH2 0x3D0 JUMPI PUSH1 0x0 DUP1 REVERT JUMPDEST POP PUSH2 0x3EB PUSH1 0x4 DUP1 CALLDATASIZE SUB DUP2 ADD SWAP1 PUSH2 0x3E6 SWAP2 SWAP1 PUSH2 0x4381 JUMP JUMPDEST PUSH2 0xC10 JUMP JUMPDEST STOP JUMPDEST CALLVALUE DUP1 ISZERO PUSH2 0x3F9 JUMPI PUSH1 0x0 DUP1 REVERT JUMPDEST POP PUSH2 0x414 PUSH1 0x4 DUP1 CALLDATASIZE SUB DUP2 ADD SWAP1 PUSH2 0x40F SWAP2 SWAP1 PUSH2 0x3FFB JUMP JUMPDEST PUSH2 0xC32 JUMP JUMPDEST PUSH1 0x40 MLOAD PUSH2 0x421 SWAP2 SWAP1 PUSH2 0x43D0 JUMP JUMPDEST PUSH1 0x40 MLOAD DUP1 SWAP2 SUB SWAP1 RETURN JUMPDEST CALLVALUE DUP1 ISZERO PUSH2 0x436 JUMPI PUSH1 0x0 DUP1 REVERT JUMPDEST POP PUSH2 0x451 PUSH1 0x4 DUP1 CALLDATASIZE SUB DUP2 ADD SWAP1 PUSH2 0x44C SWAP2 SWAP1 PUSH2 0x4381 JUMP JUMPDEST PUSH2 0xC65 JUMP JUMPDEST STOP JUMPDEST CALLVALUE DUP1 ISZERO PUSH2 0x45F JUMPI PUSH1 0x0 DUP1 REVERT JUMPDEST POP PUSH2 0x468 PUSH2 0xCE0 JUMP JUMPDEST STOP JUMPDEST CALLVALUE DUP1 ISZERO PUSH2 0x476 JUMPI PUSH1 0x0 DUP1 REVERT JUMPDEST POP PUSH2 0x491 PUSH1 0x4 DUP1 CALLDATASIZE SUB DUP2 ADD SWAP1 PUSH2 0x48C SWAP2 SWAP1 PUSH2 0x44AE JUMP JUMPDEST PUSH2 0xD53 JUMP JUMPDEST PUSH1 0x40 MLOAD PUSH2 0x49E SWAP2 SWAP1 PUSH2 0x45E4 JUMP JUMPDEST PUSH1 0x40 MLOAD DUP1 SWAP2 SUB SWAP1 RETURN JUMPDEST CALLVALUE DUP1 ISZERO PUSH2 0x4B3 JUMPI PUSH1 0x0 DUP1 REVERT JUMPDEST POP PUSH2 0x4CE PUSH1 0x4 DUP1 CALLDATASIZE SUB DUP2 ADD SWAP1 PUSH2 0x4C9 SWAP2 SWAP1 PUSH2 0x3FFB JUMP JUMPDEST PUSH2 0xE62 JUMP JUMPDEST PUSH1 0x40 MLOAD PUSH2 0x4DB SWAP2 SWAP1 PUSH2 0x43D0 JUMP JUMPDEST PUSH1 0x40 MLOAD DUP1 SWAP2 SUB SWAP1 RETURN JUMPDEST CALLVALUE DUP1 ISZERO PUSH2 0x4F0 JUMPI PUSH1 0x0 DUP1 REVERT JUMPDEST POP PUSH2 0x4F9 PUSH2 0xE95 JUMP JUMPDEST PUSH1 0x40 MLOAD PUSH2 0x506 SWAP2 SWAP1 PUSH2 0x3F2E JUMP JUMPDEST PUSH1 0x40 MLOAD DUP1 SWAP2 SUB SWAP1 RETURN JUMPDEST CALLVALUE DUP1 ISZERO PUSH2 0x51B JUMPI PUSH1 0x0 DUP1 REVERT JUMPDEST POP PUSH2 0x524 PUSH2 0xEBA JUMP JUMPDEST PUSH1 0x40 MLOAD PUSH2 0x531 SWAP2 SWAP1 PUSH2 0x43D0 JUMP JUMPDEST PUSH1 0x40 MLOAD DUP1 SWAP2 SUB SWAP1 RETURN JUMPDEST CALLVALUE DUP1 ISZERO PUSH2 0x546 JUMPI PUSH1 0x0 DUP1 REVERT JUMPDEST POP PUSH2 0x54F PUSH2 0xEE0 JUMP JUMPDEST PUSH1 0x40 MLOAD PUSH2 0x55C SWAP2 SWAP1 PUSH2 0x4622 JUMP JUMPDEST PUSH1 0x40 MLOAD DUP1 SWAP2 SUB SWAP1 RETURN JUMPDEST PUSH2 0x57F PUSH1 0x4 DUP1 CALLDATASIZE SUB DUP2 ADD SWAP1 PUSH2 0x57A SWAP2 SWAP1 PUSH2 0x463D JUMP JUMPDEST PUSH2 0xEF3 JUMP JUMPDEST STOP JUMPDEST CALLVALUE DUP1 ISZERO PUSH2 0x58D JUMPI PUSH1 0x0 DUP1 REVERT JUMPDEST POP PUSH2 0x596 PUSH2 0x1199 JUMP JUMPDEST STOP JUMPDEST CALLVALUE DUP1 ISZERO PUSH2 0x5A4 JUMPI PUSH1 0x0 DUP1 REVERT JUMPDEST POP PUSH2 0x5BF PUSH1 0x4 DUP1 CALLDATASIZE SUB DUP2 ADD SWAP1 PUSH2 0x5BA SWAP2 SWAP1 PUSH2 0x4771 JUMP JUMPDEST PUSH2 0x120C JUMP JUMPDEST STOP JUMPDEST CALLVALUE DUP1 ISZERO PUSH2 0x5CD JUMPI PUSH1 0x0 DUP1 REVERT JUMPDEST POP PUSH2 0x5E8 PUSH1 0x4 DUP1 CALLDATASIZE SUB DUP2 ADD SWAP1 PUSH2 0x5E3 SWAP2 SWAP1 PUSH2 0x481A JUMP JUMPDEST PUSH2 0x152D JUMP JUMPDEST PUSH1 0x40 MLOAD PUSH2 0x5F5 SWAP2 SWAP1 PUSH2 0x43D0 JUMP JUMPDEST PUSH1 0x40 MLOAD DUP1 SWAP2 SUB SWAP1 RETURN JUMPDEST CALLVALUE DUP1 ISZERO PUSH2 0x60A JUMPI PUSH1 0x0 DUP1 REVERT JUMPDEST POP PUSH2 0x625 PUSH1 0x4 DUP1 CALLDATASIZE SUB DUP2 ADD SWAP1 PUSH2 0x620 SWAP2 SWAP1 PUSH2 0x4381 JUMP JUMPDEST PUSH2 0x156A JUMP JUMPDEST PUSH1 0x40 MLOAD PUSH2 0x632 SWAP2 SWAP1 PUSH2 0x3F2E JUMP JUMPDEST PUSH1 0x40 MLOAD DUP1 SWAP2 SUB SWAP1 RETURN JUMPDEST PUSH2 0x655 PUSH1 0x4 DUP1 CALLDATASIZE SUB DUP2 ADD SWAP1 PUSH2 0x650 SWAP2 SWAP1 PUSH2 0x48E1 JUMP JUMPDEST PUSH2 0x15E3 JUMP JUMPDEST STOP JUMPDEST CALLVALUE DUP1 ISZERO PUSH2 0x663 JUMPI PUSH1 0x0 DUP1 REVERT JUMPDEST POP PUSH2 0x66C PUSH2 0x18A9 JUMP JUMPDEST PUSH1 0x40 MLOAD PUSH2 0x679 SWAP2 SWAP1 PUSH2 0x4622 JUMP JUMPDEST PUSH1 0x40 MLOAD DUP1 SWAP2 SUB SWAP1 RETURN JUMPDEST CALLVALUE DUP1 ISZERO PUSH2 0x68E JUMPI PUSH1 0x0 DUP1 REVERT JUMPDEST POP PUSH2 0x697 PUSH2 0x18BC JUMP JUMPDEST PUSH1 0x40 MLOAD PUSH2 0x6A4 SWAP2 SWAP1 PUSH2 0x409A JUMP JUMPDEST PUSH1 0x40 MLOAD DUP1 SWAP2 SUB SWAP1 RETURN JUMPDEST CALLVALUE DUP1 ISZERO PUSH2 0x6B9 JUMPI PUSH1 0x0 DUP1 REVERT JUMPDEST POP PUSH2 0x6D4 PUSH1 0x4 DUP1 CALLDATASIZE SUB DUP2 ADD SWAP1 PUSH2 0x6CF SWAP2 SWAP1 PUSH2 0x49B7 JUMP JUMPDEST PUSH2 0x18C3 JUMP JUMPDEST STOP JUMPDEST CALLVALUE DUP1 ISZERO PUSH2 0x6E2 JUMPI PUSH1 0x0 DUP1 REVERT JUMPDEST POP PUSH2 0x6FD PUSH1 0x4 DUP1 CALLDATASIZE SUB DUP2 ADD SWAP1 PUSH2 0x6F8 SWAP2 SWAP1 PUSH2 0x3FFB JUMP JUMPDEST PUSH2 0x18D9 JUMP JUMPDEST PUSH1 0x40 MLOAD PUSH2 0x70A SWAP2 SWAP1 PUSH2 0x43D0 JUMP JUMPDEST PUSH1 0x40 MLOAD DUP1 SWAP2 SUB SWAP1 RETURN JUMPDEST PUSH2 0x72D PUSH1 0x4 DUP1 CALLDATASIZE SUB DUP2 ADD SWAP1 PUSH2 0x728 SWAP2 SWAP1 PUSH2 0x49F7 JUMP JUMPDEST PUSH2 0x190C JUMP JUMPDEST STOP JUMPDEST PUSH2 0x749 PUSH1 0x4 DUP1 CALLDATASIZE SUB DUP2 ADD SWAP1 PUSH2 0x744 SWAP2 SWAP1 PUSH2 0x4A37 JUMP JUMPDEST PUSH2 0x1A82 JUMP JUMPDEST STOP JUMPDEST CALLVALUE DUP1 ISZERO PUSH2 0x757 JUMPI PUSH1 0x0 DUP1 REVERT JUMPDEST POP PUSH2 0x760 PUSH2 0x1B6B JUMP JUMPDEST PUSH1 0x40 MLOAD PUSH2 0x76D SWAP2 SWAP1 PUSH2 0x3E73 JUMP JUMPDEST PUSH1 0x40 MLOAD DUP1 SWAP2 SUB SWAP1 RETURN JUMPDEST CALLVALUE DUP1 ISZERO PUSH2 0x782 JUMPI PUSH1 0x0 DUP1 REVERT JUMPDEST POP PUSH2 0x79D PUSH1 0x4 DUP1 CALLDATASIZE SUB DUP2 ADD SWAP1 PUSH2 0x798 SWAP2 SWAP1 PUSH2 0x42B2 JUMP JUMPDEST PUSH2 0x1B71 JUMP JUMPDEST PUSH1 0x40 MLOAD PUSH2 0x7AA SWAP2 SWAP1 PUSH2 0x4A99 JUMP JUMPDEST PUSH1 0x40 MLOAD DUP1 SWAP2 SUB SWAP1 RETURN JUMPDEST CALLVALUE DUP1 ISZERO PUSH2 0x7BF JUMPI PUSH1 0x0 DUP1 REVERT JUMPDEST POP PUSH2 0x7DA PUSH1 0x4 DUP1 CALLDATASIZE SUB DUP2 ADD SWAP1 PUSH2 0x7D5 SWAP2 SWAP1 PUSH2 0x4AB4 JUMP JUMPDEST PUSH2 0x1BBB JUMP JUMPDEST PUSH1 0x40 MLOAD PUSH2 0x7E7 SWAP2 SWAP1 PUSH2 0x3F2E JUMP JUMPDEST PUSH1 0x40 MLOAD DUP1 SWAP2 SUB SWAP1 RETURN JUMPDEST CALLVALUE DUP1 ISZERO PUSH2 0x7FC JUMPI PUSH1 0x0 DUP1 REVERT JUMPDEST POP PUSH2 0x817 PUSH1 0x4 DUP1 CALLDATASIZE SUB DUP2 ADD SWAP1 PUSH2 0x812 SWAP2 SWAP1 PUSH2 0x405E JUMP JUMPDEST PUSH2 0x1CDF JUMP JUMPDEST PUSH1 0x40 MLOAD PUSH2 0x824 SWAP2 SWAP1 PUSH2 0x3E73 JUMP JUMPDEST PUSH1 0x40 MLOAD DUP1 SWAP2 SUB SWAP1 RETURN JUMPDEST CALLVALUE DUP1 ISZERO PUSH2 0x839 JUMPI PUSH1 0x0 DUP1 REVERT JUMPDEST POP PUSH2 0x854 PUSH1 0x4 DUP1 CALLDATASIZE SUB DUP2 ADD SWAP1 PUSH2 0x84F SWAP2 SWAP1 PUSH2 0x4381 JUMP JUMPDEST PUSH2 0x1D11 JUMP JUMPDEST STOP JUMPDEST CALLVALUE DUP1 ISZERO PUSH2 0x862 JUMPI PUSH1 0x0 DUP1 REVERT JUMPDEST POP PUSH2 0x87D PUSH1 0x4 DUP1 CALLDATASIZE SUB DUP2 ADD SWAP1 PUSH2 0x878 SWAP2 SWAP1 PUSH2 0x4AB4 JUMP JUMPDEST PUSH2 0x1D33 JUMP JUMPDEST PUSH1 0x40 MLOAD PUSH2 0x88A SWAP2 SWAP1 PUSH2 0x3F2E JUMP JUMPDEST PUSH1 0x40 MLOAD DUP1 SWAP2 SUB SWAP1 RETURN JUMPDEST CALLVALUE DUP1 ISZERO PUSH2 0x89F JUMPI PUSH1 0x0 DUP1 REVERT JUMPDEST POP PUSH2 0x8BA PUSH1 0x4 DUP1 CALLDATASIZE SUB DUP2 ADD SWAP1 PUSH2 0x8B5 SWAP2 SWAP1 PUSH2 0x4AE1 JUMP JUMPDEST PUSH2 0x1EA2 JUMP JUMPDEST PUSH1 0x40 MLOAD PUSH2 0x8C7 SWAP2 SWAP1 PUSH2 0x3F2E JUMP JUMPDEST PUSH1 0x40 MLOAD DUP1 SWAP2 SUB SWAP1 RETURN JUMPDEST CALLVALUE DUP1 ISZERO PUSH2 0x8DC JUMPI PUSH1 0x0 DUP1 REVERT JUMPDEST POP PUSH2 0x8F7 PUSH1 0x4 DUP1 CALLDATASIZE SUB DUP2 ADD SWAP1 PUSH2 0x8F2 SWAP2 SWAP1 PUSH2 0x4B21 JUMP JUMPDEST PUSH2 0x1F44 JUMP JUMPDEST PUSH1 0x40 MLOAD PUSH2 0x904 SWAP2 SWAP1 PUSH2 0x4A99 JUMP JUMPDEST PUSH1 0x40 MLOAD DUP1 SWAP2 SUB SWAP1 RETURN JUMPDEST CALLVALUE DUP1 ISZERO PUSH2 0x919 JUMPI PUSH1 0x0 DUP1 REVERT JUMPDEST POP PUSH2 0x934 PUSH1 0x4 DUP1 CALLDATASIZE SUB DUP2 ADD SWAP1 PUSH2 0x92F SWAP2 SWAP1 PUSH2 0x4B21 JUMP JUMPDEST PUSH2 0x1F8E JUMP JUMPDEST STOP JUMPDEST CALLVALUE DUP1 ISZERO PUSH2 0x942 JUMPI PUSH1 0x0 DUP1 REVERT JUMPDEST POP PUSH2 0x95D PUSH1 0x4 DUP1 CALLDATASIZE SUB DUP2 ADD SWAP1 PUSH2 0x958 SWAP2 SWAP1 PUSH2 0x4AB4 JUMP JUMPDEST PUSH2 0x2036 JUMP JUMPDEST PUSH1 0x40 MLOAD PUSH2 0x96A SWAP2 SWAP1 PUSH2 0x3F2E JUMP JUMPDEST PUSH1 0x40 MLOAD DUP1 SWAP2 SUB SWAP1 RETURN JUMPDEST CALLVALUE DUP1 ISZERO PUSH2 0x97F JUMPI PUSH1 0x0 DUP1 REVERT JUMPDEST POP PUSH2 0x99A PUSH1 0x4 DUP1 CALLDATASIZE SUB DUP2 ADD SWAP1 PUSH2 0x995 SWAP2 SWAP1 PUSH2 0x3FFB JUMP JUMPDEST PUSH2 0x2069 JUMP JUMPDEST PUSH1 0x40 MLOAD PUSH2 0x9A7 SWAP2 SWAP1 PUSH2 0x3F2E JUMP JUMPDEST PUSH1 0x40 MLOAD DUP1 SWAP2 SUB SWAP1 RETURN JUMPDEST CALLVALUE DUP1 ISZERO PUSH2 0x9BC JUMPI PUSH1 0x0 DUP1 REVERT JUMPDEST POP PUSH2 0x9C5 PUSH2 0x2089 JUMP JUMPDEST PUSH1 0x40 MLOAD PUSH2 0x9D2 SWAP2 SWAP1 PUSH2 0x3E73 JUMP JUMPDEST PUSH1 0x40 MLOAD DUP1 SWAP2 SUB SWAP1 RETURN JUMPDEST PUSH1 0x0 DUP1 PUSH2 0x9E6 PUSH2 0x208E JUMP JUMPDEST SWAP1 POP DUP1 PUSH1 0x0 ADD PUSH1 0x0 DUP5 DUP2 MSTORE PUSH1 0x20 ADD SWAP1 DUP2 MSTORE PUSH1 0x20 ADD PUSH1 0x0 KECCAK256 PUSH1 0x0 DUP6 PUSH20 0xFFFFFFFFFFFFFFFFFFFFFFFFFFFFFFFFFFFFFFFF AND PUSH20 0xFFFFFFFFFFFFFFFFFFFFFFFFFFFFFFFFFFFFFFFF AND DUP2 MSTORE PUSH1 0x20 ADD SWAP1 DUP2 MSTORE PUSH1 0x20 ADD PUSH1 0x0 KECCAK256 SLOAD SWAP2 POP POP SWAP3 SWAP2 POP POP JUMP JUMPDEST PUSH1 0x0 PUSH2 0xA4F DUP3 PUSH2 0x20B6 JUMP JUMPDEST SWAP1 POP SWAP2 SWAP1 POP JUMP JUMPDEST PUSH1 0x1 DUP1 SLOAD PUSH2 0xA63 SWAP1 PUSH2 0x4BE7 JUMP JUMPDEST DUP1 PUSH1 0x1F ADD PUSH1 0x20 DUP1 SWAP2 DIV MUL PUSH1 0x20 ADD PUSH1 0x40 MLOAD SWAP1 DUP2 ADD PUSH1 0x40 MSTORE DUP1 SWAP3 SWAP2 SWAP1 DUP2 DUP2 MSTORE PUSH1 0x20 ADD DUP3 DUP1 SLOAD PUSH2 0xA8F SWAP1 PUSH2 0x4BE7 JUMP JUMPDEST DUP1 ISZERO PUSH2 0xADC JUMPI DUP1 PUSH1 0x1F LT PUSH2 0xAB1 JUMPI PUSH2 0x100 DUP1 DUP4 SLOAD DIV MUL DUP4 MSTORE SWAP2 PUSH1 0x20 ADD SWAP2 PUSH2 0xADC JUMP JUMPDEST DUP3 ADD SWAP2 SWAP1 PUSH1 0x0 MSTORE PUSH1 0x20 PUSH1 0x0 KECCAK256 SWAP1 JUMPDEST DUP2 SLOAD DUP2 MSTORE SWAP1 PUSH1 0x1 ADD SWAP1 PUSH1 0x20 ADD DUP1 DUP4 GT PUSH2 0xABF JUMPI DUP3 SWAP1 SUB PUSH1 0x1F AND DUP3 ADD SWAP2 JUMPDEST POP POP POP POP POP DUP2 JUMP JUMPDEST PUSH1 0x60 PUSH1 0x5 PUSH1 0x6 PUSH1 0x0 DUP5 DUP2 MSTORE PUSH1 0x20 ADD SWAP1 DUP2 MSTORE PUSH1 0x20 ADD PUSH1 0x0 KECCAK256 PUSH1 0x40 MLOAD PUSH1 0x20 ADD PUSH2 0xB0C SWAP3 SWAP2 SWAP1 PUSH2 0x4CBB JUMP JUMPDEST PUSH1 0x40 MLOAD PUSH1 0x20 DUP2 DUP4 SUB SUB DUP2 MSTORE SWAP1 PUSH1 0x40 MSTORE SWAP1 POP SWAP2 SWAP1 POP JUMP JUMPDEST PUSH1 0x0 DUP1 PUSH2 0xB2D PUSH2 0x2130 JUMP JUMPDEST SWAP1 POP DUP1 PUSH1 0x0 ADD PUSH1 0x0 DUP5 DUP2 MSTORE PUSH1 0x20 ADD SWAP1 DUP2 MSTORE PUSH1 0x20 ADD PUSH1 0x0 KECCAK256 PUSH1 0x1 ADD SLOAD SWAP2 POP POP SWAP2 SWAP1 POP JUMP JUMPDEST PUSH1 0x7 PUSH1 0x20 MSTORE DUP1 PUSH1 0x0 MSTORE PUSH1 0x40 PUSH1 0x0 KECCAK256 PUSH1 0x0 SWAP2 POP SWAP1 POP SLOAD DUP2 JUMP JUMPDEST PUSH1 0x0 PUSH2 0xB72 PUSH2 0x2158 JUMP JUMPDEST SWAP1 POP DUP1 PUSH20 0xFFFFFFFFFFFFFFFFFFFFFFFFFFFFFFFFFFFFFFFF AND DUP7 PUSH20 0xFFFFFFFFFFFFFFFFFFFFFFFFFFFFFFFFFFFFFFFF AND EQ ISZERO DUP1 ISZERO PUSH2 0xBB7 JUMPI POP PUSH2 0xBB5 DUP7 DUP3 PUSH2 0x1EA2 JUMP JUMPDEST ISZERO JUMPDEST ISZERO PUSH2 0xBFB JUMPI DUP1 DUP7 PUSH1 0x40 MLOAD PUSH32 0xE237D92200000000000000000000000000000000000000000000000000000000 DUP2 MSTORE PUSH1 0x4 ADD PUSH2 0xBF2 SWAP3 SWAP2 SWAP1 PUSH2 0x4CDF JUMP JUMPDEST PUSH1 0x40 MLOAD DUP1 SWAP2 SUB SWAP1 REVERT JUMPDEST PUSH2 0xC08 DUP7 DUP7 DUP7 DUP7 DUP7 PUSH2 0x2160 JUMP JUMPDEST POP POP POP POP POP POP JUMP JUMPDEST PUSH2 0xC19 DUP3 PUSH2 0xB22 JUMP JUMPDEST PUSH2 0xC22 DUP2 PUSH2 0x2258 JUMP JUMPDEST PUSH2 0xC2C DUP4 DUP4 PUSH2 0x226C JUMP JUMPDEST POP POP POP POP JUMP JUMPDEST PUSH1 0x9 PUSH1 0x20 MSTORE DUP1 PUSH1 0x0 MSTORE PUSH1 0x40 PUSH1 0x0 KECCAK256 PUSH1 0x0 SWAP2 POP SLOAD SWAP1 PUSH2 0x100 EXP SWAP1 DIV PUSH20 0xFFFFFFFFFFFFFFFFFFFFFFFFFFFFFFFFFFFFFFFF AND DUP2 JUMP JUMPDEST PUSH2 0xC6D PUSH2 0x2158 JUMP JUMPDEST PUSH20 0xFFFFFFFFFFFFFFFFFFFFFFFFFFFFFFFFFFFFFFFF AND DUP2 PUSH20 0xFFFFFFFFFFFFFFFFFFFFFFFFFFFFFFFFFFFFFFFF AND EQ PUSH2 0xCD1 JUMPI PUSH1 0x40 MLOAD PUSH32 0x6697B23200000000000000000000000000000000000000000000000000000000 DUP2 MSTORE PUSH1 0x4 ADD PUSH1 0x40 MLOAD DUP1 SWAP2 SUB SWAP1 REVERT JUMPDEST PUSH2 0xCDB DUP3 DUP3 PUSH2 0x22C1 JUMP JUMPDEST POP POP POP JUMP JUMPDEST PUSH2 0xD0A PUSH32 0x44A854CABD360644E908FCD642B33FEDFB60C399D7B1E7E2051275F0B09B0BE5 CALLER PUSH2 0x156A JUMP JUMPDEST PUSH2 0xD49 JUMPI PUSH1 0x40 MLOAD PUSH32 0x8C379A000000000000000000000000000000000000000000000000000000000 DUP2 MSTORE PUSH1 0x4 ADD PUSH2 0xD40 SWAP1 PUSH2 0x4D54 JUMP JUMPDEST PUSH1 0x40 MLOAD DUP1 SWAP2 SUB SWAP1 REVERT JUMPDEST PUSH2 0xD51 PUSH2 0x2316 JUMP JUMPDEST JUMP JUMPDEST PUSH1 0x60 DUP2 MLOAD DUP4 MLOAD EQ PUSH2 0xD9F JUMPI DUP2 MLOAD DUP4 MLOAD PUSH1 0x40 MLOAD PUSH32 0x5B05999100000000000000000000000000000000000000000000000000000000 DUP2 MSTORE PUSH1 0x4 ADD PUSH2 0xD96 SWAP3 SWAP2 SWAP1 PUSH2 0x4D74 JUMP JUMPDEST PUSH1 0x40 MLOAD DUP1 SWAP2 SUB SWAP1 REVERT JUMPDEST PUSH1 0x0 DUP4 MLOAD PUSH8 0xFFFFFFFFFFFFFFFF DUP2 GT ISZERO PUSH2 0xDBC JUMPI PUSH2 0xDBB PUSH2 0x40BA JUMP JUMPDEST JUMPDEST PUSH1 0x40 MLOAD SWAP1 DUP1 DUP3 MSTORE DUP1 PUSH1 0x20 MUL PUSH1 0x20 ADD DUP3 ADD PUSH1 0x40 MSTORE DUP1 ISZERO PUSH2 0xDEA JUMPI DUP2 PUSH1 0x20 ADD PUSH1 0x20 DUP3 MUL DUP1 CALLDATASIZE DUP4 CALLDATACOPY DUP1 DUP3 ADD SWAP2 POP POP SWAP1 POP JUMPDEST POP SWAP1 POP PUSH1 0x0 JUMPDEST DUP5 MLOAD DUP2 LT ISZERO PUSH2 0xE57 JUMPI PUSH2 0xE27 PUSH2 0xE0F DUP3 DUP8 PUSH2 0x2388 SWAP1 SWAP2 SWAP1 PUSH4 0xFFFFFFFF AND JUMP JUMPDEST PUSH2 0xE22 DUP4 DUP8 PUSH2 0x239C SWAP1 SWAP2 SWAP1 PUSH4 0xFFFFFFFF AND JUMP JUMPDEST PUSH2 0x9DB JUMP JUMPDEST DUP3 DUP3 DUP2 MLOAD DUP2 LT PUSH2 0xE3A JUMPI PUSH2 0xE39 PUSH2 0x4D9D JUMP JUMPDEST JUMPDEST PUSH1 0x20 MUL PUSH1 0x20 ADD ADD DUP2 DUP2 MSTORE POP POP DUP1 PUSH2 0xE50 SWAP1 PUSH2 0x4DFB JUMP JUMPDEST SWAP1 POP PUSH2 0xDF0 JUMP JUMPDEST POP DUP1 SWAP2 POP POP SWAP3 SWAP2 POP POP JUMP JUMPDEST PUSH1 0xA PUSH1 0x20 MSTORE DUP1 PUSH1 0x0 MSTORE PUSH1 0x40 PUSH1 0x0 KECCAK256 PUSH1 0x0 SWAP2 POP SLOAD SWAP1 PUSH2 0x100 EXP SWAP1 DIV PUSH20 0xFFFFFFFFFFFFFFFFFFFFFFFFFFFFFFFFFFFFFFFF AND DUP2 JUMP JUMPDEST PUSH1 0x0 DUP1 PUSH2 0xEA0 PUSH2 0x23B0 JUMP JUMPDEST SWAP1 POP DUP1 PUSH1 0x0 ADD PUSH1 0x0 SWAP1 SLOAD SWAP1 PUSH2 0x100 EXP SWAP1 DIV PUSH1 0xFF AND SWAP2 POP POP SWAP1 JUMP JUMPDEST PUSH1 0x3 PUSH1 0x2 SWAP1 SLOAD SWAP1 PUSH2 0x100 EXP SWAP1 DIV PUSH20 0xFFFFFFFFFFFFFFFFFFFFFFFFFFFFFFFFFFFFFFFF AND DUP2 JUMP JUMPDEST PUSH1 0x3 PUSH1 0x0 SWAP1 SLOAD SWAP1 PUSH2 0x100 EXP SWAP1 DIV PUSH1 0xFF AND DUP2 JUMP JUMPDEST PUSH2 0xEFB PUSH2 0x23D8 JUMP JUMPDEST PUSH2 0xF04 CALLER PUSH2 0x1BBB JUMP JUMPDEST PUSH2 0xF43 JUMPI PUSH1 0x40 MLOAD PUSH32 0x8C379A000000000000000000000000000000000000000000000000000000000 DUP2 MSTORE PUSH1 0x4 ADD PUSH2 0xF3A SWAP1 PUSH2 0x4E8F JUMP JUMPDEST PUSH1 0x40 MLOAD DUP1 SWAP2 SUB SWAP1 REVERT JUMPDEST PUSH1 0x2 SLOAD DUP5 GT ISZERO PUSH2 0xF88 JUMPI PUSH1 0x40 MLOAD PUSH32 0x8C379A000000000000000000000000000000000000000000000000000000000 DUP2 MSTORE PUSH1 0x4 ADD PUSH2 0xF7F SWAP1 PUSH2 0x4EFB JUMP JUMPDEST PUSH1 0x40 MLOAD DUP1 SWAP2 SUB SWAP1 REVERT JUMPDEST PUSH1 0x1 ISZERO ISZERO PUSH2 0xF96 DUP6 CALLER PUSH2 0x2419 JUMP JUMPDEST ISZERO ISZERO EQ PUSH2 0xFD8 JUMPI PUSH1 0x40 MLOAD PUSH32 0x8C379A000000000000000000000000000000000000000000000000000000000 DUP2 MSTORE PUSH1 0x4 ADD PUSH2 0xFCF SWAP1 PUSH2 0x4F67 JUMP JUMPDEST PUSH1 0x40 MLOAD DUP1 SWAP2 SUB SWAP1 REVERT JUMPDEST PUSH1 0xB PUSH1 0x0 DUP6 DUP2 MSTORE PUSH1 0x20 ADD SWAP1 DUP2 MSTORE PUSH1 0x20 ADD PUSH1 0x0 KECCAK256 PUSH1 0x0 SWAP1 SLOAD SWAP1 PUSH2 0x100 EXP SWAP1 DIV PUSH1 0xFF AND ISZERO PUSH2 0x1142 JUMPI PUSH1 0x0 PUSH1 0x9 PUSH1 0x0 DUP7 DUP2 MSTORE PUSH1 0x20 ADD SWAP1 DUP2 MSTORE PUSH1 0x20 ADD PUSH1 0x0 KECCAK256 PUSH1 0x0 SWAP1 SLOAD SWAP1 PUSH2 0x100 EXP SWAP1 DIV PUSH20 0xFFFFFFFFFFFFFFFFFFFFFFFFFFFFFFFFFFFFFFFF AND SWAP1 POP DUP1 PUSH20 0xFFFFFFFFFFFFFFFFFFFFFFFFFFFFFFFFFFFFFFFF AND PUSH4 0x67E2CAFD ADDRESS DUP8 PUSH1 0x40 MLOAD DUP4 PUSH4 0xFFFFFFFF AND PUSH1 0xE0 SHL DUP2 MSTORE PUSH1 0x4 ADD PUSH2 0x1071 SWAP3 SWAP2 SWAP1 PUSH2 0x4F87 JUMP JUMPDEST PUSH1 0x20 PUSH1 0x40 MLOAD DUP1 DUP4 SUB DUP2 DUP7 GAS STATICCALL ISZERO DUP1 ISZERO PUSH2 0x108E JUMPI RETURNDATASIZE PUSH1 0x0 DUP1 RETURNDATACOPY RETURNDATASIZE PUSH1 0x0 REVERT JUMPDEST POP POP POP POP PUSH1 0x40 MLOAD RETURNDATASIZE PUSH1 0x1F NOT PUSH1 0x1F DUP3 ADD AND DUP3 ADD DUP1 PUSH1 0x40 MSTORE POP DUP2 ADD SWAP1 PUSH2 0x10B2 SWAP2 SWAP1 PUSH2 0x4FC5 JUMP JUMPDEST PUSH1 0x7 PUSH1 0x0 DUP8 DUP2 MSTORE PUSH1 0x20 ADD SWAP1 DUP2 MSTORE PUSH1 0x20 ADD PUSH1 0x0 KECCAK256 SLOAD LT PUSH2 0x10D0 JUMPI PUSH1 0x0 DUP1 REVERT JUMPDEST DUP1 PUSH20 0xFFFFFFFFFFFFFFFFFFFFFFFFFFFFFFFFFFFFFFFF AND PUSH4 0xE8E2D37C CALLVALUE DUP8 DUP7 DUP7 PUSH1 0x40 MLOAD DUP6 PUSH4 0xFFFFFFFF AND PUSH1 0xE0 SHL DUP2 MSTORE PUSH1 0x4 ADD PUSH2 0x110E SWAP4 SWAP3 SWAP2 SWAP1 PUSH2 0x4FF2 JUMP JUMPDEST PUSH1 0x0 PUSH1 0x40 MLOAD DUP1 DUP4 SUB DUP2 DUP6 DUP9 DUP1 EXTCODESIZE ISZERO DUP1 ISZERO PUSH2 0x1127 JUMPI PUSH1 0x0 DUP1 REVERT JUMPDEST POP GAS CALL ISZERO DUP1 ISZERO PUSH2 0x113B JUMPI RETURNDATASIZE PUSH1 0x0 DUP1 RETURNDATACOPY RETURNDATASIZE PUSH1 0x0 REVERT JUMPDEST POP POP POP POP POP POP JUMPDEST PUSH2 0x115D DUP4 DUP6 DUP5 PUSH1 0x40 MLOAD DUP1 PUSH1 0x20 ADD PUSH1 0x40 MSTORE DUP1 PUSH1 0x0 DUP2 MSTORE POP PUSH2 0x26BD JUMP JUMPDEST DUP2 PUSH1 0x7 PUSH1 0x0 DUP7 DUP2 MSTORE PUSH1 0x20 ADD SWAP1 DUP2 MSTORE PUSH1 0x20 ADD PUSH1 0x0 KECCAK256 SLOAD PUSH2 0x117C SWAP2 SWAP1 PUSH2 0x5029 JUMP JUMPDEST PUSH1 0x7 PUSH1 0x0 DUP7 DUP2 MSTORE PUSH1 0x20 ADD SWAP1 DUP2 MSTORE PUSH1 0x20 ADD PUSH1 0x0 KECCAK256 DUP2 SWAP1 SSTORE POP POP POP POP POP JUMP JUMPDEST PUSH2 0x11C3 PUSH32 0x44A854CABD360644E908FCD642B33FEDFB60C399D7B1E7E2051275F0B09B0BE5 CALLER PUSH2 0x156A JUMP JUMPDEST PUSH2 0x1202 JUMPI PUSH1 0x40 MLOAD PUSH32 0x8C379A000000000000000000000000000000000000000000000000000000000 DUP2 MSTORE PUSH1 0x4 ADD PUSH2 0x11F9 SWAP1 PUSH2 0x4D54 JUMP JUMPDEST PUSH1 0x40 MLOAD DUP1 SWAP2 SUB SWAP1 REVERT JUMPDEST PUSH2 0x120A PUSH2 0x2756 JUMP JUMPDEST JUMP JUMPDEST PUSH1 0x0 PUSH2 0x1216 PUSH2 0x27C8 JUMP JUMPDEST SWAP1 POP PUSH1 0x0 DUP2 PUSH1 0x0 ADD PUSH1 0x8 SWAP1 SLOAD SWAP1 PUSH2 0x100 EXP SWAP1 DIV PUSH1 0xFF AND ISZERO SWAP1 POP PUSH1 0x0 DUP3 PUSH1 0x0 ADD PUSH1 0x0 SWAP1 SLOAD SWAP1 PUSH2 0x100 EXP SWAP1 DIV PUSH8 0xFFFFFFFFFFFFFFFF AND SWAP1 POP PUSH1 0x0 DUP1 DUP3 PUSH8 0xFFFFFFFFFFFFFFFF AND EQ DUP1 ISZERO PUSH2 0x1264 JUMPI POP DUP3 JUMPDEST SWAP1 POP PUSH1 0x0 PUSH1 0x1 DUP4 PUSH8 0xFFFFFFFFFFFFFFFF AND EQ DUP1 ISZERO PUSH2 0x1299 JUMPI POP PUSH1 0x0 ADDRESS PUSH20 0xFFFFFFFFFFFFFFFFFFFFFFFFFFFFFFFFFFFFFFFF AND EXTCODESIZE EQ JUMPDEST SWAP1 POP DUP2 ISZERO DUP1 ISZERO PUSH2 0x12A7 JUMPI POP DUP1 ISZERO JUMPDEST ISZERO PUSH2 0x12DE JUMPI PUSH1 0x40 MLOAD PUSH32 0xF92EE8A900000000000000000000000000000000000000000000000000000000 DUP2 MSTORE PUSH1 0x4 ADD PUSH1 0x40 MLOAD DUP1 SWAP2 SUB SWAP1 REVERT JUMPDEST PUSH1 0x1 DUP6 PUSH1 0x0 ADD PUSH1 0x0 PUSH2 0x100 EXP DUP2 SLOAD DUP2 PUSH8 0xFFFFFFFFFFFFFFFF MUL NOT AND SWAP1 DUP4 PUSH8 0xFFFFFFFFFFFFFFFF AND MUL OR SWAP1 SSTORE POP DUP4 ISZERO PUSH2 0x132E JUMPI PUSH1 0x1 DUP6 PUSH1 0x0 ADD PUSH1 0x8 PUSH2 0x100 EXP DUP2 SLOAD DUP2 PUSH1 0xFF MUL NOT AND SWAP1 DUP4 ISZERO ISZERO MUL OR SWAP1 SSTORE POP JUMPDEST DUP11 PUSH1 0x1 SWAP1 DUP2 PUSH2 0x133D SWAP2 SWAP1 PUSH2 0x51F4 JUMP JUMPDEST POP PUSH2 0x1346 PUSH2 0x27F0 JUMP JUMPDEST PUSH2 0x135E PUSH1 0x40 MLOAD DUP1 PUSH1 0x20 ADD PUSH1 0x40 MSTORE DUP1 PUSH1 0x0 DUP2 MSTORE POP PUSH2 0x27FA JUMP JUMPDEST PUSH2 0x1366 PUSH2 0x280E JUMP JUMPDEST PUSH2 0x136E PUSH2 0x2818 JUMP JUMPDEST DUP9 PUSH1 0x3 PUSH1 0x0 PUSH2 0x100 EXP DUP2 SLOAD DUP2 PUSH1 0xFF MUL NOT AND SWAP1 DUP4 PUSH1 0xFF AND MUL OR SWAP1 SSTORE POP DUP8 PUSH1 0x3 PUSH1 0x1 PUSH2 0x100 EXP DUP2 SLOAD DUP2 PUSH1 0xFF MUL NOT AND SWAP1 DUP4 PUSH1 0xFF AND MUL OR SWAP1 SSTORE POP DUP7 PUSH1 0x3 PUSH1 0x2 PUSH2 0x100 EXP DUP2 SLOAD DUP2 PUSH20 0xFFFFFFFFFFFFFFFFFFFFFFFFFFFFFFFFFFFFFFFF MUL NOT AND SWAP1 DUP4 PUSH20 0xFFFFFFFFFFFFFFFFFFFFFFFFFFFFFFFFFFFFFFFF AND MUL OR SWAP1 SSTORE POP DUP6 PUSH1 0x4 DUP2 SWAP1 SSTORE POP PUSH2 0x13F9 PUSH1 0x0 DUP1 SHL DUP12 PUSH2 0x226C JUMP JUMPDEST POP PUSH2 0x1424 PUSH32 0x44A854CABD360644E908FCD642B33FEDFB60C399D7B1E7E2051275F0B09B0BE5 DUP12 PUSH2 0x226C JUMP JUMPDEST POP PUSH2 0x144F PUSH32 0x3238A3641700084B9E028FE65D2B3BF551F4498C926CE0B8E97AA2EAEC0E4BF9 DUP12 PUSH2 0x226C JUMP JUMPDEST POP PUSH2 0x147A PUSH32 0x44A854CABD360644E908FCD642B33FEDFB60C399D7B1E7E2051275F0B09B0BE5 DUP1 PUSH2 0x284C JUMP JUMPDEST PUSH2 0x14C4 PUSH32 0x3238A3641700084B9E028FE65D2B3BF551F4498C926CE0B8E97AA2EAEC0E4BF9 PUSH32 0x44A854CABD360644E908FCD642B33FEDFB60C399D7B1E7E2051275F0B09B0BE5 PUSH2 0x284C JUMP JUMPDEST DUP4 ISZERO PUSH2 0x1520 JUMPI PUSH1 0x0 DUP6 PUSH1 0x0 ADD PUSH1 0x8 PUSH2 0x100 EXP DUP2 SLOAD DUP2 PUSH1 0xFF MUL NOT AND SWAP1 DUP4 ISZERO ISZERO MUL OR SWAP1 SSTORE POP PUSH32 0xC7F505B2F371AE2175EE4913F4499E1F2633A7B5936321EED1CDAEB6115181D2 PUSH1 0x1 PUSH1 0x40 MLOAD PUSH2 0x1517 SWAP2 SWAP1 PUSH2 0x5315 JUMP JUMPDEST PUSH1 0x40 MLOAD DUP1 SWAP2 SUB SWAP1 LOG1 JUMPDEST POP POP POP POP POP POP POP POP POP POP POP JUMP JUMPDEST PUSH1 0x0 DUP1 PUSH2 0x1538 PUSH2 0x28B7 JUMP JUMPDEST SWAP1 POP PUSH2 0x1561 DUP4 DUP3 PUSH1 0x0 ADD PUSH1 0x0 DUP8 DUP2 MSTORE PUSH1 0x20 ADD SWAP1 DUP2 MSTORE PUSH1 0x20 ADD PUSH1 0x0 KECCAK256 PUSH2 0x28DF SWAP1 SWAP2 SWAP1 PUSH4 0xFFFFFFFF AND JUMP JUMPDEST SWAP2 POP POP SWAP3 SWAP2 POP POP JUMP JUMPDEST PUSH1 0x0 DUP1 PUSH2 0x1575 PUSH2 0x2130 JUMP JUMPDEST SWAP1 POP DUP1 PUSH1 0x0 ADD PUSH1 0x0 DUP6 DUP2 MSTORE PUSH1 0x20 ADD SWAP1 DUP2 MSTORE PUSH1 0x20 ADD PUSH1 0x0 KECCAK256 PUSH1 0x0 ADD PUSH1 0x0 DUP5 PUSH20 0xFFFFFFFFFFFFFFFFFFFFFFFFFFFFFFFFFFFFFFFF AND PUSH20 0xFFFFFFFFFFFFFFFFFFFFFFFFFFFFFFFFFFFFFFFF AND DUP2 MSTORE PUSH1 0x20 ADD SWAP1 DUP2 MSTORE PUSH1 0x20 ADD PUSH1 0x0 KECCAK256 PUSH1 0x0 SWAP1 SLOAD SWAP1 PUSH2 0x100 EXP SWAP1 DIV PUSH1 0xFF AND SWAP2 POP POP SWAP3 SWAP2 POP POP JUMP JUMPDEST PUSH2 0x15EB PUSH2 0x23D8 JUMP JUMPDEST PUSH2 0x15F4 CALLER PUSH2 0x1D33 JUMP JUMPDEST PUSH2 0x1633 JUMPI PUSH1 0x40 MLOAD PUSH32 0x8C379A000000000000000000000000000000000000000000000000000000000 DUP2 MSTORE PUSH1 0x4 ADD PUSH2 0x162A SWAP1 PUSH2 0x537C JUMP JUMPDEST PUSH1 0x40 MLOAD DUP1 SWAP2 SUB SWAP1 REVERT JUMPDEST PUSH1 0x2 PUSH1 0x0 DUP2 SLOAD DUP1 SWAP3 SWAP2 SWAP1 PUSH2 0x1646 SWAP1 PUSH2 0x4DFB JUMP JUMPDEST SWAP2 SWAP1 POP SSTORE POP PUSH1 0x0 PUSH1 0x2 SLOAD SWAP1 POP DUP7 PUSH1 0x8 PUSH1 0x0 DUP4 DUP2 MSTORE PUSH1 0x20 ADD SWAP1 DUP2 MSTORE PUSH1 0x20 ADD PUSH1 0x0 KECCAK256 PUSH1 0x0 PUSH2 0x100 EXP DUP2 SLOAD DUP2 PUSH20 0xFFFFFFFFFFFFFFFFFFFFFFFFFFFFFFFFFFFFFFFF MUL NOT AND SWAP1 DUP4 PUSH20 0xFFFFFFFFFFFFFFFFFFFFFFFFFFFFFFFFFFFFFFFF AND MUL OR SWAP1 SSTORE POP DUP3 ISZERO PUSH2 0x1819 JUMPI DUP3 PUSH1 0xB PUSH1 0x0 DUP4 DUP2 MSTORE PUSH1 0x20 ADD SWAP1 DUP2 MSTORE PUSH1 0x20 ADD PUSH1 0x0 KECCAK256 PUSH1 0x0 PUSH2 0x100 EXP DUP2 SLOAD DUP2 PUSH1 0xFF MUL NOT AND SWAP1 DUP4 ISZERO ISZERO MUL OR SWAP1 SSTORE POP DUP6 PUSH1 0x9 PUSH1 0x0 DUP4 DUP2 MSTORE PUSH1 0x20 ADD SWAP1 DUP2 MSTORE PUSH1 0x20 ADD PUSH1 0x0 KECCAK256 PUSH1 0x0 PUSH2 0x100 EXP DUP2 SLOAD DUP2 PUSH20 0xFFFFFFFFFFFFFFFFFFFFFFFFFFFFFFFFFFFFFFFF MUL NOT AND SWAP1 DUP4 PUSH20 0xFFFFFFFFFFFFFFFFFFFFFFFFFFFFFFFFFFFFFFFF AND MUL OR SWAP1 SSTORE POP PUSH1 0x0 DUP7 SWAP1 POP DUP1 PUSH20 0xFFFFFFFFFFFFFFFFFFFFFFFFFFFFFFFFFFFFFFFF AND PUSH4 0xBC917C0 DUP4 CALLER DUP7 DUP11 DUP11 PUSH1 0x40 MLOAD DUP7 PUSH4 0xFFFFFFFF AND PUSH1 0xE0 SHL DUP2 MSTORE PUSH1 0x4 ADD PUSH2 0x176D SWAP6 SWAP5 SWAP4 SWAP3 SWAP2 SWAP1 PUSH2 0x539C JUMP JUMPDEST PUSH1 0x0 PUSH1 0x40 MLOAD DUP1 DUP4 SUB DUP2 PUSH1 0x0 DUP8 DUP1 EXTCODESIZE ISZERO DUP1 ISZERO PUSH2 0x1787 JUMPI PUSH1 0x0 DUP1 REVERT JUMPDEST POP GAS CALL ISZERO DUP1 ISZERO PUSH2 0x179B JUMPI RETURNDATASIZE PUSH1 0x0 DUP1 RETURNDATACOPY RETURNDATASIZE PUSH1 0x0 REVERT JUMPDEST POP POP POP POP DUP3 ISZERO PUSH2 0x1817 JUMPI DUP1 PUSH20 0xFFFFFFFFFFFFFFFFFFFFFFFFFFFFFFFFFFFFFFFF AND PUSH4 0xE8E2D37C CALLVALUE DUP5 PUSH1 0x1 CALLER PUSH1 0x40 MLOAD DUP6 PUSH4 0xFFFFFFFF AND PUSH1 0xE0 SHL DUP2 MSTORE PUSH1 0x4 ADD PUSH2 0x17E4 SWAP4 SWAP3 SWAP2 SWAP1 PUSH2 0x5420 JUMP JUMPDEST PUSH1 0x0 PUSH1 0x40 MLOAD DUP1 DUP4 SUB DUP2 DUP6 DUP9 DUP1 EXTCODESIZE ISZERO DUP1 ISZERO PUSH2 0x17FD JUMPI PUSH1 0x0 DUP1 REVERT JUMPDEST POP GAS CALL ISZERO DUP1 ISZERO PUSH2 0x1811 JUMPI RETURNDATASIZE PUSH1 0x0 DUP1 RETURNDATACOPY RETURNDATASIZE PUSH1 0x0 REVERT JUMPDEST POP POP POP POP POP JUMPDEST POP JUMPDEST PUSH1 0x1 PUSH1 0x7 PUSH1 0x0 DUP4 DUP2 MSTORE PUSH1 0x20 ADD SWAP1 DUP2 MSTORE PUSH1 0x20 ADD PUSH1 0x0 KECCAK256 DUP2 SWAP1 SSTORE POP PUSH2 0x184E DUP9 DUP3 PUSH1 0x1 PUSH1 0x40 MLOAD DUP1 PUSH1 0x20 ADD PUSH1 0x40 MSTORE DUP1 PUSH1 0x0 DUP2 MSTORE POP PUSH2 0x26BD JUMP JUMPDEST PUSH2 0x189C DUP2 DUP12 DUP12 DUP1 DUP1 PUSH1 0x1F ADD PUSH1 0x20 DUP1 SWAP2 DIV MUL PUSH1 0x20 ADD PUSH1 0x40 MLOAD SWAP1 DUP2 ADD PUSH1 0x40 MSTORE DUP1 SWAP4 SWAP3 SWAP2 SWAP1 DUP2 DUP2 MSTORE PUSH1 0x20 ADD DUP4 DUP4 DUP1 DUP3 DUP5 CALLDATACOPY PUSH1 0x0 DUP2 DUP5 ADD MSTORE PUSH1 0x1F NOT PUSH1 0x1F DUP3 ADD AND SWAP1 POP DUP1 DUP4 ADD SWAP3 POP POP POP POP POP POP POP PUSH2 0x28F9 JUMP JUMPDEST POP POP POP POP POP POP POP POP POP POP POP JUMP JUMPDEST PUSH1 0x3 PUSH1 0x1 SWAP1 SLOAD SWAP1 PUSH2 0x100 EXP SWAP1 DIV PUSH1 0xFF AND DUP2 JUMP JUMPDEST PUSH1 0x0 DUP1 SHL DUP2 JUMP JUMPDEST PUSH2 0x18D5 PUSH2 0x18CE PUSH2 0x2158 JUMP JUMPDEST DUP4 DUP4 PUSH2 0x2A2B JUMP JUMPDEST POP POP JUMP JUMPDEST PUSH1 0x8 PUSH1 0x20 MSTORE DUP1 PUSH1 0x0 MSTORE PUSH1 0x40 PUSH1 0x0 KECCAK256 PUSH1 0x0 SWAP2 POP SLOAD SWAP1 PUSH2 0x100 EXP SWAP1 DIV PUSH20 0xFFFFFFFFFFFFFFFFFFFFFFFFFFFFFFFFFFFFFFFF AND DUP2 JUMP JUMPDEST PUSH2 0x1914 PUSH2 0x23D8 JUMP JUMPDEST PUSH2 0x191C PUSH2 0x2BAA JUMP JUMPDEST DUP1 PUSH2 0x1927 CALLER DUP5 PUSH2 0x9DB JUMP JUMPDEST LT ISZERO PUSH2 0x1968 JUMPI PUSH1 0x40 MLOAD PUSH32 0x8C379A000000000000000000000000000000000000000000000000000000000 DUP2 MSTORE PUSH1 0x4 ADD PUSH2 0x195F SWAP1 PUSH2 0x54A3 JUMP JUMPDEST PUSH1 0x40 MLOAD DUP1 SWAP2 SUB SWAP1 REVERT JUMPDEST PUSH1 0xB PUSH1 0x0 DUP4 DUP2 MSTORE PUSH1 0x20 ADD SWAP1 DUP2 MSTORE PUSH1 0x20 ADD PUSH1 0x0 KECCAK256 PUSH1 0x0 SWAP1 SLOAD SWAP1 PUSH2 0x100 EXP SWAP1 DIV PUSH1 0xFF AND ISZERO PUSH2 0x1A35 JUMPI PUSH1 0x0 PUSH1 0x9 PUSH1 0x0 DUP5 DUP2 MSTORE PUSH1 0x20 ADD SWAP1 DUP2 MSTORE PUSH1 0x20 ADD PUSH1 0x0 KECCAK256 PUSH1 0x0 SWAP1 SLOAD SWAP1 PUSH2 0x100 EXP SWAP1 DIV PUSH20 0xFFFFFFFFFFFFFFFFFFFFFFFFFFFFFFFFFFFFFFFF AND SWAP1 POP DUP1 PUSH20 0xFFFFFFFFFFFFFFFFFFFFFFFFFFFFFFFFFFFFFFFF AND PUSH4 0xEB111CE3 DUP5 DUP5 PUSH1 0x40 MLOAD DUP4 PUSH4 0xFFFFFFFF AND PUSH1 0xE0 SHL DUP2 MSTORE PUSH1 0x4 ADD PUSH2 0x1A01 SWAP3 SWAP2 SWAP1 PUSH2 0x4D74 JUMP JUMPDEST PUSH1 0x0 PUSH1 0x40 MLOAD DUP1 DUP4 SUB DUP2 PUSH1 0x0 DUP8 DUP1 EXTCODESIZE ISZERO DUP1 ISZERO PUSH2 0x1A1B JUMPI PUSH1 0x0 DUP1 REVERT JUMPDEST POP GAS CALL ISZERO DUP1 ISZERO PUSH2 0x1A2F JUMPI RETURNDATASIZE PUSH1 0x0 DUP1 RETURNDATACOPY RETURNDATASIZE PUSH1 0x0 REVERT JUMPDEST POP POP POP POP POP JUMPDEST PUSH2 0x1A40 CALLER DUP4 DUP4 PUSH2 0x2BF0 JUMP JUMPDEST DUP1 PUSH1 0x7 PUSH1 0x0 DUP5 DUP2 MSTORE PUSH1 0x20 ADD SWAP1 DUP2 MSTORE PUSH1 0x20 ADD PUSH1 0x0 KECCAK256 SLOAD PUSH2 0x1A5F SWAP2 SWAP1 PUSH2 0x54C3 JUMP JUMPDEST PUSH1 0x7 PUSH1 0x0 DUP5 DUP2 MSTORE PUSH1 0x20 ADD SWAP1 DUP2 MSTORE PUSH1 0x20 ADD PUSH1 0x0 KECCAK256 DUP2 SWAP1 SSTORE POP PUSH2 0x1A7E PUSH2 0x2C97 JUMP JUMPDEST POP POP JUMP JUMPDEST PUSH2 0x1A8A PUSH2 0x23D8 JUMP JUMPDEST PUSH2 0x1AB4 PUSH32 0x44A854CABD360644E908FCD642B33FEDFB60C399D7B1E7E2051275F0B09B0BE5 CALLER PUSH2 0x156A JUMP JUMPDEST PUSH2 0x1AF3 JUMPI PUSH1 0x40 MLOAD PUSH32 0x8C379A000000000000000000000000000000000000000000000000000000000 DUP2 MSTORE PUSH1 0x4 ADD PUSH2 0x1AEA SWAP1 PUSH2 0x4D54 JUMP JUMPDEST PUSH1 0x40 MLOAD DUP1 SWAP2 SUB SWAP1 REVERT JUMPDEST PUSH1 0x0 DUP4 SWAP1 POP DUP1 PUSH20 0xFFFFFFFFFFFFFFFFFFFFFFFFFFFFFFFFFFFFFFFF AND PUSH4 0xB390C0AB DUP5 DUP5 PUSH1 0x40 MLOAD DUP4 PUSH4 0xFFFFFFFF AND PUSH1 0xE0 SHL DUP2 MSTORE PUSH1 0x4 ADD PUSH2 0x1B33 SWAP3 SWAP2 SWAP1 PUSH2 0x4D74 JUMP JUMPDEST PUSH1 0x0 PUSH1 0x40 MLOAD DUP1 DUP4 SUB DUP2 PUSH1 0x0 DUP8 DUP1 EXTCODESIZE ISZERO DUP1 ISZERO PUSH2 0x1B4D JUMPI PUSH1 0x0 DUP1 REVERT JUMPDEST POP GAS CALL ISZERO DUP1 ISZERO PUSH2 0x1B61 JUMPI RETURNDATASIZE PUSH1 0x0 DUP1 RETURNDATACOPY RETURNDATASIZE PUSH1 0x0 REVERT JUMPDEST POP POP POP POP POP POP POP POP JUMP JUMPDEST PUSH1 0x4 SLOAD DUP2 JUMP JUMPDEST PUSH1 0x0 PUSH2 0x1B9D PUSH32 0x44A854CABD360644E908FCD642B33FEDFB60C399D7B1E7E2051275F0B09B0BE5 DUP8 PUSH2 0x156A JUMP JUMPDEST ISZERO PUSH2 0x1BB1 JUMPI PUSH4 0xBC197C81 PUSH1 0xE0 SHL SWAP1 POP PUSH2 0x1BB2 JUMP JUMPDEST JUMPDEST SWAP6 SWAP5 POP POP POP POP POP JUMP JUMPDEST PUSH1 0x0 DUP1 PUSH1 0x3 PUSH1 0x0 SWAP1 SLOAD SWAP1 PUSH2 0x100 EXP SWAP1 DIV PUSH1 0xFF AND PUSH1 0xFF AND SUB PUSH2 0x1BDF JUMPI PUSH1 0x1 SWAP1 POP PUSH2 0x1CDA JUMP JUMPDEST PUSH1 0x1 PUSH1 0x3 PUSH1 0x0 SWAP1 SLOAD SWAP1 PUSH2 0x100 EXP SWAP1 DIV PUSH1 0xFF AND PUSH1 0xFF AND SUB PUSH2 0x1CD9 JUMPI PUSH2 0x1C23 PUSH32 0x3238A3641700084B9E028FE65D2B3BF551F4498C926CE0B8E97AA2EAEC0E4BF9 DUP4 PUSH2 0x156A JUMP JUMPDEST ISZERO PUSH2 0x1C31 JUMPI PUSH1 0x1 SWAP1 POP PUSH2 0x1CDA JUMP JUMPDEST PUSH1 0x4 SLOAD PUSH1 0x3 PUSH1 0x2 SWAP1 SLOAD SWAP1 PUSH2 0x100 EXP SWAP1 DIV PUSH20 0xFFFFFFFFFFFFFFFFFFFFFFFFFFFFFFFFFFFFFFFF AND PUSH20 0xFFFFFFFFFFFFFFFFFFFFFFFFFFFFFFFFFFFFFFFF AND PUSH4 0x70A08231 DUP5 PUSH1 0x40 MLOAD DUP3 PUSH4 0xFFFFFFFF AND PUSH1 0xE0 SHL DUP2 MSTORE PUSH1 0x4 ADD PUSH2 0x1C8F SWAP2 SWAP1 PUSH2 0x43D0 JUMP JUMPDEST PUSH1 0x20 PUSH1 0x40 MLOAD DUP1 DUP4 SUB DUP2 DUP7 GAS STATICCALL ISZERO DUP1 ISZERO PUSH2 0x1CAC JUMPI RETURNDATASIZE PUSH1 0x0 DUP1 RETURNDATACOPY RETURNDATASIZE PUSH1 0x0 REVERT JUMPDEST POP POP POP POP PUSH1 0x40 MLOAD RETURNDATASIZE PUSH1 0x1F NOT PUSH1 0x1F DUP3 ADD AND DUP3 ADD DUP1 PUSH1 0x40 MSTORE POP DUP2 ADD SWAP1 PUSH2 0x1CD0 SWAP2 SWAP1 PUSH2 0x4FC5 JUMP JUMPDEST LT ISZERO SWAP1 POP PUSH2 0x1CDA JUMP JUMPDEST JUMPDEST SWAP2 SWAP1 POP JUMP JUMPDEST PUSH1 0x0 DUP1 PUSH2 0x1CEA PUSH2 0x28B7 JUMP JUMPDEST SWAP1 POP PUSH2 0x1D09 DUP2 PUSH1 0x0 ADD PUSH1 0x0 DUP6 DUP2 MSTORE PUSH1 0x20 ADD SWAP1 DUP2 MSTORE PUSH1 0x20 ADD PUSH1 0x0 KECCAK256 PUSH2 0x2CA1 JUMP JUMPDEST SWAP2 POP POP SWAP2 SWAP1 POP JUMP JUMPDEST PUSH2 0x1D1A DUP3 PUSH2 0xB22 JUMP JUMPDEST PUSH2 0x1D23 DUP2 PUSH2 0x2258 JUMP JUMPDEST PUSH2 0x1D2D DUP4 DUP4 PUSH2 0x22C1 JUMP JUMPDEST POP POP POP POP JUMP JUMPDEST PUSH1 0x0 DUP1 PUSH1 0x3 PUSH1 0x1 SWAP1 SLOAD SWAP1 PUSH2 0x100 EXP SWAP1 DIV PUSH1 0xFF AND PUSH1 0xFF AND SUB PUSH2 0x1D57 JUMPI PUSH1 0x1 SWAP1 POP PUSH2 0x1E9D JUMP JUMPDEST PUSH1 0x1 PUSH1 0x3 PUSH1 0x1 SWAP1 SLOAD SWAP1 PUSH2 0x100 EXP SWAP1 DIV PUSH1 0xFF AND PUSH1 0xFF AND SUB PUSH2 0x1DA2 JUMPI PUSH2 0x1D9B PUSH32 0x44A854CABD360644E908FCD642B33FEDFB60C399D7B1E7E2051275F0B09B0BE5 DUP4 PUSH2 0x156A JUMP JUMPDEST SWAP1 POP PUSH2 0x1E9D JUMP JUMPDEST PUSH1 0x2 PUSH1 0x3 PUSH1 0x1 SWAP1 SLOAD SWAP1 PUSH2 0x100 EXP SWAP1 DIV PUSH1 0xFF AND PUSH1 0xFF AND SUB PUSH2 0x1E9C JUMPI PUSH2 0x1DE6 PUSH32 0x3238A3641700084B9E028FE65D2B3BF551F4498C926CE0B8E97AA2EAEC0E4BF9 DUP4 PUSH2 0x156A JUMP JUMPDEST ISZERO PUSH2 0x1DF4 JUMPI PUSH1 0x1 SWAP1 POP PUSH2 0x1E9D JUMP JUMPDEST PUSH1 0x4 SLOAD PUSH1 0x3 PUSH1 0x2 SWAP1 SLOAD SWAP1 PUSH2 0x100 EXP SWAP1 DIV PUSH20 0xFFFFFFFFFFFFFFFFFFFFFFFFFFFFFFFFFFFFFFFF AND PUSH20 0xFFFFFFFFFFFFFFFFFFFFFFFFFFFFFFFFFFFFFFFF AND PUSH4 0x70A08231 DUP5 PUSH1 0x40 MLOAD DUP3 PUSH4 0xFFFFFFFF AND PUSH1 0xE0 SHL DUP2 MSTORE PUSH1 0x4 ADD PUSH2 0x1E52 SWAP2 SWAP1 PUSH2 0x43D0 JUMP JUMPDEST PUSH1 0x20 PUSH1 0x40 MLOAD DUP1 DUP4 SUB DUP2 DUP7 GAS STATICCALL ISZERO DUP1 ISZERO PUSH2 0x1E6F JUMPI RETURNDATASIZE PUSH1 0x0 DUP1 RETURNDATACOPY RETURNDATASIZE PUSH1 0x0 REVERT JUMPDEST POP POP POP POP PUSH1 0x40 MLOAD RETURNDATASIZE PUSH1 0x1F NOT PUSH1 0x1F DUP3 ADD AND DUP3 ADD DUP1 PUSH1 0x40 MSTORE POP DUP2 ADD SWAP1 PUSH2 0x1E93 SWAP2 SWAP1 PUSH2 0x4FC5 JUMP JUMPDEST LT ISZERO SWAP1 POP PUSH2 0x1E9D JUMP JUMPDEST JUMPDEST SWAP2 SWAP1 POP JUMP JUMPDEST PUSH1 0x0 DUP1 PUSH2 0x1EAD PUSH2 0x208E JUMP JUMPDEST SWAP1 POP DUP1 PUSH1 0x1 ADD PUSH1 0x0 DUP6 PUSH20 0xFFFFFFFFFFFFFFFFFFFFFFFFFFFFFFFFFFFFFFFF AND PUSH20 0xFFFFFFFFFFFFFFFFFFFFFFFFFFFFFFFFFFFFFFFF AND DUP2 MSTORE PUSH1 0x20 ADD SWAP1 DUP2 MSTORE PUSH1 0x20 ADD PUSH1 0x0 KECCAK256 PUSH1 0x0 DUP5 PUSH20 0xFFFFFFFFFFFFFFFFFFFFFFFFFFFFFFFFFFFFFFFF AND PUSH20 0xFFFFFFFFFFFFFFFFFFFFFFFFFFFFFFFFFFFFFFFF AND DUP2 MSTORE PUSH1 0x20 ADD SWAP1 DUP2 MSTORE PUSH1 0x20 ADD PUSH1 0x0 KECCAK256 PUSH1 0x0 SWAP1 SLOAD SWAP1 PUSH2 0x100 EXP SWAP1 DIV PUSH1 0xFF AND SWAP2 POP POP SWAP3 SWAP2 POP POP JUMP JUMPDEST PUSH1 0x0 PUSH2 0x1F70 PUSH32 0x44A854CABD360644E908FCD642B33FEDFB60C399D7B1E7E2051275F0B09B0BE5 DUP8 PUSH2 0x156A JUMP JUMPDEST ISZERO PUSH2 0x1F84 JUMPI PUSH4 0xF23A6E61 PUSH1 0xE0 SHL SWAP1 POP PUSH2 0x1F85 JUMP JUMPDEST JUMPDEST SWAP6 SWAP5 POP POP POP POP POP JUMP JUMPDEST PUSH1 0x0 PUSH2 0x1F98 PUSH2 0x2158 JUMP JUMPDEST SWAP1 POP DUP1 PUSH20 0xFFFFFFFFFFFFFFFFFFFFFFFFFFFFFFFFFFFFFFFF AND DUP7 PUSH20 0xFFFFFFFFFFFFFFFFFFFFFFFFFFFFFFFFFFFFFFFF AND EQ ISZERO DUP1 ISZERO PUSH2 0x1FDD JUMPI POP PUSH2 0x1FDB DUP7 DUP3 PUSH2 0x1EA2 JUMP JUMPDEST ISZERO JUMPDEST ISZERO PUSH2 0x2021 JUMPI DUP1 DUP7 PUSH1 0x40 MLOAD PUSH32 0xE237D92200000000000000000000000000000000000000000000000000000000 DUP2 MSTORE PUSH1 0x4 ADD PUSH2 0x2018 SWAP3 SWAP2 SWAP1 PUSH2 0x4CDF JUMP JUMPDEST PUSH1 0x40 MLOAD DUP1 SWAP2 SUB SWAP1 REVERT JUMPDEST PUSH2 0x202E DUP7 DUP7 DUP7 DUP7 DUP7 PUSH2 0x2CB6 JUMP JUMPDEST POP POP POP POP POP POP JUMP JUMPDEST PUSH1 0x0 PUSH2 0x2062 PUSH32 0x44A854CABD360644E908FCD642B33FEDFB60C399D7B1E7E2051275F0B09B0BE5 DUP4 PUSH2 0x156A JUMP JUMPDEST SWAP1 POP SWAP2 SWAP1 POP JUMP JUMPDEST PUSH1 0xB PUSH1 0x20 MSTORE DUP1 PUSH1 0x0 MSTORE PUSH1 0x40 PUSH1 0x0 KECCAK256 PUSH1 0x0 SWAP2 POP SLOAD SWAP1 PUSH2 0x100 EXP SWAP1 DIV PUSH1 0xFF AND DUP2 JUMP JUMPDEST PUSH1 0x1 DUP2 JUMP JUMPDEST PUSH1 0x0 PUSH32 0x88BE536D5240C274A3B1D3A1BE54482FD9CAA294F08C62A7CDE569F49A3C4500 SWAP1 POP SWAP1 JUMP JUMPDEST PUSH1 0x0 PUSH32 0x4E2312E000000000000000000000000000000000000000000000000000000000 PUSH28 0xFFFFFFFFFFFFFFFFFFFFFFFFFFFFFFFFFFFFFFFFFFFFFFFFFFFFFFFF NOT AND DUP3 PUSH28 0xFFFFFFFFFFFFFFFFFFFFFFFFFFFFFFFFFFFFFFFFFFFFFFFFFFFFFFFF NOT AND EQ DUP1 PUSH2 0x2129 JUMPI POP PUSH2 0x2128 DUP3 PUSH2 0x2DC1 JUMP JUMPDEST JUMPDEST SWAP1 POP SWAP2 SWAP1 POP JUMP JUMPDEST PUSH1 0x0 PUSH32 0x2DD7BC7DEC4DCEEDDA775E58DD541E08A116C6C53815C0BD028192F7B626800 SWAP1 POP SWAP1 JUMP JUMPDEST PUSH1 0x0 CALLER SWAP1 POP SWAP1 JUMP JUMPDEST PUSH1 0x0 PUSH20 0xFFFFFFFFFFFFFFFFFFFFFFFFFFFFFFFFFFFFFFFF AND DUP5 PUSH20 0xFFFFFFFFFFFFFFFFFFFFFFFFFFFFFFFFFFFFFFFF AND SUB PUSH2 0x21D2 JUMPI PUSH1 0x0 PUSH1 0x40 MLOAD PUSH32 0x57F447CE00000000000000000000000000000000000000000000000000000000 DUP2 MSTORE PUSH1 0x4 ADD PUSH2 0x21C9 SWAP2 SWAP1 PUSH2 0x43D0 JUMP JUMPDEST PUSH1 0x40 MLOAD DUP1 SWAP2 SUB SWAP1 REVERT JUMPDEST PUSH1 0x0 PUSH20 0xFFFFFFFFFFFFFFFFFFFFFFFFFFFFFFFFFFFFFFFF AND DUP6 PUSH20 0xFFFFFFFFFFFFFFFFFFFFFFFFFFFFFFFFFFFFFFFF AND SUB PUSH2 0x2244 JUMPI PUSH1 0x0 PUSH1 0x40 MLOAD PUSH32 0x1A8351400000000000000000000000000000000000000000000000000000000 DUP2 MSTORE PUSH1 0x4 ADD PUSH2 0x223B SWAP2 SWAP1 PUSH2 0x43D0 JUMP JUMPDEST PUSH1 0x40 MLOAD DUP1 SWAP2 SUB SWAP1 REVERT JUMPDEST PUSH2 0x2251 DUP6 DUP6 DUP6 DUP6 DUP6 PUSH2 0x2E3B JUMP JUMPDEST POP POP POP POP POP JUMP JUMPDEST PUSH2 0x2269 DUP2 PUSH2 0x2264 PUSH2 0x2158 JUMP JUMPDEST PUSH2 0x2EED JUMP JUMPDEST POP JUMP JUMPDEST PUSH1 0x0 DUP1 PUSH2 0x2277 PUSH2 0x28B7 JUMP JUMPDEST SWAP1 POP PUSH1 0x0 PUSH2 0x2285 DUP6 DUP6 PUSH2 0x2F3E JUMP JUMPDEST SWAP1 POP DUP1 ISZERO PUSH2 0x22B6 JUMPI PUSH2 0x22B4 DUP5 DUP4 PUSH1 0x0 ADD PUSH1 0x0 DUP9 DUP2 MSTORE PUSH1 0x20 ADD SWAP1 DUP2 MSTORE PUSH1 0x20 ADD PUSH1 0x0 KECCAK256 PUSH2 0x303F SWAP1 SWAP2 SWAP1 PUSH4 0xFFFFFFFF AND JUMP JUMPDEST POP JUMPDEST DUP1 SWAP3 POP POP POP SWAP3 SWAP2 POP POP JUMP JUMPDEST PUSH1 0x0 DUP1 PUSH2 0x22CC PUSH2 0x28B7 JUMP JUMPDEST SWAP1 POP PUSH1 0x0 PUSH2 0x22DA DUP6 DUP6 PUSH2 0x306F JUMP JUMPDEST SWAP1 POP DUP1 ISZERO PUSH2 0x230B JUMPI PUSH2 0x2309 DUP5 DUP4 PUSH1 0x0 ADD PUSH1 0x0 DUP9 DUP2 MSTORE PUSH1 0x20 ADD SWAP1 DUP2 MSTORE PUSH1 0x20 ADD PUSH1 0x0 KECCAK256 PUSH2 0x3171 SWAP1 SWAP2 SWAP1 PUSH4 0xFFFFFFFF AND JUMP JUMPDEST POP JUMPDEST DUP1 SWAP3 POP POP POP SWAP3 SWAP2 POP POP JUMP JUMPDEST PUSH2 0x231E PUSH2 0x31A1 JUMP JUMPDEST PUSH1 0x0 PUSH2 0x2328 PUSH2 0x23B0 JUMP JUMPDEST SWAP1 POP PUSH1 0x0 DUP2 PUSH1 0x0 ADD PUSH1 0x0 PUSH2 0x100 EXP DUP2 SLOAD DUP2 PUSH1 0xFF MUL NOT AND SWAP1 DUP4 ISZERO ISZERO MUL OR SWAP1 SSTORE POP PUSH32 0x5DB9EE0A495BF2E6FF9C91A7834C1BA4FDD244A5E8AA4E537BD38AEAE4B073AA PUSH2 0x2370 PUSH2 0x2158 JUMP JUMPDEST PUSH1 0x40 MLOAD PUSH2 0x237D SWAP2 SWAP1 PUSH2 0x43D0 JUMP JUMPDEST PUSH1 0x40 MLOAD DUP1 SWAP2 SUB SWAP1 LOG1 POP JUMP JUMPDEST PUSH1 0x0 PUSH1 0x20 DUP3 MUL PUSH1 0x20 DUP5 ADD ADD MLOAD SWAP1 POP SWAP3 SWAP2 POP POP JUMP JUMPDEST PUSH1 0x0 PUSH1 0x20 DUP3 MUL PUSH1 0x20 DUP5 ADD ADD MLOAD SWAP1 POP SWAP3 SWAP2 POP POP JUMP JUMPDEST PUSH1 0x0 PUSH32 0xCD5ED15C6E187E77E9AEE88184C21F4F2182AB5827CB3B7E07FBEDCD63F03300 SWAP1 POP SWAP1 JUMP JUMPDEST PUSH2 0x23E0 PUSH2 0xE95 JUMP JUMPDEST ISZERO PUSH2 0x2417 JUMPI PUSH1 0x40 MLOAD PUSH32 0xD93C066500000000000000000000000000000000000000000000000000000000 DUP2 MSTORE PUSH1 0x4 ADD PUSH1 0x40 MLOAD DUP1 SWAP2 SUB SWAP1 REVERT JUMPDEST JUMP JUMPDEST PUSH1 0x0 DUP1 PUSH20 0xFFFFFFFFFFFFFFFFFFFFFFFFFFFFFFFFFFFFFFFF AND PUSH1 0x8 PUSH1 0x0 DUP6 DUP2 MSTORE PUSH1 0x20 ADD SWAP1 DUP2 MSTORE PUSH1 0x20 ADD PUSH1 0x0 KECCAK256 PUSH1 0x0 SWAP1 SLOAD SWAP1 PUSH2 0x100 EXP SWAP1 DIV PUSH20 0xFFFFFFFFFFFFFFFFFFFFFFFFFFFFFFFFFFFFFFFF AND PUSH20 0xFFFFFFFFFFFFFFFFFFFFFFFFFFFFFFFFFFFFFFFF AND EQ PUSH2 0x26B2 JUMPI PUSH1 0x8 PUSH1 0x0 DUP5 DUP2 MSTORE PUSH1 0x20 ADD SWAP1 DUP2 MSTORE PUSH1 0x20 ADD PUSH1 0x0 KECCAK256 PUSH1 0x0 SWAP1 SLOAD SWAP1 PUSH2 0x100 EXP SWAP1 DIV PUSH20 0xFFFFFFFFFFFFFFFFFFFFFFFFFFFFFFFFFFFFFFFF AND PUSH20 0xFFFFFFFFFFFFFFFFFFFFFFFFFFFFFFFFFFFFFFFF AND PUSH4 0x1FFC9A7 PUSH4 0xD9B67A26 PUSH1 0x40 MLOAD DUP3 PUSH4 0xFFFFFFFF AND PUSH1 0xE0 SHL DUP2 MSTORE PUSH1 0x4 ADD PUSH2 0x24F1 SWAP2 SWAP1 PUSH2 0x553F JUMP JUMPDEST PUSH1 0x20 PUSH1 0x40 MLOAD DUP1 DUP4 SUB DUP2 DUP7 GAS STATICCALL ISZERO DUP1 ISZERO PUSH2 0x250E JUMPI RETURNDATASIZE PUSH1 0x0 DUP1 RETURNDATACOPY RETURNDATASIZE PUSH1 0x0 REVERT JUMPDEST POP POP POP POP PUSH1 0x40 MLOAD RETURNDATASIZE PUSH1 0x1F NOT PUSH1 0x1F DUP3 ADD AND DUP3 ADD DUP1 PUSH1 0x40 MSTORE POP DUP2 ADD SWAP1 PUSH2 0x2532 SWAP2 SWAP1 PUSH2 0x556F JUMP JUMPDEST ISZERO PUSH2 0x25F5 JUMPI PUSH1 0x0 PUSH1 0x8 PUSH1 0x0 DUP6 DUP2 MSTORE PUSH1 0x20 ADD SWAP1 DUP2 MSTORE PUSH1 0x20 ADD PUSH1 0x0 KECCAK256 PUSH1 0x0 SWAP1 SLOAD SWAP1 PUSH2 0x100 EXP SWAP1 DIV PUSH20 0xFFFFFFFFFFFFFFFFFFFFFFFFFFFFFFFFFFFFFFFF AND SWAP1 POP PUSH1 0x0 DUP2 PUSH20 0xFFFFFFFFFFFFFFFFFFFFFFFFFFFFFFFFFFFFFFFF AND PUSH3 0xFDD58E DUP6 DUP8 PUSH1 0x40 MLOAD DUP4 PUSH4 0xFFFFFFFF AND PUSH1 0xE0 SHL DUP2 MSTORE PUSH1 0x4 ADD PUSH2 0x25AB SWAP3 SWAP2 SWAP1 PUSH2 0x4F87 JUMP JUMPDEST PUSH1 0x20 PUSH1 0x40 MLOAD DUP1 DUP4 SUB DUP2 DUP7 GAS STATICCALL ISZERO DUP1 ISZERO PUSH2 0x25C8 JUMPI RETURNDATASIZE PUSH1 0x0 DUP1 RETURNDATACOPY RETURNDATASIZE PUSH1 0x0 REVERT JUMPDEST POP POP POP POP PUSH1 0x40 MLOAD RETURNDATASIZE PUSH1 0x1F NOT PUSH1 0x1F DUP3 ADD AND DUP3 ADD DUP1 PUSH1 0x40 MSTORE POP DUP2 ADD SWAP1 PUSH2 0x25EC SWAP2 SWAP1 PUSH2 0x4FC5 JUMP JUMPDEST GT SWAP2 POP POP PUSH2 0x26B7 JUMP JUMPDEST PUSH1 0x0 PUSH1 0x8 PUSH1 0x0 DUP6 DUP2 MSTORE PUSH1 0x20 ADD SWAP1 DUP2 MSTORE PUSH1 0x20 ADD PUSH1 0x0 KECCAK256 PUSH1 0x0 SWAP1 SLOAD SWAP1 PUSH2 0x100 EXP SWAP1 DIV PUSH20 0xFFFFFFFFFFFFFFFFFFFFFFFFFFFFFFFFFFFFFFFF AND SWAP1 POP PUSH1 0x0 DUP2 PUSH20 0xFFFFFFFFFFFFFFFFFFFFFFFFFFFFFFFFFFFFFFFF AND PUSH4 0x70A08231 DUP6 PUSH1 0x40 MLOAD DUP3 PUSH4 0xFFFFFFFF AND PUSH1 0xE0 SHL DUP2 MSTORE PUSH1 0x4 ADD PUSH2 0x2668 SWAP2 SWAP1 PUSH2 0x43D0 JUMP JUMPDEST PUSH1 0x20 PUSH1 0x40 MLOAD DUP1 DUP4 SUB DUP2 DUP7 GAS STATICCALL ISZERO DUP1 ISZERO PUSH2 0x2685 JUMPI RETURNDATASIZE PUSH1 0x0 DUP1 RETURNDATACOPY RETURNDATASIZE PUSH1 0x0 REVERT JUMPDEST POP POP POP POP PUSH1 0x40 MLOAD RETURNDATASIZE PUSH1 0x1F NOT PUSH1 0x1F DUP3 ADD AND DUP3 ADD DUP1 PUSH1 0x40 MSTORE POP DUP2 ADD SWAP1 PUSH2 0x26A9 SWAP2 SWAP1 PUSH2 0x4FC5 JUMP JUMPDEST GT SWAP2 POP POP PUSH2 0x26B7 JUMP JUMPDEST PUSH1 0x1 SWAP1 POP JUMPDEST SWAP3 SWAP2 POP POP JUMP JUMPDEST PUSH1 0x0 PUSH20 0xFFFFFFFFFFFFFFFFFFFFFFFFFFFFFFFFFFFFFFFF AND DUP5 PUSH20 0xFFFFFFFFFFFFFFFFFFFFFFFFFFFFFFFFFFFFFFFF AND SUB PUSH2 0x272F JUMPI PUSH1 0x0 PUSH1 0x40 MLOAD PUSH32 0x57F447CE00000000000000000000000000000000000000000000000000000000 DUP2 MSTORE PUSH1 0x4 ADD PUSH2 0x2726 SWAP2 SWAP1 PUSH2 0x43D0 JUMP JUMPDEST PUSH1 0x40 MLOAD DUP1 SWAP2 SUB SWAP1 REVERT JUMPDEST PUSH1 0x0 DUP1 PUSH2 0x273C DUP6 DUP6 PUSH2 0x31E1 JUMP JUMPDEST SWAP2 POP SWAP2 POP PUSH2 0x274E PUSH1 0x0 DUP8 DUP5 DUP5 DUP8 PUSH2 0x2E3B JUMP JUMPDEST POP POP POP POP POP POP JUMP JUMPDEST PUSH2 0x275E PUSH2 0x23D8 JUMP JUMPDEST PUSH1 0x0 PUSH2 0x2768 PUSH2 0x23B0 JUMP JUMPDEST SWAP1 POP PUSH1 0x1 DUP2 PUSH1 0x0 ADD PUSH1 0x0 PUSH2 0x100 EXP DUP2 SLOAD DUP2 PUSH1 0xFF MUL NOT AND SWAP1 DUP4 ISZERO ISZERO MUL OR SWAP1 SSTORE POP PUSH32 0x62E78CEA01BEE320CD4E420270B5EA74000D11B0C9F74754EBDBFC544B05A258 PUSH2 0x27B0 PUSH2 0x2158 JUMP JUMPDEST PUSH1 0x40 MLOAD PUSH2 0x27BD SWAP2 SWAP1 PUSH2 0x43D0 JUMP JUMPDEST PUSH1 0x40 MLOAD DUP1 SWAP2 SUB SWAP1 LOG1 POP JUMP JUMPDEST PUSH1 0x0 PUSH32 0xF0C57E16840DF040F15088DC2F81FE391C3923BEC73E23A9662EFC9C229C6A00 SWAP1 POP SWAP1 JUMP JUMPDEST PUSH2 0x27F8 PUSH2 0x3211 JUMP JUMPDEST JUMP JUMPDEST PUSH2 0x2802 PUSH2 0x3211 JUMP JUMPDEST PUSH2 0x280B DUP2 PUSH2 0x3251 JUMP JUMPDEST POP JUMP JUMPDEST PUSH2 0x2816 PUSH2 0x3211 JUMP JUMPDEST JUMP JUMPDEST PUSH2 0x2820 PUSH2 0x3211 JUMP JUMPDEST PUSH1 0x0 PUSH2 0x282A PUSH2 0x23B0 JUMP JUMPDEST SWAP1 POP PUSH1 0x0 DUP2 PUSH1 0x0 ADD PUSH1 0x0 PUSH2 0x100 EXP DUP2 SLOAD DUP2 PUSH1 0xFF MUL NOT AND SWAP1 DUP4 ISZERO ISZERO MUL OR SWAP1 SSTORE POP POP JUMP JUMPDEST PUSH1 0x0 PUSH2 0x2856 PUSH2 0x2130 JUMP JUMPDEST SWAP1 POP PUSH1 0x0 PUSH2 0x2863 DUP5 PUSH2 0xB22 JUMP JUMPDEST SWAP1 POP DUP3 DUP3 PUSH1 0x0 ADD PUSH1 0x0 DUP7 DUP2 MSTORE PUSH1 0x20 ADD SWAP1 DUP2 MSTORE PUSH1 0x20 ADD PUSH1 0x0 KECCAK256 PUSH1 0x1 ADD DUP2 SWAP1 SSTORE POP DUP3 DUP2 DUP6 PUSH32 0xBD79B86FFE0AB8E8776151514217CD7CACD52C909F66475C3AF44E129F0B00FF PUSH1 0x40 MLOAD PUSH1 0x40 MLOAD DUP1 SWAP2 SUB SWAP1 LOG4 POP POP POP POP JUMP JUMPDEST PUSH1 0x0 PUSH32 0xC1F6FE24621CE81EC5827CAF0253CADB74709B061630E6B55E82371705932000 SWAP1 POP SWAP1 JUMP JUMPDEST PUSH1 0x0 PUSH2 0x28EE DUP4 PUSH1 0x0 ADD DUP4 PUSH2 0x3265 JUMP JUMPDEST PUSH1 0x0 SHR SWAP1 POP SWAP3 SWAP2 POP POP JUMP JUMPDEST PUSH1 0x60 PUSH2 0x2903 PUSH2 0x23D8 JUMP JUMPDEST PUSH1 0x14 PUSH1 0x6 PUSH1 0x0 DUP6 DUP2 MSTORE PUSH1 0x20 ADD SWAP1 DUP2 MSTORE PUSH1 0x20 ADD PUSH1 0x0 KECCAK256 DUP1 SLOAD PUSH2 0x2923 SWAP1 PUSH2 0x4BE7 JUMP JUMPDEST SWAP1 POP GT ISZERO PUSH2 0x2966 JUMPI PUSH1 0x40 MLOAD PUSH32 0x8C379A000000000000000000000000000000000000000000000000000000000 DUP2 MSTORE PUSH1 0x4 ADD PUSH2 0x295D SWAP1 PUSH2 0x55E8 JUMP JUMPDEST PUSH1 0x40 MLOAD DUP1 SWAP2 SUB SWAP1 REVERT JUMPDEST DUP2 PUSH1 0x6 PUSH1 0x0 DUP6 DUP2 MSTORE PUSH1 0x20 ADD SWAP1 DUP2 MSTORE PUSH1 0x20 ADD PUSH1 0x0 KECCAK256 SWAP1 DUP2 PUSH2 0x2986 SWAP2 SWAP1 PUSH2 0x51F4 JUMP JUMPDEST POP PUSH1 0x6 PUSH1 0x0 DUP5 DUP2 MSTORE PUSH1 0x20 ADD SWAP1 DUP2 MSTORE PUSH1 0x20 ADD PUSH1 0x0 KECCAK256 DUP1 SLOAD PUSH2 0x29A5 SWAP1 PUSH2 0x4BE7 JUMP JUMPDEST DUP1 PUSH1 0x1F ADD PUSH1 0x20 DUP1 SWAP2 DIV MUL PUSH1 0x20 ADD PUSH1 0x40 MLOAD SWAP1 DUP2 ADD PUSH1 0x40 MSTORE DUP1 SWAP3 SWAP2 SWAP1 DUP2 DUP2 MSTORE PUSH1 0x20 ADD DUP3 DUP1 SLOAD PUSH2 0x29D1 SWAP1 PUSH2 0x4BE7 JUMP JUMPDEST DUP1 ISZERO PUSH2 0x2A1E JUMPI DUP1 PUSH1 0x1F LT PUSH2 0x29F3 JUMPI PUSH2 0x100 DUP1 DUP4 SLOAD DIV MUL DUP4 MSTORE SWAP2 PUSH1 0x20 ADD SWAP2 PUSH2 0x2A1E JUMP JUMPDEST DUP3 ADD SWAP2 SWAP1 PUSH1 0x0 MSTORE PUSH1 0x20 PUSH1 0x0 KECCAK256 SWAP1 JUMPDEST DUP2 SLOAD DUP2 MSTORE SWAP1 PUSH1 0x1 ADD SWAP1 PUSH1 0x20 ADD DUP1 DUP4 GT PUSH2 0x2A01 JUMPI DUP3 SWAP1 SUB PUSH1 0x1F AND DUP3 ADD SWAP2 JUMPDEST POP POP POP POP POP SWAP1 POP SWAP3 SWAP2 POP POP JUMP JUMPDEST PUSH1 0x0 PUSH2 0x2A35 PUSH2 0x208E JUMP JUMPDEST SWAP1 POP PUSH1 0x0 PUSH20 0xFFFFFFFFFFFFFFFFFFFFFFFFFFFFFFFFFFFFFFFF AND DUP4 PUSH20 0xFFFFFFFFFFFFFFFFFFFFFFFFFFFFFFFFFFFFFFFF AND SUB PUSH2 0x2AA9 JUMPI PUSH1 0x0 PUSH1 0x40 MLOAD PUSH32 0xCED3E10000000000000000000000000000000000000000000000000000000000 DUP2 MSTORE PUSH1 0x4 ADD PUSH2 0x2AA0 SWAP2 SWAP1 PUSH2 0x43D0 JUMP JUMPDEST PUSH1 0x40 MLOAD DUP1 SWAP2 SUB SWAP1 REVERT JUMPDEST DUP2 DUP2 PUSH1 0x1 ADD PUSH1 0x0 DUP7 PUSH20 0xFFFFFFFFFFFFFFFFFFFFFFFFFFFFFFFFFFFFFFFF AND PUSH20 0xFFFFFFFFFFFFFFFFFFFFFFFFFFFFFFFFFFFFFFFF AND DUP2 MSTORE PUSH1 0x20 ADD SWAP1 DUP2 MSTORE PUSH1 0x20 ADD PUSH1 0x0 KECCAK256 PUSH1 0x0 DUP6 PUSH20 0xFFFFFFFFFFFFFFFFFFFFFFFFFFFFFFFFFFFFFFFF AND PUSH20 0xFFFFFFFFFFFFFFFFFFFFFFFFFFFFFFFFFFFFFFFF AND DUP2 MSTORE PUSH1 0x20 ADD SWAP1 DUP2 MSTORE PUSH1 0x20 ADD PUSH1 0x0 KECCAK256 PUSH1 0x0 PUSH2 0x100 EXP DUP2 SLOAD DUP2 PUSH1 0xFF MUL NOT AND SWAP1 DUP4 ISZERO ISZERO MUL OR SWAP1 SSTORE POP DUP3 PUSH20 0xFFFFFFFFFFFFFFFFFFFFFFFFFFFFFFFFFFFFFFFF AND DUP5 PUSH20 0xFFFFFFFFFFFFFFFFFFFFFFFFFFFFFFFFFFFFFFFF AND PUSH32 0x17307EAB39AB6107E8899845AD3D59BD9653F200F220920489CA2B5937696C31 DUP5 PUSH1 0x40 MLOAD PUSH2 0x2B9C SWAP2 SWAP1 PUSH2 0x3F2E JUMP JUMPDEST PUSH1 0x40 MLOAD DUP1 SWAP2 SUB SWAP1 LOG3 POP POP POP POP JUMP JUMPDEST PUSH1 0x2 PUSH1 0x0 SLOAD SUB PUSH2 0x2BE6 JUMPI PUSH1 0x40 MLOAD PUSH32 0x3EE5AEB500000000000000000000000000000000000000000000000000000000 DUP2 MSTORE PUSH1 0x4 ADD PUSH1 0x40 MLOAD DUP1 SWAP2 SUB SWAP1 REVERT JUMPDEST PUSH1 0x2 PUSH1 0x0 DUP2 SWAP1 SSTORE POP JUMP JUMPDEST PUSH1 0x0 PUSH20 0xFFFFFFFFFFFFFFFFFFFFFFFFFFFFFFFFFFFFFFFF AND DUP4 PUSH20 0xFFFFFFFFFFFFFFFFFFFFFFFFFFFFFFFFFFFFFFFF AND SUB PUSH2 0x2C62 JUMPI PUSH1 0x0 PUSH1 0x40 MLOAD PUSH32 0x1A8351400000000000000000000000000000000000000000000000000000000 DUP2 MSTORE PUSH1 0x4 ADD PUSH2 0x2C59 SWAP2 SWAP1 PUSH2 0x43D0 JUMP JUMPDEST PUSH1 0x40 MLOAD DUP1 SWAP2 SUB SWAP1 REVERT JUMPDEST PUSH1 0x0 DUP1 PUSH2 0x2C6F DUP5 DUP5 PUSH2 0x31E1 JUMP JUMPDEST SWAP2 POP SWAP2 POP PUSH2 0x2C90 DUP6 PUSH1 0x0 DUP5 DUP5 PUSH1 0x40 MLOAD DUP1 PUSH1 0x20 ADD PUSH1 0x40 MSTORE DUP1 PUSH1 0x0 DUP2 MSTORE POP PUSH2 0x2E3B JUMP JUMPDEST POP POP POP POP POP JUMP JUMPDEST PUSH1 0x1 PUSH1 0x0 DUP2 SWAP1 SSTORE POP JUMP JUMPDEST PUSH1 0x0 PUSH2 0x2CAF DUP3 PUSH1 0x0 ADD PUSH2 0x3290 JUMP JUMPDEST SWAP1 POP SWAP2 SWAP1 POP JUMP JUMPDEST PUSH1 0x0 PUSH20 0xFFFFFFFFFFFFFFFFFFFFFFFFFFFFFFFFFFFFFFFF AND DUP5 PUSH20 0xFFFFFFFFFFFFFFFFFFFFFFFFFFFFFFFFFFFFFFFF AND SUB PUSH2 0x2D28 JUMPI PUSH1 0x0 PUSH1 0x40 MLOAD PUSH32 0x57F447CE00000000000000000000000000000000000000000000000000000000 DUP2 MSTORE PUSH1 0x4 ADD PUSH2 0x2D1F SWAP2 SWAP1 PUSH2 0x43D0 JUMP JUMPDEST PUSH1 0x40 MLOAD DUP1 SWAP2 SUB SWAP1 REVERT JUMPDEST PUSH1 0x0 PUSH20 0xFFFFFFFFFFFFFFFFFFFFFFFFFFFFFFFFFFFFFFFF AND DUP6 PUSH20 0xFFFFFFFFFFFFFFFFFFFFFFFFFFFFFFFFFFFFFFFF AND SUB PUSH2 0x2D9A JUMPI PUSH1 0x0 PUSH1 0x40 MLOAD PUSH32 0x1A8351400000000000000000000000000000000000000000000000000000000 DUP2 MSTORE PUSH1 0x4 ADD PUSH2 0x2D91 SWAP2 SWAP1 PUSH2 0x43D0 JUMP JUMPDEST PUSH1 0x40 MLOAD DUP1 SWAP2 SUB SWAP1 REVERT JUMPDEST PUSH1 0x0 DUP1 PUSH2 0x2DA7 DUP6 DUP6 PUSH2 0x31E1 JUMP JUMPDEST SWAP2 POP SWAP2 POP PUSH2 0x2DB8 DUP8 DUP8 DUP5 DUP5 DUP8 PUSH2 0x2E3B JUMP JUMPDEST POP POP POP POP POP POP POP JUMP JUMPDEST PUSH1 0x0 PUSH32 0x5A05180F00000000000000000000000000000000000000000000000000000000 PUSH28 0xFFFFFFFFFFFFFFFFFFFFFFFFFFFFFFFFFFFFFFFFFFFFFFFFFFFFFFFF NOT AND DUP3 PUSH28 0xFFFFFFFFFFFFFFFFFFFFFFFFFFFFFFFFFFFFFFFFFFFFFFFFFFFFFFFF NOT AND EQ DUP1 PUSH2 0x2E34 JUMPI POP PUSH2 0x2E33 DUP3 PUSH2 0x32A1 JUMP JUMPDEST JUMPDEST SWAP1 POP SWAP2 SWAP1 POP JUMP JUMPDEST PUSH2 0x2E47 DUP6 DUP6 DUP6 DUP6 PUSH2 0x331B JUMP JUMPDEST PUSH1 0x0 PUSH20 0xFFFFFFFFFFFFFFFFFFFFFFFFFFFFFFFFFFFFFFFF AND DUP5 PUSH20 0xFFFFFFFFFFFFFFFFFFFFFFFFFFFFFFFFFFFFFFFF AND EQ PUSH2 0x2EE6 JUMPI PUSH1 0x0 PUSH2 0x2E85 PUSH2 0x2158 JUMP JUMPDEST SWAP1 POP PUSH1 0x1 DUP5 MLOAD SUB PUSH2 0x2ED5 JUMPI PUSH1 0x0 PUSH2 0x2EA6 PUSH1 0x0 DUP7 PUSH2 0x239C SWAP1 SWAP2 SWAP1 PUSH4 0xFFFFFFFF AND JUMP JUMPDEST SWAP1 POP PUSH1 0x0 PUSH2 0x2EBE PUSH1 0x0 DUP7 PUSH2 0x239C SWAP1 SWAP2 SWAP1 PUSH4 0xFFFFFFFF AND JUMP JUMPDEST SWAP1 POP PUSH2 0x2ECE DUP4 DUP10 DUP10 DUP6 DUP6 DUP10 PUSH2 0x36DF JUMP JUMPDEST POP POP PUSH2 0x2EE4 JUMP JUMPDEST PUSH2 0x2EE3 DUP2 DUP8 DUP8 DUP8 DUP8 DUP8 PUSH2 0x3893 JUMP JUMPDEST JUMPDEST POP JUMPDEST POP POP POP POP POP JUMP JUMPDEST PUSH2 0x2EF7 DUP3 DUP3 PUSH2 0x156A JUMP JUMPDEST PUSH2 0x2F3A JUMPI DUP1 DUP3 PUSH1 0x40 MLOAD PUSH32 0xE2517D3F00000000000000000000000000000000000000000000000000000000 DUP2 MSTORE PUSH1 0x4 ADD PUSH2 0x2F31 SWAP3 SWAP2 SWAP1 PUSH2 0x5608 JUMP JUMPDEST PUSH1 0x40 MLOAD DUP1 SWAP2 SUB SWAP1 REVERT JUMPDEST POP POP JUMP JUMPDEST PUSH1 0x0 DUP1 PUSH2 0x2F49 PUSH2 0x2130 JUMP JUMPDEST SWAP1 POP PUSH2 0x2F55 DUP5 DUP5 PUSH2 0x156A JUMP JUMPDEST PUSH2 0x3033 JUMPI PUSH1 0x1 DUP2 PUSH1 0x0 ADD PUSH1 0x0 DUP7 DUP2 MSTORE PUSH1 0x20 ADD SWAP1 DUP2 MSTORE PUSH1 0x20 ADD PUSH1 0x0 KECCAK256 PUSH1 0x0 ADD PUSH1 0x0 DUP6 PUSH20 0xFFFFFFFFFFFFFFFFFFFFFFFFFFFFFFFFFFFFFFFF AND PUSH20 0xFFFFFFFFFFFFFFFFFFFFFFFFFFFFFFFFFFFFFFFF AND DUP2 MSTORE PUSH1 0x20 ADD SWAP1 DUP2 MSTORE PUSH1 0x20 ADD PUSH1 0x0 KECCAK256 PUSH1 0x0 PUSH2 0x100 EXP DUP2 SLOAD DUP2 PUSH1 0xFF MUL NOT AND SWAP1 DUP4 ISZERO ISZERO MUL OR SWAP1 SSTORE POP PUSH2 0x2FCF PUSH2 0x2158 JUMP JUMPDEST PUSH20 0xFFFFFFFFFFFFFFFFFFFFFFFFFFFFFFFFFFFFFFFF AND DUP4 PUSH20 0xFFFFFFFFFFFFFFFFFFFFFFFFFFFFFFFFFFFFFFFF AND DUP6 PUSH32 0x2F8788117E7EFF1D82E926EC794901D17C78024A50270940304540A733656F0D PUSH1 0x40 MLOAD PUSH1 0x40 MLOAD DUP1 SWAP2 SUB SWAP1 LOG4 PUSH1 0x1 SWAP2 POP POP PUSH2 0x3039 JUMP JUMPDEST PUSH1 0x0 SWAP2 POP POP JUMPDEST SWAP3 SWAP2 POP POP JUMP JUMPDEST PUSH1 0x0 PUSH2 0x3067 DUP4 PUSH1 0x0 ADD DUP4 PUSH20 0xFFFFFFFFFFFFFFFFFFFFFFFFFFFFFFFFFFFFFFFF AND PUSH1 0x0 SHL PUSH2 0x3A47 JUMP JUMPDEST SWAP1 POP SWAP3 SWAP2 POP POP JUMP JUMPDEST PUSH1 0x0 DUP1 PUSH2 0x307A PUSH2 0x2130 JUMP JUMPDEST SWAP1 POP PUSH2 0x3086 DUP5 DUP5 PUSH2 0x156A JUMP JUMPDEST ISZERO PUSH2 0x3165 JUMPI PUSH1 0x0 DUP2 PUSH1 0x0 ADD PUSH1 0x0 DUP7 DUP2 MSTORE PUSH1 0x20 ADD SWAP1 DUP2 MSTORE PUSH1 0x20 ADD PUSH1 0x0 KECCAK256 PUSH1 0x0 ADD PUSH1 0x0 DUP6 PUSH20 0xFFFFFFFFFFFFFFFFFFFFFFFFFFFFFFFFFFFFFFFF AND PUSH20 0xFFFFFFFFFFFFFFFFFFFFFFFFFFFFFFFFFFFFFFFF AND DUP2 MSTORE PUSH1 0x20 ADD SWAP1 DUP2 MSTORE PUSH1 0x20 ADD PUSH1 0x0 KECCAK256 PUSH1 0x0 PUSH2 0x100 EXP DUP2 SLOAD DUP2 PUSH1 0xFF MUL NOT AND SWAP1 DUP4 ISZERO ISZERO MUL OR SWAP1 SSTORE POP PUSH2 0x3101 PUSH2 0x2158 JUMP JUMPDEST PUSH20 0xFFFFFFFFFFFFFFFFFFFFFFFFFFFFFFFFFFFFFFFF AND DUP4 PUSH20 0xFFFFFFFFFFFFFFFFFFFFFFFFFFFFFFFFFFFFFFFF AND DUP6 PUSH32 0xF6391F5C32D9C69D2A47EA670B442974B53935D1EDC7FD64EB21E047A839171B PUSH1 0x40 MLOAD PUSH1 0x40 MLOAD DUP1 SWAP2 SUB SWAP1 LOG4 PUSH1 0x1 SWAP2 POP POP PUSH2 0x316B JUMP JUMPDEST PUSH1 0x0 SWAP2 POP POP JUMPDEST SWAP3 SWAP2 POP POP JUMP JUMPDEST PUSH1 0x0 PUSH2 0x3199 DUP4 PUSH1 0x0 ADD DUP4 PUSH20 0xFFFFFFFFFFFFFFFFFFFFFFFFFFFFFFFFFFFFFFFF AND PUSH1 0x0 SHL PUSH2 0x3AB7 JUMP JUMPDEST SWAP1 POP SWAP3 SWAP2 POP POP JUMP JUMPDEST PUSH2 0x31A9 PUSH2 0xE95 JUMP JUMPDEST PUSH2 0x31DF JUMPI PUSH1 0x40 MLOAD PUSH32 0x8DFC202B00000000000000000000000000000000000000000000000000000000 DUP2 MSTORE PUSH1 0x4 ADD PUSH1 0x40 MLOAD DUP1 SWAP2 SUB SWAP1 REVERT JUMPDEST JUMP JUMPDEST PUSH1 0x60 DUP1 PUSH1 0x40 MLOAD SWAP2 POP PUSH1 0x1 DUP3 MSTORE DUP4 PUSH1 0x20 DUP4 ADD MSTORE PUSH1 0x40 DUP3 ADD SWAP1 POP PUSH1 0x1 DUP2 MSTORE DUP3 PUSH1 0x20 DUP3 ADD MSTORE PUSH1 0x40 DUP2 ADD PUSH1 0x40 MSTORE SWAP3 POP SWAP3 SWAP1 POP JUMP JUMPDEST PUSH2 0x3219 PUSH2 0x3BCB JUMP JUMPDEST PUSH2 0x324F JUMPI PUSH1 0x40 MLOAD PUSH32 0xD7E6BCF800000000000000000000000000000000000000000000000000000000 DUP2 MSTORE PUSH1 0x4 ADD PUSH1 0x40 MLOAD DUP1 SWAP2 SUB SWAP1 REVERT JUMPDEST JUMP JUMPDEST PUSH2 0x3259 PUSH2 0x3211 JUMP JUMPDEST PUSH2 0x3262 DUP2 PUSH2 0x3BEB JUMP JUMPDEST POP JUMP JUMPDEST PUSH1 0x0 DUP3 PUSH1 0x0 ADD DUP3 DUP2 SLOAD DUP2 LT PUSH2 0x327D JUMPI PUSH2 0x327C PUSH2 0x4D9D JUMP JUMPDEST JUMPDEST SWAP1 PUSH1 0x0 MSTORE PUSH1 0x20 PUSH1 0x0 KECCAK256 ADD SLOAD SWAP1 POP SWAP3 SWAP2 POP POP JUMP JUMPDEST PUSH1 0x0 DUP2 PUSH1 0x0 ADD DUP1 SLOAD SWAP1 POP SWAP1 POP SWAP2 SWAP1 POP JUMP JUMPDEST PUSH1 0x0 PUSH32 0x7965DB0B00000000000000000000000000000000000000000000000000000000 PUSH28 0xFFFFFFFFFFFFFFFFFFFFFFFFFFFFFFFFFFFFFFFFFFFFFFFFFFFFFFFF NOT AND DUP3 PUSH28 0xFFFFFFFFFFFFFFFFFFFFFFFFFFFFFFFFFFFFFFFFFFFFFFFFFFFFFFFF NOT AND EQ DUP1 PUSH2 0x3314 JUMPI POP PUSH2 0x3313 DUP3 PUSH2 0x3C0D JUMP JUMPDEST JUMPDEST SWAP1 POP SWAP2 SWAP1 POP JUMP JUMPDEST PUSH1 0x0 PUSH2 0x3325 PUSH2 0x208E JUMP JUMPDEST SWAP1 POP DUP2 MLOAD DUP4 MLOAD EQ PUSH2 0x3371 JUMPI DUP3 MLOAD DUP3 MLOAD PUSH1 0x40 MLOAD PUSH32 0x5B05999100000000000000000000000000000000000000000000000000000000 DUP2 MSTORE PUSH1 0x4 ADD PUSH2 0x3368 SWAP3 SWAP2 SWAP1 PUSH2 0x4D74 JUMP JUMPDEST PUSH1 0x40 MLOAD DUP1 SWAP2 SUB SWAP1 REVERT JUMPDEST PUSH1 0x0 PUSH2 0x337B PUSH2 0x2158 JUMP JUMPDEST SWAP1 POP PUSH1 0x0 JUMPDEST DUP5 MLOAD DUP2 LT ISZERO PUSH2 0x3599 JUMPI PUSH1 0x0 PUSH2 0x339E DUP3 DUP8 PUSH2 0x239C SWAP1 SWAP2 SWAP1 PUSH4 0xFFFFFFFF AND JUMP JUMPDEST SWAP1 POP PUSH1 0x0 PUSH2 0x33B5 DUP4 DUP8 PUSH2 0x239C SWAP1 SWAP2 SWAP1 PUSH4 0xFFFFFFFF AND JUMP JUMPDEST SWAP1 POP PUSH1 0x0 PUSH20 0xFFFFFFFFFFFFFFFFFFFFFFFFFFFFFFFFFFFFFFFF AND DUP10 PUSH20 0xFFFFFFFFFFFFFFFFFFFFFFFFFFFFFFFFFFFFFFFF AND EQ PUSH2 0x34E8 JUMPI PUSH1 0x0 DUP6 PUSH1 0x0 ADD PUSH1 0x0 DUP5 DUP2 MSTORE PUSH1 0x20 ADD SWAP1 DUP2 MSTORE PUSH1 0x20 ADD PUSH1 0x0 KECCAK256 PUSH1 0x0 DUP12 PUSH20 0xFFFFFFFFFFFFFFFFFFFFFFFFFFFFFFFFFFFFFFFF AND PUSH20 0xFFFFFFFFFFFFFFFFFFFFFFFFFFFFFFFFFFFFFFFF AND DUP2 MSTORE PUSH1 0x20 ADD SWAP1 DUP2 MSTORE PUSH1 0x20 ADD PUSH1 0x0 KECCAK256 SLOAD SWAP1 POP DUP2 DUP2 LT ISZERO PUSH2 0x348D JUMPI DUP10 DUP2 DUP4 DUP6 PUSH1 0x40 MLOAD PUSH32 0x3DEE4C500000000000000000000000000000000000000000000000000000000 DUP2 MSTORE PUSH1 0x4 ADD PUSH2 0x3484 SWAP5 SWAP4 SWAP3 SWAP2 SWAP1 PUSH2 0x5631 JUMP JUMPDEST PUSH1 0x40 MLOAD DUP1 SWAP2 SUB SWAP1 REVERT JUMPDEST DUP2 DUP2 SUB DUP7 PUSH1 0x0 ADD PUSH1 0x0 DUP6 DUP2 MSTORE PUSH1 0x20 ADD SWAP1 DUP2 MSTORE PUSH1 0x20 ADD PUSH1 0x0 KECCAK256 PUSH1 0x0 DUP13 PUSH20 0xFFFFFFFFFFFFFFFFFFFFFFFFFFFFFFFFFFFFFFFF AND PUSH20 0xFFFFFFFFFFFFFFFFFFFFFFFFFFFFFFFFFFFFFFFF AND DUP2 MSTORE PUSH1 0x20 ADD SWAP1 DUP2 MSTORE PUSH1 0x20 ADD PUSH1 0x0 KECCAK256 DUP2 SWAP1 SSTORE POP POP JUMPDEST PUSH1 0x0 PUSH20 0xFFFFFFFFFFFFFFFFFFFFFFFFFFFFFFFFFFFFFFFF AND DUP9 PUSH20 0xFFFFFFFFFFFFFFFFFFFFFFFFFFFFFFFFFFFFFFFF AND EQ PUSH2 0x3586 JUMPI DUP1 DUP6 PUSH1 0x0 ADD PUSH1 0x0 DUP5 DUP2 MSTORE PUSH1 0x20 ADD SWAP1 DUP2 MSTORE PUSH1 0x20 ADD PUSH1 0x0 KECCAK256 PUSH1 0x0 DUP11 PUSH20 0xFFFFFFFFFFFFFFFFFFFFFFFFFFFFFFFFFFFFFFFF AND PUSH20 0xFFFFFFFFFFFFFFFFFFFFFFFFFFFFFFFFFFFFFFFF AND DUP2 MSTORE PUSH1 0x20 ADD SWAP1 DUP2 MSTORE PUSH1 0x20 ADD PUSH1 0x0 KECCAK256 PUSH1 0x0 DUP3 DUP3 SLOAD PUSH2 0x357E SWAP2 SWAP1 PUSH2 0x5029 JUMP JUMPDEST SWAP3 POP POP DUP2 SWAP1 SSTORE POP JUMPDEST POP POP DUP1 PUSH2 0x3592 SWAP1 PUSH2 0x4DFB JUMP JUMPDEST SWAP1 POP PUSH2 0x3380 JUMP JUMPDEST POP PUSH1 0x1 DUP5 MLOAD SUB PUSH2 0x3658 JUMPI PUSH1 0x0 PUSH2 0x35B9 PUSH1 0x0 DUP7 PUSH2 0x239C SWAP1 SWAP2 SWAP1 PUSH4 0xFFFFFFFF AND JUMP JUMPDEST SWAP1 POP PUSH1 0x0 PUSH2 0x35D1 PUSH1 0x0 DUP7 PUSH2 0x239C SWAP1 SWAP2 SWAP1 PUSH4 0xFFFFFFFF AND JUMP JUMPDEST SWAP1 POP DUP7 PUSH20 0xFFFFFFFFFFFFFFFFFFFFFFFFFFFFFFFFFFFFFFFF AND DUP9 PUSH20 0xFFFFFFFFFFFFFFFFFFFFFFFFFFFFFFFFFFFFFFFF AND DUP5 PUSH20 0xFFFFFFFFFFFFFFFFFFFFFFFFFFFFFFFFFFFFFFFF AND PUSH32 0xC3D58168C5AE7397731D063D5BBF3D657854427343F4C083240F7AACAA2D0F62 DUP6 DUP6 PUSH1 0x40 MLOAD PUSH2 0x3649 SWAP3 SWAP2 SWAP1 PUSH2 0x4D74 JUMP JUMPDEST PUSH1 0x40 MLOAD DUP1 SWAP2 SUB SWAP1 LOG4 POP POP PUSH2 0x36D7 JUMP JUMPDEST DUP5 PUSH20 0xFFFFFFFFFFFFFFFFFFFFFFFFFFFFFFFFFFFFFFFF AND DUP7 PUSH20 0xFFFFFFFFFFFFFFFFFFFFFFFFFFFFFFFFFFFFFFFF AND DUP3 PUSH20 0xFFFFFFFFFFFFFFFFFFFFFFFFFFFFFFFFFFFFFFFF AND PUSH32 0x4A39DC06D4C0DBC64B70AF90FD698A233A518AA5D07E595D983B8C0526C8F7FB DUP8 DUP8 PUSH1 0x40 MLOAD PUSH2 0x36CE SWAP3 SWAP2 SWAP1 PUSH2 0x5676 JUMP JUMPDEST PUSH1 0x40 MLOAD DUP1 SWAP2 SUB SWAP1 LOG4 JUMPDEST POP POP POP POP POP POP JUMP JUMPDEST PUSH1 0x0 DUP5 PUSH20 0xFFFFFFFFFFFFFFFFFFFFFFFFFFFFFFFFFFFFFFFF AND EXTCODESIZE GT ISZERO PUSH2 0x388B JUMPI DUP4 PUSH20 0xFFFFFFFFFFFFFFFFFFFFFFFFFFFFFFFFFFFFFFFF AND PUSH4 0xF23A6E61 DUP8 DUP8 DUP7 DUP7 DUP7 PUSH1 0x40 MLOAD DUP7 PUSH4 0xFFFFFFFF AND PUSH1 0xE0 SHL DUP2 MSTORE PUSH1 0x4 ADD PUSH2 0x3740 SWAP6 SWAP5 SWAP4 SWAP3 SWAP2 SWAP1 PUSH2 0x5702 JUMP JUMPDEST PUSH1 0x20 PUSH1 0x40 MLOAD DUP1 DUP4 SUB DUP2 PUSH1 0x0 DUP8 GAS CALL SWAP3 POP POP POP DUP1 ISZERO PUSH2 0x377C JUMPI POP PUSH1 0x40 MLOAD RETURNDATASIZE PUSH1 0x1F NOT PUSH1 0x1F DUP3 ADD AND DUP3 ADD DUP1 PUSH1 0x40 MSTORE POP DUP2 ADD SWAP1 PUSH2 0x3779 SWAP2 SWAP1 PUSH2 0x5771 JUMP JUMPDEST PUSH1 0x1 JUMPDEST PUSH2 0x3800 JUMPI RETURNDATASIZE DUP1 PUSH1 0x0 DUP2 EQ PUSH2 0x37AC JUMPI PUSH1 0x40 MLOAD SWAP2 POP PUSH1 0x1F NOT PUSH1 0x3F RETURNDATASIZE ADD AND DUP3 ADD PUSH1 0x40 MSTORE RETURNDATASIZE DUP3 MSTORE RETURNDATASIZE PUSH1 0x0 PUSH1 0x20 DUP5 ADD RETURNDATACOPY PUSH2 0x37B1 JUMP JUMPDEST PUSH1 0x60 SWAP2 POP JUMPDEST POP PUSH1 0x0 DUP2 MLOAD SUB PUSH2 0x37F8 JUMPI DUP5 PUSH1 0x40 MLOAD PUSH32 0x57F447CE00000000000000000000000000000000000000000000000000000000 DUP2 MSTORE PUSH1 0x4 ADD PUSH2 0x37EF SWAP2 SWAP1 PUSH2 0x43D0 JUMP JUMPDEST PUSH1 0x40 MLOAD DUP1 SWAP2 SUB SWAP1 REVERT JUMPDEST DUP1 MLOAD DUP2 PUSH1 0x20 ADD REVERT JUMPDEST PUSH4 0xF23A6E61 PUSH1 0xE0 SHL PUSH28 0xFFFFFFFFFFFFFFFFFFFFFFFFFFFFFFFFFFFFFFFFFFFFFFFFFFFFFFFF NOT AND DUP2 PUSH28 0xFFFFFFFFFFFFFFFFFFFFFFFFFFFFFFFFFFFFFFFFFFFFFFFFFFFFFFFF NOT AND EQ PUSH2 0x3889 JUMPI DUP5 PUSH1 0x40 MLOAD PUSH32 0x57F447CE00000000000000000000000000000000000000000000000000000000 DUP2 MSTORE PUSH1 0x4 ADD PUSH2 0x3880 SWAP2 SWAP1 PUSH2 0x43D0 JUMP JUMPDEST PUSH1 0x40 MLOAD DUP1 SWAP2 SUB SWAP1 REVERT JUMPDEST POP JUMPDEST POP POP POP POP POP POP JUMP JUMPDEST PUSH1 0x0 DUP5 PUSH20 0xFFFFFFFFFFFFFFFFFFFFFFFFFFFFFFFFFFFFFFFF AND EXTCODESIZE GT ISZERO PUSH2 0x3A3F JUMPI DUP4 PUSH20 0xFFFFFFFFFFFFFFFFFFFFFFFFFFFFFFFFFFFFFFFF AND PUSH4 0xBC197C81 DUP8 DUP8 DUP7 DUP7 DUP7 PUSH1 0x40 MLOAD DUP7 PUSH4 0xFFFFFFFF AND PUSH1 0xE0 SHL DUP2 MSTORE PUSH1 0x4 ADD PUSH2 0x38F4 SWAP6 SWAP5 SWAP4 SWAP3 SWAP2 SWAP1 PUSH2 0x579E JUMP JUMPDEST PUSH1 0x20 PUSH1 0x40 MLOAD DUP1 DUP4 SUB DUP2 PUSH1 0x0 DUP8 GAS CALL SWAP3 POP POP POP DUP1 ISZERO PUSH2 0x3930 JUMPI POP PUSH1 0x40 MLOAD RETURNDATASIZE PUSH1 0x1F NOT PUSH1 0x1F DUP3 ADD AND DUP3 ADD DUP1 PUSH1 0x40 MSTORE POP DUP2 ADD SWAP1 PUSH2 0x392D SWAP2 SWAP1 PUSH2 0x5771 JUMP JUMPDEST PUSH1 0x1 JUMPDEST PUSH2 0x39B4 JUMPI RETURNDATASIZE DUP1 PUSH1 0x0 DUP2 EQ PUSH2 0x3960 JUMPI PUSH1 0x40 MLOAD SWAP2 POP PUSH1 0x1F NOT PUSH1 0x3F RETURNDATASIZE ADD AND DUP3 ADD PUSH1 0x40 MSTORE RETURNDATASIZE DUP3 MSTORE RETURNDATASIZE PUSH1 0x0 PUSH1 0x20 DUP5 ADD RETURNDATACOPY PUSH2 0x3965 JUMP JUMPDEST PUSH1 0x60 SWAP2 POP JUMPDEST POP PUSH1 0x0 DUP2 MLOAD SUB PUSH2 0x39AC JUMPI DUP5 PUSH1 0x40 MLOAD PUSH32 0x57F447CE00000000000000000000000000000000000000000000000000000000 DUP2 MSTORE PUSH1 0x4 ADD PUSH2 0x39A3 SWAP2 SWAP1 PUSH2 0x43D0 JUMP JUMPDEST PUSH1 0x40 MLOAD DUP1 SWAP2 SUB SWAP1 REVERT JUMPDEST DUP1 MLOAD DUP2 PUSH1 0x20 ADD REVERT JUMPDEST PUSH4 0xBC197C81 PUSH1 0xE0 SHL PUSH28 0xFFFFFFFFFFFFFFFFFFFFFFFFFFFFFFFFFFFFFFFFFFFFFFFFFFFFFFFF NOT AND DUP2 PUSH28 0xFFFFFFFFFFFFFFFFFFFFFFFFFFFFFFFFFFFFFFFFFFFFFFFFFFFFFFFF NOT AND EQ PUSH2 0x3A3D JUMPI DUP5 PUSH1 0x40 MLOAD PUSH32 0x57F447CE00000000000000000000000000000000000000000000000000000000 DUP2 MSTORE PUSH1 0x4 ADD PUSH2 0x3A34 SWAP2 SWAP1 PUSH2 0x43D0 JUMP JUMPDEST PUSH1 0x40 MLOAD DUP1 SWAP2 SUB SWAP1 REVERT JUMPDEST POP JUMPDEST POP POP POP POP POP POP JUMP JUMPDEST PUSH1 0x0 PUSH2 0x3A53 DUP4 DUP4 PUSH2 0x3CEF JUMP JUMPDEST PUSH2 0x3AAC JUMPI DUP3 PUSH1 0x0 ADD DUP3 SWAP1 DUP1 PUSH1 0x1 DUP2 SLOAD ADD DUP1 DUP3 SSTORE DUP1 SWAP2 POP POP PUSH1 0x1 SWAP1 SUB SWAP1 PUSH1 0x0 MSTORE PUSH1 0x20 PUSH1 0x0 KECCAK256 ADD PUSH1 0x0 SWAP1 SWAP2 SWAP1 SWAP2 SWAP1 SWAP2 POP SSTORE DUP3 PUSH1 0x0 ADD DUP1 SLOAD SWAP1 POP DUP4 PUSH1 0x1 ADD PUSH1 0x0 DUP5 DUP2 MSTORE PUSH1 0x20 ADD SWAP1 DUP2 MSTORE PUSH1 0x20 ADD PUSH1 0x0 KECCAK256 DUP2 SWAP1 SSTORE POP PUSH1 0x1 SWAP1 POP PUSH2 0x3AB1 JUMP JUMPDEST PUSH1 0x0 SWAP1 POP JUMPDEST SWAP3 SWAP2 POP POP JUMP JUMPDEST PUSH1 0x0 DUP1 DUP4 PUSH1 0x1 ADD PUSH1 0x0 DUP5 DUP2 MSTORE PUSH1 0x20 ADD SWAP1 DUP2 MSTORE PUSH1 0x20 ADD PUSH1 0x0 KECCAK256 SLOAD SWAP1 POP PUSH1 0x0 DUP2 EQ PUSH2 0x3BBF JUMPI PUSH1 0x0 PUSH1 0x1 DUP3 PUSH2 0x3AE9 SWAP2 SWAP1 PUSH2 0x54C3 JUMP JUMPDEST SWAP1 POP PUSH1 0x0 PUSH1 0x1 DUP7 PUSH1 0x0 ADD DUP1 SLOAD SWAP1 POP PUSH2 0x3B01 SWAP2 SWAP1 PUSH2 0x54C3 JUMP JUMPDEST SWAP1 POP DUP1 DUP3 EQ PUSH2 0x3B70 JUMPI PUSH1 0x0 DUP7 PUSH1 0x0 ADD DUP3 DUP2 SLOAD DUP2 LT PUSH2 0x3B22 JUMPI PUSH2 0x3B21 PUSH2 0x4D9D JUMP JUMPDEST JUMPDEST SWAP1 PUSH1 0x0 MSTORE PUSH1 0x20 PUSH1 0x0 KECCAK256 ADD SLOAD SWAP1 POP DUP1 DUP8 PUSH1 0x0 ADD DUP5 DUP2 SLOAD DUP2 LT PUSH2 0x3B46 JUMPI PUSH2 0x3B45 PUSH2 0x4D9D JUMP JUMPDEST JUMPDEST SWAP1 PUSH1 0x0 MSTORE PUSH1 0x20 PUSH1 0x0 KECCAK256 ADD DUP2 SWAP1 SSTORE POP DUP4 DUP8 PUSH1 0x1 ADD PUSH1 0x0 DUP4 DUP2 MSTORE PUSH1 0x20 ADD SWAP1 DUP2 MSTORE PUSH1 0x20 ADD PUSH1 0x0 KECCAK256 DUP2 SWAP1 SSTORE POP POP JUMPDEST DUP6 PUSH1 0x0 ADD DUP1 SLOAD DUP1 PUSH2 0x3B84 JUMPI PUSH2 0x3B83 PUSH2 0x5806 JUMP JUMPDEST JUMPDEST PUSH1 0x1 SWAP1 SUB DUP2 DUP2 SWAP1 PUSH1 0x0 MSTORE PUSH1 0x20 PUSH1 0x0 KECCAK256 ADD PUSH1 0x0 SWAP1 SSTORE SWAP1 SSTORE DUP6 PUSH1 0x1 ADD PUSH1 0x0 DUP7 DUP2 MSTORE PUSH1 0x20 ADD SWAP1 DUP2 MSTORE PUSH1 0x20 ADD PUSH1 0x0 KECCAK256 PUSH1 0x0 SWAP1 SSTORE PUSH1 0x1 SWAP4 POP POP POP POP PUSH2 0x3BC5 JUMP JUMPDEST PUSH1 0x0 SWAP2 POP POP JUMPDEST SWAP3 SWAP2 POP POP JUMP JUMPDEST PUSH1 0x0 PUSH2 0x3BD5 PUSH2 0x27C8 JUMP JUMPDEST PUSH1 0x0 ADD PUSH1 0x8 SWAP1 SLOAD SWAP1 PUSH2 0x100 EXP SWAP1 DIV PUSH1 0xFF AND SWAP1 POP SWAP1 JUMP JUMPDEST PUSH1 0x0 PUSH2 0x3BF5 PUSH2 0x208E JUMP JUMPDEST SWAP1 POP DUP2 DUP2 PUSH1 0x2 ADD SWAP1 DUP2 PUSH2 0x3C08 SWAP2 SWAP1 PUSH2 0x51F4 JUMP JUMPDEST POP POP POP JUMP JUMPDEST PUSH1 0x0 PUSH32 0xD9B67A2600000000000000000000000000000000000000000000000000000000 PUSH28 0xFFFFFFFFFFFFFFFFFFFFFFFFFFFFFFFFFFFFFFFFFFFFFFFFFFFFFFFF NOT AND DUP3 PUSH28 0xFFFFFFFFFFFFFFFFFFFFFFFFFFFFFFFFFFFFFFFFFFFFFFFFFFFFFFFF NOT AND EQ DUP1 PUSH2 0x3CD8 JUMPI POP PUSH32 0xE89341C00000000000000000000000000000000000000000000000000000000 PUSH28 0xFFFFFFFFFFFFFFFFFFFFFFFFFFFFFFFFFFFFFFFFFFFFFFFFFFFFFFFF NOT AND DUP3 PUSH28 0xFFFFFFFFFFFFFFFFFFFFFFFFFFFFFFFFFFFFFFFFFFFFFFFFFFFFFFFF NOT AND EQ JUMPDEST DUP1 PUSH2 0x3CE8 JUMPI POP PUSH2 0x3CE7 DUP3 PUSH2 0x3D12 JUMP JUMPDEST JUMPDEST SWAP1 POP SWAP2 SWAP1 POP JUMP JUMPDEST PUSH1 0x0 DUP1 DUP4 PUSH1 0x1 ADD PUSH1 0x0 DUP5 DUP2 MSTORE PUSH1 0x20 ADD SWAP1 DUP2 MSTORE PUSH1 0x20 ADD PUSH1 0x0 KECCAK256 SLOAD EQ ISZERO SWAP1 POP SWAP3 SWAP2 POP POP JUMP JUMPDEST PUSH1 0x0 PUSH32 0x1FFC9A700000000000000000000000000000000000000000000000000000000 PUSH28 0xFFFFFFFFFFFFFFFFFFFFFFFFFFFFFFFFFFFFFFFFFFFFFFFFFFFFFFFF NOT AND DUP3 PUSH28 0xFFFFFFFFFFFFFFFFFFFFFFFFFFFFFFFFFFFFFFFFFFFFFFFFFFFFFFFF NOT AND EQ SWAP1 POP SWAP2 SWAP1 POP JUMP JUMPDEST PUSH1 0x0 PUSH1 0x40 MLOAD SWAP1 POP SWAP1 JUMP JUMPDEST PUSH1 0x0 DUP1 REVERT JUMPDEST PUSH1 0x0 DUP1 REVERT JUMPDEST PUSH1 0x0 PUSH20 0xFFFFFFFFFFFFFFFFFFFFFFFFFFFFFFFFFFFFFFFF DUP3 AND SWAP1 POP SWAP2 SWAP1 POP JUMP JUMPDEST PUSH1 0x0 PUSH2 0x3DBB DUP3 PUSH2 0x3D90 JUMP JUMPDEST SWAP1 POP SWAP2 SWAP1 POP JUMP JUMPDEST PUSH2 0x3DCB DUP2 PUSH2 0x3DB0 JUMP JUMPDEST DUP2 EQ PUSH2 0x3DD6 JUMPI PUSH1 0x0 DUP1 REVERT JUMPDEST POP JUMP JUMPDEST PUSH1 0x0 DUP2 CALLDATALOAD SWAP1 POP PUSH2 0x3DE8 DUP2 PUSH2 0x3DC2 JUMP JUMPDEST SWAP3 SWAP2 POP POP JUMP JUMPDEST PUSH1 0x0 DUP2 SWAP1 POP SWAP2 SWAP1 POP JUMP JUMPDEST PUSH2 0x3E01 DUP2 PUSH2 0x3DEE JUMP JUMPDEST DUP2 EQ PUSH2 0x3E0C JUMPI PUSH1 0x0 DUP1 REVERT JUMPDEST POP JUMP JUMPDEST PUSH1 0x0 DUP2 CALLDATALOAD SWAP1 POP PUSH2 0x3E1E DUP2 PUSH2 0x3DF8 JUMP JUMPDEST SWAP3 SWAP2 POP POP JUMP JUMPDEST PUSH1 0x0 DUP1 PUSH1 0x40 DUP4 DUP6 SUB SLT ISZERO PUSH2 0x3E3B JUMPI PUSH2 0x3E3A PUSH2 0x3D86 JUMP JUMPDEST JUMPDEST PUSH1 0x0 PUSH2 0x3E49 DUP6 DUP3 DUP7 ADD PUSH2 0x3DD9 JUMP JUMPDEST SWAP3 POP POP PUSH1 0x20 PUSH2 0x3E5A DUP6 DUP3 DUP7 ADD PUSH2 0x3E0F JUMP JUMPDEST SWAP2 POP POP SWAP3 POP SWAP3 SWAP1 POP JUMP JUMPDEST PUSH2 0x3E6D DUP2 PUSH2 0x3DEE JUMP JUMPDEST DUP3 MSTORE POP POP JUMP JUMPDEST PUSH1 0x0 PUSH1 0x20 DUP3 ADD SWAP1 POP PUSH2 0x3E88 PUSH1 0x0 DUP4 ADD DUP5 PUSH2 0x3E64 JUMP JUMPDEST SWAP3 SWAP2 POP POP JUMP JUMPDEST PUSH1 0x0 PUSH32 0xFFFFFFFF00000000000000000000000000000000000000000000000000000000 DUP3 AND SWAP1 POP SWAP2 SWAP1 POP JUMP JUMPDEST PUSH2 0x3EC3 DUP2 PUSH2 0x3E8E JUMP JUMPDEST DUP2 EQ PUSH2 0x3ECE JUMPI PUSH1 0x0 DUP1 REVERT JUMPDEST POP JUMP JUMPDEST PUSH1 0x0 DUP2 CALLDATALOAD SWAP1 POP PUSH2 0x3EE0 DUP2 PUSH2 0x3EBA JUMP JUMPDEST SWAP3 SWAP2 POP POP JUMP JUMPDEST PUSH1 0x0 PUSH1 0x20 DUP3 DUP5 SUB SLT ISZERO PUSH2 0x3EFC JUMPI PUSH2 0x3EFB PUSH2 0x3D86 JUMP JUMPDEST JUMPDEST PUSH1 0x0 PUSH2 0x3F0A DUP5 DUP3 DUP6 ADD PUSH2 0x3ED1 JUMP JUMPDEST SWAP2 POP POP SWAP3 SWAP2 POP POP JUMP JUMPDEST PUSH1 0x0 DUP2 ISZERO ISZERO SWAP1 POP SWAP2 SWAP1 POP JUMP JUMPDEST PUSH2 0x3F28 DUP2 PUSH2 0x3F13 JUMP JUMPDEST DUP3 MSTORE POP POP JUMP JUMPDEST PUSH1 0x0 PUSH1 0x20 DUP3 ADD SWAP1 POP PUSH2 0x3F43 PUSH1 0x0 DUP4 ADD DUP5 PUSH2 0x3F1F JUMP JUMPDEST SWAP3 SWAP2 POP POP JUMP JUMPDEST PUSH1 0x0 DUP2 MLOAD SWAP1 POP SWAP2 SWAP1 POP JUMP JUMPDEST PUSH1 0x0 DUP3 DUP3 MSTORE PUSH1 0x20 DUP3 ADD SWAP1 POP SWAP3 SWAP2 POP POP JUMP JUMPDEST PUSH1 0x0 JUMPDEST DUP4 DUP2 LT ISZERO PUSH2 0x3F83 JUMPI DUP1 DUP3 ADD MLOAD DUP2 DUP5 ADD MSTORE PUSH1 0x20 DUP2 ADD SWAP1 POP PUSH2 0x3F68 JUMP JUMPDEST PUSH1 0x0 DUP5 DUP5 ADD MSTORE POP POP POP POP JUMP JUMPDEST PUSH1 0x0 PUSH1 0x1F NOT PUSH1 0x1F DUP4 ADD AND SWAP1 POP SWAP2 SWAP1 POP JUMP JUMPDEST PUSH1 0x0 PUSH2 0x3FAB DUP3 PUSH2 0x3F49 JUMP JUMPDEST PUSH2 0x3FB5 DUP2 DUP6 PUSH2 0x3F54 JUMP JUMPDEST SWAP4 POP PUSH2 0x3FC5 DUP2 DUP6 PUSH1 0x20 DUP7 ADD PUSH2 0x3F65 JUMP JUMPDEST PUSH2 0x3FCE DUP2 PUSH2 0x3F8F JUMP JUMPDEST DUP5 ADD SWAP2 POP POP SWAP3 SWAP2 POP POP JUMP JUMPDEST PUSH1 0x0 PUSH1 0x20 DUP3 ADD SWAP1 POP DUP2 DUP2 SUB PUSH1 0x0 DUP4 ADD MSTORE PUSH2 0x3FF3 DUP2 DUP5 PUSH2 0x3FA0 JUMP JUMPDEST SWAP1 POP SWAP3 SWAP2 POP POP JUMP JUMPDEST PUSH1 0x0 PUSH1 0x20 DUP3 DUP5 SUB SLT ISZERO PUSH2 0x4011 JUMPI PUSH2 0x4010 PUSH2 0x3D86 JUMP JUMPDEST JUMPDEST PUSH1 0x0 PUSH2 0x401F DUP5 DUP3 DUP6 ADD PUSH2 0x3E0F JUMP JUMPDEST SWAP2 POP POP SWAP3 SWAP2 POP POP JUMP JUMPDEST PUSH1 0x0 DUP2 SWAP1 POP SWAP2 SWAP1 POP JUMP JUMPDEST PUSH2 0x403B DUP2 PUSH2 0x4028 JUMP JUMPDEST DUP2 EQ PUSH2 0x4046 JUMPI PUSH1 0x0 DUP1 REVERT JUMPDEST POP JUMP JUMPDEST PUSH1 0x0 DUP2 CALLDATALOAD SWAP1 POP PUSH2 0x4058 DUP2 PUSH2 0x4032 JUMP JUMPDEST SWAP3 SWAP2 POP POP JUMP JUMPDEST PUSH1 0x0 PUSH1 0x20 DUP3 DUP5 SUB SLT ISZERO PUSH2 0x4074 JUMPI PUSH2 0x4073 PUSH2 0x3D86 JUMP JUMPDEST JUMPDEST PUSH1 0x0 PUSH2 0x4082 DUP5 DUP3 DUP6 ADD PUSH2 0x4049 JUMP JUMPDEST SWAP2 POP POP SWAP3 SWAP2 POP POP JUMP JUMPDEST PUSH2 0x4094 DUP2 PUSH2 0x4028 JUMP JUMPDEST DUP3 MSTORE POP POP JUMP JUMPDEST PUSH1 0x0 PUSH1 0x20 DUP3 ADD SWAP1 POP PUSH2 0x40AF PUSH1 0x0 DUP4 ADD DUP5 PUSH2 0x408B JUMP JUMPDEST SWAP3 SWAP2 POP POP JUMP JUMPDEST PUSH1 0x0 DUP1 REVERT JUMPDEST PUSH32 0x4E487B7100000000000000000000000000000000000000000000000000000000 PUSH1 0x0 MSTORE PUSH1 0x41 PUSH1 0x4 MSTORE PUSH1 0x24 PUSH1 0x0 REVERT JUMPDEST PUSH2 0x40F2 DUP3 PUSH2 0x3F8F JUMP JUMPDEST DUP2 ADD DUP2 DUP2 LT PUSH8 0xFFFFFFFFFFFFFFFF DUP3 GT OR ISZERO PUSH2 0x4111 JUMPI PUSH2 0x4110 PUSH2 0x40BA JUMP JUMPDEST JUMPDEST DUP1 PUSH1 0x40 MSTORE POP POP POP JUMP JUMPDEST PUSH1 0x0 PUSH2 0x4124 PUSH2 0x3D7C JUMP JUMPDEST SWAP1 POP PUSH2 0x4130 DUP3 DUP3 PUSH2 0x40E9 JUMP JUMPDEST SWAP2 SWAP1 POP JUMP JUMPDEST PUSH1 0x0 PUSH8 0xFFFFFFFFFFFFFFFF DUP3 GT ISZERO PUSH2 0x4150 JUMPI PUSH2 0x414F PUSH2 0x40BA JUMP JUMPDEST JUMPDEST PUSH1 0x20 DUP3 MUL SWAP1 POP PUSH1 0x20 DUP2 ADD SWAP1 POP SWAP2 SWAP1 POP JUMP JUMPDEST PUSH1 0x0 DUP1 REVERT JUMPDEST PUSH1 0x0 PUSH2 0x4179 PUSH2 0x4174 DUP5 PUSH2 0x4135 JUMP JUMPDEST PUSH2 0x411A JUMP JUMPDEST SWAP1 POP DUP1 DUP4 DUP3 MSTORE PUSH1 0x20 DUP3 ADD SWAP1 POP PUSH1 0x20 DUP5 MUL DUP4 ADD DUP6 DUP2 GT ISZERO PUSH2 0x419C JUMPI PUSH2 0x419B PUSH2 0x4161 JUMP JUMPDEST JUMPDEST DUP4 JUMPDEST DUP2 DUP2 LT ISZERO PUSH2 0x41C5 JUMPI DUP1 PUSH2 0x41B1 DUP9 DUP3 PUSH2 0x3E0F JUMP JUMPDEST DUP5 MSTORE PUSH1 0x20 DUP5 ADD SWAP4 POP POP PUSH1 0x20 DUP2 ADD SWAP1 POP PUSH2 0x419E JUMP JUMPDEST POP POP POP SWAP4 SWAP3 POP POP POP JUMP JUMPDEST PUSH1 0x0 DUP3 PUSH1 0x1F DUP4 ADD SLT PUSH2 0x41E4 JUMPI PUSH2 0x41E3 PUSH2 0x40B5 JUMP JUMPDEST JUMPDEST DUP2 CALLDATALOAD PUSH2 0x41F4 DUP5 DUP3 PUSH1 0x20 DUP7 ADD PUSH2 0x4166 JUMP JUMPDEST SWAP2 POP POP SWAP3 SWAP2 POP POP JUMP JUMPDEST PUSH1 0x0 DUP1 REVERT JUMPDEST PUSH1 0x0 PUSH8 0xFFFFFFFFFFFFFFFF DUP3 GT ISZERO PUSH2 0x421D JUMPI PUSH2 0x421C PUSH2 0x40BA JUMP JUMPDEST JUMPDEST PUSH2 0x4226 DUP3 PUSH2 0x3F8F JUMP JUMPDEST SWAP1 POP PUSH1 0x20 DUP2 ADD SWAP1 POP SWAP2 SWAP1 POP JUMP JUMPDEST DUP3 DUP2 DUP4 CALLDATACOPY PUSH1 0x0 DUP4 DUP4 ADD MSTORE POP POP POP JUMP JUMPDEST PUSH1 0x0 PUSH2 0x4255 PUSH2 0x4250 DUP5 PUSH2 0x4202 JUMP JUMPDEST PUSH2 0x411A JUMP JUMPDEST SWAP1 POP DUP3 DUP2 MSTORE PUSH1 0x20 DUP2 ADD DUP5 DUP5 DUP5 ADD GT ISZERO PUSH2 0x4271 JUMPI PUSH2 0x4270 PUSH2 0x41FD JUMP JUMPDEST JUMPDEST PUSH2 0x427C DUP5 DUP3 DUP6 PUSH2 0x4233 JUMP JUMPDEST POP SWAP4 SWAP3 POP POP POP JUMP JUMPDEST PUSH1 0x0 DUP3 PUSH1 0x1F DUP4 ADD SLT PUSH2 0x4299 JUMPI PUSH2 0x4298 PUSH2 0x40B5 JUMP JUMPDEST JUMPDEST DUP2 CALLDATALOAD PUSH2 0x42A9 DUP5 DUP3 PUSH1 0x20 DUP7 ADD PUSH2 0x4242 JUMP JUMPDEST SWAP2 POP POP SWAP3 SWAP2 POP POP JUMP JUMPDEST PUSH1 0x0 DUP1 PUSH1 0x0 DUP1 PUSH1 0x0 PUSH1 0xA0 DUP7 DUP9 SUB SLT ISZERO PUSH2 0x42CE JUMPI PUSH2 0x42CD PUSH2 0x3D86 JUMP JUMPDEST JUMPDEST PUSH1 0x0 PUSH2 0x42DC DUP9 DUP3 DUP10 ADD PUSH2 0x3DD9 JUMP JUMPDEST SWAP6 POP POP PUSH1 0x20 PUSH2 0x42ED DUP9 DUP3 DUP10 ADD PUSH2 0x3DD9 JUMP JUMPDEST SWAP5 POP POP PUSH1 0x40 DUP7 ADD CALLDATALOAD PUSH8 0xFFFFFFFFFFFFFFFF DUP2 GT ISZERO PUSH2 0x430E JUMPI PUSH2 0x430D PUSH2 0x3D8B JUMP JUMPDEST JUMPDEST PUSH2 0x431A DUP9 DUP3 DUP10 ADD PUSH2 0x41CF JUMP JUMPDEST SWAP4 POP POP PUSH1 0x60 DUP7 ADD CALLDATALOAD PUSH8 0xFFFFFFFFFFFFFFFF DUP2 GT ISZERO PUSH2 0x433B JUMPI PUSH2 0x433A PUSH2 0x3D8B JUMP JUMPDEST JUMPDEST PUSH2 0x4347 DUP9 DUP3 DUP10 ADD PUSH2 0x41CF JUMP JUMPDEST SWAP3 POP POP PUSH1 0x80 DUP7 ADD CALLDATALOAD PUSH8 0xFFFFFFFFFFFFFFFF DUP2 GT ISZERO PUSH2 0x4368 JUMPI PUSH2 0x4367 PUSH2 0x3D8B JUMP JUMPDEST JUMPDEST PUSH2 0x4374 DUP9 DUP3 DUP10 ADD PUSH2 0x4284 JUMP JUMPDEST SWAP2 POP POP SWAP3 SWAP6 POP SWAP3 SWAP6 SWAP1 SWAP4 POP JUMP JUMPDEST PUSH1 0x0 DUP1 PUSH1 0x40 DUP4 DUP6 SUB SLT ISZERO PUSH2 0x4398 JUMPI PUSH2 0x4397 PUSH2 0x3D86 JUMP JUMPDEST JUMPDEST PUSH1 0x0 PUSH2 0x43A6 DUP6 DUP3 DUP7 ADD PUSH2 0x4049 JUMP JUMPDEST SWAP3 POP POP PUSH1 0x20 PUSH2 0x43B7 DUP6 DUP3 DUP7 ADD PUSH2 0x3DD9 JUMP JUMPDEST SWAP2 POP POP SWAP3 POP SWAP3 SWAP1 POP JUMP JUMPDEST PUSH2 0x43CA DUP2 PUSH2 0x3DB0 JUMP JUMPDEST DUP3 MSTORE POP POP JUMP JUMPDEST PUSH1 0x0 PUSH1 0x20 DUP3 ADD SWAP1 POP PUSH2 0x43E5 PUSH1 0x0 DUP4 ADD DUP5 PUSH2 0x43C1 JUMP JUMPDEST SWAP3 SWAP2 POP POP JUMP JUMPDEST PUSH1 0x0 PUSH8 0xFFFFFFFFFFFFFFFF DUP3 GT ISZERO PUSH2 0x4406 JUMPI PUSH2 0x4405 PUSH2 0x40BA JUMP JUMPDEST JUMPDEST PUSH1 0x20 DUP3 MUL SWAP1 POP PUSH1 0x20 DUP2 ADD SWAP1 POP SWAP2 SWAP1 POP JUMP JUMPDEST PUSH1 0x0 PUSH2 0x442A PUSH2 0x4425 DUP5 PUSH2 0x43EB JUMP JUMPDEST PUSH2 0x411A JUMP JUMPDEST SWAP1 POP DUP1 DUP4 DUP3 MSTORE PUSH1 0x20 DUP3 ADD SWAP1 POP PUSH1 0x20 DUP5 MUL DUP4 ADD DUP6 DUP2 GT ISZERO PUSH2 0x444D JUMPI PUSH2 0x444C PUSH2 0x4161 JUMP JUMPDEST JUMPDEST DUP4 JUMPDEST DUP2 DUP2 LT ISZERO PUSH2 0x4476 JUMPI DUP1 PUSH2 0x4462 DUP9 DUP3 PUSH2 0x3DD9 JUMP JUMPDEST DUP5 MSTORE PUSH1 0x20 DUP5 ADD SWAP4 POP POP PUSH1 0x20 DUP2 ADD SWAP1 POP PUSH2 0x444F JUMP JUMPDEST POP POP POP SWAP4 SWAP3 POP POP POP JUMP JUMPDEST PUSH1 0x0 DUP3 PUSH1 0x1F DUP4 ADD SLT PUSH2 0x4495 JUMPI PUSH2 0x4494 PUSH2 0x40B5 JUMP JUMPDEST JUMPDEST DUP2 CALLDATALOAD PUSH2 0x44A5 DUP5 DUP3 PUSH1 0x20 DUP7 ADD PUSH2 0x4417 JUMP JUMPDEST SWAP2 POP POP SWAP3 SWAP2 POP POP JUMP JUMPDEST PUSH1 0x0 DUP1 PUSH1 0x40 DUP4 DUP6 SUB SLT ISZERO PUSH2 0x44C5 JUMPI PUSH2 0x44C4 PUSH2 0x3D86 JUMP JUMPDEST JUMPDEST PUSH1 0x0 DUP4 ADD CALLDATALOAD PUSH8 0xFFFFFFFFFFFFFFFF DUP2 GT ISZERO PUSH2 0x44E3 JUMPI PUSH2 0x44E2 PUSH2 0x3D8B JUMP JUMPDEST JUMPDEST PUSH2 0x44EF DUP6 DUP3 DUP7 ADD PUSH2 0x4480 JUMP JUMPDEST SWAP3 POP POP PUSH1 0x20 DUP4 ADD CALLDATALOAD PUSH8 0xFFFFFFFFFFFFFFFF DUP2 GT ISZERO PUSH2 0x4510 JUMPI PUSH2 0x450F PUSH2 0x3D8B JUMP JUMPDEST JUMPDEST PUSH2 0x451C DUP6 DUP3 DUP7 ADD PUSH2 0x41CF JUMP JUMPDEST SWAP2 POP POP SWAP3 POP SWAP3 SWAP1 POP JUMP JUMPDEST PUSH1 0x0 DUP2 MLOAD SWAP1 POP SWAP2 SWAP1 POP JUMP JUMPDEST PUSH1 0x0 DUP3 DUP3 MSTORE PUSH1 0x20 DUP3 ADD SWAP1 POP SWAP3 SWAP2 POP POP JUMP JUMPDEST PUSH1 0x0 DUP2 SWAP1 POP PUSH1 0x20 DUP3 ADD SWAP1 POP SWAP2 SWAP1 POP JUMP JUMPDEST PUSH2 0x455B DUP2 PUSH2 0x3DEE JUMP JUMPDEST DUP3 MSTORE POP POP JUMP JUMPDEST PUSH1 0x0 PUSH2 0x456D DUP4 DUP4 PUSH2 0x4552 JUMP JUMPDEST PUSH1 0x20 DUP4 ADD SWAP1 POP SWAP3 SWAP2 POP POP JUMP JUMPDEST PUSH1 0x0 PUSH1 0x20 DUP3 ADD SWAP1 POP SWAP2 SWAP1 POP JUMP JUMPDEST PUSH1 0x0 PUSH2 0x4591 DUP3 PUSH2 0x4526 JUMP JUMPDEST PUSH2 0x459B DUP2 DUP6 PUSH2 0x4531 JUMP JUMPDEST SWAP4 POP PUSH2 0x45A6 DUP4 PUSH2 0x4542 JUMP JUMPDEST DUP1 PUSH1 0x0 JUMPDEST DUP4 DUP2 LT ISZERO PUSH2 0x45D7 JUMPI DUP2 MLOAD PUSH2 0x45BE DUP9 DUP3 PUSH2 0x4561 JUMP JUMPDEST SWAP8 POP PUSH2 0x45C9 DUP4 PUSH2 0x4579 JUMP JUMPDEST SWAP3 POP POP PUSH1 0x1 DUP2 ADD SWAP1 POP PUSH2 0x45AA JUMP JUMPDEST POP DUP6 SWAP4 POP POP POP POP SWAP3 SWAP2 POP POP JUMP JUMPDEST PUSH1 0x0 PUSH1 0x20 DUP3 ADD SWAP1 POP DUP2 DUP2 SUB PUSH1 0x0 DUP4 ADD MSTORE PUSH2 0x45FE DUP2 DUP5 PUSH2 0x4586 JUMP JUMPDEST SWAP1 POP SWAP3 SWAP2 POP POP JUMP JUMPDEST PUSH1 0x0 PUSH1 0xFF DUP3 AND SWAP1 POP SWAP2 SWAP1 POP JUMP JUMPDEST PUSH2 0x461C DUP2 PUSH2 0x4606 JUMP JUMPDEST DUP3 MSTORE POP POP JUMP JUMPDEST PUSH1 0x0 PUSH1 0x20 DUP3 ADD SWAP1 POP PUSH2 0x4637 PUSH1 0x0 DUP4 ADD DUP5 PUSH2 0x4613 JUMP JUMPDEST SWAP3 SWAP2 POP POP JUMP JUMPDEST PUSH1 0x0 DUP1 PUSH1 0x0 DUP1 PUSH1 0x80 DUP6 DUP8 SUB SLT ISZERO PUSH2 0x4657 JUMPI PUSH2 0x4656 PUSH2 0x3D86 JUMP JUMPDEST JUMPDEST PUSH1 0x0 PUSH2 0x4665 DUP8 DUP3 DUP9 ADD PUSH2 0x3E0F JUMP JUMPDEST SWAP5 POP POP PUSH1 0x20 PUSH2 0x4676 DUP8 DUP3 DUP9 ADD PUSH2 0x3DD9 JUMP JUMPDEST SWAP4 POP POP PUSH1 0x40 PUSH2 0x4687 DUP8 DUP3 DUP9 ADD PUSH2 0x3E0F JUMP JUMPDEST SWAP3 POP POP PUSH1 0x60 PUSH2 0x4698 DUP8 DUP3 DUP9 ADD PUSH2 0x3DD9 JUMP JUMPDEST SWAP2 POP POP SWAP3 SWAP6 SWAP2 SWAP5 POP SWAP3 POP JUMP JUMPDEST PUSH1 0x0 PUSH8 0xFFFFFFFFFFFFFFFF DUP3 GT ISZERO PUSH2 0x46BF JUMPI PUSH2 0x46BE PUSH2 0x40BA JUMP JUMPDEST JUMPDEST PUSH2 0x46C8 DUP3 PUSH2 0x3F8F JUMP JUMPDEST SWAP1 POP PUSH1 0x20 DUP2 ADD SWAP1 POP SWAP2 SWAP1 POP JUMP JUMPDEST PUSH1 0x0 PUSH2 0x46E8 PUSH2 0x46E3 DUP5 PUSH2 0x46A4 JUMP JUMPDEST PUSH2 0x411A JUMP JUMPDEST SWAP1 POP DUP3 DUP2 MSTORE PUSH1 0x20 DUP2 ADD DUP5 DUP5 DUP5 ADD GT ISZERO PUSH2 0x4704 JUMPI PUSH2 0x4703 PUSH2 0x41FD JUMP JUMPDEST JUMPDEST PUSH2 0x470F DUP5 DUP3 DUP6 PUSH2 0x4233 JUMP JUMPDEST POP SWAP4 SWAP3 POP POP POP JUMP JUMPDEST PUSH1 0x0 DUP3 PUSH1 0x1F DUP4 ADD SLT PUSH2 0x472C JUMPI PUSH2 0x472B PUSH2 0x40B5 JUMP JUMPDEST JUMPDEST DUP2 CALLDATALOAD PUSH2 0x473C DUP5 DUP3 PUSH1 0x20 DUP7 ADD PUSH2 0x46D5 JUMP JUMPDEST SWAP2 POP POP SWAP3 SWAP2 POP POP JUMP JUMPDEST PUSH2 0x474E DUP2 PUSH2 0x4606 JUMP JUMPDEST DUP2 EQ PUSH2 0x4759 JUMPI PUSH1 0x0 DUP1 REVERT JUMPDEST POP JUMP JUMPDEST PUSH1 0x0 DUP2 CALLDATALOAD SWAP1 POP PUSH2 0x476B DUP2 PUSH2 0x4745 JUMP JUMPDEST SWAP3 SWAP2 POP POP JUMP JUMPDEST PUSH1 0x0 DUP1 PUSH1 0x0 DUP1 PUSH1 0x0 DUP1 PUSH1 0xC0 DUP8 DUP10 SUB SLT ISZERO PUSH2 0x478E JUMPI PUSH2 0x478D PUSH2 0x3D86 JUMP JUMPDEST JUMPDEST PUSH1 0x0 DUP8 ADD CALLDATALOAD PUSH8 0xFFFFFFFFFFFFFFFF DUP2 GT ISZERO PUSH2 0x47AC JUMPI PUSH2 0x47AB PUSH2 0x3D8B JUMP JUMPDEST JUMPDEST PUSH2 0x47B8 DUP10 DUP3 DUP11 ADD PUSH2 0x4717 JUMP JUMPDEST SWAP7 POP POP PUSH1 0x20 PUSH2 0x47C9 DUP10 DUP3 DUP11 ADD PUSH2 0x3DD9 JUMP JUMPDEST SWAP6 POP POP PUSH1 0x40 PUSH2 0x47DA DUP10 DUP3 DUP11 ADD PUSH2 0x475C JUMP JUMPDEST SWAP5 POP POP PUSH1 0x60 PUSH2 0x47EB DUP10 DUP3 DUP11 ADD PUSH2 0x475C JUMP JUMPDEST SWAP4 POP POP PUSH1 0x80 PUSH2 0x47FC DUP10 DUP3 DUP11 ADD PUSH2 0x3DD9 JUMP JUMPDEST SWAP3 POP POP PUSH1 0xA0 PUSH2 0x480D DUP10 DUP3 DUP11 ADD PUSH2 0x3E0F JUMP JUMPDEST SWAP2 POP POP SWAP3 SWAP6 POP SWAP3 SWAP6 POP SWAP3 SWAP6 JUMP JUMPDEST PUSH1 0x0 DUP1 PUSH1 0x40 DUP4 DUP6 SUB SLT ISZERO PUSH2 0x4831 JUMPI PUSH2 0x4830 PUSH2 0x3D86 JUMP JUMPDEST JUMPDEST PUSH1 0x0 PUSH2 0x483F DUP6 DUP3 DUP7 ADD PUSH2 0x4049 JUMP JUMPDEST SWAP3 POP POP PUSH1 0x20 PUSH2 0x4850 DUP6 DUP3 DUP7 ADD PUSH2 0x3E0F JUMP JUMPDEST SWAP2 POP POP SWAP3 POP SWAP3 SWAP1 POP JUMP JUMPDEST PUSH1 0x0 DUP1 REVERT JUMPDEST PUSH1 0x0 DUP1 DUP4 PUSH1 0x1F DUP5 ADD SLT PUSH2 0x4875 JUMPI PUSH2 0x4874 PUSH2 0x40B5 JUMP JUMPDEST JUMPDEST DUP3 CALLDATALOAD SWAP1 POP PUSH8 0xFFFFFFFFFFFFFFFF DUP2 GT ISZERO PUSH2 0x4892 JUMPI PUSH2 0x4891 PUSH2 0x485A JUMP JUMPDEST JUMPDEST PUSH1 0x20 DUP4 ADD SWAP2 POP DUP4 PUSH1 0x1 DUP3 MUL DUP4 ADD GT ISZERO PUSH2 0x48AE JUMPI PUSH2 0x48AD PUSH2 0x4161 JUMP JUMPDEST JUMPDEST SWAP3 POP SWAP3 SWAP1 POP JUMP JUMPDEST PUSH2 0x48BE DUP2 PUSH2 0x3F13 JUMP JUMPDEST DUP2 EQ PUSH2 0x48C9 JUMPI PUSH1 0x0 DUP1 REVERT JUMPDEST POP JUMP JUMPDEST PUSH1 0x0 DUP2 CALLDATALOAD SWAP1 POP PUSH2 0x48DB DUP2 PUSH2 0x48B5 JUMP JUMPDEST SWAP3 SWAP2 POP POP JUMP JUMPDEST PUSH1 0x0 DUP1 PUSH1 0x0 DUP1 PUSH1 0x0 DUP1 PUSH1 0x0 DUP1 PUSH1 0x0 PUSH2 0x100 DUP11 DUP13 SUB SLT ISZERO PUSH2 0x4904 JUMPI PUSH2 0x4903 PUSH2 0x3D86 JUMP JUMPDEST JUMPDEST PUSH1 0x0 DUP11 ADD CALLDATALOAD PUSH8 0xFFFFFFFFFFFFFFFF DUP2 GT ISZERO PUSH2 0x4922 JUMPI PUSH2 0x4921 PUSH2 0x3D8B JUMP JUMPDEST JUMPDEST PUSH2 0x492E DUP13 DUP3 DUP14 ADD PUSH2 0x485F JUMP JUMPDEST SWAP10 POP SWAP10 POP POP PUSH1 0x20 PUSH2 0x4941 DUP13 DUP3 DUP14 ADD PUSH2 0x3DD9 JUMP JUMPDEST SWAP8 POP POP PUSH1 0x40 PUSH2 0x4952 DUP13 DUP3 DUP14 ADD PUSH2 0x3DD9 JUMP JUMPDEST SWAP7 POP POP PUSH1 0x60 PUSH2 0x4963 DUP13 DUP3 DUP14 ADD PUSH2 0x3DD9 JUMP JUMPDEST SWAP6 POP POP PUSH1 0x80 PUSH2 0x4974 DUP13 DUP3 DUP14 ADD PUSH2 0x3E0F JUMP JUMPDEST SWAP5 POP POP PUSH1 0xA0 PUSH2 0x4985 DUP13 DUP3 DUP14 ADD PUSH2 0x3E0F JUMP JUMPDEST SWAP4 POP POP PUSH1 0xC0 PUSH2 0x4996 DUP13 DUP3 DUP14 ADD PUSH2 0x48CC JUMP JUMPDEST SWAP3 POP POP PUSH1 0xE0 PUSH2 0x49A7 DUP13 DUP3 DUP14 ADD PUSH2 0x48CC JUMP JUMPDEST SWAP2 POP POP SWAP3 SWAP6 SWAP9 POP SWAP3 SWAP6 SWAP9 POP SWAP3 SWAP6 SWAP9 JUMP JUMPDEST PUSH1 0x0 DUP1 PUSH1 0x40 DUP4 DUP6 SUB SLT ISZERO PUSH2 0x49CE JUMPI PUSH2 0x49CD PUSH2 0x3D86 JUMP JUMPDEST JUMPDEST PUSH1 0x0 PUSH2 0x49DC DUP6 DUP3 DUP7 ADD PUSH2 0x3DD9 JUMP JUMPDEST SWAP3 POP POP PUSH1 0x20 PUSH2 0x49ED DUP6 DUP3 DUP7 ADD PUSH2 0x48CC JUMP JUMPDEST SWAP2 POP POP SWAP3 POP SWAP3 SWAP1 POP JUMP JUMPDEST PUSH1 0x0 DUP1 PUSH1 0x40 DUP4 DUP6 SUB SLT ISZERO PUSH2 0x4A0E JUMPI PUSH2 0x4A0D PUSH2 0x3D86 JUMP JUMPDEST JUMPDEST PUSH1 0x0 PUSH2 0x4A1C DUP6 DUP3 DUP7 ADD PUSH2 0x3E0F JUMP JUMPDEST SWAP3 POP POP PUSH1 0x20 PUSH2 0x4A2D DUP6 DUP3 DUP7 ADD PUSH2 0x3E0F JUMP JUMPDEST SWAP2 POP POP SWAP3 POP SWAP3 SWAP1 POP JUMP JUMPDEST PUSH1 0x0 DUP1 PUSH1 0x0 PUSH1 0x60 DUP5 DUP7 SUB SLT ISZERO PUSH2 0x4A50 JUMPI PUSH2 0x4A4F PUSH2 0x3D86 JUMP JUMPDEST JUMPDEST PUSH1 0x0 PUSH2 0x4A5E DUP7 DUP3 DUP8 ADD PUSH2 0x3DD9 JUMP JUMPDEST SWAP4 POP POP PUSH1 0x20 PUSH2 0x4A6F DUP7 DUP3 DUP8 ADD PUSH2 0x3E0F JUMP JUMPDEST SWAP3 POP POP PUSH1 0x40 PUSH2 0x4A80 DUP7 DUP3 DUP8 ADD PUSH2 0x3E0F JUMP JUMPDEST SWAP2 POP POP SWAP3 POP SWAP3 POP SWAP3 JUMP JUMPDEST PUSH2 0x4A93 DUP2 PUSH2 0x3E8E JUMP JUMPDEST DUP3 MSTORE POP POP JUMP JUMPDEST PUSH1 0x0 PUSH1 0x20 DUP3 ADD SWAP1 POP PUSH2 0x4AAE PUSH1 0x0 DUP4 ADD DUP5 PUSH2 0x4A8A JUMP JUMPDEST SWAP3 SWAP2 POP POP JUMP JUMPDEST PUSH1 0x0 PUSH1 0x20 DUP3 DUP5 SUB SLT ISZERO PUSH2 0x4ACA JUMPI PUSH2 0x4AC9 PUSH2 0x3D86 JUMP JUMPDEST JUMPDEST PUSH1 0x0 PUSH2 0x4AD8 DUP5 DUP3 DUP6 ADD PUSH2 0x3DD9 JUMP JUMPDEST SWAP2 POP POP SWAP3 SWAP2 POP POP JUMP JUMPDEST PUSH1 0x0 DUP1 PUSH1 0x40 DUP4 DUP6 SUB SLT ISZERO PUSH2 0x4AF8 JUMPI PUSH2 0x4AF7 PUSH2 0x3D86 JUMP JUMPDEST JUMPDEST PUSH1 0x0 PUSH2 0x4B06 DUP6 DUP3 DUP7 ADD PUSH2 0x3DD9 JUMP JUMPDEST SWAP3 POP POP PUSH1 0x20 PUSH2 0x4B17 DUP6 DUP3 DUP7 ADD PUSH2 0x3DD9 JUMP JUMPDEST SWAP2 POP POP SWAP3 POP SWAP3 SWAP1 POP JUMP JUMPDEST PUSH1 0x0 DUP1 PUSH1 0x0 DUP1 PUSH1 0x0 PUSH1 0xA0 DUP7 DUP9 SUB SLT ISZERO PUSH2 0x4B3D JUMPI PUSH2 0x4B3C PUSH2 0x3D86 JUMP JUMPDEST JUMPDEST PUSH1 0x0 PUSH2 0x4B4B DUP9 DUP3 DUP10 ADD PUSH2 0x3DD9 JUMP JUMPDEST SWAP6 POP POP PUSH1 0x20 PUSH2 0x4B5C DUP9 DUP3 DUP10 ADD PUSH2 0x3DD9 JUMP JUMPDEST SWAP5 POP POP PUSH1 0x40 PUSH2 0x4B6D DUP9 DUP3 DUP10 ADD PUSH2 0x3E0F JUMP JUMPDEST SWAP4 POP POP PUSH1 0x60 PUSH2 0x4B7E DUP9 DUP3 DUP10 ADD PUSH2 0x3E0F JUMP JUMPDEST SWAP3 POP POP PUSH1 0x80 DUP7 ADD CALLDATALOAD PUSH8 0xFFFFFFFFFFFFFFFF DUP2 GT ISZERO PUSH2 0x4B9F JUMPI PUSH2 0x4B9E PUSH2 0x3D8B JUMP JUMPDEST JUMPDEST PUSH2 0x4BAB DUP9 DUP3 DUP10 ADD PUSH2 0x4284 JUMP JUMPDEST SWAP2 POP POP SWAP3 SWAP6 POP SWAP3 SWAP6 SWAP1 SWAP4 POP JUMP JUMPDEST PUSH32 0x4E487B7100000000000000000000000000000000000000000000000000000000 PUSH1 0x0 MSTORE PUSH1 0x22 PUSH1 0x4 MSTORE PUSH1 0x24 PUSH1 0x0 REVERT JUMPDEST PUSH1 0x0 PUSH1 0x2 DUP3 DIV SWAP1 POP PUSH1 0x1 DUP3 AND DUP1 PUSH2 0x4BFF JUMPI PUSH1 0x7F DUP3 AND SWAP2 POP JUMPDEST PUSH1 0x20 DUP3 LT DUP2 SUB PUSH2 0x4C12 JUMPI PUSH2 0x4C11 PUSH2 0x4BB8 JUMP JUMPDEST JUMPDEST POP SWAP2 SWAP1 POP JUMP JUMPDEST PUSH1 0x0 DUP2 SWAP1 POP SWAP3 SWAP2 POP POP JUMP JUMPDEST PUSH1 0x0 DUP2 SWAP1 POP DUP2 PUSH1 0x0 MSTORE PUSH1 0x20 PUSH1 0x0 KECCAK256 SWAP1 POP SWAP2 SWAP1 POP JUMP JUMPDEST PUSH1 0x0 DUP2 SLOAD PUSH2 0x4C45 DUP2 PUSH2 0x4BE7 JUMP JUMPDEST PUSH2 0x4C4F DUP2 DUP7 PUSH2 0x4C18 JUMP JUMPDEST SWAP5 POP PUSH1 0x1 DUP3 AND PUSH1 0x0 DUP2 EQ PUSH2 0x4C6A JUMPI PUSH1 0x1 DUP2 EQ PUSH2 0x4C7F JUMPI PUSH2 0x4CB2 JUMP JUMPDEST PUSH1 0xFF NOT DUP4 AND DUP7 MSTORE DUP2 ISZERO ISZERO DUP3 MUL DUP7 ADD SWAP4 POP PUSH2 0x4CB2 JUMP JUMPDEST PUSH2 0x4C88 DUP6 PUSH2 0x4C23 JUMP JUMPDEST PUSH1 0x0 JUMPDEST DUP4 DUP2 LT ISZERO PUSH2 0x4CAA JUMPI DUP2 SLOAD DUP2 DUP10 ADD MSTORE PUSH1 0x1 DUP3 ADD SWAP2 POP PUSH1 0x20 DUP2 ADD SWAP1 POP PUSH2 0x4C8B JUMP JUMPDEST DUP4 DUP9 ADD SWAP6 POP POP POP JUMPDEST POP POP POP SWAP3 SWAP2 POP POP JUMP JUMPDEST PUSH1 0x0 PUSH2 0x4CC7 DUP3 DUP6 PUSH2 0x4C38 JUMP JUMPDEST SWAP2 POP PUSH2 0x4CD3 DUP3 DUP5 PUSH2 0x4C38 JUMP JUMPDEST SWAP2 POP DUP2 SWAP1 POP SWAP4 SWAP3 POP POP POP JUMP JUMPDEST PUSH1 0x0 PUSH1 0x40 DUP3 ADD SWAP1 POP PUSH2 0x4CF4 PUSH1 0x0 DUP4 ADD DUP6 PUSH2 0x43C1 JUMP JUMPDEST PUSH2 0x4D01 PUSH1 0x20 DUP4 ADD DUP5 PUSH2 0x43C1 JUMP JUMPDEST SWAP4 SWAP3 POP POP POP JUMP JUMPDEST PUSH32 0x6F6E6C79206D6F64657261746F727320616C6C6F776564000000000000000000 PUSH1 0x0 DUP3 ADD MSTORE POP JUMP JUMPDEST PUSH1 0x0 PUSH2 0x4D3E PUSH1 0x17 DUP4 PUSH2 0x3F54 JUMP JUMPDEST SWAP2 POP PUSH2 0x4D49 DUP3 PUSH2 0x4D08 JUMP JUMPDEST PUSH1 0x20 DUP3 ADD SWAP1 POP SWAP2 SWAP1 POP JUMP JUMPDEST PUSH1 0x0 PUSH1 0x20 DUP3 ADD SWAP1 POP DUP2 DUP2 SUB PUSH1 0x0 DUP4 ADD MSTORE PUSH2 0x4D6D DUP2 PUSH2 0x4D31 JUMP JUMPDEST SWAP1 POP SWAP2 SWAP1 POP JUMP JUMPDEST PUSH1 0x0 PUSH1 0x40 DUP3 ADD SWAP1 POP PUSH2 0x4D89 PUSH1 0x0 DUP4 ADD DUP6 PUSH2 0x3E64 JUMP JUMPDEST PUSH2 0x4D96 PUSH1 0x20 DUP4 ADD DUP5 PUSH2 0x3E64 JUMP JUMPDEST SWAP4 SWAP3 POP POP POP JUMP JUMPDEST PUSH32 0x4E487B7100000000000000000000000000000000000000000000000000000000 PUSH1 0x0 MSTORE PUSH1 0x32 PUSH1 0x4 MSTORE PUSH1 0x24 PUSH1 0x0 REVERT JUMPDEST PUSH32 0x4E487B7100000000000000000000000000000000000000000000000000000000 PUSH1 0x0 MSTORE PUSH1 0x11 PUSH1 0x4 MSTORE PUSH1 0x24 PUSH1 0x0 REVERT JUMPDEST PUSH1 0x0 PUSH2 0x4E06 DUP3 PUSH2 0x3DEE JUMP JUMPDEST SWAP2 POP PUSH32 0xFFFFFFFFFFFFFFFFFFFFFFFFFFFFFFFFFFFFFFFFFFFFFFFFFFFFFFFFFFFFFFFF DUP3 SUB PUSH2 0x4E38 JUMPI PUSH2 0x4E37 PUSH2 0x4DCC JUMP JUMPDEST JUMPDEST PUSH1 0x1 DUP3 ADD SWAP1 POP SWAP2 SWAP1 POP JUMP JUMPDEST PUSH32 0x6E6F2072656164207065726D697373696F6E0000000000000000000000000000 PUSH1 0x0 DUP3 ADD MSTORE POP JUMP JUMPDEST PUSH1 0x0 PUSH2 0x4E79 PUSH1 0x12 DUP4 PUSH2 0x3F54 JUMP JUMPDEST SWAP2 POP PUSH2 0x4E84 DUP3 PUSH2 0x4E43 JUMP JUMPDEST PUSH1 0x20 DUP3 ADD SWAP1 POP SWAP2 SWAP1 POP JUMP JUMPDEST PUSH1 0x0 PUSH1 0x20 DUP3 ADD SWAP1 POP DUP2 DUP2 SUB PUSH1 0x0 DUP4 ADD MSTORE PUSH2 0x4EA8 DUP2 PUSH2 0x4E6C JUMP JUMPDEST SWAP1 POP SWAP2 SWAP1 POP JUMP JUMPDEST PUSH32 0x546F6B656E20646F6573206E6F74206578697374730000000000000000000000 PUSH1 0x0 DUP3 ADD MSTORE POP JUMP JUMPDEST PUSH1 0x0 PUSH2 0x4EE5 PUSH1 0x15 DUP4 PUSH2 0x3F54 JUMP JUMPDEST SWAP2 POP PUSH2 0x4EF0 DUP3 PUSH2 0x4EAF JUMP JUMPDEST PUSH1 0x20 DUP3 ADD SWAP1 POP SWAP2 SWAP1 POP JUMP JUMPDEST PUSH1 0x0 PUSH1 0x20 DUP3 ADD SWAP1 POP DUP2 DUP2 SUB PUSH1 0x0 DUP4 ADD MSTORE PUSH2 0x4F14 DUP2 PUSH2 0x4ED8 JUMP JUMPDEST SWAP1 POP SWAP2 SWAP1 POP JUMP JUMPDEST PUSH32 0x4E6F206D696E74207065726D697373696F6E0000000000000000000000000000 PUSH1 0x0 DUP3 ADD MSTORE POP JUMP JUMPDEST PUSH1 0x0 PUSH2 0x4F51 PUSH1 0x12 DUP4 PUSH2 0x3F54 JUMP JUMPDEST SWAP2 POP PUSH2 0x4F5C DUP3 PUSH2 0x4F1B JUMP JUMPDEST PUSH1 0x20 DUP3 ADD SWAP1 POP SWAP2 SWAP1 POP JUMP JUMPDEST PUSH1 0x0 PUSH1 0x20 DUP3 ADD SWAP1 POP DUP2 DUP2 SUB PUSH1 0x0 DUP4 ADD MSTORE PUSH2 0x4F80 DUP2 PUSH2 0x4F44 JUMP JUMPDEST SWAP1 POP SWAP2 SWAP1 POP JUMP JUMPDEST PUSH1 0x0 PUSH1 0x40 DUP3 ADD SWAP1 POP PUSH2 0x4F9C PUSH1 0x0 DUP4 ADD DUP6 PUSH2 0x43C1 JUMP JUMPDEST PUSH2 0x4FA9 PUSH1 0x20 DUP4 ADD DUP5 PUSH2 0x3E64 JUMP JUMPDEST SWAP4 SWAP3 POP POP POP JUMP JUMPDEST PUSH1 0x0 DUP2 MLOAD SWAP1 POP PUSH2 0x4FBF DUP2 PUSH2 0x3DF8 JUMP JUMPDEST SWAP3 SWAP2 POP POP JUMP JUMPDEST PUSH1 0x0 PUSH1 0x20 DUP3 DUP5 SUB SLT ISZERO PUSH2 0x4FDB JUMPI PUSH2 0x4FDA PUSH2 0x3D86 JUMP JUMPDEST JUMPDEST PUSH1 0x0 PUSH2 0x4FE9 DUP5 DUP3 DUP6 ADD PUSH2 0x4FB0 JUMP JUMPDEST SWAP2 POP POP SWAP3 SWAP2 POP POP JUMP JUMPDEST PUSH1 0x0 PUSH1 0x60 DUP3 ADD SWAP1 POP PUSH2 0x5007 PUSH1 0x0 DUP4 ADD DUP7 PUSH2 0x3E64 JUMP JUMPDEST PUSH2 0x5014 PUSH1 0x20 DUP4 ADD DUP6 PUSH2 0x3E64 JUMP JUMPDEST PUSH2 0x5021 PUSH1 0x40 DUP4 ADD DUP5 PUSH2 0x43C1 JUMP JUMPDEST SWAP5 SWAP4 POP POP POP POP JUMP JUMPDEST PUSH1 0x0 PUSH2 0x5034 DUP3 PUSH2 0x3DEE JUMP JUMPDEST SWAP2 POP PUSH2 0x503F DUP4 PUSH2 0x3DEE JUMP JUMPDEST SWAP3 POP DUP3 DUP3 ADD SWAP1 POP DUP1 DUP3 GT ISZERO PUSH2 0x5057 JUMPI PUSH2 0x5056 PUSH2 0x4DCC JUMP JUMPDEST JUMPDEST SWAP3 SWAP2 POP POP JUMP JUMPDEST PUSH1 0x0 PUSH1 0x20 PUSH1 0x1F DUP4 ADD DIV SWAP1 POP SWAP2 SWAP1 POP JUMP JUMPDEST PUSH1 0x0 DUP3 DUP3 SHL SWAP1 POP SWAP3 SWAP2 POP POP JUMP JUMPDEST PUSH1 0x0 PUSH1 0x8 DUP4 MUL PUSH2 0x50AA PUSH32 0xFFFFFFFFFFFFFFFFFFFFFFFFFFFFFFFFFFFFFFFFFFFFFFFFFFFFFFFFFFFFFFFF DUP3 PUSH2 0x506D JUMP JUMPDEST PUSH2 0x50B4 DUP7 DUP4 PUSH2 0x506D JUMP JUMPDEST SWAP6 POP DUP1 NOT DUP5 AND SWAP4 POP DUP1 DUP7 AND DUP5 OR SWAP3 POP POP POP SWAP4 SWAP3 POP POP POP JUMP JUMPDEST PUSH1 0x0 DUP2 SWAP1 POP SWAP2 SWAP1 POP JUMP JUMPDEST PUSH1 0x0 PUSH2 0x50F1 PUSH2 0x50EC PUSH2 0x50E7 DUP5 PUSH2 0x3DEE JUMP JUMPDEST PUSH2 0x50CC JUMP JUMPDEST PUSH2 0x3DEE JUMP JUMPDEST SWAP1 POP SWAP2 SWAP1 POP JUMP JUMPDEST PUSH1 0x0 DUP2 SWAP1 POP SWAP2 SWAP1 POP JUMP JUMPDEST PUSH2 0x510B DUP4 PUSH2 0x50D6 JUMP JUMPDEST PUSH2 0x511F PUSH2 0x5117 DUP3 PUSH2 0x50F8 JUMP JUMPDEST DUP5 DUP5 SLOAD PUSH2 0x507A JUMP JUMPDEST DUP3 SSTORE POP POP POP POP JUMP JUMPDEST PUSH1 0x0 SWAP1 JUMP JUMPDEST PUSH2 0x5134 PUSH2 0x5127 JUMP JUMPDEST PUSH2 0x513F DUP2 DUP5 DUP5 PUSH2 0x5102 JUMP JUMPDEST POP POP POP JUMP JUMPDEST JUMPDEST DUP2 DUP2 LT ISZERO PUSH2 0x5163 JUMPI PUSH2 0x5158 PUSH1 0x0 DUP3 PUSH2 0x512C JUMP JUMPDEST PUSH1 0x1 DUP2 ADD SWAP1 POP PUSH2 0x5145 JUMP JUMPDEST POP POP JUMP JUMPDEST PUSH1 0x1F DUP3 GT ISZERO PUSH2 0x51A8 JUMPI PUSH2 0x5179 DUP2 PUSH2 0x4C23 JUMP JUMPDEST PUSH2 0x5182 DUP5 PUSH2 0x505D JUMP JUMPDEST DUP2 ADD PUSH1 0x20 DUP6 LT ISZERO PUSH2 0x5191 JUMPI DUP2 SWAP1 POP JUMPDEST PUSH2 0x51A5 PUSH2 0x519D DUP6 PUSH2 0x505D JUMP JUMPDEST DUP4 ADD DUP3 PUSH2 0x5144 JUMP JUMPDEST POP POP JUMPDEST POP POP POP JUMP JUMPDEST PUSH1 0x0 DUP3 DUP3 SHR SWAP1 POP SWAP3 SWAP2 POP POP JUMP JUMPDEST PUSH1 0x0 PUSH2 0x51CB PUSH1 0x0 NOT DUP5 PUSH1 0x8 MUL PUSH2 0x51AD JUMP JUMPDEST NOT DUP1 DUP4 AND SWAP2 POP POP SWAP3 SWAP2 POP POP JUMP JUMPDEST PUSH1 0x0 PUSH2 0x51E4 DUP4 DUP4 PUSH2 0x51BA JUMP JUMPDEST SWAP2 POP DUP3 PUSH1 0x2 MUL DUP3 OR SWAP1 POP SWAP3 SWAP2 POP POP JUMP JUMPDEST PUSH2 0x51FD DUP3 PUSH2 0x3F49 JUMP JUMPDEST PUSH8 0xFFFFFFFFFFFFFFFF DUP2 GT ISZERO PUSH2 0x5216 JUMPI PUSH2 0x5215 PUSH2 0x40BA JUMP JUMPDEST JUMPDEST PUSH2 0x5220 DUP3 SLOAD PUSH2 0x4BE7 JUMP JUMPDEST PUSH2 0x522B DUP3 DUP3 DUP6 PUSH2 0x5167 JUMP JUMPDEST PUSH1 0x0 PUSH1 0x20 SWAP1 POP PUSH1 0x1F DUP4 GT PUSH1 0x1 DUP2 EQ PUSH2 0x525E JUMPI PUSH1 0x0 DUP5 ISZERO PUSH2 0x524C JUMPI DUP3 DUP8 ADD MLOAD SWAP1 POP JUMPDEST PUSH2 0x5256 DUP6 DUP3 PUSH2 0x51D8 JUMP JUMPDEST DUP7 SSTORE POP PUSH2 0x52BE JUMP JUMPDEST PUSH1 0x1F NOT DUP5 AND PUSH2 0x526C DUP7 PUSH2 0x4C23 JUMP JUMPDEST PUSH1 0x0 JUMPDEST DUP3 DUP2 LT ISZERO PUSH2 0x5294 JUMPI DUP5 DUP10 ADD MLOAD DUP3 SSTORE PUSH1 0x1 DUP3 ADD SWAP2 POP PUSH1 0x20 DUP6 ADD SWAP5 POP PUSH1 0x20 DUP2 ADD SWAP1 POP PUSH2 0x526F JUMP JUMPDEST DUP7 DUP4 LT ISZERO PUSH2 0x52B1 JUMPI DUP5 DUP10 ADD MLOAD PUSH2 0x52AD PUSH1 0x1F DUP10 AND DUP3 PUSH2 0x51BA JUMP JUMPDEST DUP4 SSTORE POP JUMPDEST PUSH1 0x1 PUSH1 0x2 DUP9 MUL ADD DUP9 SSTORE POP POP POP JUMPDEST POP POP POP POP POP POP JUMP JUMPDEST PUSH1 0x0 DUP2 SWAP1 POP SWAP2 SWAP1 POP JUMP JUMPDEST PUSH1 0x0 PUSH8 0xFFFFFFFFFFFFFFFF DUP3 AND SWAP1 POP SWAP2 SWAP1 POP JUMP JUMPDEST PUSH1 0x0 PUSH2 0x52FF PUSH2 0x52FA PUSH2 0x52F5 DUP5 PUSH2 0x52C6 JUMP JUMPDEST PUSH2 0x50CC JUMP JUMPDEST PUSH2 0x52D0 JUMP JUMPDEST SWAP1 POP SWAP2 SWAP1 POP JUMP JUMPDEST PUSH2 0x530F DUP2 PUSH2 0x52E4 JUMP JUMPDEST DUP3 MSTORE POP POP JUMP JUMPDEST PUSH1 0x0 PUSH1 0x20 DUP3 ADD SWAP1 POP PUSH2 0x532A PUSH1 0x0 DUP4 ADD DUP5 PUSH2 0x5306 JUMP JUMPDEST SWAP3 SWAP2 POP POP JUMP JUMPDEST PUSH32 0x6E6F207772697465207065726D697373696F6E00000000000000000000000000 PUSH1 0x0 DUP3 ADD MSTORE POP JUMP JUMPDEST PUSH1 0x0 PUSH2 0x5366 PUSH1 0x13 DUP4 PUSH2 0x3F54 JUMP JUMPDEST SWAP2 POP PUSH2 0x5371 DUP3 PUSH2 0x5330 JUMP JUMPDEST PUSH1 0x20 DUP3 ADD SWAP1 POP SWAP2 SWAP1 POP JUMP JUMPDEST PUSH1 0x0 PUSH1 0x20 DUP3 ADD SWAP1 POP DUP2 DUP2 SUB PUSH1 0x0 DUP4 ADD MSTORE PUSH2 0x5395 DUP2 PUSH2 0x5359 JUMP JUMPDEST SWAP1 POP SWAP2 SWAP1 POP JUMP JUMPDEST PUSH1 0x0 PUSH1 0xA0 DUP3 ADD SWAP1 POP PUSH2 0x53B1 PUSH1 0x0 DUP4 ADD DUP9 PUSH2 0x3E64 JUMP JUMPDEST PUSH2 0x53BE PUSH1 0x20 DUP4 ADD DUP8 PUSH2 0x43C1 JUMP JUMPDEST PUSH2 0x53CB PUSH1 0x40 DUP4 ADD DUP7 PUSH2 0x3F1F JUMP JUMPDEST PUSH2 0x53D8 PUSH1 0x60 DUP4 ADD DUP6 PUSH2 0x3E64 JUMP JUMPDEST PUSH2 0x53E5 PUSH1 0x80 DUP4 ADD DUP5 PUSH2 0x3E64 JUMP JUMPDEST SWAP7 SWAP6 POP POP POP POP POP POP JUMP JUMPDEST PUSH1 0x0 PUSH2 0x540A PUSH2 0x5405 PUSH2 0x5400 DUP5 PUSH2 0x52C6 JUMP JUMPDEST PUSH2 0x50CC JUMP JUMPDEST PUSH2 0x3DEE JUMP JUMPDEST SWAP1 POP SWAP2 SWAP1 POP JUMP JUMPDEST PUSH2 0x541A DUP2 PUSH2 0x53EF JUMP JUMPDEST DUP3 MSTORE POP POP JUMP JUMPDEST PUSH1 0x0 PUSH1 0x60 DUP3 ADD SWAP1 POP PUSH2 0x5435 PUSH1 0x0 DUP4 ADD DUP7 PUSH2 0x3E64 JUMP JUMPDEST PUSH2 0x5442 PUSH1 0x20 DUP4 ADD DUP6 PUSH2 0x5411 JUMP JUMPDEST PUSH2 0x544F PUSH1 0x40 DUP4 ADD DUP5 PUSH2 0x43C1 JUMP JUMPDEST SWAP5 SWAP4 POP POP POP POP JUMP JUMPDEST PUSH32 0x496E736966696369656E742062616C616E636500000000000000000000000000 PUSH1 0x0 DUP3 ADD MSTORE POP JUMP JUMPDEST PUSH1 0x0 PUSH2 0x548D PUSH1 0x13 DUP4 PUSH2 0x3F54 JUMP JUMPDEST SWAP2 POP PUSH2 0x5498 DUP3 PUSH2 0x5457 JUMP JUMPDEST PUSH1 0x20 DUP3 ADD SWAP1 POP SWAP2 SWAP1 POP JUMP JUMPDEST PUSH1 0x0 PUSH1 0x20 DUP3 ADD SWAP1 POP DUP2 DUP2 SUB PUSH1 0x0 DUP4 ADD MSTORE PUSH2 0x54BC DUP2 PUSH2 0x5480 JUMP JUMPDEST SWAP1 POP SWAP2 SWAP1 POP JUMP JUMPDEST PUSH1 0x0 PUSH2 0x54CE DUP3 PUSH2 0x3DEE JUMP JUMPDEST SWAP2 POP PUSH2 0x54D9 DUP4 PUSH2 0x3DEE JUMP JUMPDEST SWAP3 POP DUP3 DUP3 SUB SWAP1 POP DUP2 DUP2 GT ISZERO PUSH2 0x54F1 JUMPI PUSH2 0x54F0 PUSH2 0x4DCC JUMP JUMPDEST JUMPDEST SWAP3 SWAP2 POP POP JUMP JUMPDEST PUSH1 0x0 DUP2 SWAP1 POP SWAP2 SWAP1 POP JUMP JUMPDEST PUSH1 0x0 DUP2 PUSH1 0xE0 SHL SWAP1 POP SWAP2 SWAP1 POP JUMP JUMPDEST PUSH1 0x0 PUSH2 0x5529 PUSH2 0x5524 PUSH2 0x551F DUP5 PUSH2 0x54F7 JUMP JUMPDEST PUSH2 0x5501 JUMP JUMPDEST PUSH2 0x3E8E JUMP JUMPDEST SWAP1 POP SWAP2 SWAP1 POP JUMP JUMPDEST PUSH2 0x5539 DUP2 PUSH2 0x550E JUMP JUMPDEST DUP3 MSTORE POP POP JUMP JUMPDEST PUSH1 0x0 PUSH1 0x20 DUP3 ADD SWAP1 POP PUSH2 0x5554 PUSH1 0x0 DUP4 ADD DUP5 PUSH2 0x5530 JUMP JUMPDEST SWAP3 SWAP2 POP POP JUMP JUMPDEST PUSH1 0x0 DUP2 MLOAD SWAP1 POP PUSH2 0x5569 DUP2 PUSH2 0x48B5 JUMP JUMPDEST SWAP3 SWAP2 POP POP JUMP JUMPDEST PUSH1 0x0 PUSH1 0x20 DUP3 DUP5 SUB SLT ISZERO PUSH2 0x5585 JUMPI PUSH2 0x5584 PUSH2 0x3D86 JUMP JUMPDEST JUMPDEST PUSH1 0x0 PUSH2 0x5593 DUP5 DUP3 DUP6 ADD PUSH2 0x555A JUMP JUMPDEST SWAP2 POP POP SWAP3 SWAP2 POP POP JUMP JUMPDEST PUSH32 0x55524920616C7265616479207365740000000000000000000000000000000000 PUSH1 0x0 DUP3 ADD MSTORE POP JUMP JUMPDEST PUSH1 0x0 PUSH2 0x55D2 PUSH1 0xF DUP4 PUSH2 0x3F54 JUMP JUMPDEST SWAP2 POP PUSH2 0x55DD DUP3 PUSH2 0x559C JUMP JUMPDEST PUSH1 0x20 DUP3 ADD SWAP1 POP SWAP2 SWAP1 POP JUMP JUMPDEST PUSH1 0x0 PUSH1 0x20 DUP3 ADD SWAP1 POP DUP2 DUP2 SUB PUSH1 0x0 DUP4 ADD MSTORE PUSH2 0x5601 DUP2 PUSH2 0x55C5 JUMP JUMPDEST SWAP1 POP SWAP2 SWAP1 POP JUMP JUMPDEST PUSH1 0x0 PUSH1 0x40 DUP3 ADD SWAP1 POP PUSH2 0x561D PUSH1 0x0 DUP4 ADD DUP6 PUSH2 0x43C1 JUMP JUMPDEST PUSH2 0x562A PUSH1 0x20 DUP4 ADD DUP5 PUSH2 0x408B JUMP JUMPDEST SWAP4 SWAP3 POP POP POP JUMP JUMPDEST PUSH1 0x0 PUSH1 0x80 DUP3 ADD SWAP1 POP PUSH2 0x5646 PUSH1 0x0 DUP4 ADD DUP8 PUSH2 0x43C1 JUMP JUMPDEST PUSH2 0x5653 PUSH1 0x20 DUP4 ADD DUP7 PUSH2 0x3E64 JUMP JUMPDEST PUSH2 0x5660 PUSH1 0x40 DUP4 ADD DUP6 PUSH2 0x3E64 JUMP JUMPDEST PUSH2 0x566D PUSH1 0x60 DUP4 ADD DUP5 PUSH2 0x3E64 JUMP JUMPDEST SWAP6 SWAP5 POP POP POP POP POP JUMP JUMPDEST PUSH1 0x0 PUSH1 0x40 DUP3 ADD SWAP1 POP DUP2 DUP2 SUB PUSH1 0x0 DUP4 ADD MSTORE PUSH2 0x5690 DUP2 DUP6 PUSH2 0x4586 JUMP JUMPDEST SWAP1 POP DUP2 DUP2 SUB PUSH1 0x20 DUP4 ADD MSTORE PUSH2 0x56A4 DUP2 DUP5 PUSH2 0x4586 JUMP JUMPDEST SWAP1 POP SWAP4 SWAP3 POP POP POP JUMP JUMPDEST PUSH1 0x0 DUP2 MLOAD SWAP1 POP SWAP2 SWAP1 POP JUMP JUMPDEST PUSH1 0x0 DUP3 DUP3 MSTORE PUSH1 0x20 DUP3 ADD SWAP1 POP SWAP3 SWAP2 POP POP JUMP JUMPDEST PUSH1 0x0 PUSH2 0x56D4 DUP3 PUSH2 0x56AD JUMP JUMPDEST PUSH2 0x56DE DUP2 DUP6 PUSH2 0x56B8 JUMP JUMPDEST SWAP4 POP PUSH2 0x56EE DUP2 DUP6 PUSH1 0x20 DUP7 ADD PUSH2 0x3F65 JUMP JUMPDEST PUSH2 0x56F7 DUP2 PUSH2 0x3F8F JUMP JUMPDEST DUP5 ADD SWAP2 POP POP SWAP3 SWAP2 POP POP JUMP JUMPDEST PUSH1 0x0 PUSH1 0xA0 DUP3 ADD SWAP1 POP PUSH2 0x5717 PUSH1 0x0 DUP4 ADD DUP9 PUSH2 0x43C1 JUMP JUMPDEST PUSH2 0x5724 PUSH1 0x20 DUP4 ADD DUP8 PUSH2 0x43C1 JUMP JUMPDEST PUSH2 0x5731 PUSH1 0x40 DUP4 ADD DUP7 PUSH2 0x3E64 JUMP JUMPDEST PUSH2 0x573E PUSH1 0x60 DUP4 ADD DUP6 PUSH2 0x3E64 JUMP JUMPDEST DUP2 DUP2 SUB PUSH1 0x80 DUP4 ADD MSTORE PUSH2 0x5750 DUP2 DUP5 PUSH2 0x56C9 JUMP JUMPDEST SWAP1 POP SWAP7 SWAP6 POP POP POP POP POP POP JUMP JUMPDEST PUSH1 0x0 DUP2 MLOAD SWAP1 POP PUSH2 0x576B DUP2 PUSH2 0x3EBA JUMP JUMPDEST SWAP3 SWAP2 POP POP JUMP JUMPDEST PUSH1 0x0 PUSH1 0x20 DUP3 DUP5 SUB SLT ISZERO PUSH2 0x5787 JUMPI PUSH2 0x5786 PUSH2 0x3D86 JUMP JUMPDEST JUMPDEST PUSH1 0x0 PUSH2 0x5795 DUP5 DUP3 DUP6 ADD PUSH2 0x575C JUMP JUMPDEST SWAP2 POP POP SWAP3 SWAP2 POP POP JUMP JUMPDEST PUSH1 0x0 PUSH1 0xA0 DUP3 ADD SWAP1 POP PUSH2 0x57B3 PUSH1 0x0 DUP4 ADD DUP9 PUSH2 0x43C1 JUMP JUMPDEST PUSH2 0x57C0 PUSH1 0x20 DUP4 ADD DUP8 PUSH2 0x43C1 JUMP JUMPDEST DUP2 DUP2 SUB PUSH1 0x40 DUP4 ADD MSTORE PUSH2 0x57D2 DUP2 DUP7 PUSH2 0x4586 JUMP JUMPDEST SWAP1 POP DUP2 DUP2 SUB PUSH1 0x60 DUP4 ADD MSTORE PUSH2 0x57E6 DUP2 DUP6 PUSH2 0x4586 JUMP JUMPDEST SWAP1 POP DUP2 DUP2 SUB PUSH1 0x80 DUP4 ADD MSTORE PUSH2 0x57FA DUP2 DUP5 PUSH2 0x56C9 JUMP JUMPDEST SWAP1 POP SWAP7 SWAP6 POP POP POP POP POP POP JUMP JUMPDEST PUSH32 0x4E487B7100000000000000000000000000000000000000000000000000000000 PUSH1 0x0 MSTORE PUSH1 0x31 PUSH1 0x4 MSTORE PUSH1 0x24 PUSH1 0x0 REVERT INVALID LOG2 PUSH5 0x6970667358 0x22 SLT KECCAK256 0x5D MSIZE PUSH26 0x7D042AD860220410BD01F1B3161E286564C0A91304D9A4C647B4 0xCC 0xE SLT PUSH5 0x736F6C6343 STOP ADDMOD EQ STOP CALLER "
		},
		"gasEstimates": {
			"creation": {
				"codeDepositCost": "4527000",
				"executionCost": "infinite",
				"totalCost": "infinite"
			},
			"external": {
				"DEFAULT_ADMIN_ROLE()": "447",
				"VERSION()": "461",
				"balanceOf(address,uint256)": "infinite",
				"balanceOfBatch(address[],uint256[])": "infinite",
				"burn(uint256,uint256)": "infinite",
				"collect(uint256,address,uint256,address)": "infinite",
				"collectionPermissions()": "2698",
				"create(string,address,address,address,uint256,uint256,bool,bool)": "infinite",
				"creator(uint256)": "2929",
				"getRoleAdmin(bytes32)": "infinite",
				"getRoleMember(bytes32,uint256)": "infinite",
				"getRoleMemberCount(bytes32)": "3007",
				"grantRole(bytes32,address)": "infinite",
				"hasReadPermission(address)": "infinite",
				"hasRole(bytes32,address)": "3240",
				"hasWritePermission(address)": "infinite",
				"initialize(string,address,uint8,uint8,address,uint256)": "infinite",
				"isApprovedForAll(address,address)": "infinite",
				"isListed(uint256)": "2906",
				"isModerator(address)": "3157",
				"marketAddresses(uint256)": "2951",
				"minimumBalance()": "2540",
				"name()": "infinite",
				"onERC1155BatchReceived(address,address,uint256[],uint256[],bytes)": "infinite",
				"onERC1155Received(address,address,uint256,uint256,bytes)": "infinite",
				"pause()": "infinite",
				"paused()": "2645",
				"readType()": "2516",
				"renounceRole(bytes32,address)": "infinite",
				"revokeRole(bytes32,address)": "infinite",
				"safeBatchTransferFrom(address,address,uint256[],uint256[],bytes)": "infinite",
				"safeTransferFrom(address,address,uint256,uint256,bytes)": "infinite",
				"setApprovalForAll(address,bool)": "infinite",
				"supportsInterface(bytes4)": "1152",
				"tokenPermissions(uint256)": "2884",
				"tokenSupply(uint256)": "infinite",
				"unpause()": "infinite",
				"uri(uint256)": "infinite",
				"withdraw(address,uint256,uint256)": "infinite",
				"writeType()": "2611"
			},
			"internal": {
				"_checkBalance(uint256,address)": "infinite",
				"_setTokenMetadata(uint256,string memory)": "infinite",
				"checkTokenPermissions(uint256,address)": "infinite"
			}
		},
		"methodIdentifiers": {
			"DEFAULT_ADMIN_ROLE()": "a217fddf",
			"VERSION()": "ffa1ad74",
			"balanceOf(address,uint256)": "00fdd58e",
			"balanceOfBatch(address[],uint256[])": "4e1273f4",
			"burn(uint256,uint256)": "b390c0ab",
			"collect(uint256,address,uint256,address)": "7c3ab9f2",
			"collectionPermissions()": "5fee596c",
			"create(string,address,address,address,uint256,uint256,bool,bool)": "93e27507",
			"creator(uint256)": "510b5158",
			"getRoleAdmin(bytes32)": "248a9ca3",
			"getRoleMember(bytes32,uint256)": "9010d07c",
			"getRoleMemberCount(bytes32)": "ca15c873",
			"grantRole(bytes32,address)": "2f2ff15d",
			"hasReadPermission(address)": "c47cb4b2",
			"hasRole(bytes32,address)": "91d14854",
			"hasWritePermission(address)": "e90b3d3d",
			"initialize(string,address,uint8,uint8,address,uint256)": "87d0dc40",
			"isApprovedForAll(address,address)": "e985e9c5",
			"isListed(uint256)": "fcce4883",
			"isModerator(address)": "fa6f3936",
			"marketAddresses(uint256)": "350293a1",
			"minimumBalance()": "b9d1d49b",
			"name()": "06fdde03",
			"onERC1155BatchReceived(address,address,uint256[],uint256[],bytes)": "bc197c81",
			"onERC1155Received(address,address,uint256,uint256,bytes)": "f23a6e61",
			"pause()": "8456cb59",
			"paused()": "5c975abb",
			"readType()": "6b1a3de3",
			"renounceRole(bytes32,address)": "36568abe",
			"revokeRole(bytes32,address)": "d547741f",
			"safeBatchTransferFrom(address,address,uint256[],uint256[],bytes)": "2eb2c2d6",
			"safeTransferFrom(address,address,uint256,uint256,bytes)": "f242432a",
			"setApprovalForAll(address,bool)": "a22cb465",
			"supportsInterface(bytes4)": "01ffc9a7",
			"tokenPermissions(uint256)": "b31985c2",
			"tokenSupply(uint256)": "2693ebf2",
			"unpause()": "3f4ba83a",
			"uri(uint256)": "0e89341c",
			"withdraw(address,uint256,uint256)": "b5c5f672",
			"writeType()": "9bc62352"
		}
	},
	"abi": [
		{
			"inputs": [],
			"name": "AccessControlBadConfirmation",
			"type": "error"
		},
		{
			"inputs": [
				{
					"internalType": "address",
					"name": "account",
					"type": "address"
				},
				{
					"internalType": "bytes32",
					"name": "neededRole",
					"type": "bytes32"
				}
			],
			"name": "AccessControlUnauthorizedAccount",
			"type": "error"
		},
		{
			"inputs": [
				{
					"internalType": "address",
					"name": "sender",
					"type": "address"
				},
				{
					"internalType": "uint256",
					"name": "balance",
					"type": "uint256"
				},
				{
					"internalType": "uint256",
					"name": "needed",
					"type": "uint256"
				},
				{
					"internalType": "uint256",
					"name": "tokenId",
					"type": "uint256"
				}
			],
			"name": "ERC1155InsufficientBalance",
			"type": "error"
		},
		{
			"inputs": [
				{
					"internalType": "address",
					"name": "approver",
					"type": "address"
				}
			],
			"name": "ERC1155InvalidApprover",
			"type": "error"
		},
		{
			"inputs": [
				{
					"internalType": "uint256",
					"name": "idsLength",
					"type": "uint256"
				},
				{
					"internalType": "uint256",
					"name": "valuesLength",
					"type": "uint256"
				}
			],
			"name": "ERC1155InvalidArrayLength",
			"type": "error"
		},
		{
			"inputs": [
				{
					"internalType": "address",
					"name": "operator",
					"type": "address"
				}
			],
			"name": "ERC1155InvalidOperator",
			"type": "error"
		},
		{
			"inputs": [
				{
					"internalType": "address",
					"name": "receiver",
					"type": "address"
				}
			],
			"name": "ERC1155InvalidReceiver",
			"type": "error"
		},
		{
			"inputs": [
				{
					"internalType": "address",
					"name": "sender",
					"type": "address"
				}
			],
			"name": "ERC1155InvalidSender",
			"type": "error"
		},
		{
			"inputs": [
				{
					"internalType": "address",
					"name": "operator",
					"type": "address"
				},
				{
					"internalType": "address",
					"name": "owner",
					"type": "address"
				}
			],
			"name": "ERC1155MissingApprovalForAll",
			"type": "error"
		},
		{
			"inputs": [],
			"name": "EnforcedPause",
			"type": "error"
		},
		{
			"inputs": [],
			"name": "ExpectedPause",
			"type": "error"
		},
		{
			"inputs": [],
			"name": "InvalidInitialization",
			"type": "error"
		},
		{
			"inputs": [],
			"name": "NotInitializing",
			"type": "error"
		},
		{
			"inputs": [],
			"name": "ReentrancyGuardReentrantCall",
			"type": "error"
		},
		{
			"anonymous": false,
			"inputs": [
				{
					"indexed": true,
					"internalType": "address",
					"name": "account",
					"type": "address"
				},
				{
					"indexed": true,
					"internalType": "address",
					"name": "operator",
					"type": "address"
				},
				{
					"indexed": false,
					"internalType": "bool",
					"name": "approved",
					"type": "bool"
				}
			],
			"name": "ApprovalForAll",
			"type": "event"
		},
		{
			"anonymous": false,
			"inputs": [
				{
					"indexed": false,
					"internalType": "uint64",
					"name": "version",
					"type": "uint64"
				}
			],
			"name": "Initialized",
			"type": "event"
		},
		{
			"anonymous": false,
			"inputs": [
				{
					"indexed": false,
					"internalType": "address",
					"name": "account",
					"type": "address"
				},
				{
					"indexed": false,
					"internalType": "uint256",
					"name": "id",
					"type": "uint256"
				},
				{
					"indexed": false,
					"internalType": "address",
					"name": "contractAddress",
					"type": "address"
				}
			],
			"name": "NewVersoCollected",
			"type": "event"
		},
		{
			"anonymous": false,
			"inputs": [
				{
					"indexed": false,
					"internalType": "address",
					"name": "account",
					"type": "address"
				},
				{
					"indexed": false,
					"internalType": "uint256",
					"name": "id",
					"type": "uint256"
				},
				{
					"indexed": false,
					"internalType": "string",
					"name": "metadataURI",
					"type": "string"
				}
			],
			"name": "NewVersoCreated",
			"type": "event"
		},
		{
			"anonymous": false,
			"inputs": [
				{
					"indexed": false,
					"internalType": "address",
					"name": "account",
					"type": "address"
				}
			],
			"name": "Paused",
			"type": "event"
		},
		{
			"anonymous": false,
			"inputs": [
				{
					"indexed": true,
					"internalType": "bytes32",
					"name": "role",
					"type": "bytes32"
				},
				{
					"indexed": true,
					"internalType": "bytes32",
					"name": "previousAdminRole",
					"type": "bytes32"
				},
				{
					"indexed": true,
					"internalType": "bytes32",
					"name": "newAdminRole",
					"type": "bytes32"
				}
			],
			"name": "RoleAdminChanged",
			"type": "event"
		},
		{
			"anonymous": false,
			"inputs": [
				{
					"indexed": true,
					"internalType": "bytes32",
					"name": "role",
					"type": "bytes32"
				},
				{
					"indexed": true,
					"internalType": "address",
					"name": "account",
					"type": "address"
				},
				{
					"indexed": true,
					"internalType": "address",
					"name": "sender",
					"type": "address"
				}
			],
			"name": "RoleGranted",
			"type": "event"
		},
		{
			"anonymous": false,
			"inputs": [
				{
					"indexed": true,
					"internalType": "bytes32",
					"name": "role",
					"type": "bytes32"
				},
				{
					"indexed": true,
					"internalType": "address",
					"name": "account",
					"type": "address"
				},
				{
					"indexed": true,
					"internalType": "address",
					"name": "sender",
					"type": "address"
				}
			],
			"name": "RoleRevoked",
			"type": "event"
		},
		{
			"anonymous": false,
			"inputs": [
				{
					"indexed": true,
					"internalType": "address",
					"name": "operator",
					"type": "address"
				},
				{
					"indexed": true,
					"internalType": "address",
					"name": "from",
					"type": "address"
				},
				{
					"indexed": true,
					"internalType": "address",
					"name": "to",
					"type": "address"
				},
				{
					"indexed": false,
					"internalType": "uint256[]",
					"name": "ids",
					"type": "uint256[]"
				},
				{
					"indexed": false,
					"internalType": "uint256[]",
					"name": "values",
					"type": "uint256[]"
				}
			],
			"name": "TransferBatch",
			"type": "event"
		},
		{
			"anonymous": false,
			"inputs": [
				{
					"indexed": true,
					"internalType": "address",
					"name": "operator",
					"type": "address"
				},
				{
					"indexed": true,
					"internalType": "address",
					"name": "from",
					"type": "address"
				},
				{
					"indexed": true,
					"internalType": "address",
					"name": "to",
					"type": "address"
				},
				{
					"indexed": false,
					"internalType": "uint256",
					"name": "id",
					"type": "uint256"
				},
				{
					"indexed": false,
					"internalType": "uint256",
					"name": "value",
					"type": "uint256"
				}
			],
			"name": "TransferSingle",
			"type": "event"
		},
		{
			"anonymous": false,
			"inputs": [
				{
					"indexed": false,
					"internalType": "string",
					"name": "value",
					"type": "string"
				},
				{
					"indexed": true,
					"internalType": "uint256",
					"name": "id",
					"type": "uint256"
				}
			],
			"name": "URI",
			"type": "event"
		},
		{
			"anonymous": false,
			"inputs": [
				{
					"indexed": false,
					"internalType": "address",
					"name": "account",
					"type": "address"
				}
			],
			"name": "Unpaused",
			"type": "event"
		},
		{
			"anonymous": false,
			"inputs": [
				{
					"indexed": false,
					"internalType": "address",
					"name": "moderator",
					"type": "address"
				},
				{
					"indexed": false,
					"internalType": "address",
					"name": "collection",
					"type": "address"
				},
				{
					"indexed": false,
					"internalType": "uint256",
					"name": "tokenId",
					"type": "uint256"
				}
			],
			"name": "VersoDeleted",
			"type": "event"
		},
		{
			"inputs": [],
			"name": "DEFAULT_ADMIN_ROLE",
			"outputs": [
				{
					"internalType": "bytes32",
					"name": "",
					"type": "bytes32"
				}
			],
			"stateMutability": "view",
			"type": "function"
		},
		{
			"inputs": [],
			"name": "VERSION",
			"outputs": [
				{
					"internalType": "uint256",
					"name": "",
					"type": "uint256"
				}
			],
			"stateMutability": "view",
			"type": "function"
		},
		{
			"inputs": [
				{
					"internalType": "address",
					"name": "account",
					"type": "address"
				},
				{
					"internalType": "uint256",
					"name": "id",
					"type": "uint256"
				}
			],
			"name": "balanceOf",
			"outputs": [
				{
					"internalType": "uint256",
					"name": "",
					"type": "uint256"
				}
			],
			"stateMutability": "view",
			"type": "function"
		},
		{
			"inputs": [
				{
					"internalType": "address[]",
					"name": "accounts",
					"type": "address[]"
				},
				{
					"internalType": "uint256[]",
					"name": "ids",
					"type": "uint256[]"
				}
			],
			"name": "balanceOfBatch",
			"outputs": [
				{
					"internalType": "uint256[]",
					"name": "",
					"type": "uint256[]"
				}
			],
			"stateMutability": "view",
			"type": "function"
		},
		{
			"inputs": [
				{
					"internalType": "uint256",
					"name": "tokenId",
					"type": "uint256"
				},
				{
					"internalType": "uint256",
					"name": "amount",
					"type": "uint256"
				}
			],
			"name": "burn",
			"outputs": [],
			"stateMutability": "payable",
			"type": "function"
		},
		{
			"inputs": [
				{
					"internalType": "uint256",
					"name": "id",
					"type": "uint256"
				},
				{
					"internalType": "address",
					"name": "receipient",
					"type": "address"
				},
				{
					"internalType": "uint256",
					"name": "amount",
					"type": "uint256"
				},
				{
					"internalType": "address",
					"name": "referer",
					"type": "address"
				}
			],
			"name": "collect",
			"outputs": [],
			"stateMutability": "payable",
			"type": "function"
		},
		{
			"inputs": [],
			"name": "collectionPermissions",
			"outputs": [
				{
					"internalType": "address",
					"name": "",
					"type": "address"
				}
			],
			"stateMutability": "view",
			"type": "function"
		},
		{
			"inputs": [
				{
					"internalType": "string",
					"name": "url",
					"type": "string"
				},
				{
					"internalType": "address",
					"name": "_receipient",
					"type": "address"
				},
				{
					"internalType": "address",
					"name": "_permissions",
					"type": "address"
				},
				{
					"internalType": "address",
					"name": "_marketAddress",
					"type": "address"
				},
				{
					"internalType": "uint256",
					"name": "_supplyLimit",
					"type": "uint256"
				},
				{
					"internalType": "uint256",
					"name": "_tokenPrice",
					"type": "uint256"
				},
				{
					"internalType": "bool",
					"name": "_isListed",
					"type": "bool"
				},
				{
					"internalType": "bool",
					"name": "_isBonded",
					"type": "bool"
				}
			],
			"name": "create",
			"outputs": [],
			"stateMutability": "payable",
			"type": "function"
		},
		{
			"inputs": [
				{
					"internalType": "uint256",
					"name": "",
					"type": "uint256"
				}
			],
			"name": "creator",
			"outputs": [
				{
					"internalType": "address",
					"name": "",
					"type": "address"
				}
			],
			"stateMutability": "view",
			"type": "function"
		},
		{
			"inputs": [
				{
					"internalType": "bytes32",
					"name": "role",
					"type": "bytes32"
				}
			],
			"name": "getRoleAdmin",
			"outputs": [
				{
					"internalType": "bytes32",
					"name": "",
					"type": "bytes32"
				}
			],
			"stateMutability": "view",
			"type": "function"
		},
		{
			"inputs": [
				{
					"internalType": "bytes32",
					"name": "role",
					"type": "bytes32"
				},
				{
					"internalType": "uint256",
					"name": "index",
					"type": "uint256"
				}
			],
			"name": "getRoleMember",
			"outputs": [
				{
					"internalType": "address",
					"name": "",
					"type": "address"
				}
			],
			"stateMutability": "view",
			"type": "function"
		},
		{
			"inputs": [
				{
					"internalType": "bytes32",
					"name": "role",
					"type": "bytes32"
				}
			],
			"name": "getRoleMemberCount",
			"outputs": [
				{
					"internalType": "uint256",
					"name": "",
					"type": "uint256"
				}
			],
			"stateMutability": "view",
			"type": "function"
		},
		{
			"inputs": [
				{
					"internalType": "bytes32",
					"name": "role",
					"type": "bytes32"
				},
				{
					"internalType": "address",
					"name": "account",
					"type": "address"
				}
			],
			"name": "grantRole",
			"outputs": [],
			"stateMutability": "nonpayable",
			"type": "function"
		},
		{
			"inputs": [
				{
					"internalType": "address",
					"name": "user",
					"type": "address"
				}
			],
			"name": "hasReadPermission",
			"outputs": [
				{
					"internalType": "bool",
					"name": "hasPermission",
					"type": "bool"
				}
			],
			"stateMutability": "view",
			"type": "function"
		},
		{
			"inputs": [
				{
					"internalType": "bytes32",
					"name": "role",
					"type": "bytes32"
				},
				{
					"internalType": "address",
					"name": "account",
					"type": "address"
				}
			],
			"name": "hasRole",
			"outputs": [
				{
					"internalType": "bool",
					"name": "",
					"type": "bool"
				}
			],
			"stateMutability": "view",
			"type": "function"
		},
		{
			"inputs": [
				{
					"internalType": "address",
					"name": "user",
					"type": "address"
				}
			],
			"name": "hasWritePermission",
			"outputs": [
				{
					"internalType": "bool",
					"name": "hasPermission",
					"type": "bool"
				}
			],
			"stateMutability": "view",
			"type": "function"
		},
		{
			"inputs": [
				{
					"internalType": "string",
					"name": "_name",
					"type": "string"
				},
				{
					"internalType": "address",
					"name": "_owner",
					"type": "address"
				},
				{
					"internalType": "uint8",
					"name": "_readType",
					"type": "uint8"
				},
				{
					"internalType": "uint8",
					"name": "_writeType",
					"type": "uint8"
				},
				{
					"internalType": "address",
					"name": "_collectionPermissions",
					"type": "address"
				},
				{
					"internalType": "uint256",
					"name": "_minimumBalance",
					"type": "uint256"
				}
			],
			"name": "initialize",
			"outputs": [],
			"stateMutability": "nonpayable",
			"type": "function"
		},
		{
			"inputs": [
				{
					"internalType": "address",
					"name": "account",
					"type": "address"
				},
				{
					"internalType": "address",
					"name": "operator",
					"type": "address"
				}
			],
			"name": "isApprovedForAll",
			"outputs": [
				{
					"internalType": "bool",
					"name": "",
					"type": "bool"
				}
			],
			"stateMutability": "view",
			"type": "function"
		},
		{
			"inputs": [
				{
					"internalType": "uint256",
					"name": "",
					"type": "uint256"
				}
			],
			"name": "isListed",
			"outputs": [
				{
					"internalType": "bool",
					"name": "",
					"type": "bool"
				}
			],
			"stateMutability": "view",
			"type": "function"
		},
		{
			"inputs": [
				{
					"internalType": "address",
					"name": "user",
					"type": "address"
				}
			],
			"name": "isModerator",
			"outputs": [
				{
					"internalType": "bool",
					"name": "",
					"type": "bool"
				}
			],
			"stateMutability": "view",
			"type": "function"
		},
		{
			"inputs": [
				{
					"internalType": "uint256",
					"name": "",
					"type": "uint256"
				}
			],
			"name": "marketAddresses",
			"outputs": [
				{
					"internalType": "address",
					"name": "",
					"type": "address"
				}
			],
			"stateMutability": "view",
			"type": "function"
		},
		{
			"inputs": [],
			"name": "minimumBalance",
			"outputs": [
				{
					"internalType": "uint256",
					"name": "",
					"type": "uint256"
				}
			],
			"stateMutability": "view",
			"type": "function"
		},
		{
			"inputs": [],
			"name": "name",
			"outputs": [
				{
					"internalType": "string",
					"name": "",
					"type": "string"
				}
			],
			"stateMutability": "view",
			"type": "function"
		},
		{
			"inputs": [
				{
					"internalType": "address",
					"name": "operator",
					"type": "address"
				},
				{
					"internalType": "address",
					"name": "",
					"type": "address"
				},
				{
					"internalType": "uint256[]",
					"name": "",
					"type": "uint256[]"
				},
				{
					"internalType": "uint256[]",
					"name": "",
					"type": "uint256[]"
				},
				{
					"internalType": "bytes",
					"name": "",
					"type": "bytes"
				}
			],
			"name": "onERC1155BatchReceived",
			"outputs": [
				{
					"internalType": "bytes4",
					"name": "ret",
					"type": "bytes4"
				}
			],
			"stateMutability": "nonpayable",
			"type": "function"
		},
		{
			"inputs": [
				{
					"internalType": "address",
					"name": "operator",
					"type": "address"
				},
				{
					"internalType": "address",
					"name": "",
					"type": "address"
				},
				{
					"internalType": "uint256",
					"name": "",
					"type": "uint256"
				},
				{
					"internalType": "uint256",
					"name": "",
					"type": "uint256"
				},
				{
					"internalType": "bytes",
					"name": "",
					"type": "bytes"
				}
			],
			"name": "onERC1155Received",
			"outputs": [
				{
					"internalType": "bytes4",
					"name": "ret",
					"type": "bytes4"
				}
			],
			"stateMutability": "nonpayable",
			"type": "function"
		},
		{
			"inputs": [],
			"name": "pause",
			"outputs": [],
			"stateMutability": "nonpayable",
			"type": "function"
		},
		{
			"inputs": [],
			"name": "paused",
			"outputs": [
				{
					"internalType": "bool",
					"name": "",
					"type": "bool"
				}
			],
			"stateMutability": "view",
			"type": "function"
		},
		{
			"inputs": [],
			"name": "readType",
			"outputs": [
				{
					"internalType": "uint8",
					"name": "",
					"type": "uint8"
				}
			],
			"stateMutability": "view",
			"type": "function"
		},
		{
			"inputs": [
				{
					"internalType": "bytes32",
					"name": "role",
					"type": "bytes32"
				},
				{
					"internalType": "address",
					"name": "callerConfirmation",
					"type": "address"
				}
			],
			"name": "renounceRole",
			"outputs": [],
			"stateMutability": "nonpayable",
			"type": "function"
		},
		{
			"inputs": [
				{
					"internalType": "bytes32",
					"name": "role",
					"type": "bytes32"
				},
				{
					"internalType": "address",
					"name": "account",
					"type": "address"
				}
			],
			"name": "revokeRole",
			"outputs": [],
			"stateMutability": "nonpayable",
			"type": "function"
		},
		{
			"inputs": [
				{
					"internalType": "address",
					"name": "from",
					"type": "address"
				},
				{
					"internalType": "address",
					"name": "to",
					"type": "address"
				},
				{
					"internalType": "uint256[]",
					"name": "ids",
					"type": "uint256[]"
				},
				{
					"internalType": "uint256[]",
					"name": "values",
					"type": "uint256[]"
				},
				{
					"internalType": "bytes",
					"name": "data",
					"type": "bytes"
				}
			],
			"name": "safeBatchTransferFrom",
			"outputs": [],
			"stateMutability": "nonpayable",
			"type": "function"
		},
		{
			"inputs": [
				{
					"internalType": "address",
					"name": "from",
					"type": "address"
				},
				{
					"internalType": "address",
					"name": "to",
					"type": "address"
				},
				{
					"internalType": "uint256",
					"name": "id",
					"type": "uint256"
				},
				{
					"internalType": "uint256",
					"name": "value",
					"type": "uint256"
				},
				{
					"internalType": "bytes",
					"name": "data",
					"type": "bytes"
				}
			],
			"name": "safeTransferFrom",
			"outputs": [],
			"stateMutability": "nonpayable",
			"type": "function"
		},
		{
			"inputs": [
				{
					"internalType": "address",
					"name": "operator",
					"type": "address"
				},
				{
					"internalType": "bool",
					"name": "approved",
					"type": "bool"
				}
			],
			"name": "setApprovalForAll",
			"outputs": [],
			"stateMutability": "nonpayable",
			"type": "function"
		},
		{
			"inputs": [
				{
					"internalType": "bytes4",
					"name": "interfaceId",
					"type": "bytes4"
				}
			],
			"name": "supportsInterface",
			"outputs": [
				{
					"internalType": "bool",
					"name": "",
					"type": "bool"
				}
			],
			"stateMutability": "view",
			"type": "function"
		},
		{
			"inputs": [
				{
					"internalType": "uint256",
					"name": "",
					"type": "uint256"
				}
			],
			"name": "tokenPermissions",
			"outputs": [
				{
					"internalType": "address",
					"name": "",
					"type": "address"
				}
			],
			"stateMutability": "view",
			"type": "function"
		},
		{
			"inputs": [
				{
					"internalType": "uint256",
					"name": "",
					"type": "uint256"
				}
			],
			"name": "tokenSupply",
			"outputs": [
				{
					"internalType": "uint256",
					"name": "",
					"type": "uint256"
				}
			],
			"stateMutability": "view",
			"type": "function"
		},
		{
			"inputs": [],
			"name": "unpause",
			"outputs": [],
			"stateMutability": "nonpayable",
			"type": "function"
		},
		{
			"inputs": [
				{
					"internalType": "uint256",
					"name": "tokenID",
					"type": "uint256"
				}
			],
			"name": "uri",
			"outputs": [
				{
					"internalType": "string",
					"name": "",
					"type": "string"
				}
			],
			"stateMutability": "view",
			"type": "function"
		},
		{
			"inputs": [
				{
					"internalType": "address",
					"name": "collectionAddress",
					"type": "address"
				},
				{
					"internalType": "uint256",
					"name": "tokenId",
					"type": "uint256"
				},
				{
					"internalType": "uint256",
					"name": "amount",
					"type": "uint256"
				}
			],
			"name": "withdraw",
			"outputs": [],
			"stateMutability": "payable",
			"type": "function"
		},
		{
			"inputs": [],
			"name": "writeType",
			"outputs": [
				{
					"internalType": "uint8",
					"name": "",
					"type": "uint8"
				}
			],
			"stateMutability": "view",
			"type": "function"
		}
	]
}