{
  "_format": "hh-sol-artifact-1",
  "contractName": "MasterCollection",
  "sourceName": "contracts/MasterCollection/MasterCollection.sol",
  "abi": [
    {
      "inputs": [
        {
          "internalType": "address",
          "name": "target",
          "type": "address"
        }
      ],
      "name": "AddressEmptyCode",
      "type": "error"
    },
    {
      "inputs": [
        {
          "internalType": "address",
          "name": "sender",
          "type": "address"
        },
        {
          "internalType": "uint256",
          "name": "balance",
          "type": "uint256"
        },
        {
          "internalType": "uint256",
          "name": "needed",
          "type": "uint256"
        },
        {
          "internalType": "uint256",
          "name": "tokenId",
          "type": "uint256"
        }
      ],
      "name": "ERC1155InsufficientBalance",
      "type": "error"
    },
    {
      "inputs": [
        {
          "internalType": "address",
          "name": "approver",
          "type": "address"
        }
      ],
      "name": "ERC1155InvalidApprover",
      "type": "error"
    },
    {
      "inputs": [
        {
          "internalType": "uint256",
          "name": "idsLength",
          "type": "uint256"
        },
        {
          "internalType": "uint256",
          "name": "valuesLength",
          "type": "uint256"
        }
      ],
      "name": "ERC1155InvalidArrayLength",
      "type": "error"
    },
    {
      "inputs": [
        {
          "internalType": "address",
          "name": "operator",
          "type": "address"
        }
      ],
      "name": "ERC1155InvalidOperator",
      "type": "error"
    },
    {
      "inputs": [
        {
          "internalType": "address",
          "name": "receiver",
          "type": "address"
        }
      ],
      "name": "ERC1155InvalidReceiver",
      "type": "error"
    },
    {
      "inputs": [
        {
          "internalType": "address",
          "name": "sender",
          "type": "address"
        }
      ],
      "name": "ERC1155InvalidSender",
      "type": "error"
    },
    {
      "inputs": [
        {
          "internalType": "address",
          "name": "operator",
          "type": "address"
        },
        {
          "internalType": "address",
          "name": "owner",
          "type": "address"
        }
      ],
      "name": "ERC1155MissingApprovalForAll",
      "type": "error"
    },
    {
      "inputs": [
        {
          "internalType": "address",
          "name": "implementation",
          "type": "address"
        }
      ],
      "name": "ERC1967InvalidImplementation",
      "type": "error"
    },
    {
      "inputs": [],
      "name": "ERC1967NonPayable",
      "type": "error"
    },
    {
      "inputs": [],
      "name": "FailedInnerCall",
      "type": "error"
    },
    {
      "inputs": [],
      "name": "InvalidInitialization",
      "type": "error"
    },
    {
      "inputs": [],
      "name": "NotInitializing",
      "type": "error"
    },
    {
      "inputs": [
        {
          "internalType": "address",
          "name": "owner",
          "type": "address"
        }
      ],
      "name": "OwnableInvalidOwner",
      "type": "error"
    },
    {
      "inputs": [
        {
          "internalType": "address",
          "name": "account",
          "type": "address"
        }
      ],
      "name": "OwnableUnauthorizedAccount",
      "type": "error"
    },
    {
      "inputs": [],
      "name": "UUPSUnauthorizedCallContext",
      "type": "error"
    },
    {
      "inputs": [
        {
          "internalType": "bytes32",
          "name": "slot",
          "type": "bytes32"
        }
      ],
      "name": "UUPSUnsupportedProxiableUUID",
      "type": "error"
    },
    {
      "anonymous": false,
      "inputs": [
        {
          "indexed": true,
          "internalType": "address",
          "name": "account",
          "type": "address"
        },
        {
          "indexed": true,
          "internalType": "address",
          "name": "operator",
          "type": "address"
        },
        {
          "indexed": false,
          "internalType": "bool",
          "name": "approved",
          "type": "bool"
        }
      ],
      "name": "ApprovalForAll",
      "type": "event"
    },
    {
      "anonymous": false,
      "inputs": [
        {
          "indexed": false,
          "internalType": "uint64",
          "name": "version",
          "type": "uint64"
        }
      ],
      "name": "Initialized",
      "type": "event"
    },
    {
      "anonymous": false,
      "inputs": [
        {
          "indexed": false,
          "internalType": "address",
          "name": "account",
          "type": "address"
        },
        {
          "indexed": false,
          "internalType": "uint256",
          "name": "id",
          "type": "uint256"
        },
        {
          "indexed": false,
          "internalType": "address",
          "name": "contractAddress",
          "type": "address"
        }
      ],
      "name": "NewVersoCollected",
      "type": "event"
    },
    {
      "anonymous": false,
      "inputs": [
        {
          "indexed": false,
          "internalType": "address",
          "name": "account",
          "type": "address"
        },
        {
          "indexed": false,
          "internalType": "uint256",
          "name": "id",
          "type": "uint256"
        },
        {
          "indexed": false,
          "internalType": "string",
          "name": "metadataURI",
          "type": "string"
        }
      ],
      "name": "NewVersoCreated",
      "type": "event"
    },
    {
      "anonymous": false,
      "inputs": [
        {
          "indexed": true,
          "internalType": "address",
          "name": "previousOwner",
          "type": "address"
        },
        {
          "indexed": true,
          "internalType": "address",
          "name": "newOwner",
          "type": "address"
        }
      ],
      "name": "OwnershipTransferred",
      "type": "event"
    },
    {
      "anonymous": false,
      "inputs": [
        {
          "indexed": true,
          "internalType": "address",
          "name": "operator",
          "type": "address"
        },
        {
          "indexed": true,
          "internalType": "address",
          "name": "from",
          "type": "address"
        },
        {
          "indexed": true,
          "internalType": "address",
          "name": "to",
          "type": "address"
        },
        {
          "indexed": false,
          "internalType": "uint256[]",
          "name": "ids",
          "type": "uint256[]"
        },
        {
          "indexed": false,
          "internalType": "uint256[]",
          "name": "values",
          "type": "uint256[]"
        }
      ],
      "name": "TransferBatch",
      "type": "event"
    },
    {
      "anonymous": false,
      "inputs": [
        {
          "indexed": true,
          "internalType": "address",
          "name": "operator",
          "type": "address"
        },
        {
          "indexed": true,
          "internalType": "address",
          "name": "from",
          "type": "address"
        },
        {
          "indexed": true,
          "internalType": "address",
          "name": "to",
          "type": "address"
        },
        {
          "indexed": false,
          "internalType": "uint256",
          "name": "id",
          "type": "uint256"
        },
        {
          "indexed": false,
          "internalType": "uint256",
          "name": "value",
          "type": "uint256"
        }
      ],
      "name": "TransferSingle",
      "type": "event"
    },
    {
      "anonymous": false,
      "inputs": [
        {
          "indexed": false,
          "internalType": "string",
          "name": "value",
          "type": "string"
        },
        {
          "indexed": true,
          "internalType": "uint256",
          "name": "id",
          "type": "uint256"
        }
      ],
      "name": "URI",
      "type": "event"
    },
    {
      "anonymous": false,
      "inputs": [
        {
          "indexed": true,
          "internalType": "address",
          "name": "implementation",
          "type": "address"
        }
      ],
      "name": "Upgraded",
      "type": "event"
    },
    {
      "anonymous": false,
      "inputs": [
        {
          "indexed": false,
          "internalType": "address",
          "name": "moderator",
          "type": "address"
        },
        {
          "indexed": false,
          "internalType": "address",
          "name": "collection",
          "type": "address"
        },
        {
          "indexed": false,
          "internalType": "uint256",
          "name": "tokenId",
          "type": "uint256"
        }
      ],
      "name": "VersoDeleted",
      "type": "event"
    },
    {
      "inputs": [],
      "name": "UPGRADE_INTERFACE_VERSION",
      "outputs": [
        {
          "internalType": "string",
          "name": "",
          "type": "string"
        }
      ],
      "stateMutability": "view",
      "type": "function"
    },
    {
      "inputs": [],
      "name": "VERSION",
      "outputs": [
        {
          "internalType": "uint256",
          "name": "",
          "type": "uint256"
        }
      ],
      "stateMutability": "view",
      "type": "function"
    },
    {
      "inputs": [
        {
          "internalType": "address",
          "name": "_newImp",
          "type": "address"
        }
      ],
      "name": "allowUpgradeFor",
      "outputs": [],
      "stateMutability": "nonpayable",
      "type": "function"
    },
    {
      "inputs": [
        {
          "internalType": "address",
          "name": "account",
          "type": "address"
        },
        {
          "internalType": "uint256",
          "name": "id",
          "type": "uint256"
        }
      ],
      "name": "balanceOf",
      "outputs": [
        {
          "internalType": "uint256",
          "name": "",
          "type": "uint256"
        }
      ],
      "stateMutability": "view",
      "type": "function"
    },
    {
      "inputs": [
        {
          "internalType": "address[]",
          "name": "accounts",
          "type": "address[]"
        },
        {
          "internalType": "uint256[]",
          "name": "ids",
          "type": "uint256[]"
        }
      ],
      "name": "balanceOfBatch",
      "outputs": [
        {
          "internalType": "uint256[]",
          "name": "",
          "type": "uint256[]"
        }
      ],
      "stateMutability": "view",
      "type": "function"
    },
    {
      "inputs": [
        {
          "internalType": "address",
          "name": "account",
          "type": "address"
        },
        {
          "internalType": "uint256",
          "name": "id",
          "type": "uint256"
        },
        {
          "internalType": "uint256",
          "name": "value",
          "type": "uint256"
        }
      ],
      "name": "burn",
      "outputs": [],
      "stateMutability": "nonpayable",
      "type": "function"
    },
    {
      "inputs": [
        {
          "internalType": "uint256",
          "name": "id",
          "type": "uint256"
        },
        {
          "internalType": "address",
          "name": "recipient",
          "type": "address"
        },
        {
          "internalType": "bytes",
          "name": "data",
          "type": "bytes"
        }
      ],
      "name": "collect",
      "outputs": [
        {
          "internalType": "string",
          "name": "",
          "type": "string"
        }
      ],
      "stateMutability": "payable",
      "type": "function"
    },
    {
      "inputs": [
        {
          "internalType": "bytes",
          "name": "data",
          "type": "bytes"
        },
        {
          "internalType": "string",
          "name": "url",
          "type": "string"
        },
        {
          "internalType": "address",
          "name": "recipient",
          "type": "address"
        },
        {
          "internalType": "bool",
          "name": "_isBonded",
          "type": "bool"
        }
      ],
      "name": "create",
      "outputs": [],
      "stateMutability": "payable",
      "type": "function"
    },
    {
      "inputs": [
        {
          "internalType": "uint256",
          "name": "",
          "type": "uint256"
        }
      ],
      "name": "creator",
      "outputs": [
        {
          "internalType": "address",
          "name": "",
          "type": "address"
        }
      ],
      "stateMutability": "view",
      "type": "function"
    },
    {
      "inputs": [
        {
          "internalType": "uint256",
          "name": "tokenId",
          "type": "uint256"
        }
      ],
      "name": "getBuyPrice",
      "outputs": [
        {
          "internalType": "uint256",
          "name": "",
          "type": "uint256"
        }
      ],
      "stateMutability": "view",
      "type": "function"
    },
    {
      "inputs": [
        {
          "internalType": "uint256",
          "name": "tokenId",
          "type": "uint256"
        }
      ],
      "name": "getBuyPriceAfterFee",
      "outputs": [
        {
          "internalType": "uint256",
          "name": "",
          "type": "uint256"
        }
      ],
      "stateMutability": "view",
      "type": "function"
    },
    {
      "inputs": [
        {
          "internalType": "uint256",
          "name": "supply",
          "type": "uint256"
        },
        {
          "internalType": "uint256",
          "name": "amount",
          "type": "uint256"
        }
      ],
      "name": "getPrice",
      "outputs": [
        {
          "internalType": "uint256",
          "name": "",
          "type": "uint256"
        }
      ],
      "stateMutability": "pure",
      "type": "function"
    },
    {
      "inputs": [
        {
          "internalType": "uint256",
          "name": "tokenId",
          "type": "uint256"
        }
      ],
      "name": "getSellPrice",
      "outputs": [
        {
          "internalType": "uint256",
          "name": "",
          "type": "uint256"
        }
      ],
      "stateMutability": "view",
      "type": "function"
    },
    {
      "inputs": [
        {
          "internalType": "uint256",
          "name": "tokenId",
          "type": "uint256"
        }
      ],
      "name": "getSellPriceAfterFee",
      "outputs": [
        {
          "internalType": "uint256",
          "name": "",
          "type": "uint256"
        }
      ],
      "stateMutability": "view",
      "type": "function"
    },
    {
      "inputs": [
        {
          "internalType": "address",
          "name": "newOwner",
          "type": "address"
        }
      ],
      "name": "initialize",
      "outputs": [],
      "stateMutability": "nonpayable",
      "type": "function"
    },
    {
      "inputs": [
        {
          "internalType": "address",
          "name": "account",
          "type": "address"
        },
        {
          "internalType": "address",
          "name": "operator",
          "type": "address"
        }
      ],
      "name": "isApprovedForAll",
      "outputs": [
        {
          "internalType": "bool",
          "name": "",
          "type": "bool"
        }
      ],
      "stateMutability": "view",
      "type": "function"
    },
    {
      "inputs": [
        {
          "internalType": "uint256",
          "name": "",
          "type": "uint256"
        }
      ],
      "name": "isBonded",
      "outputs": [
        {
          "internalType": "bool",
          "name": "",
          "type": "bool"
        }
      ],
      "stateMutability": "view",
      "type": "function"
    },
    {
      "inputs": [],
      "name": "name",
      "outputs": [
        {
          "internalType": "string",
          "name": "_contractName",
          "type": "string"
        }
      ],
      "stateMutability": "pure",
      "type": "function"
    },
    {
      "inputs": [],
      "name": "owner",
      "outputs": [
        {
          "internalType": "address",
          "name": "",
          "type": "address"
        }
      ],
      "stateMutability": "view",
      "type": "function"
    },
    {
      "inputs": [],
      "name": "proxiableUUID",
      "outputs": [
        {
          "internalType": "bytes32",
          "name": "",
          "type": "bytes32"
        }
      ],
      "stateMutability": "view",
      "type": "function"
    },
    {
      "inputs": [],
      "name": "renounceOwnership",
      "outputs": [],
      "stateMutability": "nonpayable",
      "type": "function"
    },
    {
      "inputs": [
        {
          "internalType": "address",
          "name": "from",
          "type": "address"
        },
        {
          "internalType": "address",
          "name": "to",
          "type": "address"
        },
        {
          "internalType": "uint256[]",
          "name": "ids",
          "type": "uint256[]"
        },
        {
          "internalType": "uint256[]",
          "name": "values",
          "type": "uint256[]"
        },
        {
          "internalType": "bytes",
          "name": "data",
          "type": "bytes"
        }
      ],
      "name": "safeBatchTransferFrom",
      "outputs": [],
      "stateMutability": "nonpayable",
      "type": "function"
    },
    {
      "inputs": [
        {
          "internalType": "address",
          "name": "from",
          "type": "address"
        },
        {
          "internalType": "address",
          "name": "to",
          "type": "address"
        },
        {
          "internalType": "uint256",
          "name": "id",
          "type": "uint256"
        },
        {
          "internalType": "uint256",
          "name": "value",
          "type": "uint256"
        },
        {
          "internalType": "bytes",
          "name": "data",
          "type": "bytes"
        }
      ],
      "name": "safeTransferFrom",
      "outputs": [],
      "stateMutability": "nonpayable",
      "type": "function"
    },
    {
      "inputs": [
        {
          "internalType": "address",
          "name": "operator",
          "type": "address"
        },
        {
          "internalType": "bool",
          "name": "approved",
          "type": "bool"
        }
      ],
      "name": "setApprovalForAll",
      "outputs": [],
      "stateMutability": "nonpayable",
      "type": "function"
    },
    {
      "inputs": [
        {
          "internalType": "uint256",
          "name": "_price",
          "type": "uint256"
        }
      ],
      "name": "setBasicPrice",
      "outputs": [],
      "stateMutability": "nonpayable",
      "type": "function"
    },
    {
      "inputs": [
        {
          "internalType": "uint256",
          "name": "_feePercent",
          "type": "uint256"
        }
      ],
      "name": "setCreatorFeePercent",
      "outputs": [],
      "stateMutability": "nonpayable",
      "type": "function"
    },
    {
      "inputs": [
        {
          "internalType": "address",
          "name": "_feeDestination",
          "type": "address"
        }
      ],
      "name": "setFeeDestination",
      "outputs": [],
      "stateMutability": "nonpayable",
      "type": "function"
    },
    {
      "inputs": [
        {
          "internalType": "uint256",
          "name": "_feePercent",
          "type": "uint256"
        }
      ],
      "name": "setProtocolFeePercent",
      "outputs": [],
      "stateMutability": "nonpayable",
      "type": "function"
    },
    {
      "inputs": [
        {
          "internalType": "bytes4",
          "name": "interfaceId",
          "type": "bytes4"
        }
      ],
      "name": "supportsInterface",
      "outputs": [
        {
          "internalType": "bool",
          "name": "",
          "type": "bool"
        }
      ],
      "stateMutability": "view",
      "type": "function"
    },
    {
      "inputs": [
        {
          "internalType": "uint256",
          "name": "",
          "type": "uint256"
        }
      ],
      "name": "tokenPermissions",
      "outputs": [
        {
          "internalType": "address",
          "name": "",
          "type": "address"
        }
      ],
      "stateMutability": "view",
      "type": "function"
    },
    {
      "inputs": [
        {
          "internalType": "uint256",
          "name": "",
          "type": "uint256"
        }
      ],
      "name": "tokenSupply",
      "outputs": [
        {
          "internalType": "uint256",
          "name": "",
          "type": "uint256"
        }
      ],
      "stateMutability": "view",
      "type": "function"
    },
    {
      "inputs": [
        {
          "internalType": "address",
          "name": "newOwner",
          "type": "address"
        }
      ],
      "name": "transferOwnership",
      "outputs": [],
      "stateMutability": "nonpayable",
      "type": "function"
    },
    {
      "inputs": [
        {
          "internalType": "address",
          "name": "newImplementation",
          "type": "address"
        },
        {
          "internalType": "bytes",
          "name": "data",
          "type": "bytes"
        }
      ],
      "name": "upgradeToAndCall",
      "outputs": [],
      "stateMutability": "payable",
      "type": "function"
    },
    {
      "inputs": [
        {
          "internalType": "uint256",
          "name": "tokenID",
          "type": "uint256"
        }
      ],
      "name": "uri",
      "outputs": [
        {
          "internalType": "string",
          "name": "",
          "type": "string"
        }
      ],
      "stateMutability": "view",
      "type": "function"
    }
  ],
  "bytecode": "0x60a06040523073ffffffffffffffffffffffffffffffffffffffff1660809073ffffffffffffffffffffffffffffffffffffffff1681525034801561004357600080fd5b50608051614d1661006d60003960008181611e0c01528181611e6101526120110152614d166000f3fe6080604052600436106101f85760003560e01c80636b4ed02a1161010d578063b31985c2116100a0578063f242432a1161006f578063f242432a1461079d578063f2fde38b146107c6578063f5298aca146107ef578063fbe5323414610818578063ffa1ad7414610841576101f8565b8063b31985c2146106bd578063ba730e53146106fa578063c4d66de814610737578063e985e9c514610760576101f8565b8063a22cb465116100dc578063a22cb46514610617578063a498342114610640578063ad3cb1cc14610669578063b219693a14610694576101f8565b80636b4ed02a1461056f5780636ff6c4b8146105ac578063715018a6146105d55780638da5cb5b146105ec576101f8565b80632693ebf2116101905780634f1ef2861161015f5780634f1ef2861461047e578063510b51581461049a57806352d1902d146104d75780635cf4ee91146105025780635cf7b6161461053f576101f8565b80632693ebf21461039e5780632eb2c2d6146103db5780634a247e40146104045780634e1273f414610441576101f8565b806308f97dd8116101cc57806308f97dd8146102df5780630e89341c1461031c5780630ebd564914610359578063176d280114610375576101f8565b8062fdd58e146101fd57806301ffc9a71461023a57806306fdde031461027757806308d4db14146102a2575b600080fd5b34801561020957600080fd5b50610224600480360381019061021f91906135cd565b61086c565b604051610231919061361c565b60405180910390f35b34801561024657600080fd5b50610261600480360381019061025c919061368f565b6108d5565b60405161026e91906136d7565b60405180910390f35b34801561028357600080fd5b5061028c6108e7565b6040516102999190613782565b60405180910390f35b3480156102ae57600080fd5b506102c960048036038101906102c491906137a4565b610924565b6040516102d6919061361c565b60405180910390f35b3480156102eb57600080fd5b50610306600480360381019061030191906137a4565b61094b565b604051610313919061361c565b60405180910390f35b34801561032857600080fd5b50610343600480360381019061033e91906137a4565b6109c4565b6040516103509190613782565b60405180910390f35b610373600480360381019061036e9190613992565b6109ff565b005b34801561038157600080fd5b5061039c60048036038101906103979190613a36565b610b43565b005b3480156103aa57600080fd5b506103c560048036038101906103c091906137a4565b610b57565b6040516103d2919061361c565b60405180910390f35b3480156103e757600080fd5b5061040260048036038101906103fd9190613b26565b610b6f565b005b34801561041057600080fd5b5061042b600480360381019061042691906137a4565b610c17565b60405161043891906136d7565b60405180910390f35b34801561044d57600080fd5b5061046860048036038101906104639190613cb8565b610c37565b6040516104759190613dee565b60405180910390f35b61049860048036038101906104939190613e10565b610d46565b005b3480156104a657600080fd5b506104c160048036038101906104bc91906137a4565b610d65565b6040516104ce9190613e7b565b60405180910390f35b3480156104e357600080fd5b506104ec610d98565b6040516104f99190613eaf565b60405180910390f35b34801561050e57600080fd5b5061052960048036038101906105249190613eca565b610dcb565b604051610536919061361c565b60405180910390f35b61055960048036038101906105549190613f0a565b610f01565b6040516105669190613782565b60405180910390f35b34801561057b57600080fd5b50610596600480360381019061059191906137a4565b611007565b6040516105a3919061361c565b60405180910390f35b3480156105b857600080fd5b506105d360048036038101906105ce91906137a4565b611080565b005b3480156105e157600080fd5b506105ea611092565b005b3480156105f857600080fd5b506106016110a6565b60405161060e9190613e7b565b60405180910390f35b34801561062357600080fd5b5061063e60048036038101906106399190613f79565b6110de565b005b34801561064c57600080fd5b50610667600480360381019061066291906137a4565b6110f4565b005b34801561067557600080fd5b5061067e611106565b60405161068b9190613782565b60405180910390f35b3480156106a057600080fd5b506106bb60048036038101906106b691906137a4565b61113f565b005b3480156106c957600080fd5b506106e460048036038101906106df91906137a4565b611151565b6040516106f19190613e7b565b60405180910390f35b34801561070657600080fd5b50610721600480360381019061071c91906137a4565b611184565b60405161072e919061361c565b60405180910390f35b34801561074357600080fd5b5061075e60048036038101906107599190613a36565b6111b7565b005b34801561076c57600080fd5b5061078760048036038101906107829190613fb9565b611366565b60405161079491906136d7565b60405180910390f35b3480156107a957600080fd5b506107c460048036038101906107bf9190613ff9565b611408565b005b3480156107d257600080fd5b506107ed60048036038101906107e89190613a36565b6114b0565b005b3480156107fb57600080fd5b5061081660048036038101906108119190614090565b611536565b005b34801561082457600080fd5b5061083f600480360381019061083a9190613a36565b6115b3565b005b34801561084d57600080fd5b506108566115ff565b604051610863919061361c565b60405180910390f35b600080610877611604565b905080600001600084815260200190815260200160002060008573ffffffffffffffffffffffffffffffffffffffff1673ffffffffffffffffffffffffffffffffffffffff1681526020019081526020016000205491505092915050565b60006108e08261162c565b9050919050565b60606040518060400160405280600681526020017f766572736f730000000000000000000000000000000000000000000000000000815250905090565b600061094460066000848152602001908152602001600020546001610dcb565b9050919050565b60008061095783611184565b90506000670de0b6b3a7640000600254836109729190614112565b61097c9190614183565b90506000670de0b6b3a7640000600354846109979190614112565b6109a19190614183565b90508082846109b091906141b4565b6109ba91906141b4565b9350505050919050565b6060600560008381526020019081526020016000206040516020016109e991906142eb565b6040516020818303038152906040529050919050565b600080815480929190610a1190614302565b9190505550600080549050610a29838260018961170e565b610a778186868080601f016020809104026020016040519081016040528093929190818152602001838380828437600081840152601f19601f820116905080830192505050505050506117a7565b50336008600083815260200190815260200160002060006101000a81548173ffffffffffffffffffffffffffffffffffffffff021916908373ffffffffffffffffffffffffffffffffffffffff160217905550816009600083815260200190815260200160002060006101000a81548160ff021916908315150217905550610afe816118d0565b7f11735e3d32cc7fd5948b57908c9899255e84fa5551a1dae523725d7717b8246733828787604051610b339493929190614377565b60405180910390a1505050505050565b610b4b611c50565b610b5481611cd7565b50565b60066020528060005260406000206000915090505481565b6000610b79611ce2565b90508073ffffffffffffffffffffffffffffffffffffffff168673ffffffffffffffffffffffffffffffffffffffff1614158015610bbe5750610bbc8682611366565b155b15610c025780866040517fe237d922000000000000000000000000000000000000000000000000000000008152600401610bf99291906143b7565b60405180910390fd5b610c0f8686868686611cea565b505050505050565b60096020528060005260406000206000915054906101000a900460ff1681565b60608151835114610c8357815183516040517f5b059991000000000000000000000000000000000000000000000000000000008152600401610c7a9291906143e0565b60405180910390fd5b6000835167ffffffffffffffff811115610ca057610c9f6137db565b5b604051908082528060200260200182016040528015610cce5781602001602082028036833780820191505090505b50905060005b8451811015610d3b57610d0b610cf38287611de290919063ffffffff16565b610d068387611df690919063ffffffff16565b61086c565b828281518110610d1e57610d1d614409565b5b60200260200101818152505080610d3490614302565b9050610cd4565b508091505092915050565b610d4e611e0a565b610d5782611cd7565b610d618282611ef0565b5050565b60086020528060005260406000206000915054906101000a900473ffffffffffffffffffffffffffffffffffffffff1681565b6000610da261200f565b7f360894a13ba1a3210667c828492db98dca3e2076cc3735a920a3ca505d382bbc60001b905090565b60008060008414610e2d57600660018086610de691906141b4565b6002610df29190614112565b610dfc9190614438565b85600187610e0a91906141b4565b610e149190614112565b610e1e9190614112565b610e289190614183565b610e30565b60005b905060008085148015610e435750600184145b610ec0576006600185600188610e5991906141b4565b610e639190614438565b6002610e6f9190614112565b610e799190614438565b8587610e859190614438565b86600189610e9391906141b4565b610e9d9190614438565b610ea79190614112565b610eb19190614112565b610ebb9190614183565b610ec3565b60005b905060008282610ed391906141b4565b9050618ca0670de0b6b3a764000082610eec9190614112565b610ef69190614183565b935050505092915050565b6060610f0c846118d0565b610f19338560018561170e565b610f27338486600186611408565b7fd42024014012ca4208f79f99174d19a2f843b194a051978e10b3acf429c96bdc338585604051610f5a9392919061446c565b60405180910390a1600560008581526020019081526020016000208054610f8090614217565b80601f0160208091040260200160405190810160405280929190818152602001828054610fac90614217565b8015610ff95780601f10610fce57610100808354040283529160200191610ff9565b820191906000526020600020905b815481529060010190602001808311610fdc57829003601f168201915b505050505090509392505050565b60008061101383610924565b90506000670de0b6b3a76400006002548361102e9190614112565b6110389190614183565b90506000670de0b6b3a7640000600354846110539190614112565b61105d9190614183565b905080828461106c9190614438565b6110769190614438565b9350505050919050565b611088611c50565b8060038190555050565b61109a611c50565b6110a46000612096565b565b6000806110b161216d565b90508060000160009054906101000a900473ffffffffffffffffffffffffffffffffffffffff1691505090565b6110f06110e9611ce2565b8383612195565b5050565b6110fc611c50565b8060028190555050565b6040518060400160405280600581526020017f352e302e3000000000000000000000000000000000000000000000000000000081525081565b611147611c50565b8060048190555050565b60076020528060005260406000206000915054906101000a900473ffffffffffffffffffffffffffffffffffffffff1681565b60006111b0600160066000858152602001908152602001600020546111a991906141b4565b6001610dcb565b9050919050565b60006111c1612314565b905060008160000160089054906101000a900460ff1615905060008260000160009054906101000a900467ffffffffffffffff1690506000808267ffffffffffffffff1614801561120f5750825b9050600060018367ffffffffffffffff16148015611244575060003073ffffffffffffffffffffffffffffffffffffffff163b145b905081158015611252575080155b15611289576040517ff92ee8a900000000000000000000000000000000000000000000000000000000815260040160405180910390fd5b60018560000160006101000a81548167ffffffffffffffff021916908367ffffffffffffffff16021790555083156112d95760018560000160086101000a81548160ff0219169083151502179055505b6112e28661233c565b6112fa60405180602001604052806000815250612350565b611302612364565b831561135e5760008560000160086101000a81548160ff0219169083151502179055507fc7f505b2f371ae2175ee4913f4499e1f2633a7b5936321eed1cdaeb6115181d2600160405161135591906144fc565b60405180910390a15b505050505050565b600080611371611604565b90508060010160008573ffffffffffffffffffffffffffffffffffffffff1673ffffffffffffffffffffffffffffffffffffffff16815260200190815260200160002060008473ffffffffffffffffffffffffffffffffffffffff1673ffffffffffffffffffffffffffffffffffffffff16815260200190815260200160002060009054906101000a900460ff1691505092915050565b6000611412611ce2565b90508073ffffffffffffffffffffffffffffffffffffffff168673ffffffffffffffffffffffffffffffffffffffff161415801561145757506114558682611366565b155b1561149b5780866040517fe237d9220000000000000000000000000000000000000000000000000000000081526004016114929291906143b7565b60405180910390fd5b6114a8868686868661236e565b505050505050565b6114b8611c50565b600073ffffffffffffffffffffffffffffffffffffffff168173ffffffffffffffffffffffffffffffffffffffff160361152a5760006040517f1e4fbdf70000000000000000000000000000000000000000000000000000000081526004016115219190613e7b565b60405180910390fd5b61153381612096565b50565b6009600083815260200190815260200160002060009054906101000a900460ff168015611576575060016006600084815260200190815260200160002054115b156115895761158482612479565b6115a3565b600060066000848152602001908152602001600020819055505b6115ae8383836127b4565b505050565b6115bb611c50565b80600160006101000a81548173ffffffffffffffffffffffffffffffffffffffff021916908373ffffffffffffffffffffffffffffffffffffffff16021790555050565b600181565b60007f88be536d5240c274a3b1d3a1be54482fd9caa294f08c62a7cde569f49a3c4500905090565b60007fd9b67a26000000000000000000000000000000000000000000000000000000007bffffffffffffffffffffffffffffffffffffffffffffffffffffffff1916827bffffffffffffffffffffffffffffffffffffffffffffffffffffffff191614806116f757507f0e89341c000000000000000000000000000000000000000000000000000000007bffffffffffffffffffffffffffffffffffffffffffffffffffffffff1916827bffffffffffffffffffffffffffffffffffffffffffffffffffffffff1916145b8061170757506117068261285b565b5b9050919050565b600073ffffffffffffffffffffffffffffffffffffffff168473ffffffffffffffffffffffffffffffffffffffff16036117805760006040517f57f447ce0000000000000000000000000000000000000000000000000000000081526004016117779190613e7b565b60405180910390fd5b60008061178d85856128c5565b9150915061179f6000878484876128f5565b505050505050565b606060006005600085815260200190815260200160002080546117c990614217565b90501461180b576040517f08c379a000000000000000000000000000000000000000000000000000000000815260040161180290614563565b60405180910390fd5b8160056000858152602001908152602001600020908161182b9190614710565b5060056000848152602001908152602001600020805461184a90614217565b80601f016020809104026020016040519081016040528092919081815260200182805461187690614217565b80156118c35780601f10611898576101008083540402835291602001916118c3565b820191906000526020600020905b8154815290600101906020018083116118a657829003601f168201915b5050505050905092915050565b600060066000838152602001908152602001600020549050600081118061195557503373ffffffffffffffffffffffffffffffffffffffff166008600084815260200190815260200160002060009054906101000a900473ffffffffffffffffffffffffffffffffffffffff1673ffffffffffffffffffffffffffffffffffffffff16145b611994576040517f08c379a000000000000000000000000000000000000000000000000000000000815260040161198b90614854565b60405180910390fd5b60006009600084815260200190815260200160002060009054906101000a900460ff166119c3576004546119cf565b6119ce826001610dcb565b5b90506000670de0b6b3a7640000600254836119ea9190614112565b6119f49190614183565b905060006009600086815260200190815260200160002060009054906101000a900460ff16611a305781600454611a2b91906141b4565b611a52565b670de0b6b3a764000060035484611a479190614112565b611a519190614183565b5b9050808284611a619190614438565b611a6b9190614438565b341015611aad576040517f08c379a0000000000000000000000000000000000000000000000000000000008152600401611aa4906148c0565b60405180910390fd5b600184611aba9190614438565b60066000878152602001908152602001600020819055506000600160009054906101000a900473ffffffffffffffffffffffffffffffffffffffff1673ffffffffffffffffffffffffffffffffffffffff1683604051611b1990614911565b60006040518083038185875af1925050503d8060008114611b56576040519150601f19603f3d011682016040523d82523d6000602084013e611b5b565b606091505b5050905060006008600088815260200190815260200160002060009054906101000a900473ffffffffffffffffffffffffffffffffffffffff1673ffffffffffffffffffffffffffffffffffffffff1683604051611bb890614911565b60006040518083038185875af1925050503d8060008114611bf5576040519150601f19603f3d011682016040523d82523d6000602084013e611bfa565b606091505b50509050818015611c085750805b611c47576040517f08c379a0000000000000000000000000000000000000000000000000000000008152600401611c3e90614972565b60405180910390fd5b50505050505050565b611c58611ce2565b73ffffffffffffffffffffffffffffffffffffffff16611c766110a6565b73ffffffffffffffffffffffffffffffffffffffff1614611cd557611c99611ce2565b6040517f118cdaa7000000000000000000000000000000000000000000000000000000008152600401611ccc9190613e7b565b60405180910390fd5b565b611cdf611c50565b50565b600033905090565b600073ffffffffffffffffffffffffffffffffffffffff168473ffffffffffffffffffffffffffffffffffffffff1603611d5c5760006040517f57f447ce000000000000000000000000000000000000000000000000000000008152600401611d539190613e7b565b60405180910390fd5b600073ffffffffffffffffffffffffffffffffffffffff168573ffffffffffffffffffffffffffffffffffffffff1603611dce5760006040517f01a83514000000000000000000000000000000000000000000000000000000008152600401611dc59190613e7b565b60405180910390fd5b611ddb85858585856128f5565b5050505050565b600060208202602084010151905092915050565b600060208202602084010151905092915050565b7f000000000000000000000000000000000000000000000000000000000000000073ffffffffffffffffffffffffffffffffffffffff163073ffffffffffffffffffffffffffffffffffffffff161480611eb757507f000000000000000000000000000000000000000000000000000000000000000073ffffffffffffffffffffffffffffffffffffffff16611e9e6129a7565b73ffffffffffffffffffffffffffffffffffffffff1614155b15611eee576040517fe07c8dba00000000000000000000000000000000000000000000000000000000815260040160405180910390fd5b565b8173ffffffffffffffffffffffffffffffffffffffff166352d1902d6040518163ffffffff1660e01b8152600401602060405180830381865afa925050508015611f5857506040513d601f19601f82011682018060405250810190611f5591906149be565b60015b611f9957816040517f4c9c8ce3000000000000000000000000000000000000000000000000000000008152600401611f909190613e7b565b60405180910390fd5b7f360894a13ba1a3210667c828492db98dca3e2076cc3735a920a3ca505d382bbc60001b811461200057806040517faa1d49a4000000000000000000000000000000000000000000000000000000008152600401611ff79190613eaf565b60405180910390fd5b61200a83836129fe565b505050565b7f000000000000000000000000000000000000000000000000000000000000000073ffffffffffffffffffffffffffffffffffffffff163073ffffffffffffffffffffffffffffffffffffffff1614612094576040517fe07c8dba00000000000000000000000000000000000000000000000000000000815260040160405180910390fd5b565b60006120a061216d565b905060008160000160009054906101000a900473ffffffffffffffffffffffffffffffffffffffff169050828260000160006101000a81548173ffffffffffffffffffffffffffffffffffffffff021916908373ffffffffffffffffffffffffffffffffffffffff1602179055508273ffffffffffffffffffffffffffffffffffffffff168173ffffffffffffffffffffffffffffffffffffffff167f8be0079c531659141344cd1fd0a4f28419497f9722a3daafe3b4186f6b6457e060405160405180910390a3505050565b60007f9016d09d72d40fdae2fd8ceac6b6234c7706214fd39c1cd1e609a0528c199300905090565b600061219f611604565b9050600073ffffffffffffffffffffffffffffffffffffffff168373ffffffffffffffffffffffffffffffffffffffff16036122135760006040517fced3e10000000000000000000000000000000000000000000000000000000000815260040161220a9190613e7b565b60405180910390fd5b818160010160008673ffffffffffffffffffffffffffffffffffffffff1673ffffffffffffffffffffffffffffffffffffffff16815260200190815260200160002060008573ffffffffffffffffffffffffffffffffffffffff1673ffffffffffffffffffffffffffffffffffffffff16815260200190815260200160002060006101000a81548160ff0219169083151502179055508273ffffffffffffffffffffffffffffffffffffffff168473ffffffffffffffffffffffffffffffffffffffff167f17307eab39ab6107e8899845ad3d59bd9653f200f220920489ca2b5937696c318460405161230691906136d7565b60405180910390a350505050565b60007ff0c57e16840df040f15088dc2f81fe391c3923bec73e23a9662efc9c229c6a00905090565b612344612a71565b61234d81612ab1565b50565b612358612a71565b61236181612b37565b50565b61236c612a71565b565b600073ffffffffffffffffffffffffffffffffffffffff168473ffffffffffffffffffffffffffffffffffffffff16036123e05760006040517f57f447ce0000000000000000000000000000000000000000000000000000000081526004016123d79190613e7b565b60405180910390fd5b600073ffffffffffffffffffffffffffffffffffffffff168573ffffffffffffffffffffffffffffffffffffffff16036124525760006040517f01a835140000000000000000000000000000000000000000000000000000000081526004016124499190613e7b565b60405180910390fd5b60008061245f85856128c5565b9150915061247087878484876128f5565b50505050505050565b6000612485338361086c565b036124c5576040517f08c379a00000000000000000000000000000000000000000000000000000000081526004016124bc90614a37565b60405180910390fd5b60006006600083815260200190815260200160002054905060018111612520576040517f08c379a000000000000000000000000000000000000000000000000000000000815260040161251790614aa3565b60405180910390fd5b600061253960018361253291906141b4565b6001610dcb565b90506000670de0b6b3a7640000600254836125549190614112565b61255e9190614183565b90506000670de0b6b3a7640000600354846125799190614112565b6125839190614183565b905060018461259291906141b4565b600660008781526020019081526020016000208190555060003373ffffffffffffffffffffffffffffffffffffffff168284866125cf91906141b4565b6125d991906141b4565b6040516125e590614911565b60006040518083038185875af1925050503d8060008114612622576040519150601f19603f3d011682016040523d82523d6000602084013e612627565b606091505b505090506000600160009054906101000a900473ffffffffffffffffffffffffffffffffffffffff1673ffffffffffffffffffffffffffffffffffffffff168460405161267390614911565b60006040518083038185875af1925050503d80600081146126b0576040519150601f19603f3d011682016040523d82523d6000602084013e6126b5565b606091505b5050905060006008600089815260200190815260200160002060009054906101000a900473ffffffffffffffffffffffffffffffffffffffff1673ffffffffffffffffffffffffffffffffffffffff168460405161271290614911565b60006040518083038185875af1925050503d806000811461274f576040519150601f19603f3d011682016040523d82523d6000602084013e612754565b606091505b505090508280156127625750815b801561276b5750805b6127aa576040517f08c379a00000000000000000000000000000000000000000000000000000000081526004016127a190614972565b60405180910390fd5b5050505050505050565b600073ffffffffffffffffffffffffffffffffffffffff168373ffffffffffffffffffffffffffffffffffffffff16036128265760006040517f01a8351400000000000000000000000000000000000000000000000000000000815260040161281d9190613e7b565b60405180910390fd5b60008061283384846128c5565b915091506128548560008484604051806020016040528060008152506128f5565b5050505050565b60007f01ffc9a7000000000000000000000000000000000000000000000000000000007bffffffffffffffffffffffffffffffffffffffffffffffffffffffff1916827bffffffffffffffffffffffffffffffffffffffffffffffffffffffff1916149050919050565b60608060405191506001825283602083015260408201905060018152826020820152604081016040529250929050565b61290185858585612b4b565b600073ffffffffffffffffffffffffffffffffffffffff168473ffffffffffffffffffffffffffffffffffffffff16146129a057600061293f611ce2565b9050600184510361298f576000612960600086611df690919063ffffffff16565b90506000612978600086611df690919063ffffffff16565b9050612988838989858589612f0f565b505061299e565b61299d8187878787876130c3565b5b505b5050505050565b60006129d57f360894a13ba1a3210667c828492db98dca3e2076cc3735a920a3ca505d382bbc60001b613277565b60000160009054906101000a900473ffffffffffffffffffffffffffffffffffffffff16905090565b612a0782613281565b8173ffffffffffffffffffffffffffffffffffffffff167fbc7cd75a20ee27fd9adebab32041f755214dbc6bffa90cc0225b39da2e5c2d3b60405160405180910390a2600081511115612a6457612a5e828261334e565b50612a6d565b612a6c6133d2565b5b5050565b612a7961340f565b612aaf576040517fd7e6bcf800000000000000000000000000000000000000000000000000000000815260040160405180910390fd5b565b612ab9612a71565b600073ffffffffffffffffffffffffffffffffffffffff168173ffffffffffffffffffffffffffffffffffffffff1603612b2b5760006040517f1e4fbdf7000000000000000000000000000000000000000000000000000000008152600401612b229190613e7b565b60405180910390fd5b612b3481612096565b50565b612b3f612a71565b612b488161342f565b50565b6000612b55611604565b90508151835114612ba157825182516040517f5b059991000000000000000000000000000000000000000000000000000000008152600401612b989291906143e0565b60405180910390fd5b6000612bab611ce2565b905060005b8451811015612dc9576000612bce8287611df690919063ffffffff16565b90506000612be58387611df690919063ffffffff16565b9050600073ffffffffffffffffffffffffffffffffffffffff168973ffffffffffffffffffffffffffffffffffffffff1614612d1857600085600001600084815260200190815260200160002060008b73ffffffffffffffffffffffffffffffffffffffff1673ffffffffffffffffffffffffffffffffffffffff16815260200190815260200160002054905081811015612cbd57898183856040517f03dee4c5000000000000000000000000000000000000000000000000000000008152600401612cb49493929190614ac3565b60405180910390fd5b81810386600001600085815260200190815260200160002060008c73ffffffffffffffffffffffffffffffffffffffff1673ffffffffffffffffffffffffffffffffffffffff16815260200190815260200160002081905550505b600073ffffffffffffffffffffffffffffffffffffffff168873ffffffffffffffffffffffffffffffffffffffff1614612db6578085600001600084815260200190815260200160002060008a73ffffffffffffffffffffffffffffffffffffffff1673ffffffffffffffffffffffffffffffffffffffff1681526020019081526020016000206000828254612dae9190614438565b925050819055505b505080612dc290614302565b9050612bb0565b506001845103612e88576000612de9600086611df690919063ffffffff16565b90506000612e01600086611df690919063ffffffff16565b90508673ffffffffffffffffffffffffffffffffffffffff168873ffffffffffffffffffffffffffffffffffffffff168473ffffffffffffffffffffffffffffffffffffffff167fc3d58168c5ae7397731d063d5bbf3d657854427343f4c083240f7aacaa2d0f628585604051612e799291906143e0565b60405180910390a45050612f07565b8473ffffffffffffffffffffffffffffffffffffffff168673ffffffffffffffffffffffffffffffffffffffff168273ffffffffffffffffffffffffffffffffffffffff167f4a39dc06d4c0dbc64b70af90fd698a233a518aa5d07e595d983b8c0526c8f7fb8787604051612efe929190614b08565b60405180910390a45b505050505050565b60008473ffffffffffffffffffffffffffffffffffffffff163b11156130bb578373ffffffffffffffffffffffffffffffffffffffff1663f23a6e6187878686866040518663ffffffff1660e01b8152600401612f70959493929190614b94565b6020604051808303816000875af1925050508015612fac57506040513d601f19601f82011682018060405250810190612fa99190614c03565b60015b613030573d8060008114612fdc576040519150601f19603f3d011682016040523d82523d6000602084013e612fe1565b606091505b50600081510361302857846040517f57f447ce00000000000000000000000000000000000000000000000000000000815260040161301f9190613e7b565b60405180910390fd5b805181602001fd5b63f23a6e6160e01b7bffffffffffffffffffffffffffffffffffffffffffffffffffffffff1916817bffffffffffffffffffffffffffffffffffffffffffffffffffffffff1916146130b957846040517f57f447ce0000000000000000000000000000000000000000000000000000000081526004016130b09190613e7b565b60405180910390fd5b505b505050505050565b60008473ffffffffffffffffffffffffffffffffffffffff163b111561326f578373ffffffffffffffffffffffffffffffffffffffff1663bc197c8187878686866040518663ffffffff1660e01b8152600401613124959493929190614c30565b6020604051808303816000875af192505050801561316057506040513d601f19601f8201168201806040525081019061315d9190614c03565b60015b6131e4573d8060008114613190576040519150601f19603f3d011682016040523d82523d6000602084013e613195565b606091505b5060008151036131dc57846040517f57f447ce0000000000000000000000000000000000000000000000000000000081526004016131d39190613e7b565b60405180910390fd5b805181602001fd5b63bc197c8160e01b7bffffffffffffffffffffffffffffffffffffffffffffffffffffffff1916817bffffffffffffffffffffffffffffffffffffffffffffffffffffffff19161461326d57846040517f57f447ce0000000000000000000000000000000000000000000000000000000081526004016132649190613e7b565b60405180910390fd5b505b505050505050565b6000819050919050565b60008173ffffffffffffffffffffffffffffffffffffffff163b036132dd57806040517f4c9c8ce30000000000000000000000000000000000000000000000000000000081526004016132d49190613e7b565b60405180910390fd5b8061330a7f360894a13ba1a3210667c828492db98dca3e2076cc3735a920a3ca505d382bbc60001b613277565b60000160006101000a81548173ffffffffffffffffffffffffffffffffffffffff021916908373ffffffffffffffffffffffffffffffffffffffff16021790555050565b60606000808473ffffffffffffffffffffffffffffffffffffffff16846040516133789190614cc9565b600060405180830381855af49150503d80600081146133b3576040519150601f19603f3d011682016040523d82523d6000602084013e6133b8565b606091505b50915091506133c8858383613451565b9250505092915050565b600034111561340d576040517fb398979f00000000000000000000000000000000000000000000000000000000815260040160405180910390fd5b565b6000613419612314565b60000160089054906101000a900460ff16905090565b6000613439611604565b90508181600201908161344c9190614710565b505050565b60608261346657613461826134e0565b6134d8565b6000825114801561348e575060008473ffffffffffffffffffffffffffffffffffffffff163b145b156134d057836040517f9996b3150000000000000000000000000000000000000000000000000000000081526004016134c79190613e7b565b60405180910390fd5b8190506134d9565b5b9392505050565b6000815111156134f35780518082602001fd5b6040517f1425ea4200000000000000000000000000000000000000000000000000000000815260040160405180910390fd5b6000604051905090565b600080fd5b600080fd5b600073ffffffffffffffffffffffffffffffffffffffff82169050919050565b600061356482613539565b9050919050565b61357481613559565b811461357f57600080fd5b50565b6000813590506135918161356b565b92915050565b6000819050919050565b6135aa81613597565b81146135b557600080fd5b50565b6000813590506135c7816135a1565b92915050565b600080604083850312156135e4576135e361352f565b5b60006135f285828601613582565b9250506020613603858286016135b8565b9150509250929050565b61361681613597565b82525050565b6000602082019050613631600083018461360d565b92915050565b60007fffffffff0000000000000000000000000000000000000000000000000000000082169050919050565b61366c81613637565b811461367757600080fd5b50565b60008135905061368981613663565b92915050565b6000602082840312156136a5576136a461352f565b5b60006136b38482850161367a565b91505092915050565b60008115159050919050565b6136d1816136bc565b82525050565b60006020820190506136ec60008301846136c8565b92915050565b600081519050919050565b600082825260208201905092915050565b60005b8381101561372c578082015181840152602081019050613711565b60008484015250505050565b6000601f19601f8301169050919050565b6000613754826136f2565b61375e81856136fd565b935061376e81856020860161370e565b61377781613738565b840191505092915050565b6000602082019050818103600083015261379c8184613749565b905092915050565b6000602082840312156137ba576137b961352f565b5b60006137c8848285016135b8565b91505092915050565b600080fd5b600080fd5b7f4e487b7100000000000000000000000000000000000000000000000000000000600052604160045260246000fd5b61381382613738565b810181811067ffffffffffffffff82111715613832576138316137db565b5b80604052505050565b6000613845613525565b9050613851828261380a565b919050565b600067ffffffffffffffff821115613871576138706137db565b5b61387a82613738565b9050602081019050919050565b82818337600083830152505050565b60006138a96138a484613856565b61383b565b9050828152602081018484840111156138c5576138c46137d6565b5b6138d0848285613887565b509392505050565b600082601f8301126138ed576138ec6137d1565b5b81356138fd848260208601613896565b91505092915050565b600080fd5b600080fd5b60008083601f840112613926576139256137d1565b5b8235905067ffffffffffffffff81111561394357613942613906565b5b60208301915083600182028301111561395f5761395e61390b565b5b9250929050565b61396f816136bc565b811461397a57600080fd5b50565b60008135905061398c81613966565b92915050565b6000806000806000608086880312156139ae576139ad61352f565b5b600086013567ffffffffffffffff8111156139cc576139cb613534565b5b6139d8888289016138d8565b955050602086013567ffffffffffffffff8111156139f9576139f8613534565b5b613a0588828901613910565b94509450506040613a1888828901613582565b9250506060613a298882890161397d565b9150509295509295909350565b600060208284031215613a4c57613a4b61352f565b5b6000613a5a84828501613582565b91505092915050565b600067ffffffffffffffff821115613a7e57613a7d6137db565b5b602082029050602081019050919050565b6000613aa2613a9d84613a63565b61383b565b90508083825260208201905060208402830185811115613ac557613ac461390b565b5b835b81811015613aee5780613ada88826135b8565b845260208401935050602081019050613ac7565b5050509392505050565b600082601f830112613b0d57613b0c6137d1565b5b8135613b1d848260208601613a8f565b91505092915050565b600080600080600060a08688031215613b4257613b4161352f565b5b6000613b5088828901613582565b9550506020613b6188828901613582565b945050604086013567ffffffffffffffff811115613b8257613b81613534565b5b613b8e88828901613af8565b935050606086013567ffffffffffffffff811115613baf57613bae613534565b5b613bbb88828901613af8565b925050608086013567ffffffffffffffff811115613bdc57613bdb613534565b5b613be8888289016138d8565b9150509295509295909350565b600067ffffffffffffffff821115613c1057613c0f6137db565b5b602082029050602081019050919050565b6000613c34613c2f84613bf5565b61383b565b90508083825260208201905060208402830185811115613c5757613c5661390b565b5b835b81811015613c805780613c6c8882613582565b845260208401935050602081019050613c59565b5050509392505050565b600082601f830112613c9f57613c9e6137d1565b5b8135613caf848260208601613c21565b91505092915050565b60008060408385031215613ccf57613cce61352f565b5b600083013567ffffffffffffffff811115613ced57613cec613534565b5b613cf985828601613c8a565b925050602083013567ffffffffffffffff811115613d1a57613d19613534565b5b613d2685828601613af8565b9150509250929050565b600081519050919050565b600082825260208201905092915050565b6000819050602082019050919050565b613d6581613597565b82525050565b6000613d778383613d5c565b60208301905092915050565b6000602082019050919050565b6000613d9b82613d30565b613da58185613d3b565b9350613db083613d4c565b8060005b83811015613de1578151613dc88882613d6b565b9750613dd383613d83565b925050600181019050613db4565b5085935050505092915050565b60006020820190508181036000830152613e088184613d90565b905092915050565b60008060408385031215613e2757613e2661352f565b5b6000613e3585828601613582565b925050602083013567ffffffffffffffff811115613e5657613e55613534565b5b613e62858286016138d8565b9150509250929050565b613e7581613559565b82525050565b6000602082019050613e906000830184613e6c565b92915050565b6000819050919050565b613ea981613e96565b82525050565b6000602082019050613ec46000830184613ea0565b92915050565b60008060408385031215613ee157613ee061352f565b5b6000613eef858286016135b8565b9250506020613f00858286016135b8565b9150509250929050565b600080600060608486031215613f2357613f2261352f565b5b6000613f31868287016135b8565b9350506020613f4286828701613582565b925050604084013567ffffffffffffffff811115613f6357613f62613534565b5b613f6f868287016138d8565b9150509250925092565b60008060408385031215613f9057613f8f61352f565b5b6000613f9e85828601613582565b9250506020613faf8582860161397d565b9150509250929050565b60008060408385031215613fd057613fcf61352f565b5b6000613fde85828601613582565b9250506020613fef85828601613582565b9150509250929050565b600080600080600060a086880312156140155761401461352f565b5b600061402388828901613582565b955050602061403488828901613582565b9450506040614045888289016135b8565b9350506060614056888289016135b8565b925050608086013567ffffffffffffffff81111561407757614076613534565b5b614083888289016138d8565b9150509295509295909350565b6000806000606084860312156140a9576140a861352f565b5b60006140b786828701613582565b93505060206140c8868287016135b8565b92505060406140d9868287016135b8565b9150509250925092565b7f4e487b7100000000000000000000000000000000000000000000000000000000600052601160045260246000fd5b600061411d82613597565b915061412883613597565b925082820261413681613597565b9150828204841483151761414d5761414c6140e3565b5b5092915050565b7f4e487b7100000000000000000000000000000000000000000000000000000000600052601260045260246000fd5b600061418e82613597565b915061419983613597565b9250826141a9576141a8614154565b5b828204905092915050565b60006141bf82613597565b91506141ca83613597565b92508282039050818111156141e2576141e16140e3565b5b92915050565b7f4e487b7100000000000000000000000000000000000000000000000000000000600052602260045260246000fd5b6000600282049050600182168061422f57607f821691505b602082108103614242576142416141e8565b5b50919050565b600081905092915050565b60008190508160005260206000209050919050565b6000815461427581614217565b61427f8186614248565b9450600182166000811461429a57600181146142af576142e2565b60ff19831686528115158202860193506142e2565b6142b885614253565b60005b838110156142da578154818901526001820191506020810190506142bb565b838801955050505b50505092915050565b60006142f78284614268565b915081905092915050565b600061430d82613597565b91507fffffffffffffffffffffffffffffffffffffffffffffffffffffffffffffffff820361433f5761433e6140e3565b5b600182019050919050565b600061435683856136fd565b9350614363838584613887565b61436c83613738565b840190509392505050565b600060608201905061438c6000830187613e6c565b614399602083018661360d565b81810360408301526143ac81848661434a565b905095945050505050565b60006040820190506143cc6000830185613e6c565b6143d96020830184613e6c565b9392505050565b60006040820190506143f5600083018561360d565b614402602083018461360d565b9392505050565b7f4e487b7100000000000000000000000000000000000000000000000000000000600052603260045260246000fd5b600061444382613597565b915061444e83613597565b9250828201905080821115614466576144656140e3565b5b92915050565b60006060820190506144816000830186613e6c565b61448e602083018561360d565b61449b6040830184613e6c565b949350505050565b6000819050919050565b600067ffffffffffffffff82169050919050565b6000819050919050565b60006144e66144e16144dc846144a3565b6144c1565b6144ad565b9050919050565b6144f6816144cb565b82525050565b600060208201905061451160008301846144ed565b92915050565b7f55524920616c7265616479207365740000000000000000000000000000000000600082015250565b600061454d600f836136fd565b915061455882614517565b602082019050919050565b6000602082019050818103600083015261457c81614540565b9050919050565b60006020601f8301049050919050565b600082821b905092915050565b6000600883026145d07fffffffffffffffffffffffffffffffffffffffffffffffffffffffffffffffff82614593565b6145da8683614593565b95508019841693508086168417925050509392505050565b600061460d61460861460384613597565b6144c1565b613597565b9050919050565b6000819050919050565b614627836145f2565b61463b61463382614614565b8484546145a0565b825550505050565b600090565b614650614643565b61465b81848461461e565b505050565b5b8181101561467f57614674600082614648565b600181019050614661565b5050565b601f8211156146c45761469581614253565b61469e84614583565b810160208510156146ad578190505b6146c16146b985614583565b830182614660565b50505b505050565b600082821c905092915050565b60006146e7600019846008026146c9565b1980831691505092915050565b600061470083836146d6565b9150826002028217905092915050565b614719826136f2565b67ffffffffffffffff811115614732576147316137db565b5b61473c8254614217565b614747828285614683565b600060209050601f83116001811461477a5760008415614768578287015190505b61477285826146f4565b8655506147da565b601f19841661478886614253565b60005b828110156147b05784890151825560018201915060208501945060208101905061478b565b868310156147cd57848901516147c9601f8916826146d6565b8355505b6001600288020188555050505b505050505050565b7f4f6e6c79207468652063726561746f722063616e20627579207468652066697260008201527f737420746f6b656e000000000000000000000000000000000000000000000000602082015250565b600061483e6028836136fd565b9150614849826147e2565b604082019050919050565b6000602082019050818103600083015261486d81614831565b9050919050565b7f496e73756666696369656e74207061796d656e74000000000000000000000000600082015250565b60006148aa6014836136fd565b91506148b582614874565b602082019050919050565b600060208201905081810360008301526148d98161489d565b9050919050565b600081905092915050565b50565b60006148fb6000836148e0565b9150614906826148eb565b600082019050919050565b600061491c826148ee565b9150819050919050565b7f556e61626c6520746f2073656e642066756e6473000000000000000000000000600082015250565b600061495c6014836136fd565b915061496782614926565b602082019050919050565b6000602082019050818103600083015261498b8161494f565b9050919050565b61499b81613e96565b81146149a657600080fd5b50565b6000815190506149b881614992565b92915050565b6000602082840312156149d4576149d361352f565b5b60006149e2848285016149a9565b91505092915050565b7f43616e742073616c65207768617420796f7520646f6e74206861766500000000600082015250565b6000614a21601c836136fd565b9150614a2c826149eb565b602082019050919050565b60006020820190508181036000830152614a5081614a14565b9050919050565b7f43616e6e6f742073656c6c20746865206c617374207368617265000000000000600082015250565b6000614a8d601a836136fd565b9150614a9882614a57565b602082019050919050565b60006020820190508181036000830152614abc81614a80565b9050919050565b6000608082019050614ad86000830187613e6c565b614ae5602083018661360d565b614af2604083018561360d565b614aff606083018461360d565b95945050505050565b60006040820190508181036000830152614b228185613d90565b90508181036020830152614b368184613d90565b90509392505050565b600081519050919050565b600082825260208201905092915050565b6000614b6682614b3f565b614b708185614b4a565b9350614b8081856020860161370e565b614b8981613738565b840191505092915050565b600060a082019050614ba96000830188613e6c565b614bb66020830187613e6c565b614bc3604083018661360d565b614bd0606083018561360d565b8181036080830152614be28184614b5b565b90509695505050505050565b600081519050614bfd81613663565b92915050565b600060208284031215614c1957614c1861352f565b5b6000614c2784828501614bee565b91505092915050565b600060a082019050614c456000830188613e6c565b614c526020830187613e6c565b8181036040830152614c648186613d90565b90508181036060830152614c788185613d90565b90508181036080830152614c8c8184614b5b565b90509695505050505050565b6000614ca382614b3f565b614cad81856148e0565b9350614cbd81856020860161370e565b80840191505092915050565b6000614cd58284614c98565b91508190509291505056fea264697066735822122094813a17db200bdc4668723390e8b9b69406d2064beb82c6fc722d8d23d3ea8864736f6c63430008140033",
  "linkReferences": {},
  "deployedLinkReferences": {}
}