{
  "_format": "hh-sol-artifact-1",
  "contractName": "FollowRegistry",
  "sourceName": "contracts/FollowRegistry.sol",
  "abi": [
    {
      "inputs": [
        {
          "internalType": "address",
          "name": "target",
          "type": "address"
        }
      ],
      "name": "AddressEmptyCode",
      "type": "error"
    },
    {
      "inputs": [
        {
          "internalType": "address",
          "name": "sender",
          "type": "address"
        },
        {
          "internalType": "uint256",
          "name": "balance",
          "type": "uint256"
        },
        {
          "internalType": "uint256",
          "name": "needed",
          "type": "uint256"
        },
        {
          "internalType": "uint256",
          "name": "tokenId",
          "type": "uint256"
        }
      ],
      "name": "ERC1155InsufficientBalance",
      "type": "error"
    },
    {
      "inputs": [
        {
          "internalType": "address",
          "name": "approver",
          "type": "address"
        }
      ],
      "name": "ERC1155InvalidApprover",
      "type": "error"
    },
    {
      "inputs": [
        {
          "internalType": "uint256",
          "name": "idsLength",
          "type": "uint256"
        },
        {
          "internalType": "uint256",
          "name": "valuesLength",
          "type": "uint256"
        }
      ],
      "name": "ERC1155InvalidArrayLength",
      "type": "error"
    },
    {
      "inputs": [
        {
          "internalType": "address",
          "name": "operator",
          "type": "address"
        }
      ],
      "name": "ERC1155InvalidOperator",
      "type": "error"
    },
    {
      "inputs": [
        {
          "internalType": "address",
          "name": "receiver",
          "type": "address"
        }
      ],
      "name": "ERC1155InvalidReceiver",
      "type": "error"
    },
    {
      "inputs": [
        {
          "internalType": "address",
          "name": "sender",
          "type": "address"
        }
      ],
      "name": "ERC1155InvalidSender",
      "type": "error"
    },
    {
      "inputs": [
        {
          "internalType": "address",
          "name": "operator",
          "type": "address"
        },
        {
          "internalType": "address",
          "name": "owner",
          "type": "address"
        }
      ],
      "name": "ERC1155MissingApprovalForAll",
      "type": "error"
    },
    {
      "inputs": [
        {
          "internalType": "address",
          "name": "implementation",
          "type": "address"
        }
      ],
      "name": "ERC1967InvalidImplementation",
      "type": "error"
    },
    {
      "inputs": [],
      "name": "ERC1967NonPayable",
      "type": "error"
    },
    {
      "inputs": [],
      "name": "EnforcedPause",
      "type": "error"
    },
    {
      "inputs": [],
      "name": "ExpectedPause",
      "type": "error"
    },
    {
      "inputs": [],
      "name": "FailedInnerCall",
      "type": "error"
    },
    {
      "inputs": [],
      "name": "InvalidInitialization",
      "type": "error"
    },
    {
      "inputs": [],
      "name": "NotInitializing",
      "type": "error"
    },
    {
      "inputs": [
        {
          "internalType": "address",
          "name": "owner",
          "type": "address"
        }
      ],
      "name": "OwnableInvalidOwner",
      "type": "error"
    },
    {
      "inputs": [
        {
          "internalType": "address",
          "name": "account",
          "type": "address"
        }
      ],
      "name": "OwnableUnauthorizedAccount",
      "type": "error"
    },
    {
      "inputs": [],
      "name": "UUPSUnauthorizedCallContext",
      "type": "error"
    },
    {
      "inputs": [
        {
          "internalType": "bytes32",
          "name": "slot",
          "type": "bytes32"
        }
      ],
      "name": "UUPSUnsupportedProxiableUUID",
      "type": "error"
    },
    {
      "anonymous": false,
      "inputs": [
        {
          "indexed": true,
          "internalType": "address",
          "name": "account",
          "type": "address"
        },
        {
          "indexed": true,
          "internalType": "address",
          "name": "operator",
          "type": "address"
        },
        {
          "indexed": false,
          "internalType": "bool",
          "name": "approved",
          "type": "bool"
        }
      ],
      "name": "ApprovalForAll",
      "type": "event"
    },
    {
      "anonymous": false,
      "inputs": [
        {
          "indexed": false,
          "internalType": "uint64",
          "name": "version",
          "type": "uint64"
        }
      ],
      "name": "Initialized",
      "type": "event"
    },
    {
      "anonymous": false,
      "inputs": [
        {
          "indexed": true,
          "internalType": "address",
          "name": "previousOwner",
          "type": "address"
        },
        {
          "indexed": true,
          "internalType": "address",
          "name": "newOwner",
          "type": "address"
        }
      ],
      "name": "OwnershipTransferred",
      "type": "event"
    },
    {
      "anonymous": false,
      "inputs": [
        {
          "indexed": false,
          "internalType": "address",
          "name": "account",
          "type": "address"
        }
      ],
      "name": "Paused",
      "type": "event"
    },
    {
      "anonymous": false,
      "inputs": [
        {
          "indexed": true,
          "internalType": "address",
          "name": "operator",
          "type": "address"
        },
        {
          "indexed": true,
          "internalType": "address",
          "name": "from",
          "type": "address"
        },
        {
          "indexed": true,
          "internalType": "address",
          "name": "to",
          "type": "address"
        },
        {
          "indexed": false,
          "internalType": "uint256[]",
          "name": "ids",
          "type": "uint256[]"
        },
        {
          "indexed": false,
          "internalType": "uint256[]",
          "name": "values",
          "type": "uint256[]"
        }
      ],
      "name": "TransferBatch",
      "type": "event"
    },
    {
      "anonymous": false,
      "inputs": [
        {
          "indexed": true,
          "internalType": "address",
          "name": "operator",
          "type": "address"
        },
        {
          "indexed": true,
          "internalType": "address",
          "name": "from",
          "type": "address"
        },
        {
          "indexed": true,
          "internalType": "address",
          "name": "to",
          "type": "address"
        },
        {
          "indexed": false,
          "internalType": "uint256",
          "name": "id",
          "type": "uint256"
        },
        {
          "indexed": false,
          "internalType": "uint256",
          "name": "value",
          "type": "uint256"
        }
      ],
      "name": "TransferSingle",
      "type": "event"
    },
    {
      "anonymous": false,
      "inputs": [
        {
          "indexed": false,
          "internalType": "string",
          "name": "value",
          "type": "string"
        },
        {
          "indexed": true,
          "internalType": "uint256",
          "name": "id",
          "type": "uint256"
        }
      ],
      "name": "URI",
      "type": "event"
    },
    {
      "anonymous": false,
      "inputs": [
        {
          "indexed": false,
          "internalType": "address",
          "name": "account",
          "type": "address"
        }
      ],
      "name": "Unpaused",
      "type": "event"
    },
    {
      "anonymous": false,
      "inputs": [
        {
          "indexed": true,
          "internalType": "address",
          "name": "implementation",
          "type": "address"
        }
      ],
      "name": "Upgraded",
      "type": "event"
    },
    {
      "inputs": [],
      "name": "UPGRADE_INTERFACE_VERSION",
      "outputs": [
        {
          "internalType": "string",
          "name": "",
          "type": "string"
        }
      ],
      "stateMutability": "view",
      "type": "function"
    },
    {
      "inputs": [
        {
          "internalType": "address",
          "name": "account",
          "type": "address"
        },
        {
          "internalType": "uint256",
          "name": "id",
          "type": "uint256"
        }
      ],
      "name": "balanceOf",
      "outputs": [
        {
          "internalType": "uint256",
          "name": "",
          "type": "uint256"
        }
      ],
      "stateMutability": "view",
      "type": "function"
    },
    {
      "inputs": [
        {
          "internalType": "address[]",
          "name": "accounts",
          "type": "address[]"
        },
        {
          "internalType": "uint256[]",
          "name": "ids",
          "type": "uint256[]"
        }
      ],
      "name": "balanceOfBatch",
      "outputs": [
        {
          "internalType": "uint256[]",
          "name": "",
          "type": "uint256[]"
        }
      ],
      "stateMutability": "view",
      "type": "function"
    },
    {
      "inputs": [
        {
          "internalType": "uint256",
          "name": "tokenId",
          "type": "uint256"
        }
      ],
      "name": "follow",
      "outputs": [],
      "stateMutability": "nonpayable",
      "type": "function"
    },
    {
      "inputs": [],
      "name": "getRegistry",
      "outputs": [
        {
          "internalType": "address",
          "name": "",
          "type": "address"
        }
      ],
      "stateMutability": "view",
      "type": "function"
    },
    {
      "inputs": [
        {
          "internalType": "address",
          "name": "_owner",
          "type": "address"
        },
        {
          "internalType": "address",
          "name": "_profileRegistry",
          "type": "address"
        }
      ],
      "name": "initialize",
      "outputs": [],
      "stateMutability": "nonpayable",
      "type": "function"
    },
    {
      "inputs": [
        {
          "internalType": "address",
          "name": "account",
          "type": "address"
        },
        {
          "internalType": "address",
          "name": "operator",
          "type": "address"
        }
      ],
      "name": "isApprovedForAll",
      "outputs": [
        {
          "internalType": "bool",
          "name": "",
          "type": "bool"
        }
      ],
      "stateMutability": "view",
      "type": "function"
    },
    {
      "inputs": [],
      "name": "name",
      "outputs": [
        {
          "internalType": "string",
          "name": "",
          "type": "string"
        }
      ],
      "stateMutability": "pure",
      "type": "function"
    },
    {
      "inputs": [],
      "name": "owner",
      "outputs": [
        {
          "internalType": "address",
          "name": "",
          "type": "address"
        }
      ],
      "stateMutability": "view",
      "type": "function"
    },
    {
      "inputs": [],
      "name": "pause",
      "outputs": [],
      "stateMutability": "nonpayable",
      "type": "function"
    },
    {
      "inputs": [],
      "name": "paused",
      "outputs": [
        {
          "internalType": "bool",
          "name": "",
          "type": "bool"
        }
      ],
      "stateMutability": "view",
      "type": "function"
    },
    {
      "inputs": [],
      "name": "proxiableUUID",
      "outputs": [
        {
          "internalType": "bytes32",
          "name": "",
          "type": "bytes32"
        }
      ],
      "stateMutability": "view",
      "type": "function"
    },
    {
      "inputs": [
        {
          "internalType": "uint256",
          "name": "tokenId",
          "type": "uint256"
        },
        {
          "internalType": "address",
          "name": "userAddress",
          "type": "address"
        }
      ],
      "name": "register",
      "outputs": [],
      "stateMutability": "nonpayable",
      "type": "function"
    },
    {
      "inputs": [],
      "name": "renounceOwnership",
      "outputs": [],
      "stateMutability": "nonpayable",
      "type": "function"
    },
    {
      "inputs": [
        {
          "internalType": "address",
          "name": "from",
          "type": "address"
        },
        {
          "internalType": "address",
          "name": "to",
          "type": "address"
        },
        {
          "internalType": "uint256[]",
          "name": "ids",
          "type": "uint256[]"
        },
        {
          "internalType": "uint256[]",
          "name": "values",
          "type": "uint256[]"
        },
        {
          "internalType": "bytes",
          "name": "data",
          "type": "bytes"
        }
      ],
      "name": "safeBatchTransferFrom",
      "outputs": [],
      "stateMutability": "nonpayable",
      "type": "function"
    },
    {
      "inputs": [
        {
          "internalType": "address",
          "name": "from",
          "type": "address"
        },
        {
          "internalType": "address",
          "name": "to",
          "type": "address"
        },
        {
          "internalType": "uint256",
          "name": "id",
          "type": "uint256"
        },
        {
          "internalType": "uint256",
          "name": "value",
          "type": "uint256"
        },
        {
          "internalType": "bytes",
          "name": "data",
          "type": "bytes"
        }
      ],
      "name": "safeTransferFrom",
      "outputs": [],
      "stateMutability": "nonpayable",
      "type": "function"
    },
    {
      "inputs": [
        {
          "internalType": "address",
          "name": "operator",
          "type": "address"
        },
        {
          "internalType": "bool",
          "name": "approved",
          "type": "bool"
        }
      ],
      "name": "setApprovalForAll",
      "outputs": [],
      "stateMutability": "nonpayable",
      "type": "function"
    },
    {
      "inputs": [
        {
          "internalType": "address",
          "name": "_newAddress",
          "type": "address"
        }
      ],
      "name": "setRegistry",
      "outputs": [],
      "stateMutability": "nonpayable",
      "type": "function"
    },
    {
      "inputs": [
        {
          "internalType": "bytes4",
          "name": "interfaceId",
          "type": "bytes4"
        }
      ],
      "name": "supportsInterface",
      "outputs": [
        {
          "internalType": "bool",
          "name": "",
          "type": "bool"
        }
      ],
      "stateMutability": "view",
      "type": "function"
    },
    {
      "inputs": [],
      "name": "symbol",
      "outputs": [
        {
          "internalType": "string",
          "name": "",
          "type": "string"
        }
      ],
      "stateMutability": "pure",
      "type": "function"
    },
    {
      "inputs": [
        {
          "internalType": "address",
          "name": "newOwner",
          "type": "address"
        }
      ],
      "name": "transferOwnership",
      "outputs": [],
      "stateMutability": "nonpayable",
      "type": "function"
    },
    {
      "inputs": [
        {
          "internalType": "uint256",
          "name": "tokenId",
          "type": "uint256"
        }
      ],
      "name": "unfollow",
      "outputs": [],
      "stateMutability": "nonpayable",
      "type": "function"
    },
    {
      "inputs": [],
      "name": "unpause",
      "outputs": [],
      "stateMutability": "nonpayable",
      "type": "function"
    },
    {
      "inputs": [
        {
          "internalType": "address",
          "name": "newImplementation",
          "type": "address"
        },
        {
          "internalType": "bytes",
          "name": "data",
          "type": "bytes"
        }
      ],
      "name": "upgradeToAndCall",
      "outputs": [],
      "stateMutability": "payable",
      "type": "function"
    },
    {
      "inputs": [
        {
          "internalType": "uint256",
          "name": "",
          "type": "uint256"
        }
      ],
      "name": "uri",
      "outputs": [
        {
          "internalType": "string",
          "name": "",
          "type": "string"
        }
      ],
      "stateMutability": "view",
      "type": "function"
    }
  ],
  "bytecode": "0x60a06040523073ffffffffffffffffffffffffffffffffffffffff1660809073ffffffffffffffffffffffffffffffffffffffff1681525034801561004357600080fd5b50608051613b7361006d6000396000818161156e015281816115c3015261177e0152613b736000f3fe6080604052600436106101655760003560e01c80635ab1bd53116100d1578063a22cb4651161008a578063dbbdf08311610064578063dbbdf083146104e2578063e985e9c51461050b578063f242432a14610548578063f2fde38b1461057157610165565b8063a22cb46514610465578063a91ee0dc1461048e578063ad3cb1cc146104b757610165565b80635ab1bd531461038b5780635c975abb146103b6578063715018a6146103e15780638456cb59146103f85780638da5cb5b1461040f57806395d89b411461043a57610165565b8063384b139311610123578063384b13931461029e5780633f4ba83a146102c7578063485cc955146102de5780634e1273f4146103075780634f1ef2861461034457806352d1902d1461036057610165565b8062fdd58e1461016a57806301998534146101a757806301ffc9a7146101d057806306fdde031461020d5780630e89341c146102385780632eb2c2d614610275575b600080fd5b34801561017657600080fd5b50610191600480360381019061018c91906129af565b61059a565b60405161019e91906129fe565b60405180910390f35b3480156101b357600080fd5b506101ce60048036038101906101c99190612a19565b610603565b005b3480156101dc57600080fd5b506101f760048036038101906101f29190612a9e565b61065e565b6040516102049190612ae6565b60405180910390f35b34801561021957600080fd5b50610222610740565b60405161022f9190612b91565b60405180910390f35b34801561024457600080fd5b5061025f600480360381019061025a9190612a19565b61077d565b60405161026c9190612b91565b60405180910390f35b34801561028157600080fd5b5061029c60048036038101906102979190612db0565b610820565b005b3480156102aa57600080fd5b506102c560048036038101906102c09190612a19565b6108c8565b005b3480156102d357600080fd5b506102dc610959565b005b3480156102ea57600080fd5b5061030560048036038101906103009190612e7f565b61096b565b005b34801561031357600080fd5b5061032e60048036038101906103299190612f82565b610b63565b60405161033b91906130b8565b60405180910390f35b61035e600480360381019061035991906130da565b610c72565b005b34801561036c57600080fd5b50610375610c91565b604051610382919061314f565b60405180910390f35b34801561039757600080fd5b506103a0610cc4565b6040516103ad9190613179565b60405180910390f35b3480156103c257600080fd5b506103cb610ced565b6040516103d89190612ae6565b60405180910390f35b3480156103ed57600080fd5b506103f6610d12565b005b34801561040457600080fd5b5061040d610d26565b005b34801561041b57600080fd5b50610424610d38565b6040516104319190613179565b60405180910390f35b34801561044657600080fd5b5061044f610d70565b60405161045c9190612b91565b60405180910390f35b34801561047157600080fd5b5061048c600480360381019061048791906131c0565b610dad565b005b34801561049a57600080fd5b506104b560048036038101906104b09190613200565b610dc3565b005b3480156104c357600080fd5b506104cc610e0e565b6040516104d99190612b91565b60405180910390f35b3480156104ee57600080fd5b506105096004803603810190610504919061322d565b610e47565b005b34801561051757600080fd5b50610532600480360381019061052d9190612e7f565b610f1b565b60405161053f9190612ae6565b60405180910390f35b34801561055457600080fd5b5061056f600480360381019061056a919061326d565b610fbd565b005b34801561057d57600080fd5b5061059860048036038101906105939190613200565b611065565b005b6000806105a56110eb565b905080600001600084815260200190815260200160002060008573ffffffffffffffffffffffffffffffffffffffff1673ffffffffffffffffffffffffffffffffffffffff1681526020019081526020016000205491505092915050565b600061060f338361059a565b1161064f576040517f08c379a000000000000000000000000000000000000000000000000000000000815260040161064690613350565b60405180910390fd5b61065b33826001611113565b50565b60007fd9b67a26000000000000000000000000000000000000000000000000000000007bffffffffffffffffffffffffffffffffffffffffffffffffffffffff1916827bffffffffffffffffffffffffffffffffffffffffffffffffffffffff1916148061072957507f0e89341c000000000000000000000000000000000000000000000000000000007bffffffffffffffffffffffffffffffffffffffffffffffffffffffff1916827bffffffffffffffffffffffffffffffffffffffffffffffffffffffff1916145b806107395750610738826111ba565b5b9050919050565b60606040518060400160405280601581526020017f566572736f20466f6c6c6f772052656769737472790000000000000000000000815250905090565b606060006107896110eb565b905080600201805461079a9061339f565b80601f01602080910402602001604051908101604052809291908181526020018280546107c69061339f565b80156108135780601f106107e857610100808354040283529160200191610813565b820191906000526020600020905b8154815290600101906020018083116107f657829003601f168201915b5050505050915050919050565b600061082a611224565b90508073ffffffffffffffffffffffffffffffffffffffff168673ffffffffffffffffffffffffffffffffffffffff161415801561086f575061086d8682610f1b565b155b156108b35780866040517fe237d9220000000000000000000000000000000000000000000000000000000081526004016108aa9291906133d0565b60405180910390fd5b6108c0868686868661122c565b505050505050565b60016108d4338361059a565b10610914576040517f08c379a000000000000000000000000000000000000000000000000000000000815260040161090b90613445565b60405180910390fd5b610956338260016040518060400160405280600281526020017f3078000000000000000000000000000000000000000000000000000000000000815250611324565b50565b6109616113bd565b610969611444565b565b60006109756114b6565b905060008160000160089054906101000a900460ff1615905060008260000160009054906101000a900467ffffffffffffffff1690506000808267ffffffffffffffff161480156109c35750825b9050600060018367ffffffffffffffff161480156109f8575060003073ffffffffffffffffffffffffffffffffffffffff163b145b905081158015610a06575080155b15610a3d576040517ff92ee8a900000000000000000000000000000000000000000000000000000000815260040160405180910390fd5b60018560000160006101000a81548167ffffffffffffffff021916908367ffffffffffffffff1602179055508315610a8d5760018560000160086101000a81548160ff0219169083151502179055505b610a96876114de565b610aae604051806020016040528060008152506114f2565b610ab6611506565b610abe611510565b856000806101000a81548173ffffffffffffffffffffffffffffffffffffffff021916908373ffffffffffffffffffffffffffffffffffffffff1602179055508315610b5a5760008560000160086101000a81548160ff0219169083151502179055507fc7f505b2f371ae2175ee4913f4499e1f2633a7b5936321eed1cdaeb6115181d26001604051610b5191906134be565b60405180910390a15b50505050505050565b60608151835114610baf57815183516040517f5b059991000000000000000000000000000000000000000000000000000000008152600401610ba69291906134d9565b60405180910390fd5b6000835167ffffffffffffffff811115610bcc57610bcb612bb8565b5b604051908082528060200260200182016040528015610bfa5781602001602082028036833780820191505090505b50905060005b8451811015610c6757610c37610c1f828761154490919063ffffffff16565b610c32838761155890919063ffffffff16565b61059a565b828281518110610c4a57610c49613502565b5b60200260200101818152505080610c6090613560565b9050610c00565b508091505092915050565b610c7a61156c565b610c8382611652565b610c8d828261165d565b5050565b6000610c9b61177c565b7f360894a13ba1a3210667c828492db98dca3e2076cc3735a920a3ca505d382bbc60001b905090565b60008060009054906101000a900473ffffffffffffffffffffffffffffffffffffffff16905090565b600080610cf8611803565b90508060000160009054906101000a900460ff1691505090565b610d1a6113bd565b610d24600061182b565b565b610d2e6113bd565b610d36611902565b565b600080610d43611974565b90508060000160009054906101000a900473ffffffffffffffffffffffffffffffffffffffff1691505090565b60606040518060400160405280600381526020017f5646520000000000000000000000000000000000000000000000000000000000815250905090565b610dbf610db8611224565b838361199c565b5050565b610dcb6113bd565b806000806101000a81548173ffffffffffffffffffffffffffffffffffffffff021916908373ffffffffffffffffffffffffffffffffffffffff16021790555050565b6040518060400160405280600581526020017f352e302e3000000000000000000000000000000000000000000000000000000081525081565b60008054906101000a900473ffffffffffffffffffffffffffffffffffffffff1673ffffffffffffffffffffffffffffffffffffffff163373ffffffffffffffffffffffffffffffffffffffff1614610ed5576040517f08c379a0000000000000000000000000000000000000000000000000000000008152600401610ecc906135f4565b60405180910390fd5b610f17818360016040518060400160405280600281526020017f3078000000000000000000000000000000000000000000000000000000000000815250611324565b5050565b600080610f266110eb565b90508060010160008573ffffffffffffffffffffffffffffffffffffffff1673ffffffffffffffffffffffffffffffffffffffff16815260200190815260200160002060008473ffffffffffffffffffffffffffffffffffffffff1673ffffffffffffffffffffffffffffffffffffffff16815260200190815260200160002060009054906101000a900460ff1691505092915050565b6000610fc7611224565b90508073ffffffffffffffffffffffffffffffffffffffff168673ffffffffffffffffffffffffffffffffffffffff161415801561100c575061100a8682610f1b565b155b156110505780866040517fe237d9220000000000000000000000000000000000000000000000000000000081526004016110479291906133d0565b60405180910390fd5b61105d8686868686611b1b565b505050505050565b61106d6113bd565b600073ffffffffffffffffffffffffffffffffffffffff168173ffffffffffffffffffffffffffffffffffffffff16036110df5760006040517f1e4fbdf70000000000000000000000000000000000000000000000000000000081526004016110d69190613179565b60405180910390fd5b6110e88161182b565b50565b60007f88be536d5240c274a3b1d3a1be54482fd9caa294f08c62a7cde569f49a3c4500905090565b600073ffffffffffffffffffffffffffffffffffffffff168373ffffffffffffffffffffffffffffffffffffffff16036111855760006040517f01a8351400000000000000000000000000000000000000000000000000000000815260040161117c9190613179565b60405180910390fd5b6000806111928484611c26565b915091506111b3856000848460405180602001604052806000815250611c56565b5050505050565b60007f01ffc9a7000000000000000000000000000000000000000000000000000000007bffffffffffffffffffffffffffffffffffffffffffffffffffffffff1916827bffffffffffffffffffffffffffffffffffffffffffffffffffffffff1916149050919050565b600033905090565b600073ffffffffffffffffffffffffffffffffffffffff168473ffffffffffffffffffffffffffffffffffffffff160361129e5760006040517f57f447ce0000000000000000000000000000000000000000000000000000000081526004016112959190613179565b60405180910390fd5b600073ffffffffffffffffffffffffffffffffffffffff168573ffffffffffffffffffffffffffffffffffffffff16036113105760006040517f01a835140000000000000000000000000000000000000000000000000000000081526004016113079190613179565b60405180910390fd5b61131d8585858585611c56565b5050505050565b600073ffffffffffffffffffffffffffffffffffffffff168473ffffffffffffffffffffffffffffffffffffffff16036113965760006040517f57f447ce00000000000000000000000000000000000000000000000000000000815260040161138d9190613179565b60405180910390fd5b6000806113a38585611c26565b915091506113b5600087848487611c56565b505050505050565b6113c5611224565b73ffffffffffffffffffffffffffffffffffffffff166113e3610d38565b73ffffffffffffffffffffffffffffffffffffffff161461144257611406611224565b6040517f118cdaa70000000000000000000000000000000000000000000000000000000081526004016114399190613179565b60405180910390fd5b565b61144c611d08565b6000611456611803565b905060008160000160006101000a81548160ff0219169083151502179055507f5db9ee0a495bf2e6ff9c91a7834c1ba4fdd244a5e8aa4e537bd38aeae4b073aa61149e611224565b6040516114ab9190613179565b60405180910390a150565b60007ff0c57e16840df040f15088dc2f81fe391c3923bec73e23a9662efc9c229c6a00905090565b6114e6611d48565b6114ef81611d88565b50565b6114fa611d48565b61150381611e0e565b50565b61150e611d48565b565b611518611d48565b6000611522611803565b905060008160000160006101000a81548160ff02191690831515021790555050565b600060208202602084010151905092915050565b600060208202602084010151905092915050565b7f000000000000000000000000000000000000000000000000000000000000000073ffffffffffffffffffffffffffffffffffffffff163073ffffffffffffffffffffffffffffffffffffffff16148061161957507f000000000000000000000000000000000000000000000000000000000000000073ffffffffffffffffffffffffffffffffffffffff16611600611e22565b73ffffffffffffffffffffffffffffffffffffffff1614155b15611650576040517fe07c8dba00000000000000000000000000000000000000000000000000000000815260040160405180910390fd5b565b61165a6113bd565b50565b8173ffffffffffffffffffffffffffffffffffffffff166352d1902d6040518163ffffffff1660e01b8152600401602060405180830381865afa9250505080156116c557506040513d601f19601f820116820180604052508101906116c29190613640565b60015b61170657816040517f4c9c8ce30000000000000000000000000000000000000000000000000000000081526004016116fd9190613179565b60405180910390fd5b7f360894a13ba1a3210667c828492db98dca3e2076cc3735a920a3ca505d382bbc60001b811461176d57806040517faa1d49a4000000000000000000000000000000000000000000000000000000008152600401611764919061314f565b60405180910390fd5b6117778383611e79565b505050565b7f000000000000000000000000000000000000000000000000000000000000000073ffffffffffffffffffffffffffffffffffffffff163073ffffffffffffffffffffffffffffffffffffffff1614611801576040517fe07c8dba00000000000000000000000000000000000000000000000000000000815260040160405180910390fd5b565b60007fcd5ed15c6e187e77e9aee88184c21f4f2182ab5827cb3b7e07fbedcd63f03300905090565b6000611835611974565b905060008160000160009054906101000a900473ffffffffffffffffffffffffffffffffffffffff169050828260000160006101000a81548173ffffffffffffffffffffffffffffffffffffffff021916908373ffffffffffffffffffffffffffffffffffffffff1602179055508273ffffffffffffffffffffffffffffffffffffffff168173ffffffffffffffffffffffffffffffffffffffff167f8be0079c531659141344cd1fd0a4f28419497f9722a3daafe3b4186f6b6457e060405160405180910390a3505050565b61190a611eec565b6000611914611803565b905060018160000160006101000a81548160ff0219169083151502179055507f62e78cea01bee320cd4e420270b5ea74000d11b0c9f74754ebdbfc544b05a25861195c611224565b6040516119699190613179565b60405180910390a150565b60007f9016d09d72d40fdae2fd8ceac6b6234c7706214fd39c1cd1e609a0528c199300905090565b60006119a66110eb565b9050600073ffffffffffffffffffffffffffffffffffffffff168373ffffffffffffffffffffffffffffffffffffffff1603611a1a5760006040517fced3e100000000000000000000000000000000000000000000000000000000008152600401611a119190613179565b60405180910390fd5b818160010160008673ffffffffffffffffffffffffffffffffffffffff1673ffffffffffffffffffffffffffffffffffffffff16815260200190815260200160002060008573ffffffffffffffffffffffffffffffffffffffff1673ffffffffffffffffffffffffffffffffffffffff16815260200190815260200160002060006101000a81548160ff0219169083151502179055508273ffffffffffffffffffffffffffffffffffffffff168473ffffffffffffffffffffffffffffffffffffffff167f17307eab39ab6107e8899845ad3d59bd9653f200f220920489ca2b5937696c3184604051611b0d9190612ae6565b60405180910390a350505050565b600073ffffffffffffffffffffffffffffffffffffffff168473ffffffffffffffffffffffffffffffffffffffff1603611b8d5760006040517f57f447ce000000000000000000000000000000000000000000000000000000008152600401611b849190613179565b60405180910390fd5b600073ffffffffffffffffffffffffffffffffffffffff168573ffffffffffffffffffffffffffffffffffffffff1603611bff5760006040517f01a83514000000000000000000000000000000000000000000000000000000008152600401611bf69190613179565b60405180910390fd5b600080611c0c8585611c26565b91509150611c1d8787848487611c56565b50505050505050565b60608060405191506001825283602083015260408201905060018152826020820152604081016040529250929050565b611c6285858585611f2d565b600073ffffffffffffffffffffffffffffffffffffffff168473ffffffffffffffffffffffffffffffffffffffff1614611d01576000611ca0611224565b90506001845103611cf0576000611cc160008661155890919063ffffffff16565b90506000611cd960008661155890919063ffffffff16565b9050611ce98389898585896122f1565b5050611cff565b611cfe8187878787876124a5565b5b505b5050505050565b611d10610ced565b611d46576040517f8dfc202b00000000000000000000000000000000000000000000000000000000815260040160405180910390fd5b565b611d50612659565b611d86576040517fd7e6bcf800000000000000000000000000000000000000000000000000000000815260040160405180910390fd5b565b611d90611d48565b600073ffffffffffffffffffffffffffffffffffffffff168173ffffffffffffffffffffffffffffffffffffffff1603611e025760006040517f1e4fbdf7000000000000000000000000000000000000000000000000000000008152600401611df99190613179565b60405180910390fd5b611e0b8161182b565b50565b611e16611d48565b611e1f81612679565b50565b6000611e507f360894a13ba1a3210667c828492db98dca3e2076cc3735a920a3ca505d382bbc60001b61269b565b60000160009054906101000a900473ffffffffffffffffffffffffffffffffffffffff16905090565b611e82826126a5565b8173ffffffffffffffffffffffffffffffffffffffff167fbc7cd75a20ee27fd9adebab32041f755214dbc6bffa90cc0225b39da2e5c2d3b60405160405180910390a2600081511115611edf57611ed98282612772565b50611ee8565b611ee76127f6565b5b5050565b611ef4610ced565b15611f2b576040517fd93c066500000000000000000000000000000000000000000000000000000000815260040160405180910390fd5b565b6000611f376110eb565b90508151835114611f8357825182516040517f5b059991000000000000000000000000000000000000000000000000000000008152600401611f7a9291906134d9565b60405180910390fd5b6000611f8d611224565b905060005b84518110156121ab576000611fb0828761155890919063ffffffff16565b90506000611fc7838761155890919063ffffffff16565b9050600073ffffffffffffffffffffffffffffffffffffffff168973ffffffffffffffffffffffffffffffffffffffff16146120fa57600085600001600084815260200190815260200160002060008b73ffffffffffffffffffffffffffffffffffffffff1673ffffffffffffffffffffffffffffffffffffffff1681526020019081526020016000205490508181101561209f57898183856040517f03dee4c5000000000000000000000000000000000000000000000000000000008152600401612096949392919061366d565b60405180910390fd5b81810386600001600085815260200190815260200160002060008c73ffffffffffffffffffffffffffffffffffffffff1673ffffffffffffffffffffffffffffffffffffffff16815260200190815260200160002081905550505b600073ffffffffffffffffffffffffffffffffffffffff168873ffffffffffffffffffffffffffffffffffffffff1614612198578085600001600084815260200190815260200160002060008a73ffffffffffffffffffffffffffffffffffffffff1673ffffffffffffffffffffffffffffffffffffffff168152602001908152602001600020600082825461219091906136b2565b925050819055505b5050806121a490613560565b9050611f92565b50600184510361226a5760006121cb60008661155890919063ffffffff16565b905060006121e360008661155890919063ffffffff16565b90508673ffffffffffffffffffffffffffffffffffffffff168873ffffffffffffffffffffffffffffffffffffffff168473ffffffffffffffffffffffffffffffffffffffff167fc3d58168c5ae7397731d063d5bbf3d657854427343f4c083240f7aacaa2d0f62858560405161225b9291906134d9565b60405180910390a450506122e9565b8473ffffffffffffffffffffffffffffffffffffffff168673ffffffffffffffffffffffffffffffffffffffff168273ffffffffffffffffffffffffffffffffffffffff167f4a39dc06d4c0dbc64b70af90fd698a233a518aa5d07e595d983b8c0526c8f7fb87876040516122e09291906136e6565b60405180910390a45b505050505050565b60008473ffffffffffffffffffffffffffffffffffffffff163b111561249d578373ffffffffffffffffffffffffffffffffffffffff1663f23a6e6187878686866040518663ffffffff1660e01b8152600401612352959493929190613772565b6020604051808303816000875af192505050801561238e57506040513d601f19601f8201168201806040525081019061238b91906137e1565b60015b612412573d80600081146123be576040519150601f19603f3d011682016040523d82523d6000602084013e6123c3565b606091505b50600081510361240a57846040517f57f447ce0000000000000000000000000000000000000000000000000000000081526004016124019190613179565b60405180910390fd5b805181602001fd5b63f23a6e6160e01b7bffffffffffffffffffffffffffffffffffffffffffffffffffffffff1916817bffffffffffffffffffffffffffffffffffffffffffffffffffffffff19161461249b57846040517f57f447ce0000000000000000000000000000000000000000000000000000000081526004016124929190613179565b60405180910390fd5b505b505050505050565b60008473ffffffffffffffffffffffffffffffffffffffff163b1115612651578373ffffffffffffffffffffffffffffffffffffffff1663bc197c8187878686866040518663ffffffff1660e01b815260040161250695949392919061380e565b6020604051808303816000875af192505050801561254257506040513d601f19601f8201168201806040525081019061253f91906137e1565b60015b6125c6573d8060008114612572576040519150601f19603f3d011682016040523d82523d6000602084013e612577565b606091505b5060008151036125be57846040517f57f447ce0000000000000000000000000000000000000000000000000000000081526004016125b59190613179565b60405180910390fd5b805181602001fd5b63bc197c8160e01b7bffffffffffffffffffffffffffffffffffffffffffffffffffffffff1916817bffffffffffffffffffffffffffffffffffffffffffffffffffffffff19161461264f57846040517f57f447ce0000000000000000000000000000000000000000000000000000000081526004016126469190613179565b60405180910390fd5b505b505050505050565b60006126636114b6565b60000160089054906101000a900460ff16905090565b60006126836110eb565b9050818160020190816126969190613a18565b505050565b6000819050919050565b60008173ffffffffffffffffffffffffffffffffffffffff163b0361270157806040517f4c9c8ce30000000000000000000000000000000000000000000000000000000081526004016126f89190613179565b60405180910390fd5b8061272e7f360894a13ba1a3210667c828492db98dca3e2076cc3735a920a3ca505d382bbc60001b61269b565b60000160006101000a81548173ffffffffffffffffffffffffffffffffffffffff021916908373ffffffffffffffffffffffffffffffffffffffff16021790555050565b60606000808473ffffffffffffffffffffffffffffffffffffffff168460405161279c9190613b26565b600060405180830381855af49150503d80600081146127d7576040519150601f19603f3d011682016040523d82523d6000602084013e6127dc565b606091505b50915091506127ec858383612833565b9250505092915050565b6000341115612831576040517fb398979f00000000000000000000000000000000000000000000000000000000815260040160405180910390fd5b565b60608261284857612843826128c2565b6128ba565b60008251148015612870575060008473ffffffffffffffffffffffffffffffffffffffff163b145b156128b257836040517f9996b3150000000000000000000000000000000000000000000000000000000081526004016128a99190613179565b60405180910390fd5b8190506128bb565b5b9392505050565b6000815111156128d55780518082602001fd5b6040517f1425ea4200000000000000000000000000000000000000000000000000000000815260040160405180910390fd5b6000604051905090565b600080fd5b600080fd5b600073ffffffffffffffffffffffffffffffffffffffff82169050919050565b60006129468261291b565b9050919050565b6129568161293b565b811461296157600080fd5b50565b6000813590506129738161294d565b92915050565b6000819050919050565b61298c81612979565b811461299757600080fd5b50565b6000813590506129a981612983565b92915050565b600080604083850312156129c6576129c5612911565b5b60006129d485828601612964565b92505060206129e58582860161299a565b9150509250929050565b6129f881612979565b82525050565b6000602082019050612a1360008301846129ef565b92915050565b600060208284031215612a2f57612a2e612911565b5b6000612a3d8482850161299a565b91505092915050565b60007fffffffff0000000000000000000000000000000000000000000000000000000082169050919050565b612a7b81612a46565b8114612a8657600080fd5b50565b600081359050612a9881612a72565b92915050565b600060208284031215612ab457612ab3612911565b5b6000612ac284828501612a89565b91505092915050565b60008115159050919050565b612ae081612acb565b82525050565b6000602082019050612afb6000830184612ad7565b92915050565b600081519050919050565b600082825260208201905092915050565b60005b83811015612b3b578082015181840152602081019050612b20565b60008484015250505050565b6000601f19601f8301169050919050565b6000612b6382612b01565b612b6d8185612b0c565b9350612b7d818560208601612b1d565b612b8681612b47565b840191505092915050565b60006020820190508181036000830152612bab8184612b58565b905092915050565b600080fd5b7f4e487b7100000000000000000000000000000000000000000000000000000000600052604160045260246000fd5b612bf082612b47565b810181811067ffffffffffffffff82111715612c0f57612c0e612bb8565b5b80604052505050565b6000612c22612907565b9050612c2e8282612be7565b919050565b600067ffffffffffffffff821115612c4e57612c4d612bb8565b5b602082029050602081019050919050565b600080fd5b6000612c77612c7284612c33565b612c18565b90508083825260208201905060208402830185811115612c9a57612c99612c5f565b5b835b81811015612cc35780612caf888261299a565b845260208401935050602081019050612c9c565b5050509392505050565b600082601f830112612ce257612ce1612bb3565b5b8135612cf2848260208601612c64565b91505092915050565b600080fd5b600067ffffffffffffffff821115612d1b57612d1a612bb8565b5b612d2482612b47565b9050602081019050919050565b82818337600083830152505050565b6000612d53612d4e84612d00565b612c18565b905082815260208101848484011115612d6f57612d6e612cfb565b5b612d7a848285612d31565b509392505050565b600082601f830112612d9757612d96612bb3565b5b8135612da7848260208601612d40565b91505092915050565b600080600080600060a08688031215612dcc57612dcb612911565b5b6000612dda88828901612964565b9550506020612deb88828901612964565b945050604086013567ffffffffffffffff811115612e0c57612e0b612916565b5b612e1888828901612ccd565b935050606086013567ffffffffffffffff811115612e3957612e38612916565b5b612e4588828901612ccd565b925050608086013567ffffffffffffffff811115612e6657612e65612916565b5b612e7288828901612d82565b9150509295509295909350565b60008060408385031215612e9657612e95612911565b5b6000612ea485828601612964565b9250506020612eb585828601612964565b9150509250929050565b600067ffffffffffffffff821115612eda57612ed9612bb8565b5b602082029050602081019050919050565b6000612efe612ef984612ebf565b612c18565b90508083825260208201905060208402830185811115612f2157612f20612c5f565b5b835b81811015612f4a5780612f368882612964565b845260208401935050602081019050612f23565b5050509392505050565b600082601f830112612f6957612f68612bb3565b5b8135612f79848260208601612eeb565b91505092915050565b60008060408385031215612f9957612f98612911565b5b600083013567ffffffffffffffff811115612fb757612fb6612916565b5b612fc385828601612f54565b925050602083013567ffffffffffffffff811115612fe457612fe3612916565b5b612ff085828601612ccd565b9150509250929050565b600081519050919050565b600082825260208201905092915050565b6000819050602082019050919050565b61302f81612979565b82525050565b60006130418383613026565b60208301905092915050565b6000602082019050919050565b600061306582612ffa565b61306f8185613005565b935061307a83613016565b8060005b838110156130ab5781516130928882613035565b975061309d8361304d565b92505060018101905061307e565b5085935050505092915050565b600060208201905081810360008301526130d2818461305a565b905092915050565b600080604083850312156130f1576130f0612911565b5b60006130ff85828601612964565b925050602083013567ffffffffffffffff8111156131205761311f612916565b5b61312c85828601612d82565b9150509250929050565b6000819050919050565b61314981613136565b82525050565b60006020820190506131646000830184613140565b92915050565b6131738161293b565b82525050565b600060208201905061318e600083018461316a565b92915050565b61319d81612acb565b81146131a857600080fd5b50565b6000813590506131ba81613194565b92915050565b600080604083850312156131d7576131d6612911565b5b60006131e585828601612964565b92505060206131f6858286016131ab565b9150509250929050565b60006020828403121561321657613215612911565b5b600061322484828501612964565b91505092915050565b6000806040838503121561324457613243612911565b5b60006132528582860161299a565b925050602061326385828601612964565b9150509250929050565b600080600080600060a0868803121561328957613288612911565b5b600061329788828901612964565b95505060206132a888828901612964565b94505060406132b98882890161299a565b93505060606132ca8882890161299a565b925050608086013567ffffffffffffffff8111156132eb576132ea612916565b5b6132f788828901612d82565b9150509295509295909350565b7f4e6f74206120666f6c6c6f776572000000000000000000000000000000000000600082015250565b600061333a600e83612b0c565b915061334582613304565b602082019050919050565b600060208201905081810360008301526133698161332d565b9050919050565b7f4e487b7100000000000000000000000000000000000000000000000000000000600052602260045260246000fd5b600060028204905060018216806133b757607f821691505b6020821081036133ca576133c9613370565b5b50919050565b60006040820190506133e5600083018561316a565b6133f2602083018461316a565b9392505050565b7f416c7265616479206120666f6c6c6f7765720000000000000000000000000000600082015250565b600061342f601283612b0c565b915061343a826133f9565b602082019050919050565b6000602082019050818103600083015261345e81613422565b9050919050565b6000819050919050565b600067ffffffffffffffff82169050919050565b6000819050919050565b60006134a86134a361349e84613465565b613483565b61346f565b9050919050565b6134b88161348d565b82525050565b60006020820190506134d360008301846134af565b92915050565b60006040820190506134ee60008301856129ef565b6134fb60208301846129ef565b9392505050565b7f4e487b7100000000000000000000000000000000000000000000000000000000600052603260045260246000fd5b7f4e487b7100000000000000000000000000000000000000000000000000000000600052601160045260246000fd5b600061356b82612979565b91507fffffffffffffffffffffffffffffffffffffffffffffffffffffffffffffffff820361359d5761359c613531565b5b600182019050919050565b7f4f6e6c79206d6f64657261746f727320616c6c6f776564000000000000000000600082015250565b60006135de601783612b0c565b91506135e9826135a8565b602082019050919050565b6000602082019050818103600083015261360d816135d1565b9050919050565b61361d81613136565b811461362857600080fd5b50565b60008151905061363a81613614565b92915050565b60006020828403121561365657613655612911565b5b60006136648482850161362b565b91505092915050565b6000608082019050613682600083018761316a565b61368f60208301866129ef565b61369c60408301856129ef565b6136a960608301846129ef565b95945050505050565b60006136bd82612979565b91506136c883612979565b92508282019050808211156136e0576136df613531565b5b92915050565b60006040820190508181036000830152613700818561305a565b90508181036020830152613714818461305a565b90509392505050565b600081519050919050565b600082825260208201905092915050565b60006137448261371d565b61374e8185613728565b935061375e818560208601612b1d565b61376781612b47565b840191505092915050565b600060a082019050613787600083018861316a565b613794602083018761316a565b6137a160408301866129ef565b6137ae60608301856129ef565b81810360808301526137c08184613739565b90509695505050505050565b6000815190506137db81612a72565b92915050565b6000602082840312156137f7576137f6612911565b5b6000613805848285016137cc565b91505092915050565b600060a082019050613823600083018861316a565b613830602083018761316a565b8181036040830152613842818661305a565b90508181036060830152613856818561305a565b9050818103608083015261386a8184613739565b90509695505050505050565b60008190508160005260206000209050919050565b60006020601f8301049050919050565b600082821b905092915050565b6000600883026138d87fffffffffffffffffffffffffffffffffffffffffffffffffffffffffffffffff8261389b565b6138e2868361389b565b95508019841693508086168417925050509392505050565b600061391561391061390b84612979565b613483565b612979565b9050919050565b6000819050919050565b61392f836138fa565b61394361393b8261391c565b8484546138a8565b825550505050565b600090565b61395861394b565b613963818484613926565b505050565b5b818110156139875761397c600082613950565b600181019050613969565b5050565b601f8211156139cc5761399d81613876565b6139a68461388b565b810160208510156139b5578190505b6139c96139c18561388b565b830182613968565b50505b505050565b600082821c905092915050565b60006139ef600019846008026139d1565b1980831691505092915050565b6000613a0883836139de565b9150826002028217905092915050565b613a2182612b01565b67ffffffffffffffff811115613a3a57613a39612bb8565b5b613a44825461339f565b613a4f82828561398b565b600060209050601f831160018114613a825760008415613a70578287015190505b613a7a85826139fc565b865550613ae2565b601f198416613a9086613876565b60005b82811015613ab857848901518255600182019150602085019450602081019050613a93565b86831015613ad55784890151613ad1601f8916826139de565b8355505b6001600288020188555050505b505050505050565b600081905092915050565b6000613b008261371d565b613b0a8185613aea565b9350613b1a818560208601612b1d565b80840191505092915050565b6000613b328284613af5565b91508190509291505056fea2646970667358221220625a39cacecab25ff4c0cf3f26c9e42e235c3b51541131e1154d4bd1aab153e164736f6c63430008140033",
  "linkReferences": {},
  "deployedLinkReferences": {}
}