{
  "_format": "hh-sol-artifact-1",
  "contractName": "MasterCollectionV2",
  "sourceName": "contracts/MasterCollectionV2.sol",
  "abi": [
    {
      "inputs": [
        {
          "internalType": "address",
          "name": "target",
          "type": "address"
        }
      ],
      "name": "AddressEmptyCode",
      "type": "error"
    },
    {
      "inputs": [
        {
          "internalType": "address",
          "name": "sender",
          "type": "address"
        },
        {
          "internalType": "uint256",
          "name": "balance",
          "type": "uint256"
        },
        {
          "internalType": "uint256",
          "name": "needed",
          "type": "uint256"
        },
        {
          "internalType": "uint256",
          "name": "tokenId",
          "type": "uint256"
        }
      ],
      "name": "ERC1155InsufficientBalance",
      "type": "error"
    },
    {
      "inputs": [
        {
          "internalType": "address",
          "name": "approver",
          "type": "address"
        }
      ],
      "name": "ERC1155InvalidApprover",
      "type": "error"
    },
    {
      "inputs": [
        {
          "internalType": "uint256",
          "name": "idsLength",
          "type": "uint256"
        },
        {
          "internalType": "uint256",
          "name": "valuesLength",
          "type": "uint256"
        }
      ],
      "name": "ERC1155InvalidArrayLength",
      "type": "error"
    },
    {
      "inputs": [
        {
          "internalType": "address",
          "name": "operator",
          "type": "address"
        }
      ],
      "name": "ERC1155InvalidOperator",
      "type": "error"
    },
    {
      "inputs": [
        {
          "internalType": "address",
          "name": "receiver",
          "type": "address"
        }
      ],
      "name": "ERC1155InvalidReceiver",
      "type": "error"
    },
    {
      "inputs": [
        {
          "internalType": "address",
          "name": "sender",
          "type": "address"
        }
      ],
      "name": "ERC1155InvalidSender",
      "type": "error"
    },
    {
      "inputs": [
        {
          "internalType": "address",
          "name": "operator",
          "type": "address"
        },
        {
          "internalType": "address",
          "name": "owner",
          "type": "address"
        }
      ],
      "name": "ERC1155MissingApprovalForAll",
      "type": "error"
    },
    {
      "inputs": [
        {
          "internalType": "address",
          "name": "implementation",
          "type": "address"
        }
      ],
      "name": "ERC1967InvalidImplementation",
      "type": "error"
    },
    {
      "inputs": [],
      "name": "ERC1967NonPayable",
      "type": "error"
    },
    {
      "inputs": [],
      "name": "FailedInnerCall",
      "type": "error"
    },
    {
      "inputs": [],
      "name": "InvalidInitialization",
      "type": "error"
    },
    {
      "inputs": [],
      "name": "NotInitializing",
      "type": "error"
    },
    {
      "inputs": [
        {
          "internalType": "address",
          "name": "owner",
          "type": "address"
        }
      ],
      "name": "OwnableInvalidOwner",
      "type": "error"
    },
    {
      "inputs": [
        {
          "internalType": "address",
          "name": "account",
          "type": "address"
        }
      ],
      "name": "OwnableUnauthorizedAccount",
      "type": "error"
    },
    {
      "inputs": [],
      "name": "UUPSUnauthorizedCallContext",
      "type": "error"
    },
    {
      "inputs": [
        {
          "internalType": "bytes32",
          "name": "slot",
          "type": "bytes32"
        }
      ],
      "name": "UUPSUnsupportedProxiableUUID",
      "type": "error"
    },
    {
      "anonymous": false,
      "inputs": [
        {
          "indexed": true,
          "internalType": "address",
          "name": "account",
          "type": "address"
        },
        {
          "indexed": true,
          "internalType": "address",
          "name": "operator",
          "type": "address"
        },
        {
          "indexed": false,
          "internalType": "bool",
          "name": "approved",
          "type": "bool"
        }
      ],
      "name": "ApprovalForAll",
      "type": "event"
    },
    {
      "anonymous": false,
      "inputs": [
        {
          "indexed": false,
          "internalType": "uint64",
          "name": "version",
          "type": "uint64"
        }
      ],
      "name": "Initialized",
      "type": "event"
    },
    {
      "anonymous": false,
      "inputs": [
        {
          "indexed": false,
          "internalType": "address",
          "name": "account",
          "type": "address"
        },
        {
          "indexed": false,
          "internalType": "uint256",
          "name": "id",
          "type": "uint256"
        },
        {
          "indexed": false,
          "internalType": "address",
          "name": "contractAddress",
          "type": "address"
        }
      ],
      "name": "NewVersoCollected",
      "type": "event"
    },
    {
      "anonymous": false,
      "inputs": [
        {
          "indexed": false,
          "internalType": "address",
          "name": "account",
          "type": "address"
        },
        {
          "indexed": false,
          "internalType": "uint256",
          "name": "id",
          "type": "uint256"
        },
        {
          "indexed": false,
          "internalType": "string",
          "name": "metadataURI",
          "type": "string"
        }
      ],
      "name": "NewVersoCreated",
      "type": "event"
    },
    {
      "anonymous": false,
      "inputs": [
        {
          "indexed": true,
          "internalType": "address",
          "name": "previousOwner",
          "type": "address"
        },
        {
          "indexed": true,
          "internalType": "address",
          "name": "newOwner",
          "type": "address"
        }
      ],
      "name": "OwnershipTransferred",
      "type": "event"
    },
    {
      "anonymous": false,
      "inputs": [
        {
          "indexed": true,
          "internalType": "address",
          "name": "operator",
          "type": "address"
        },
        {
          "indexed": true,
          "internalType": "address",
          "name": "from",
          "type": "address"
        },
        {
          "indexed": true,
          "internalType": "address",
          "name": "to",
          "type": "address"
        },
        {
          "indexed": false,
          "internalType": "uint256[]",
          "name": "ids",
          "type": "uint256[]"
        },
        {
          "indexed": false,
          "internalType": "uint256[]",
          "name": "values",
          "type": "uint256[]"
        }
      ],
      "name": "TransferBatch",
      "type": "event"
    },
    {
      "anonymous": false,
      "inputs": [
        {
          "indexed": true,
          "internalType": "address",
          "name": "operator",
          "type": "address"
        },
        {
          "indexed": true,
          "internalType": "address",
          "name": "from",
          "type": "address"
        },
        {
          "indexed": true,
          "internalType": "address",
          "name": "to",
          "type": "address"
        },
        {
          "indexed": false,
          "internalType": "uint256",
          "name": "id",
          "type": "uint256"
        },
        {
          "indexed": false,
          "internalType": "uint256",
          "name": "value",
          "type": "uint256"
        }
      ],
      "name": "TransferSingle",
      "type": "event"
    },
    {
      "anonymous": false,
      "inputs": [
        {
          "indexed": false,
          "internalType": "string",
          "name": "value",
          "type": "string"
        },
        {
          "indexed": true,
          "internalType": "uint256",
          "name": "id",
          "type": "uint256"
        }
      ],
      "name": "URI",
      "type": "event"
    },
    {
      "anonymous": false,
      "inputs": [
        {
          "indexed": true,
          "internalType": "address",
          "name": "implementation",
          "type": "address"
        }
      ],
      "name": "Upgraded",
      "type": "event"
    },
    {
      "anonymous": false,
      "inputs": [
        {
          "indexed": false,
          "internalType": "address",
          "name": "moderator",
          "type": "address"
        },
        {
          "indexed": false,
          "internalType": "address",
          "name": "collection",
          "type": "address"
        },
        {
          "indexed": false,
          "internalType": "uint256",
          "name": "tokenId",
          "type": "uint256"
        }
      ],
      "name": "VersoDeleted",
      "type": "event"
    },
    {
      "inputs": [],
      "name": "UPGRADE_INTERFACE_VERSION",
      "outputs": [
        {
          "internalType": "string",
          "name": "",
          "type": "string"
        }
      ],
      "stateMutability": "view",
      "type": "function"
    },
    {
      "inputs": [],
      "name": "VERSION",
      "outputs": [
        {
          "internalType": "uint256",
          "name": "",
          "type": "uint256"
        }
      ],
      "stateMutability": "view",
      "type": "function"
    },
    {
      "inputs": [
        {
          "internalType": "address",
          "name": "account",
          "type": "address"
        },
        {
          "internalType": "uint256",
          "name": "id",
          "type": "uint256"
        }
      ],
      "name": "balanceOf",
      "outputs": [
        {
          "internalType": "uint256",
          "name": "",
          "type": "uint256"
        }
      ],
      "stateMutability": "view",
      "type": "function"
    },
    {
      "inputs": [
        {
          "internalType": "address[]",
          "name": "accounts",
          "type": "address[]"
        },
        {
          "internalType": "uint256[]",
          "name": "ids",
          "type": "uint256[]"
        }
      ],
      "name": "balanceOfBatch",
      "outputs": [
        {
          "internalType": "uint256[]",
          "name": "",
          "type": "uint256[]"
        }
      ],
      "stateMutability": "view",
      "type": "function"
    },
    {
      "inputs": [
        {
          "internalType": "address",
          "name": "account",
          "type": "address"
        },
        {
          "internalType": "uint256",
          "name": "id",
          "type": "uint256"
        },
        {
          "internalType": "uint256",
          "name": "value",
          "type": "uint256"
        }
      ],
      "name": "burn",
      "outputs": [],
      "stateMutability": "nonpayable",
      "type": "function"
    },
    {
      "inputs": [
        {
          "internalType": "uint256",
          "name": "id",
          "type": "uint256"
        },
        {
          "internalType": "address",
          "name": "recipient",
          "type": "address"
        },
        {
          "internalType": "bytes",
          "name": "data",
          "type": "bytes"
        }
      ],
      "name": "collect",
      "outputs": [
        {
          "internalType": "string",
          "name": "",
          "type": "string"
        }
      ],
      "stateMutability": "payable",
      "type": "function"
    },
    {
      "inputs": [
        {
          "internalType": "bytes",
          "name": "data",
          "type": "bytes"
        },
        {
          "internalType": "string",
          "name": "url",
          "type": "string"
        },
        {
          "internalType": "address",
          "name": "recipient",
          "type": "address"
        },
        {
          "internalType": "bool",
          "name": "_isBonded",
          "type": "bool"
        }
      ],
      "name": "create",
      "outputs": [],
      "stateMutability": "payable",
      "type": "function"
    },
    {
      "inputs": [
        {
          "internalType": "uint256",
          "name": "",
          "type": "uint256"
        }
      ],
      "name": "creator",
      "outputs": [
        {
          "internalType": "address",
          "name": "",
          "type": "address"
        }
      ],
      "stateMutability": "view",
      "type": "function"
    },
    {
      "inputs": [
        {
          "internalType": "uint256",
          "name": "tokenId",
          "type": "uint256"
        }
      ],
      "name": "getBuyPrice",
      "outputs": [
        {
          "internalType": "uint256",
          "name": "",
          "type": "uint256"
        }
      ],
      "stateMutability": "view",
      "type": "function"
    },
    {
      "inputs": [
        {
          "internalType": "uint256",
          "name": "tokenId",
          "type": "uint256"
        }
      ],
      "name": "getBuyPriceAfterFee",
      "outputs": [
        {
          "internalType": "uint256",
          "name": "",
          "type": "uint256"
        }
      ],
      "stateMutability": "view",
      "type": "function"
    },
    {
      "inputs": [
        {
          "internalType": "uint256",
          "name": "supply",
          "type": "uint256"
        },
        {
          "internalType": "uint256",
          "name": "amount",
          "type": "uint256"
        }
      ],
      "name": "getPrice",
      "outputs": [
        {
          "internalType": "uint256",
          "name": "",
          "type": "uint256"
        }
      ],
      "stateMutability": "pure",
      "type": "function"
    },
    {
      "inputs": [
        {
          "internalType": "uint256",
          "name": "tokenId",
          "type": "uint256"
        }
      ],
      "name": "getSellPrice",
      "outputs": [
        {
          "internalType": "uint256",
          "name": "",
          "type": "uint256"
        }
      ],
      "stateMutability": "view",
      "type": "function"
    },
    {
      "inputs": [
        {
          "internalType": "uint256",
          "name": "tokenId",
          "type": "uint256"
        }
      ],
      "name": "getSellPriceAfterFee",
      "outputs": [
        {
          "internalType": "uint256",
          "name": "",
          "type": "uint256"
        }
      ],
      "stateMutability": "view",
      "type": "function"
    },
    {
      "inputs": [
        {
          "internalType": "address",
          "name": "newOwner",
          "type": "address"
        }
      ],
      "name": "initialize",
      "outputs": [],
      "stateMutability": "nonpayable",
      "type": "function"
    },
    {
      "inputs": [
        {
          "internalType": "address",
          "name": "account",
          "type": "address"
        },
        {
          "internalType": "address",
          "name": "operator",
          "type": "address"
        }
      ],
      "name": "isApprovedForAll",
      "outputs": [
        {
          "internalType": "bool",
          "name": "",
          "type": "bool"
        }
      ],
      "stateMutability": "view",
      "type": "function"
    },
    {
      "inputs": [
        {
          "internalType": "uint256",
          "name": "",
          "type": "uint256"
        }
      ],
      "name": "isBonded",
      "outputs": [
        {
          "internalType": "bool",
          "name": "",
          "type": "bool"
        }
      ],
      "stateMutability": "view",
      "type": "function"
    },
    {
      "inputs": [],
      "name": "name",
      "outputs": [
        {
          "internalType": "string",
          "name": "_contractName",
          "type": "string"
        }
      ],
      "stateMutability": "pure",
      "type": "function"
    },
    {
      "inputs": [],
      "name": "owner",
      "outputs": [
        {
          "internalType": "address",
          "name": "",
          "type": "address"
        }
      ],
      "stateMutability": "view",
      "type": "function"
    },
    {
      "inputs": [],
      "name": "proxiableUUID",
      "outputs": [
        {
          "internalType": "bytes32",
          "name": "",
          "type": "bytes32"
        }
      ],
      "stateMutability": "view",
      "type": "function"
    },
    {
      "inputs": [],
      "name": "renounceOwnership",
      "outputs": [],
      "stateMutability": "nonpayable",
      "type": "function"
    },
    {
      "inputs": [
        {
          "internalType": "address",
          "name": "from",
          "type": "address"
        },
        {
          "internalType": "address",
          "name": "to",
          "type": "address"
        },
        {
          "internalType": "uint256[]",
          "name": "ids",
          "type": "uint256[]"
        },
        {
          "internalType": "uint256[]",
          "name": "values",
          "type": "uint256[]"
        },
        {
          "internalType": "bytes",
          "name": "data",
          "type": "bytes"
        }
      ],
      "name": "safeBatchTransferFrom",
      "outputs": [],
      "stateMutability": "nonpayable",
      "type": "function"
    },
    {
      "inputs": [
        {
          "internalType": "address",
          "name": "from",
          "type": "address"
        },
        {
          "internalType": "address",
          "name": "to",
          "type": "address"
        },
        {
          "internalType": "uint256",
          "name": "id",
          "type": "uint256"
        },
        {
          "internalType": "uint256",
          "name": "value",
          "type": "uint256"
        },
        {
          "internalType": "bytes",
          "name": "data",
          "type": "bytes"
        }
      ],
      "name": "safeTransferFrom",
      "outputs": [],
      "stateMutability": "nonpayable",
      "type": "function"
    },
    {
      "inputs": [
        {
          "internalType": "address",
          "name": "operator",
          "type": "address"
        },
        {
          "internalType": "bool",
          "name": "approved",
          "type": "bool"
        }
      ],
      "name": "setApprovalForAll",
      "outputs": [],
      "stateMutability": "nonpayable",
      "type": "function"
    },
    {
      "inputs": [
        {
          "internalType": "uint256",
          "name": "_price",
          "type": "uint256"
        }
      ],
      "name": "setBasicPrice",
      "outputs": [],
      "stateMutability": "nonpayable",
      "type": "function"
    },
    {
      "inputs": [
        {
          "internalType": "uint256",
          "name": "_feePercent",
          "type": "uint256"
        }
      ],
      "name": "setCreatorFeePercent",
      "outputs": [],
      "stateMutability": "nonpayable",
      "type": "function"
    },
    {
      "inputs": [
        {
          "internalType": "address",
          "name": "_feeDestination",
          "type": "address"
        }
      ],
      "name": "setFeeDestination",
      "outputs": [],
      "stateMutability": "nonpayable",
      "type": "function"
    },
    {
      "inputs": [
        {
          "internalType": "uint256",
          "name": "_feePercent",
          "type": "uint256"
        }
      ],
      "name": "setProtocolFeePercent",
      "outputs": [],
      "stateMutability": "nonpayable",
      "type": "function"
    },
    {
      "inputs": [
        {
          "internalType": "bytes4",
          "name": "interfaceId",
          "type": "bytes4"
        }
      ],
      "name": "supportsInterface",
      "outputs": [
        {
          "internalType": "bool",
          "name": "",
          "type": "bool"
        }
      ],
      "stateMutability": "view",
      "type": "function"
    },
    {
      "inputs": [
        {
          "internalType": "uint256",
          "name": "",
          "type": "uint256"
        }
      ],
      "name": "tokenPermissions",
      "outputs": [
        {
          "internalType": "address",
          "name": "",
          "type": "address"
        }
      ],
      "stateMutability": "view",
      "type": "function"
    },
    {
      "inputs": [
        {
          "internalType": "uint256",
          "name": "",
          "type": "uint256"
        }
      ],
      "name": "tokenSupply",
      "outputs": [
        {
          "internalType": "uint256",
          "name": "",
          "type": "uint256"
        }
      ],
      "stateMutability": "view",
      "type": "function"
    },
    {
      "inputs": [
        {
          "internalType": "address",
          "name": "newOwner",
          "type": "address"
        }
      ],
      "name": "transferOwnership",
      "outputs": [],
      "stateMutability": "nonpayable",
      "type": "function"
    },
    {
      "inputs": [
        {
          "internalType": "address",
          "name": "newImplementation",
          "type": "address"
        },
        {
          "internalType": "bytes",
          "name": "data",
          "type": "bytes"
        }
      ],
      "name": "upgradeToAndCall",
      "outputs": [],
      "stateMutability": "payable",
      "type": "function"
    },
    {
      "inputs": [
        {
          "internalType": "uint256",
          "name": "tokenID",
          "type": "uint256"
        }
      ],
      "name": "uri",
      "outputs": [
        {
          "internalType": "string",
          "name": "",
          "type": "string"
        }
      ],
      "stateMutability": "view",
      "type": "function"
    }
  ],
  "bytecode": "0x60a06040523073ffffffffffffffffffffffffffffffffffffffff1660809073ffffffffffffffffffffffffffffffffffffffff1681525034801561004357600080fd5b50608051614cce61006d60003960008181611d3201528181611d870152611f420152614cce6000f3fe6080604052600436106101ed5760003560e01c80636b4ed02a1161010d578063b31985c2116100a0578063f242432a1161006f578063f242432a14610769578063f2fde38b14610792578063f5298aca146107bb578063fbe53234146107e4578063ffa1ad741461080d576101ed565b8063b31985c214610689578063ba730e53146106c6578063c4d66de814610703578063e985e9c51461072c576101ed565b8063a22cb465116100dc578063a22cb465146105e3578063a49834211461060c578063ad3cb1cc14610635578063b219693a14610660576101ed565b80636b4ed02a1461053b5780636ff6c4b814610578578063715018a6146105a15780638da5cb5b146105b8576101ed565b80632eb2c2d611610185578063510b515811610154578063510b51581461046657806352d1902d146104a35780635cf4ee91146104ce5780635cf7b6161461050b576101ed565b80632eb2c2d6146103a75780634a247e40146103d05780634e1273f41461040d5780634f1ef2861461044a576101ed565b806308f97dd8116101c157806308f97dd8146102d45780630e89341c146103115780630ebd56491461034e5780632693ebf21461036a576101ed565b8062fdd58e146101f257806301ffc9a71461022f57806306fdde031461026c57806308d4db1414610297575b600080fd5b3480156101fe57600080fd5b5061021960048036038101906102149190613585565b610838565b60405161022691906135d4565b60405180910390f35b34801561023b57600080fd5b5061025660048036038101906102519190613647565b6108a1565b604051610263919061368f565b60405180910390f35b34801561027857600080fd5b506102816108b3565b60405161028e919061373a565b60405180910390f35b3480156102a357600080fd5b506102be60048036038101906102b9919061375c565b6108f0565b6040516102cb91906135d4565b60405180910390f35b3480156102e057600080fd5b506102fb60048036038101906102f6919061375c565b610917565b60405161030891906135d4565b60405180910390f35b34801561031d57600080fd5b506103386004803603810190610333919061375c565b610990565b604051610345919061373a565b60405180910390f35b6103686004803603810190610363919061394a565b6109cb565b005b34801561037657600080fd5b50610391600480360381019061038c919061375c565b610b0f565b60405161039e91906135d4565b60405180910390f35b3480156103b357600080fd5b506103ce60048036038101906103c99190613ab1565b610b27565b005b3480156103dc57600080fd5b506103f760048036038101906103f2919061375c565b610bcf565b604051610404919061368f565b60405180910390f35b34801561041957600080fd5b50610434600480360381019061042f9190613c43565b610bef565b6040516104419190613d79565b60405180910390f35b610464600480360381019061045f9190613d9b565b610cfe565b005b34801561047257600080fd5b5061048d6004803603810190610488919061375c565b610d1d565b60405161049a9190613e06565b60405180910390f35b3480156104af57600080fd5b506104b8610d50565b6040516104c59190613e3a565b60405180910390f35b3480156104da57600080fd5b506104f560048036038101906104f09190613e55565b610d83565b60405161050291906135d4565b60405180910390f35b61052560048036038101906105209190613e95565b610eb9565b604051610532919061373a565b60405180910390f35b34801561054757600080fd5b50610562600480360381019061055d919061375c565b610fbf565b60405161056f91906135d4565b60405180910390f35b34801561058457600080fd5b5061059f600480360381019061059a919061375c565b611038565b005b3480156105ad57600080fd5b506105b661104a565b005b3480156105c457600080fd5b506105cd61105e565b6040516105da9190613e06565b60405180910390f35b3480156105ef57600080fd5b5061060a60048036038101906106059190613f04565b611096565b005b34801561061857600080fd5b50610633600480360381019061062e919061375c565b6110ac565b005b34801561064157600080fd5b5061064a6110be565b604051610657919061373a565b60405180910390f35b34801561066c57600080fd5b506106876004803603810190610682919061375c565b6110f7565b005b34801561069557600080fd5b506106b060048036038101906106ab919061375c565b611109565b6040516106bd9190613e06565b60405180910390f35b3480156106d257600080fd5b506106ed60048036038101906106e8919061375c565b61113c565b6040516106fa91906135d4565b60405180910390f35b34801561070f57600080fd5b5061072a60048036038101906107259190613f44565b61116f565b005b34801561073857600080fd5b50610753600480360381019061074e9190613f71565b61131e565b604051610760919061368f565b60405180910390f35b34801561077557600080fd5b50610790600480360381019061078b9190613fb1565b6113c0565b005b34801561079e57600080fd5b506107b960048036038101906107b49190613f44565b611468565b005b3480156107c757600080fd5b506107e260048036038101906107dd9190614048565b6114ee565b005b3480156107f057600080fd5b5061080b60048036038101906108069190613f44565b61156b565b005b34801561081957600080fd5b506108226115b7565b60405161082f91906135d4565b60405180910390f35b6000806108436115bc565b905080600001600084815260200190815260200160002060008573ffffffffffffffffffffffffffffffffffffffff1673ffffffffffffffffffffffffffffffffffffffff1681526020019081526020016000205491505092915050565b60006108ac826115e4565b9050919050565b60606040518060400160405280600981526020017f766572736f732076320000000000000000000000000000000000000000000000815250905090565b600061091060066000848152602001908152602001600020546001610d83565b9050919050565b6000806109238361113c565b90506000670de0b6b3a76400006002548361093e91906140ca565b610948919061413b565b90506000670de0b6b3a76400006003548461096391906140ca565b61096d919061413b565b905080828461097c919061416c565b610986919061416c565b9350505050919050565b6060600560008381526020019081526020016000206040516020016109b591906142a3565b6040516020818303038152906040529050919050565b6000808154809291906109dd906142ba565b91905055506000805490506109f583826001896116c6565b610a438186868080601f016020809104026020016040519081016040528093929190818152602001838380828437600081840152601f19601f8201169050808301925050505050505061175f565b50336008600083815260200190815260200160002060006101000a81548173ffffffffffffffffffffffffffffffffffffffff021916908373ffffffffffffffffffffffffffffffffffffffff160217905550816009600083815260200190815260200160002060006101000a81548160ff021916908315150217905550610aca81611888565b7f11735e3d32cc7fd5948b57908c9899255e84fa5551a1dae523725d7717b8246733828787604051610aff949392919061432f565b60405180910390a1505050505050565b60066020528060005260406000206000915090505481565b6000610b31611c08565b90508073ffffffffffffffffffffffffffffffffffffffff168673ffffffffffffffffffffffffffffffffffffffff1614158015610b765750610b74868261131e565b155b15610bba5780866040517fe237d922000000000000000000000000000000000000000000000000000000008152600401610bb192919061436f565b60405180910390fd5b610bc78686868686611c10565b505050505050565b60096020528060005260406000206000915054906101000a900460ff1681565b60608151835114610c3b57815183516040517f5b059991000000000000000000000000000000000000000000000000000000008152600401610c32929190614398565b60405180910390fd5b6000835167ffffffffffffffff811115610c5857610c57613793565b5b604051908082528060200260200182016040528015610c865781602001602082028036833780820191505090505b50905060005b8451811015610cf357610cc3610cab8287611d0890919063ffffffff16565b610cbe8387611d1c90919063ffffffff16565b610838565b828281518110610cd657610cd56143c1565b5b60200260200101818152505080610cec906142ba565b9050610c8c565b508091505092915050565b610d06611d30565b610d0f82611e16565b610d198282611e21565b5050565b60086020528060005260406000206000915054906101000a900473ffffffffffffffffffffffffffffffffffffffff1681565b6000610d5a611f40565b7f360894a13ba1a3210667c828492db98dca3e2076cc3735a920a3ca505d382bbc60001b905090565b60008060008414610de557600660018086610d9e919061416c565b6002610daa91906140ca565b610db491906143f0565b85600187610dc2919061416c565b610dcc91906140ca565b610dd691906140ca565b610de0919061413b565b610de8565b60005b905060008085148015610dfb5750600184145b610e78576006600185600188610e11919061416c565b610e1b91906143f0565b6002610e2791906140ca565b610e3191906143f0565b8587610e3d91906143f0565b86600189610e4b919061416c565b610e5591906143f0565b610e5f91906140ca565b610e6991906140ca565b610e73919061413b565b610e7b565b60005b905060008282610e8b919061416c565b9050618ca0670de0b6b3a764000082610ea491906140ca565b610eae919061413b565b935050505092915050565b6060610ec484611888565b610ed133856001856116c6565b610edf3384866001866113c0565b7fd42024014012ca4208f79f99174d19a2f843b194a051978e10b3acf429c96bdc338585604051610f1293929190614424565b60405180910390a1600560008581526020019081526020016000208054610f38906141cf565b80601f0160208091040260200160405190810160405280929190818152602001828054610f64906141cf565b8015610fb15780601f10610f8657610100808354040283529160200191610fb1565b820191906000526020600020905b815481529060010190602001808311610f9457829003601f168201915b505050505090509392505050565b600080610fcb836108f0565b90506000670de0b6b3a764000060025483610fe691906140ca565b610ff0919061413b565b90506000670de0b6b3a76400006003548461100b91906140ca565b611015919061413b565b905080828461102491906143f0565b61102e91906143f0565b9350505050919050565b611040611fc7565b8060038190555050565b611052611fc7565b61105c600061204e565b565b600080611069612125565b90508060000160009054906101000a900473ffffffffffffffffffffffffffffffffffffffff1691505090565b6110a86110a1611c08565b838361214d565b5050565b6110b4611fc7565b8060028190555050565b6040518060400160405280600581526020017f352e302e3000000000000000000000000000000000000000000000000000000081525081565b6110ff611fc7565b8060048190555050565b60076020528060005260406000206000915054906101000a900473ffffffffffffffffffffffffffffffffffffffff1681565b600061116860016006600085815260200190815260200160002054611161919061416c565b6001610d83565b9050919050565b60006111796122cc565b905060008160000160089054906101000a900460ff1615905060008260000160009054906101000a900467ffffffffffffffff1690506000808267ffffffffffffffff161480156111c75750825b9050600060018367ffffffffffffffff161480156111fc575060003073ffffffffffffffffffffffffffffffffffffffff163b145b90508115801561120a575080155b15611241576040517ff92ee8a900000000000000000000000000000000000000000000000000000000815260040160405180910390fd5b60018560000160006101000a81548167ffffffffffffffff021916908367ffffffffffffffff16021790555083156112915760018560000160086101000a81548160ff0219169083151502179055505b61129a866122f4565b6112b260405180602001604052806000815250612308565b6112ba61231c565b83156113165760008560000160086101000a81548160ff0219169083151502179055507fc7f505b2f371ae2175ee4913f4499e1f2633a7b5936321eed1cdaeb6115181d2600160405161130d91906144b4565b60405180910390a15b505050505050565b6000806113296115bc565b90508060010160008573ffffffffffffffffffffffffffffffffffffffff1673ffffffffffffffffffffffffffffffffffffffff16815260200190815260200160002060008473ffffffffffffffffffffffffffffffffffffffff1673ffffffffffffffffffffffffffffffffffffffff16815260200190815260200160002060009054906101000a900460ff1691505092915050565b60006113ca611c08565b90508073ffffffffffffffffffffffffffffffffffffffff168673ffffffffffffffffffffffffffffffffffffffff161415801561140f575061140d868261131e565b155b156114535780866040517fe237d92200000000000000000000000000000000000000000000000000000000815260040161144a92919061436f565b60405180910390fd5b6114608686868686612326565b505050505050565b611470611fc7565b600073ffffffffffffffffffffffffffffffffffffffff168173ffffffffffffffffffffffffffffffffffffffff16036114e25760006040517f1e4fbdf70000000000000000000000000000000000000000000000000000000081526004016114d99190613e06565b60405180910390fd5b6114eb8161204e565b50565b6009600083815260200190815260200160002060009054906101000a900460ff16801561152e575060016006600084815260200190815260200160002054115b156115415761153c82612431565b61155b565b600060066000848152602001908152602001600020819055505b61156683838361276c565b505050565b611573611fc7565b80600160006101000a81548173ffffffffffffffffffffffffffffffffffffffff021916908373ffffffffffffffffffffffffffffffffffffffff16021790555050565b600281565b60007f88be536d5240c274a3b1d3a1be54482fd9caa294f08c62a7cde569f49a3c4500905090565b60007fd9b67a26000000000000000000000000000000000000000000000000000000007bffffffffffffffffffffffffffffffffffffffffffffffffffffffff1916827bffffffffffffffffffffffffffffffffffffffffffffffffffffffff191614806116af57507f0e89341c000000000000000000000000000000000000000000000000000000007bffffffffffffffffffffffffffffffffffffffffffffffffffffffff1916827bffffffffffffffffffffffffffffffffffffffffffffffffffffffff1916145b806116bf57506116be82612813565b5b9050919050565b600073ffffffffffffffffffffffffffffffffffffffff168473ffffffffffffffffffffffffffffffffffffffff16036117385760006040517f57f447ce00000000000000000000000000000000000000000000000000000000815260040161172f9190613e06565b60405180910390fd5b600080611745858561287d565b915091506117576000878484876128ad565b505050505050565b60606000600560008581526020019081526020016000208054611781906141cf565b9050146117c3576040517f08c379a00000000000000000000000000000000000000000000000000000000081526004016117ba9061451b565b60405180910390fd5b816005600085815260200190815260200160002090816117e391906146c8565b50600560008481526020019081526020016000208054611802906141cf565b80601f016020809104026020016040519081016040528092919081815260200182805461182e906141cf565b801561187b5780601f106118505761010080835404028352916020019161187b565b820191906000526020600020905b81548152906001019060200180831161185e57829003601f168201915b5050505050905092915050565b600060066000838152602001908152602001600020549050600081118061190d57503373ffffffffffffffffffffffffffffffffffffffff166008600084815260200190815260200160002060009054906101000a900473ffffffffffffffffffffffffffffffffffffffff1673ffffffffffffffffffffffffffffffffffffffff16145b61194c576040517f08c379a00000000000000000000000000000000000000000000000000000000081526004016119439061480c565b60405180910390fd5b60006009600084815260200190815260200160002060009054906101000a900460ff1661197b57600454611987565b611986826001610d83565b5b90506000670de0b6b3a7640000600254836119a291906140ca565b6119ac919061413b565b905060006009600086815260200190815260200160002060009054906101000a900460ff166119e857816004546119e3919061416c565b611a0a565b670de0b6b3a7640000600354846119ff91906140ca565b611a09919061413b565b5b9050808284611a1991906143f0565b611a2391906143f0565b341015611a65576040517f08c379a0000000000000000000000000000000000000000000000000000000008152600401611a5c90614878565b60405180910390fd5b600184611a7291906143f0565b60066000878152602001908152602001600020819055506000600160009054906101000a900473ffffffffffffffffffffffffffffffffffffffff1673ffffffffffffffffffffffffffffffffffffffff1683604051611ad1906148c9565b60006040518083038185875af1925050503d8060008114611b0e576040519150601f19603f3d011682016040523d82523d6000602084013e611b13565b606091505b5050905060006008600088815260200190815260200160002060009054906101000a900473ffffffffffffffffffffffffffffffffffffffff1673ffffffffffffffffffffffffffffffffffffffff1683604051611b70906148c9565b60006040518083038185875af1925050503d8060008114611bad576040519150601f19603f3d011682016040523d82523d6000602084013e611bb2565b606091505b50509050818015611bc05750805b611bff576040517f08c379a0000000000000000000000000000000000000000000000000000000008152600401611bf69061492a565b60405180910390fd5b50505050505050565b600033905090565b600073ffffffffffffffffffffffffffffffffffffffff168473ffffffffffffffffffffffffffffffffffffffff1603611c825760006040517f57f447ce000000000000000000000000000000000000000000000000000000008152600401611c799190613e06565b60405180910390fd5b600073ffffffffffffffffffffffffffffffffffffffff168573ffffffffffffffffffffffffffffffffffffffff1603611cf45760006040517f01a83514000000000000000000000000000000000000000000000000000000008152600401611ceb9190613e06565b60405180910390fd5b611d0185858585856128ad565b5050505050565b600060208202602084010151905092915050565b600060208202602084010151905092915050565b7f000000000000000000000000000000000000000000000000000000000000000073ffffffffffffffffffffffffffffffffffffffff163073ffffffffffffffffffffffffffffffffffffffff161480611ddd57507f000000000000000000000000000000000000000000000000000000000000000073ffffffffffffffffffffffffffffffffffffffff16611dc461295f565b73ffffffffffffffffffffffffffffffffffffffff1614155b15611e14576040517fe07c8dba00000000000000000000000000000000000000000000000000000000815260040160405180910390fd5b565b611e1e611fc7565b50565b8173ffffffffffffffffffffffffffffffffffffffff166352d1902d6040518163ffffffff1660e01b8152600401602060405180830381865afa925050508015611e8957506040513d601f19601f82011682018060405250810190611e869190614976565b60015b611eca57816040517f4c9c8ce3000000000000000000000000000000000000000000000000000000008152600401611ec19190613e06565b60405180910390fd5b7f360894a13ba1a3210667c828492db98dca3e2076cc3735a920a3ca505d382bbc60001b8114611f3157806040517faa1d49a4000000000000000000000000000000000000000000000000000000008152600401611f289190613e3a565b60405180910390fd5b611f3b83836129b6565b505050565b7f000000000000000000000000000000000000000000000000000000000000000073ffffffffffffffffffffffffffffffffffffffff163073ffffffffffffffffffffffffffffffffffffffff1614611fc5576040517fe07c8dba00000000000000000000000000000000000000000000000000000000815260040160405180910390fd5b565b611fcf611c08565b73ffffffffffffffffffffffffffffffffffffffff16611fed61105e565b73ffffffffffffffffffffffffffffffffffffffff161461204c57612010611c08565b6040517f118cdaa70000000000000000000000000000000000000000000000000000000081526004016120439190613e06565b60405180910390fd5b565b6000612058612125565b905060008160000160009054906101000a900473ffffffffffffffffffffffffffffffffffffffff169050828260000160006101000a81548173ffffffffffffffffffffffffffffffffffffffff021916908373ffffffffffffffffffffffffffffffffffffffff1602179055508273ffffffffffffffffffffffffffffffffffffffff168173ffffffffffffffffffffffffffffffffffffffff167f8be0079c531659141344cd1fd0a4f28419497f9722a3daafe3b4186f6b6457e060405160405180910390a3505050565b60007f9016d09d72d40fdae2fd8ceac6b6234c7706214fd39c1cd1e609a0528c199300905090565b60006121576115bc565b9050600073ffffffffffffffffffffffffffffffffffffffff168373ffffffffffffffffffffffffffffffffffffffff16036121cb5760006040517fced3e1000000000000000000000000000000000000000000000000000000000081526004016121c29190613e06565b60405180910390fd5b818160010160008673ffffffffffffffffffffffffffffffffffffffff1673ffffffffffffffffffffffffffffffffffffffff16815260200190815260200160002060008573ffffffffffffffffffffffffffffffffffffffff1673ffffffffffffffffffffffffffffffffffffffff16815260200190815260200160002060006101000a81548160ff0219169083151502179055508273ffffffffffffffffffffffffffffffffffffffff168473ffffffffffffffffffffffffffffffffffffffff167f17307eab39ab6107e8899845ad3d59bd9653f200f220920489ca2b5937696c31846040516122be919061368f565b60405180910390a350505050565b60007ff0c57e16840df040f15088dc2f81fe391c3923bec73e23a9662efc9c229c6a00905090565b6122fc612a29565b61230581612a69565b50565b612310612a29565b61231981612aef565b50565b612324612a29565b565b600073ffffffffffffffffffffffffffffffffffffffff168473ffffffffffffffffffffffffffffffffffffffff16036123985760006040517f57f447ce00000000000000000000000000000000000000000000000000000000815260040161238f9190613e06565b60405180910390fd5b600073ffffffffffffffffffffffffffffffffffffffff168573ffffffffffffffffffffffffffffffffffffffff160361240a5760006040517f01a835140000000000000000000000000000000000000000000000000000000081526004016124019190613e06565b60405180910390fd5b600080612417858561287d565b9150915061242887878484876128ad565b50505050505050565b600061243d3383610838565b0361247d576040517f08c379a0000000000000000000000000000000000000000000000000000000008152600401612474906149ef565b60405180910390fd5b600060066000838152602001908152602001600020549050600181116124d8576040517f08c379a00000000000000000000000000000000000000000000000000000000081526004016124cf90614a5b565b60405180910390fd5b60006124f16001836124ea919061416c565b6001610d83565b90506000670de0b6b3a76400006002548361250c91906140ca565b612516919061413b565b90506000670de0b6b3a76400006003548461253191906140ca565b61253b919061413b565b905060018461254a919061416c565b600660008781526020019081526020016000208190555060003373ffffffffffffffffffffffffffffffffffffffff16828486612587919061416c565b612591919061416c565b60405161259d906148c9565b60006040518083038185875af1925050503d80600081146125da576040519150601f19603f3d011682016040523d82523d6000602084013e6125df565b606091505b505090506000600160009054906101000a900473ffffffffffffffffffffffffffffffffffffffff1673ffffffffffffffffffffffffffffffffffffffff168460405161262b906148c9565b60006040518083038185875af1925050503d8060008114612668576040519150601f19603f3d011682016040523d82523d6000602084013e61266d565b606091505b5050905060006008600089815260200190815260200160002060009054906101000a900473ffffffffffffffffffffffffffffffffffffffff1673ffffffffffffffffffffffffffffffffffffffff16846040516126ca906148c9565b60006040518083038185875af1925050503d8060008114612707576040519150601f19603f3d011682016040523d82523d6000602084013e61270c565b606091505b5050905082801561271a5750815b80156127235750805b612762576040517f08c379a00000000000000000000000000000000000000000000000000000000081526004016127599061492a565b60405180910390fd5b5050505050505050565b600073ffffffffffffffffffffffffffffffffffffffff168373ffffffffffffffffffffffffffffffffffffffff16036127de5760006040517f01a835140000000000000000000000000000000000000000000000000000000081526004016127d59190613e06565b60405180910390fd5b6000806127eb848461287d565b9150915061280c8560008484604051806020016040528060008152506128ad565b5050505050565b60007f01ffc9a7000000000000000000000000000000000000000000000000000000007bffffffffffffffffffffffffffffffffffffffffffffffffffffffff1916827bffffffffffffffffffffffffffffffffffffffffffffffffffffffff1916149050919050565b60608060405191506001825283602083015260408201905060018152826020820152604081016040529250929050565b6128b985858585612b03565b600073ffffffffffffffffffffffffffffffffffffffff168473ffffffffffffffffffffffffffffffffffffffff16146129585760006128f7611c08565b90506001845103612947576000612918600086611d1c90919063ffffffff16565b90506000612930600086611d1c90919063ffffffff16565b9050612940838989858589612ec7565b5050612956565b61295581878787878761307b565b5b505b5050505050565b600061298d7f360894a13ba1a3210667c828492db98dca3e2076cc3735a920a3ca505d382bbc60001b61322f565b60000160009054906101000a900473ffffffffffffffffffffffffffffffffffffffff16905090565b6129bf82613239565b8173ffffffffffffffffffffffffffffffffffffffff167fbc7cd75a20ee27fd9adebab32041f755214dbc6bffa90cc0225b39da2e5c2d3b60405160405180910390a2600081511115612a1c57612a168282613306565b50612a25565b612a2461338a565b5b5050565b612a316133c7565b612a67576040517fd7e6bcf800000000000000000000000000000000000000000000000000000000815260040160405180910390fd5b565b612a71612a29565b600073ffffffffffffffffffffffffffffffffffffffff168173ffffffffffffffffffffffffffffffffffffffff1603612ae35760006040517f1e4fbdf7000000000000000000000000000000000000000000000000000000008152600401612ada9190613e06565b60405180910390fd5b612aec8161204e565b50565b612af7612a29565b612b00816133e7565b50565b6000612b0d6115bc565b90508151835114612b5957825182516040517f5b059991000000000000000000000000000000000000000000000000000000008152600401612b50929190614398565b60405180910390fd5b6000612b63611c08565b905060005b8451811015612d81576000612b868287611d1c90919063ffffffff16565b90506000612b9d8387611d1c90919063ffffffff16565b9050600073ffffffffffffffffffffffffffffffffffffffff168973ffffffffffffffffffffffffffffffffffffffff1614612cd057600085600001600084815260200190815260200160002060008b73ffffffffffffffffffffffffffffffffffffffff1673ffffffffffffffffffffffffffffffffffffffff16815260200190815260200160002054905081811015612c7557898183856040517f03dee4c5000000000000000000000000000000000000000000000000000000008152600401612c6c9493929190614a7b565b60405180910390fd5b81810386600001600085815260200190815260200160002060008c73ffffffffffffffffffffffffffffffffffffffff1673ffffffffffffffffffffffffffffffffffffffff16815260200190815260200160002081905550505b600073ffffffffffffffffffffffffffffffffffffffff168873ffffffffffffffffffffffffffffffffffffffff1614612d6e578085600001600084815260200190815260200160002060008a73ffffffffffffffffffffffffffffffffffffffff1673ffffffffffffffffffffffffffffffffffffffff1681526020019081526020016000206000828254612d6691906143f0565b925050819055505b505080612d7a906142ba565b9050612b68565b506001845103612e40576000612da1600086611d1c90919063ffffffff16565b90506000612db9600086611d1c90919063ffffffff16565b90508673ffffffffffffffffffffffffffffffffffffffff168873ffffffffffffffffffffffffffffffffffffffff168473ffffffffffffffffffffffffffffffffffffffff167fc3d58168c5ae7397731d063d5bbf3d657854427343f4c083240f7aacaa2d0f628585604051612e31929190614398565b60405180910390a45050612ebf565b8473ffffffffffffffffffffffffffffffffffffffff168673ffffffffffffffffffffffffffffffffffffffff168273ffffffffffffffffffffffffffffffffffffffff167f4a39dc06d4c0dbc64b70af90fd698a233a518aa5d07e595d983b8c0526c8f7fb8787604051612eb6929190614ac0565b60405180910390a45b505050505050565b60008473ffffffffffffffffffffffffffffffffffffffff163b1115613073578373ffffffffffffffffffffffffffffffffffffffff1663f23a6e6187878686866040518663ffffffff1660e01b8152600401612f28959493929190614b4c565b6020604051808303816000875af1925050508015612f6457506040513d601f19601f82011682018060405250810190612f619190614bbb565b60015b612fe8573d8060008114612f94576040519150601f19603f3d011682016040523d82523d6000602084013e612f99565b606091505b506000815103612fe057846040517f57f447ce000000000000000000000000000000000000000000000000000000008152600401612fd79190613e06565b60405180910390fd5b805181602001fd5b63f23a6e6160e01b7bffffffffffffffffffffffffffffffffffffffffffffffffffffffff1916817bffffffffffffffffffffffffffffffffffffffffffffffffffffffff19161461307157846040517f57f447ce0000000000000000000000000000000000000000000000000000000081526004016130689190613e06565b60405180910390fd5b505b505050505050565b60008473ffffffffffffffffffffffffffffffffffffffff163b1115613227578373ffffffffffffffffffffffffffffffffffffffff1663bc197c8187878686866040518663ffffffff1660e01b81526004016130dc959493929190614be8565b6020604051808303816000875af192505050801561311857506040513d601f19601f820116820180604052508101906131159190614bbb565b60015b61319c573d8060008114613148576040519150601f19603f3d011682016040523d82523d6000602084013e61314d565b606091505b50600081510361319457846040517f57f447ce00000000000000000000000000000000000000000000000000000000815260040161318b9190613e06565b60405180910390fd5b805181602001fd5b63bc197c8160e01b7bffffffffffffffffffffffffffffffffffffffffffffffffffffffff1916817bffffffffffffffffffffffffffffffffffffffffffffffffffffffff19161461322557846040517f57f447ce00000000000000000000000000000000000000000000000000000000815260040161321c9190613e06565b60405180910390fd5b505b505050505050565b6000819050919050565b60008173ffffffffffffffffffffffffffffffffffffffff163b0361329557806040517f4c9c8ce300000000000000000000000000000000000000000000000000000000815260040161328c9190613e06565b60405180910390fd5b806132c27f360894a13ba1a3210667c828492db98dca3e2076cc3735a920a3ca505d382bbc60001b61322f565b60000160006101000a81548173ffffffffffffffffffffffffffffffffffffffff021916908373ffffffffffffffffffffffffffffffffffffffff16021790555050565b60606000808473ffffffffffffffffffffffffffffffffffffffff16846040516133309190614c81565b600060405180830381855af49150503d806000811461336b576040519150601f19603f3d011682016040523d82523d6000602084013e613370565b606091505b5091509150613380858383613409565b9250505092915050565b60003411156133c5576040517fb398979f00000000000000000000000000000000000000000000000000000000815260040160405180910390fd5b565b60006133d16122cc565b60000160089054906101000a900460ff16905090565b60006133f16115bc565b90508181600201908161340491906146c8565b505050565b60608261341e5761341982613498565b613490565b60008251148015613446575060008473ffffffffffffffffffffffffffffffffffffffff163b145b1561348857836040517f9996b31500000000000000000000000000000000000000000000000000000000815260040161347f9190613e06565b60405180910390fd5b819050613491565b5b9392505050565b6000815111156134ab5780518082602001fd5b6040517f1425ea4200000000000000000000000000000000000000000000000000000000815260040160405180910390fd5b6000604051905090565b600080fd5b600080fd5b600073ffffffffffffffffffffffffffffffffffffffff82169050919050565b600061351c826134f1565b9050919050565b61352c81613511565b811461353757600080fd5b50565b60008135905061354981613523565b92915050565b6000819050919050565b6135628161354f565b811461356d57600080fd5b50565b60008135905061357f81613559565b92915050565b6000806040838503121561359c5761359b6134e7565b5b60006135aa8582860161353a565b92505060206135bb85828601613570565b9150509250929050565b6135ce8161354f565b82525050565b60006020820190506135e960008301846135c5565b92915050565b60007fffffffff0000000000000000000000000000000000000000000000000000000082169050919050565b613624816135ef565b811461362f57600080fd5b50565b6000813590506136418161361b565b92915050565b60006020828403121561365d5761365c6134e7565b5b600061366b84828501613632565b91505092915050565b60008115159050919050565b61368981613674565b82525050565b60006020820190506136a46000830184613680565b92915050565b600081519050919050565b600082825260208201905092915050565b60005b838110156136e45780820151818401526020810190506136c9565b60008484015250505050565b6000601f19601f8301169050919050565b600061370c826136aa565b61371681856136b5565b93506137268185602086016136c6565b61372f816136f0565b840191505092915050565b600060208201905081810360008301526137548184613701565b905092915050565b600060208284031215613772576137716134e7565b5b600061378084828501613570565b91505092915050565b600080fd5b600080fd5b7f4e487b7100000000000000000000000000000000000000000000000000000000600052604160045260246000fd5b6137cb826136f0565b810181811067ffffffffffffffff821117156137ea576137e9613793565b5b80604052505050565b60006137fd6134dd565b905061380982826137c2565b919050565b600067ffffffffffffffff82111561382957613828613793565b5b613832826136f0565b9050602081019050919050565b82818337600083830152505050565b600061386161385c8461380e565b6137f3565b90508281526020810184848401111561387d5761387c61378e565b5b61388884828561383f565b509392505050565b600082601f8301126138a5576138a4613789565b5b81356138b584826020860161384e565b91505092915050565b600080fd5b600080fd5b60008083601f8401126138de576138dd613789565b5b8235905067ffffffffffffffff8111156138fb576138fa6138be565b5b602083019150836001820283011115613917576139166138c3565b5b9250929050565b61392781613674565b811461393257600080fd5b50565b6000813590506139448161391e565b92915050565b600080600080600060808688031215613966576139656134e7565b5b600086013567ffffffffffffffff811115613984576139836134ec565b5b61399088828901613890565b955050602086013567ffffffffffffffff8111156139b1576139b06134ec565b5b6139bd888289016138c8565b945094505060406139d08882890161353a565b92505060606139e188828901613935565b9150509295509295909350565b600067ffffffffffffffff821115613a0957613a08613793565b5b602082029050602081019050919050565b6000613a2d613a28846139ee565b6137f3565b90508083825260208201905060208402830185811115613a5057613a4f6138c3565b5b835b81811015613a795780613a658882613570565b845260208401935050602081019050613a52565b5050509392505050565b600082601f830112613a9857613a97613789565b5b8135613aa8848260208601613a1a565b91505092915050565b600080600080600060a08688031215613acd57613acc6134e7565b5b6000613adb8882890161353a565b9550506020613aec8882890161353a565b945050604086013567ffffffffffffffff811115613b0d57613b0c6134ec565b5b613b1988828901613a83565b935050606086013567ffffffffffffffff811115613b3a57613b396134ec565b5b613b4688828901613a83565b925050608086013567ffffffffffffffff811115613b6757613b666134ec565b5b613b7388828901613890565b9150509295509295909350565b600067ffffffffffffffff821115613b9b57613b9a613793565b5b602082029050602081019050919050565b6000613bbf613bba84613b80565b6137f3565b90508083825260208201905060208402830185811115613be257613be16138c3565b5b835b81811015613c0b5780613bf7888261353a565b845260208401935050602081019050613be4565b5050509392505050565b600082601f830112613c2a57613c29613789565b5b8135613c3a848260208601613bac565b91505092915050565b60008060408385031215613c5a57613c596134e7565b5b600083013567ffffffffffffffff811115613c7857613c776134ec565b5b613c8485828601613c15565b925050602083013567ffffffffffffffff811115613ca557613ca46134ec565b5b613cb185828601613a83565b9150509250929050565b600081519050919050565b600082825260208201905092915050565b6000819050602082019050919050565b613cf08161354f565b82525050565b6000613d028383613ce7565b60208301905092915050565b6000602082019050919050565b6000613d2682613cbb565b613d308185613cc6565b9350613d3b83613cd7565b8060005b83811015613d6c578151613d538882613cf6565b9750613d5e83613d0e565b925050600181019050613d3f565b5085935050505092915050565b60006020820190508181036000830152613d938184613d1b565b905092915050565b60008060408385031215613db257613db16134e7565b5b6000613dc08582860161353a565b925050602083013567ffffffffffffffff811115613de157613de06134ec565b5b613ded85828601613890565b9150509250929050565b613e0081613511565b82525050565b6000602082019050613e1b6000830184613df7565b92915050565b6000819050919050565b613e3481613e21565b82525050565b6000602082019050613e4f6000830184613e2b565b92915050565b60008060408385031215613e6c57613e6b6134e7565b5b6000613e7a85828601613570565b9250506020613e8b85828601613570565b9150509250929050565b600080600060608486031215613eae57613ead6134e7565b5b6000613ebc86828701613570565b9350506020613ecd8682870161353a565b925050604084013567ffffffffffffffff811115613eee57613eed6134ec565b5b613efa86828701613890565b9150509250925092565b60008060408385031215613f1b57613f1a6134e7565b5b6000613f298582860161353a565b9250506020613f3a85828601613935565b9150509250929050565b600060208284031215613f5a57613f596134e7565b5b6000613f688482850161353a565b91505092915050565b60008060408385031215613f8857613f876134e7565b5b6000613f968582860161353a565b9250506020613fa78582860161353a565b9150509250929050565b600080600080600060a08688031215613fcd57613fcc6134e7565b5b6000613fdb8882890161353a565b9550506020613fec8882890161353a565b9450506040613ffd88828901613570565b935050606061400e88828901613570565b925050608086013567ffffffffffffffff81111561402f5761402e6134ec565b5b61403b88828901613890565b9150509295509295909350565b600080600060608486031215614061576140606134e7565b5b600061406f8682870161353a565b935050602061408086828701613570565b925050604061409186828701613570565b9150509250925092565b7f4e487b7100000000000000000000000000000000000000000000000000000000600052601160045260246000fd5b60006140d58261354f565b91506140e08361354f565b92508282026140ee8161354f565b915082820484148315176141055761410461409b565b5b5092915050565b7f4e487b7100000000000000000000000000000000000000000000000000000000600052601260045260246000fd5b60006141468261354f565b91506141518361354f565b9250826141615761416061410c565b5b828204905092915050565b60006141778261354f565b91506141828361354f565b925082820390508181111561419a5761419961409b565b5b92915050565b7f4e487b7100000000000000000000000000000000000000000000000000000000600052602260045260246000fd5b600060028204905060018216806141e757607f821691505b6020821081036141fa576141f96141a0565b5b50919050565b600081905092915050565b60008190508160005260206000209050919050565b6000815461422d816141cf565b6142378186614200565b9450600182166000811461425257600181146142675761429a565b60ff198316865281151582028601935061429a565b6142708561420b565b60005b8381101561429257815481890152600182019150602081019050614273565b838801955050505b50505092915050565b60006142af8284614220565b915081905092915050565b60006142c58261354f565b91507fffffffffffffffffffffffffffffffffffffffffffffffffffffffffffffffff82036142f7576142f661409b565b5b600182019050919050565b600061430e83856136b5565b935061431b83858461383f565b614324836136f0565b840190509392505050565b60006060820190506143446000830187613df7565b61435160208301866135c5565b8181036040830152614364818486614302565b905095945050505050565b60006040820190506143846000830185613df7565b6143916020830184613df7565b9392505050565b60006040820190506143ad60008301856135c5565b6143ba60208301846135c5565b9392505050565b7f4e487b7100000000000000000000000000000000000000000000000000000000600052603260045260246000fd5b60006143fb8261354f565b91506144068361354f565b925082820190508082111561441e5761441d61409b565b5b92915050565b60006060820190506144396000830186613df7565b61444660208301856135c5565b6144536040830184613df7565b949350505050565b6000819050919050565b600067ffffffffffffffff82169050919050565b6000819050919050565b600061449e6144996144948461445b565b614479565b614465565b9050919050565b6144ae81614483565b82525050565b60006020820190506144c960008301846144a5565b92915050565b7f55524920616c7265616479207365740000000000000000000000000000000000600082015250565b6000614505600f836136b5565b9150614510826144cf565b602082019050919050565b60006020820190508181036000830152614534816144f8565b9050919050565b60006020601f8301049050919050565b600082821b905092915050565b6000600883026145887fffffffffffffffffffffffffffffffffffffffffffffffffffffffffffffffff8261454b565b614592868361454b565b95508019841693508086168417925050509392505050565b60006145c56145c06145bb8461354f565b614479565b61354f565b9050919050565b6000819050919050565b6145df836145aa565b6145f36145eb826145cc565b848454614558565b825550505050565b600090565b6146086145fb565b6146138184846145d6565b505050565b5b818110156146375761462c600082614600565b600181019050614619565b5050565b601f82111561467c5761464d8161420b565b6146568461453b565b81016020851015614665578190505b6146796146718561453b565b830182614618565b50505b505050565b600082821c905092915050565b600061469f60001984600802614681565b1980831691505092915050565b60006146b8838361468e565b9150826002028217905092915050565b6146d1826136aa565b67ffffffffffffffff8111156146ea576146e9613793565b5b6146f482546141cf565b6146ff82828561463b565b600060209050601f8311600181146147325760008415614720578287015190505b61472a85826146ac565b865550614792565b601f1984166147408661420b565b60005b8281101561476857848901518255600182019150602085019450602081019050614743565b868310156147855784890151614781601f89168261468e565b8355505b6001600288020188555050505b505050505050565b7f4f6e6c79207468652063726561746f722063616e20627579207468652066697260008201527f737420746f6b656e000000000000000000000000000000000000000000000000602082015250565b60006147f66028836136b5565b91506148018261479a565b604082019050919050565b60006020820190508181036000830152614825816147e9565b9050919050565b7f496e73756666696369656e74207061796d656e74000000000000000000000000600082015250565b60006148626014836136b5565b915061486d8261482c565b602082019050919050565b6000602082019050818103600083015261489181614855565b9050919050565b600081905092915050565b50565b60006148b3600083614898565b91506148be826148a3565b600082019050919050565b60006148d4826148a6565b9150819050919050565b7f556e61626c6520746f2073656e642066756e6473000000000000000000000000600082015250565b60006149146014836136b5565b915061491f826148de565b602082019050919050565b6000602082019050818103600083015261494381614907565b9050919050565b61495381613e21565b811461495e57600080fd5b50565b6000815190506149708161494a565b92915050565b60006020828403121561498c5761498b6134e7565b5b600061499a84828501614961565b91505092915050565b7f43616e742073616c65207768617420796f7520646f6e74206861766500000000600082015250565b60006149d9601c836136b5565b91506149e4826149a3565b602082019050919050565b60006020820190508181036000830152614a08816149cc565b9050919050565b7f43616e6e6f742073656c6c20746865206c617374207368617265000000000000600082015250565b6000614a45601a836136b5565b9150614a5082614a0f565b602082019050919050565b60006020820190508181036000830152614a7481614a38565b9050919050565b6000608082019050614a906000830187613df7565b614a9d60208301866135c5565b614aaa60408301856135c5565b614ab760608301846135c5565b95945050505050565b60006040820190508181036000830152614ada8185613d1b565b90508181036020830152614aee8184613d1b565b90509392505050565b600081519050919050565b600082825260208201905092915050565b6000614b1e82614af7565b614b288185614b02565b9350614b388185602086016136c6565b614b41816136f0565b840191505092915050565b600060a082019050614b616000830188613df7565b614b6e6020830187613df7565b614b7b60408301866135c5565b614b8860608301856135c5565b8181036080830152614b9a8184614b13565b90509695505050505050565b600081519050614bb58161361b565b92915050565b600060208284031215614bd157614bd06134e7565b5b6000614bdf84828501614ba6565b91505092915050565b600060a082019050614bfd6000830188613df7565b614c0a6020830187613df7565b8181036040830152614c1c8186613d1b565b90508181036060830152614c308185613d1b565b90508181036080830152614c448184614b13565b90509695505050505050565b6000614c5b82614af7565b614c658185614898565b9350614c758185602086016136c6565b80840191505092915050565b6000614c8d8284614c50565b91508190509291505056fea2646970667358221220a88c717cf7b74310fa9b1fa6547220f0eddeb6c58e988bd19172229557523f8264736f6c63430008140033",
  "linkReferences": {},
  "deployedLinkReferences": {}
}